:020000040800F2
:100000003003002039370000C9350000C935000031
:1000100000000000000000000000000000000000E0
:10002000000000000000000000000000F3350000A8
:100030000000000000000000F3350000A7350000BC
:10004000F3350000F3350000F3350000F335000010
:10005000F3350000173600003B3600006136000023
:10006000F3350000F3350000F3350000F3350000F0
:1000700083360000A7360000CB360000ED360000C6
:1000800011370000F3350000F3350000F3350000B0
:10009000F3350000F3350000F3350000F3350000C0
:1000A000F3350000F3350000F3350000F3350000B0
:1000B000F3350000F3350000F3350000F3350000A0
:1000C000F3350000EC000000FFFF1E2D2D2D204D0C
:1000D0006563726973702D5374656C6C61726973BA
:1000E00020436F7265202D2D2D00C04604010000B5
:1000F00042000432647570003868043F3E60043F7B
:1001000038607047180100006200053264726F7039
:10011000043740CF7047C046380100004400053224
:100120007377617007CF043F3860043F3E60043F3F
:100130003A600E007047C0464C0100006200043275
:100140006E69700007CF043F386070476801000097
:10015000440005326F766572B868043F3E60043F24
:100160003860FE687047C0468C01000044000532CC
:100170007475636B07CF043F3860043F3E60043FF3
:100180003A60043F3960043F38607047B0010000B6
:1001900046000432726F74003868B9683A69B86012
:1001A00039613A6079687E60FE68F9607047C046E0
:1001B000D4010000460005322D726F743868B968AA
:1001C0003A6938613960BA60F968FE607E687960C2
:1001D0007047C046E8010000200003323E7201CFA4
:1001E00001B440B440CF7047000200002000033249
:1001F000723E043F3E6040BC01BC043F3860704723
:1002000018020000200003327240043F3E60019E4D
:10021000043F3E60009E70472C0200002000063222
:100220007264726F700002B07047C04644020000F2
:1002300042000364322F3868F10776104008084303
:10024000386070475802000062000364322A386840
:100250000018764138607047740200004200046460
:10026000736872003868F107760840080843386000
:100270007047C0468C0200006200046473686C0022
:1002800038680018764138607047C046A002000008
:100290004200046461627300002E08D47047C046B7
:1002A000C0020000420007646E65676174653868CB
:1002B0000021C043F64301304E4138607047C046CC
:1002C000D8020000640002642D0007CF121AB14169
:1002D0000E00043F3A607047F002000064000264C0
:1002E0002B0007CF12184E41043F3A607047C046BA
:1002F00004030000610003733E64043F3E60F61790
:100300007047C04630030000420003756D2A38680C
:10031000030073433B60010C320C0B005343B6B235
:1003200080B24E4350433618360CF6187047C0461C
:10033000600300004200026D2A003868C11705D032
:1003400040423860F01704D07642E0E7F017DED084
:10035000764200B5FFF7DBFFFFF7A9FF00BDC046FF
:10036000A003000044000375642A07CF56434143AD
:100370007618010C130C59437618010C80B292B216
:100380005143434350430022C91852411204B61846
:100390000A04090C80184E41043F38607047C0467B
:1003A0003404000044000475646D2A0010B5002474
:1003B000043F3E607E68043F3E603E69FFF7A7FF52
:1003C000310040CF300040CF043F3E603E68043FE4
:1003D0003E60FE6803B4FFF79AFF03BC330040CFD2
:1003E000320040CF043F3E603E68043F3E603E69BD
:1003F0000FB4FFF78CFF0FBC9219634140CF8919EE
:100400006241634140CF043F3E607E68043F3E60EE
:10041000FE680FB4FFF77BFF0FBC9219634140CF1A
:1004200089196241634140CF1E003A607960B8602B
:1004300010BDC046580400004300022A2F0000B53A
:1004400040B440CFFFF779FF043F3E6040BC00F06E
:100450004FF8043700BDC0467C0400004300052A65
:100460002F6D6F6400B540B440CFFFF766FF043FC7
:100470003E6040BC00F03CF800BDC046A004000057
:10048000430003752A2F00B540B440CFFFF73FFF6C
:10049000043F3E6040BC00F01CF8043700BDC0467D
:1004A000C4040000430006752A2F6D6F640000B578
:1004B00040B440CFFFF72BFF043F3E6040BC00F04C
:1004C00008F800BDE4040000430006756D2F6D6F51
:1004D000640000B5043F3E60002600F01AF840CFEB
:1004E000043700BD040500004300056D2F6D6F64E7
:1004F00000B5043F3E60F61700F034F840CF0437F3
:1005000000BDC0465805000044000675642F6D6F9D
:10051000640030B4002300227968B86835003C6874
:1005200040264000494152415B41AB4202D804D3CE
:10053000A24202D3121BAB410130013EF1D10E00A9
:1005400038607B60BA6030BC704730B400237A6892
:10055000B9680020E2E7C046D00500004400056409
:100560002F6D6F6400B5F01719D0FFF7A0FEFFF7ED
:10057000D9FDF0170CD0FFF79AFEFFF7D3FDFFF778
:10058000C8FFFFF7CFFDFFF792FEFFF7CBFD00BDE1
:10059000FFF7C8FDFFF7BDFFFFF789FE00BDFFF7BE
:1005A000C1FDF0170ED0FFF782FEFFF7BBFDFFF78E
:1005B000B0FFFFF77CFEFFF7B5FDFFF778FEFFF712
:1005C000B1FD00BDFFF7AEFDFFF7A3FF00BDC046C4
:1005D000E8050000440002642F0000B5FFF7C2FFE9
:1005E000FFF7B0FD00BDC0463006000044000266C3
:1005F0002A0000B5F0170DD0FFF759FEFFF792FD66
:10060000F0170DD0FFF753FEFFF7D0FE40CF01CF1C
:10061000386000BDFFF786FDF017F5D0FFF747FE05
:10062000FFF7C4FE40CF01CF3860FFF740FE00BDAA
:100630007C060000440002662F0000B5F0170ED0C3
:10064000FFF735FEFFF76EFDF0170ED0FFF72FFE18
:10065000FFF768FDFFF779FFFFF774FD00BDFFF7B7
:1006600061FDF017F4D0FFF722FEFFF75BFDFFF707
:100670006CFFFFF71CFEFFF765FD00BD9006000054
:1006800020000232210006CF3160726040CF7047F7
:10069000A4060000200002324000043F7068386069
:1006A00036687047C406000044000364753C07CFF9
:1006B0008E4204D801D1904201D80026704700260E
:1006C000F6437047E406000044000364753E07CF1C
:1006D000B14204D801D1824201D8002670470026D9
:1006E000F643704704070000440002643C0007CF53
:1006F0008E4204DC01D1904201DC002670470026C6
:10070000F643704724070000440002643E0007CF10
:10071000B14204DC01D1824201DC00267047002690
:10072000F64370473407000062000364303C04372E
:10073000F61770474807000062000364303D01CFA0
:100740000643013EB641704764070000440003645D
:100750003C3E07CF50404E400643013EB641F64373
:100760007047C0467C070000440002643D0007CF8C
:1007700050404E400643013EB6417047900700008E
:10078000200003737040043F3E603E007047C04647
:10079000A0070000200003737021370040CF70478E
:1007A000B4070000200003727040043F3E606E46B4
:1007B0007047C046C4070000200003727021B54690
:1007C00040CF7047D4070000610003647570043F98
:1007D0003E607047E407000061000464726F7000BF
:1007E00040CF7047FC0700006100043F6475700053
:1007F000002E01D0043F3E607047C0461008000044
:10080000620004737761700039683E600E007047C3
:10081000200800006200036E697004377047C0460C
:10082000340800006200046F76657200043F3E6089
:100830007E6870474C0800006200047475636B00AA
:1008400001CF083F7E6038607047C04664080000F2
:10085000630003726F7403CF083F78603E600E0040
:100860007047C0467C0800006300042D726F74005E
:1008700003CF083F7E603960060070479008000093
:100880002000047069636B00B0003E587047C0469A
:10089000A80800000000056465707468C749C91B9A
:1008A000043F3E608E087047C408000000000672D6
:1008B000646570746800043F3E606E46C049891BE1
:1008C0008E087047D40800002000023E720040B439
:1008D00040CF7047E8080000200002723E00043F4D
:1008E0003E6040BC7047C046FC0800002000027219
:1008F0004000043F3E60009E7047C0460C09000067
:100900002000057264726F7001B07047200900000A
:10091000200005727069636BB6006E4436687047DC
:10092000340900006A0003616E6401CF064070471D
:100930000640C046480900006A000362696301CFAF
:10094000B0430600704786435C0900006A00026FEE
:10095000720001CF064370470643C046700900008D
:100960006A0003786F7201CF464070474640C04628
:10097000800900006100036E6F74F6437047C04643
:10098000A0090000410003636C7A300006D0002605
:10099000400002D001D20136FAE7704720267047A6
:1009A000B009000061000373687276087047C046A2
:1009B000C009000061000373686C76007047C04690
:1009C000D0090000610003726F720120C6417047B8
:1009D000E4090000610003726F6C0020B619464103
:1009E0007047C046000A00006C00067273686966B2
:1009F000740001CFF0400600704736080026C0465C
:100A00001C0A00006C00076172736869667401CF8C
:100A10003041060070473610F617C046380A00000D
:100A20006C00066C73686966740001CFB040060004
:100A3000704736000026C046480A000061000230B8
:100A40003D00013EB64170475C0A00006100033082
:100A50003C3E013EB641F6437047C0466C0A00007A
:100A6000610002303C00F6177047C046840A00005F
:100A70006000047472756500043F3E600026F64312
:100A80007047C046980A000060000566616C736597
:100A9000043F3E6000267047AC0A00004200023E60
:100AA0003D0001CFB042E9DA00267047C00A0000DD
:100AB0004200023C3D0001CFB042DFDD002670471E
:100AC000D40A00004200013C01CFB042D6DB002630
:100AD0007047C046E80A00004200013E01CFB04224
:100AE000CCDC00267047C046FC0A0000620003759B
:100AF0003E3D01CF861BB641F6437047100B000008
:100B0000620003753C3D01CF361AB641F64370478B
:100B1000240B0000620002753C0001CF861BB64129
:100B20007047C046380B0000620002753E0001CFDE
:100B3000361AB6417047C046500B00006B00023CAD
:100B40003E0001CF361A013EB641F6437047C0461B
:100B5000640B00006B00013D01CF361A013EB64127
:100B60007047C046780B00006200036D696E01CFCC
:100B7000B04200DC060070478C0B00006200036D81
:100B8000617801CFB04200DB06007047A40B000083
:100B9000620004756D61780001CFB04200D3060099
:100BA0007047C046C40B0000620004756D696E009A
:100BB00001CFB04200D8060070470000300200208C
:100BC00030030020040C00000000046D6F76650007
:100BD00007B5310040CF320040CF00290FD0B242DC
:100BE0000DD006D3013E013A705C50540139FBD15F
:100BF00005E030781070013601320139F9D140CF6B
:100C000007BDC046280C000000000466696C6C003B
:100C1000300040CF310040CF002902D0013970545C
:100C2000FCD140CF7047C046340C0000200001408A
:100C3000366870474C0C00006D00012103CF306016
:100C40000E0070470660704701607047740C00002A
:100C50006D00022B210003CF3268121832600E00A3
:100C60007047026892190260704702685218026069
:100C70007047C046840C000020000268400036889F
:100C80007047C046A00C00006D000268210003CF31
:100C900030800E0070470680704701807047C04664
:100CA000C80C00006D0003682B2103CF3288121896
:100CB00032800E00704702889219028070470288C5
:100CC000521802807047C046D80C00002000026312
:100CD000400036787047C046F40C00006D00026397
:100CE000210003CF30700E0070470670704701700E
:100CF0007047C0461C0D00006D0003632B2103CF1D
:100D00003278121832700E00704702789219027011
:100D100070470278521802707047C046440D0000B8
:100D20006D0004626973210003CF326802433260B0
:100D30000E007047026832430260704702680A433F
:100D4000026070476C0D00006D0004626963210051
:100D500003CF3268824332600E0070470268B243AC
:100D60000260704702688A4302607047940D000079
:100D70006D0004786F72210003CF32684240326008
:100D80000E007047026872400260704702684A4075
:100D900002607047FC0D0000680004626974400046
:100DA00001CF36680640013EB641F6437047C64A59
:100DB00000B5012B0AD1043F3E60002600F04CFE36
:100DC000043F3E60160001F0D2F911E002CF013B72
:100DD00002F021FB043F3E603626164301F0C7F9BE
:100DE000043F3E600E00043F3E60002600F034FEEB
:100DF000043F3E60B54E00F0CEFF00BD240E000063
:100E00006D0005686269732103CF32880243328026
:100E10000E007047028832430280704702880A43FE
:100E2000028070474C0E00006D0005686269632106
:100E300003CF3288824332800E0070470288B2436B
:100E40000280704702888A4302807047740E000057
:100E50006D000568786F722103CF3288424032807E
:100E60000E007047028872400280704702884A4034
:100E700002807047940E0000680005686269744043
:100E800001CF36880640013EB641F6437047904A8E
:100E90008EE7C046BC0E00006D00056362697321D9
:100EA00003CF3278024332700E007047027832432B
:100EB0000270704702780A4302707047E40E000027
:100EC0006D0005636269632103CF3278824332701B
:100ED0000E0070470278B2430270704702788A436E
:100EE000027070470C0F00006D000563786F72216F
:100EF00003CF3278424032700E0070470278724061
:100F00000270704702784A40027070472C0F000050
:100F1000680005636269744001CF36780640013E7F
:100F2000B641F64370476B4A42E7C0463C0F0000AB
:100F300061000563656C6C2B043670474C0F000034
:100F400061000563656C6C73B6007047E00F0000CC
:100F500000000768666C61736821300040CF310083
:100F600040CF5D4B984221D35C4B98421ED25C4BE4
:100F70001940994219D001220240002A16D1028854
:100F80009A4213D1574A8018574A584B1360584B0E
:100F90001360584A012313600180574A13680120E7
:100FA0001840FBD1534A80231360704700F006FCC1
:100FB0002A57726F6E672061646472657373206F65
:100FC00072206461746120666F722077726974693F
:100FD0006E6720666C61736820210A0002F042FA95
:100FE0003010000000000E666C6173687061676508
:100FF0006572617365000FB5300040CF364B984283
:1010000014D3394A394B1360394B1360394A0223E0
:1010100013603A4A1060374A42231360364A136815
:1010200001201840FBD1334A802313600FBDC04616
:10103000AC10000000000A6572617365666C617334
:101040006800254872B62549254A038893421CD07A
:10105000043F3E600600043F3E6000F0AFFB1045D9
:101060007261736520626C6F636B20617420200075
:1010700000F01CFC00F0A2FB0C2066726F6D204695
:101080006C6173680A00FFF7B6FF02308842DCD15A
:1010900000F094FB1246696E69736865642E2052F5
:1010A0006573657420210A0002F06AFA00110000DD
:1010B00000000E6572617365666C61736866726FBD
:1010C0006D00300040CFBDE700680000A40D0000B7
:1010D00000880000007800000040000000000100CF
:1010E000FFFF0000000000080420024023016745C4
:1010F000AB89EFCD102002400C20024014200240AA
:10110000141100006900012B01CF36187047361802
:101110000036C046281100006900012D01CF861B52
:101120007047361A003EC046381100006100023197
:101130002D00013E7047C046481100006100023199
:101140002B0001367047C046581100006100023282
:101150002D00023E7047C046681100006100023257
:101160002B0002367047C0467C1100006100066EFD
:1011700065676174650076427047C0469011000053
:10118000610003616273F017361846407047C0462D
:10119000D8110000420005752F6D6F64310040CFFB
:1011A000002903D1043F3E6000267047012200233E
:1011B0008E4206D9003104D45200490001D48E4237
:1011C000FAD88E4201D3761A134349085208F8D14F
:1011D000043F3E601E007047481200004200042F8A
:1011E0006D6F640000B5300040CF002E1CDA7642EF
:1011F00000280CDA4042043F3E600600FFF7CEFFB5
:10120000300040CF7642043F3E60060000BD043F00
:101210003E600600FFF7C2FF300040CF40427642FA
:10122000043F3E60060000BD002807DA4042043F4C
:101230003E600600FFF7B2FF764200BD043F3E600D
:101240000600FFF7ABFF00BD5C1200004200036D1B
:101250006F6400B5FFF7C6FF40CF00BD70120000FD
:101260004200012F00B5FFF7BDFF043700BDC046A7
:10127000801200006A00012A01CF464370474643AE
:1012800090120000610002322A0076007047C046CA
:10129000A0120000610002322F0076107047C04695
:1012A000B41200006100046576656E0001203040D4
:1012B00036187047CC12000081000462617365002B
:1012C000043F3E60864E70470A000000E4120000B2
:1012D00000000662696E6172790081480221016036
:1012E0007047C046FC120000000007646563696D2A
:1012F000616C7B480A2101607047C04634130000CE
:1013000000000368657876481021016070477549D0
:1013100075480860754976480860764976480860DF
:1013200076497748086077494620086076497748CB
:101330000860704750130000810009686F6F6B2DC3
:10134000656D6974043F3E60714E7047461400003D
:101350006C130000810008686F6F6B2D6B6579005E
:10136000043F3E606B4E70476E1400008C1300000B
:1013700081000A686F6F6B2D656D69743F00043FD3
:101380003E60654E704798140000C046A8130000E8
:10139000810009686F6F6B2D6B65793F043F3E607C
:1013A0005E4E7047C6140000C813000081000A6832
:1013B0006F6F6B2D706175736500043F3E60584E12
:1013C00070472E350000C046E013000000000465A1
:1013D0006D6974000FB54E4800F029F80FBDC04686
:1013E000F41300000000036B65790FB5494800F065
:1013F0001EF80FBD08140000000005656D69743FFC
:10140000454800688746C0461C1400000000046B75
:1014100065793F00414800688746C04634140000A3
:1014200000000570617573653D4800688746006877
:101430008746C0465C14000000000B73657269614A
:101440006C2D656D697400B500F026F8002E40CF54
:10145000FAD0344A167040CF00BDC0468414000054
:1014600000000A73657269616C2D6B65790000B5C7
:1014700000F029F8002E40CFFAD0043F3E602A4AFF
:10148000167800BDB414000000000C736572696129
:101490006C2D656D69743F0000B5FFF7C5FF043F13
:1014A0003E600026214801688020014000D0F643BC
:1014B00000BDC0463015000000000B736572696105
:1014C0006C2D6B65793F00B5FFF7AEFF043F3E60C2
:1014D0000026164801682020014000D0F64300BDD8
:1014E000FC1F00201410024000005E001810024093
:1014F00000400000000000480000282824000048A8
:10150000100100000C380140003801400D000000BF
:10151000F81F0020F41F0020F01F0020EC1F002007
:10152000E81F002028380140243801401C380140C1
:10153000541500000000076365787065637400B59A
:10154000386801B40130386000F00BF801BC067057
:1015500040CF00BDCC1500000000066163636570DC
:10156000740000B502CF01390022FFF73EFF3000C2
:1015700040CF7F2809D0202819D2092816D00A2860
:101580001FD00D281DD00828EFD1002AEDD000F083
:1015900015F903082008002AE7D0885C013A802367
:1015A0000340E2D040230340F5D0DEE72020B242E2
:1015B000DBD2043F3E600600FFF70CFF0132885487
:1015C000D3E7160000F0A8F800BDC046E015000003
:1015D000400003746962043F3E602B4E7047C04672
:1015E000F81500008100033E696E043F3E60274EFF
:1015F000704700000000C0462016000082000E6305
:10160000757272656E742D736F7572636500043F39
:101610003E601F4E70470000000068000020C0467A
:101620003C160000000009736574736F7572636582
:10163000174802CF0660416040CF70475C1600003B
:10164000000006736F7572636500043F3E60104EC4
:10165000043F7068386036687047C04694160000D2
:1016600000000571756572790FB5084800210160A9
:10167000FFF7B1FF043F3E60043F3E60C826FFF71E
:1016800070FFFFF7D5FF0FBD68000020E41F0020AA
:10169000DC1F0020E4160000000007636F6D70611E
:1016A00072650FB5310040CF01CF884202D040CFE4
:1016B00000260FBD02CF002810D001380A5C335C31
:1016C000412A02D35B2A00D22032412B02D35B2B6A
:1016D00000D220339A42EED000260FBD0026F643FA
:1016E0000FBDC046F816000000000263720000B58E
:1016F00000F064F8010A00BD0C170000000002624F
:101700006C00043F3E6020267047C0462017000052
:101710000000057370616365043F3E60202659E652
:10172000401700000000067370616365730000B528
:10173000002E03DDFFF7F0FF013EFBD140CF00BDDF
:10174000501700005000065B636861725D0005E0A1
:1017500068170000000004636861720000B501F0C2
:101760000FFB40CF367800BD7817000050000128ED
:10177000043F3E60292606E0941700005000015CFB
:10178000043F3E60002600B501F004FB043740CF63
:1017900000BDC046DC1700001000022E22009F484A
:1017A00000B5043F3E60060000F0DEF9043F3E60F5
:1017B000222601F0EFFA00F014FD00BD0AB4043F48
:1017C0003E607646013E33780121013319405B18B3
:1017D0007146C9188E460ABC3CE0C0460418000099
:1017E0001000026322008E48DAE7043F3E6076462E
:1017F000013E33780121013319405B187146C91845
:101800008E46704730180000100002732200854891
:10181000C6E7043F3E607646043F3E60013E3678B0
:101820000121731C19405B187146C9188E46704718
:1018300048180000000005636F756E740136043FA0
:101840003E60013E36787047701800000000056366
:101850007479706501B53078002807D00136043FEF
:101860003E603678FFF7B6FD0138F7D140CF01BDB5
:10187000A01800000000047479706500310040CFAA
:10188000300040CF00B5002908D00022043F3E6060
:10189000865CFFF79FFD01329142F7D100BDC04643
:1018A000DC1800000000046865782E0007B53100E0
:1018B00040CF20200F220438043F3E600E00C64077
:1018C0001640092E01D9373600E03036FFF782FD89
:1018D0000028F0D1FFF720FF07BDC046EC1800003C
:1018E000000003682E731FB54F4C0EE0FC1800007B
:1018F000000003752E731FB54C4C06E07C190000E8
:101900000000022E73001FB5494C4A49C91B8908C3
:10191000494A106803B40A201060FFF74FFF0853CC
:101920007461636B3A205B00043F3E600E0001F07F
:101930001DFCFFF743FF025D200003BC3E4A106020
:1019400000290AD03D4A106806B4043F3E600600F4
:10195000A04706BC043A0139F5D1FFF72FFF062056
:10196000544F533A2000043F3E603600A047FFF733
:1019700025FF04202A3E0A001FBDC046401A000071
:10198000000005776F72647300B5FFF717FF010A57
:1019900000F065FEFFF712FF09416464726573731E
:1019A0003A20043F3E60FFF781FFFFF707FF064C38
:1019B000696E6B3A2000043F3E603668FFF776FFA1
:1019C000FFF7FCFE07466C6167733A20043F3E60F8
:1019D000B688FFF76BFFFFF7F1FE06436F64653AC9
:1019E0002000B01D00F076FE043F3E600600FFF7C9
:1019F0005DFFFFF7E3FE064E616D653A2000043F90
:101A00003E600636FFF726FFFFF7D8FE010A00F01A
:101A10003EFE300040CFBDD040CF00BDBC1700001F
:101A2000EA17000012180000AD1800005B3100003A
:101A30006D31000030020020FC1F00202C0200202D
:101A40005C1B000000001072656769737465726C3E
:101A500069746572616C2C003FB5350040CF290078
:101A6000C90029432D029E480543FF230022300070
:101A7000D040984301D00132F9E73000D0401840FF
:101A80002843043F3E60060000F071FB9548054383
:101A900018009040864310D000243000E040984366
:101AA00001D00134F9E7101B043F3E600E008001B5
:101AB000064300F05CFB2200DFE7002A06D0043F6B
:101AC0003E600E009201164300F051FB40CF3FBD37
:101AD0001FB5310040CF844C0C43C9000C43490171
:101AE000300040CF020EFF231A407D4B0B431343BF
:101AF000043F3E601E0000F03AFB043F3E602600BB
:101B000000F035FB020CFF231A40784B0B431343C4
:101B1000043F3E601E0000F02AFB043F3E602600AA
:101B200000F025FB020AFF231A40704B0B431343BE
:101B3000043F3E601E0000F01AFB043F3E6026009A
:101B400000F015FB0200FF231A40684B0B431343C0
:101B5000043F3E601E0000F00AFB1FBDCC1B0000CE
:101B600000000563616C6C2C0FB5330000F04CFE77
:101B7000300040CF1B1A043B5D49194000290ED0AC
:101B80005C4A91420BD00136043F3E600026FFF7CD
:101B900063FF043F3E60584E00F0E9FA0FBD40CFAE
:101BA0005B085648564919400843DB0A5549194015
:101BB000090408439B0A0121194089060843043F90
:101BC0003E60060000F0FDFA0FBDC046201C00007C
:101BD0000000086C69746572616C2C0008B5043FE4
:101BE0003E60494E00F0C3FA043F3E60474E00F0AD
:101BF000BEFA474B3000184098420BD1F643043FE1
:101C00003E600626FFF728FF043F3E60414E00F08D
:101C1000AEFA08BD043F3E600626FFF71DFF08BD73
:101C2000481C00000000066372656174650000B521
:101C300000F03DF81C20000267308047043F3E6002
:101C40007646013E00BDC046A01C00002000056491
:101C50006F65733E1C20000267308047043F3E6082
:101C60007646013E7047043F3E607646013E2A4A72
:101C700013682A4909680220084000D10231023164
:101C800011600136043F3E600026FFF721FF043F4C
:101C90003E60194E00F06BFA136000F0E0F900BDF1
:101CA000241D00000000073C6275696C647300B578
:101CB00000F062FB00F0A8FD0220064040CF04D1F6
:101CC000043F3E60362600F052FA043F3E60144E58
:101CD00000F04DFA043F3E60102600F0B5FA00BD5A
:101CE0000020000000100000000200000030000092
:101CF0000100C0FF0000C0FF8047000000F800F0B6
:101D0000FF070000FF030000043F00003E600000EA
:101D10000000FFFFF6430000000000201400002038
:101D200000B50000301D00005000035B275D03E09C
:101D3000481D00000000012700B501F021F800F067
:101D400008FD300040CF00BD881D00001000087065
:101D50006F7374706F6E650000B5FFF7EDFF1021B3
:101D600001400DD12021014005D0FFF737FF043F8E
:101D70003E60DF4E04E0FFF731FF043F3E60DD4E82
:101D8000FFF7F2FE00BDC046D41D00000000076949
:101D90006E6C696E652C00B5D749D84AD84B30882F
:101DA000884208D0904208D0984206D0043F3E6056
:101DB000060000F0DCF90236F1E740CF00BD0EB4BA
:101DC000CE4ACF4B01880230914201D09942F9D1DD
:101DD0000EBC7047E81D00000000047265742C0002
:101DE000043F3E60C54EC2E1F81D000030000465AE
:101DF00078697400F4E7C046101E000030000772D6
:101E0000656375727365043F3E60BE4E3668ABE62F
:101E1000281E00008100057374617465043F3E60F4
:101E2000B94E7047000000003C1E00000000015D3C
:101E3000B5480021C94301607047C0464C1E0000F0
:101E40001000015BB048002101607047741E000063
:101E50000000013A00B5AD48076000F08DFA043F7C
:101E60003E60A54E00F083F9A7480021C9430160F8
:101E700000BDC046BC1E00003000013B00B5A348B9
:101E80000168B9420ED0FFF799FC152053746163C5
:101E90006B206E6F742062616C616E6365642E0AE4
:101EA00001F0E0FA043F3E60944E00F060F900F06B
:101EB000D6F895480021016000BDC046D01E000044
:101EC00000000765786563757465300040CF87460C
:101ED000E81E0000100009696D6D65646961746534
:101EE000043F3E601026E9E0001F00001000066974
:101EF0006E6C696E6500043F3E602026DEE0C046E1
:101F00001C1F000010000B636F6D70696C656F6EB5
:101F10006C79043F3E603026D0E0C046381F000098
:101F200010000A302D666F6C6461626C6500043FBE
:101F30003E604026C2E0C046541F000010000A3137
:101F40002D666F6C6461626C6500043F3E604126E3
:101F5000B4E0C046701F000010000A322D666F6C9E
:101F60006461626C6500043F3E604226A6E0C046A4
:101F70008C1F000010000A332D666F6C6461626C68
:101F80006500043F3E60432698E0C046A81F00005D
:101F900010000A342D666F6C6461626C6500043F4A
:101FA0003E6044268AE0C046C41F000010000A3587
:101FB0002D666F6C6461626C6500043F3E6045266F
:101FC0007CE0C046E01F000010000A362D666F6CF2
:101FD0006461626C6500043F3E6046266EE0C04668
:101FE000FC1F000010000A372D666F6C6461626C84
:101FF0006500043F3E60472660E0C0462C2000009C
:10200000000008636F6E7374616E740000B500F0B9
:10201000B3F9FFF7E3FD043F3E60394E00F0A7F847
:10202000FFF785FF00F01BF800BDC0465020000000
:1020300000000932636F6E7374616E7400B500F056
:102040009BF939683E600E46FFF7C8FDE1E7C046E0
:10205000AC200000000006736D756467650000B574
:102060002B4801682A4A91421AD202390A88294B20
:102070009A4204D1043F3E60274E00F078F800F009
:1020800065F826480068043F3E6006002449096858
:1020900004311F4A1368116000F069F8136000BD35
:1020A00000F054F8043F3E60002608E024210000C0
:1020B000000008736574666C6167730000B51448AE
:1020C0000168134A914205D2144801683143016006
:1020D00040CF00BD320040CF114800680430018875
:1020E0000C4B994201D1110000E01143018000BD69
:1020F000961D0000681B000000B5000000BD000038
:102100007047000014000020D81F0020100000209D
:1021100000000020FFFF0000000000002000002061
:102120000400002040210000410007616C69676ED7
:102130006564012030403618022030403618704760
:1021400064210000000005616C69676E00B580487D
:1021500001680220014004D0043F3E60002600F0E8
:1021600006F800BD9C210000000002682C000FB59D
:10217000B6B277480168764A914205D2043F3E6084
:102180000E00FEF7EAFE02E0320040CF0A80043F74
:102190003E60022600F058F80FBDC046B82100008E
:1021A0000000012C00B5043F3E60FFF7E0FF360C55
:1021B000FFF7DDFF00BDC046D42100000000033E54
:1021C0003C2C00B5043F3E60360CFFF7D0FFFFF714
:1021D000CEFF00BD3C220000000007737472696EE0
:1021E000672C07B5FF21314040CF300040CF002998
:1021F00005D1043F3E600026FFF7B9FF07BD043F4D
:102200003E60067836020E43FFF7B1FF0130013918
:1022100002290AD3043F3E6046783602027816430C
:10222000FFF7A5FF02300239F2E7002900D107BD10
:10223000043F3E600678FFF79AFF07BD9822000032
:10224000000005616C6C6F7441480168404A91421E
:102250000FD2320040CF89183E4A914219D3FFF77E
:10226000ADFA0B466C6173682066756C6C0A01F000
:10227000F9F8320040CF8918374A1268914208D3E2
:10228000FFF79CFA0952616D2066756C6C0A01F0CB
:10229000E9F801607047C046C022000000000D63ED
:1022A0006F6D70696C65746F72616D3F043F3E6065
:1022B0000026274800682649884248D3F6437047DD
:1022C000E022000000000C636F6D70696C65746F34
:1022D00072616D001E4800681D49884211D3704725
:1022E0006823000000000E636F6D70696C65746F89
:1022F000666C61736800164800681549884200D210
:1023000070471648164902680B680A600360104857
:10231000144902680B680A6003600F480068834232
:1023200015D300B5FFF74AFA23205661726961623E
:102330006C657320636F6C6C696465207769746881
:102340002064696374696F6E6172790A00BD7047B9
:1023500000000020000001002400002004000020F4
:102360001C00002018000020542400000000082851
:10237000637265617465290000B500F001FD002EEF
:102380000ED1FFF71BFA1520437265617465206E4C
:1023900065656473206E616D6520210A01F062F845
:1023A0003868043F3E60043F386000F0A3F940CF36
:1023B000002E40CF11D03868043F3E60043F3860A3
:1023C000FFF7FCF9095265646566696E6520FFF7E1
:1023D00055FAFFF7F3F9022E0A00FFF7B7FE00F0F7
:1023E00013FA8D4800688C4988421CD28B48002122
:1023F0000160043F3E600626FFF726FFFEF738FA2D
:10240000FFF7EFFE864801680A68864B9A4207D1BB
:10241000814A13681160043F3E60FFF7C3FE1360FA
:10242000066040CF10E07E48043F3E600668FFF73C
:10243000B9FE043F3E607C4EFFF799FE78483100BC
:1024400040CF0160FFF7CDFE734801687748016017
:1024500000BDC0466C24000000000876617269610E
:10246000626C6500043F3E60012613E08424000096
:10247000000009327661726961626C65043F3E60FA
:10248000022607E05C2500000000096E7661726993
:1024900061626C6500B5FFF76FFF5F4801685E4AD7
:1024A000914233D20F200640B20061480168891A78
:1024B000604A91420BD2FFF781F90F4E6F7420658D
:1024C0006E6F7567682052414D0A00F0CBFF0160C6
:1024D000043F3E600E00FFF781FB043F3E60564E16
:1024E000FFF745FE300040CF0200002805D00E6007
:1024F0000431FFF757FE0138F9D1043F3E608026D2
:102500001643FFF7DBFDFFF7AAFD00BD00F07CF9E5
:102510000220064040CF04D1043F3E603626FFF73C
:1025200026FE043F3E60454EFFF74BFE043F3E60F3
:10253000434EFFF746FE043F3E603F4EFFF717FE57
:10254000300040CF002803D0FFF72CFE0138FBD12C
:10255000FFF7EDFCFFF783FD00BDC04648260000F5
:102560000000076275666665723A00B5FFF704FF02
:1025700001203040361802203040361826480168C5
:10258000254A914226D22A480168891B294A91424C
:102590000BD2FFF713F90F4E6F7420656E6F7567DE
:1025A000682052414D0A00F05DFF0160043F3E602B
:1025B0000E00FFF713FB043F3E601F4EFFF7D7FDF1
:1025C000FFF7F0FD043F3E601E4EFFF777FDFFF77B
:1025D00046FD00BD00F018F90220064040CF04D1AE
:1025E000043F3E603626FFF7C2FD043F3E60134EB7
:1025F000FFF7E7FD043F3E60114EFFF7E2FD043FA9
:102600003E600D4EFFF7B3FDFFF71EFEFFF78FFC98
:10261000FFF725FD00BD0000000000202000002085
:1026200004000020FFFFFFFFFFFF00001400002058
:102630002400002030030020704700003E60043F6B
:1026400002367E46400100007826000000000F643C
:10265000696374696F6E6172797374617274EB4847
:102660000068EA49043F3E60884201D2E84E704764
:10267000E84E36687047C046B426000000000E647D
:10268000696374696F6E6172796E6578740003B501
:102690003168E148814207D08879FF2804D00E00D4
:1026A000043F3E60002603BD043F3E600026F64323
:1026B00003BDC046E826000000000A736B69707312
:1026C0007472696E67003178013101220A408918FD
:1026D0007618704706B40178013101220A40891842
:1026E000401806BC7047C04668270000000004661A
:1026F000696E64003FB500220023350040CF3400EE
:1027000040CFFFF7ACFFC548B188884217D0043FDF
:102710003E600636FFF792F8043F3E602600043F15
:102720003E602E00FEF7BDFF002E40CF07D0B01D4B
:10273000FFF7D0FF02000B00B448824204D2FFF73B
:10274000A6FF300040CFDED01600043F3E601E00E2
:102750003FBD00B531003868FFF7CCFF3A68002A6A
:1027600001D100F077FD00BDC42700000000066322
:102770006A756D702C00320040CF310040CF8B1B4A
:10278000043BA749194000290DD0A64881420AD030
:10279000FFF714F80D4A756D7020746F6F20666135
:1027A000720A00F05FFE5B10FF210B401343300004
:1027B0001E0000B5954A13681060FFF7D8FC13603F
:1027C00000BDC046FC2700000000056A756D702C36
:1027D000310040CF300040CF0B1A043B92491940E2
:1027E000002902D0914A9142D2D15B10904A134005
:1027F000904A1343043F3E601E00DAE714280000AD
:102800000000046865726500043F3E607F4E3668D4
:102810007047C0460429000000000D666C617368B3
:102820007661722D68657265043F3E60824E36683F
:10283000704700B5043F3E60804EFFF798FC043FB0
:102840003E607F4EFFF793FC00BDDDE700B500F072
:1028500037F839683E600E46043F3E60794EFFF718
:102860008AFF00BD00B500F02BF839683E600E46C7
:10287000043F3E60744EFFF77EFF00BD00B5FFF7DA
:10288000D8FF00F01DF839683E600E46043F3E60F8
:102890006E4EFFF770FF00BD00B500F011F839680B
:1028A0003E600E46FFF794FF00BD00B5FFF7C1FF85
:1028B000FFF7AAFF043F3E600226FFF7C5FC00BDFC
:1028C00000B5FFF7A1FF043F3E600226FFF7BCFC06
:1028D00000BD00B5FFF798FFFFF77AFF00BD00B518
:1028E000FFF792FF043F3E60584EFFF744FF00BDE4
:1028F00000B5FFF789FF043F3E60524EFFF73BFFF4
:1029000000BDC046402900003000047468656E00B8
:10291000052E01D140CFDCE7022E01D140CFDEE70A
:10292000FEF74CFF175374727563747572657320EC
:10293000646F6E2774206D617463680A00F092FD05
:102940006C290000300004656C73650000B5022E30
:10295000E6D140CFFFF7B4FF39683E600E46FFF77F
:10296000BEFF043F3E60052600BDC046842900002E
:1029700030000269660000B5FFF797FF043F3E6034
:10298000022600BDAC29000030000672657065614A
:102990007400042EC4D140CF39683E600E4600B5A5
:1029A000FFF77AFFFFF79BFF00BDC046C829000074
:1029B0003000057768696C65012EB1D140CF00B554
:1029C000FFF7D9FF023600BDDC2900003000057595
:1029D0006E74696C012EA3D140CF4FE7F02900003F
:1029E000300005616761696E012E99D140CF53E7D0
:1029F000502A0000300005626567696E00B5FFF778
:102A000024FF043F3E60012600BD000000000020BE
:102A1000C400000004000020FFFFFFFFFFFF0000D4
:102A200001FFFFFF00FFFFFF01F8FFFF00F8FFFFBE
:102A3000FF07000000E0000024000020002E00003E
:102A400040CF000000D1000000D7000000D00000FF
:102A5000602A00002000016B043F3E60029E704728
:102A6000702A00002000016A043F3E60009E70470B
:102A7000802A000020000169043F3E602600704764
:102A8000C02A00003000056C6561766500B5D44849
:102A900001683B00043F1A68043B1A6008338B420C
:102AA000F9D103B4FFF70CFF03BC330040CF043966
:102AB0000B60016004390A6801320A6000BDC0463B
:102AC000D42A0000200006756E6C6F6F700030BC59
:102AD0007047C0460C2B00003000052B6C6F6F70E8
:102AE000032E00D01CE740CF00B5043F3E60BD4E32
:102AF000FFF751F9FFF7B6FE1AE080200006001933
:102B0000A419401B801940CF7047C046502B0000CD
:102B10003000046C6F6F7000032E00D000E740CFD0
:102B200000B5043F3E60B04EFFF735F9FFF78EFE6B
:102B300000F00CF9AA48310040CF0160043F3E602C
:102B4000AA4EFFF728F900BD0134AC427047C046D9
:102B5000982B0000780002646F0000B5043F3E60CF
:102B6000A34EFFF718F99E480168043F3E600E002F
:102B7000043F3E6000260760FFF767FE043F3E60AB
:102B8000032600BD00B500F02EF8ECE730B43400A9
:102B900040CF350040CF70472C2C00007800033F19
:102BA000646F00B5043F3E60914EFFF7F4F8043FB8
:102BB0003E60904EFFF7DBFA89480168043F3E60B3
:102BC0000E00FFF77DFE0136043F3E60012684487B
:102BD0000760FFF73AFE043F3E60032600BD00B5E4
:102BE00000F001F8E3E700B5043F3E60824EFFF7D6
:102BF000BEFA043F3E600426FEF72EFF013B08D0DC
:102C0000043F3E600526FEF727FF013B00F003FC72
:102C100000BD043F3E603526FFF7A9FA043F3E6041
:102C2000764EFFF7A4FA00F0F6FB00BD482C00003A
:102C30003000046361736500043F3E600026043F7A
:102C40003E6008267047C046602C00003000033FFD
:102C50006F666B480AE0013EB64140CF7047C04600
:102C6000EC2C00007800026F66006648082E00D049
:102C700056E640CF00B5043F3E600600FFF78BF8F4
:102C8000FFF71EFE39683E600E460136043F3E6087
:102C90000926043F3E60594EFFF769FA00BD00B5B2
:102CA000300040CF013B01B400F0B5FB01BC082E61
:102CB00000D035E640CF043F3E600600FF213140A2
:102CC000B14204D150490E43FFF751FAD8E7043F0F
:102CD0003E600026FEF7C0FE043F3E604B4EFFF70D
:102CE00046FACDE7300040CFB0427047242D0000B7
:102CF000300005656E646F66092E00D010E640CF87
:102D000000B540B440CFFFF7DBFD39683E600E46AA
:102D1000FFF7EEFD043F3E6040BC043F3E600826E6
:102D200000BDC046742D0000300007656E6463610D
:102D30007365082E00D0F3E540CF00B5043F3E6038
:102D40002E4EFFF714FA00F001F800BD00B5300078
:102D500040CF00280DD003B401213140002903D019
:102D6000013EFFF7BCFD01E0FFF7B3FD03BC0138F6
:102D7000EFE700BD882D0000000005746F6B656EE5
:102D8000043F3E60202605E0142E00000000057080
:102D90006172736510B5FEF758FC310040CF30000A
:102DA00040CF1B4A12688418202E07D191420FD0C1
:102DB000835CB34202D101328418F7E7914207D015
:102DC000835C0132B342F9D18618361B013E01E023
:102DD0008618361B043F3C600D48026010BD0000A1
:102DE0000C000020FA2A0000482B0000CE2A000028
:102DF0008C2B0000AC42000030B4000040CF00003B
:102E0000562C0000E42C0000002E0000B042000010
:102E1000E41F0020542E00000000056469676974F7
:102E2000D44B1B68303E0BD30A2E0BD3073E0A2E21
:102E300006D3242E06D3203E0A2E01D3242E01D3FE
:102E4000002670479E42FBD2043F3E600026F643B8
:102E50007047C046602F00000000066E756D626509
:102E600072003FB5310040CF701E0126012204B42C
:102E7000C04B1B680024002500293CD001300139DB
:102E800002782D2A04D101B00022D24304B4F3E722
:102E9000232A01D10A23EFE7242A01D11023EBE7EB
:102EA000252A01D10223E7E72E2A01D10226E3E7F2
:102EB0002C2A36D0043F3E601600FFF7B3FF002EE9
:102EC00040CF2BD0043F3E602600043F3E602E00E2
:102ED000043F3E601E00043F3E6000260FB4FDF735
:102EE00044FA0FBC350040CF340040CF0022A41973
:102EF000554140CFC0E704BC002A04D50022E4437A
:102F0000ED430134554133002600012B02D0043F2C
:102F10003E602E00043F3E601E003FBD01B0002613
:102F20003FBD2500002402260029E4D0425C01397F
:102F30002E2AF9D0043F3E601600FFF773FF002EE3
:102F400040CFEBD0043F3C60043F3E601E000FB416
:102F5000FDF7BFFA0FBC340040CF40CFE4E7C046D6
:102F6000842F00000000062E6469676974000A2E31
:102F700001D230367047242E01D2373670472326CF
:102F80007047C046BC2F0000000004686F6C6400EE
:102F9000330040CF784801783F290DD201310170CC
:102FA0004018012907D00138027801300270013839
:102FB00001390129F7D103707047C046DC2F0000AA
:102FC000000005686F6C643C330040CF6A480178AC
:102FD0003F2902D20131017043547047F42F0000A1
:102FE0000000047369676E00002E01D440CF704763
:102FF0002D26CDE708300000000002233E005E4889
:103000000678013038607047203000000000036609
:10301000235310B5202400F008F8013CFBD110BD6B
:103020004430000000000266230000B5043F3E600B
:10303000504E3668FDF76BF9FFF799FFFFF7C4FFB5
:1030400000BDC0466030000000000223530000B500
:1030500000F00AF8002EFBD138680028F8D100BD36
:103060008C3000000000012300B5043F3E60414E5B
:103070003668043F3E600026FDF74BFAFDF752F834
:1030800040CFFFF774FFFFF783FF00BDA0300000C3
:103090000000023C23003848002101707047C04600
:1030A000B4300000000002662E00043F3E6020267F
:1030B00005E0C04604310000000003662E6E00B536
:1030C00010B4340040CFFDF7BBFBFDF7E5F8043F3B
:1030D0003E600026FFF7DFFFFFF7B9FF40CF2C2649
:1030E000FFF772FF002C03D0FFF79FFF013CFBD1DD
:1030F00010BC40CFFFF778FF043F3E60043F3E60C6
:103100001EE0C0461C31000000000375642E00B5AF
:10311000FFF7C1FFFFF79BFF12E0C04650310000F0
:10312000000002642E0000B5FDF78AFBFDF7B4F83D
:10313000FFF7B1FFFFF78BFFFDF78DFBFFF754FFA4
:10314000FFF75DFFFEF79AFBFEF7E6FA00BDC0460B
:1031500064310000000002752E00043F3E6000262E
:10316000D5E7C0467C3100000000012E043F3E60E0
:10317000F617D8E7FC1F002028000020C43100000B
:103180000000086576616C756174650000B5FEF736
:103190005CFA01CF01B440B440CFC148016802B429
:1031A00000210160FEF744FA00F014F8BC4802BCAC
:1031B0000160043F3E6040BC01BC043F3860FEF744
:1031C00037FA00BD3C340000000009696E74657276
:1031D0007072657430B5B34887420BD9FEF7EEFACA
:1031E00010537461636B20756E646572666C6F77E3
:1031F0000A0037E1AC4887420AD2FEF7DFFA0F53E4
:103200007461636B206F766572666C6F770A29E173
:10321000A64C2568002D01D13D002560FFF7B0FDCB
:10322000002E02D1043740CF30BD3868043F3E60E5
:10323000043F3860FFF75EFA310040CF320040CFE4
:10324000002A13D138683100FFF70BFE320040CF5F
:10325000002AC0D1FEF716FBFEF7B0FA0C206E6F05
:103260007420666F756E642E0A00FBE0904B1B683D
:10327000002B1DD10025256030230B40302B0ED1B3
:10328000FEF7FCFAFEF79AFA1220697320636F6D5D
:1032900070696C652D6F6E6C792E0A00E2E0043760
:1032A00040CF043F3E601600FEF70FFEFFF793FF8E
:1032B000043740CF802008400ED1EB1B9B084020F4
:1032C00008400FD00820084002D0002B00D01DE09D
:1032D0000F200840834205D3043F3E601600FEF7EE
:1032E000F4FD78E700F097F8043F3E6016001022E6
:1032F0000A4002D0FEF7E9FD6DE720220A4002D025
:10330000FEF749FD67E7FEF72FFC64E70720014061
:103310001000FEF754FD012915D1012BDCD1FF214E
:103320003140B14204D140880643FEF720FF52E706
:10333000043F3E600026FEF78FFB043F3E60068898
:10334000FEF715FF47E7022902D1012BC4D1EFE7B1
:1033500003291CD1012BBFD1FF213140B1420AD139
:1033600054490E43FEF703FF0432043F3E6016004B
:10337000FEF711FD2FE7043F3E600026FEF76CFBD1
:103380000232043F3E601600FEF705FD23E70429E4
:1033900018D1012BA0D1330040CF002B00D11AE768
:1033A0001F221A409A4205D0043F3E604688FEF72D
:1033B000DEFE10E7043F3E6006889B011E43FEF7D9
:1033C000D6FE08E7052923D1012B0FD1043F3E602B
:1033D0000026FEF741FB043F3E600600FEF7DBFCE3
:1033E000043F3E60344EFEF7C2FEF4E6043F3E600A
:1033F0000026FEF731FB043F3E600126FEF72CFB62
:10340000FEF7DDFC043F3E600600FEF7C4FCE2E68A
:1034100001308047DFE600B5002B0BD0013B043FB5
:103420003E609E00BE59FEF7D9FB002BF6D1043D4D
:103430002F0040CF0025256000BDC0465834000055
:10344000810009686F6F6B2D71756974043F3E6070
:103450001A4E70478C340000D03400000000047114
:1034600075697400164885460E4F16480A2101609A
:103470000F48002101600D480160094801601248B1
:103480000160124941600D4800688746FEF7ECF87C
:10349000FFF7A0FEFEF792F905206F6B2E0AF5E705
:1034A000E41F00203002002030010020080000202E
:1034B000D81F0020003E000040CF0000D41F002095
:1034C00030030020FC1F0020DC1F002068000020CB
:1034D000EC34000000000565696E743F043F3E60F7
:1034E000EFF31086013EB6417047C046FC34000041
:1034F00020000465696E740062B670470C350000E8
:1035000020000464696E740072B6704724350000B0
:103510002000046970737200043F3E60EFF305867B
:103520007047C046303500000000036E6F70704772
:1035300074350000000009756E68616E646C656426
:1035400000B5FEF73BF914556E68616E646C6564F6
:1035500020496E746572727570742000043F3E607D
:10356000EFF30586FEF7A2F9FEF728F902210A001B
:1035700000BDC046883500000000057265736574A3
:10358000B248B3490160C046AC35000081000B6908
:1035900072712D7379737469636B043F3E60AD4E35
:1035A000704740350000AB4800688746D0350000C2
:1035B0008100096972712D6661756C74043F3E600B
:1035C000A54E704740350000A34800688746C046B6
:1035D000F835000081000E6972712D636F6C6C65A7
:1035E0006374696F6E00043F3E609C4E70474035C7
:1035F00000009A48006887461C36000081000B696D
:1036000072712D65787469305F31043F3E60944E6D
:1036100070474035000092480068874640360000F9
:1036200081000B6972712D65787469325F33043FD4
:103630003E608C4E7047403500008A4800688746DF
:103640006836000081000C6972712D6578746934E8
:103650005F313500043F3E60834E704740350000C7
:10366000814800688746C0468836000081000769A7
:1036700072712D616463043F3E607C4E704740353B
:1036800000007A4800688746AC36000081000B696C
:1036900072712D74696D315F7570043F3E60744EB8
:1036A000704740350000724800688746D0360000F9
:1036B00081000B6972712D74696D315F6363043F22
:1036C0003E606C4E7047403500006A48006887468F
:1036D000F43600008100086972712D74696D320042
:1036E000043F3E60644E7047403500006248006809
:1036F0008746C046183700008100086972712D7432
:10370000696D3300043F3E605C4E704740350000F9
:103710005A4800688746C04600400000FFFF182D49
:103720002D2D20466C6173682044696374696F6E47
:10373000617279202D2D2D00FDF7E9FD5048854659
:10374000504F2A2650484E49016050485049016068
:10375000043F3E604E4E4F4DB1884F4B994224D0AE
:103760004E4B0B400AD0B01DFEF7B4FFFEF727FB0F
:103770000388408800040343ED1A16E080230B40C1
:1037800013D00F23194089006D1AB01DFEF7A2FF58
:10379000FEF715FB043F3E600600043F3E602E002E
:1037A000043F3E600E00FDF713FAFEF770FF300095
:1037B00040CFD1D03A48066040CF3A4805603A48F9
:1037C0003A49354A884204D0023803889342F9D0F6
:1037D000023037490860FDF7F1FF444D65637269B7
:1037E00073702D5374656C6C6172697320322E3264
:1037F0002E302077697468204D3020636F72652009
:10380000666F722053544D33324630353120627921
:10381000204D61747468696173204B6F63680A009E
:10382000244800210160043F3E60234E043F3E6077
:103830000426FEF75FFF40CF002E02D0FEF745FBC7
:1038400021E640CF0EE6696E697400000CED00E0E1
:103850000400FA05D01F0020CC1F0020C81F002044
:10386000C41F0020C01F0020BC1F0020B81F002064
:10387000B41F0020B01F0020AC1F0020A81F002094
:10388000300300203002002000000020040000204F
:10389000C400000000200020FFFF00000001000025
:1038A0001C00002024000020000001000040000057
:0C38B0001800002008000020463800002E
:0400000508000000EF
:00000001FF
