:020000040800F2
:10000000300300205D3B0000A1370000A137000055
:1000100000000000000000000000000000000000E0
:10002000000000000000000000000000CB370000CE
:100030000000000000000000CB3700007F37000008
:10004000CB370000CB370000EB370000CB37000088
:10005000CB3700000F38000033380000593800005B
:100060007D380000A1380000C7380000EB380000E0
:100070000B3900002F390000CB3700005139000048
:10008000CB37000073390000CB370000CB370000BE
:10009000D9390000CB370000FD390000213A0000BB
:1000A000453A0000693A00008D3A0000B33A00007A
:1000B000D73A0000F73A0000173B0000373B00003A
:1000C000E800000000001E2D2D2D204D6563726993
:1000D00073702D5374656C6C6172697320436F7219
:1000E00065202D2D2D00C046000100004280043205
:1000F000647570003868043F3E60043F38607047A4
:10010000140100006280053264726F70043740CFC2
:100110007047C04634010000448005327377617037
:1001200007CF043F3860043F3E60043F3A600E0052
:100130007047C04648010000628004326E6970005A
:1001400007CF043F386070476401000044800532E7
:100150006F766572B868043F3E60043F3860FE68A1
:100160007047C04688010000448005327475636B97
:1001700007CF043F3860043F3E60043F3A60043FCD
:100180003960043F38607047AC010000468004329B
:10019000726F74003868B9683A69B86039613A605A
:1001A00079687E60FE68F9607047C046D001000043
:1001B000468005322D726F743868B9683A693861C3
:1001C0003960BA60F968FE607E6879607047C04641
:1001D000E4010000208003323E7201CF01B440B43C
:1001E00040CF7047FC01000020800332723E043F84
:1001F0003E6040BC01BC043F386070471402000000
:10020000208003327240043F3E60019E043F3E6006
:10021000009E704728020000208006327264726FD0
:10022000700002B07047C046400200004280036484
:10023000322F3868F107761040080843386070475D
:100240005402000062800364322A38680018764144
:100250003860704770020000428004647368720066
:100260003868F10776084008084338607047C04690
:10027000880200006280046473686C0038680018AB
:10028000764138607047C0469C020000428004649A
:1002900061627300002E08D47047C046BC020000A3
:1002A000428007646E656761746538680021C043E9
:1002B000F64301304E4138607047C046D40200001A
:1002C000648002642D0007CF121AB1410E00043F72
:1002D0003A607047EC020000648002642B0007CF94
:1002E00012184E41043F3A607047C04600030000B8
:1002F000618003733E64043F3E60F6177047C0465A
:100300002C030000428003756D2A38680300734394
:100310003B60010C320C0B005343B6B280B24E432B
:1003200050433618360CF6187047C0465C03000080
:100330004280026D2A003868C11705D040423860FB
:10034000F01704D07642E0E7F017DED0764200B531
:10035000FFF7DBFFFFF7A9FF00BDC0469C030000CD
:1003600044800375642A07CF564341437618010C35
:10037000130C59437618010C80B292B25143434397
:1003800050430022C91852411204B6180A04090C3D
:1003900080184E41043F38607047C046300400006A
:1003A00044800475646D2A0010B50024043F3E604B
:1003B0007E68043F3E603E69FFF7A7FF310040CFF3
:1003C000300040CF043F3E603E68043F3E60FE6820
:1003D00003B4FFF79AFF03BC330040CF320040CF95
:1003E000043F3E603E68043F3E603E690FB4FFF745
:1003F0008CFF0FBC9219634140CF89196241634160
:1004000040CF043F3E607E68043F3E60FE680FB40C
:10041000FFF77BFF0FBC9219634140CF89196241FE
:10042000634140CF1E003A607960B86010BDC0469D
:10043000540400004380022A2F0000B540B440CF8E
:10044000FFF779FF043F3E6040BC00F04FF80437EF
:1004500000BDC046780400004380052A2F6D6F64FC
:1004600000B540B440CFFFF766FF043F3E6040BC9C
:1004700000F03CF800BDC0469C04000043800375BA
:100480002A2F00B540B440CFFFF73FFF043F3E6046
:1004900040BC00F01CF8043700BDC046C00400009A
:1004A000438006752A2F6D6F640000B540B440CFBD
:1004B000FFF72BFF043F3E6040BC00F008F800BD92
:1004C000E0040000438006756D2F6D6F640000B579
:1004D000043F3E60002600F01AF840CF043700BD0C
:1004E000000500004380056D2F6D6F6400B5043F6B
:1004F0003E60F61700F034F840CF043700BDC04628
:100500005405000044800675642F6D6F640030B49C
:10051000002300227968B86835003C684026400016
:10052000494152415B41AB4202D804D3A24202D3BB
:10053000121BAB410130013EF1D10E0038607B60EF
:10054000BA6030BC704730B400237A68B9680020C4
:10055000E2E7C046CC050000448005642F6D6F645F
:1005600000B5F01719D0FFF7A0FEFFF7D9FDF0177F
:100570000CD0FFF79AFEFFF7D3FDFFF7C8FFFFF798
:10058000CFFDFFF792FEFFF7CBFD00BDFFF7C8FDE3
:10059000FFF7BDFFFFF789FE00BDFFF7C1FDF017B4
:1005A0000ED0FFF782FEFFF7BBFDFFF7B0FFFFF7AE
:1005B0007CFEFFF7B5FDFFF778FEFFF7B1FD00BD4C
:1005C000FFF7AEFDFFF7A3FF00BDC046E405000046
:1005D000448002642F0000B5FFF7C2FFFFF7B0FDB3
:1005E00000BDC0462C060000448002662A0000B50B
:1005F000F0170DD0FFF759FEFFF792FDF0170DD061
:10060000FFF753FEFFF7D0FE40CF01CF386000BDAB
:10061000FFF786FDF017F5D0FFF747FEFFF7C4FEA2
:1006200040CF01CF3860FFF740FE00BD78060000E4
:10063000448002662F0000B5F0170ED0FFF735FE9C
:10064000FFF76EFDF0170ED0FFF72FFEFFF768FDE6
:10065000FFF779FFFFF774FD00BDFFF761FDF017AD
:10066000F4D0FFF722FEFFF75BFDFFF76CFFFFF70B
:100670001CFEFFF765FD00BD8C06000020800232E5
:10068000210006CF3160726040CF7047A0060000A5
:10069000208002324000043F70683860366870473E
:1006A000C006000044800364753C07CF8E4204D826
:1006B00001D1904201D8002670470026F6437047CA
:1006C000E006000044800364753E07CFB14204D8C1
:1006D00001D1824201D8002670470026F6437047B8
:1006E00000070000448002643C0007CF8E4204DC17
:1006F00001D1904201DC002670470026F643704786
:1007000020070000448002643E0007CFB14204DCB1
:1007100001D1824201DC002670470026F643704773
:100720003007000062800364303C0437F6177047DE
:100730004407000062800364303D01CF0643013E60
:10074000B641704760070000448003643C3E07CF19
:1007500050404E400643013EB641F6437047C04606
:1007600078070000448002643D0007CF50404E40AF
:100770000643013EB64170478C070000208003739A
:100780007040043F3E603E007047C0469C0700003A
:10079000208003737021370040CF7047B0070000FE
:1007A000208003727040043F3E606E467047C04632
:1007B000C0070000208003727021B54640CF70470B
:1007C000D0070000618003647570043F3E6070478D
:1007D000E007000061800464726F700040CF7047D2
:1007E000F80700006180043F64757000002E01D09E
:1007F000043F3E607047C0460C08000062800473EE
:100800007761700039683E600E0070471C08000078
:100810006280036E697004377047C046300800007C
:100820006280046F76657200043F3E607E687047A8
:10083000480800006280047475636B0001CF083FB4
:100840007E6038607047C0466008000063800372B5
:100850006F7403CF083F78603E600E007047C0465B
:10086000780800006380042D726F740003CF083F86
:100870007E603960060070478C080000208004709C
:1008800069636B00B0003E587047C046A408000082
:100890000080056465707468C749C91B043F3E60E9
:1008A0008E087047C008000000800672646570748E
:1008B0006800043F3E606E46C049891B8E08704741
:1008C000D00800002080023E720040B440CF704744
:1008D000E4080000208002723E00043F3E6040BCFD
:1008E0007047C046F8080000208002724000043FB4
:1008F0003E60009E7047C0460809000020800572D7
:1009000064726F7001B070471C090000208005728E
:100910007069636BB6006E4436687047300900003A
:100920006A8003616E6401CF064070470640C0468E
:10093000440900006A800362696301CFB043060086
:1009400070478643580900006A80026F720001CF29
:10095000064370470643C0466C0900006A8003786E
:100960006F7201CF464070474640C0467C09000088
:100970006180036E6F74F6437047C0469C090000A7
:10098000418003636C7A300006D00026400002D01C
:1009900001D20136FAE7704720267047AC09000003
:1009A00061800373687276087047C046BC09000016
:1009B00061800373686C76007047C046CC09000004
:1009C000618003726F720120C6417047E009000028
:1009D000618003726F6C0020B61946417047C046B3
:1009E000FC0900006C80067273686966740001CFB0
:1009F000F0400600704736080026C046180A00007E
:100A00006C80076172736869667401CF30410600BB
:100A100070473610F617C046340A00006C80066C2A
:100A200073686966740001CFB040060070473600F5
:100A30000026C046440A0000618002303D00013EAD
:100A4000B6417047580A0000618003303C3E013EC9
:100A5000B641F6437047C046680A00006180023024
:100A60003C00F6177047C046800A0000608004749E
:100A700072756500043F3E600026F6437047C0462D
:100A8000940A000060800566616C7365043F3E60F7
:100A900000267047A80A00004280023E3D0001CFB8
:100AA000B042E9DA00267047BC0A00004280023CEE
:100AB0003D0001CFB042DFDD00267047D00A0000C4
:100AC0004280013C01CFB042D6DB00267047C046D1
:100AD000E40A00004280013E01CFB042CCDC002697
:100AE0007047C046F80A0000628003753E3D01CFA2
:100AF000861BB641F64370470C0B000062800375FD
:100B00003C3D01CF361AB641F6437047200B00003A
:100B1000628002753C0001CF861BB6417047C0461B
:100B2000340B0000628002753E0001CF361AB641D8
:100B30007047C0464C0B00006B80023C3E0001CF6A
:100B4000361A013EB641F6437047C046600B0000BE
:100B50006B80013D01CF361A013EB6417047C04659
:100B6000740B00006280036D696E01CFB04200DC3F
:100B700006007047880B00006280036D617801CF2A
:100B8000B04200DB06007047A00B000062800475D5
:100B90006D61780001CFB04200D306007047C046B7
:100BA000C00B0000628004756D696E0001CFB04219
:100BB00000D80600704700003002002030030020FB
:100BC000000C00000080046D6F76650007B53100F1
:100BD00040CF320040CF00290FD0B2420DD006D313
:100BE000013E013A705C50540139FBD105E0307888
:100BF0001070013601320139F9D140CF07BDC0462E
:100C0000240C000000800466696C6C00300040CF4A
:100C1000310040CF002902D001397054FCD140CFBF
:100C20007047C046300C0000208001403668704795
:100C3000480C00006D80012103CF30600E0070472A
:100C40000660704701607047700C00006D80022BD9
:100C5000210003CF3268121832600E00704702681C
:100C60009219026070470268521802607047C046CD
:100C7000800C000020800268400036887047C04623
:100C80009C0C00006D800268210003CF30800E00B4
:100C900070470680704701807047C046C40C000052
:100CA0006D8003682B2103CF3288121832800E002A
:100CB0007047028892190280704702885218028099
:100CC0007047C046D40C0000208002634000367894
:100CD0007047C046F00C00006D800263210003CF16
:100CE00030700E0070470670704701707047C04644
:100CF000180D00006D8003632B2103CF327812188A
:100D000032700E00704702789219027070470278B4
:100D1000521802707047C046400D00006D8004629A
:100D20006973210003CF3268024332600E007047BE
:100D3000026832430260704702680A4302607047EB
:100D4000680D00006D8004626963210003CF326882
:100D5000824332600E0070470268B24302607047FF
:100D600002688A4302607047900D00006D8004782D
:100D70006F72210003CF3268424032600E0070472C
:100D8000026872400260704702684A400260704721
:100D9000F80D0000688004626974400001CF366875
:100DA0000640013EB641F6437047E54A00B5012BC7
:100DB0000AD1043F3E60002600F034FF043F3E604D
:100DC000160001F0BEFA11E002CF013B02F00DFC6B
:100DD000043F3E603626164301F0B3FA043F3E60FE
:100DE0000E00043F3E60002600F01CFF043F3E6002
:100DF000D44E01F0B6F800BD200E00006D800568ED
:100E00006269732103CF3288024332800E0070473B
:100E1000028832430280704702880A43028070478A
:100E2000480E00006D8005686269632103CF328837
:100E3000824332800E0070470288B24302807047BE
:100E400002888A4302807047700E00006D8005683A
:100E5000786F722103CF3288424032800E00704793
:100E6000028872400280704702884A4002807047C0
:100E7000900E0000688005686269744001CF368872
:100E80000640013EB641F6437047AF4A8EE7C04682
:100E9000B80E00006D8005636269732103CF32785C
:100EA000024332700E00704702783243027070477E
:100EB00002780A4302707047E00E00006D800563FF
:100EC0006269632103CF3278824332700E0070472B
:100ED0000278B2430270704702788A43027070470A
:100EE000080F00006D800563786F722103CF3278A0
:100EF000424032700E0070470278724002707047B4
:100F000002784A4002707047280F0000688005632D
:100F10006269744001CF36780640013EB641F6431F
:100F200070478A4A42E7C046380F00006180056377
:100F3000656C6C2B04367047480F000061800563B8
:100F4000656C6C73B6007047301000000080066658
:100F50006C6173682100300040CF310040CF7C4B82
:100F6000984253D3032202401AD1002917D00268B5
:100F7000002A32D1774A8018774A784B1360784B31
:100F80001360784A784B1360784B13600160784A9D
:100F9000136801210B40FBD1764A07231360704789
:100FA00000F0F2FC30416464726573732068617311
:100FB00020746F20626520342D616C69676E6564F2
:100FC00020666F722077726974696E6720666C6143
:100FD000736820210A0002F02FFB00F0D5FC29469F
:100FE0006C617368206C6F636174696F6E206361FC
:100FF0006E6E6F74206265207772697474656E20FE
:10100000747769636520210A02F016FB00F0BCFCCE
:101010001943616E6E6F7420777269746520696E12
:10102000746F20636F726520210A02F005FBC046D1
:10103000A810000000800E666C61736870616765BF
:101040006572617365000FB5300040CF404B984228
:101050001BD3404A8018404A404B1360404B1360FA
:10106000404A414B1360414B1360424A424B13606C
:101070007F218843002202603D4A136801210B4012
:10108000FBD13C4A072313600FBD00F07DFC1443E5
:10109000616E6E6F7420657261736520636F726537
:1010A00020210A0002F0C8FA2411000000800A651D
:1010B00072617365666C61736800254872B62F496A
:1010C0000388002B1CD0043F3E600600043F3E60B6
:1010D00000F05AFC10457261736520626C6F636B9F
:1010E00020617420200000F0C7FC00F04DFC0C20B3
:1010F00066726F6D20466C6173680A00FFF7A3FF8C
:1011000002308842DCD100F03FFC1246696E697300
:101110006865642E20526573657420210A0002F010
:101120001BFBC046C811000000800E65726173652C
:10113000666C61736866726F6D00300040CFBDE70A
:1011400000680000A00D000000880000007800008A
:1011500000400000000000080C200240EFCDAB89E9
:101160000504030210200240BFAE9D8C1615141317
:101170001820024004200240080200000000010084
:10118000464860210022028002300139FBD17047BD
:10119000424860210288002A12D000F0F5FB1D555C
:1011A0006E7061697265642031362D626974204603
:1011B0006C6173682077726974652E0A02F03CFADC
:1011C00002300139E6D17047A012000000800768A4
:1011D000666C6173682130B5320040CF500813D37C
:1011E00000F0D2FB1E68666C61736821206E656535
:1011F0006473206576656E206164647265737365DF
:10120000732E0A0002F018FA0223534023482021CB
:10121000048845882D042C439C422AD0063001398D
:10122000F6D11E482021048845882D042C431AD06D
:1012300006300139F7D100F0A7FB27546F6F206DFE
:10124000616E7920756E7061697265642031362D2A
:1012500062697420466C6173682077726974657383
:101260002E0A02F0E9F90280120C4280868040CFFB
:1012700030BD0221114003D0023A8188360401E0DA
:10128000818809040E43043F3E601600002101805E
:1012900041808180FFF75FFE30BD000030030020F9
:1012A000B41200006980012B01CF36187047361840
:1012B0000036C046C81200006980012D01CF861B90
:1012C0007047361A003EC046D812000061800231D5
:1012D0002D00013E7047C046E812000061800231D7
:1012E0002B0001367047C046F812000061800232C0
:1012F0002D00023E7047C046081300006180023294
:101300002B0002367047C0461C1300006180066E39
:1013100065676174650076427047C046301300000F
:10132000618003616273F017361846407047C0460B
:1013300078130000428005752F6D6F64310040CF37
:10134000002903D1043F3E6000267047012200239C
:101350008E4206D9003104D45200490001D48E4295
:10136000FAD88E4201D3761A134349085208F8D1AD
:10137000043F3E601E007047E81300004280042FC7
:101380006D6F640000B5300040CF002E1CDA76424D
:1013900000280CDA4042043F3E600600FFF7CEFF13
:1013A000300040CF7642043F3E60060000BD043F5F
:1013B0003E600600FFF7C2FF300040CF4042764259
:1013C000043F3E60060000BD002807DA4042043FAB
:1013D0003E600600FFF7B2FF764200BD043F3E606C
:1013E0000600FFF7ABFF00BDFC1300004280036D59
:1013F0006F6400B5FFF7C6FF40CF00BD10140000BA
:101400004280012F00B5FFF7BDFF043700BDC04685
:10141000201400006A80012A01CF464370474643EA
:1014200030140000618002322A0076007047C04606
:1014300040140000618002322F0076107047C046D1
:10144000541400006180046576656E000120304010
:10145000361870476C140000818004626173650067
:10146000043F3E608D4E70470A0000008414000067
:1014700000800662696E617279008848022101600D
:101480007047C0469C140000008007646563696D66
:10149000616C82480A2101607047C046F014000068
:1014A0000080036865787D481021016070477C49A1
:1014B0007C4808607C4901200860086804221040CC
:1014C000FBD07A490120086079497A4808607A4956
:1014D0007A4808607A497B4808607B497B48086005
:1014E0007B498B2008607B497B4808607047C04679
:1014F0000C150000818009686F6F6B2D656D697434
:10150000043F3E60754E704702160000281500002B
:10151000818008686F6F6B2D6B657900043F3E60BA
:101520006F4E70472A1600004815000081800A6837
:101530006F6F6B2D656D69743F00043F3E60694EAF
:10154000704754160000C046641500008180096889
:101550006F6F6B2D6B65793F043F3E60624E704745
:10156000821600008415000081800A686F6F6B2D61
:10157000706175736500043F3E605C4E70470637CE
:101580000000C0469C150000008004656D69740071
:101590000FB5524800F029F80FBDC046B015000045
:1015A0000080036B65790FB54D4800F01EF80FBD44
:1015B000C4150000008005656D69743F49480068E6
:1015C0008746C046D81500000080046B65793F004F
:1015D000454800688746C046F01500000080057049
:1015E0006175736541480068874600688746C04654
:1015F0001816000000800B73657269616C2D656DB3
:10160000697400B500F026F8002E40CFFAD0384AB1
:10161000167040CF00BDC0464016000000800A731F
:10162000657269616C2D6B65790000B500F029F871
:10163000002E40CFFAD0043F3E602E4A167800BDFF
:101640007016000000800C73657269616C2D656D09
:1016500069743F0000B5FFF7C5FF043F3E600026F8
:10166000254801688020014000D0F64300BDC046F7
:10167000FC16000000800B73657269616C2D6B6550
:10168000793F00B5FFF7AEFF043F3E6000261A48E1
:1016900001682020014000D0F64300BDFC1F00205F
:1016A0000070004000080000001002400C100240D2
:1016B0002C1002408F000000341002400040000057
:1016C00000000050FFFCEBEB240000504004000041
:1016D0000C380140003801400D000000F81F0020C8
:1016E000F41F0020F01F0020EC1F0020E81F002046
:1016F00028380140243801401C38014020170000E0
:101700000080076365787065637400B5386801B45C
:101710000130386000F00BF801BC067040CF00BD0E
:10172000981700000080066163636570740000B55F
:1017300002CF01390022FFF736FF300040CF7F286B
:1017400009D0202819D2092816D00A281FD00D2820
:101750001DD00828EFD1002AEDD000F015F90308BC
:101760002008002AE7D0885C013A80230340E2D0B9
:1017700040230340F5D0DEE72020B242DBD2043F15
:101780003E600600FFF704FF01328854D3E71600DD
:1017900000F0A8F800BDC046AC17000040800374FC
:1017A0006962043F3E602B4E7047C046C41700007C
:1017B0008180033E696E043F3E60274E7047000003
:1017C0000000C046EC17000082800E6375727265DF
:1017D0006E742D736F7572636500043F3E601F4E1B
:1017E00070470000000068000020C0460818000094
:1017F000008009736574736F75726365174802CF53
:101800000660416040CF70472818000000800673D2
:101810006F7572636500043F3E60104E043F706850
:10182000386036687047C046601800000080057157
:10183000756572790FB5084800210160FFF7B1FFA7
:10184000043F3E60043F3E60C826FFF770FFFFF78D
:10185000D5FF0FBD68000020E41F0020DC1F002022
:10186000B0180000008007636F6D706172650FB57E
:10187000310040CF01CF884202D040CF00260FBDBB
:1018800002CF002810D001380A5C335C412A02D311
:101890005B2A00D22032412B02D35B2B00D22033B3
:1018A0009A42EED000260FBD0026F6430FBDC0467B
:1018B000C418000000800263720000B500F064F8F4
:1018C000010A00BDD8180000008002626C00043FCD
:1018D0003E6020267047C046EC180000008005736B
:1018E00070616365043F3E60202651E60C190000DC
:1018F0000080067370616365730000B5002E03DD20
:10190000FFF7F0FF013EFBD140CF00BD1C190000E6
:101910005080065B636861725D0005E03419000069
:10192000008004636861720000B501F013FB40CFD2
:10193000367800BD4419000050800128043F3E6005
:10194000292606E0601900005080015C043F3E60DB
:10195000002600B501F008FB043740CF00BDC046AB
:10196000A81900001080022E22009F4800B5043FF5
:101970003E60060000F0DEF9043F3E60222601F0E2
:10198000F3FA00F018FD00BD0AB4043F3E6076464D
:10199000013E33780121013319405B187146C918A3
:1019A0008E460ABC3CE0C046D0190000108002639D
:1019B00022008E48DAE7043F3E607646013E3378E7
:1019C0000121013319405B187146C9188E467047D2
:1019D000FC1900001080027322008548C6E7043F0E
:1019E0003E607646043F3E60013E36780121731C1E
:1019F00019405B187146C9188E467047141A0000CA
:101A0000008005636F756E740136043F3E60013ED1
:101A1000367870473C1A0000008005637479706561
:101A200001B53078002807D00136043F3E60367893
:101A3000FFF7AEFD0138F7D140CF01BD6C1A0000B1
:101A40000080047479706500310040CF300040CFD1
:101A500000B5002908D00022043F3E60865CFFF7F5
:101A600097FD01329142F7D100BDC046A81A00008F
:101A70000080046865782E0007B5310040CF202033
:101A80000F220438043F3E600E00C6401640092E67
:101A900001D9373600E03036FFF77AFD0028F0D163
:101AA000FFF720FF07BDC046B81A0000008003689A
:101AB0002E731FB54F4C0EE0C81A0000008003754E
:101AC0002E731FB54C4C06E0481B00000080022E10
:101AD00073001FB5494C4A49C91B8908494A106817
:101AE00003B40A201060FFF74FFF08537461636B63
:101AF0003A205B00043F3E600E0001F021FCFFF73E
:101B000043FF025D200003BC3E4A106000290AD05A
:101B10003D4A106806B4043F3E600600A04706BC7C
:101B2000043A0139F5D1FFF72FFF0620544F533AFD
:101B30002000043F3E603600A047FFF725FF042049
:101B40002A3E0A001FBDC0460C1C0000008005771D
:101B50006F72647300B5FFF717FF010A00F06BFEA8
:101B6000FFF712FF09416464726573733A20043F02
:101B70003E60FFF781FFFFF707FF064C696E6B3A87
:101B80002000043F3E603668FFF776FFFFF7FCFE5B
:101B900007466C6167733A20043F3E60B688FFF7E2
:101BA0006BFFFFF7F1FE06436F64653A2000B01D3E
:101BB00000F07CFE043F3E600600FFF75DFFFFF78C
:101BC000E3FE064E616D653A2000043F3E60063636
:101BD000FFF726FFFFF7D8FE010A00F044FE3000B1
:101BE00040CFBDD040CF00BD88190000B61900001D
:101BF000DE190000791A00002F3300004133000085
:101C000030020020FC1F00202C020020281D0000B4
:101C100000801072656769737465726C69746572AF
:101C2000616C2C003FB5350040CF2900C900294325
:101C30002D029E480543FF2300223000D0409843E8
:101C400001D00132F9E73000D04018402843043F6A
:101C50003E60060000F075FB954805431800904073
:101C6000864310D000243000E040984301D0013476
:101C7000F9E7101B043F3E600E008001064300F0B0
:101C800060FB2200DFE7002A06D0043F3E600E0022
:101C90009201164300F055FB40CF3FBD1FB5310008
:101CA00040CF844C0C43C9000C434901300040CF65
:101CB000020EFF231A407D4B0B431343043F3E604B
:101CC0001E0000F03EFB043F3E60260000F039FBA2
:101CD000020CFF231A40784B0B431343043F3E6032
:101CE0001E0000F02EFB043F3E60260000F029FBA2
:101CF000020AFF231A40704B0B431343043F3E601C
:101D00001E0000F01EFB043F3E60260000F019FBA1
:101D10000200FF231A40684B0B431343043F3E600D
:101D20001E0000F00EFB1FBD981D00000080056323
:101D3000616C6C2C0FB5330000F052FE300040CFC8
:101D40001B1A043B5D49194000290ED05C4A9142A0
:101D50000BD00136043F3E600026FFF763FF043FCF
:101D60003E60584E00F0EDFA0FBD40CF5B0856487C
:101D7000564919400843DB0A5549194009040843EC
:101D80009B0A0121194089060843043F3E60060072
:101D900000F001FB0FBDC046EC1D00000080086C88
:101DA00069746572616C2C0008B5043F3E60494E51
:101DB00000F0C7FA043F3E60474E00F0C2FA474BBE
:101DC0003000184098420BD1F643043F3E6006268F
:101DD000FFF728FF043F3E60414E00F0B2FA08BD15
:101DE000043F3E600626FFF71DFF08BD141E0000DD
:101DF0000080066372656174650000B500F03DF80F
:101E00001E20000233308047043F3E607646013E8C
:101E100000BDC0466C1E0000208005646F65733EE7
:101E20001E20000233308047043F3E607646013E6C
:101E30007047043F3E607646013E2A4A13682A49AD
:101E400009680220084000D10231023111600136D8
:101E5000043F3E600026FFF721FF043F3E60194E1D
:101E600000F06FFA136000F0E0F900BDF01E000012
:101E70000080073C6275696C647300B500F068FB14
:101E800000F0AEFD0220064040CF04D1043F3E608A
:101E9000362600F056FA043F3E60144E00F051FA28
:101EA000043F3E60102600F0B9FA00BD002000009B
:101EB0000010000000020000003000000100C0FF20
:101EC0000000C0FF8047000000F800F0FF0700009E
:101ED000FF030000043F00003E6000000000FFFF21
:101EE000F6430000000000201400002000B50000B0
:101EF000FC1E00005080035B275D03E0141F000000
:101F00000080012700B501F025F800F00EFD30003B
:101F100040CF00BD541F0000108008706F737470B4
:101F20006F6E650000B5FFF7EDFF102101400DD188
:101F30002021014005D0FFF737FF043F3E60E04E0F
:101F400004E0FFF731FF043F3E60DE4EFFF7F2FE94
:101F500000BDC046A01F0000008007696E6C696E5E
:101F6000652C00B5D849D94AD94B3088884208D069
:101F7000904208D0984206D0043F3E60060000F030
:101F8000E0F90236F1E740CF00BD0EB4CF4AD04BA6
:101F900001880230914201D09942F9D10EBC7047BC
:101FA000B41F00000080047265742C00043F3E6082
:101FB000C64EC6E1C41F0000308004657869740015
:101FC000F4E7C046DC1F000030800772656375725D
:101FD0007365043F3E60BF4E3668ABE6F41F0000F9
:101FE0008180057374617465043F3E60BA4E70472A
:101FF00000000000082000000080015DB6480021BC
:10200000C94301607047C046182000001080015B82
:10201000B148002101607047402000000080013A73
:1020200000B5AE48076000F093FA043F3E60A64E4C
:1020300000F087F9A8480021C943016000BDC046EF
:10204000882000003080013B00B5A4480168B942F7
:102050000ED0FFF799FC1520537461636B206E6FEF
:10206000742062616C616E6365642E0A01F0E4FAAB
:10207000043F3E60954E00F064F900F0D6F89648B3
:102080000021016000BDC0469C2000000080076563
:10209000786563757465300040CF8746B4200000D2
:1020A000108009696D6D656469617465043F3E6007
:1020B0001026EBE0CC200000108006696E6C696E83
:1020C0006500043F3E602026E0E0C046E8200000B6
:1020D00010800B636F6D70696C656F6E6C79043F77
:1020E0003E603026D2E0C0460421000010800A3055
:1020F0002D666F6C6461626C6500043F3E60402633
:10210000C4E0C0462021000010800A312D666F6CAB
:102110006461626C6500043F3E604126B6E0C046E3
:102120003C21000010800A322D666F6C6461626C85
:102130006500043F3E604226A8E0C04658210000EA
:1021400010800A332D666F6C6461626C6500043F19
:102150003E6043269AE0C0467421000010800A3495
:102160002D666F6C6461626C6500043F3E604426BE
:102170008CE0C0469021000010800A352D666F6CFF
:102180006461626C6500043F3E6045267EE0C046A7
:10219000AC21000010800A362D666F6C6461626CA1
:1021A0006500043F3E60462670E0C046C82100003E
:1021B00010800A372D666F6C6461626C6500043FA5
:1021C0003E60472662E0C046F821000000800863B8
:1021D0006F6E7374616E740000B500F0B9F9FFF7AB
:1021E000E3FD043F3E603A4E00F0ABF8FFF785FF99
:1021F00000F01BF800BDC0461C2200000080093220
:10220000636F6E7374616E7400B500F0A1F9396884
:102210003E600E46FFF7C8FDE1E7C0467C220000A5
:10222000008006736D756467650000B52C48016811
:102230002B4A91421CD202390A882A4B9A4204D175
:10224000043F3E60284E00F07CF800F069F8274813
:102250000068043F3E600600254909680431204AB1
:102260001368116000F06DF81360FEF791FF00BD78
:1022700000F056F8043F3E601E4E08E0F8220000D1
:10228000008008736574666C6167730000B514485C
:102290000168134A914205D2144801683143016034
:1022A00040CF00BD320040CF1148006804300188A3
:1022B0000D4B994201D1110000E01143018000BD96
:1022C000621F0000341D000000B5000000BD0000CA
:1022D0007047000014000020D81F002010000020CC
:1022E0000000002000000000FFFF00002000002090
:1022F00004000020008000001423000041800761DA
:102300006C69676E656401203040361802203040E9
:102310003618704738230000008005616C69676ECD
:1023200000B5804801680220014004D0043F3E60AF
:102330007D4E00F006F800BD7023000000800268AA
:102340002C000FB5B6B277480168764A914205D2A3
:10235000043F3E600E00FEF73EFF02E0320040CF39
:102360000A80043F3E60022600F058F80FBDC046C8
:102370008C2300000080012C00B5043F3E60FFF775
:10238000E0FF360CFFF7DDFF00BDC046A8230000CC
:102390000080033E3C2C00B5043F3E60360CFFF746
:1023A000D0FFFFF7CEFF00BD1024000000800773B0
:1023B0007472696E672C07B5FF21314040CF300041
:1023C00040CF002905D1043F3E600026FFF7B9FF4A
:1023D00007BD043F3E60067836020E43FFF7B1FFAB
:1023E0000130013902290AD3043F3E6046783602A3
:1023F00002781643FFF7A5FF02300239F2E7002901
:1024000000D107BD043F3E600678FFF79AFF07BD85
:102410006C240000008005616C6C6F744148016899
:10242000404A91420FD2320040CF89183F4A914230
:1024300019D3FFF7A9FA0B466C6173682066756CB7
:102440006C0A01F0F9F8320040CF8918384A126856
:10245000914208D3FFF798FA0952616D2066756CB6
:102460006C0A01F0E9F801607047C046942400004E
:1024700000800D636F6D70696C65746F72616D3F84
:10248000043F3E600026274800682649884248D31A
:10249000F6437047B424000000800C636F6D7069D0
:1024A0006C65746F72616D001E4800681D4988423A
:1024B00011D370474025000000800E636F6D706976
:1024C0006C65746F666C6173680016480068154926
:1024D000884200D270471748174902680B680A60A3
:1024E00003601048154902680B680A6003601048D1
:1024F0000068834215D300B5FFF746FA23205661E2
:10250000726961626C657320636F6C6C69646520CD
:10251000776974682064696374696F6E6172790A9F
:1025200000BD704700000020FFFF00000000010018
:1025300024000020040000201C00002018000020BF
:102540002C260000008008286372656174652900EC
:1025500000B500F0FFFC002E0ED1FFF715FA152094
:10256000437265617465206E65656473206E616D8C
:102570006520210A01F060F83868043F3E60043F9E
:10258000386000F0A3F940CF002E40CF11D038685A
:10259000043F3E60043F3860FFF7F6F90952656476
:1025A0006566696E6520FFF74FFAFFF7EDF9022EB9
:1025B0000A00FFF7B5FE00F013FA8D4800688C4959
:1025C00088421CD28B488C490160043F3E6006263D
:1025D000FFF724FFFEF74AF9FFF7EDFE8748016891
:1025E0000A68874B9A4207D1814A13681160043FF9
:1025F0003E60FFF7C1FE1360066040CF10E07F48E9
:10260000043F3E600668FFF7B7FE043F3E607C4E25
:10261000FFF797FE7948310040CF0160FFF7CBFE0E
:10262000734801687748016000BDC0464426000039
:102630000080087661726961626C6500043F3E60EB
:10264000012613E05C260000008009327661726981
:1026500061626C65043F3E60022607E0342700009B
:102660000080096E7661726961626C6500B5FFF782
:102670006FFF5F4801685E4A914233D20F200640E7
:10268000B20061480168891A604A91420BD2FFF793
:102690007BF90F4E6F7420656E6F7567682052412D
:1026A0004D0A00F0C9FF0160043F3E600E00FFF7D5
:1026B0007BFB043F3E60564EFFF743FE300040CFA9
:1026C0000200002805D00E600431FFF755FE0138E6
:1026D000F9D1043F3E6080261643FFF7D7FDFFF790
:1026E000A4FD00BD00F07CF90220064040CF04D1DB
:1026F000043F3E603626FFF724FE043F3E60454E11
:10270000FFF749FE043F3E60434EFFF744FE043F9F
:102710003E603F4EFFF715FE300040CF002803D04B
:10272000FFF72AFE0138FBD1FFF7E7FCFFF77DFD3D
:1027300000BDC046202800000080076275666665FF
:10274000723A00B5FFF704FF01203040361802202E
:102750003040361826480168254A914226D22A4838
:102760000168891B294A91420BD2FFF70DF90F4EE0
:102770006F7420656E6F7567682052414D0A00F0D6
:102780005BFF0160043F3E600E00FFF70DFB043F5E
:102790003E601F4EFFF7D5FDFFF7EEFD043F3E60A4
:1027A0001E4EFFF773FDFFF740FD00BD00F018F966
:1027B0000220064040CF04D1043F3E603626FFF79A
:1027C000C0FD043F3E60134EFFF7E5FD043F3E6051
:1027D000114EFFF7E0FD043F3E600D4EFFF7B1FDE7
:1027E000FFF71CFEFFF789FCFFF71FFD00BD00008F
:1027F00000000020200000200080000004000020D5
:10280000000000001400002024000020F00300203D
:10281000704700003E60043F02367E464081000063
:102820005028000000800F64696374696F6E6172E4
:10283000797374617274EB480068EA49043F3E6042
:10284000884201D2E84E7047E84E36687047C0466D
:102850008C28000000800E64696374696F6E617279
:10286000796E6578740003B53168E148814207D01C
:102870008879002804D00E00043F3E60002603BD86
:10288000043F3E600026F64303BDC046C02800005A
:1028900000800A736B6970737472696E67003178B7
:1028A000013101220A4089187618704706B4017870
:1028B000013101220A408918401806BC7047C04601
:1028C0004029000000800466696E64003FB5002264
:1028D0000023350040CF340040CFFFF7ACFFC448A1
:1028E000B188884217D0043F3E600636FFF78CF867
:1028F000043F3E602600043F3E602E00FEF7B7FF17
:10290000002E40CF07D0B01DFFF7D0FF02000B0014
:10291000B448824204D2FFF7A6FF300040CFDED099
:102920001600043F3E601E003FBD00B53100386810
:10293000FFF7CCFF3A68002A01D100F075FD00BD19
:102940009C290000008006636A756D702C003200BF
:1029500040CF310040CF8B1B043BA64919400029D2
:102960000DD0A54881420AD0FFF70EF80D4A756DCB
:102970007020746F6F206661720A00F05DFE5B105C
:10298000FF210B40134330001E0000B5954A136829
:102990001060FFF7D6FC136000BDC046D4290000CC
:1029A0000080056A756D702C310040CF300040CF3B
:1029B0000B1A043B91491940002902D0904A9142D8
:1029C000D2D15B108F4A13408F4A1343043F3E60BD
:1029D0001E00DAE7EC2900000080046865726500DB
:1029E000043F3E607F4E36687047C046DC2A0000D8
:1029F00000800D666C6173687661722D6865726522
:102A0000043F3E60814E3668704700B5043F3E602B
:102A10007F4EFFF796FC043F3E607E4EFFF791FC31
:102A200000BDDDE700B500F037F839683E600E46BE
:102A3000043F3E60784EFFF78AFF00BD00B500F00E
:102A40002BF839683E600E46043F3E60734EFFF738
:102A50007EFF00BD00B5FFF7D8FF00F01DF8396814
:102A60003E600E46043F3E606D4EFFF770FF00BDB6
:102A700000B500F011F839683E600E46FFF794FF8C
:102A800000BD00B5FFF7C1FFFFF7AAFF043F3E609E
:102A90000226FFF7C3FC00BD00B5FFF7A1FF043F0E
:102AA0003E600226FFF7BAFC00BD00B5FFF798FFB5
:102AB000FFF77AFF00BD00B5FFF792FF043F3E60CD
:102AC000574EFFF744FF00BD00B5FFF789FF043FF5
:102AD0003E60514EFFF73BFF00BDC046182B000083
:102AE0003080047468656E00052E01D140CFDCE7AC
:102AF000022E01D140CFDEE7FEF746FF1753747276
:102B00007563747572657320646F6E2774206D61D0
:102B10007463680A00F090FD442B00003080046567
:102B20006C73650000B5022EE6D140CFFFF7B4FF0D
:102B300039683E600E46FFF7BEFF043F3E60052643
:102B400000BDC0465C2B000030800269660000B505
:102B5000FFF797FF043F3E60022600BD842B000074
:102B600030800672657065617400042EC4D140CF58
:102B700039683E600E4600B5FFF77AFFFFF79BFF0E
:102B800000BDC046A02B00003080057768696C65E9
:102B9000012EB1D140CF00B5FFF7D9FF023600BDFD
:102BA000B42B0000308005756E74696C012EA3D1C2
:102BB00040CF4FE7C82B0000308005616761696E28
:102BC000012E99D140CF53E7242C000030800562BC
:102BD0006567696E00B5FFF724FF043F3E6001267C
:102BE00000BD000000000020C00000000400002024
:102BF0000000000001FFFFFF00FFFFFF01F8FFFFE3
:102C000000F8FFFFFF07000000E0000024000020A4
:102C1000002E000040CF000000D1000000D70000CF
:102C200000D00000342C00002080016B043F3E6087
:102C3000029E7047442C00002080016A043F3E60E1
:102C4000009E7047542C000020800169043F3E60C4
:102C500026007047942C00003080056C6561766515
:102C600000B5D44801683B00043F1A68043B1A6071
:102C700008338B42F9D103B4FFF70EFF03BC3300D6
:102C800040CF04390B60016004390A6801320A60E0
:102C900000BDC046A82C0000208006756E6C6F6FCA
:102CA000700030BC7047C046E02C00003080052B1F
:102CB0006C6F6F70032E00D01EE740CF00B5043F4D
:102CC0003E60BD4EFFF74DF9FFF7B8FE1AE08020D9
:102CD00000060019A419401B801940CF7047C04658
:102CE000242D00003080046C6F6F7000032E00D024
:102CF00002E740CF00B5043F3E60B04EFFF731F928
:102D0000FFF790FE00F00CF9AA48310040CF0160B7
:102D1000043F3E60AA4EFFF724F900BD0134AC42E7
:102D20007047C0466C2D0000788002646F0000B5CB
:102D3000043F3E60A34EFFF714F99E480168043F2C
:102D40003E600E00043F3E6000260760FFF769FE0C
:102D5000043F3E60032600BD00B500F02EF8ECE70E
:102D600030B4340040CF350040CF7047002E000013
:102D70007880033F646F00B5043F3E60914EFFF7DB
:102D8000F0F8043F3E60904EFFF7DBFA8948016897
:102D9000043F3E600E00FFF77FFE0136043F3E60B9
:102DA000012684480760FFF73CFE043F3E6003268F
:102DB00000BD00B500F001F8E3E700B5043F3E6058
:102DC000824EFFF7BEFA043F3E600426FEF72AFF5C
:102DD000013B08D0043F3E600526FEF723FF013B80
:102DE00000F003FC00BD043F3E603526FFF7A9FA62
:102DF000043F3E60764EFFF7A4FA00F0F6FB00BDFC
:102E00001C2E00003080046361736500043F3E6047
:102E10000026043F3E6008267047C046342E00005E
:102E20003080033F6F666B480AE0013EB64140CFF9
:102E30007047C046C02E00007880026F660066486A
:102E4000082E00D058E640CF00B5043F3E60060093
:102E5000FFF787F8FFF720FE39683E600E4601361F
:102E6000043F3E600926043F3E60594EFFF769FA71
:102E700000BD00B5300040CF013B01B400F0B5FB10
:102E800001BC082E00D037E640CF043F3E6006006C
:102E9000FF213140B14204D150490E43FFF751FAAE
:102EA000D8E7043F3E600026FEF7BCFE043F3E60CC
:102EB0004B4EFFF746FACDE7300040CFB0427047A7
:102EC000F82E0000308005656E646F66092E00D014
:102ED00012E640CF00B540B440CFFFF7DDFD3968C2
:102EE0003E600E46FFF7F0FD043F3E6040BC043FED
:102EF0003E60082600BDC046482F000030800765B0
:102F00006E6463617365082E00D0F5E540CF00B5AF
:102F1000043F3E602E4EFFF714FA00F001F800BDAA
:102F200000B5300040CF00280DD003B4012131405E
:102F3000002903D0013EFFF7BEFD01E0FFF7B5FD1C
:102F400003BC0138EFE700BD5C2F00000080057472
:102F50006F6B656E043F3E60202605E0E82F0000A1
:102F6000008005706172736510B5FEF754FC310086
:102F700040CF300040CF1B4A12688418202E07D162
:102F800091420FD0835CB34202D101328418F7E73B
:102F9000914207D0835C0132B342F9D18618361BC7
:102FA000013E01E08618361B043F3C600D4802607C
:102FB00010BD00000C000020CE2C00001C2D0000D5
:102FC000A22C0000602D0000AC42000030B40000D4
:102FD00040CF00002A2E0000B82E0000002E000076
:102FE000B0420000E41F002028300000008005648B
:102FF00069676974D44B1B68303E0BD30A2E0BD320
:10300000073E0A2E06D3242E06D3203E0A2E01D3D5
:10301000242E01D3002670479E42FBD2043F3E601F
:103020000026F6437047C046343100000080066E2B
:10303000756D626572003FB5310040CF701E01268C
:10304000012204B4C04B1B680024002500293CD099
:103050000130013902782D2A04D101B00022D24377
:1030600004B4F3E7232A01D10A23EFE7242A01D18C
:103070001023EBE7252A01D10223E7E72E2A01D10D
:103080000226E3E72C2A36D0043F3E601600FFF705
:10309000B3FF002E40CF2BD0043F3E602600043FFC
:1030A0003E602E00043F3E601E00043F3E6000264E
:1030B0000FB4FDF758F90FBC350040CF340040CFB6
:1030C0000022A419554140CFC0E704BC002A04D512
:1030D0000022E443ED430134554133002600012B27
:1030E00002D0043F3E602E00043F3E601E003FBD04
:1030F00001B000263FBD2500002402260029E4D0AF
:10310000425C01392E2AF9D0043F3E601600FFF7D9
:1031100073FF002E40CFEBD0043F3C60043F3E6085
:103120001E000FB4FDF7D3F90FBC340040CF40CFE1
:10313000E4E7C046583100000080062E64696769E4
:1031400074000A2E01D230367047242E01D2373651
:10315000704723267047C046903100000080046805
:103160006F6C6400330040CF784801783F290DD25E
:10317000013101704018012907D00138027801306F
:103180000270013801390129F7D103707047C04638
:10319000B0310000008005686F6C643C330040CFA4
:1031A0006A4801783F2902D20131017043547047C7
:1031B000C83100000080047369676E00002E01D4DE
:1031C00040CF70472D26CDE7DC3100000080022380
:1031D0003E005E480678013038607047F4310000E8
:1031E00000800366235310B5202400F008F8013C4A
:1031F000FBD110BD1832000000800266230000B52C
:10320000043F3E60504E3668FDF77FF8FFF799FFA8
:10321000FFF7C4FF00BDC046343200000080022327
:10322000530000B500F00AF8002EFBD138680028E2
:10323000F8D100BD603200000080012300B5043FDA
:103240003E60414E3668043F3E600026FDF75FF960
:10325000FCF766FF40CFFFF774FFFFF783FF00BD69
:10326000743200000080023C2300384800210170C5
:103270007047C04688320000008002662E00043F7E
:103280003E60202605E0C046D8320000008003667C
:103290002E6E00B510B4340040CFFDF7CFFAFCF726
:1032A000F9FF043F3E600026FFF7DFFFFFF7B9FF9D
:1032B00040CF2C26FFF772FF002C03D0FFF79FFFB3
:1032C000013CFBD110BC40CFFFF778FF043F3E60CC
:1032D000043F3E601EE0C046F032000000800375EF
:1032E000642E00B5FFF7C1FFFFF79BFF12E0C04659
:1032F00024330000008002642E0000B5FDF79EFA22
:10330000FCF7C8FFFFF7B1FFFFF78BFFFDF7A1FA4E
:10331000FFF754FFFFF75DFFFEF796FBFEF7E2FABB
:1033200000BDC04638330000008002752E00043F07
:103330003E600026D5E7C046503300000080012ED5
:10334000043F3E60F617D8E7FC1F0020280000204D
:10335000983300000080086576616C7561746500C3
:1033600000B5FEF758FA01CF01B440B440CFC248CF
:10337000016802B400210160FEF740FA00F014F881
:10338000BD4802BC0160043F3E6040BC01BC043F3C
:103390003860FEF733FA00BD10360000008009697E
:1033A0006E7465727072657430B5B44887420BD91B
:1033B000FEF7EAFA10537461636B20756E646572F0
:1033C000666C6F770A0037E1AD4887420AD2FEF794
:1033D000DBFA0F537461636B206F766572666C6FF6
:1033E000770A29E1A74C2568002D01D13D00256011
:1033F000FFF7B0FD002E02D1043740CF30BD386852
:10340000043F3E60043F3860FFF760FA310040CF70
:10341000320040CF002A13D138683100FFF70BFE8D
:10342000320040CF002AC0D1FEF712FBFEF7ACFA03
:103430000C206E6F7420666F756E642E0A00FBE0C0
:10344000914B1B68002B1DD10025256030230B40BC
:10345000302B0ED1FEF7F8FAFEF796FA12206973B8
:1034600020636F6D70696C652D6F6E6C792E0A002C
:10347000E2E0043740CF043F3E601600FEF70BFE4B
:10348000FFF793FF043740CF802008400ED1EB1B9D
:103490009B08402008400FD00820084002D0002B95
:1034A00000D01DE00F200840834205D3043F3E605A
:1034B0001600FEF7F0FD78E700F097F8043F3E6055
:1034C000160010220A4002D0FEF7E5FD6DE720222B
:1034D0000A4002D0FEF745FD67E7FEF72BFC64E7E4
:1034E000072001401000FEF750FD012915D1012BE6
:1034F000DCD1FF213140B14204D140880643FEF7C0
:1035000020FF52E7043F3E600026FEF78BFB043F9E
:103510003E600688FEF715FF47E7022902D1012B1E
:10352000C4D1EFE703291CD1012BBFD1FF213140CA
:10353000B1420AD155490E43FEF703FF0432043F5E
:103540003E601600FEF70DFD2FE7043F3E600026AB
:10355000FEF768FB0232043F3E601600FEF701FDF5
:1035600023E7042918D1012BA0D1330040CF002B31
:1035700000D11AE71F221A409A4205D0043F3E604C
:103580004688FEF7DEFE10E7043F3E6006889B019A
:103590001E43FEF7D6FE08E7052923D1012B0FD1E4
:1035A000043F3E600026FEF73DFB043F3E60060000
:1035B000FEF7D7FC043F3E60354EFEF7C2FEF4E650
:1035C000043F3E600026FEF72DFB043F3E600126CF
:1035D000FEF728FBFEF7D9FC043F3E600600FEF72D
:1035E000C0FCE2E601308047DFE600B5002B0BD0DF
:1035F000013B043F3E609E00BE59FEF7D5FB002B09
:10360000F6D1043D2F0040CF0025256000BDC04607
:103610002C360000818009686F6F6B2D717569749D
:10362000043F3E601B4E704764360000A836000021
:103630000080047175697400174885460F4FFDF7C7
:103640009FFD16480A2101600F48002101600D48C6
:1036500001600948016012480160124941600D484B
:1036600000688746FEF7E6F8FFF79EFEFEF78CF946
:1036700005206F6B2E0AF5E7E41F002030020020C2
:103680003001002008000020D81F0020003E00006C
:1036900040CF0000D41F002030030020FC1F00207A
:1036A000DC1F002068000020C43600000080056593
:1036B000696E743F043F3E60EFF31086013EB641F1
:1036C0007047C046D436000020800465696E7400DF
:1036D00062B67047E436000020800464696E7400AE
:1036E00072B67047FC360000208004697073720067
:1036F000043F3E60EFF305867047C0460837000080
:103700000080036E6F7070474C37000000800975B1
:103710006E68616E646C656400B5FEF735F914552A
:103720006E68616E646C656420496E746572727552
:1037300070742000043F3E60EFF30586FEF79CF9AD
:10374000FEF722F902210A0000BDC04660370000E2
:103750000080057265736574874888490160C046BA
:103760008437000081800B6972712D7379737469DD
:10377000636B043F3E60824E7047183700008048FC
:1037800000688746A83700008180096972712D663C
:1037900061756C74043F3E607A4E704718370000C4
:1037A000784800688746C046D037000081800E699F
:1037B00072712D636F6C6C656374696F6E00043F8A
:1037C0003E60714E7047183700006F4800688746AA
:1037D000F03700008180076972712D727463043FB5
:1037E0003E606A4E70471837000068480068874698
:1037F0001438000081800B6972712D65787469300E
:103800005F31043F3E60624E7047183700006048E9
:10381000006887463838000081800B6972712D6519
:10382000787469325F33043F3E605A4E70471837F0
:1038300000005848006887466038000081800C69A5
:1038400072712D65787469345F313500043F3E60D4
:10385000514E7047183700004F4800688746C046F1
:10386000843800008180096972712D746F756368F6
:10387000043F3E60494E70471837000047480068D3
:103880008746C046A83800008180086972712D649F
:103890006D613100043F3E60414E704718370000B3
:1038A0003F4800688746C046CC38000081800A69DE
:1038B00072712D646D61325F3300043F3E60394E9A
:1038C000704718370000374800688746F038000016
:1038D00081800A6972712D646D61345F3700043F25
:1038E0003E60314E7047183700002F480068874609
:1038F000103900008180076972712D616463043F93
:103900003E602A4E704718370000284800688746F6
:103910003439000081800A6972712D6C7074696D90
:103920003100043F3E60224E7047183700002048A7
:1039300000688746583900008180086972712D74CB
:10394000696D3200043F3E601A4E70471837000020
:10395000184800688746C046BC3900008180076966
:1039600072712D646163043F3E60134E70471837D7
:1039700000001148006887460CED00E00400FA05DD
:10398000D01F0020CC1F0020C81F0020C41F002013
:10399000C01F0020BC1F0020B81F0020B41F002043
:1039A000B01F0020AC1F0020A81F0020A41F002073
:1039B000A01F00209C1F0020981F0020E03900005D
:1039C0008180096972712D74696D3231043F3E60E6
:1039D000A84E704718370000A64800688746C046C2
:1039E000043A00008180096972712D74696D323268
:1039F000043F3E60A04E7047183700009E480068A4
:103A00008746C046283A00008180086972712D6996
:103A100032633100043F3E60984E70471837000013
:103A2000964800688746C0464C3A00008180086985
:103A300072712D6932633200043F3E60904E7047D0
:103A4000183700008E4800688746C046703A00006C
:103A50008180086972712D7370693100043F3E6086
:103A6000884E704718370000864800688746C04671
:103A7000943A00008180086972712D737069320078
:103A8000043F3E60804E7047183700007E48006853
:103A90008746C046B83A000081800A6972712D7568
:103AA000736172743100043F3E60784E704718377E
:103AB0000000764800688746DC3A000081800A6989
:103AC00072712D75736172743200043F3E60704EE6
:103AD0007047183700006E4800688746FC3A0000BF
:103AE0008180076972712D726E67043F3E60694E76
:103AF0007047183700006748006887461C3B000085
:103B00008180076972712D6C6364043F3E60624E70
:103B10007047183700006048006887463C3B00004B
:103B20008180076972712D757362043F3E605B4E40
:103B30007047183700005948006887460040000069
:103B40000000182D2D2D20466C6173682044696398
:103B500074696F6E617279202D2D2D00FDF7A7FC21
:103B60004F4885464F4F2A264F48504901605048DC
:103B700050490160043F3E604E4E4F4DB1884F4B5F
:103B8000994224D04E4B0B400AD0B01DFEF78EFE5A
:103B9000FEF7FBF90388408800040343ED1A16E0A2
:103BA00080230B4013D00F23194089006D1AB01DDC
:103BB000FEF77CFEFEF7E9F9043F3E600600043F95
:103BC0003E602E00043F3E600E00FCF7FFFFFEF754
:103BD0004AFE300040CFD1D03A48066040CF3A4844
:103BE00005603A483A49354A884204D00238038889
:103BF0009342F9D0023037490860FDF7C1FAFDF76A
:103C0000C3FE464D6563726973702D5374656C6CA9
:103C10006172697320322E322E30207769746820E9
:103C20004D3020636F726520666F722053544D33A0
:103C3000324C3035334338206279204D61747468DA
:103C4000696173204B6F63680A002348002101609B
:103C5000043F3E60214E043F3E600426FEF736FEE0
:103C600040CF002E02D0FEF716FAF8E440CFE3E48E
:103C7000696E6974941F0020901F00208C1F002023
:103C8000881F0020841F0020801F00207C1F002030
:103C9000781F0020741F0020701F00206C1F002060
:103CA000300300203002002000000020F00300203C
:103CB00004000020C00000000020002000000000E0
:103CC000000100001C000020240000200000010072
:103CD000004000001800002008000020703C000098
:0400000508000000EF
:00000001FF
