:1000000030040010893A0000D5390000D5390000CD
:1000100000000000000000000000000000000000E0
:10002000000000000000000000000000FF39000098
:100030000000000000000000FF390000B33900009C
:10004000FF390000FF390000FF390000FF390000D0
:10005000FF390000FF390000FF390000FF390000C0
:10006000FF390000FF390000FF390000FF390000B0
:10007000FF390000FF390000FF3900003F3A00005F
:10008000FF390000FF390000FF390000FF39000090
:10009000FF390000613A0000FF390000FF3900001D
:1000A0001F3A0000FF390000FF390000FF3900004F
:1000B000FF390000FF390000FF390000FF39000060
:1000C000FFFFFFFFFFFFFFFFFFFFFFFFFFFFFFFF40
:1000D000FFFFFFFFFFFFFFFFFFFFFFFFFFFFFFFF30
:1000E000FFFFFFFFFFFFFFFFFFFFFFFFFFFFFFFF20
:1003000028030000FFFF1E2D2D2D204D656372690F
:1003100073702D5374656C6C6172697320436F72D6
:1003200065202D2D2D00C046400300004200043200
:10033000647570003868043F3E60043F3860704761
:10034000540300006200053264726F70043740CFBE
:100350007047C04674030000440005327377617033
:1003600007CF043F3860043F3E60043F3A600E0010
:100370007047C04688030000620004326E69700056
:1003800007CF043F38607047A403000044000532E3
:100390006F766572B868043F3E60043F3860FE685F
:1003A0007047C046C8030000440005327475636B93
:1003B00007CF043F3860043F3E60043F3A60043F8B
:1003C0003960043F38607047EC0300004600043297
:1003D000726F74003868B9683A69B86039613A6018
:1003E00079687E60FE68F9607047C04610040000BE
:1003F000460005322D726F743868B9683A69386101
:100400003960BA60F968FE607E6879607047C046FE
:1004100024040000200003323E7201CF01B440B436
:1004200040CF70473C04000020000332723E043F7E
:100430003E6040BC01BC043F38607047540400007B
:10044000200003327240043F3E60019E043F3E6044
:10045000009E704768040000200006327264726FCC
:10046000700002B07047C046800400004200036480
:10047000322F3868F107761040080843386070471B
:100480009404000062000364322A38680018764140
:1004900038607047B0040000420004647368720062
:1004A0003868F10776084008084338607047C0464E
:1004B000C80400006200046473686C0038680018A7
:1004C000764138607047C046DC0400004200046496
:1004D00061627300002E08D47047C046FC0400001F
:1004E000420007646E656761746538680021C04327
:1004F000F64301304E4138607047C0461405000095
:10050000640002642D0007CF121AB1410E00043FAF
:100510003A6070472C050000640002642B0007CF8E
:1005200012184E41043F3A607047C0464005000033
:10053000610003733E64043F3E60F6177047C04697
:100540006C050000420003756D2A38680300734390
:100550003B60010C320C0B005343B6B280B24E43E9
:1005600050433618360CF6187047C0469C050000FC
:100570004200026D2A003868C11705D04042386039
:10058000F01704D07642E0E7F017DED0764200B5EF
:10059000FFF7DBFFFFF7A9FF00BDC046DC05000049
:1005A00044000375642A07CF564341437618010C73
:1005B000130C59437618010C80B292B25143434355
:1005C00050430022C91852411204B6180A04090CFB
:1005D00080184E41043F38607047C04670060000E6
:1005E00044000475646D2A0010B50024043F3E6089
:1005F0007E68043F3E603E69FFF7A7FF310040CFB1
:10060000300040CF043F3E603E68043F3E60FE68DD
:1006100003B4FFF79AFF03BC330040CF320040CF52
:10062000043F3E603E68043F3E603E690FB4FFF702
:100630008CFF0FBC9219634140CF8919624163411D
:1006400040CF043F3E607E68043F3E60FE680FB4CA
:10065000FFF77BFF0FBC9219634140CF89196241BC
:10066000634140CF1E003A607960B86010BDC0465B
:10067000940600004300022A2F0000B540B440CF8A
:10068000FFF779FF043F3E6040BC00F04FF80437AD
:1006900000BDC046B80600004300052A2F6D6F64F8
:1006A00000B540B440CFFFF766FF043F3E6040BC5A
:1006B00000F03CF800BDC046DC06000043000375B6
:1006C0002A2F00B540B440CFFFF73FFF043F3E6004
:1006D00040BC00F01CF8043700BDC0460007000015
:1006E000430006752A2F6D6F640000B540B440CFFB
:1006F000FFF72BFF043F3E6040BC00F008F800BD50
:1007000020070000430006756D2F6D6F640000B573
:10071000043F3E60002600F01AF840CF043700BDC9
:10072000400700004300056D2F6D6F6400B5043F66
:100730003E60F61700F034F840CF043700BDC046E5
:100740009407000044000675642F6D6F640030B498
:10075000002300227968B86835003C6840264000D4
:10076000494152415B41AB4202D804D3A24202D379
:10077000121BAB410130013EF1D10E0038607B60AD
:10078000BA6030BC704730B400237A68B968002082
:10079000E2E7C0460C080000440005642F6D6F645A
:1007A00000B5F01719D0FFF7A0FEFFF7D9FDF0173D
:1007B0000CD0FFF79AFEFFF7D3FDFFF7C8FFFFF756
:1007C000CFFDFFF792FEFFF7CBFD00BDFFF7C8FDA1
:1007D000FFF7BDFFFFF789FE00BDFFF7C1FDF01772
:1007E0000ED0FFF782FEFFF7BBFDFFF7B0FFFFF76C
:1007F0007CFEFFF7B5FDFFF778FEFFF7B1FD00BD0A
:10080000FFF7AEFDFFF7A3FF00BDC04624080000C0
:10081000440002642F0000B5FFF7C2FFFFF7B0FDF0
:1008200000BDC0466C080000440002662A0000B506
:10083000F0170DD0FFF759FEFFF792FDF0170DD01E
:10084000FFF753FEFFF7D0FE40CF01CF386000BD69
:10085000FFF786FDF017F5D0FFF747FEFFF7C4FE60
:1008600040CF01CF3860FFF740FE00BDB808000060
:10087000440002662F0000B5F0170ED0FFF735FEDA
:10088000FFF76EFDF0170ED0FFF72FFEFFF768FDA4
:10089000FFF779FFFFF774FD00BDFFF761FDF0176B
:1008A000F4D0FFF722FEFFF75BFDFFF76CFFFFF7C9
:1008B0001CFEFFF765FD00BDCC08000020000232E1
:1008C000210006CF3160726040CF7047E008000021
:1008D000200002324000043F70683860366870477C
:1008E0000009000044000364753C07CF8E4204D821
:1008F00001D1904201D8002670470026F643704788
:100900002009000044000364753E07CFB14204D8BB
:1009100001D1824201D8002670470026F643704775
:1009200040090000440002643C0007CF8E4204DC12
:1009300001D1904201DC002670470026F643704743
:1009400060090000440002643E0007CFB14204DCAD
:1009500001D1824201DC002670470026F643704731
:100960007009000062000364303C0437F6177047DA
:100970008409000062000364303D01CF0643013E5C
:10098000B6417047A0090000440003643C3E07CF15
:1009900050404E400643013EB641F6437047C046C4
:1009A000B8090000440002643D0007CF50404E40AB
:1009B0000643013EB6417047CC0900002000037396
:1009C0007040043F3E603E007047C046DC090000B6
:1009D000200003737021370040CF7047F0090000FA
:1009E000200003727040043F3E606E467047C04670
:1009F000000A0000200003727021B54640CF704706
:100A0000100A0000610003647570043F3E60704787
:100A1000200A000061000464726F700040CF7047CC
:100A2000380A00006100043F64757000002E01D098
:100A3000043F3E607047C0464C0A000062000473E9
:100A40007761700039683E600E0070475C0A0000F4
:100A50006200036E697004377047C046700A000078
:100A60006200046F76657200043F3E607E687047E6
:100A7000880A00006200047475636B0001CF083FB0
:100A80007E6038607047C046A00A000063000372B1
:100A90006F7403CF083F78603E600E007047C04619
:100AA000B80A00006300042D726F740003CF083F82
:100AB0007E60396006007047CC0A00002000047098
:100AC00069636B00B0003E587047C046E40A0000FE
:100AD0000000056465707468C749C91B043F3E6027
:100AE0008E087047000B0000000006726465707489
:100AF0006800043F3E606E46C049891B8E087047FF
:100B0000100B00002000023E720040B440CF70473E
:100B1000240B0000200002723E00043F3E6040BCF7
:100B20007047C046380B0000200002724000043FAE
:100B30003E60009E7047C046480B000020000572D2
:100B400064726F7001B070475C0B0000200005728A
:100B50007069636BB6006E4436687047700B0000B6
:100B60006A0003616E6401CF064070470640C046CC
:100B7000840B00006A000362696301CFB043060082
:100B800070478643980B00006A00026F720001CF25
:100B9000064370470643C046AC0B00006A0003786A
:100BA0006F7201CF464070474640C046BC0B000004
:100BB0006100036E6F74F6437047C046DC0B0000A3
:100BC000410003636C7A300006D00026400002D05A
:100BD00001D20136FAE7704720267047EC0B00007F
:100BE00061000373687276087047C046FC0B000012
:100BF00061000373686C76007047C0460C0C0000FF
:100C0000610003726F720120C6417047200C000022
:100C1000610003726F6C0020B61946417047C046F0
:100C20003C0C00006C00067273686966740001CFAA
:100C3000F0400600704736080026C046580C0000F9
:100C40006C00076172736869667401CF30410600F9
:100C500070473610F617C046740C00006C00066C26
:100C600073686966740001CFB040060070473600B3
:100C70000026C046840C0000610002303D00013EA9
:100C8000B6417047980C0000610003303C3E013EC5
:100C9000B641F6437047C046A80C00006100023020
:100CA0003C00F6177047C046C00C0000600004749A
:100CB00072756500043F3E600026F6437047C046EB
:100CC000D40C000060000566616C7365043F3E60F3
:100CD00000267047E80C00004200023E3D0001CFB4
:100CE000B042E9DA00267047FC0C00004200023CEA
:100CF0003D0001CFB042DFDD00267047100D00003F
:100D00004200013C01CFB042D6DB00267047C0460E
:100D1000240D00004200013E01CFB042CCDC002691
:100D20007047C046380D0000620003753E3D01CF9C
:100D3000861BB641F64370474C0D000062000375F8
:100D40003C3D01CF361AB641F6437047600D0000B6
:100D5000620002753C0001CF861BB6417047C04659
:100D6000740D0000620002753E0001CF361AB641D4
:100D70007047C0468C0D00006B00023C3E0001CF66
:100D8000361A013EB641F6437047C046A00D00003A
:100D90006B00013D01CF361A013EB6417047C04697
:100DA000B40D00006200036D696E01CFB04200DC3B
:100DB00006007047C80D00006200036D617801CF26
:100DC000B04200DB06007047E00D000062000475D1
:100DD0006D61780001CFB04200D306007047C04675
:100DE000000E0000620004756D696E0001CFB04214
:100DF00000D80600704700003003001030040010D7
:100E0000400E00000000046D6F76650007B53100EC
:100E100040CF320040CF00290FD0B2420DD006D3D0
:100E2000013E013A705C50540139FBD105E0307845
:100E30001070013601320139F9D140CF07BDC046EB
:100E4000640E000000000466696C6C00300040CF46
:100E5000310040CF002902D001397054FCD140CF7D
:100E60007047C046700E0000200001403668704791
:100E7000880E00006D00012103CF30600E00704726
:100E80000660704701607047B00E00006D00022BD5
:100E9000210003CF3268121832600E0070470268DA
:100EA0009219026070470268521802607047C0468B
:100EB000C00E000020000268400036887047C0461F
:100EC000DC0E00006D000268210003CF30800E00B0
:100ED00070470680704701807047C046040F0000CD
:100EE0006D0003682B2103CF3288121832800E0068
:100EF0007047028892190280704702885218028057
:100F00007047C046140F000020000263400036788E
:100F10007047C046300F00006D000263210003CF10
:100F200030700E0070470670704701707047C04601
:100F3000580F00006D0003632B2103CF3278121885
:100F400032700E0070470278921902707047027872
:100F5000521802707047C046800F00006D00046296
:100F60006973210003CF3268024332600E0070477C
:100F7000026832430260704702680A4302607047A9
:100F8000A80F00006D0004626963210003CF32687E
:100F9000824332600E0070470268B24302607047BD
:100FA00002688A4302607047D00F00006D00047829
:100FB0006F72210003CF3268424032600E007047EA
:100FC000026872400260704702684A4002607047DF
:100FD00038100000680004626974400001CF366870
:100FE0000640013EB641F6437047BC4A00B5012BAE
:100FF0000AD1043F3E60002600F0F4FE043F3E604C
:10100000160001F0B0FA11E002CF013B02F007FC3C
:10101000043F3E603626164301F0A5FA043F3E60C9
:101020000E00043F3E60002600F0DCFE043F3E6000
:10103000AB4E01F092F800BD601000006D00056835
:101040006269732103CF3288024332800E007047F9
:10105000028832430280704702880A430280704748
:10106000881000006D0005686269632103CF328833
:10107000824332800E0070470288B243028070477C
:1010800002888A4302807047B01000006D00056836
:10109000786F722103CF3288424032800E00704751
:1010A000028872400280704702884A40028070477E
:1010B000D0100000680005686269744001CF36886E
:1010C0000640013EB641F6437047864A8EE7C04669
:1010D000F81000006D0005636269732103CF327858
:1010E000024332700E00704702783243027070473C
:1010F00002780A4302707047201100006D000563FA
:101100006269632103CF3278824332700E007047E8
:101110000278B2430270704702788A4302707047C7
:10112000481100006D000563786F722103CF32789B
:10113000424032700E007047027872400270704771
:1011400002784A4002707047681100006800056329
:101150006269744001CF36780640013EB641F643DD
:101160007047614A42E7C04678110000610005639C
:10117000656C6C2B043670478811000061000563B4
:10118000656C6C73B6007047CC1100008100096675
:101190006C6173682D6B687A043F3E60534E7047F4
:1011A000E02E000000F0D0FC1E466C6173682063E6
:1011B000616E6E6F74206265207772697474656EFB
:1011C0002074776963650A0002F050FB7812000012
:1011D0000000083136666C61736821003FB50F204E
:1011E000304015D000F0B0FC223136666C61736877
:1011F00021206E656564732031362D616C69676EE0
:10120000656420616464726573730A0002F02EFBEA
:1012100030680130C6D170680130C3D1B068013088
:10122000C0D1F0680130BDD100F046F808CF04CF3E
:1012300002CF01CF803F803F01B4380040242C4DC5
:1012400020C0013CFCD101BCFF243440E4190FC490
:10125000FF25AE4327483321016046608760802127
:101260008031C1602149096801612349234A9047BF
:101270008037803740CF3FBD0013000000000A6573
:1012800072617365666C6173680072B600F014F881
:1012900000F015F800F058FC1A46696E697368652D
:1012A000642065726173696E672E20526573657480
:1012B00020210A0002F06AFB00B5322101E000B5EE
:1012C00034210C480160042141600F2181600749ED
:1012D0000968C1600849094A904700BD00680000DC
:1012E000E00F00000088000000780000DC1F001004
:1012F000FFFFFFFFB0060010C4060010F11FFF1F24
:1013000020130000000009696E6974666C617368DF
:10131000534854490022027001300139FBD1704713
:101320000814000000000768666C6173682130B51E
:10133000320040CF500813D300F006FC1E68666CE4
:1013400061736821206E65656473206576656E2023
:101350006164647265737365732E0A0002F086FA25
:10136000414B9A4210D200F0EFFB1943616E6E6F51
:101370007420777269746520696E746F20636F7270
:101380006520210A02F072FA130935482021046809
:1013900024099C4226D014300139F8D1304820214C
:1013A0000468002C17D014300139F9D100F0CCFBBF
:1013B00021546F6F206D616E792073636174746561
:1013C00072656420466C6173682077726974657316
:1013D0002E0A02F04BFA1B01036001394160816063
:1013E000C16001610F2111400431465240CF0168B4
:1013F000013101600F221140082903D100F01BF8D0
:10140000FFF7ECFE30BDC0466C14000000000A6619
:101410006C757368666C6173680000B510482021B4
:101420000268002A03D000F006F8FFF7D7FE143058
:101430000139F5D100BD043F3E604668043F3E607F
:101440008668043F3E60C668043F3E600669043F0C
:101450003E600F26F6430268164000220260704785
:1014600030040010800200000040000080140000E2
:101470006900012B01CF3618704736180036C04678
:10148000941400006900012D01CF861B7047361AA5
:10149000003EC046A4140000610002312D00013E50
:1014A0007047C046B4140000610002312B000136C1
:1014B0007047C046C4140000610002322D00023E95
:1014C0007047C046D4140000610002322B0002367F
:1014D0007047C046E81400006100066E65676174DD
:1014E000650076427047C046FC140000610003614D
:1014F0006273F017361846407047C0464415000026
:10150000420005752F6D6F64310040CF002903D173
:10151000043F3E6000267047012200238E4206D918
:10152000003104D45200490001D48E42FAD88E42D0
:1015300001D3761A134349085208F8D1043F3E609C
:101540001E007047B41500004200042F6D6F640048
:1015500000B5300040CF002E1CDA764200280CDAAD
:101560004042043F3E600600FFF7CEFF300040CF10
:101570007642043F3E60060000BD043F3E60060028
:10158000FFF7C2FF300040CF40427642043F3E604A
:10159000060000BD002807DA4042043F3E60060016
:1015A000FFF7B2FF764200BD043F3E600600FFF742
:1015B000ABFF00BDC81500004200036D6F6400B5AD
:1015C000FFF7C6FF40CF00BDDC1500004200012F31
:1015D00000B5FFF7BDFF043700BDC046EC150000A5
:1015E0006A00012A01CF464370474643FC150000BC
:1015F000610002322A0076007047C0460C160000D7
:10160000610002322F0076107047C046201600009D
:101610006100046576656E00012030403618704721
:10162000381600008100046261736500043F3E606B
:10163000904E70470A00000050160000000006623D
:10164000696E617279008B48022101607047C04663
:1016500068160000000007646563696D616C854869
:101660000A2101607047C046C416000000000368EC
:10167000657880481021016070477F487F4A016883
:10168000114301607E48C12101607E4801607A48B3
:101690007D4A0168114301607C48012101607C485A
:1016A000802101607B48852101607B480421016025
:1016B0007A480021016076480321016078480721BB
:1016C00001607047E0160000810009686F6F6B2DA4
:1016D000656D6974043F3E60724E7047D617000016
:1016E000FC160000810008686F6F6B2D6B65790038
:1016F000043F3E606C4E7047FE1700001C17000050
:1017000081000A686F6F6B2D656D69743F00043F3F
:101710003E60664E70472C180000C0463817000027
:10172000810009686F6F6B2D6B65793F043F3E60E8
:101730005F4E70475A1800005817000081000A6871
:101740006F6F6B2D706175736500043F3E60594E7D
:1017500070473A390000C046701700000000046569
:101760006D6974000FB54F4800F029F80FBDC046F1
:10177000841700000000036B65790FB54A4800F03C
:101780001EF80FBD98170000000005656D69743FD5
:10179000464800688746C046AC1700000000046B4E
:1017A00065793F00424800688746C046C41700007C
:1017B00000000570617573653E48006887460068E3
:1017C0008746C046EC17000000000B736572696124
:1017D0006C2D656D697400B500F028F8002E40CFBF
:1017E000FAD0F6B22C48066040CF00BD18180000B1
:1017F00000000A73657269616C2D6B65790000B534
:1018000000F02BF8002E40CFFAD0043F3E60224E6D
:101810003668F6B200BDC0464818000000000C73E0
:10182000657269616C2D656D69743F0000B5FFF7E5
:10183000C3FF043F3E6000261F482022016811407C
:1018400000D0F64300BDC046BC18000000000B737A
:10185000657269616C2D6B65793F00B5FFF7ACFF70
:10186000043F3E600026144801220168114000D068
:10187000F64300BDD81F00108080044040000100E6
:10188000A4400440A8400440001000009880044098
:101890000C80004028800040008000400480004010
:1018A00008800040D41F0010D01F0010CC1F001073
:1018B000C81F0010C41F001014800040E018000072
:1018C0000000076365787065637400B5386801B41B
:1018D0000130386000F00BF801BC067040CF00BD4D
:1018E000581900000000066163636570740000B55C
:1018F00002CF01390022FFF740FF300040CF7F28A0
:1019000009D0202819D2092816D00A281FD00D285E
:101910001DD00828EFD1002AEDD000F015F90308FA
:101920002008002AE7D0885C013A80230340E2D0F7
:1019300040230340F5D0DEE72020B242DBD2043F53
:101940003E600600FFF70EFF01328854D3E7160011
:1019500000F0A8F800BDC0466C19000040000374F8
:101960006962043F3E602B4E7047C04684190000F8
:101970008100033E696E043F3E60274E70470000C1
:101980000000C046AC19000082000E6375727265DB
:101990006E742D736F7572636500043F3E601F4E59
:1019A00070470000000068000010C046C819000021
:1019B000000009736574736F75726365174802CF11
:1019C0000660416040CF7047E819000000000673D0
:1019D0006F7572636500043F3E60104E043F70688F
:1019E000386036687047C046201A00000000057154
:1019F000756572790FB5084800210160FFF7B1FFE6
:101A0000043F3E60043F3E60C826FFF770FFFFF7CB
:101A1000D5FF0FBD68000010C01F0010B81F0010D8
:101A2000701A0000000007636F6D706172650FB57A
:101A3000310040CF01CF884202D040CF00260FBDF9
:101A400002CF002810D001380A5C335C412A02D34F
:101A50005B2A00D22032412B02D35B2B00D22033F1
:101A60009A42EED000260FBD0026F6430FBDC046B9
:101A7000841A000000000263720000B500F064F8F0
:101A8000010A00BD981A0000000002626C00043FC9
:101A90003E6020267047C046AC1A00000000057367
:101AA00070616365043F3E6020265BE6CC1A00004F
:101AB0000000067370616365730000B5002E03DDDE
:101AC000FFF7F0FF013EFBD140CF00BDDC1A000064
:101AD0005000065B636861725D0005E0F41A000067
:101AE000000004636861720000B501F04DFB40CF57
:101AF000367800BD041B000050000128043F3E6002
:101B0000292606E0201B00005000015C043F3E60D7
:101B1000002600B501F042FB043740CF00BDC046AF
:101B2000681B00001000022E22009F4800B5043FF1
:101B30003E60060000F0DEF9043F3E60222601F020
:101B40002DFB00F04AFD00BD0AB4043F3E6076461E
:101B5000013E33780121013319405B187146C918E1
:101B60008E460ABC3CE0C046901B00001000026399
:101B700022008E48DAE7043F3E607646013E337825
:101B80000121013319405B187146C9188E46704710
:101B9000BC1B00001000027322008548C6E7043F0A
:101BA0003E607646043F3E60013E36780121731C5C
:101BB00019405B187146C9188E467047D41B000047
:101BC000000005636F756E740136043F3E60013E90
:101BD00036787047FC1B000000000563747970655F
:101BE00001B53078002807D00136043F3E603678D2
:101BF000FFF7B8FD0138F7D140CF01BD2C1C000024
:101C00000000047479706500310040CF300040CF8F
:101C100000B5002908D00022043F3E60865CFFF733
:101C2000A1FD01329142F7D100BDC046681C000001
:101C30000000046865782E0007B5310040CF2020F1
:101C40000F220438043F3E600E00C6401640092EA5
:101C500001D9373600E03036FFF784FD0028F0D197
:101C6000FFF720FF07BDC046781C00000000036896
:101C70002E731FB54F4C0EE0881C0000000003754A
:101C80002E731FB54C4C06E0081D00000000022E0C
:101C900073001FB5494C4A49C91B8908494A106855
:101CA00003B40A201060FFF74FFF08537461636BA1
:101CB0003A205B00043F3E600E0001F05BFCFFF742
:101CC00043FF025D200003BC3E4A106000290AD099
:101CD0003D4A106806B4043F3E600600A04706BCBB
:101CE000043A0139F5D1FFF72FFF0620544F533A3C
:101CF0002000043F3E603600A047FFF725FF042088
:101D00002A3E0A001FBDC046CC1D0000000005771A
:101D10006F72647300B5FFF717FF010A00F0A3FEAE
:101D2000FFF712FF09416464726573733A20043F40
:101D30003E60FFF781FFFFF707FF064C696E6B3AC5
:101D40002000043F3E603668FFF776FFFFF7FCFE99
:101D500007466C6167733A20043F3E60B688FFF720
:101D60006BFFFFF7F1FE06436F64653A2000B01D7C
:101D700000F0B4FE043F3E600600FFF75DFFFFF792
:101D8000E3FE064E616D653A2000043F3E60063674
:101D9000FFF726FFFFF7D8FE010A00F07CFE3000B7
:101DA00040CFBDD040CF00BD481B0000761B0000D7
:101DB0009E1B0000391C00006335000075350000D3
:101DC00030030010D81F00102C030010E81E000084
:101DD00000001072656769737465726C697465726E
:101DE000616C2C003FB5350040CF2900C900294364
:101DF0002D02AC480543FF2300223000D040984319
:101E000001D00132F9E73000D04018402843043FA8
:101E10003E60060000F0A7FBA34805431800904071
:101E2000864310D000243000E040984301D00134B4
:101E3000F9E7101B043F3E600E008001064300F0EE
:101E400092FB2200DFE7002A06D0043F3E600E002E
:101E50009201164300F087FB40CF3FBD1FB5310014
:101E600040CF924C0C43C9000C434901300040CF95
:101E7000020EFF231A408B4B0B431343043F3E607B
:101E80001E0000F070FB043F3E60260000F06BFB7C
:101E9000020CFF231A40864B0B431343043F3E6062
:101EA0001E0000F060FB043F3E60260000F05BFB7C
:101EB000020AFF231A407E4B0B431343043F3E604C
:101EC0001E0000F050FB043F3E60260000F04BFB7C
:101ED0000200FF231A40764B0B431343043F3E603E
:101EE0001E0000F040FB1FBD581F000000000563EE
:101EF000616C6C2C0FB5330000F08AFE300040CFCF
:101F00001B1A043B6B49194000290ED06A4A9142C2
:101F10000BD00136043F3E600026FFF763FF043F0D
:101F20003E60664E00F01FFB0FBD40CF5B0864486B
:101F3000644919400843DB0A63491940090408430E
:101F40009B0A0121194089060843043F3E600600B0
:101F500000F033FB0FBDC046AC1F00000000086C52
:101F600069746572616C2C0008B5043F3E60574E81
:101F700000F0F9FA043F3E60554E00F0F4FA554B7C
:101F80003000184098420BD1F643043F3E600626CD
:101F9000FFF728FF043F3E604F4E00F0E4FA08BD13
:101FA000043F3E600626FFF71DFF08BDD41F00005A
:101FB0000000066372656174650000B500F047F8C3
:101FC0001F200002F3308047043F3E607646013E0A
:101FD00000BDC04640200000200005646F65733ED0
:101FE0001F200002F3308047043F3E607646013EEA
:101FF0007047043F3E607646013E384A13683849D0
:1020000009683648834205D20F2008400E2805D0C3
:102010000231F9E70220084000D10231023111609B
:102020000136043F3E600026FFF718FF043F3E6084
:10203000224E00F098FA136000F0F3F900BDC0469C
:10204000E82000000000073C6275696C647300B50D
:1020500000F08EFB21480168204A91420CD200F02A
:10206000D7FD0F2006400E2E40CF10D0043F3E601B
:10207000362600F078FAF2E700F0CAFD02200640AA
:1020800040CF04D1043F3E60362600F06CFA043F96
:102090003E60144E00F067FA043F3E60102600F0E8
:1020A000CFFA00BD00200000001000000002000078
:1020B000003000000100C0FF0000C0FF80470000AA
:1020C00000F800F0FF070000FF030000043F0000DD
:1020D0003E6000000000FFFFF6430000000000101B
:1020E0001400001000B50000F42000005000035B55
:1020F000275D03E00C2100000000012700B501F07E
:1021000043F800F02AFD300040CF00BD4C21000014
:10211000100008706F7374706F6E650000B5FFF784
:10212000EDFF102101400DD12021014005D0FFF726
:102130001BFF043F3E60E14E04E0FFF715FF043F44
:102140003E60DF4EFFF7D6FE00BDC046982100007E
:10215000000007696E6C696E652C00B5D949DA4AD2
:10216000DA4B3088884208D0904208D0984206D096
:10217000043F3E60060000F0F6F90236F1E740CF7A
:1021800000BD0EB4D04AD14B01880230914201D03B
:102190009942F9D10EBC7047AC21000000000472D6
:1021A00065742C00043F3E60C74EDCE1BC2100009A
:1021B0003000046578697400F4E7C046D42100005B
:1021C00030000772656375727365043F3E60C04EF0
:1021D00036688FE6EC210000810005737461746538
:1021E000043F3E60BB4E704700000000002200002C
:1021F0000000015DB7480021C94301607047C04637
:10220000102200001000015BB248002101607047FD
:10221000382200000000013A00B5AF48076000F026
:10222000A7FA043F3E60A74E00F09DF9A94800219F
:10223000C943016000BDC046802200003000013B60
:1022400000B5A5480168B9420ED0FFF77DFC152006
:10225000537461636B206E6F742062616C616E6396
:1022600065642E0A01F002FB043F3E60964E00F0CA
:102270007AF900F0D6F897480021016000BDC04609
:10228000942200000000076578656375746530006E
:1022900040CF8746AC220000100009696D6D65646F
:1022A00069617465043F3E601026EDE0C4220000C1
:1022B000100006696E6C696E6500043F3E60202662
:1022C000E2E0C046E022000010000B636F6D706911
:1022D0006C656F6E6C79043F3E603026D4E0C0467A
:1022E000FC22000010000A302D666F6C6461626C85
:1022F0006500043F3E604026C6E0C046182300004B
:1023000010000A312D666F6C6461626C6500043FD9
:102310003E604126B8E0C0463423000010000A3277
:102320002D666F6C6461626C6500043F3E604226FE
:10233000AAE0C0465023000010000A332D666F6CDF
:102340006461626C6500043F3E6043269CE0C046C9
:102350006C23000010000A342D666F6C6461626C9F
:102360006500043F3E6044268EE0C046882300009E
:1023700010000A352D666F6C6461626C6500043F65
:102380003E60452680E0C046A423000010000A36C7
:102390002D666F6C6461626C6500043F3E6046268A
:1023A00072E0C046C023000010000A372D666F6C33
:1023B0006461626C6500043F3E60472664E0C0468D
:1023C000F0230000000008636F6E7374616E740088
:1023D00000B500F0CDF9FFF7C7FD043F3E603B4E6E
:1023E00000F0C1F8FFF785FF00F01BF800BDC04604
:1023F0001424000000000932636F6E7374616E7400
:1024000000B500F0B5F939683E600E46FFF7ACFD47
:10241000E1E7C04678240000000006736D7564672C
:10242000650000B52D4801682C4A91421ED2023940
:102430000A882B4B9A4204D1043F3E60294E00F09B
:1024400092F800F069F800F07BF827480068043F34
:102450003E600600254909680431204A136811606E
:1024600000F081F81360FEF7D8FF00BD00F054F8CB
:10247000043F3E60002608E0F024000000000873DE
:102480006574666C6167730000B514480168134A8F
:10249000914205D2144801683143016040CF00BD2C
:1024A000320040CF11480068043001880C4B99423B
:1024B00001D1110000E01143018000BD5A2100004C
:1024C000F41E000000B5000000BD000070470000D1
:1024D00014000010B41F00101000001000000010C5
:1024E000FFFF0000000000002000001004000010AA
:1024F0000C250000410007616C69676E656401206E
:102500003040361802203040361870473025000021
:10251000000005616C69676E00B58B480168022098
:10252000014004D0043F3E60002600F01CF800BDCE
:102530005C250000000008616C69676E31362C0074
:1025400000B5814801680F20014005D0043F3E607E
:10255000002600F008F8F4E700BDC046942500000E
:10256000000002682C000FB5B6B277480168764AC1
:10257000914205D2043F3E600E00FEF7D8FE02E015
:10258000320040CF0A80043F3E60022600F058F837
:102590000FBDC046B02500000000012C00B5043F6F
:1025A0003E60FFF7E0FF360CFFF7DDFF00BDC046E1
:1025B000CC2500000000033E3C2C00B5043F3E60EB
:1025C000360CFFF7D0FFFFF7CEFF00BD342600002A
:1025D000000007737472696E672C07B5FF213140E4
:1025E00040CF300040CF002905D1043F3E60002697
:1025F000FFF7B9FF07BD043F3E60067836020E4381
:10260000FFF7B1FF0130013902290AD3043F3E60D0
:102610004678360202781643FFF7A5FF02300239EA
:10262000F2E7002900D107BD043F3E600678FFF7BE
:102630009AFF07BD90260000000005616C6C6F7466
:1026400041480168404A91420FD2320040CF891878
:102650003E4A914219D3FFF777FA0B466C617368D3
:102660002066756C6C0A01F001F9320040CF8918C0
:10267000374A1268914208D3FFF766FA0952616D32
:102680002066756C6C0A01F0F1F801607047C04675
:10269000B826000000000D636F6D70696C65746F83
:1026A00072616D3F043F3E6000262748006826495E
:1026B000884248D3F6437047D826000000000C63D8
:1026C0006F6D70696C65746F72616D001E48006893
:1026D0001D49884211D370476027000000000E6337
:1026E0006F6D70696C65746F666C61736800164815
:1026F00000681549884200D270471648164902689A
:102700000B680A6003601048144902680B680A608D
:1027100003600F480068834215D300B5FFF714FA31
:1027200023205661726961626C657320636F6C6C03
:1027300069646520776974682064696374696F6E81
:102740006172790A00BD70470000001000000100AE
:1027500024000010040000101C00001018000010DD
:102760005C28000000000828637265617465290018
:1027700000B500F009FD002E0ED1FFF7E5F9152098
:10278000437265617465206E65656473206E616D6A
:102790006520210A01F06AF83868043F3E60043F72
:1027A000386000F0ABF940CF002E40CF11D0386830
:1027B000043F3E60043F3860FFF7C6F90952656484
:1027C0006566696E6520FFF71FFAFFF7BDF9022EF7
:1027D0000A00FFF7A1FE924800689149884225D27D
:1027E000904800210160FFF7ABFE043F3E600C26DD
:1027F000FFF726FF00F00CFA043F3E600626FFF7C5
:102800001FFFFEF753F9FFF7E8FE874801680A68E3
:10281000864B9A4207D1824A13681160043F3E609A
:10282000FFF7BCFE1360066040CF12E000F0F0F945
:102830007D48043F3E600668FFF7B0FE043F3E60FF
:102840007B4EFFF790FE7848310040CF0160FFF7E4
:10285000C4FE734801687748016000BD7428000019
:102860000000087661726961626C6500043F3E6039
:10287000012613E08C28000000000932766172699D
:1028800061626C65043F3E60022607E06429000037
:102890000000096E7661726961626C6500B5FFF7D0
:1028A00067FF5F4801685E4A914233D20F200640BD
:1028B000B20061480168891A604A91420BD2FFF761
:1028C00043F90F4E6F7420656E6F75676820524133
:1028D0004D0A00F0CBFF0160043F3E600E00FFF7A1
:1028E00043FB043F3E60564EFFF73DFE300040CFB5
:1028F0000200002805D00E600431FFF74FFE0138BA
:10290000F9D1043F3E6080261643FFF7BDFDFFF777
:1029100088FD00BD00F07CF90220064040CF04D1C4
:10292000043F3E603626FFF71EFE043F3E60454EE4
:10293000FFF743FE043F3E60434EFFF73EFE043F79
:102940003E603F4EFFF70FFE300040CF002803D01F
:10295000FFF724FE0138FBD1FFF7CBFCFFF761FD49
:1029600000BDC046502A000000000762756666651B
:10297000723A00B5FFF7FCFE012030403618022005
:102980003040361826480168254A914226D22A4806
:102990000168891B294A91420BD2FFF7D5F80F4EE7
:1029A0006F7420656E6F7567682052414D0A00F0A4
:1029B0005DFF0160043F3E600E00FFF7D5FA043F63
:1029C0003E601F4EFFF7CFFDFFF7E8FD043F3E607E
:1029D0001E4EFFF759FDFFF724FD00BD00F018F96A
:1029E0000220064040CF04D1043F3E603626FFF768
:1029F000BAFD043F3E60134EFFF7DFFD043F3E602B
:102A0000114EFFF7DAFD043F3E600D4EFFF7ABFDC0
:102A1000FFF716FEFFF76DFCFFF703FD00BD00009A
:102A2000000000102000001004000010FFFFFFFF56
:102A3000FFFF00001400001024000010D406001056
:102A4000704700003E60043F02367E4640010000B1
:102A5000802A000000000F64696374696F6E617200
:102A6000797374617274EB480068EA49043F3E6010
:102A7000884201D2E84E7047E84E36687047C0463B
:102A8000BC2A000000000E64696374696F6E617295
:102A9000796E6578740003B53168E148814207D0EA
:102AA0008879FF2804D00E00043F3E60002603BD55
:102AB000043F3E600026F64303BDC046F02A0000F6
:102AC00000000A736B6970737472696E6700317805
:102AD000013101220A4089187618704706B401783E
:102AE000013101220A408918401806BC7047C046CF
:102AF000702B000000000466696E64003FB5002280
:102B00000023350040CF340040CFFFF7ACFFC5486D
:102B1000B188884217D0043F3E600636FFF754F86C
:102B2000043F3E602600043F3E602E00FEF77FFF1C
:102B3000002E40CF07D0B01DFFF7D0FF02000B00E2
:102B4000B448824204D2FFF7A6FF300040CFDED067
:102B50001600043F3E601E003FBD00B531003868DE
:102B6000FFF7CCFF3A68002A01D100F077FD00BDE5
:102B7000CC2B0000000006636A756D702C003200DB
:102B800040CF310040CF8B1B043BA749194000299F
:102B90000DD0A64881420AD0FEF7D6FF0D4A756DCA
:102BA0007020746F6F206661720A00F05FFE5B1028
:102BB000FF210B40134330001E0000B5954A1368F7
:102BC0001060FFF7D0FC136000BDC046042C00006D
:102BD0000000056A756D702C310040CF300040CF89
:102BE0000B1A043B92491940002902D0914A9142A4
:102BF000D2D15B10904A1340904A1343043F3E6089
:102C00001E00DAE71C2C00000000046865726500F5
:102C1000043F3E607F4E36687047C0460C2D000072
:102C200000000D666C6173687661722D686572656F
:102C3000043F3E60824E3668704700B5043F3E60F8
:102C4000804EFFF790FC043F3E607F4EFFF78BFC09
:102C500000BDDDE700B500F037F839683E600E468C
:102C6000043F3E60794EFFF78AFF00BD00B500F0DB
:102C70002BF839683E600E46043F3E60744EFFF705
:102C80007EFF00BD00B5FFF7D8FF00F01DF83968E2
:102C90003E600E46043F3E606E4EFFF770FF00BD83
:102CA00000B500F011F839683E600E46FFF794FF5A
:102CB00000BD00B5FFF7C1FFFFF7AAFF043F3E606C
:102CC0000226FFF7BDFC00BD00B5FFF7A1FF043FE2
:102CD0003E600226FFF7B4FC00BD00B5FFF798FF89
:102CE000FFF77AFF00BD00B5FFF792FF043F3E609B
:102CF000584EFFF744FF00BD00B5FFF789FF043FC2
:102D00003E60524EFFF73BFF00BDC046482D00001D
:102D10003000047468656E00052E01D140CFDCE7F9
:102D2000022E01D140CFDEE7FEF70EFF175374727B
:102D30007563747572657320646F6E2774206D619E
:102D40007463680A00F092FD742D00003000046581
:102D50006C73650000B5022EE6D140CFFFF7B4FFDB
:102D600039683E600E46FFF7BEFF043F3E60052611
:102D700000BDC0468C2D000030000269660000B521
:102D8000FFF797FF043F3E60022600BDB42D000010
:102D900030000672657065617400042EC4D140CFA6
:102DA00039683E600E4600B5FFF77AFFFFF79BFFDC
:102DB00000BDC046D02D00003000057768696C6505
:102DC000012EB1D140CF00B5FFF7D9FF023600BDCB
:102DD000E42D0000300005756E74696C012EA3D1DE
:102DE00040CF4FE7F82D0000300005616761696E44
:102DF000012E99D140CF53E7582E000030000562D4
:102E00006567696E00B5FFF724FF043F3E60012649
:102E100000BD0000000000100003000004000010CE
:102E2000FFFFFFFFFFFF000001FFFFFF00FFFFFFAD
:102E300001F8FFFF00F8FFFFFF07000000E00000BF
:102E400024000010002E000040CF000000D1000040
:102E500000D7000000D00000682E00002000016BA9
:102E6000043F3E60029E7047782E00002000016AF9
:102E7000043F3E60009E7047882E000020000169DC
:102E8000043F3E6026007047C82E00003000056CED
:102E90006561766500B5D44801683B00043F1A6857
:102EA000043B1A6008338B42F9D103B4FFF70CFFDF
:102EB00003BC330040CF04390B60016004390A6859
:102EC00001320A6000BDC046DC2E000020000675FD
:102ED0006E6C6F6F700030BC7047C046142F0000DE
:102EE0003000052B6C6F6F70032E00D01CE740CFB5
:102EF00000B5043F3E60BD4EFFF72FF9FFF7B6FE69
:102F00001AE0802000060019A419401B801940CF48
:102F10007047C046582F00003000046C6F6F70007F
:102F2000032E00D000E740CF00B5043F3E60B04E16
:102F3000FFF713F9FFF78EFE00F00CF9AA483100F5
:102F400040CF0160043F3E60AA4EFFF706F900BD86
:102F50000134AC427047C046A02F000078000264E4
:102F60006F0000B5043F3E60A34EFFF7F6F89E48A1
:102F70000168043F3E600E00043F3E60002607608B
:102F8000FFF767FE043F3E60032600BD00B500F07A
:102F90002EF8ECE730B4340040CF350040CF704716
:102FA000343000007800033F646F00B5043F3E609A
:102FB000914EFFF7D2F8043F3E60904EFFF7D3FAF0
:102FC00089480168043F3E600E00FFF77DFE013630
:102FD000043F3E60012684480760FFF73AFE043F45
:102FE0003E60032600BD00B500F001F8E3E700B540
:102FF000043F3E60824EFFF7B6FA043F3E6004266F
:10300000FEF7F0FE013B08D0043F3E600526FEF7C8
:10301000E9FE013B00F003FC00BD043F3E603526A5
:10302000FFF7A1FA043F3E60764EFFF79CFA00F0EE
:10303000F6FB00BD50300000300004636173650092
:10304000043F3E600026043F3E6008267047C046AD
:10305000683000003000033F6F666B480AE0013EB5
:10306000B64140CF7047C046F43000007800026F90
:1030700066006648082E00D056E640CF00B5043FF3
:103080003E600600FFF769F8FFF71EFE39683E60F4
:103090000E460136043F3E600926043F3E60594E0D
:1030A000FFF761FA00BD00B5300040CF013B01B42D
:1030B00000F0B5FB01BC082E00D035E640CF043F40
:1030C0003E600600FF213140B14204D150490E4319
:1030D000FFF749FAD8E7043F3E600026FEF782FE7C
:1030E000043F3E604B4EFFF73EFACDE7300040CF45
:1030F000B04270472C310000300005656E646F6689
:10310000092E00D010E640CF00B540B440CFFFF705
:10311000DBFD39683E600E46FFF7EEFD043F3E6082
:1031200040BC043F3E60082600BDC0467C31000024
:10313000300007656E6463617365082E00D0F3E5A7
:1031400040CF00B5043F3E602E4EFFF70CFA00F072
:1031500001F800BD00B5300040CF00280DD003B409
:1031600001213140002903D0013EFFF7BCFD01E001
:10317000FFF7B3FD03BC0138EFE700BD903100005D
:10318000000005746F6B656E043F3E60202605E00D
:103190001C320000000005706172736510B5FEF707
:1031A0001AFC310040CF300040CF1B4A126884180F
:1031B000202E07D191420FD0835CB34202D101325D
:1031C0008418F7E7914207D0835C0132B342F9D10A
:1031D0008618361B013E01E08618361B043F3C6012
:1031E0000D48026010BD00000C000010022F00000E
:1031F000502F0000D62E0000942F0000AC4200009B
:1032000030B4000040CF00005E300000EC30000021
:10321000002E0000B0420000C01F00105C32000011
:103220000000056469676974D44B1B68303E0BD39A
:103230000A2E0BD3073E0A2E06D3242E06D3203E99
:103240000A2E01D3242E01D3002670479E42FBD2C2
:10325000043F3E600026F6437047C04668330000D6
:103260000000066E756D626572003FB5310040CF9B
:10327000701E0126012204B4C04B1B6800240025E7
:1032800000293CD00130013902782D2A04D101B047
:103290000022D24304B4F3E7232A01D10A23EFE743
:1032A000242A01D11023EBE7252A01D10223E7E7E5
:1032B0002E2A01D10226E3E72C2A36D0043F3E60B5
:1032C0001600FFF7B3FF002E40CF2BD0043F3E6027
:1032D0002600043F3E602E00043F3E601E00043F77
:1032E0003E6000260FB4FDF75EF90FBC350040CFFD
:1032F000340040CF0022A419554140CFC0E704BCA0
:10330000002A04D50022E443ED4301345541330043
:103310002600012B02D0043F3E602E00043F3E6099
:103320001E003FBD01B000263FBD2500002402263F
:103330000029E4D0425C01392E2AF9D0043F3E60D6
:103340001600FFF773FF002E40CFEBD0043F3C6028
:10335000043F3E601E000FB4FDF7D9F90FBC3400E6
:1033600040CF40CFE4E7C0468C3300000000062E7B
:103370006469676974000A2E01D230367047242EC2
:1033800001D23736704723267047C046C433000049
:10339000000004686F6C6400330040CF7848017807
:1033A0003F290DD2013101704018012907D00138A1
:1033B000027801300270013801390129F7D1037018
:1033C0007047C046E4330000000005686F6C643C41
:1033D000330040CF6A4801783F2902D201310170A1
:1033E00043547047FC3300000000047369676E00AB
:1033F000002E01D440CF70472D26CDE710340000B9
:10340000000002233E005E480678013038607047B5
:103410002834000000000366235310B5202400F078
:1034200008F8013CFBD110BD4C34000000000266DE
:10343000230000B5043F3E60504E3668FDF785F826
:10344000FFF799FFFFF7C4FF00BDC04668340000D6
:1034500000000223530000B500F00AF8002EFBD153
:1034600038680028F8D100BD943400000000012322
:1034700000B5043F3E60414E3668043F3E60002682
:10348000FDF765F9FCF76CFF40CFFFF774FFFFF71E
:1034900083FF00BDA83400000000023C2300384830
:1034A000002101707047C046BC3400000000026675
:1034B0002E00043F3E60202605E0C0460C3500008B
:1034C000000003662E6E00B510B4340040CFFDF747
:1034D000D5FAFCF7FFFF043F3E600026FFF7DFFF51
:1034E000FFF7B9FF40CF2C26FFF772FF002C03D067
:1034F000FFF79FFF013CFBD110BC40CFFFF778FFE7
:10350000043F3E60043F3E601EE0C046243500009C
:1035100000000375642E00B5FFF7C1FFFFF79BFFA6
:1035200012E0C04658350000000002642E0000B5CD
:10353000FDF7A4FAFCF7CEFFFFF7B1FFFFF78BFF13
:10354000FDF7A7FAFFF754FFFFF75DFFFEF75CFBFF
:10355000FEF7A8FA00BDC0466C35000000000275F9
:103560002E00043F3E600026D5E7C04684350000AB
:103570000000012E043F3E60F617D8E7D81F001068
:1035800028000010CC3500000000086576616C75DD
:103590006174650000B5FEF71EFA01CF01B440B4B6
:1035A00040CFC248016802B400210160FEF706FA6C
:1035B00000F014F8BD4802BC0160043F3E6040BC0E
:1035C00001BC043F3860FEF7F9F900BD4438000043
:1035D000000009696E7465727072657430B5B44824
:1035E00087420BD9FEF7B0FA10537461636B2075F4
:1035F0006E646572666C6F770A0037E1AD4887428A
:103600000AD2FEF7A1FA0F537461636B206F7665DF
:1036100072666C6F770A29E1A74C2568002D01D1ED
:103620003D002560FFF7B0FD002E02D1043740CFEA
:1036300030BD3868043F3E60043F3860FFF75EFAF3
:10364000310040CF320040CF002A13D1386831001A
:10365000FFF70BFE320040CF002AC0D1FEF7D8FAA8
:10366000FEF772FA0C206E6F7420666F756E642E12
:103670000A00FBE0914B1B68002B1DD10025256043
:1036800030230B40302B0ED1FEF7BEFAFEF75CFA6A
:103690001220697320636F6D70696C652D6F6E6C9D
:1036A000792E0A00E2E0043740CF043F3E60160066
:1036B000FEF7EDFDFFF793FF043740CF8020084071
:1036C0000ED1EB1B9B08402008400FD0082008407B
:1036D00002D0002B00D01DE00F200840834205D30C
:1036E000043F3E601600FEF7D2FD78E700F097F841
:1036F000043F3E60160010220A4002D0FEF7C7FDCC
:103700006DE720220A4002D0FEF727FD67E7FEF7AB
:10371000F1FB64E7072001401000FEF732FD0129AC
:1037200015D1012BDCD1FF213140B14204D14088B9
:103730000643FEF718FF52E7043F3E600026FEF7FF
:1037400051FB043F3E600688FEF70DFF47E7022964
:1037500002D1012BC4D1EFE703291CD1012BBFD12A
:10376000FF213140B1420AD155490E43FEF7FBFE1D
:103770000432043F3E601600FEF7EFFC2FE7043FE3
:103780003E600026FEF72EFB0232043F3E6016002C
:10379000FEF7E3FC23E7042918D1012BA0D1330065
:1037A00040CF002B00D11AE71F221A409A4205D0C1
:1037B000043F3E604688FEF7D6FE10E7043F3E60B9
:1037C00006889B011E43FEF7CEFE08E7052923D19C
:1037D000012B0FD1043F3E600026FEF703FB043FA0
:1037E0003E600600FEF7B9FC043F3E60354EFEF732
:1037F000BAFEF4E6043F3E600026FEF7F3FA043F0B
:103800003E600126FEF7EEFAFEF7BBFC043F3E6089
:103810000600FEF7A2FCE2E601308047DFE600B5D5
:10382000002B0BD0013B043F3E609E00BE59FEF7CB
:103830009BFB002BF6D1043D2F0040CF00252560D7
:1038400000BDC04660380000810009686F6F6B2DB5
:1038500071756974043F3E601B4E704798380000D4
:10386000DC38000000000471756974001748854653
:103870000F4FFDF74DFD16480A2101600F4800214A
:1038800001600D4801600948016012480160124959
:1038900041600D4800688746FEF7ACF8FFF79EFED2
:1038A000FEF752F905206F6B2E0AF5E7C01F0010D6
:1038B000300300103001001008000010B41F001089
:1038C000003E000040CF0000B01F00103004001088
:1038D000D81F0010B81F001068000010F838000052
:1038E00000000565696E743F043F3E60EFF310868B
:1038F000013EB6417047C04608390000200004650B
:10390000696E740062B670471839000020000464C4
:10391000696E740072B67047303900002000046987
:1039200070737200043F3E60EFF305867047C04637
:103930003C3900000000036E6F7070478039000052
:10394000000009756E68616E646C656400B5FEF711
:10395000FBF814556E68616E646C656420496E7482
:103960006572727570742000043F3E60EFF3058647
:10397000FEF762F9FEF7E8F802210A0000BDC04632
:1039800094390000000005726573657484488549A8
:103990000160C046B839000081000B6972712D7357
:1039A00079737469636B043F3E607F4E70474C3996
:1039B00000007D4800688746DC3900008100096905
:1039C00072712D6661756C74043F3E60774E70476E
:1039D0004C390000754800688746C046043A00002C
:1039E00081000E6972712D636F6C6C656374696F11
:1039F0006E00043F3E606E4E70474C3900006C48CC
:103A000000688746243A00008100076972712D61C1
:103A10006463043F3E60674E70474C390000654860
:103A200000688746443A00008100076972712D6979
:103A30003263043F3E60604E70474C3900005E4880
:103A400000688746683A00008100086972712D7528
:103A500061727400043F3E60584E70474C3900005C
:103A6000564800688746C0460C400000FFFF182DEE
:103A70002D2D20466C6173682044696374696F6EF4
:103A8000617279202D2D2D00FDF7F7FD4C488546FC
:103A90004C4F2A264C484D4901604D484D49016024
:103AA000043F3E604B4E4C4DB1884C4B994224D064
:103AB0004B4B0B400AD0B01DFFF710F8FEF761FB2F
:103AC0000388408800040343ED1A16E080230B406E
:103AD00013D00F23194089006D1AB01DFEF7FEFFA9
:103AE000FEF74FFB043F3E600600043F3E602E00A1
:103AF000043F3E600E00FDF789F9FEF7CCFF300071
:103B000040CFD1D03748066040CF374805603748AE
:103B10003749324A884204D0023803889342F9D0A8
:103B2000023034490860FDF7F3FBFEF70DF8474D0E
:103B30006563726973702D5374656C6C617269731F
:103B400020322E322E302077697468204D30206369
:103B50006F726520666F72204C50433131313546AB
:103B600042443438206279204D617474686961730D
:103B7000204B6F63680A204800210160043F3E60CB
:103B80001E4E043F3E600426FEF7B8FF40CF002ED5
:103B900002D0FEF77CFB7CE640CF67E6696E697475
:103BA0000CED00E00400FA05AC1F0010A81F001087
:103BB000A41F0010A01F00109C1F0010981F0010D1
:103BC000300400103003001000000010D406001074
:103BD0000400001000030000E01F0010FFFF0000C1
:103BE000000100001C000010240000100000010073
:103BF0000040000018000010080000109C3B00006E
:00000001FF
