:020000040800F2
:10000000300400202B3A00006B3800006B380000F1
:100010006B3800006B3800006B38000000000000F7
:1000200000000000000000000000000099380000FF
:1000300099380000000000009938000043380000A3
:10004000993800009938000099380000993800006C
:100050009938000099380000C1380000E9380000E4
:100060001139000039390000613900009938000069
:10007000993800009938000099380000993800003C
:10008000993800009938000087390000993800003D
:10009000993800009938000099380000993800001C
:1000A000993800009938000099380000993800000C
:1000B000AF390000D7390000FF390000993800003F
:1000C00099380000993800009938000099380000EC
:1000D00099380000993800009938000099380000DC
:1000E00099380000993800009938000099380000CC
:1000F00099380000993800009938000099380000BC
:1001000099380000993800009938000099380000AB
:10011000993800009938000099380000993800009B
:10012000993800009938000099380000993800008B
:10013000993800009938000099380000993800007B
:10014000993800009938000099380000993800006B
:10015000993800009938000099380000993800005B
:10016000993800009938000099380000993800004B
:10017000993800009938000099380000993800003B
:100180009938000099380000AE010000FFFF1E2DD5
:100190002D2D204D6563726973702D5374656C6CE1
:1001A0006172697320436F7265202D2D2D00C60189
:1001B00000004200043264757000386847F8046D2E
:1001C000043F38607047D801000062000532647255
:1001D0006F70043740CF7047F601000044000532CD
:1001E0007377617007CF043F386047F8046D043FB0
:1001F0003A600E0070470A020000620004326E6925
:10020000700007CF043F38607047240200004400AC
:1002100005326F766572B86847F8046D043F386040
:10022000FE68704748020000440005327475636B35
:1002300007CF043F386047F8046D043F3A60043F3D
:100240003960043F386070476A020000460004329B
:10025000726F74003868B9683A69B86039613A6099
:1002600079687E60FE68F96070478C020000460085
:1002700005322D726F743868B9683A69386139602F
:10028000BA60F968FE607E6879607047A00200007D
:10029000200003323E7201CF01B440B440CF70471A
:1002A000B802000020000332723E47F8046D40BCE3
:1002B00001BC043F38607047D002000020000332C8
:1002C000724047F8046D019E47F8046D009E704728
:1002D000E2020000200006327264726F700002B009
:1002E0007047FA02000042000364322F3868F107B9
:1002F000761040080843386070470E030000620023
:100300000364322A38680018764138607047280341
:10031000000042000464736872003868F1077608D0
:1003200040080843386070473E03000062000464E0
:1003300073686C0038680018764138607047500365
:1003400000004200046461627300002E07D470470D
:100350006E030000420007646E656761746538686B
:100360000021C043F64301304E4138607047860398
:100370000000640002642D0007CF121AB1410E0084
:10038000043F3A6070479C030000640002642B0045
:1003900007CF12184E41043F3A607047AE03000089
:1003A000610003733E6447F8046DF6177047C2039B
:1003B0000000620003756D2A3868A0FB06063860ED
:1003C0007047D60300006200026D2A00386880FB87
:1003D0000606386070471404000044000375642A60
:1003E00007CF564341437618010C130C5943761836
:1003F000010C80B292B25143434350430022C918CA
:1004000052411204B6180A04090C80184E41043FE8
:1004100038607047A604000044000475646D2A002B
:1004200010B5002447F8046D7E6847F8046D3E69F6
:10043000FFF7C2FF310040CF300040CF47F8046DD6
:100440003E6847F8046DFE6803B4FFF7B5FF03BCD0
:10045000330040CF320040CF47F8046D3E6847F884
:10046000046D3E690FB4FFF7A7FF0FBC92196341FB
:1004700040CF89196241634140CF47F8046D7E68DF
:1004800047F8046DFE680FB4FFF796FF0FBC921992
:10049000634140CF89196241634140CF1E003A60F9
:1004A0007960B86010BDC80400004300022A2F0024
:1004B00000B540B440CFFFF789FF47F8046D40BC5A
:1004C00000F04CF8043700BDEA0400004300052AA0
:1004D0002F6D6F6400B540B440CFFFF777FF47F84A
:1004E000046D40BC00F03AF800BD0C05000043006C
:1004F00003752A2F00B540B440CFFFF75DFF47F8E2
:10050000046D40BC00F01BF8043700BD300500004E
:10051000430006752A2F6D6F640000B540B440CFCC
:10052000FFF74AFF47F8046D40BC00F008F800BD33
:1005300050050000430006756D2F6D6F640000B517
:1005400047F8046D002600F019F840CF043700BDCD
:100550006E0500004300056D2F6D6F6400B547F810
:10056000046DF61700F032F840CF043700BDC00527
:10057000000044000675642F6D6F640030B40023E2
:1005800000227968B86835003C684026400049413F
:1005900052415B41AB4202D804D3A24202D3121BA8
:1005A000AB410130013EF1D10E0038607B60BA6092
:1005B00030BC704730B400237A68B9680020E2E7A5
:1005C00036060000440005642F6D6F6400B5F01717
:1005D00019D0FFF7C4FEFFF705FEF0170CD0FFF7A8
:1005E000BEFEFFF7FFFDFFF7C9FFFFF7FBFDFFF7BB
:1005F000B6FEFFF7F7FD00BDFFF7F4FDFFF7BEFF06
:10060000FFF7ADFE00BDFFF7EDFDF0170ED0FFF7D1
:10061000A6FEFFF7E7FDFFF7B1FFFFF7A0FEFFF72C
:10062000E1FDFFF79CFEFFF7DDFD00BDFFF7DAFD02
:10063000FFF7A4FF00BD4C060000440002642F0039
:1006400000B5FFF7C3FFFFF7DCFD00BD9406000017
:10065000440002662A0000B5F0170DD0FFF77FFEB8
:10066000FFF7C0FDF0170DD0FFF779FEFFF7D8FEBA
:1006700040CF01CF386000BDFFF7B4FDF017F5D0D3
:10068000FFF76DFEFFF7CCFE40CF01CF3860FFF7DC
:1006900066FE00BDE0060000440002662F0000B5C3
:1006A000F0170ED0FFF75BFEFFF79CFDF0170ED0A2
:1006B000FFF755FEFFF796FDFFF77CFFFFF7A1FD63
:1006C00000BDFFF78FFDF017F4D0FFF748FEFFF7EE
:1006D00089FDFFF76FFFFFF742FEFFF792FD00BDB8
:1006E000F406000020000232210006CF3160726063
:1006F00040CF704708070000200002324000043F4E
:10070000706838603668704728070000440003644A
:10071000753C07CF8E4204D801D1904201D8002603
:1007200070470026F6437047480700004400036402
:10073000753E07CFB14204D801D1824201D80026CC
:1007400070470026F64370476807000044000264C3
:100750003C0007CF8E4204DC01D1904201DC002630
:1007600070470026F6437047880700004400026483
:100770003E0007CFB14204DC01D1824201DC0026F9
:1007800070470026F6437047980700006200036434
:10079000303C0437F6177047AC0700006200036472
:1007A000303D01CF0643013EB6417047C607000009
:1007B000440003643C3E07CF50404E400643013E98
:1007C000B641F6437047DE070000440002643D0076
:1007D00007CF50404E400643013EB6417047F007F8
:1007E000000020000373704047F8046D3E0070471E
:1007F00000080000200003737021370040CF7047CD
:100800001208000020000372704047F8046D6E4625
:10081000704722080000200003727021B54640CFC7
:1008200070473208000061000364757047F8046D7A
:1008300070474208000061000464726F700040CF8E
:100840007047580800006100043F64757000002E76
:1008500001D047F8046D70476C0800006200047313
:100860007761700039683E600E0070477A080000BA
:100870006200036E6970043770478E0800006200E2
:10088000046F7665720047F8046D7E687047A408AF
:1008900000006200047475636B0001CF083F7E6046
:1008A00038607047BA080000630003726F7403CFAA
:1008B000083F78603E600E007047D2080000630079
:1008C000042D726F740003CF083F7E60396006000C
:1008D0007047E40800002000047069636B0057F85B
:1008E00026607047FC0800000000056465707468AD
:1008F000BC49C91B47F8046D8E08704718090000F1
:100900000000067264657074680047F8046D6E46F6
:10091000B549891B8E087047280900002000023E57
:10092000720040B440CF70473A09000020000272C4
:100930003E0047F8046D40BC70474C0900002000A1
:100940000272400047F8046D009E70475C09000089
:100950002000057264726F7001B07047700900006A
:10096000200005727069636BB6006E44366870478C
:10097000860900006E0003616E6401CF0640704777
:100980000640000616F09E0900006E0003626963CF
:1009900001CFB043060070478643000636F0B40925
:1009A00000006E00026F720001CF064370470643DD
:1009B000000656F0CA0900006E0003786F7201CF7E
:1009C000464070474640000696F0D8090000610096
:1009D000036E6F74F6437047E8090000610003631B
:1009E0006C7AB6FA86F67047F60900006100037368
:1009F000687276087047040A000061000373686C2F
:100A000076007047140A0000610003726F725FEA9B
:100A100076067047260A0000610003726F6CB619F3
:100A200056F100067047400A00006C0006727368B9
:100A30006966740001CFF040060070473608002652
:100A40005A0A00006C00076172736869667401CF0E
:100A50003041060070473610F617740A00006C002B
:100A6000066C73686966740001CFB0400600704779
:100A700036000026840A0000610002303D00013E7D
:100A8000B6417047960A0000610003303C3E013ECB
:100A9000B641F6437047A40A0000610002303C00F2
:100AA000F6177047BA0A000060000474727565009A
:100AB00047F8046D0026F6437047CE0A0000600038
:100AC0000566616C736547F8046D00267047E20A9D
:100AD00000004200023E3D0001CFB042EADA0026AB
:100AE0007047F60A00004200023C3D0001CFB042D0
:100AF000E0DD00267047080B00004200013C01CFFA
:100B0000B042D7DB002670471A0B00004200013EBE
:100B100001CFB042CEDC002670472E0B00006200F1
:100B200003753E3D01CF861BB641F6437047420B2D
:100B30000000620003753C3D01CF361AB641F64312
:100B40007047540B0000620002753C0001CF861B09
:100B5000B6417047660B0000620002753E0001CF8F
:100B6000361AB64170477C0B00006B00023C3E0019
:100B700001CF361A013EB641F64370478E0B000096
:100B80006B00013D01CF361A013EB6417047A20B02
:100B900000006200036D696E01CFB04200DC060008
:100BA0007047B60B00006200036D617801CFB04260
:100BB00000DB06007047CC0B0000620004756D611D
:100BC000780001CFB04200D306007047EC0B000064
:100BD000620004756D696E0001CFB04200D8060056
:100BE0007047000030030020300400202A0C000071
:100BF0000000046D6F76650007B5310040CF32000C
:100C000040CF00290FD0B2420DD006D3013E013AA9
:100C1000705C50540139FBD105E03078107001361A
:100C200001320139F9D140CF07BD4C0C0000000062
:100C30000466696C6C00300040CF310040CF002961
:100C400002D001397054FCD140CF7047580C0000DD
:100C50002000014036687047700C00006D000121D3
:100C600003CF30600E007047066070470160704728
:100C7000960C00006D00022B210003CF3268121881
:100C800032600E0070470268921902607047026875
:100C9000521802607047A40C000020000268400057
:100CA00036887047BE0C00006D000268210003CF3B
:100CB00030800E0070470680704701807047E40C5A
:100CC00000006D0003682B2103CF32881218328098
:100CD0000E007047028892190280704702885218ED
:100CE00002807047F20C000020000263400036785A
:100CF00070470C0D00006D000263210003CF3070BF
:100D00000E0070470670704701707047320D00008A
:100D10006D0003632B2103CF3278121832700E005E
:100D20007047027892190270704702785218027068
:100D300070475A0D00006D0004626973210003CFF3
:100D40003268024332600E0070470268324302602C
:100D5000704702680A4302607047820D00006D0010
:100D600004626963210003CF3268824332600E005F
:100D700070470268B2430260704702688A430260AB
:100D80007047AA0D00006D0004786F72210003CF38
:100D90003268424032600E00704702687240026062
:100DA000704702684A4002607047120E00006800F7
:100DB00004626974400001CF3668064018BF4FF0E6
:100DC000FF3670479A4A00B5012B0AD147F8046DE7
:100DD000002600F0ADFF47F8046D160001F000FB9F
:100DE00011E002CF013B02F066FC47F8046D3626A5
:100DF000164301F0F5FA47F8046D0E0047F8046D4C
:100E0000002600F095FF47F8046D8A4E01F0E2F8E5
:100E100000BD3A0E00006D0005686269732103CFC2
:100E20003288024332800E007047028832430280CB
:100E3000704702880A4302807047620E00006D000E
:100E400005686269632103CF3288824332800E00D5
:100E500070470288B2430280704702888A4302804A
:100E600070478A0E00006D000568786F722103CF0D
:100E70003288424032800E00704702887240028001
:100E8000704702884A4002807047A80E0000680040
:100E900005686269744001CF3688064018BF4FF07C
:100EA000FF367047644A8EE7D00E00006D00056380
:100EB0006269732103CF3278024332700E007047AB
:100EC000027832430270704702780A43027070471A
:100ED000F80E00006D0005636269632103CF32786C
:100EE000824332700E0070470278B243027070473E
:100EF00002788A4302707047200F00006D0005637E
:100F0000786F722103CF3278424032700E00704702
:100F1000027872400270704702784A40027070474F
:100F20003E0F0000680005636269744001CF3678A7
:100F3000064018BF4FF0FF367047404A43E74E0F58
:100F4000000061000563656C6C2B04367047860FEA
:100F5000000061000563656C6C73B600704700F0BB
:100F6000EEFC1E466C6173682063616E6E6F7420C8
:100F70006265207772697474656E20747769636541
:100F80000A0002F0BFBB681000000000083136669E
:100F90006C61736821003FB50F20304015D000F020
:100FA000CEFC223136666C61736821206E65656403
:100FB000732031362D616C69676E656420616464ED
:100FC000726573730A0002F09DBB306801307FF4D4
:100FD000C6AF706801307FF4C2AFB06801307FF4F3
:100FE000BEAFF06801307FF4BAAF154AB618154AA3
:100FF000154B1360154B1360154A0123136008CF7E
:1010000004CF02CF01CF01C602C600F025F804C606
:1010100008C600F021F80E4A10880121884310808C
:101020000B4A10680B490843106040CF3FBD0000D9
:1010300000680000BA0D0000008800000078000081
:10104000000000080820024023016745AB89EFCD6E
:10105000142002400000008003B41F4908880121C9
:101060000840FAD103BC70470811000000000E666A
:101070006C617368706167656572617365000FB557
:10108000300040CF154B984225D3154A154B1360BD
:10109000154B1360154A022313600821C840144AF7
:1010A000104002210843114A10800120114A10808B
:1010B000094A138801201840FBD10F4A802313707E
:1010C0000E4A116802B40E48814311600D48014375
:1010D000116002BC11600FBD1220024000400000F0
:1010E0000820024023016745AB89EFCD1420024060
:1010F000F80F000016200240172002400020024096
:1011000000060000001800008611000000000A65BB
:1011100072617365666C61736800224872B6224919
:10112000224A038893421CD047F8046D060047F812
:10113000046D00F004FC10457261736520626C6FF1
:10114000636B20617420200000F06CFC00F0F7FB62
:101150000C2066726F6D20466C6173680A00FFF7A1
:101160008EFF134B02308842DBD100F0E8FB1246C1
:10117000696E69736865642E2052657365742021F9
:101180000A0002F04CFBB411000000000E65726111
:101190007365666C61736866726F6D00300040CF76
:1011A000BCE700000040000000001000FFFF00004E
:1011B00000080000D4110000000009696E6974661F
:1011C0006C61736853485449002202700130013940
:1011D000FBD17047BA12000000000768666C6173AB
:1011E000682130B5320040CF500813D300F0A7FB80
:1011F0001E68666C61736821206E65656473206586
:1012000076656E206164647265737365732E0A007F
:1012100002F078BA414B9A4210D200F090FB194389
:10122000616E6E6F7420777269746520696E746F79
:1012300020636F726520210A02F064BA13093548F1
:101240002021046824099C4226D014300139F8D1A9
:10125000304820210468002C17D014300139F9D10E
:1012600000F06DFB21546F6F206D616E7920736308
:101270006174746572656420466C6173682077726E
:10128000697465732E0A02F03DBA1B0103600139CF
:1012900041608160C16001610F21114004314652FB
:1012A00040CF0168013101600F221140082903D1AC
:1012B00000F01AF8FFF76FFE30BD201300000000A9
:1012C0000A666C757368666C6173680000B51148D6
:1012D00020210268002A03D000F006F8FFF75BFE29
:1012E00014300139F5D100BD47F8046D466847F860
:1012F000046D866847F8046DC66847F8046D066992
:1013000047F8046D0F26F64302681640002202607B
:101310007047000030040020800200000040000000
:10132000361300006900012B01CF361870473618BC
:101330000036000616F14C1300006900012D01CFA4
:10134000861B7047361A003E0006B6F15A1300009D
:10135000610002312D00013E7047681300006100FA
:1013600002312B0001367047761300006100023213
:101370002D00023E704784130000610002322B00F2
:1013800002367047961300006100066E656761744F
:10139000650076427047A813000061000361627324
:1013A000F017361846407047C61300004200057516
:1013B0002F6D6F6401CF3100B0FBF6F67143401A18
:1013C000043F38607047E41300004200042F6D6F43
:1013D000640001CF310090FBF6F67143401A043FE0
:1013E00038607047F81300004200036D6F6400B569
:1013F000FFF7EFFF40CF00BD081400006200012F8F
:1014000001CF90FBF6F67047181400006A00012A1D
:1014100001CF464370474643261400006100023264
:101420002A007600704734140000610002322F0059
:1014300076107047481400006100046576656E0000
:1014400001203040361870476014000081000462AB
:101450006173650047F8046D834E70470A00000011
:101460007614000000000662696E617279007E48A1
:101470000221016070478C1400000000076465635E
:10148000696D616C78480A2101607047CA140000D8
:101490000000036865787448102101607047734943
:1014A0007348086073497448086074497448086058
:1014B0007449754808607549232008607449754867
:1014C00008607549754808607047E614000081009F
:1014D00009686F6F6B2D656D697447F8046D704E08
:1014E0007047D015000002150000810008686F6F7A
:1014F0006B2D6B65790047F8046D6A4E7047F615E1
:1015000000002015000081000A686F6F6B2D656D6B
:1015100069743F0047F8046D634E70472016000061
:101520003C150000810009686F6F6B2D6B65793F7A
:1015300047F8046D5D4E70474C1600005A150000C8
:1015400081000A686F6F6B2D70617573650047F8D5
:10155000046D574E7047CE37000070150000000034
:1015600004656D6974000FB54D4800F026F80FBD95
:10157000841500000000036B65790FB5494800F041
:101580001CF80FBD96150000000005656D69743FDD
:10159000454800688746A81500000000046B65797F
:1015A0003F00424800688746BE15000000000570F5
:1015B000617573653E480068874600688746E41594
:1015C000000000000B73657269616C2D656D6974B4
:1015D00000B500F025F8002E40CFFAD0354A16703D
:1015E00040CF00BD0C16000000000A7365726961EF
:1015F0006C2D6B65790000B500F028F8002E40CF07
:10160000FAD047F8046D2C4A167800BD3A1600004F
:1016100000000C73657269616C2D656D69743F0023
:1016200000B5FFF7C7FF47F8046D0026234801689F
:101630008020014000D0F64300BDC016000000002D
:101640000B73657269616C2D6B65793F00B5FFF7AF
:10165000B1FF47F8046D00261848016820200140BA
:1016600000D0F64300BD0000FC7F01204C1002407A
:10167000FF0000005810024000000200000C00486B
:10168000FFEBFFFF200C0048000070070C440040F7
:101690000844004000100000004400400D0000001D
:1016A000F87F0120F47F0120F07F0120EC7F0120F2
:1016B000E87F012028440040244400401C440040AE
:1016C000E41600000000076365787065637400B578
:1016D000386801B40130386000F00BF801BC0670C6
:1016E00040CF00BD5A1700000000066163636570BB
:1016F000740000B502CF01390022FFF73EFF300031
:1017000040CF7F2809D0202819D2092816D00A28CE
:101710001FD00D281DD00828EFD1002AEDD000F0F1
:101720000EF903082008002AE7D0885C013A8023DC
:101730000340E2D040230340F5D0DEE72020B24250
:10174000DBD247F8046D0600FFF70DFF0132885425
:10175000D3E7160000F0A2F800BD6C1700004000AF
:101760000374696247F8046D294E704782170000C0
:101770008100033E696E47F8046D264E70470000F5
:101780000000A817000082000E63757272656E7407
:101790002D736F757263650047F8046D1E4E7047B8
:1017A0000000000068000020C4170000000009735A
:1017B0006574736F75726365174802CF0660416088
:1017C00040CF7047E2170000000006736F75726328
:1017D000650047F8046D104E043F70683860366845
:1017E00070471C18000000000571756572790FB50F
:1017F000084800210160FFF7B5FF47F8046D47F87E
:10180000046DC826FFF775FFFFF7D6FF0FBD000078
:1018100068000020E47F0120DC7F01206A180000BE
:10182000000007636F6D706172650FB5310040CFC6
:1018300001CF884202D040CF00260FBD02CF002842
:1018400010D001380A5C335C412A02D35B2A38BFCE
:101850002032412B02D35B2B38BF20339A42EED08B
:1018600000260FBD0026F6430FBD7E1800000000C5
:101870000263720000B500F062F8010A00BD901822
:101880000000000002626C0047F8046D20267047DB
:10189000A4180000000005737061636547F8046DCB
:1018A000202660E6C41800000000067370616365BE
:1018B000730000B5002E03DDFFF7F0FF013EFBD102
:1018C00040CF00BDD41800005000065B6368617211
:1018D0005D0005E0EC180000000004636861720020
:1018E00000B501F087FB40CF367800BDFC18000042
:1018F0005000012847F8046D292606E0161900005B
:101900005000015C47F8046D002600B501F07CFB37
:10191000043740CF00BD5A1900001000022E2200EB
:101920009B4800B547F8046D060000F05EFA47F8E2
:10193000046D222601F068FB00F08AFD00BD0AB4A8
:1019400047F8046D7646013E337801210133194092
:101950005B181EEB030E0ABC39E080190000100072
:10196000026322008B48DCE747F8046D7646013EAF
:1019700033780121013319405B181EEB030E7047C9
:10198000AA1900001000027322008348C9E747F833
:10199000046D764647F8046D013E36780121731CCC
:1019A00019405B181EEB030E7047C21900000000BF
:1019B00005636F756E74013647F8046D013E367825
:1019C0007047EA190000000005637479706501B57D
:1019D0003078002807D0013647F8046D3678FFF7D5
:1019E000C2FD0138F7D140CF01BD181A0000000038
:1019F000047479706500310040CF300040CF00B5ED
:101A0000002908D0002247F8046D865CFFF7ABFD83
:101A100001329142F7D100BD521A00000000046863
:101A200065782E0007B5310040CF20200F22043802
:101A300047F8046D0E00C6401640092E01D937360E
:101A400000E03036FFF78FFD0028F0D1FFF726FFCA
:101A500007BD621A0000000003682E731FB54F4CCB
:101A60000EE0721A0000000003752E731FB54C4C77
:101A700006E0F01A00000000022E73001FB5494C6A
:101A80004949C91B8908494A106803B40A201060F3
:101A9000FFF755FF08537461636B3A205B0047F80A
:101AA000046D0E0001F08BFCFFF749FF025D200082
:101AB00003BC3E4A106000290AD03D4A106806B4B3
:101AC00047F8046D0600A04706BC043A0139F5D179
:101AD000FFF735FF0620544F533A200047F8046DB6
:101AE0003600A047FFF72BFF04202A3E0A001FBD47
:101AF000B41B0000000005776F72647300B5FFF738
:101B00001EFF010A00F0E9FEFFF719FF09416464B6
:101B1000726573733A2047F8046DFFF783FFFFF790
:101B20000EFF064C696E6B3A200047F8046D36686C
:101B3000FFF778FFFFF703FF07466C6167733A20F2
:101B400047F8046DB688FFF76DFFFFF7F8FE064310
:101B50006F64653A2000B01D00F0F8FE47F8046D90
:101B60000600FFF75FFFFFF7EAFE064E616D653A7C
:101B7000200047F8046D0636FFF729FFFFF7DFFE68
:101B8000010A00F0C1FE300040CFBDD040CF00BD03
:101B90003E190000681900008E190000251A000087
:101BA000AF330000BF33000030030020FC7F012072
:101BB0002C030020181D000000000D3132626974F2
:101BC000656E636F64696E670FB5FF2E04D847F8C2
:101BD000046D5FF0FF360FBD16F0FF10B0420ED15E
:101BE0004FF6FF710840310C814208D116F0FF0614
:101BF00056F4805647F8046D5FF0FF360FBD16F0BF
:101C0000FF20B0420FD14FF6FF710840310C8142E6
:101C100009D1360A16F0FF0656F4005647F8046D4F
:101C20005FF0FF360FBDFF2231001140300A104037
:101C3000884210D1300C104088420CD1300E104038
:101C4000884208D116F0FF0656F4405647F8046D56
:101C50005FF0FF360FBD300000210131001850F158
:101C600000007FF07F020240802A05D01F29F4D3B4
:101C700047F8046D00260FBD0829F9D3060036F099
:101C8000800611F00100C001064311F00E00C002F1
:101C9000064311F010008005064347F8046D5FF01D
:101CA000FF360FBD47F8046DDFF87C665FF47041C6
:101CB00010EA0102120116435FF4006110EA01020A
:101CC000D20316435FF4E06110EA010212011643E9
:101CD000FF2110EA010216431E43A9E347F8046DF1
:101CE000DFF848665FF0704110EA0102120B1643FC
:101CF0005FF0006110EA0102520816435FF0E061F4
:101D000010EA0102120B16435FF47F0110EA010290
:101D1000120C16431E438BE37E1D00000000107260
:101D2000656769737465726C69746572616C2C00A7
:101D30000FB5330040CF1B02FF2E05D856F40056D6
:101D40001E4300F04DFB0FBDFFF73EFF002E40CFBE
:101D500006D0DFF8DC0506431E4300F069FB0FBD2B
:101D6000F643FFF731FF002E40CF06D0DFF8C40561
:101D700006431E4300F05CFB0FBDF6430BE0DE1D87
:101D800000000000096D6F76776D6F76742C0FB5CB
:101D9000330040CF1B02300040CFFFF783FF4FF6E8
:101DA000FF7110EA014001D0FFF798FF0FBD0FB59A
:101DB0000136300040CF0023FFF774FFFFF78EFF9E
:101DC00006E00FB5013647F8046D0026FFF7B0FFB7
:101DD00047F8046D44F2807600F002FB0FBD441E0C
:101DE000000000000563616C6C2C0FB5330000F03F
:101DF00045FE300040CF1B1A043BDFF83C1519406C
:101E0000002906D0DFF83425914202D0BDE80F400A
:101E1000D7E740CF5B08DFF8280540F2FF71194093
:101E20000843DB0A40F2FF311940090408439B0ACA
:101E300013F001018906084347F8046D060000F01D
:101E4000F7FA0FBD7A1E00000000086C6974657215
:101E5000616C2C0008B547F8046D4FF6470600F09A
:101E6000BFFA47F8046D46F6045600F0B9FA47F891
:101E7000046D0626FFF75CFF08BD9E1E00000000F3
:101E8000066372656174650000B500F03DF841F6C7
:101E9000BB60804747F8046DBEF1010600BDFA1E25
:101EA0000000200005646F65733E41F6BB6080470B
:101EB00047F8046DBEF10106704747F8046DBEF1A6
:101EC0000106DFF880241368DFF87C140968DFF866
:101ED0007404834205D20F200840062805D0023141
:101EE000F9E70220084000D0023102311160FFF70B
:101EF0005EFF136000F0CBF900BD641F000000001E
:101F0000073C6275696C647300B500F06BFBDFF829
:101F100034040168DFF82C2491420CD200F0AEFDAD
:101F20000F200640062E40CF10D047F8046D36260D
:101F300000F056FAF2E700F0A1FD0220064040CF83
:101F400004D047F8046D362600F04AFA47F8046DCD
:101F50004BF2005600F044FA47F8046D0A2600F0F0
:101F6000AAFA00BD701F00005000035B275D03E06C
:101F7000881F00000000012700B501F03BF800F0C9
:101F800023FD300040CF00BDC61F000030000870A8
:101F90006F7374706F6E650000B5FFF7EDFF102171
:101FA00001400DD12021014005D0FFF753FF47F834
:101FB000046DE64E04E0FFF74DFF47F8046DE44E74
:101FC000FFF713FF00BD1C200000000007696E6CC6
:101FD000696E652C00B54BF200514BF6005244F28D
:101FE00070733088884208D0904208D0984206D05A
:101FF00047F8046D060000F0F3F90236F1E740CF30
:1020000000BD0EB44BF6005244F2707301880230EA
:10201000914201D09942F9D10EBC704732200000A4
:102020000000047265742C0047F8046D4BF60056EE
:10203000D6E1402000003000046578697400F3E7C1
:10204000582000003000077265637572736547F8A9
:10205000046DBD4E3668C8E670200000810005732F
:102060007461746547F8046DBA4E70470000000053
:10207000822000000000015DB6480021C9430160D4
:102080007047922000001000015BB24800210160FF
:102090007047BA2000000000013A00B5AE48076062
:1020A00000F0A0FA47F8046D4BF2005600F098F9E2
:1020B000A8480021C943016000BD02210000300092
:1020C000013B00B5A4480168B9420ED0FFF737FCC8
:1020D0001520537461636B206E6F742062616C61B4
:1020E0006E6365642E0A01F00DBB47F8046D4BF674
:1020F000005600F075F900F0CAF89648002101601A
:1021000000BD1621000000000765786563757465E1
:10211000300040CF87462E210000100009696D6D08
:1021200065646961746547F8046D1026E2E0442136
:102130000000500006696E6C696E650047F8046D1A
:102140002026D7E05E21000010000B636F6D7069E0
:102150006C656F6E6C7947F8046D3026CAE07821A3
:10216000000050000A302D666F6C6461626C65007F
:1021700047F8046D4026BDE09221000050000A316E
:102180002D666F6C6461626C650047F8046D4126D2
:10219000B0E0AC21000050000A322D666F6C646123
:1021A000626C650047F8046D4226A3E0C62100007A
:1021B00050000A332D666F6C6461626C650047F8ED
:1021C000046D432696E0E021000050000A342D669D
:1021D0006F6C6461626C650047F8046D442689E0A9
:1021E000FA21000050000A352D666F6C6461626C44
:1021F000650047F8046D45267CE01422000050007D
:102200000A362D666F6C6461626C650047F8046D78
:1022100046266FE02E22000050000A372D666F6CB4
:102220006461626C650047F8046D472662E05E22D7
:102230000000000008636F6E7374616E740000B577
:1022400000F0D0F9FFF706FE47F8046D44F270760F
:1022500000F0C6F8FFF78CFF00F019F800BD8022EF
:10226000000000000932636F6E7374616E7400B514
:1022700000F0B8F939683E600E46FFF7EBFDE1E784
:10228000E4220000000006736D756467650000B508
:102290002C4801682B4A91421ED202390A882F4BE2
:1022A0009A4204D147F8046D2D4E00F099F800F0E1
:1022B00071F800F083F82B48006847F8046D0600B9
:1022C0002949096804311F4A1368116000F088F831
:1022D0001360FEF7FBFF00BD00F05CF847F8046DEB
:1022E000002608E06C230000000008736574666C2B
:1022F0006167730000B513480168124A914205D224
:10230000184801683143016040CF00BD320040CF22
:102310001548006804300188104B994201D1110022
:1023200000E01143018000BD000040F20000C0F257
:1023300000005FF000007FF00100C0FF0000C0FF60
:1023400000F800F00000002014000020D41F00005E
:10235000EA1D0000D87F012010000020FFFF0000D0
:10236000000000002000002004000020882300005E
:10237000410007616C69676E656401203040361862
:102380000220304036187047AC2300000000056181
:102390006C69676E00B5894801680220014004D06D
:1023A00047F8046D002600F01BF800BDD62300009E
:1023B000000008616C69676E31362C0000B57F48FB
:1023C00001680F20014005D047F8046D002600F099
:1023D00007F8F4E700BD0C240000000002682C00A0
:1023E0000FB5B6B275480168744A914205D247F8F4
:1023F000046D0E00FEF7F5FE02E0320040CF0A80C9
:1024000047F8046D022600F056F80FBD26240000A0
:102410000000012C00B547F8046DFFF7E1FF360C12
:10242000FFF7DEFF00BD422400000000033E3C2C0D
:1024300000B547F8046D360CFFF7D2FFFFF7D0FF69
:1024400000BDAA240000000007737472696E672C37
:1024500007B5FF21314040CF300040CF002905D1E2
:1024600047F8046D0026FFF7BBFF07BD47F8046D72
:10247000067836020E43FFF7B3FF01300139022917
:102480000AD347F8046D4678360202781643FFF700
:10249000A7FF02300239F2E7002900D107BD47F853
:1024A000046D0678FFF79CFF07BD042500000000BF
:1024B00005616C6C6F7441480168404A91420FD2CB
:1024C000320040CF89183E4A914219D3FFF737FABC
:1024D0000B466C6173682066756C6C0A01F012B96A
:1024E000320040CF8918374A1268914208D3FFF76B
:1024F00026FA0952616D2066756C6C0A01F002B90A
:10250000016070472C25000000000D636F6D70693D
:102510006C65746F72616D3F47F8046D0026274843
:1025200000682649884248D3F64370474C2500008E
:1025300000000C636F6D70696C65746F72616D0083
:102540001E4800681D49884211D37047D4250000F9
:1025500000000E636F6D70696C65746F666C6173FB
:102560006800164800681549884200D2704716482E
:10257000164902680B680A60036010481449026833
:102580000B680A6003600F480068834215D300B5EA
:10259000FFF7D5F923205661726961626C6573207B
:1025A000636F6C6C69646520776974682064696323
:1025B00074696F6E6172790A00BD70470000002077
:1025C0000000100024000020040000201C00002057
:1025D00018000020D0260000000008286372656102
:1025E0007465290000B500F005FD002E0ED1FFF73F
:1025F000A6F91520437265617465206E6565647384
:10260000206E616D6520210A01F07CB8386847F8BA
:10261000046D043F386000F0A8F940CF002E40CF91
:1026200011D0386847F8046D043F3860FFF787F928
:10263000095265646566696E6520FFF7DCF9FFF78E
:102640007EF9022E0A00FFF7A5FE94480068934920
:10265000884225D2924800210160FFF7AFFE47F87B
:10266000046D0C26FFF727FF00F008FA47F8046D09
:102670000626FFF720FFFEF726F9FFF7E9FE894857
:1026800001680A68884B9A4207D1844A136811602E
:1026900047F8046DFFF7BEFE1360066040CF12E0FE
:1026A00000F0ECF97F4847F8046D0668FFF7B2FECA
:1026B00047F8046D7D4EFFF793FE7A48310040CF16
:1026C0000160FFF7C5FE754801687948016000BDEB
:1026D000E82600000000087661726961626C65009E
:1026E00047F8046D012613E00027000000000932BE
:1026F0007661726961626C6547F8046D022607E0D5
:10270000DA2700000000096E7661726961626C650B
:1027100000B5FFF767FF61480168604A914234D213
:102720000F200640B20063480168891A624A91424C
:102730000BD2FFF704F90F4E6F7420656E6F75674B
:10274000682052414D0A00F0DDBF016047F8046D7A
:102750000E00FFF77FFB47F8046D44F27076FFF739
:102760003FFE300040CF0200002805D00E6004314B
:10277000FFF750FE0138F9D147F8046D8026164363
:10278000FFF7B8FDFFF783FD00BD00F077F90220E9
:10279000064040CF04D147F8046D3626FFF720FEEF
:1027A00047F8046D454EFFF743FE47F8046D444E6D
:1027B000FFF73EFE47F8046D44F27076FFF710FE17
:1027C000300040CF002803D0FFF724FE0138FBD1B2
:1027D000FFF7CEFCFFF75BFD00BDC4280000000042
:1027E000076275666665723A00B5FFF7FBFE012069
:1027F0003040361802203040361828480168274AF1
:10280000914228D22B480168891B2B4A91420BD256
:10281000FFF795F80F4E6F7420656E6F756768202F
:1028200052414D0A00F06EBF016047F8046D0E0082
:10283000FFF710FB47F8046D44F27076FFF7D0FD08
:10284000FFF7E8FD47F8046D40F24016FFF752FD30
:10285000FFF71DFD00BD00F011F90220064040CF3A
:1028600004D147F8046D3626FFF7BAFD47F8046D2A
:10287000124EFFF7DDFD47F8046D114EFFF7D8FD4E
:1028800047F8046D44F27076FFF7AAFDFFF713FED8
:10289000FFF76EFCFFF7FBFC00BD0000000000200E
:1028A0002000002004000020FFFFFFFFFFFF0000CA
:1028B0001400002024000020D40600203E60043FC5
:1028C00002367E46F228000000000F6469637469D6
:1028D0006F6E6172797374617274EA480068E949D5
:1028E00047F8046D884201D2E74E7047E74E3668DC
:1028F00070472C29000000000E64696374696F6ED4
:102900006172796E6578740003B53168E048814280
:1029100007D08879FF2804D00E0047F8046D002600
:1029200003BD47F8046D0026F64303BD5E29000091
:1029300000000A736B6970737472696E6700317896
:10294000013101220A4089187618704706B40178CF
:10295000013101220A408918401806BC7047DE295F
:10296000000000000466696E64003FB50022002389
:10297000350040CF340040CFFFF7AFFFC548B188E6
:10298000884217D047F8046D0636FFF714F847F869
:10299000046D260047F8046D2E00FEF746FF002E5A
:1029A00040CF07D0B01DFFF7D1FF02000B00B548A4
:1029B000824204D2FFF7A8FF300040CFDED01600DD
:1029C00047F8046D1E003FBD00B531003868FFF7C1
:1029D000CCFF3A68002A01D100F066FD00BD382A1C
:1029E0000000000006636A756D702C00320040CF55
:1029F000310040CF8B1B043BA749194000290DD063
:102A0000A64881420AD0FEF79AFF0D4A756D7020E4
:102A1000746F6F206661720A00F074BE5B10FF2154
:102A20000B40134330001E0000B5964A1368106037
:102A3000FFF7D6FC136000BD702A00000000056A95
:102A4000756D702C310040CF300040CF0B1A043B25
:102A500093491940002902D0924A9142D3D15B1088
:102A6000914A134053F4604347F8046D1E00DBE7BE
:102A7000862A0000000004686572650047F8046D4E
:102A8000804E36687047822B000000000D666C6136
:102A900073687661722D6865726547F8046D834EC0
:102AA0003668704700B547F8046D42F60066FFF7D8
:102AB00097FC47F8046D4CF64076FFF791FC00BD9B
:102AC000DCE700B500F03AF839683E600E4647F89A
:102AD000046D4DF20016FFF789FF00BD00B500F050
:102AE0002DF839683E600E4647F8046D4DF20076C9
:102AF000FFF77CFF00BD00B5FFF7D4FF00F01EF824
:102B000039683E600E4647F8046D4DF20006FFF747
:102B10006DFF00BD00B500F011F839683E600E464B
:102B2000FFF790FF00BD00B5FFF7BCFFFFF7A6FF62
:102B300047F8046D0226FFF7BEFC00BD00B5FFF7A5
:102B40009DFF47F8046D0226FFF7B5FC00BD00B5F8
:102B5000FFF794FFFFF776FF00BD00B5FFF78EFF8C
:102B600047F8046D4DF20006FFF740FF00BD00B5C9
:102B7000FFF784FF47F8046D4DF20016FFF736FFAC
:102B800000BDBE2B00003000047468656E00052E89
:102B900001D140CFDBE7022E01D140CFDDE7FEF7C8
:102BA000CEFE175374727563747572657320646F0B
:102BB0006E2774206D617463680A00F0A3BDE82B72
:102BC0000000300004656C73650000B5022EE6D18C
:102BD00040CFFFF7B3FF39683E600E46FFF7BDFFF9
:102BE00047F8046D052600BD002C00003000026986
:102BF000660000B5FFF797FF47F8046D022600BD99
:102C0000262C000030000672657065617400042E89
:102C1000C5D140CF39683E600E4600B5FFF77AFF58
:102C2000FFF79BFF00BD422C00003000057768696C
:102C30006C65012EB3D140CF00B5FFF7DAFF023645
:102C400000BD562C0000300005756E74696C012EB5
:102C5000A5D140CF4FE76A2C0000300005616761C5
:102C6000696E012E9BD140CF54E7B02C000030009C
:102C700005626567696E00B5FFF722FF47F8046DCE
:102C8000012600BD00000020880100000400002093
:102C9000FFFFFFFFFFFF000001FFFFFF00FFFFFF3F
:102CA00001F8FFFF00F8FFFFFF07000024000020ED
:102CB000C02C00002000016B47F8046D029E704795
:102CC000D02C00002000016A47F8046D009E704778
:102CD000E02C00002000016947F8046D26007047D1
:102CE0001E2D00003000056C6561766500B5D94881
:102CF00001683B00043F1A68043B1A6008338B42AA
:102D0000F9D103B4FFF71AFF03BC330040CF0439F5
:102D10000B60016004390A6801320A6000BD302D81
:102D20000000200006756E6C6F6F700030BC70473D
:102D3000682D00003000052B6C6F6F70032E00D0E3
:102D40002DE740CF00B547F8046DC34EFFF742F9B9
:102D5000FFF7C4FE1AE014F10044641BA41940CF2D
:102D60002C44A4F100447047AA2D00003000046CEC
:102D70006F6F7000032E00D011E740CF00B547F809
:102D8000046DB64EFFF726F9FFF79BFE00F018F929
:102D9000B048310040CF016047F8046DB04EFFF7F6
:102DA00019F900BD0134AC427047F22D00007800E3
:102DB00002646F0000B547F8046DAA4EFFF70AF9E8
:102DC000A448016847F8046D0E0047F8046D00261A
:102DD0000760FFF775FE47F8046D032600BD00B5D8
:102DE00000F02FF8ECE730B4340040CF350040CF8E
:102DF00070478C2E00007800033F646F00B547F8E1
:102E0000046D984EFFF7E6F847F8046D44F2AC26DF
:102E1000FFF7E6FA8F48016847F8046D0E00FFF7E8
:102E20008DFE013647F8046D01268A480760FFF7DA
:102E300047FE47F8046D032600BD00B500F001F819
:102E4000E2E700B547F8046D4BF23046FFF7C8FAE9
:102E500047F8046D0426FEF76BFF013B08D047F8E6
:102E6000046D0526FEF764FF013B00F024FC00BD65
:102E700047F8046D3526FFF7B3FA47F8046D4CF6B2
:102E80004076FFF7ADFA00F016FC00BDA62E00005C
:102E9000300004636173650047F8046D002647F84D
:102EA000046D08267047BC2E00003000033F6F669B
:102EB0006D4809E0013EB64140CF7047602F0000E9
:102EC0007800026F66006948082E00D067E640CFA0
:102ED00000B547F8046D0600FFF77CF8FFF72EFEFB
:102EE00039683E600E46013647F8046D092647F8FA
:102EF000046D4CF64076FFF773FA00BD00B5300064
:102F000040CF013B01B400F0D6FB01BC082E00D03D
:102F100045E640CF47F8046D0600FF213140B1423D
:102F200004D153490E43FFF75BFAD7E7FEF74CFE97
:102F3000002E40CF04D04F480643FFF779FACDE783
:102F400047F8046D0026FEF7F3FE47F8046D44F2DF
:102F5000B026FFF745FAC1E7300040CFB0427047D6
:102F6000962F0000300005656E646F66092E00D054
:102F700015E640CF00B540B440CFFFF7DFFD39681C
:102F80003E600E46FFF7F3FD47F8046D40BC47F87E
:102F9000046D082600BDE82F0000300007656E6450
:102FA00063617365082E00D0F9E540CF00B547F89E
:102FB000046D4CF64076FFF713FA00F001F800BDFF
:102FC00000B5300040CF00280DD003B401213140BE
:102FD000002903D0013EFFF7C0FD01E0FFF7B7FD78
:102FE00003BC0138EFE700BDFC2F000000000574B2
:102FF0006F6B656E47F8046D202605E07C3000009D
:10300000000005706172736510B5FEF7E2FB3100D8
:1030100040CF300040CF184A12688418202E07D1C4
:1030200091420FD0835CB34202D101328418F7E79A
:10303000914207D0835C0132B342F9D18618361B26
:10304000013E01E08618361B043F3C600A480260DE
:1030500010BD00000C000020562D0000A42D000023
:103060002C2D0000E62D0000B42E0000582F00008B
:10307000002E0000000FB6F1E47F0120BA300000FE
:103080000000056469676974CF4B1B68303E0BD341
:103090000A2E0BD3073E0A2E06D3242E06D3203E3B
:1030A0000A2E01D3242E01D3002670479E42FBD264
:1030B00047F8046D0026F6437047C4310000000055
:1030C000066E756D626572003FB5310040CF701EAF
:1030D0000126012204B4BC4B1B68002400250029F2
:1030E0003CD00130013902782D2A04D101B00022F0
:1030F000D24304B4F3E7232A01D10A23EFE7242AB9
:1031000001D11023EBE7252A01D10223E7E72E2A7C
:1031100001D10226E3E72C2A36D047F8046D1600C9
:10312000FFF7B4FF002E40CF2BD047F8046D2600E8
:1031300047F8046D2E0047F8046D1E0047F8046D33
:1031400000260FB4FDF74CF90FBC350040CF34001A
:1031500040CF0022A419554140CFC0E704BC002A4B
:1031600004D50022E443ED430134554133002600E9
:10317000012B02D047F8046D2E0047F8046D1E00A5
:103180003FBD01B000263FBD2500002402260029D6
:10319000E4D0425C01392E2AF9D047F8046D1600BC
:1031A000FFF774FF002E40CFEBD0043F3C6047F8A0
:1031B000046D1E000FB4FDF7C2F90FBC340040CF00
:1031C00040CFE4E7E63100000000062E646967693D
:1031D00074000A2E01D230367047242E01D23736C1
:1031E0007047232670471C320000000004686F6C93
:1031F0006400330040CF754801783F290DD201317A
:1032000001704018012907D001380278013002709E
:10321000013801390129F7D1037070473C320000B1
:10322000000005686F6C643C330040CF674801784C
:103230003F2902D2013101704354704754320000DB
:103240000000047369676E00002E01D440CF704700
:103250002D26CEE768320000000002233E005B48C6
:103260000678013038607047803200000000036645
:10327000235310B5202400F008F8013CFBD110BD09
:10328000A232000000000266230000B547F8046D7A
:103290004D4E3668FDF790F8FFF79BFFFFF7C4FF30
:1032A00000BDBE32000000000223530000B500F054
:1032B0000AF8002EFBD138680028F8D100BDEA32A8
:1032C00000000000012300B547F8046D3E4E36684B
:1032D00047F8046D0026FDF751F9FCF783FF40CF56
:1032E000FFF777FFFFF785FF00BDFC32000000000D
:1032F000023C230035480021017070470E33000066
:10330000000002662E0047F8046D202604E05C33BE
:103310000000000003662E6E00B510B4340040CFEC
:10332000FDF7BBFAFDF711F847F8046D0026FFF72B
:10333000E1FFFFF7BBFF40CF2C26FFF775FF002C06
:1033400003D0FFF7A2FF013CFBD110BC40CFFFF739
:103350007BFF47F8046D47F8046D1CE072330000F2
:1033600000000375642E00B5FFF7C4FFFFF79EFF52
:1033700011E0A4330000000002642E0000B5FDF748
:103380008CFAFCF7E2FFFFF7B5FFFFF78FFFFDF7C1
:103390008EFAFFF759FFFFF762FFFEF72CFBFEF7EF
:1033A0007DFA00BDB6330000000002752E0047F81C
:1033B000046D0026D7E7D03300000000012E47F847
:1033C000046DF617DAE70000FC7F012028000020DA
:1033D000183400000000086576616C756174650042
:1033E00000B5FEF7F6F901CF01B440B440CFD5489F
:1033F000016802B400210160FEF7DEF900F014F864
:10340000D04802BC016047F8046D40BC01BC043FD9
:103410003860FEF7D1F900BDDC3600000000096914
:103420006E7465727072657430B5C74887420BD987
:10343000FEF785FA10537461636B20756E646572D4
:10344000666C6F770A005DE1C04887420AD2FEF7DA
:1034500076FA0F537461636B206F766572666C6FDA
:10346000770A4FE1BA4C2568002D01D13D00256057
:10347000FFF7C0FD002E02D1043740CF30BD3868C1
:1034800047F8046D043F3860FFF76FFA310040CF12
:10349000320040CF002A13D138683100FFF714FE04
:1034A000320040CF002AC0D1FEF7A9FAFEF747FA52
:1034B0000C206E6F7420666F756E642E0A0021E119
:1034C000A44B1B68002B1DD10025256030230B4029
:1034D000302B0ED1FEF78FFAFEF731FA1220697306
:1034E00020636F6D70696C652D6F6E6C792E0A00AC
:1034F00008E1043740CF47F8046D1600FEF708FED8
:10350000FFF793FF043740CF802008400ED1EB1B1C
:103510009B08402008400FD00820084002D0002B14
:1035200000D01DE00F200840834205D347F8046D0A
:103530001600FEF7EDFD78E700F0BDF847F8046DE2
:10354000160010220A4002D0FEF7E2FD6DE72022AD
:103550000A4002D0FEF73EFD67E7FEF746FC64E74F
:10356000072001401000FEF74CFD01291FD1012B5F
:10357000DCD1FF213140B14204D140880643FEF73F
:103580002FFF52E7FEF720FB002E40CF04D040680B
:103590000643FEF74DFF48E747F8046D0026FEF7A7
:1035A000C7FB47F8046D0688FEF71AFF3DE70229BE
:1035B00002D1012BBAD1EFE7032926D1012BB5D1D6
:1035C000FF213140B1420AD163490E43FEF708FFA3
:1035D000043247F8046D1600FEF7FCFC25E7FEF701
:1035E000F3FA002E40CF04D05C490E43FEF720FFD3
:1035F000EEE747F8046D0026FEF79AFB023247F823
:10360000046D1600FEF7E6FC0FE7042918D1012B24
:103610008CD1330040CF002B00D106E71F221A4087
:103620009A4205D047F8046D4688FEF7D9FEFCE6BD
:1036300047F8046D06889B011E43FEF7D1FEF4E6B1
:10364000052924D1012B10D147F8046D0026FEF77F
:103650006FFB47F8046D0600FEF7BCFC47F8046DED
:103660004CF64076FEF7BCFEDFE647F8046D002618
:10367000FEF75EFB47F8046D0126FEF759FBFEF7E7
:10368000C0FC47F8046D0600FEF7A4FCCDE6062951
:103690000ED1012B7FF44AAFFEF796FA002E40CFF1
:1036A0003FF47AAFD0F802000643FEF7C1FEBCE655
:1036B00001308047B9E600B5002B0CD0013B47F83C
:1036C000046D1E0057F82660FEF7C4FB002BF5D1F1
:1036D000043D2F0040CF0025256000BDF8360000D6
:1036E000810009686F6F6B2D7175697447F8046DFF
:1036F0001B4E704730370000743700000000047123
:1037000075697400DFF85CD00F4FFDF75BFD16485C
:103710000A2101600F48002101600D48016009483D
:10372000016012480160124941600D4800688746F7
:10373000FEF75DF8FFF778FEFEF701F905206F6BE5
:103740002E0AF5E7E47F012030030020300100203D
:1037500008000020D87F0120003E00000006B6F1DE
:10376000D47F012030040020FC7F0120DC7F012079
:10377000680000208E37000000000565696E743F08
:1037800047F8046DEFF31086013EB64170479E374F
:10379000000020000465696E740062B67047AE37A1
:1037A000000020000464696E740072B67047C4376C
:1037B0000000200004697073720047F8046DEFF395
:1037C00005867047D03700000000036E6F707047A9
:1037D00012380000000009756E68616E646C6564E3
:1037E00000B5FEF7ACF814556E68616E646C6564E4
:1037F00020496E74657272757074200047F8046D0C
:10380000EFF30586FEF70EF9FEF799F802210A009C
:1038100000BD243800000000057265736574C5485A
:10382000C54901604E38000081000B6972712D732B
:1038300079737469636B47F8046DC04E7047E03765
:10384000000047F6D070C2F2010000688746763863
:1038500000008100096972712D6661756C7447F80A
:10386000046DB74E7047E037000047F6CC70C2F2E7
:10387000010000688746A438000081000E6972715B
:103880002D636F6C6C656374696F6E0047F8046D2F
:10389000AC4E7047E037000047F6C870C2F2010036
:1038A00000688746CC3800008100096972712D6577
:1038B0007874693047F8046DA34E7047E037000014
:1038C00047F6C470C2F2010000688746F438000071
:1038D0008100096972712D657874693147F8046D4A
:1038E0009A4E7047E037000047F6C070C2F2010000
:1038F000006887461C3900008100096972712D65D6
:103900007874693247F8046D914E7047E0370000D3
:1039100047F6BC70C2F201000068874644390000D7
:103920008100096972712D657874693347F8046DF7
:10393000884E7047E037000047F6B870C2F20100C9
:10394000006887466C3900008100096972712D6535
:103950007874693447F8046D7F4E7047E037000093
:1039600047F6B470C2F20100006887469239000041
:103970008100076972712D61646347F8046D774EA9
:103980007047E037000047F6B070C2F201000068EF
:103990008746BA3900008100086972712D74696D1B
:1039A000320047F8046D6E4E7047E037000047F66E
:1039B000AC70C2F2010000688746E2390000810065
:1039C000086972712D74696D330047F8046D654E96
:1039D0007047E037000047F6A870C2F201000068A7
:1039E00087460A3A00008100086972712D74696D7A
:1039F000340047F8046D5C4E7047E037000047F62E
:103A0000A470C2F20100006887460C400000FFFF6E
:103A1000182D2D2D20466C617368204469637469EC
:103A20006F6E617279202D2D2D00FDF738FD4F4806
:103A300085464F4F2A264F484F4901604F4850490D
:103A4000016047F8046D4E4E4E4DB1884E4B994281
:103A500024D04E4B0B400AD0B01DFEF777FFFEF787
:103A6000D0FA0388408800040343ED1A16E080234F
:103A70000B4013D00F23194089006D1AB01DFEF7BB
:103A800065FFFEF7BEFA47F8046D060047F8046DBF
:103A90002E0047F8046D0E00FDF7AEF8FEF734FF78
:103AA000300040CFD1D03A48066040CF3948056059
:103AB00039483A49344A884204D00238038893424C
:103AC000F9D0023036490860FDF77CFBFDF737FF7F
:103AD000384D6563726973702D5374656C6C6172D7
:103AE000697320322E322E3020666F722053544D6F
:103AF00033324C343736206279204D6174746869F2
:103B00006173204B6F6368200A0026480021016022
:103B100047F8046D244E47F8046D0426FEF725FF90
:103B200040CF002E02D0FEF7F3FAFEE540CFE9E5E4
:103B3000696E69740CED00E00400FA05D07F012085
:103B4000CC7F0120C87F0120C47F0120C07F0120DD
:103B5000BC7F0120B87F0120B47F0120B07F01200D
:103B6000AC7F0120A87F0120A47F01203004002029
:103B70003003002000000020D406002004000020B4
:103B80008801000000800120FFFF0000000100000C
:103B90001C00002024000020000010000040000055
:0C3BA0001800002008000020303B00004E
:0400000508000000EF
:00000001FF
