:020000040800F2
:1000000064030020AF480000EF460000EF46000008
:10001000EF460000EF460000EF4600000000000041
:100020000000000000000000000000001D4700006C
:100030001D470000000000001D470000C7460000EB
:100040001D4700001D4700001D4700001D47000020
:100050001D4700001D470000454700006D47000098
:1000600095470000BD470000E54700001D47000020
:100070001D4700001D4700001D4700001D470000F0
:100080001D4700001D4700000B4800001D470000F1
:100090001D4700001D4700001D4700001D470000D0
:1000A0001D4700001D4700001D4700001D470000C0
:1000B000334800005B480000834800001D470000F3
:1000C0001D4700001D4700001D4700001D470000A0
:1000D0001D4700001D4700001D4700001D47000090
:1000E0001D4700001D4700001D4700001D47000080
:1000F0001D4700001D4700001D4700001D47000070
:100100001D4700001D4700001D4700001D4700005F
:100110001D4700001D4700001D4700001D4700004F
:100120001D4700001D4700001D4700001D4700003F
:100130001D4700001D4700001D4700001D4700002F
:100140001D4700001D4700001D4700001D4700001F
:100150001D4700001D4700001D4700001D4700000F
:100160001D4700001D4700001D4700001D470000FF
:100170001D4700001D4700001D4700001D470000EF
:100180001D4700001D470000A8050000FFFF1E2DB1
:100190002D2D204D6563726973702D5374656C6CE1
:1001A0006172697320436F7265202D2D2D0007B594
:1001B0008B48002B09D000F02FF800F035F800F044
:1001C0001FF8426028210160F3E707BD00B58448AD
:1001D00000230168282905D1426800F004F800F0E6
:1001E00040F8F6E700BD03B547F8046D160047F880
:1001F000046D1E0008B400F0A7FF08BC013303BD66
:1002000003B5013B47F8046D1E0008B400F086FFFB
:1002100008BC320040CF03BD03B5724801681E29F7
:1002200001D000F034F803BD816901620169816188
:100230008168016101688160C16941624169C16190
:10024000C16841614168C1601E21016070470FB5FE
:10025000634801681E2903D0FFF7DEFFFFF7E4FFC4
:100260000FBD02B581680160C168416000E002B560
:10027000016981604169C16081690161C169416150
:10028000016A8161416AC1611E21016202BD08B536
:1002900001681E220260082901D20B0004E028290F
:1002A00009D1436800F05BF847F8046D4E4E56EAFA
:1002B000033602F0B9FF08BD00B500F009F800F000
:1002C0000CF800F00FF800F012F800F015F800BD7F
:1002D0000FB54448FFF7DBFF0FBD0FB54348FFF7ED
:1002E000D6FF0FBD0FB54248FFF7D1FF0FBD0FB5C9
:1002F0004048FFF7CCFF0FBD0FB539480168062213
:1003000002601E2906D147F8046D4CF6407602F0D3
:100310005CFF15E0282909D1436847F8046D1E00E9
:1003200047F8046D062602F01FFC09E0062907D0F5
:1003300047F8046D44F20666C9000E4302F045FF1B
:1003400000F001F80FBD26481E21016281610161A4
:100350008160C1620621016000218162704707B59A
:1003600047F8046D1E0000F047F847F8046D1E00C2
:1003700002F0FAFB07BD07B5C16A282904D1016B59
:10038000994201D1002307BD0168002900F01D80BA
:100390008168002900F019800169002900F01580AA
:1003A0008169002900F01180016A002900F00D80A8
:1003B000036347F8046D1E0047F8046D002602F041
:1003C000D3FB2821C162002307BD47F8046D1E003E
:1003D00000F012F847F8046D1E0002F0C5FB07BDDF
:1003E0002800002048000020040D47F840000020AD
:1003F000380000203000002037B536480168826898
:1004000003698469056A062000F00EF8032000F0F5
:100410000BF8022000F008F8012000F005F8002396
:100420002C481E21C16237BD814209D0824207D0CB
:10043000834205D0844203D0854201D0030037BDFA
:10044000704747F8046D4CF6007600B581581E29B8
:1004500005D1FFF7D1FF8350012199400E4300BD24
:1004600000B501681E2904D10022FFF7EAFF02F05F
:10047000ACFE00BD00B581681E2907D10822FFF738
:10048000E0FF0022FFF7E1FF02F09FFE00BD00B594
:1004900001691E290AD11022FFF7D3FF0822FFF7B6
:1004A000D4FF0022FFF7D1FF02F08FFE00BD00B5A0
:1004B00081691E290DD11822FFF7C3FF1022FFF713
:1004C000C4FF0822FFF7C1FF0022FFF7BEFF02F0C2
:1004D0007CFE00BD2800002000B50168282904D159
:1004E0004368FFF73CFF0360190000BD00B5816859
:1004F000282904D1C368FFF732FF8360190000BDCB
:1005000000B50169282904D14369FFF728FF036179
:10051000190000BD3EB5826803698469056A9A4284
:1005200003D0A24201D0AA420AD1072A08D847F82C
:10053000046DD600FFF760FF1E43836002F045FEA6
:100540003EBD3EB50168826803698469056A9142CF
:1005500006D0994204D0A14202D0A94200D03EBDAB
:1005600047F8046DCE00FFF747FF1E43036002F01B
:100570002CFE3EBD00B5FFF774FEFFF768FEFFF7E7
:100580003BFF036000BD01B506480368013308D096
:100590000023DB43036047F8046D4BF2005602F082
:1005A00014FE01BDD89F0020CC0500004202043299
:1005B00064757000386847F8046D043F3860704710
:1005C00000B500F0D7FC00F0D5FC00BDEA05000046
:1005D0006202053264726F70043740CF704700B515
:1005E00000F078FC00F076FC00BD3006000044020C
:1005F00005327377617007CF043F386047F8046DA8
:10060000043F3A600E00704700B5FFF750FF0268E4
:100610000369036002614268436943604261826822
:10062000836983608261C268C369C360C26100BDBF
:1006300058060000620204326E69700007CF043F62
:100640003860704700B5FFF732FFFFF7DDFFFFF7B7
:1006500008FEFFF706FE00BD7206000044000532EA
:100660006F766572B86847F8046D043F3860FE68BD
:10067000704796060000440005327475636B07CF1F
:10068000043F386047F8046D043F3A60043F396026
:10069000043F38607047B806000046000432726FAD
:1006A00074003868B9683A69B86039613A60796845
:1006B0007E60FE68F9607047DA0600004600053289
:1006C0002D726F743868B9683A6938613960BA60F8
:1006D000F968FE607E6879607047020700002002BA
:1006E00003323E7201CF01B440B440CF704700B531
:1006F000FFF749FF00F011FC00F0B1FC00F0AFFC87
:1007000000BD2E07000020020332723E47F8046D40
:1007100040BC01BC043F3860704700B5FFF733FFB1
:1007200000F0B9FC00F0B7FC00F0F7FB00BD5E077D
:10073000000020020332724047F8046D019E47F822
:10074000046D009E704700B5FFF71DFF47F8046D6C
:1007500049F6010603F047FA03F041FA00BD8407A9
:100760000000200206327264726F700002B070479F
:1007700000B5FFF708FF47F8046D4BF2020602F0E0
:1007800024FD00BD9C07000042000364322F38683E
:10079000F10776104008084338607047B207000040
:1007A00062020364322A3868001876413860704764
:1007B00017E0CC07000042000464736872003868D8
:1007C000F1077608400808433860704718080000B1
:1007D0006202046473686C003868001876413860FF
:1007E000704700B5FFF746FEFFF776FEFFF7A9FE5C
:1007F00000F093FBFFF770FEFFF7A3FE47F8046DD0
:10080000402601F078FC00F088FB47F8046D44F2C4
:10081000401601F070FC00BD2A080000420004648C
:1008200061627300002E07D4704748080000420040
:1008300007646E656761746538680021C043F643DC
:1008400001304E413860704798080000640202642D
:100850002D0007CF121AB1410E00043F3A607047D5
:1008600000B5FFF724FE00F0ADFBFFF735FEFFF704
:1008700068FE00F052FBFFF72FFEFFF762FEFFF766
:10088000C3FE01F097FB00F0B9FB47F8046D44F29A
:10089000801600F045FD00BDE60800006402026419
:1008A0002B0007CF12184E41043F3A60704700B545
:1008B000FFF7FDFD00F086FBFFF70EFEFFF741FEA0
:1008C00000F02BFBFFF708FEFFF73BFEFFF79CFE57
:1008D00001F055FB00F092FB47F8046D44F240161E
:1008E00000F022FD00BD10090000610203733E64A8
:1008F00047F8046DF617704700B500F0D9FAFFF716
:1009000020FE47F8046D41F2C07601F0AAFB00BD5D
:100910006E090000620203756D2A3868A0FB0606A6
:100920003860704747F8046DDFF8286500B5FFF7B9
:10093000A1FDFFF7D1FDFFF7D9FD01680E438168E6
:1009400056EA0146FFF78DFCFFF78BFCFFF77FFCB3
:10095000FFF752FD036056EA0336FFF778FCFFF716
:100960004BFD036056EA032602F05EFC00BD8C09D5
:1009700000006202026D2A00386880FB06063860BB
:10098000704747F8046DDFF8D064CFE7CA0900006C
:1009900044000375642A07CF564341437618010C7F
:1009A000130C59437618010C80B292B25143434361
:1009B00050430022C91852411204B6180A04090C07
:1009C00080184E41043F386070475C0A00004400C4
:1009D0000475646D2A0010B5002447F8046D7E6824
:1009E00047F8046D3E69FFF798FF310040CF3000B3
:1009F00040CF47F8046D3E6847F8046DFE6803B4C5
:100A0000FFF78BFF03BC330040CF320040CF47F8E5
:100A1000046D3E6847F8046D3E690FB4FFF77DFF33
:100A20000FBC9219634140CF89196241634140CFA5
:100A300047F8046D7E6847F8046DFE680FB4FFF751
:100A40006CFF0FBC9219634140CF89196241634129
:100A500040CF1E003A607960B86010BD7E0A000089
:100A60004300022A2F0000B540B440CFFFF784FFB7
:100A700047F8046D40BC00F04CF8043700BDA00AF4
:100A800000004300052A2F6D6F6400B540B440CFCD
:100A9000FFF772FF47F8046D40BC00F03AF800BD64
:100AA000C20A0000430003752A2F00B540B440CFAE
:100AB000FFF733FF47F8046D40BC00F01BF8043724
:100AC00000BDE60A0000430006752A2F6D6F640022
:100AD00000B540B440CFFFF720FF47F8046D40BC9D
:100AE00000F008F800BD060B0000430006756D2FEE
:100AF0006D6F640000B547F8046D002600F019F82A
:100B000040CF043700BD240B00004300056D2F6D5E
:100B10006F6400B547F8046DF61700F032F840CF67
:100B2000043700BD760B000044000675642F6D6F1E
:100B3000640030B4002300227968B86835003C684E
:100B400040264000494152415B41AB4202D804D3A8
:100B5000A24202D3121BAB410130013EF1D10E0083
:100B600038607B60BA6030BC704730B400237A686C
:100B7000B9680020E2E7EC0B0000440005642F6D2B
:100B80006F6400B5F01719D0FFF756FEFFF733FD7D
:100B9000F0170CD0FFF750FEFFF72DFDFFF7C9FF50
:100BA000FFF729FDFFF748FEFFF725FD00BDFFF722
:100BB00022FDFFF7BEFFFFF73FFE00BDFFF71BFD65
:100BC000F0170ED0FFF738FEFFF715FDFFF7B1FF66
:100BD000FFF732FEFFF70FFDFFF72EFEFFF70BFDCD
:100BE00000BDFFF708FDFFF7A4FF00BD020C0000E9
:100BF000440002642F0000B5FFF7C3FFFFF71EFD9E
:100C000000BD4A0C0000440002662A0000B5F0173F
:100C10000DD0FFF711FEFFF7EEFCF0170DD0FFF738
:100C20000BFEFFF7D8FE40CF01CF386000BDFFF7C5
:100C3000E2FCF017F5D0FFF7FFFDFFF7CCFE40CF49
:100C400001CF3860FFF7F8FD00BD960C00004400AE
:100C500002662F0000B5F0170ED0FFF7EDFDFFF78D
:100C6000CAFCF0170ED0FFF7E7FDFFF7C4FCFFF753
:100C70007CFFFFF7E3FC00BDFFF7BDFCF017F4D0ED
:100C8000FFF7DAFDFFF7B7FCFFF76FFFFFF7D4FDC3
:100C9000FFF7D4FC00BDDE0C000020020232210070
:100CA00006CF3160726040CF704700B5FFF7EFFBB1
:100CB0000168426806B400F006FEFFF7C8FA06BCF9
:100CC0000160282906D047F8046D46F2400600F07E
:100CD000FEFD00BD0432426000F0F5FD00BD280DB0
:100CE0000000200202324000043F7068386036681D
:100CF000704700B500F0DCF8016828290AD047F8F1
:100D0000046D46F6400600F0BFFD00F006F900F065
:100D1000B7FD00BD41680431416000F0B1FD00F055
:100D2000FCF800F0ADFD00BD480D00004400036478
:100D3000753C07CF8E4204D801D1904201D80026DD
:100D400070470026F6437047680D000044000364B6
:100D5000753E07CFB14204D801D1824201D80026A6
:100D600070470026F6437047880D00004400026477
:100D70003C0007CF8E4204DC01D1904201DC00260A
:100D800070470026F6437047A80D00004400026437
:100D90003E0007CFB14204DC01D1824201DC0026D3
:100DA00070470026F6437047C40D000062020364DA
:100DB000303C0437F617704700B500F0C1F800F07A
:100DC0003DFB00BDEC0D000062020364303D01CF2D
:100DD0000643013EB641704700B547F8046D44F242
:100DE000003600F0A1FA00F005FB00BD120E000075
:100DF000440203643C3E07CF50404E400643013E50
:100E0000B641F643704700B500F015F800F005FB59
:100E100000BD5C0E0000440202643D0007CF50405C
:100E20004E400643013EB641704700B500F003F85E
:100E300000F0E0FA00BD00B5FFF739FB00F0C2F8A2
:100E400000F0C4F900F0DAF800F0C0F900F0B1F9F0
:100E500000BD00000000A0FB000080FB6E0E000043
:100E600020000373704047F8046D3E0070477E0E0B
:100E70000000200003737021370040CF7047900EB0
:100E8000000020000372704047F8046D6E46704702
:100E9000A00E0000200003727021B54640CF7047BD
:100EA000C40E000061020364757047F8046D70475A
:100EB00006B5FFF7D5FA01684268FFF7C8F9016087
:100EC000426006BDF00E000061020464726F7000A3
:100ED00040CF704700B501681E2906D147F8046D60
:100EE00043F2047602F071F900BDFFF7BAF900BDD4
:100EF000060F00006100043F64757000002E01D0F1
:100F000047F8046D7047320F000062020473776186
:100F1000700039683E600E0070470CB5FFF7AAFA02
:100F200002688368036082604268C3684360C2608D
:100F30000CBD600F00006202036E697004377047D9
:100F400000B5FFF78DFA81681E2902D0FFF78FF9EF
:100F500000BD47F8046D43F2047602F036F900BD97
:100F6000880F00006202046F7665720047F8046D16
:100F70007E68704700B5FFF77DFA8168C268FFF7A9
:100F800066F90160426000BDAE0F000062020474A9
:100F900075636B0001CF083F7E603860704700B515
:100FA000FFF768FAFFF784FF00F028F800BDE40FB0
:100FB0000000630203726F7403CF083F78603E60E5
:100FC0000E0070470EB5FFF762FA01688268036988
:100FD0008160026103604168C2684369C160426127
:100FE00043600EBD081000006302042D726F740090
:100FF00003CF083F7E6039600600704700B5FFF7F9
:10100000E1FFFFF7DFFF00BD1A10000020000470B1
:1010100069636B0057F826607047321000000000CB
:101020000564657074684F49C91B47F8046D8E08E4
:1010300070474E100000000006726465707468000E
:1010400047F8046D6E464849891B8E087047841026
:1010500000002002023E720040B440CF704700B54D
:10106000FFF791FAFFF7FCF9FFF736FA47F8046D3E
:101070004BF2004601228A40164302F0A6F8FFF721
:10108000F0F800BDBA100000200202723E0047F8DE
:10109000046D40BC704700B5FFF775FAFFF7D7F84D
:1010A000FFF7AAF9036047F8046D4BF600460122EA
:1010B0009A40164302F089F800BDD81000002002C3
:1010C0000272400047F8046D009E704700B5FFF7BC
:1010D0005AFA02F084FD00BDFC10000020020572E7
:1010E00064726F7001B0704700B5FFF74CFA47F8B3
:1010F000046D4BF2010602F068F800BD101100000B
:10110000200005727069636BB6006E4436687047E4
:101110003C110000000004726F6C6C00002E01D1C5
:1011200040CF7047B0003958C019031F1A680260D9
:101130000438013EF9D104370E0070476C110000ED
:101140000000052D726F6C6C002E01D140CF7047EE
:10115000386839464A680A600431013EFAD10860AD
:1011600040CF704764020020640300208611000015
:10117000620203616E6401CF0640704747F8046D58
:1011800044F20006D0E0A21100006202036269632B
:1011900001CFB0430600704747F8046D44F2803633
:1011A000BEE0BC1100006202026F720001CF064374
:1011B000704747F8046D44F20036B5E0D6110000E0
:1011C000620203786F7201CF4640704747F8046DA2
:1011D00044F24006A8E0EE1100006202012A01CFAD
:1011E0004643704747F8046D44F240369CE02212B3
:1011F0000000610203636C7AB6FA86F6704700B5A8
:10120000FFF72EF947F8046D6F4EFFF765F90E43AF
:1012100056EA0146FFF7AEF956EA032602F004F853
:1012200000BD32120000610003726F725FEA760641
:10123000704744120000610003726F6CB61956F1DA
:10124000000670477C1200006202076172736869D1
:10125000667401CF30410600704700B547F8046D51
:1012600044F2001647F8046D41F20006FFF702F958
:1012700041681F292AD91F21416027E0A6120000DA
:101280006202067273686966740001CFF04006005E
:10129000704700B547F8046D44F2C00647F8046D86
:1012A00040F6000612E0E41300006202066C736868
:1012B0006966740001CFB0400600704700B547F87A
:1012C000046D44F2800647F8046D0026FFF7D2F85B
:1012D0000168282903D040CF00F022F800BD043770
:1012E0004168FEF7BEFF002901D140CF00BD1F2994
:1012F0000AD889010E430268D2001643FFF73AF973
:101300001E4301F062FF00BD40CFFFF733F947F8FD
:10131000046D42F200061B021E4301F056FF00BDA1
:101320000FB5FFF7A7F80CE00FB5FFF7A3F80168BA
:10133000062901D1FFF7F1FD8268282A01D1FFF7C4
:10134000ECFDFFF7D3F8016828291CD147F8046D9C
:10135000466801F055FB02CF002E40CF13D0B6F502
:10136000804F01D1194E1CE0194A964201D1194E05
:1013700017E0B6F5864F01D1174E12E0174A964294
:1013800001D1174E0DE0FFF7C5F8FFF7A5F8C9002A
:1013900082680E43164301F018FFFEF762FF0FBD8F
:1013A0000FB50E43816856EA0146FEF75AFFFEF775
:1013B00058FFFEF74CFFFFF71FF8036056EA0326BD
:1013C00001F032FF0FBD000080F0B0FA000010F015
:1013D00040400000000090F0000050F0804300000A
:1013E000000030F008140000610202303D00013EB0
:1013F000B641704700B500F0FDF800F02EFEFEF794
:1014000030FF7949816200BD2E1400006102033073
:101410003C3E013EB641F643704700B500F0EAF8A5
:1014200000F01BFEFEF71DFF7049816200BD5414E1
:101430000000610202303C00F617704700B500F072
:10144000D9F847F8046D41F2C07600F00AFE684909
:10145000816200BD6A14000060000474727565004A
:1014600047F8046D0026F64370477E1400006000C4
:101470000566616C736547F8046D00267047A41417
:1014800000004202023E3D0001CFB042EADA0026EF
:10149000704747F8046D4DF6003647F8046D4DF679
:1014A0000026B3E0CA1400004202023C3D0001CF16
:1014B000B042D7DD0026704747F8046D4DF6004670
:1014C00047F8046D4DF60056A0E0EE14000042020D
:1014D000013C01CFB042C5DB0026704747F8046DE0
:1014E0004DF6002647F8046D4DF600368EE01215D5
:1014F00000004202013E01CFB042B3DC002670473B
:1015000047F8046D4DF6005647F8046D4DF6004659
:101510007CE038150000620203753E3D01CF861B5A
:10152000B641F643704747F8046D4DF2003647F870
:10153000046D4DF2002669E05E150000620203753D
:101540003C3D01CF361AB641F643704747F8046D6B
:101550004DF6000647F8046D4DF6001656E082156C
:101560000000620202753C0001CF861BB641704745
:1015700047F8046D4DF2002647F8046D4DF2003631
:1015800044E0A6150000620202753E0001CF361A43
:10159000B641704747F8046D4DF6001647F8046DE4
:1015A0004DF6000632E0C81500006202023C3E0023
:1015B00001CF811B361A0E43704747F8046D4DF278
:1015C000000647F8046D21E0301700006202013D7B
:1015D00001CF361A013EB641704747F8046D4DF20F
:1015E000001647F8046D11E000D2000000D300009F
:1015F00000D5000000B5FEF733FFFEF769FEFEF7E9
:101600006CFEFEF76FFEFEF771FF00BD00B5FEF742
:1016100031FFFEF75DFEFEF760FEFEF771FF8268A8
:10162000282A04D1FFF779FC39683E600E4640CF86
:10163000016828291DD14168FF2907D847F8046DA2
:1016400042F600060E43816809021AE047F8046D6D
:10165000466801F0D5F902CF002E40CF09D047F8F7
:10166000046D694E0E43816856EA014601F0DCFDC7
:101670000AE0FEF731FF47F8046D44F28026C90006
:1016800016430E4301F0A1FDFEF7EBFDFEF7E9FD69
:10169000866240CF00BD0FB55C48816A002933D017
:1016A00047F8046D866A00218162310AD52901D18B
:1016B00040CF0FBDFEF7CBFDFEF79EFE0360D229A3
:1016C00003D1534E00F017FD0FBDD32905D1504E65
:1016D00000F011FD00F022FD0FBD023601F075FD96
:1016E00047F8046D42F2000600F00FF800F016FD16
:1016F00047F8046D4EF2000601F067FD47F8046DEF
:1017000042F2000600F001F80FBD00B5FEF7A8FE9A
:10171000FEF717FF016809020E4301F056FD00BDF8
:1017200000B5816A090AD52901D1FEF79AFD00BDED
:101730004E1700006202036D696E01CFB04200DCFB
:101740000600704747F8046D4DF600362DE06C1723
:1017500000006202036D617801CFB04200DB060039
:10176000704747F8046D4DF600461EE08C170000E8
:10177000620204756D61780001CFB04200D30600AB
:10178000704747F8046D4DF600060EE0141800008F
:10179000620204756D696E0001CFB04200D8060088
:1017A000704747F8046D4DF2003600B5FEF762FE53
:1017B00001688268914203D140CFFEF758FD00BD19
:1017C000062A01D1FFF7A9FB0168282901D1FFF7FB
:1017D000A4FBFEF7B6FEFEF789FEC900026847F8D3
:1017E000046D44F280260E43164301F0EEFC01F036
:1017F000ECFC47F8046D44F200660E43164301F01A
:10180000E4FCFEF734FD00BD000FB0F1280000201D
:1018100080410000521800000000046D6F766500E2
:1018200007B5310040CF320040CF00290FD0B2427F
:101830000DD006D3013E013A705C50540139FBD102
:1018400005E030781070013601320139F9D140CF0E
:1018500007BD7418000000000466696C6C0030005D
:1018600040CF310040CF002902D001397054FCD163
:1018700040CF7047B618000020020140366870471C
:1018800047F8046D46F6000600B5FEF7E9FD03686B
:10189000282B08D143687C21194009010E437C2183
:1018A0008B43FEF768FDDB001E43FEF763FE1E431D
:1018B00001F08BFC00BD0E1900002002012103CFB6
:1018C00030600E00704747F8046D46F2000600B520
:1018D000FEF7D0FD0368282B09D143687C2119400D
:1018E00009010E437C218B43FEF745FD0360DB00BD
:1018F0001E438368282B02D1C368FEF730FD1E43C8
:1019000001F063FCFEF7ADFCFEF7ABFC00BD441933
:1019100000002002022B210003CF3268121832602F
:101920000E00704700B5FEF7A5FDFFF7C1FAFFF7FF
:10193000A7FFFFF747FB00F022FBFFF7EEFAFFF7E8
:10194000C2FF00BD881900002002026840003688EE
:10195000704700B5FEF784FD47F8046D48F60006B1
:101960000368282B08D143683E21194049010E43E2
:101970003E218B43FEF7FFFCDB001E43FEF7FAFD22
:101980001E4301F022FC00BDE219000020020268A3
:10199000210003CF30800E00704700B5FEF76AFDCE
:1019A00047F8046D48F200060368282B09D1436804
:1019B0003E21194049010E433E218B43FEF7DBFCDB
:1019C0000360DB001E438368282B02D1C368FEF747
:1019D000C6FC1E4301F0F9FBFEF743FCFEF741FC99
:1019E00000BD181A0000200203682B2103CF3288A3
:1019F000121832800E00704700B5FEF73BFDFFF76E
:101A000057FAFFF7A6FFFFF7DDFA00F0B8FAFFF785
:101A100084FAFFF7C2FF00BD5C1A000020020263D7
:101A200040003678704700B5FEF71AFD47F8046DA0
:101A300047F600060368282B08D143681F21194088
:101A400089010E431F218B43FEF795FCDB001E43EB
:101A5000FEF790FD1E4301F0B8FB00BDB61A000072
:101A600020020263210003CF30700E00704700B5E2
:101A7000FEF700FD47F8046D47F200060368282BC7
:101A800009D143681F21194089010E431F218B434F
:101A9000FEF771FC0360DB001E438368282B02D134
:101AA000C368FEF75CFC1E4301F08FFBFEF7D9FB19
:101AB000FEF7D7FB00BDEC1A0000200203632B21C8
:101AC00003CF3278121832700E00704700B5FEF75F
:101AD000D1FCFFF7EDF9FFF7A6FFFFF773FA00F06F
:101AE0004EFAFFF71AFAFFF7C2FF00BD2C1B0000E9
:101AF000200204626973210003CF3268024332601E
:101B00000E00704700B5FEF7B5FCFFF7D1F9FFF7FF
:101B1000B7FEFFF757FA47F8046D44F20036FFF7B7
:101B200003FCFFF7FAF9FFF7CEFE00BD6C1B0000C7
:101B3000200204626963210003CF3268824332606D
:101B40000E00704700B5FEF795FCFFF7B1F9FFF7FF
:101B500097FEFFF737FA47F8046D44F28036FFF737
:101B6000DFFBFFF7DAF9FFF7AEFE00BDAC1B0000AC
:101B7000200204786F72210003CF32684240326045
:101B80000E00704700B5FEF775FCFFF791F9FFF7FF
:101B900077FEFFF717FA47F8046D44F24006FFF7A7
:101BA000C3FBFFF7BAF9FFF78EFE00BDE21B000092
:101BB000200204626974400001CF3668064018BFF5
:101BC0004FF0FF36704700B5FEF754FCFFF758FEA4
:101BD00047F8046D44F20006FFF7A6FBFFF71DFC73
:101BE00000BD221C0000200205686269732103CF3A
:101BF0003288024332800E00704700B5FEF73AFC8F
:101C0000FFF756F9FFF7A5FEFFF7DCF947F8046D7B
:101C100044F20036FFF788FBFFF77FF9FFF7BDFEC0
:101C200000BD621C0000200205686269632103CFC9
:101C30003288824332800E00704700B5FEF71AFCEE
:101C4000FFF736F9FFF785FEFFF7BCF947F8046D9B
:101C500044F28036FFF764FBFFF75FF9FFF79DFE64
:101C600000BDA21C000020020568786F722103CF1E
:101C70003288424032800E00704700B5FEF7FAFB12
:101C8000FFF716F9FFF765FEFFF79CF947F8046DBB
:101C900044F24006FFF748FBFFF73FF9FFF77DFEF0
:101CA00000BDD81C0000200205686269744001CFA5
:101CB0003688064018BF4FF0FF36704700B5FEF774
:101CC000D9FBFFF746FE47F8046D44F20006FFF724
:101CD0002BFBFFF7A2FB00BD181D000020020563CF
:101CE0006269732103CF3278024332700E0070476D
:101CF00000B5FEF7BFFBFFF7DBF8FFF794FEFFF739
:101D000061F947F8046D44F20036FFF70DFBFFF769
:101D100004F9FFF7ACFE00BD581D0000200205636A
:101D20006269632103CF3278824332700E007047BC
:101D300000B5FEF79FFBFFF7BBF8FFF774FEFFF758
:101D400041F947F8046D44F28036FFF7E9FAFFF7EE
:101D5000E4F8FFF78CFE00BD981D0000200205632B
:101D6000786F722103CF3278424032700E00704794
:101D700000B5FEF77FFBFFF79BF8FFF754FEFFF778
:101D800021F947F8046D44F24006FFF7CDFAFFF75A
:101D9000C4F8FFF76CFE00BDCE1D000020020563F5
:101DA0006269744001CF3678064018BF4FF0FF36A5
:101DB000704700B5FEF75EFBFFF735FE47F8046D90
:101DC00044F20006FFF7B0FAFFF727FB00BD621EE2
:101DD000000000000768666C61736821300040CF26
:101DE000310040CF584B984221D3584B98421ED2D5
:101DF000574B1940994219D001220240002A16D1AE
:101E000002889A4213D1534A8018534A534B1360A5
:101E1000534B1360534A012313600180524A1368E5
:101E200001201840FBD14F4A80231360704700F017
:101E3000A2FC2A57726F6E672061646472657373C7
:101E4000206F72206461746120666F7220777269FE
:101E500074696E6720666C61736820210A0002F065
:101E60008BBBB01E000000000E666C617368706171
:101E700067656572617365000FB5300040CF324B06
:101E8000984214D3344A354B1360354B1360354AAE
:101E900002231360354A1060324A42231360324AEB
:101EA000136801201840FBD12E4A802313600FBD18
:101EB0002C1F000000000A6572617365666C617317
:101EC0006800214872B62149214A038893421CD0F8
:101ED00047F8046D060047F8046D00F04CFC10450F
:101EE0007261736520626C6F636B206174202000E7
:101EF00000F0B4FC00F03FFC0C2066726F6D2046D1
:101F00006C6173680A00FFF7B7FF02308842DCD1CA
:101F100000F031FC1246696E69736865642E2052C8
:101F20006573657420210A0002F0BBFB701F00007E
:101F300000000E6572617365666C61736866726F2E
:101F40006D00300040CFBDE70050000000000400ED
:101F5000FFFF000000000008042002402301674545
:101F6000AB89EFCD102002400C200240142002402B
:101F7000A61F00006202012B01CF3618704700B582
:101F8000FEF778FA47F8046D43F2000647F8046D4F
:101F9000CE4E47F8046D41F600068168282917D116
:101FA000FEF7BBFF14E04C2000006202012D01CFC0
:101FB000861B704700B5FEF75DFA47F8046D43F6DF
:101FC000000647F8046DC24E47F8046D41F600263E
:101FD000FEF78CFA0168282927D14168FF290CD81F
:101FE00040CF40CFFEF796FA0E43816809020E43B8
:101FF00001F0EBF8FEF735F900BD47F8046D0E006F
:1020000000F0FEFC02CF002E40CF0ED040CF0437B0
:102010000E43816856EA0146FEF723F9FEF7AAFA55
:1020200056EA032601F000F900BD04370437FEF735
:1020300053FA89018268D2000E431643FEF711F964
:10204000FEF798FA1E4301F0C0F800BD7A200000A8
:10205000610202312D00013E704747F8046D41F6E0
:10206000406600B5FEF7FCF90168C9000E43FEF7B3
:1020700081FA1E4301F0A9F800BD92200000610220
:1020800002312B000136704747F8046D41F6404697
:10209000E7E7AA200000610202322D00023E7047ED
:1020A00047F8046D41F68066DBE7C220000061025C
:1020B00002322B000236704747F8046D41F6804625
:1020C000CFE7DC20000061020563656C6C2B0436F1
:1020D000704747F8046D41F60056C2E70E21000034
:1020E0006102066E6567617465007642704747F865
:1020F000046D44F2402600B5FEF7B2F9FEF721FA6E
:1021000001680E43C9000E4301F05FF800BD2621AF
:1021100000006102036E6F74F643704747F8046D68
:1021200044F2C036E7E73E210000610203736872A3
:102130007608704747F8046D40F64006DBE74E210D
:10214000000061020373686C7600704706E064214A
:102150000000610202322A007600704747F8046DE1
:102160004026C8E77C21000061020563656C6C7342
:10217000B600704747F8046D8026BCE79421000044
:10218000610202322F007610704747F8046D41F269
:102190004006B0E7D0210000610203616273F017CE
:1021A00036184640704700B5FEF75AF947F8046DF7
:1021B00042F60006016809020E4301F006F847F8EE
:1021C000046D4DF2005601F000F8FFF790FF00BDDE
:1021D000EE210000420005752F6D6F6401CF3100C4
:1021E000B0FBF6F67143401A043F386070470C228A
:1021F00000004200042F6D6F640001CF310090FB9E
:10220000F6F67143401A043F386070472022000000
:102210004200036D6F6400B5FFF7EFFF40CF00BDD4
:10222000602200006202012F01CF90FBF6F670479A
:1022300000B5FEF71FF9FEF74FF9FEF757F947F81B
:10224000046D244E01680E43816856EA0146FEF78C
:1022500008F8FEF78FF956EA032600F0E5FF00BD07
:10226000742200006100046576656E000120304034
:10227000361870478C22000081000462617365008B
:1022800047F8046D144E70470A000000A2220000B7
:1022900000000662696E617279000F4802210160D8
:1022A0007047B8220000000007646563696D616CC7
:1022B00009480A21016070470823000000000368F4
:1022C000657805481021016070470000000010F19A
:1022D0000000B0F1F0F090FBFC9F002071497248C3
:1022E000086072497248086072497348086073490F
:1022F0007348086073494620086073497348086052
:1023000073497448086070472423000081000968FD
:102310006F6F6B2D656D697447F8046D6E4E704775
:102320000E24000040230000810008686F6F6B2DB1
:102330006B65790047F8046D684E704734240000DF
:102340005E23000081000A686F6F6B2D656D6974F4
:102350003F0047F8046D624E70475E2400007A2308
:102360000000810009686F6F6B2D6B65793F47F83E
:10237000046D5C4E70478A240000982300008100A1
:102380000A686F6F6B2D70617573650047F8046D97
:10239000554E704752460000AE2300000000046511
:1023A0006D6974000FB54C4800F026F80FBDC223CC
:1023B00000000000036B65790FB5484800F01CF879
:1023C0000FBDD4230000000005656D69743F4448CB
:1023D00000688746E62300000000046B65793F0033
:1023E000404800688746FC230000000005706175C6
:1023F00073653D48006887460068874622240000D0
:1024000000000B73657269616C2D656D697400B5B0
:1024100000F025F8002E40CFFAD0344A167040CF95
:1024200000BD4A24000000000A73657269616C2DCA
:102430006B65790000B500F028F8002E40CFFAD087
:1024400047F8046D2A4A167800BD78240000000081
:102450000C73657269616C2D656D69743F0000B520
:10246000FFF7C7FF47F8046D002622480168802067
:10247000014000D0F64300BDF824000000000B73BB
:10248000657269616C2D6B65793F00B5FFF7B1FF2F
:1024900047F8046D0026174801682020014000D04D
:1024A000F64300BD1410024014007E0018100240D4
:1024B0000040000000000048000028A82400004858
:1024C000700700000C38014008380140001000007F
:1024D000003801400D000000F89F0020F49F00200C
:1024E000F09F0020EC9F0020E89F0020283801404A
:1024F000243801401C3801401C25000000000763FF
:1025000065787065637400B5386801B4013038606F
:1025100000F00BF801BC067040CF00BD9225000012
:102520000000066163636570740000B502CF013975
:102530000022FFF741FF300040CF7F2809D020283C
:1025400019D2092816D00A281FD00D281DD0082816
:10255000EFD1002AEDD000F00EF903082008002A80
:10256000E7D0885C013A80230340E2D04023034057
:10257000F5D0DEE72020B242DBD247F8046D06003A
:10258000FFF710FF01328854D3E7160000F0A2F8DD
:1025900000BDA425000040000374696247F8046D83
:1025A000294E7047BA2500008100033E696E47F846
:1025B000046D264E704700000000E02500008200F8
:1025C0000E63757272656E742D736F75726365003C
:1025D00047F8046D1E4E7047000000009C0000206C
:1025E000FC250000000009736574736F75726365E4
:1025F000174802CF0660416040CF70471A2600009E
:10260000000006736F757263650047F8046D104E25
:10261000043F706838603668704754260000000038
:102620000571756572790FB5084800210160FFF7E3
:10263000B5FF47F8046D47F8046DC826FFF775FF2E
:10264000FFF7D6FF0FBD00009C000020E49F002094
:10265000DC9F0020A2260000000007636F6D706100
:1026600072650FB5310040CF01CF884202D040CF14
:1026700000260FBD02CF002810D001380A5C335C61
:10268000412A02D35B2A38BF2032412B02D35B2B75
:1026900038BF20339A42EED000260FBD0026F64305
:1026A0000FBDB626000000000263720000B500F006
:1026B00062F8010A00BDC8260000000002626C003A
:1026C00047F8046D20267047DC26000000000573E3
:1026D0007061636547F8046D202663E6FC26000000
:1026E0000000067370616365730000B5002E03DDA2
:1026F000FFF7F0FF013EFBD140CF00BD0C270000EB
:102700005000065B636861725D0005E024270000ED
:10271000000004636861720000B501F049FC40CF1D
:10272000367800BD342700005004012847F8046DB6
:10273000292606E04E2700005004015C47F8046D8E
:10274000002600B501F03EFC043740CF00BD9227C3
:1027500000001000022E22009B4800B547F8046DCF
:10276000060000F05EFA47F8046D222601F02AFC0C
:1027700000F06AFD00BD0AB447F8046D7646013EDC
:1027800033780121013319405B181EEB030E0ABC9C
:1027900039E0B82700001000026322008B48DCE714
:1027A00047F8046D7646013E337801210133194024
:1027B0005B181EEB030E7047E22700001000027347
:1027C00022008348C9E747F8046D764647F8046D50
:1027D000013E36780121731C19405B181EEB030E75
:1027E0007047FA270000000005636F756E740136AC
:1027F00047F8046D013E367870472228000000003B
:1028000005637479706501B53078002807D001360A
:1028100047F8046D3678FFF7C5FD0138F7D140CF92
:1028200001BD50280000000004747970650031007B
:1028300040CF300040CF00B5002908D0002247F833
:10284000046D865CFFF7AEFD01329142F7D100BD09
:102850008A2800000000046865782E0007B5310062
:1028600040CF20200F22043847F8046D0E00C640E8
:102870001640092E01D9373600E03036FFF792FDB9
:102880000028F0D1FFF726FF07BD9A2800000000BE
:1028900003682E731FB54F4C0EE0AA2800000000FD
:1028A00003752E731FB54C4C06E02829000000006C
:1028B000022E73001FB5494C4949C91B8908494A72
:1028C000106803B40A201060FFF755FF08537461C5
:1028D000636B3A205B0047F8046D0E0001F041FD88
:1028E000FFF749FF025D200003BC3E4A106000294B
:1028F0000AD03D4A106806B447F8046D0600A047A8
:1029000006BC043A0139F5D1FFF735FF0620544FD4
:10291000533A200047F8046D3600A047FFF72BFF1D
:1029200004202A3E0A001FBDEC29000000000577A4
:102930006F72647300B5FFF71EFF010A00F0C1FE5D
:10294000FFF719FF09416464726573733A2047F811
:10295000046DFFF783FFFFF70EFF064C696E6B3ABD
:10296000200047F8046D3668FFF778FFFFF703FF94
:1029700007466C6167733A2047F8046DB688FFF725
:102980006DFFFFF7F8FE06436F64653A2000B01D47
:1029900000F0D0FE47F8046D0600FFF75FFFFFF779
:1029A000EAFE064E616D653A200047F8046D063672
:1029B000FFF729FFFFF7DFFE010A00F099FE300064
:1029C00040CFBDD040CF00BD76270000A02700003B
:1029D000C62700005D280000534300006343000049
:1029E00064020020FC9F002060020020502B0000A9
:1029F00000000D3132626974656E636F64696E67E1
:102A00000FB5FF2E04D847F8046D5FF0FF360FBDF9
:102A100016F0FF10B0420ED14FF6FF710840310C96
:102A2000814208D116F0FF0656F4805647F8046D2F
:102A30005FF0FF360FBD16F0FF20B0420FD14FF60A
:102A4000FF710840310C814209D1360A16F0FF06A9
:102A500056F4005647F8046D5FF0FF360FBDFF22B5
:102A600031001140300A1040884210D1300C104023
:102A700088420CD1300E1040884208D116F0FF0673
:102A800056F4405647F8046D5FF0FF360FBD300036
:102A900000210131001850F100007FF07F02024058
:102AA000802A05D01F29F4D347F8046D00260FBDF6
:102AB0000829F9D3060036F0800611F00100C001A4
:102AC000064311F00E00C002064311F0100080050D
:102AD000064347F8046D5FF0FF360FBD47F8046DFD
:102AE000DFF854665FF4704110EA010212011643E8
:102AF0005FF4006110EA0102D20316435FF4E06163
:102B000010EA010212011643FF2110EA01021643E6
:102B10001E4389E347F8046DDFF820665FF07041DB
:102B200010EA0102120B16435FF0006110EA010285
:102B3000520816435FF0E06110EA0102120B1643DF
:102B40005FF47F0110EA0102120C16431E436BE38F
:102B5000B62B000000001072656769737465726CB3
:102B600069746572616C2C000FB5330040CF1B0295
:102B7000FF2E05D856F400561E4300F026FB0FBD6D
:102B8000FFF73EFF002E40CF06D0DFF8B405064326
:102B90001E4300F049FB0FBDF643FFF731FF002E47
:102BA00040CF06D0DFF89C0506431E4300F03CFBF7
:102BB0000FBDF6430BE0162C00000000096D6F7688
:102BC000776D6F76742C0FB5330040CF1B02300049
:102BD00040CFFFF783FF4FF6FF7110EA014001D0AD
:102BE000FFF798FF0FBD0FB50136300040CF00232F
:102BF000FFF774FFFFF78EFF06E00FB5013647F8C9
:102C0000046D0026FFF7B0FF47F8046D44F28076AC
:102C100000F0DBFA0FBD7C2C000000000563616C46
:102C20006C2C0FB5330000F028FE300040CF1B1A8B
:102C3000043BDFF814151940002906D0DFF80C25F5
:102C4000914202D0BDE80F40D7E740CF5B08DFF8E4
:102C5000000540F2FF7119400843DB0A40F2FF31E2
:102C60001940090408439B0A13F00101890608432F
:102C700047F8046D060000F0D7FA0FBDB22C000033
:102C80000000086C69746572616C2C0008B547F827
:102C9000046D4FF6470600F098FA47F8046D46F6C3
:102CA000045600F092FA47F8046D0626FFF75CFF21
:102CB00008BDD62C000000000663726561746500D3
:102CC00000B500F033F842F6F340804747F8046D52
:102CD000BEF1010600BD1E2D0000200005646F65D9
:102CE000733E42F6F340804747F8046DBEF101069B
:102CF000704747F8046DBEF10106DFF858241368E9
:102D0000DFF8541409680220084000D00231023173
:102D10001160FFF768FF136000F0C4F900BD602D7B
:102D200000000000073C6275696C647300B500F038
:102D300057FB00F0A2FD0220064040CF04D047F828
:102D4000046D362600F041FA47F8046D4BF2005648
:102D500000F03BFA47F8046D0A2600F0A8FA00BD1F
:102D60006C2D00005000035B275D03E0842D000004
:102D70000000012700B501F01BF900F019FD30003B
:102D800040CF00BDC22D0000100008706F7374703A
:102D90006F6E650000B5FFF7EDFF102101400DD10A
:102DA0002021014005D0FFF771FF47F8046DEB4E7D
:102DB00004E0FFF76BFF47F8046DE94EFFF731FFC2
:102DC00000BD182E0000000007696E6C696E652C4E
:102DD00000B54BF200514BF6005244F2707330884C
:102DE000884208D0904208D0984206D047F8046D37
:102DF000060000F0EAF90236F1E740CF00BD0EB45C
:102E00004BF6005244F2707301880230914201D0B7
:102E10009942F9D10EBC70472E2E000000000472BA
:102E200065742C0047F8046D4BF60056CDE13C2E3E
:102E300000003000046578697400F3E7542E000048
:102E40003000077265637572736547F8046DC24E92
:102E50003668E6E66C2E00008100057374617465C7
:102E600047F8046DBF4E7047000000007E2E000042
:102E70000000015DBB480021C943016070478E2EF0
:102E800000001000015BB748002101607047B62EBA
:102E900000000008013A00B5B348076000F0A0FA4E
:102EA00047F8046D4BF2005600F08FF9AD48002151
:102EB000C943016000BD182F00003010013B00B570
:102EC000A9480168B9420ED0FFF755FC152053748C
:102ED00061636B206E6F742062616C616E63656408
:102EE0002E0A01F049BB47F8046D4BF600569D4889
:102EF0000068411C08D0062805D847F8046D41F247
:102F0000200600F0FEF8994E00F05FF900F0CAF8D4
:102F100094480021016000BD2C2F000000000765CF
:102F2000786563757465300040CF8746442F000094
:102F3000101009696D6D65646961746547F8046D09
:102F40001026DEE05A2F0000101006696E6C696EC4
:102F5000650047F8046D2026D3E0742F00001010A0
:102F60000B636F6D70696C656F6E6C7947F8046DFB
:102F70003026C6E08E2F000010100A302D666F6CD0
:102F80006461626C650047F8046D4026B9E0A82FC3
:102F9000000010100A312D666F6C6461626C650070
:102FA00047F8046D4126ACE0C22F000010100A3231
:102FB0002D666F6C6461626C650047F8046D422693
:102FC0009FE0DC2F000010100A332D666F6C6461E7
:102FD000626C650047F8046D432692E0F62F00000E
:102FE00010100A342D666F6C6461626C650047F8DE
:102FF000046D442685E01030000010100A352D665F
:103000006F6C6461626C650047F8046D452678E07A
:103010002A30000010100A362D666F6C6461626CF5
:10302000650047F8046D46266BE044300000101040
:103030000A372D666F6C6461626C650047F8046D39
:1030400047265EE074300000000008636F6E737402
:10305000616E740000B500F0C3F9FFF717FE47F882
:10306000046D44F2707600F0B0F8FFF78CFF00F0CA
:1030700019F800BD9630000000000932636F6E73CE
:1030800074616E7400B500F0ABF939683E600E46AD
:10309000FFF7FCFDE1E7F2300000000006736D75FC
:1030A0006467650000B52B4801682A4A91421AD22C
:1030B00002390A882E4B9A4204D147F8046D2D4EEE
:1030C00000F083F800F070F82B48006847F8046DB2
:1030D00006002A49096804311E4A1368116000F08D
:1030E00074F8136000BD00F05FF847F8046D002627
:1030F00008E080310000000008736574666C616749
:10310000730000B513480168124A914205D21A486B
:1031100001683143016040CF00BD320040CF174805
:10312000006804300188124B994201D1110000E07F
:103130001143018000BD0000000040F20000C0F219
:1031400000005FF000007FF00100C0FF0000C0FF42
:1031500000F800F00000002014000020D02D000036
:10316000222C0000D89F0020100000207047000093
:10317000FFFF0000000000002000002004000020ED
:103180009C310000410007616C69676E6564012035
:10319000304036180220304036187047C0310000E9
:1031A000000005616C69676E00B582480168022005
:1031B000014004D047F8046D002600F006F800BD79
:1031C00004320000000002682C000FB5B6B27A4845
:1031D0000168002902D0013100D001607548016802
:1031E000744A914205D247F8046D0E00FEF7F6FDD1
:1031F00002E0320040CF0A8047F8046D022600F05A
:1032000056F80FBD1E3200000000012C00B547F833
:10321000046DFFF7DAFF360CFFF7D7FF00BD3A3237
:1032200000000000033E3C2C00B547F8046D360C4E
:10323000FFF7CBFFFFF7C9FF00BDA232000000007F
:1032400007737472696E672C07B5FF21314040CF58
:10325000300040CF002905D147F8046D0026FFF764
:10326000B4FF07BD47F8046D067836020E43FFF73A
:10327000ACFF0130013902290AD347F8046D4678C2
:10328000360202781643FFF7A0FF02300239F2E758
:10329000002900D107BD47F8046D0678FFF795FFB8
:1032A00007BDFC320000000005616C6C6F74414882
:1032B0000168404A91420FD2320040CF89183F4AFC
:1032C000914219D3FFF757FA0B466C617368206679
:1032D000756C6C0A01F050B9320040CF8918384A39
:1032E0001268914208D3FFF746FA0952616D2066D1
:1032F000756C6C0A01F040B901607047243300001E
:1033000000000D636F6D70696C65746F72616D3F65
:1033100047F8046D0026274800682649884248D3AC
:10332000F64370474433000000000C636F6D706912
:103330006C65746F72616D001E4800681D4988429B
:1033400011D37047D033000000000E636F6D7069B9
:103350006C65746F666C6173680016480068154987
:10336000884200D270471748174902680B680A6004
:1033700003601048154902680B680A600360104832
:103380000068834215D300B5FFF7F5F92320566195
:10339000726961626C657320636F6C6C696465202F
:1033A000776974682064696374696F6E6172790A01
:1033B00000BD704700000020D89F002000000400DE
:1033C00024000020040000201C0000201800002021
:1033D000BA34000000000828637265617465290032
:1033E00000B500F0E5FD002E0ED1FFF7C4F9152061
:1033F000437265617465206E65656473206E616DEE
:103400006520210A01F0B8B8386847F8046D043F18
:10341000386000F09EF940CF002E40CF11D03868C0
:1034200047F8046D043F3860FFF7A5F90952656459
:103430006566696E6520FFF7FAF9FFF79CF9022EC1
:103440000A00FFF7B1FE00F018FA8E4800688D49B7
:1034500088421CD28C480021016047F8046D062682
:10346000FFF725FFFDF7C4FDFFF7EEFE8748016873
:103470000A68874B9A4207D1824A1368116047F85D
:10348000046DFFF7C3FE1360066040CF10E07F4875
:1034900047F8046D0668FFF7B9FE47F8046D7D4EE6
:1034A000FFF793FE7948310040CF0160FFF7CCFE73
:1034B000744801687848016000BDD2340000000003
:1034C000087661726961626C650047F8046D0126D7
:1034D00013E0EA340000000009327661726961622B
:1034E0006C6547F8046D022607E0C4350000000053
:1034F000096E7661726961626C6500B5FFF770FFF5
:10350000604801685F4A914234D20F200640B20001
:1035100062480168891A624A91420BD2FFF72BF97F
:103520000F4E6F7420656E6F7567682052414D0AAB
:1035300001F022B8016047F8046D0E00FFF7A6FB0A
:1035400047F8046D44F27076FFF73FFE300040CF3D
:103550000200002805D00E600431FFF757FE013845
:10356000F9D147F8046D80261643FFF7CAFDFFF72F
:1035700099FD00BD00F081F90220064040CF04D142
:1035800047F8046D3626FFF720FE47F8046D454ED8
:10359000FFF74AFE47F8046D434EFFF745FE47F834
:1035A000046D44F27076FFF710FE300040CF002823
:1035B00003D0FFF72BFE0138FBD1FFF7E4FCFFF748
:1035C00071FD00BDAC3600000000076275666665DF
:1035D000723A00B5FFF704FF012030403618022090
:1035E0003040361827480168264A914228D22B4895
:1035F0000168891B2A4A91420BD2FFF7BCF80F4E93
:103600006F7420656E6F7567682052414D0A00F037
:10361000B3BF016047F8046D0E00FFF737FB47F8B2
:10362000046D44F27076FFF7D0FDFFF7EFFD47F829
:10363000046D40F24016FFF764FDFFF733FD00BD57
:1036400000F01BF90220064040CF04D147F8046D7A
:103650003626FFF7BAFD47F8046D124EFFF7E4FD7A
:1036600047F8046D104EFFF7DFFD47F8046D44F294
:103670007076FFF7AAFDFFF71AFEFFF784FCFFF74D
:1036800011FD00BD000000202000002004000020EB
:10369000FFFFFFFFFFFF00001400002024000020B8
:1036A000640300203E60043F02367E46DA360000A6
:1036B00000000F64696374696F6E6172797374617D
:1036C000727441480068404947F8046D884201D24D
:1036D0003E4E70473E4E366870471437000000007B
:1036E0000E64696374696F6E6172796E65787400D7
:1036F00003B531683748814207D08879FF2804D064
:103700000E0047F8046D002603BD47F8046D00263F
:10371000F64303BD4637000000000A736B697073FF
:103720007472696E67003178013101220A4089188C
:103730007618704706B40178013101220A408918D1
:10374000401806BC7047DC37000000000466696E54
:1037500064003FB500220023350040CF340040CF45
:10376000FFF7AFFF1C48B188884217D047F8046DB7
:103770000636FFF73CF847F8046D260047F8046D5D
:103780002E00FEF76EFF002E40CF07D0B01DFFF7D2
:10379000D1FF02000B000C48824204D2FFF7A8FFC1
:1037A000300040CFDED0160047F8046D1E003FBD4C
:1037B00000B531003868FFF7CCFF3A68002A01D124
:1037C00000F046FE00BD000000000020880100005F
:1037D00004000020FFFFFFFFFFFF0000363800005D
:1037E000000006636A756D702C00320040CF310016
:1037F00040CF8B1B043BE849194000290DD0E74816
:1038000081420AD0FEF7B7FF0D4A756D7020746FC4
:103810006F206661720A00F0AFBE5B10FF210B40A3
:10382000134330001E0000B5DD4A13681060FFF737
:10383000CCFC136000BD6E3800000000056A756D99
:10384000702C310040CF300040CF0B1A043BD549DB
:103850001940002902D0D44A9142D3D15B10D34AF7
:10386000134053F4604347F8046D1E00DBE78438CF
:103870000000000004686572650047F8046DC84EDA
:1038800036687047BA39000000000D666C617368D5
:103890007661722D6865726547F8046DC44E3668AE
:1038A000704700B547F8046D42F60066FFF78DFCDF
:1038B00047F8046D4CF64076FFF787FC00BDDCE767
:1038C00000B500F03AF839683E600E4647F8046DDE
:1038D0004DF20016FFF789FF00BD00B500F02DF88E
:1038E00039683E600E4647F8046D4DF20076FFF7EA
:1038F0007CFF00BD00B5FFF7D4FF00F01EF839686B
:103900003E600E4647F8046D4DF20006FFF76DFF6E
:1039100000BD00B500F011F839683E600E46FFF7B3
:1039200090FF00BD00B5FFF7BCFFFFF7A6FF47F80B
:10393000046D0226FFF7BBFC00BD00B5FFF79DFF3D
:1039400047F8046D0226FFF7B2FC00BD00B5FFF793
:1039500094FFFFF776FF00BD00B5FFF78EFF47F835
:10396000046D4DF20006FFF740FF00BD00B5FFF704
:1039700084FF47F8046D4DF20016FFF736FF00BDD7
:1039800000B5FCF76DFDFCF7A3FCFCF7A6FCFCF70B
:10399000A9FC8168282901D1FCF7A8FDFCF79CFD52
:1039A00047F8046D42F6000609020E43FFF70DFCCE
:1039B000FCF757FCFCF780FC00BD2E3A00003006F7
:1039C0000269660000B5FFF7ADFF47F8046D4DF2E0
:1039D000000647F8046D022600BD00B5FCF7D3FDD4
:1039E000FDF79EFE816A002910D002B4FCF764FC4A
:1039F000FFF743FF47F8046D0226FFF758FC47F82E
:103A0000046D40BC47F8046D022600BDFFF7B8FF07
:103A1000FFF733FF47F8046D0226FFF748FC47F82D
:103A2000046D4DF2000647F8046D022600BD623AAF
:103A30000000300004656C73650000B5022E40F094
:103A4000268040CFFFF779FFFDF7D2FAFFF715FF89
:103A500039683E600E46FFF7C8FE47F8046D05263C
:103A600000BDAE3A00003000047468656E00052E9B
:103A700001D140CF6AE7022E09D140CF00B5FFF750
:103A8000FCFE39683E600E46FFF7AFFE00BDFEF754
:103A900072FE175374727563747572657320646F68
:103AA0006E2774206D617463680A00F065BDDC3AAE
:103AB000000030000672657065617400042EE6D166
:103AC00040CF00B5FDF778FAFFF723FFFFF7D5FEEB
:103AD00039683E600E46FFF788FE00BD083B0000D7
:103AE0003006057768696C65012ED0D140CF00B5EE
:103AF000FFF768FF023600BD012EC8D140CF00B5E8
:103B0000FFF76BFF023600BD683B0000300605750D
:103B10006E74696C012EBAD140CFEBE67047012E6E
:103B2000B5D140CF00B5FDF7FBFD816A00290DD06E
:103B300002B4FCF7C1FBFFF700FF39683E600E4698
:103B400047F8046D40BCFFF750FE00BDFFF718FFBB
:103B5000FFF7F3FE39683E600E4647F8046D4DF2FC
:103B60000006FFF742FE00BD7C3B0000300005610F
:103B70006761696E012E8AD140CFCAE6B43B00006E
:103B8000300005626567696E00B5FFF798FE47F87B
:103B9000046D012600BD000001FFFFFF00FFFFFFD5
:103BA0000000002001F8FFFF00F8FFFFFF07000002
:103BB00024000020CE3B00002002016B47F8046D7A
:103BC000029E704747F8046D49F602060BE0FC3B85
:103BD00000002002016A47F8046D009E704747F814
:103BE000046D49F6000600B5FCF731FBFCF704FC58
:103BF00003601B021E43FFF7E8FA00BD283C0000EB
:103C00002002016947F8046D2600704700B547F8A7
:103C1000046D40F22006FCF71AFBFCF7EDFB036095
:103C20001E43FFF7D2FA00BD663C00003000056C71
:103C30006561766500B5754801683B00043F1A6808
:103C4000043B1A6008338B42F9D103B4FFF775FEC9
:103C500003BC330040CF04390B60016004390A68AB
:103C600001320A6000BD783C0000200006756E6CD1
:103C70006F6F700030BC7047B03C00003000052B07
:103C80006C6F6F70032E00D001E740CF00B547F88E
:103C9000046D5F4EFFF79CF8FFF71FFE1AE014F16A
:103CA0000044641BA41940CF2C44A4F10044704785
:103CB000F23C00003000046C6F6F7000032E00D0E7
:103CC000E5E640CF00B547F8046D524EFFF780F8A7
:103CD000FFF7F6FD00F052F94C48310040CF01608B
:103CE00047F8046D4C4EFFF773F800BD0134AC4249
:103CF00070473A3D0000300202646F0000B547F89B
:103D0000046D464EFFF764F84048016847F8046DBB
:103D10000E0047F8046D00260760FFF7D0FD47F856
:103D2000046D032600BD00B500F02FF8ECE730B4B9
:103D3000340040CF350040CF7047203E00003002B5
:103D4000033F646F00B547F8046D344EFFF740F849
:103D500047F8046D44F2AC26FFF737FA2B480168A8
:103D600047F8046D0E00FFF7E8FD013647F8046DD3
:103D7000012626480760FFF7A2FD47F8046D0326D9
:103D800000BD00B500F001F8E2E700B5FCF7FBFB71
:103D9000FCF770FBFCF79CFAFCF79FFAFCF7A2FA21
:103DA00047F8046D4BF23046FFF70FFA01682829F7
:103DB00008D047F8046D40F20406C9000E43FFF72F
:103DC00004FA07E047F8046D466847F8046D0426D6
:103DD000FEF7CAFE8168282908D047F8046D40F232
:103DE0000506C9000E43FFF7F0F907E047F8046D38
:103DF000C66847F8046D0526FEF7B6FEFCF731FAF3
:103E0000FCF72FFAFCF778FA00BD00000C00002048
:103E10009E3C0000EC3C0000743C00002E3D000085
:103E2000403E0000300004636173650000B5FCF79C
:103E3000AAFB47F8046D002647F8046D082600BD6C
:103E4000563E00003000033F6F66714809E0013EB6
:103E5000B64140CF70471C3F00003002026F660041
:103E60006C48082E00D012E640CF00B547F8046D2C
:103E70000600FEF7ADFFFFF760FD39683E600E46B5
:103E8000013647F8046D092647F8046D4CF6407674
:103E9000FFF79BF900BD082E00D0F8E540CF00B534
:103EA000FCF7E8FAFCF714FAFCF717FAFCF71AFA31
:103EB00047F8046D44F28026FCF718FB0E430268B5
:103EC000282A1ED14268FF2A08D840CF47F8046D3F
:103ED00042F60006164309020E4314E047F8046D4B
:103EE0004668FEF78DFD04CF002E40CF06D04A4E27
:103EF000164356EA0146FFF797F906E0FCF7ECFA9D
:103F00000A00D2001643FFF760F9FCF7AAF9FCF7A4
:103F1000F3F9B0E7300040CFB0427047523F0000A5
:103F2000300005656E646F66092E00D0AFE540CFA6
:103F300000B540B440CFFFF700FD39683E600E4643
:103F4000FFF714FD47F8046D40BC47F8046D0826E0
:103F500000BDA43F0000300007656E6463617365B7
:103F6000082E00D093E540CF00B547F8046D4CF61D
:103F70004076FFF72AF900F001F800BD00B53000E7
:103F800040CF00280DD003B401213140002903D0D7
:103F9000013EFFF7E1FC01E0FFF7D8FC03BC01386C
:103FA000EFE700BDB83F0000000005746F6B656E61
:103FB00047F8046D202605E0204000000000057051
:103FC0006172736510B5FEF720FB310040CF300001
:103FD00040CF124A12688418202E07D191420FD088
:103FE000835CB34202D101328418F7E7914207D0D3
:103FF000835C0132B342F9D18618361B013E01E0E1
:104000008618361B043F3C600448026010BD000067
:104010004E3E0000143F0000000FB0F1E49F00206E
:104020005E4000000000056469676974CF4B1B683F
:10403000303E0BD30A2E0BD3073E0A2E06D3242E76
:1040400006D3203E0A2E01D3242E01D3002670472A
:104050009E42FBD247F8046D0026F6437047684144
:1040600000000000066E756D626572003FB531009C
:1040700040CF701E0126012204B4BC4B1B680024F3
:10408000002500293CD00130013902782D2A04D1C5
:1040900001B00022D24304B4F3E7232A01D10A235A
:1040A000EFE7242A01D11023EBE7252A01D10223CF
:1040B000E7E72E2A01D10226E3E72C2A36D047F87B
:1040C000046D1600FFF7B4FF002E40CF2BD047F849
:1040D000046D260047F8046D2E0047F8046D1E009D
:1040E00047F8046D00260FB4FCF755FC0FBC3500F3
:1040F00040CF340040CF0022A419554140CFC0E743
:1041000004BC002A04D50022E443ED4301345541A8
:1041100033002600012B02D047F8046D2E0047F82B
:10412000046D1E003FBD01B000263FBD25000024E8
:1041300002260029E4D0425C01392E2AF9D047F842
:10414000046D1600FFF774FF002E40CFEBD0043F44
:104150003C6047F8046D1E000FB4FCF7CBFC0FBCAD
:10416000340040CF40CFE4E78A4100000000062E33
:104170006469676974000A2E01D230367047242EB4
:1041800001D23736704723267047C0410000000037
:1041900004686F6C6400330040CF754801783F2994
:1041A0000DD2013101704018012907D00138027881
:1041B00001300270013801390129F7D103707047CD
:1041C000E0410000000005686F6C643C330040CFA4
:1041D000674801783F2902D201310170435470478A
:1041E000F84100000000047369676E00002E01D4DE
:1041F00040CF70472D26CEE70C420000000002237E
:104200003E005B4806780130386070472442000069
:1042100000000366235310B5202400F008F8013C89
:10422000FBD110BD4642000000000266230000B52D
:1042300047F8046D4D4E3668FCF76FFBFFF79BFFA8
:10424000FFF7C4FF00BD62420000000002235300DC
:1042500000B500F00AF8002EFBD138680028F8D12C
:1042600000BD8E4200000000012300B547F8046D38
:104270003E4E366847F8046D0026FCF75AFCFCF702
:10428000BAF940CFFFF777FFFFF785FF00BDA042E7
:1042900000000000023C23003548002101707047F7
:1042A000B2420000000002662E0047F8046D20268E
:1042B00004E000430000000003662E6E00B510B459
:1042C000340040CFFCF766FEFCF7ACFA47F8046D0B
:1042D0000026FFF7E1FFFFF7BBFF40CF2C26FFF7DB
:1042E00075FF002C03D0FFF7A2FF013CFBD110BCEF
:1042F00040CFFFF77BFF47F8046D47F8046D1CE0E3
:104300001643000000000375642E00B5FFF7C4FFDC
:10431000FFF79EFF11E048430000000002642E00FA
:1043200000B5FCF737FEFCF77DFAFFF7B5FFFFF7A6
:104330008FFFFCF741FEFFF759FFFFF762FFFEF723
:1043400076FAFEF7C7F900BD5A4300000000027577
:104350002E0047F8046D0026D7E7744300000000E4
:10436000012E47F8046DF617DAE70000FC9F0020E5
:104370005C000020BC4300000000086576616C759D
:104380006174650000B5FEF740F901CF01B440B497
:1043900040CF8948016802B400210160FEF728F986
:1043A00000F014F8844802BC016047F8046D40BC7A
:1043B00001BC043F3860FEF71BF900BD504500000A
:1043C000000009696E7465727072657430B57B485F
:1043D00087420BD9FEF7CFF910537461636B2075D8
:1043E0006E646572666C6F770A00C5E07448874238
:1043F0000AD2FEF7C0F90F537461636B206F7665C4
:1044000072666C6F770AB7E06E4C2568002D01D19B
:104410003D002560FFF7CCFD002E02D1043740CFD0
:1044200030BD386847F8046D043F3860FFF791F9F4
:10443000310040CF320040CF002A15D1386831001A
:10444000FDF729F9FFF712FE320040CF002ABED156
:10445000FEF7F1F9FEF78FF90C206E6F7420666F8E
:10446000756E642E0A0087E0574B1B68002B29D11C
:1044700000252560554B0B4009D0043740CF5448E8
:104480000760FEF7ADFF5048012101609FE7302330
:104490000B40302B0ED1FEF7CAF9FEF76CF9122053
:1044A000697320636F6D70696C652D6F6E6C792E0A
:1044B0000A0061E0043740CF47F8046D1600FEF7AC
:1044C00032FD84E7043740CF4248084001D1FDF770
:1044D000E2F88020084008D1EB1B9B0840200840F0
:1044E00009D00F200840834205D347F8046D160019
:1044F000FEF719FD6BE7384808400CD0FBF757FE74
:104500001000FEF77CFC421C3448904738002060C5
:10451000FBF75CFE5BE7FBF74AFEFBF7CDFE0025F1
:1045200025602F48084001D1FCF72DF847F8046DAD
:10453000160010220A4002D0FEF7F5FC47E72022C1
:104540000A4002D0FEF744FC41E7FEF76AFB3EE773
:104550006C450000810009686F6F6B2D717569747F
:1045600047F8046D1F4E7047A4450000F845000051
:104570000000047175697400DFF86CD00F4F1B48A0
:104580000A2101601048002101600E480160FBF71C
:10459000DAFE094801601648016016494160114879
:1045A00000688746FEF73FF8FFF710FFFEF7E3F8D5
:1045B00005206F6B2E0AF5E7E49F002064020020BF
:1045C0006401002008000020D89F0020000800009F
:1045D000100000200004000000020000280000205D
:1045E00000100000D49F002064030020FC9F0020E6
:1045F000DC9F00209C0000201246000000000565A2
:10460000696E743F47F8046DEFF31086013EB641C2
:1046100070472246000020000465696E740062B68F
:1046200070473246000020000464696E740072B660
:10463000704748460000200004697073720047F814
:10464000046DEFF305867047544600000000036ECA
:104650006F70704796460000000009756E68616EC5
:10466000646C656400B5FEF786F814556E68616E7B
:10467000646C656420496E74657272757074200094
:1046800047F8046DEFF30586FEF7E8F8FEF773F8D8
:1046900002210A0000BDA8460000000005726573F3
:1046A0006574C748C7490160D246000081000B69A4
:1046B00072712D7379737469636B47F8046DC24E20
:1046C00070476446000049F6D070C2F200000068EE
:1046D0008746FA4600008100096972712D6661758E
:1046E0006C7447F8046DB94E70476446000049F693
:1046F000CC70C2F2000000688746284700008100A5
:104700000E6972712D636F6C6C656374696F6E00F6
:1047100047F8046DAE4E70476446000049F6C87015
:10472000C2F2000000688746504700008100096916
:1047300072712D657874693047F8046DA54E704725
:104740006446000049F6C470C2F200000068874663
:10475000784700008100096972712D6578746931AC
:1047600047F8046D9C4E70476446000049F6C070DF
:10477000C2F2000000688746A04700008100096976
:1047800072712D657874693247F8046D934E7047E5
:104790006446000049F6BC70C2F20000006887461B
:1047A000C84700008100096972712D65787469330A
:1047B00047F8046D8A4E70476446000049F6B870A9
:1047C000C2F2000000688746F047000081000969D6
:1047D00072712D657874693447F8046D814E7047A5
:1047E0006446000049F6B470C2F2000000688746D3
:1047F000164800008100076972712D61646347F8F3
:10480000046D794E70476446000049F6B070C2F2FC
:104810000000006887463E48000081000869727108
:104820002D74696D320047F8046D704E7047644610
:10483000000049F6AC70C2F2000000688746664886
:1048400000008100086972712D74696D330047F8AA
:10485000046D674E70476446000049F6A870C2F2C6
:104860000000006887468E48000081000869727168
:104870002D74696D340047F8046D5E4E70476446D0
:10488000000049F6A470C2F200000068874600509C
:104890000000FFFF182D2D2D20466C617368204409
:1048A000696374696F6E617279202D2D2D00FDF79B
:1048B00015FD51488546514F2A2651484E49016001
:1048C00050485149016047F8046D4F4E4F4DB18833
:1048D0004F4B994224D04F4B0B400AD0B01DFEF7EE
:1048E00029FFFEF78CFA0388408800040343ED1A81
:1048F00016E080230B4013D00F23194089006D1A56
:10490000B01DFEF717FFFEF77AFA47F8046D0600B0
:1049100047F8046D2E0047F8046D0E00FCF780FF89
:10492000FEF7E6FE300040CFD1D03B48066040CFD6
:104930003A4805603A483B49354A884204D0023833
:1049400003889342F9D0023037490860FDF713FF1E
:10495000454D6563726973702D5374656C6C61723B
:10496000697320524120312E32206578706572695A
:104970006D656E74616C20666F722053544D3332D6
:1049800046333033206279204D61747468696173F5
:10499000204B6F63680A25480021016047F8046DC9
:1049A000234E47F8046D0426FEF7D3FE40CF002EB9
:1049B00002D0FEF7B8FAF2E540CFDDE5696E697422
:1049C0000CED00E00400FA05D09F0020CC9F0020F1
:1049D000C89F0020C49F0020C09F0020BC9F0020D3
:1049E000B89F0020B49F0020B09F0020AC9F002003
:1049F000A89F0020A49F00206403002064020020E0
:104A000000000020040000208801000000A0002019
:104A1000FFFF0000000100001C0000202400002017
:104A200000000400005000001800002008000020D2
:044A3000BC4900007D
:0400000508000000EF
:00000001FF
