:020000040800F2
:1000000030030020153900002F3700002F37000083
:100010002F3700002F3700002F37000000000000AE
:100020000000000000000000000000005D3700003C
:100030005D370000000000005D370000073700005A
:100040005D3700005D3700005D3700005D37000060
:100050005D3700005D37000085370000AD370000D8
:10006000D5370000FD370000253800005D3700005F
:100070005D3700005D3700005D3700005D37000030
:100080005D3700005D3700004B3800005D37000031
:100090005D370000713800005D3700005D370000FB
:1000A0005D3700005D3700005D3700005D37000000
:1000B0005D37000099380000C1380000E9380000C1
:1000C0005D3700005D3700005D3700005D370000E0
:1000D0005D3700005D3700005D3700005D370000D0
:1000E0005D3700005D3700005D3700005D370000C0
:1000F0005D3700005D3700005D3700005D370000B0
:100100005D3700005D3700005D3700005D3700009F
:100110005D3700005D3700005D3700005D3700008F
:100120005D3700005D3700004E01000000001E2D0D
:100130002D2D204D6563726973702D5374656C6C41
:100140006172697320436F7265202D2D2D00660149
:1001500000004280043264757000386847F8046D0E
:10016000043F386070477801000062800532647295
:100170006F70043740CF704796010000448005320D
:100180007377617007CF043F386047F8046D043F10
:100190003A600E007047AA010000628004326E6966
:1001A000700007CF043F38607047C40100004480EE
:1001B00005326F766572B86847F8046D043F3860A1
:1001C000FE687047E8010000448005327475636B77
:1001D00007CF043F386047F8046D043F3A60043F9E
:1001E0003960043F386070470A02000046800432DC
:1001F000726F74003868B9683A69B86039613A60FA
:1002000079687E60FE68F96070472C0200004680C5
:1002100005322D726F743868B9683A69386139608F
:10022000BA60F968FE607E6879607047400200003D
:10023000208003323E7201CF01B440B440CF7047FA
:100240005802000020800332723E47F8046D40BC23
:1002500001BC043F38607047700200002080033208
:10026000724047F8046D019E47F8046D009E704788
:1002700082020000208006327264726F700002B049
:1002800070479A02000042800364322F3868F107F9
:1002900076104008084338607047AE020000628064
:1002A0000364322A38680018764138607047C80203
:1002B000000042800464736872003868F1077608B1
:1002C0004008084338607047DE0200006280046422
:1002D00073686C0038680018764138607047F00227
:1002E00000004280046461627300002E07D47047EE
:1002F0000E030000428007646E65676174653868AC
:100300000021C043F64301304E4138607047260358
:100310000000648002642D0007CF121AB1410E0064
:10032000043F3A6070473C030000648002642B0085
:1003300007CF12184E41043F3A6070474E03000049
:10034000618003733E6447F8046DF61770476203DB
:100350000000628003756D2A3868A0FB06063860CD
:100360007047760300006280026D2A00386880FBC7
:10037000060638607047B403000044800375642AA1
:1003800007CF564341437618010C130C5943761896
:10039000010C80B292B25143434350430022C9182A
:1003A00052411204B6180A04090C80184E41043F49
:1003B000386070474604000044800475646D2A006C
:1003C00010B5002447F8046D7E6847F8046D3E6957
:1003D000FFF7C2FF310040CF300040CF47F8046D37
:1003E0003E6847F8046DFE6803B4FFF7B5FF03BC31
:1003F000330040CF320040CF47F8046D3E6847F8E5
:10040000046D3E690FB4FFF7A7FF0FBC921963415B
:1004100040CF89196241634140CF47F8046D7E683F
:1004200047F8046DFE680FB4FFF796FF0FBC9219F2
:10043000634140CF89196241634140CF1E003A6059
:100440007960B86010BD680400004380022A2F0064
:1004500000B540B440CFFFF789FF47F8046D40BCBA
:1004600000F04CF8043700BD8A0400004380052AE0
:100470002F6D6F6400B540B440CFFFF777FF47F8AA
:10048000046D40BC00F03AF800BDAC0400004380AD
:1004900003752A2F00B540B440CFFFF75DFF47F842
:1004A000046D40BC00F01BF8043700BDD004000010
:1004B000438006752A2F6D6F640000B540B440CFAD
:1004C000FFF74AFF47F8046D40BC00F008F800BD94
:1004D000F0040000438006756D2F6D6F640000B559
:1004E00047F8046D002600F019F840CF043700BD2E
:1004F0000E0500004380056D2F6D6F6400B547F851
:10050000046DF61700F032F840CF043700BD6005E7
:10051000000044800675642F6D6F640030B40023C2
:1005200000227968B86835003C684026400049419F
:1005300052415B41AB4202D804D3A24202D3121B08
:10054000AB410130013EF1D10E0038607B60BA60F2
:1005500030BC704730B400237A68B9680020E2E705
:10056000D6050000448005642F6D6F6400B5F01758
:1005700019D0FFF7C4FEFFF705FEF0170CD0FFF708
:10058000BEFEFFF7FFFDFFF7C9FFFFF7FBFDFFF71B
:10059000B6FEFFF7F7FD00BDFFF7F4FDFFF7BEFF66
:1005A000FFF7ADFE00BDFFF7EDFDF0170ED0FFF732
:1005B000A6FEFFF7E7FDFFF7B1FFFFF7A0FEFFF78D
:1005C000E1FDFFF79CFEFFF7DDFD00BDFFF7DAFD63
:1005D000FFF7A4FF00BDEC050000448002642F007B
:1005E00000B5FFF7C3FFFFF7DCFD00BD34060000D8
:1005F000448002662A0000B5F0170DD0FFF77FFE99
:10060000FFF7C0FDF0170DD0FFF779FEFFF7D8FE1A
:1006100040CF01CF386000BDFFF7B4FDF017F5D033
:10062000FFF76DFEFFF7CCFE40CF01CF3860FFF73C
:1006300066FE00BD80060000448002662F0000B503
:10064000F0170ED0FFF75BFEFFF79CFDF0170ED002
:10065000FFF755FEFFF796FDFFF77CFFFFF7A1FDC3
:1006600000BDFFF78FFDF017F4D0FFF748FEFFF74E
:1006700089FDFFF76FFFFFF742FEFFF792FD00BD18
:100680009406000020800232210006CF31607260A3
:1006900040CF7047A8060000208002324000043F8F
:1006A0007068386036687047C8060000448003648C
:1006B000753C07CF8E4204D801D1904201D8002664
:1006C00070470026F6437047E80600004480036444
:1006D000753E07CFB14204D801D1824201D800262D
:1006E00070470026F6437047080700004480026404
:1006F0003C0007CF8E4204DC01D1904201DC002691
:1007000070470026F64370472807000044800264C3
:100710003E0007CFB14204DC01D1824201DC002659
:1007200070470026F6437047380700006280036474
:10073000303C0437F61770474C07000062800364B2
:10074000303D01CF0643013EB641704766070000C9
:10075000448003643C3E07CF50404E400643013E78
:10076000B641F64370477E070000448002643D00B6
:1007700007CF50404E400643013EB64170479007B8
:10078000000020800373704047F8046D3E007047FE
:10079000A0070000208003737021370040CF70470E
:1007A000B207000020800372704047F8046D6E4667
:1007B0007047C2070000208003727021B54640CF09
:1007C0007047D207000061800364757047F8046DBC
:1007D0007047E207000061800464726F700040CFD0
:1007E0007047F80700006180043F64757000002EB8
:1007F00001D047F8046D70470C0800006280047354
:100800007761700039683E600E0070471A0800007A
:100810006280036E6970043770472E0800006280A2
:10082000046F7665720047F8046D7E68704744086F
:1008300000006280047475636B0001CF083F7E6026
:10084000386070475A080000638003726F7403CFEA
:10085000083F78603E600E007047720800006380B9
:10086000042D726F740003CF083F7E60396006006C
:100870007047840800002080047069636B0057F89B
:10088000266070479C0800000080056465707468ED
:10089000BC49C91B47F8046D8E087047B8080000B2
:1008A0000080067264657074680047F8046D6E46D7
:1008B000B549891B8E087047C80800002080023E99
:1008C000720040B440CF7047DA0800002080027206
:1008D0003E0047F8046D40BC7047EC0800002080E3
:1008E0000272400047F8046D009E7047FC0800004B
:1008F0002080057264726F7001B0704710090000AB
:10090000208005727069636BB6006E44366870476C
:10091000260900006E8003616E6401CF06407047B7
:100920000640000616F03E0900006E80036269630F
:1009300001CFB043060070478643000636F05409E5
:1009400000006E80026F720001CF064370470643BD
:10095000000656F06A0900006E8003786F7201CFBE
:10096000464070474640000696F0780900006180D6
:10097000036E6F74F643704788090000618003635B
:100980006C7AB6FA86F670479609000061800373A8
:10099000687276087047A409000061800373686C70
:1009A00076007047B4090000618003726F725FEADD
:1009B00076067047C6090000618003726F6CB61935
:1009C00056F100067047E00900006C8006727368FB
:1009D0006966740001CFF0400600704736080026B3
:1009E000FA0900006C80076172736869667401CF50
:1009F0003041060070473610F617140A00006C806C
:100A0000066C73686966740001CFB04006007047D9
:100A100036000026240A0000618002303D00013EBD
:100A2000B6417047360A0000618003303C3E013E0B
:100A3000B641F6437047440A0000618002303C0032
:100A4000F61770475A0A00006080047472756500DA
:100A500047F8046D0026F64370476E0A0000608078
:100A60000566616C736547F8046D00267047820A5D
:100A700000004280023E3D0001CFB042EADA00268B
:100A80007047960A00004280023C3D0001CFB04210
:100A9000E0DD00267047A80A00004280013C01CF3B
:100AA000B042D7DB00267047BA0A00004280013E00
:100AB00001CFB042CEDC00267047CE0A0000628033
:100AC00003753E3D01CF861BB641F6437047E20AEF
:100AD0000000628003753C3D01CF361AB641F643F3
:100AE0007047F40A0000628002753C0001CF861B4B
:100AF000B6417047060B0000628002753E0001CFD0
:100B0000361AB64170471C0B00006B80023C3E0059
:100B100001CF361A013EB641F64370472E0B000056
:100B20006B80013D01CF361A013EB6417047420B42
:100B300000006280036D696E01CFB04200DC0600E8
:100B40007047560B00006280036D617801CFB042A0
:100B500000DB060070476C0B0000628004756D615D
:100B6000780001CFB04200D3060070478C0B000024
:100B7000628004756D696E0001CFB04200D8060036
:100B8000704700003002002030030020CA0B000034
:100B90000080046D6F76650007B5310040CF3200EC
:100BA00040CF00290FD0B2420DD006D3013E013A0A
:100BB000705C50540139FBD105E03078107001367B
:100BC00001320139F9D140CF07BDEC0B00000080A4
:100BD0000466696C6C00300040CF310040CF0029C2
:100BE00002D001397054FCD140CF7047F80B00009F
:100BF0002080014036687047100C00006D80012194
:100C000003CF30600E007047066070470160704788
:100C1000360C00006D80022B210003CF32681218C1
:100C200032600E00704702689219026070470268D5
:100C3000521802607047440C000020800268400097
:100C4000368870475E0C00006D800268210003CF7B
:100C500030800E0070470680704701807047840C1A
:100C600000006D8003682B2103CF32881218328078
:100C70000E0070470288921902807047028852184D
:100C800002807047920C000020800263400036789A
:100C90007047AC0C00006D800263210003CF307000
:100CA0000E0070470670704701707047D20C00004C
:100CB0006D8003632B2103CF3278121832700E003F
:100CC00070470278921902707047027852180270C9
:100CD0007047FA0C00006D8004626973210003CF35
:100CE0003268024332600E0070470268324302608D
:100CF000704702680A4302607047220D00006D8051
:100D000004626963210003CF3268824332600E00BF
:100D100070470268B2430260704702688A4302600B
:100D200070474A0D00006D8004786F72210003CF78
:100D30003268424032600E007047026872400260C2
:100D4000704702684A4002607047B20D0000688038
:100D500004626974400001CF3668064018BF4FF046
:100D6000FF367047E34A00B5012B0AD147F8046DFE
:100D7000002600F07DFF47F8046D160001F09EFA92
:100D800011E002CF013B02F0F8FB47F8046D362674
:100D9000164301F093FA47F8046D0E0047F8046D0E
:100DA000002600F065FF47F8046DD34E01F094F87B
:100DB00000BDDA0D00006D8005686269732103CF04
:100DC0003288024332800E0070470288324302802C
:100DD000704702880A4302807047020E00006D804F
:100DE00005686269632103CF3288824332800E0036
:100DF00070470288B2430280704702888A430280AB
:100E000070472A0E00006D800568786F722103CF4D
:100E10003288424032800E00704702887240028061
:100E2000704702884A4002807047480E0000688080
:100E300005686269744001CF3688064018BF4FF0DC
:100E4000FF367047AD4A8EE7700E00006D80056377
:100E50006269732103CF3278024332700E0070470B
:100E6000027832430270704702780A43027070477A
:100E7000980E00006D8005636269632103CF3278AC
:100E8000824332700E0070470278B243027070479E
:100E900002788A4302707047C00E00006D800563BF
:100EA000786F722103CF3278424032700E00704763
:100EB000027872400270704702784A4002707047B0
:100EC000DE0E0000688005636269744001CF3678E9
:100ED000064018BF4FF0FF367047894A43E7EE0ED1
:100EE000000061800563656C6C2B04367047FE0E54
:100EF000000061800563656C6C73B6007047E40F99
:100F00000000008006666C6173682100300040CFED
:100F1000310040CF7B4B984253D3032202401AD179
:100F2000002917D00268002A32D110F10060764AF9
:100F3000764B1360764B1360764A774B1360774B92
:100F400013600160764A136813F00103FBD1754A00
:100F500007231360704700F092FC304164647265AF
:100F600073732068617320746F20626520342D6173
:100F70006C69676E656420666F7220777269746948
:100F80006E6720666C61736820210A0002F01CBB4A
:100F900000F075FC29466C617368206C6F636174A6
:100FA000696F6E2063616E6E6F7420626520777268
:100FB000697474656E20747769636520210A02F094
:100FC00003BB00F05CFC1943616E6E6F7420777296
:100FD00069746520696E746F20636F726520210AE1
:100FE00002F0F2BA5E10000000800E666C61736859
:100FF000706167656572617365000FB5300040CF41
:10100000404B98421CD310F100603F4A3F4B1360A5
:101010003F4B13603F4A404B1360404B1360414AC3
:101020005FF40273136030F0FF00002202603C4A5C
:10103000136813F00103FBD13A4A072313600FBD75
:1010400000F01DFC1443616E6E6F74206572617355
:101050006520636F726520210A0002F0B5BAD810CE
:10106000000000800A6572617365666C61736800D8
:10107000244872B62C490388002B1CD047F8046D15
:10108000060047F8046D00F0FAFB104572617365C5
:1010900020626C6F636B20617420200000F062FCA2
:1010A00000F0EDFB0C2066726F6D20466C6173687A
:1010B0000A00FFF7A2FF02308842DCD100F0DFFB1C
:1010C0001246696E69736865642E20526573657493
:1010D00020210A0002F005BB7411000000800E659B
:1010E00072617365666C61736866726F6D00300063
:1010F00040CFBEE7006800005A0D000000880000E5
:1011000000780000004000000C3C0240EFCDAB89AD
:1011100005040302103C0240BFAE9D8C161514134B
:10112000183C0240043C0240000008004648602190
:101130000022028002300139FBD170474248602111
:101140000288002A12D000F09AFB1D556E7061696A
:101150007265642031362D62697420466C61736853
:101160002077726974652E0A02F02EBA02300139B6
:10117000E6D170474C12000000800768666C61730E
:10118000682130B5320040CF500813D300F077FB10
:101190001E68666C61736821206E656564732065E6
:1011A00076656E206164647265737365732E0A00E0
:1011B00002F00ABA022353402348202104884588BC
:1011C0002D042C439C422AD006300139F6D11E480A
:1011D0002021048845882D042C431AD0063001397B
:1011E000F7D100F04CFB27546F6F206D616E7920B2
:1011F000756E7061697265642031362D6269742084
:10120000466C617368207772697465732E0A02F008
:10121000DBB90280120C4280868040CF30BD0221B3
:10122000114003D0023A8188360401E08188090424
:101230000E4347F8046D1600002101804180818033
:10124000FFF764FE30BD0000300300206212000092
:101250006980012B01CF361870473618003600061A
:1012600016F1781200006980012D01CF861B7047AE
:10127000361A003E0006B6F1861200006180023187
:101280002D00013E704794120000618002312B0056
:1012900001367047A2120000618002322D00023E2A
:1012A0007047B0120000618002322B000236704796
:1012B000C21200006180066E656761746500764247
:1012C0007047D4120000618003616273F017361812
:1012D00046407047F2120000428005752F6D6F6422
:1012E00001CF3100B0FBF6F67143401A043F38607D
:1012F0007047101300004280042F6D6F640001CF0F
:10130000310090FBF6F67143401A043F3860704795
:10131000241300004280036D6F6400B5FFF7EFFFF8
:1013200040CF00BD341300006280012F01CF90FB3D
:10133000F6F67047441300006A80012A01CF464345
:101340007047464352130000618002322A00760043
:10135000704760130000618002322F0076107047E2
:10136000741300006180046576656E0001203040D2
:10137000361870478C130000818004626173650029
:1013800047F8046D894E70470A000000A213000060
:1013900000800662696E61727900844802210160F2
:1013A0007047B8130000008007646563696D616C65
:1013B0007E480A2101607047CA130000008003685C
:1013C00065787A48102101607047E613000081803B
:1013D00009686F6F6B2D656D697447F8046D744E05
:1013E0007047D014000002140000818008686F6FFD
:1013F0006B2D6B65790047F8046D6E4E7047F614DF
:1014000000002014000081800A686F6F6B2D656DED
:1014100069743F0047F8046D674E7047201500005F
:101420003C140000818009686F6F6B2D6B65793FFC
:1014300047F8046D614E70474C1500005A140000C7
:1014400081800A686F6F6B2D70617573650047F856
:10145000046D5B4E704792360000701400000080EF
:1014600004656D6974000FB5514800F026F80FBD92
:10147000841400000080036B65790FB54D4800F0BF
:101480001CF80FBD96140000008005656D69743F5F
:10149000494800688746A81400000080046B6579FD
:1014A0003F00464800688746BE1400000080057073
:1014B0006175736542480068874600688746E41492
:1014C000000000800B73657269616C2D656D697435
:1014D00000B500F025F8002E40CFFAD0394A16703A
:1014E00040CF00BD0C15000000800A736572696171
:1014F0006C2D6B65790000B500F028F8002E40CF08
:10150000FAD047F8046D2F4A167800BD3A1500004E
:1015100000800C73657269616C2D656D69743F00A4
:1015200000B5FFF7C7FF47F8046D0026264801689D
:101530008020014000D0F64300BD0016000000806E
:101540000B73657269616C2D6B65793F00B5FFF7B0
:10155000B1FF47F8046D00261B48016820200140B8
:1015600000D0F64300BD19495FF4006008601849D7
:1015700001200860086810F00200FBD01549012026
:10158000086015491548086015491648086016494D
:10159000086850F0A0000860144915480860154913
:1015A0008B2008601449154808607047FC3F0120F3
:1015B000F83F0120F43F0120F03F0120EC3F0120E3
:1015C000E83F012004440040004400400070004017
:1015D00000380240083802401C380240FF800000FA
:1015E00024380240000002000000024020000240B7
:1015F00000770000084400400C4400400C2000002C
:10160000241600000080076365787065637400B578
:10161000386801B40130386000F00BF801BC067086
:1016200040CF00BD9A1600000080066163636570BC
:10163000740000B502CF01390022FFF71EFF300011
:1016400040CF7F2809D0202819D2092816D00A288F
:101650001FD00D281DD00828EFD1002AEDD000F0B2
:101660000EF903082008002AE7D0885C013A80239D
:101670000340E2D040230340F5D0DEE72020B24211
:10168000DBD247F8046D0600FFF7EDFE0132885407
:10169000D3E7160000F0A2F800BDAC1600004080B1
:1016A0000374696247F8046D294E7047C216000042
:1016B0008180033E696E47F8046D264E7047000036
:1016C0000000E816000082800E63757272656E7409
:1016D0002D736F757263650047F8046D1E4E704779
:1016E000000000006800002004170000008009735B
:1016F0006574736F75726365174802CF0660416049
:1017000040CF704722170000008006736F75726328
:10171000650047F8046D104E043F70683860366805
:1017200070475C17000000800571756572790FB510
:10173000084800210160FFF7B5FF47F8046D47F83E
:10174000046DC826FFF775FFFFF7D6FF0FBD000039
:1017500068000020E43F0120DC3F0120AA170000C0
:10176000008007636F6D706172650FB5310040CF07
:1017700001CF884202D040CF00260FBD02CF002803
:1017800010D001380A5C335C412A02D35B2A38BF8F
:101790002032412B02D35B2B38BF20339A42EED04C
:1017A00000260FBD0026F6430FBDBE1700000080C7
:1017B0000263720000B500F062F8010A00BDD017A4
:1017C0000000008002626C0047F8046D202670471C
:1017D000E4170000008005737061636547F8046DCD
:1017E000202640E6041800000080067370616365DF
:1017F000730000B5002E03DDFFF7F0FF013EFBD1C3
:1018000040CF00BD141800005080065B6368617211
:101810005D0005E02C180000008004636861720020
:1018200000B501F049FB40CF367800BD3C18000000
:101830005080012847F8046D292606E0561800005C
:101840005080015C47F8046D002600B501F03EFBB6
:10185000043740CF00BD9A1800001080022E2200ED
:101860009B4800B547F8046D060000F05EFA47F8A3
:10187000046D222601F02AFB00F058FD00BD0AB4D9
:1018800047F8046D7646013E337801210133194053
:101890005B181EEB030E0ABC39E0C0180000108074
:1018A000026322008B48DCE747F8046D7646013E70
:1018B00033780121013319405B181EEB030E70478A
:1018C000EA1800001080027322008348C9E747F835
:1018D000046D764647F8046D013E36780121731C8D
:1018E00019405B181EEB030E7047021900000080C0
:1018F00005636F756E74013647F8046D013E3678E6
:1019000070472A190000008005637479706501B57D
:101910003078002807D0013647F8046D3678FFF795
:10192000A2FD0138F7D140CF01BD58190000008059
:10193000047479706500310040CF300040CF00B5AD
:10194000002908D0002247F8046D865CFFF78BFD64
:1019500001329142F7D100BD921900000080046865
:1019600065782E0007B5310040CF20200F220438C3
:1019700047F8046D0E00C6401640092E01D93736CF
:1019800000E03036FFF76FFD0028F0D1FFF726FFAB
:1019900007BDA2190000008003682E731FB54F4CCD
:1019A0000EE0B2190000008003752E731FB54C4C79
:1019B00006E0301A00000080022E73001FB5494C6B
:1019C0004949C91B8908494A106803B40A201060B4
:1019D000FFF755FF08537461636B3A205B0047F8CB
:1019E000046D0E0001F04DFCFFF749FF025D200081
:1019F00003BC3E4A106000290AD03D4A106806B474
:101A000047F8046D0600A04706BC043A0139F5D139
:101A1000FFF735FF0620544F533A200047F8046D76
:101A20003600A047FFF72BFF04202A3E0A001FBD07
:101A3000F41A0000008005776F72647300B5FFF739
:101A40001EFF010A00F0ADFEFFF719FF09416464B3
:101A5000726573733A2047F8046DFFF783FFFFF751
:101A60000EFF064C696E6B3A200047F8046D36682D
:101A7000FFF778FFFFF703FF07466C6167733A20B3
:101A800047F8046DB688FFF76DFFFFF7F8FE0643D1
:101A90006F64653A2000B01D00F0BCFE47F8046D8D
:101AA0000600FFF75FFFFFF7EAFE064E616D653A3D
:101AB000200047F8046D0636FFF729FFFFF7DFFE29
:101AC000010A00F085FE300040CFBDD040CF00BD00
:101AD0007E180000A8180000CE180000651900004C
:101AE000733200008332000030020020FC3F0120EE
:101AF0002C020020581C000000800D3132626974F5
:101B0000656E636F64696E670FB5FF2E04D847F882
:101B1000046D5FF0FF360FBD16F0FF10B0420ED11E
:101B20004FF6FF710840310C814208D116F0FF06D4
:101B300056F4805647F8046D5FF0FF360FBD16F07F
:101B4000FF20B0420FD14FF6FF710840310C8142A7
:101B500009D1360A16F0FF0656F4005647F8046D10
:101B60005FF0FF360FBDFF2231001140300A1040F8
:101B7000884210D1300C104088420CD1300E1040F9
:101B8000884208D116F0FF0656F4405647F8046D17
:101B90005FF0FF360FBD300000210131001850F119
:101BA00000007FF07F020240802A05D01F29F4D375
:101BB00047F8046D00260FBD0829F9D3060036F05A
:101BC000800611F00100C001064311F00E00C002B2
:101BD000064311F010008005064347F8046D5FF0DE
:101BE000FF360FBD47F8046DDFF840665FF47041C3
:101BF00010EA0102120116435FF4006110EA0102CB
:101C0000D20316435FF4E06110EA010212011643A9
:101C1000FF2110EA010216431E4377E347F8046DE3
:101C2000DFF80C665FF0704110EA0102120B1643F8
:101C30005FF0006110EA0102520816435FF0E061B4
:101C400010EA0102120B16435FF47F0110EA010251
:101C5000120C16431E4359E3BE1C00000080107294
:101C6000656769737465726C69746572616C2C0068
:101C70000FB5330040CF1B02FF2E05D856F4005697
:101C80001E4300F01BFB0FBDFFF73EFF002E40CFB1
:101C900006D0DFF8A00506431E4300F037FB0FBD5A
:101CA000F643FFF731FF002E40CF06D0DFF888055E
:101CB00006431E4300F02AFB0FBDF6430BE01E1D3A
:101CC00000000080096D6F76776D6F76742C0FB50C
:101CD000330040CF1B02300040CFFFF783FF4FF6A9
:101CE000FF7110EA014001D0FFF798FF0FBD0FB55B
:101CF0000136300040CF0023FFF774FFFFF78EFF5F
:101D000006E00FB5013647F8046D0026FFF7B0FF77
:101D100047F8046D44F2807600F0D0FA0FBD841DC0
:101D2000000000800563616C6C2C0FB5330000F07F
:101D300009FE300040CF1B1A043BDFF800151940A4
:101D4000002906D0DFF8F824914202D0BDE80F4008
:101D5000D7E740CF5B08DFF8EC0440F2FF71194091
:101D60000843DB0A40F2FF311940090408439B0A8B
:101D700013F001018906084347F8046D060000F0DE
:101D8000C5FA0FBDBA1D00000080086C6974657249
:101D9000616C2C0008B547F8046D4FF6470600F05B
:101DA0008DFA47F8046D46F6045600F087FA47F8B6
:101DB000046D0626FFF75CFF08BDDE1D00000080F5
:101DC000066372656174650000B500F033F841F692
:101DD000FB50804747F8046DBEF1010600BD261E8A
:101DE0000000208005646F65733E41F6FB5080471C
:101DF00047F8046DBEF10106704747F8046DBEF167
:101E00000106DFF844241368DFF840140968022053
:101E1000084000D0023102311160FFF768FF136003
:101E200000F0B7F900BD681E00000080073C627535
:101E3000696C647300B500F043FB00F083FD022081
:101E4000064040CF04D047F8046D362600F036FA3D
:101E500047F8046D4BF2005600F030FA47F8046D75
:101E60000A2600F096FA00BD741E00005080035B45
:101E7000275D03E08C1E00000080012700B501F003
:101E80001BF800F005FD300040CF00BDCA1E000069
:101E9000108008706F7374706F6E650000B5FFF787
:101EA000EDFF102101400DD12021014005D0FFF7A9
:101EB00071FF47F8046DE64E04E0FFF76BFF47F84B
:101EC000046DE44EFFF731FF00BD201F00000080CD
:101ED00007696E6C696E652C00B54BF200514BF6CC
:101EE000005244F270733088884208D0904208D083
:101EF000984206D047F8046D060000F0DFF902367C
:101F0000F1E740CF00BD0EB44BF6005244F27073BF
:101F100001880230914201D09942F9D10EBC70473C
:101F2000361F00000080047265742C0047F8046DB1
:101F30004BF60056C2E1441F00003080046578690A
:101F40007400F3E75C1F00003080077265637572F0
:101F5000736547F8046DBD4E3668E6E6741F0000F1
:101F6000818005737461746547F8046DBA4E7047DB
:101F700000000000861F00000080015DB6480021BF
:101F8000C94301607047961F00001080015BB24892
:101F9000002101607047BE1F00000080013A00B5BB
:101FA000AE48076000F08CFA47F8046D4BF200561B
:101FB00000F084F9A8480021C943016000BD062053
:101FC00000003080013B00B5A4480168B9420ED042
:101FD000FFF755FC1520537461636B206E6F7420FE
:101FE00062616C616E6365642E0A01F0EDBA47F8B8
:101FF000046D4BF6005600F061F900F0CAF89648FF
:102000000021016000BD1A2000000080076578658E
:1020100063757465300040CF874632200000108021
:1020200009696D6D65646961746547F8046D102612
:10203000E1E048200000108006696E6C696E650062
:1020400047F8046D2026D6E06220000010800B6364
:102050006F6D70696C656F6E6C7947F8046D302632
:10206000C9E07C20000010800A302D666F6C64612E
:10207000626C650047F8046D4026BCE096200000C5
:1020800010800A312D666F6C6461626C650047F8E0
:10209000046D4126AFE0B020000010800A322D66AA
:1020A0006F6C6461626C650047F8046D4226A2E0C3
:1020B000CA20000010800A332D666F6C6461626C68
:1020C000650047F8046D432695E0E4200000108089
:1020D0000A342D666F6C6461626C650047F8046DAC
:1020E000442688E0FE20000010800A352D666F6CC3
:1020F0006461626C650047F8046D45267BE0182139
:10210000000010800A362D666F6C6461626C650099
:1021100047F8046D46266EE03221000010800A3731
:102120002D666F6C6461626C650047F8046D47262C
:1021300061E062210000008008636F6E7374616E5D
:10214000740000B500F0BCF9FFF724FE47F8046DF9
:1021500044F2707600F0B2F8FFF78CFF00F019F847
:1021600000BD8421000000800932636F6E737461CA
:102170006E7400B500F0A4F939683E600E46FFF7B2
:1021800009FEE1E7E6210000008006736D756467D3
:10219000650000B52C4801682B4A91421CD20239D7
:1021A0000A882F4B9A4204D147F8046D2D4E00F057
:1021B00085F800F071F82C48006847F8046D0600B7
:1021C0002A4909680431204A1368116000F076F842
:1021D0001360FEF7B3FF00BD00F05EF847F8046D32
:1021E0005FF4004608E07022000000800873657408
:1021F000666C6167730000B513480168124A91422A
:1022000005D2194801683143016040CF00BD32005A
:1022100040CF1648006804300188124B994201D122
:10222000110000E01143018000BD0000000040F2F9
:102230000000C0F200005FF000007FF00100C0FF6E
:102240000000C0FF00F800F0000000201400002093
:10225000D81E00002A1D0000D83F012010000020D9
:1022600000000000FFFF000020000020040000200C
:102270008C220000418007616C69676E65640120F3
:10228000304036180220304036187047B222000025
:10229000008005616C69676E00B57F4801680220A7
:1022A000014005D047F8046D4FF6FF7600F006F8C0
:1022B00000BDE8220000008002682C000FB5B6B215
:1022C00075480168744A914205D247F8046D0E00C2
:1022D000FEF757FF02E0320040CF0A8047F8046D56
:1022E000022600F056F80FBD022300000080012CEA
:1022F00000B547F8046DFFF7E1FF360CFFF7DEFF8E
:1023000000BD1E2300000080033E3C2C00B547F8B2
:10231000046D360CFFF7D2FFFFF7D0FF00BD862318
:102320000000008007737472696E672C07B5FF2187
:10233000314040CF300040CF002905D147F8046D2F
:102340000026FFF7BBFF07BD47F8046D067836028D
:102350000E43FFF7B3FF0130013902290AD347F8D2
:10236000046D4678360202781643FFF7A7FF023065
:102370000239F2E7002900D107BD47F8046D06785D
:10238000FFF79CFF07BDE0230000008005616C6C37
:102390006F7441480168404A91420FD2320040CFE9
:1023A00089183E4A914219D3FFF769FA0B466C61CE
:1023B00073682066756C6C0A01F006B9320040CF74
:1023C0008918374A1268914208D3FFF758FA095220
:1023D000616D2066756C6C0A01F0F6B8016070479B
:1023E0000824000000800D636F6D70696C65746F68
:1023F00072616D3F47F8046D002627480068264942
:10240000884248D3F64370472824000000800C63BC
:102410006F6D70696C65746F72616D001E48006845
:102420001D49884211D37047B024000000800E631C
:102430006F6D70696C65746F666C617368001648C7
:1024400000681549884200D270471648164902684C
:102450000B680A6003601048144902680B680A6040
:1024600003600F480068834215D300B5FFF707FAF1
:1024700023205661726961626C657320636F6C6CB6
:1024800069646520776974682064696374696F6E34
:102490006172790A00BD704700000020000008004A
:1024A00024000020040000201C0000201800002050
:1024B0009C2500000080082863726561746529000E
:1024C00000B500F0F9FC002E0ED1FFF7D8F9152069
:1024D000437265617465206E65656473206E616D1D
:1024E0006520210A01F070B8386847F8046D043F90
:1024F000386000F09EF940CF002E40CF11D03868F0
:1025000047F8046D043F3860FFF7B9F90952656474
:102510006566696E6520FFF70EFAFFF7B0F9022EC7
:102520000A00FFF7B9FE00F00DFA8F4800688E49E7
:1025300088421DD28D485FF40041016047F8046D68
:102540000626FFF726FFFEF78EF9FFF7EFFE884815
:1025500001680A68874B9A4207D1834A1368116061
:1025600047F8046DFFF7C4FE1360066040CF10E02B
:102570007F4847F8046D0668FFF7BAFE47F8046D18
:102580007C4EFFF79BFE7A48310040CF0160FFF799
:10259000CDFE754801687848016000BDB425000093
:1025A0000080087661726961626C650047F8046DAD
:1025B000012613E0CC2500000080093276617269A3
:1025C00061626C6547F8046D022607E0A6260000EC
:1025D0000080096E7661726961626C6500B5FFF713
:1025E0006FFF61480168604A914234D20F20064073
:1025F000B20062480168891A614A91420BD2FFF722
:102600003EF90F4E6F7420656E6F756768205241FA
:102610004D0A00F0D9BF016047F8046D0E00FFF7C6
:10262000B9FB47F8046D44F27076FFF747FE3000BF
:1026300040CF0200002805D00E600431FFF758FE9D
:102640000138F9D147F8046D80261643FFF7D3FD12
:10265000FFF79FFD00BD00F075F90220064040CF56
:1026600004D147F8046D3626FFF728FE47F8046DBD
:10267000444EFFF74BFE47F8046D434EFFF746FE0E
:1026800047F8046D44F27076FFF718FE300040CF33
:10269000002803D0FFF72CFE0138FBD1FFF7EAFC3E
:1026A000FFF777FD00BD8C2700000080076275668C
:1026B0006665723A00B5FFF703FF01203040361817
:1026C00002203040361828480168274A914228D213
:1026D0002A480168891B2A4A91420BD2FFF7CFF89A
:1026E0000F4E6F7420656E6F7567682052414D0AFA
:1026F00000F06ABF016047F8046D0E00FFF74AFB67
:1027000047F8046D44F27076FFF7D8FDFFF7F0FD4F
:1027100047F8046D48F24016FFF76DFDFFF739FDED
:1027200000BD00F00FF90220064040CF04D147F869
:10273000046D3626FFF7C2FD47F8046D114EFFF712
:10274000E5FD47F8046D104EFFF7E0FD47F8046D16
:1027500044F27076FFF7B2FDFFF71BFEFFF78AFC2D
:10276000FFF717FD00BD0000000000202000002042
:1027700004000020000000001400002024000020BD
:10278000F00300203E60043F02367E46BA27000078
:1027900000800F64696374696F6E6172797374612C
:1027A0007274EA480068E94947F8046D884201D22A
:1027B000E74E7047E74E36687047F4270000008008
:1027C0000E64696374696F6E6172796E6578740006
:1027D00003B53168E048814207D08879002804D0E9
:1027E0000E0047F8046D002603BD47F8046D00266F
:1027F000F64303BD2628000000800A736B697073DE
:102800007472696E67003178013101220A408918BB
:102810007618704706B40178013101220A40891800
:10282000401806BC7047A628000000800466696E48
:1028300064003FB500220023350040CF340040CF74
:10284000FFF7AFFFC448B188884217D047F8046D3E
:102850000636FFF750F847F8046D260047F8046D78
:102860002E00FEF782FF002E40CF07D0B01DFFF7ED
:10287000D1FF02000B00B548824204D2FFF7A8FF47
:10288000300040CFDED0160047F8046D1E003FBD7B
:1028900000B531003868FFF7CCFF3A68002A01D153
:1028A00000F064FD00BD00290000008006636A7529
:1028B0006D702C00320040CF310040CF8B1B043BA9
:1028C000A649194000290DD0A54881420AD0FEF73B
:1028D000D6FF0D4A756D7020746F6F206661720AA5
:1028E00000F072BE5B10FF210B40134330001E004E
:1028F00000B5964A13681060FFF7E0FC136000BD56
:10290000382900000080056A756D702C310040CFB9
:10291000300040CF0B1A043B92491940002902D0E5
:10292000914A9142D3D15B10904A134053F46043D3
:1029300047F8046D1E00DBE74E29000000800468A4
:102940006572650047F8046D804E366870474A2A04
:10295000000000800D666C6173687661722D686599
:10296000726547F8046D824E3668704700B547F8C7
:10297000046D42F60066FFF7A1FC47F8046D4CF6C3
:102980004076FFF79BFC00BDDCE700B500F03AF8AD
:1029900039683E600E4647F8046D4DF20016FFF7A9
:1029A00089FF00BD00B500F02DF839683E600E4685
:1029B00047F8046D4DF20076FFF77CFF00BD00B5CF
:1029C000FFF7D4FF00F01EF839683E600E4647F866
:1029D000046D4DF20006FFF76DFF00BD00B500F07D
:1029E00011F839683E600E46FFF790FF00BD00B554
:1029F000FFF7BCFFFFF7A6FF47F8046D0226FFF7BD
:102A0000C8FC00BD00B5FFF79DFF47F8046D022626
:102A1000FFF7BFFC00BD00B5FFF794FFFFF776FF9F
:102A200000BD00B5FFF78EFF47F8046D4DF20006BC
:102A3000FFF740FF00BD00B5FFF784FF47F8046DC6
:102A40004DF20016FFF736FF00BD862A00003080E9
:102A5000047468656E00052E01D140CFDBE7022EBD
:102A600001D140CFDDE7FEF70AFF1753747275639B
:102A7000747572657320646F6E2774206D61746362
:102A8000680A00F0A1BDB02A0000308004656C73B4
:102A9000650000B5022EE6D140CFFFF7B3FF3968DD
:102AA0003E600E46FFF7BDFF47F8046D052600BDEA
:102AB000C82A000030800269660000B5FFF797FF62
:102AC00047F8046D022600BDEE2A00003080067231
:102AD000657065617400042EC5D140CF39683E60D1
:102AE0000E4600B5FFF77AFFFFF79BFF00BD0A2BEC
:102AF00000003080057768696C65012EB3D140CF46
:102B000000B5FFF7DAFF023600BD1E2B0000308053
:102B100005756E74696C012EA5D140CF4FE7322B3D
:102B20000000308005616761696E012E9BD140CF46
:102B300054E7742B0000308005626567696E00B54C
:102B4000FFF722FF47F8046D012600BD00000020BA
:102B500028010000040000200000000001FFFFFF2A
:102B600000FFFFFF01F8FFFF00F8FFFFFF07000075
:102B700024000020842B00002080016B47F8046DA6
:102B8000029E7047942B00002080016A47F8046D74
:102B9000009E7047A42B00002080016947F8046D57
:102BA00026007047E22B00003080056C6561766579
:102BB00000B5D94801683B00043F1A68043B1A601D
:102BC00008338B42F9D103B4FFF71CFF03BC330079
:102BD00040CF04390B60016004390A6801320A6091
:102BE00000BDF42B0000208006756E6C6F6F7000C6
:102BF00030BC70472C2C00003080052B6C6F6F7040
:102C0000032E00D02FE740CF00B547F8046DC34E28
:102C1000FFF762F9FFF7C6FE1AE014F10044641BE7
:102C2000A41940CF2C44A4F1004470476E2C00003E
:102C30003080046C6F6F7000032E00D013E740CF1C
:102C400000B547F8046DB64EFFF746F9FFF79DFE55
:102C500000F018F9B048310040CF016047F8046D2A
:102C6000B04EFFF739F900BD0134AC427047B62CC5
:102C70000000788002646F0000B547F8046DAA4E2A
:102C8000FFF72AF9A448016847F8046D0E0047F8D9
:102C9000046D00260760FFF777FE47F8046D0326F2
:102CA00000BD00B500F02FF8ECE730B4340040CFA1
:102CB000350040CF7047502D00007880033F646F8F
:102CC00000B547F8046D984EFFF706F947F8046D14
:102CD00044F2AC26FFF7F2FA8F48016847F8046D1A
:102CE0000E00FFF78FFE013647F8046D01268A4873
:102CF0000760FFF749FE47F8046D032600BD00B5E5
:102D000000F001F8E2E700B547F8046D4BF23046F9
:102D1000FFF7D4FA47F8046D0426FEF7A9FF013B3C
:102D200008D047F8046D0526FEF7A2FF013B00F02E
:102D300024FC00BD47F8046D3526FFF7BFFA47F8BD
:102D4000046D4CF64076FFF7B9FA00F016FC00BDB2
:102D50006A2D0000308004636173650047F8046DDC
:102D6000002647F8046D08267047802D000030804B
:102D7000033F6F666D4809E0013EB64140CF7047A2
:102D8000242E00007880026F66006948082E00D06B
:102D900069E640CF00B547F8046D0600FFF79CF8E0
:102DA000FFF730FE39683E600E46013647F8046D85
:102DB000092647F8046D4CF64076FFF77FFA00BD10
:102DC00000B5300040CF013B01B400F0D6FB01BCA0
:102DD000082E00D047E640CF47F8046D0600FF21DB
:102DE0003140B14204D153490E43FFF767FAD7E7A8
:102DF000FEF78AFE002E40CF04D04F480643FFF76F
:102E000085FACDE747F8046D0026FEF731FF47F855
:102E1000046D44F2B026FFF751FAC1E7300040CF0D
:102E2000B04270475A2E0000308005656E646F66B0
:102E3000092E00D017E640CF00B540B440CFFFF7D1
:102E4000E1FD39683E600E46FFF7F5FD47F8046D79
:102E500040BC47F8046D082600BDAC2E0000308051
:102E600007656E6463617365082E00D0FBE540CF93
:102E700000B547F8046D4CF64076FFF71FFA00F0F6
:102E800001F800BD00B5300040CF00280DD003B4DC
:102E900001213140002903D0013EFFF7C2FD01E0CE
:102EA000FFF7B9FD03BC0138EFE700BDC02E0000FD
:102EB000008005746F6B656E47F8046D202605E091
:102EC000402F0000008005706172736510B5FEF739
:102ED00020FC310040CF300040CF184A12688418DF
:102EE000202E07D191420FD0835CB34202D1013230
:102EF0008418F7E7914207D0835C0132B342F9D1DD
:102F00008618361B013E01E08618361B043F3C60E4
:102F10000A48026010BD00000C0000201A2C0000BE
:102F2000682C0000F02B0000AA2C0000782D000077
:102F30001C2E0000002E0000000FB6F1E43F01201F
:102F40007E2F00000080056469676974CF4B1B68A1
:102F5000303E0BD30A2E0BD3073E0A2E06D3242E67
:102F600006D3203E0A2E01D3242E01D3002670471B
:102F70009E42FBD247F8046D0026F6437047883026
:102F800000000080066E756D626572003FB531000D
:102F900040CF701E0126012204B4BC4B1B680024E4
:102FA000002500293CD00130013902782D2A04D1B6
:102FB00001B00022D24304B4F3E7232A01D10A234B
:102FC000EFE7242A01D11023EBE7252A01D10223C0
:102FD000E7E72E2A01D10226E3E72C2A36D047F86C
:102FE000046D1600FFF7B4FF002E40CF2BD047F83A
:102FF000046D260047F8046D2E0047F8046D1E008E
:1030000047F8046D00260FB4FDF7BAF90FBC350080
:1030100040CF340040CF0022A419554140CFC0E733
:1030200004BC002A04D50022E443ED430134554199
:1030300033002600012B02D047F8046D2E0047F81C
:10304000046D1E003FBD01B000263FBD25000024D9
:1030500002260029E4D0425C01392E2AF9D047F833
:10306000046D1600FFF774FF002E40CFEBD0043F35
:103070003C6047F8046D1E000FB4FDF730FA0FBC3A
:10308000340040CF40CFE4E7AA3000000080062E95
:103090006469676974000A2E01D230367047242EA5
:1030A00001D23736704723267047E0300000008099
:1030B00004686F6C6400330040CF754801783F2985
:1030C0000DD2013101704018012907D00138027872
:1030D00001300270013801390129F7D103707047BE
:1030E00000310000008005686F6C643C330040CF05
:1030F000674801783F2902D201310170435470477B
:10310000183100000080047369676E00002E01D43E
:1031100040CF70472D26CEE72C31000000800223DF
:103120003E005B480678013038607047443100004B
:1031300000800366235310B5202400F008F8013CFA
:10314000FBD110BD6631000000800266230000B58F
:1031500047F8046D4D4E3668FDF7FEF8FFF79BFF0C
:10316000FFF7C4FF00BD823100000080022353003E
:1031700000B500F00AF8002EFBD138680028F8D11D
:1031800000BDAE3100000080012300B547F8046D9A
:103190003E4E366847F8046D0026FDF7BFF9FCF790
:1031A000F1FF40CFFFF777FFFFF785FF00BDC0318C
:1031B00000000080023C2300354800210170704768
:1031C000D2310000008002662E0047F8046D2026F0
:1031D00004E020320000008003662E6E00B510B4BB
:1031E000340040CFFDF729FBFDF77FF847F8046D69
:1031F0000026FFF7E1FFFFF7BBFF40CF2C26FFF7CC
:1032000075FF002C03D0FFF7A2FF013CFBD110BCDF
:1032100040CFFFF77BFF47F8046D47F8046D1CE0D3
:103220003632000000800375642E00B5FFF7C4FF3E
:10323000FFF79EFF11E068320000008002642E005C
:1032400000B5FDF7FAFAFDF750F8FFF7B5FFFFF705
:103250008FFFFDF7FCFAFFF759FFFFF762FFFEF75C
:103260006AFBFEF7BBFA00BD7A32000000800275EF
:103270002E0047F8046D0026D7E794320000008046
:10328000012E47F8046DF617DAE70000FC3F012035
:1032900028000020DC3200000080086576616C7533
:1032A0006174650000B5FEF734FA01CF01B440B493
:1032B00040CFD548016802B400210160FEF71CFA36
:1032C00000F014F8D04802BC016047F8046D40BC1F
:1032D00001BC043F3860FEF70FFA00BDA0350000C6
:1032E000008009696E7465727072657430B5C74884
:1032F00087420BD9FEF7C3FA10537461636B2075D4
:103300006E646572666C6F770A005DE1C048874243
:103310000AD2FEF7B4FA0F537461636B206F7665BF
:1033200072666C6F770A4FE1BA4C2568002D01D1A7
:103330003D002560FFF7C0FD002E02D1043740CFCD
:1033400030BD386847F8046D043F3860FFF771FA04
:10335000310040CF320040CF002A13D1386831000D
:10336000FFF714FE320040CF002AC0D1FEF7E7FA83
:10337000FEF785FA0C206E6F7420666F756E642EF2
:103380000A0021E1A44B1B68002B1DD100252560FC
:1033900030230B40302B0ED1FEF7CDFAFEF76FFA3B
:1033A0001220697320636F6D70696C652D6F6E6C90
:1033B000792E0A0008E1043740CF47F8046D160063
:1033C000FEF728FEFFF793FF043740CF8020084028
:1033D0000ED1EB1B9B08402008400FD0082008406E
:1033E00002D0002B00D01DE00F200840834205D3FF
:1033F00047F8046D1600FEF70DFE78E700F0BDF803
:1034000047F8046D160010220A4002D0FEF702FEB3
:103410006DE720220A4002D0FEF75EFD67E7FEF767
:1034200084FC64E7072001401000FEF76CFD0129D1
:103430001FD1012BDCD1FF213140B14204D14088A2
:103440000643FEF73BFF52E7FEF75EFB002E40CF40
:1034500004D040680643FEF759FF48E747F8046D7B
:103460000026FEF705FC47F8046D0688FEF726FFE8
:103470003DE7022902D1012BBAD1EFE7032926D17A
:10348000012BB5D1FF213140B1420AD163490E432E
:10349000FEF714FF043247F8046D1600FEF71CFD1A
:1034A00025E7FEF731FB002E40CF04D05C490E43E8
:1034B000FEF72CFFEEE747F8046D0026FEF7D8FB79
:1034C000023247F8046D1600FEF706FD0FE70429E7
:1034D00018D1012B8CD1330040CF002B00D106E74F
:1034E0001F221A409A4205D047F8046D4688FEF71D
:1034F000E5FEFCE647F8046D06889B011E43FEF7D7
:10350000DDFEF4E6052924D1012B10D147F8046D26
:103510000026FEF7ADFB47F8046D0600FEF7DCFC65
:1035200047F8046D4CF64076FEF7C8FEDFE647F834
:10353000046D0026FEF79CFB47F8046D0126FEF79C
:1035400097FBFEF7E0FC47F8046D0600FEF7C4FCAD
:10355000CDE606290ED1012B7FF44AAFFEF7D4FA4F
:10356000002E40CF3FF47AAFD0F802000643FEF7BA
:10357000CDFEBCE601308047B9E600B5002B0CD08B
:10358000013B47F8046D1E0057F82660FEF702FC69
:10359000002BF5D1043D2F0040CF0025256000BD54
:1035A000BC350000818009686F6F6B2D717569747F
:1035B00047F8046D1B4E7047F435000038360000A4
:1035C0000080047175697400DFF85CD00F4FFDF75F
:1035D000ADFD16480A2101600F48002101600D4829
:1035E00001600948016012480160124941600D48BC
:1035F00000688746FEF79BF8FFF778FEFEF73FF975
:1036000005206F6B2E0AF5E7E43F01203002002011
:103610003001002008000020D83F0120003E0000BB
:103620000006B6F1D43F012030030020FC3F01200A
:10363000DC3F012068000020523600000080056554
:10364000696E743F47F8046DEFF31086013EB64192
:1036500070476236000020800465696E740062B6AF
:1036600070477236000020800464696E740072B680
:10367000704788360000208004697073720047F834
:10368000046DEFF305867047943600000080036EEA
:103690006F707047D6360000008009756E68616EE5
:1036A000646C656400B5FEF7EAF814556E68616EE7
:1036B000646C656420496E74657272757074200064
:1036C00047F8046DEFF30586FEF74CF9FEF7D7F8DF
:1036D00002210A0000BDE836000000800572657313
:1036E0006574CE48CE4901601237000081800B69B5
:1036F00072712D7379737469636B47F8046DC94EE9
:103700007047A436000043F6D070C2F20100006892
:1037100087463A3700008180096972712D666175AC
:103720006C7447F8046DC04E7047A436000043F631
:10373000CC70C2F2010000688746683700008180C3
:103740000E6972712D636F6C6C656374696F6E00C6
:1037500047F8046DB54E7047A436000043F6C870B4
:10376000C2F2010000688746903700008180096935
:1037700072712D657874693047F8046DAC4E7047EE
:10378000A436000043F6C470C2F201000068874608
:10379000B83700008180096972712D6578746931CC
:1037A00047F8046DA34E7047A436000043F6C0707E
:1037B000C2F2010000688746E03700008180096995
:1037C00072712D657874693247F8046D9A4E7047AE
:1037D000A436000043F6BC70C2F2010000688746C0
:1037E000083800008180096972712D657874693329
:1037F00047F8046D914E7047A436000043F6B87048
:10380000C2F20100006887463038000081800969F3
:1038100072712D657874693447F8046D884E70476D
:10382000A436000043F6B470C2F201000068874677
:10383000563800008180076972712D61646347F812
:10384000046D804E7047A436000043F6B070C2F29B
:103850000100006887467C3800008180076972712A
:103860002D64616347F8046D774E7047A4360000FD
:1038700043F6AC70C2F2010000688746A43800002D
:103880008180086972712D74696D320047F8046D8A
:103890006E4E7047A436000043F6A870C2F20100D5
:1038A00000688746CC3800008180086972712D74E9
:1038B000696D330047F8046D654E7047A43600000B
:1038C00043F6A470C2F2010000688746F438000095
:1038D0008180086972712D74696D340047F8046D38
:1038E0005C4E7047A436000043F6A070C2F201009F
:1038F00000688746004000000000182D2D2D20464E
:103900006C6173682044696374696F6E61727920B9
:103910002D2D2D00FDF727FE4F4885464F4F2A26B7
:103920004F485049016050485049016047F8046DC4
:103930004E4E4F4DB1884F4B994224D04E4B0B40C9
:103940000AD0B01DFEF766FFFEF7DDFA0388408857
:1039500000040343ED1A16E080230B4013D00F231D
:10396000194089006D1AB01DFEF754FFFEF7CBFA1F
:1039700047F8046D060047F8046D2E0047F8046D03
:103980000E00FDF709F9FEF723FF300040CFD1D03C
:103990003A48066040CF3A4805603A483A49354AC5
:1039A000884204D0023803889342F9D00230374964
:1039B0000860FDF7BBFBFDF762FF374D6563726979
:1039C00073702D5374656C6C6172697320322E3282
:1039D0002E3020666F722053544D33324C313532C5
:1039E000206279204D61747468696173204B6F6344
:1039F000680A27480021016047F8046D254E47F802
:103A0000046D0426FEF715FF40CF002E02D0FEF70E
:103A100001FBECE540CFD7E5696E69740CED00E081
:103A20000400FA05D03F0120CC3F0120C83F01200F
:103A3000C43F0120C03F0120BC3F0120B83F01200E
:103A4000B43F0120B03F0120AC3F0120A83F01203E
:103A5000A43F0120A03F01203003002030020020BD
:103A600000000020F00300200400002028010000D6
:103A70000040012000000000000100001C000020A8
:103A80002400002000000800004000001800002072
:083A900008000020183A0000B4
:0400000508000000EF
:00000001FF
