S02200006D6563726973702D7374656C6C617269732D6B6C32357A3132382E737265638F
S11300005CF3FF1F614B0000694A0000694A00006D
S113001000000000000000000000000000000000DC
S1130020000000000000000000000000934A0000EF
S11300300000000000000000934A0000474A00004E
S1130040934A0000934A0000934A0000934A000038
S1130050934A0000934A0000934A0000934A000028
S1130060934A0000934A0000934A0000934A000018
S1130070934A0000934A0000934A0000B34A0000E8
S1130080D34A0000934A0000934A0000934A0000B8
S1130090934A0000934A0000934A0000934A0000E8
S11300A0934A0000F34A0000934A0000934A000078
S11300B0934A0000934A0000154B0000394B00009E
S11300C0FFFFFFFFFFFFFFFFFFFFFFFFFFFFFFFF3C
S11300D0FFFFFFFFFFFFFFFFFFFFFFFFFFFFFFFF2C
S11300E0FFFFFFFFFFFFFFFFFFFFFFFFFFFFFFFF1C
S11300F0FFFFFFFFFFFFFFFFFFFFFFFFFFFFFFFF0C
S113041010080000FFFF1E2D2D2D204D656372690D
S113042073702D5374656C6C6172697320436F72C1
S113043065202D2D2D0007B59B48002B09D000F019
S11304402FF800F035F800F01FF84261282101610F
S1130450F3E707BD00B5944800230169282905D1B5
S1130460426900F004F800F038F8F6E700BD03B57F
S1130470043F3E601600043F3E601E0008B400F0D6
S113048013FF08BC013303BD03B5013B043F3E60C9
S11304901E0008B400F0F2FE08BC320040CF03BDD9
S11304A003B5824801681E2901D000F024F803BD79
S11304B08169016201698161C16941624169C16106
S11304C01E21016170470FB5774801691E2903D0C9
S11304D0FFF7E6FFFFF7ECFF0FBD02B5816901618D
S11304E0C169416100E002B5016A8161416AC1618B
S11304F01E21016202BD08B501681E22026008299E
S11305000BD2043F3E606A4E02F0F9FF043F3E60A6
S1130510684E0E4302F0F3FF08BD28290DD1043FB5
S11305203E60634E02F0EBFF436800F061F8043F65
S11305303E60604E1E4302F0E2FF08BD00B500F0CD
S113054005F800F008F800F00BF800BD0FB55748A7
S1130550FFF7D1FF0FBD0FB55748FFF7CCFF0FBD15
S11305600FB551480169062202611E2905D1043FD5
S11305703E60524E02F0C3FF2CE0282921D143698A
S113058001681E2908D041688B4205D1043F3E60B2
S11305904B4E02F0B4FF1DE081681E2908D0C168EB
S11305A08B4205D1043F3E60464E02F0A8FF11E0A5
S11305B0043F3E601E00043F3E60062602F004FC39
S11305C008E0062906D0043F3E603D4EC9000E43B4
S11305D002F095FF00F001F80FBD33481E210160C1
S11305E0816001628161062101610021816270479D
S11305F007B500F017F84360282101600023043F89
S11306003E601E0002F0E0FB07BD07B500F00AF8EB
S1130610C360282181600123043F3E601E0002F074
S1130620D3FB07BD204801681E2904D041689942C4
S113063001D1002307BD81681E2904D0C1689942F5
S113064001D1012307BD043F3E601E00704706B57B
S11306501B181968282926D15A6801681E2906D052
S11306604168914203D1043F3E60174E08E081681F
S11306701E290CD0C168914209D1043F3E60134E3B
S113068000F026F813601E4302F039FF06BD043F54
S11306903E601600190000F01BF80B60043F3E603A
S11306A01E0002F091FB06BD28F0FF1F48F0FF1F5B
S11306B0043F00003860000040F0FF1F40CF0000FE
S11306C0064600000E4600000046000008460000F2
S11306D007B5214801698269036A062905D0062AFB
S11306E003D0062B01D0062307BD032905D0032A16
S11306F003D0032B01D0032307BD022307BD00B59C
S1130700FFF7E6FF036001219940043F3E60134E6A
S11307100E4302F0F4FE00BD0FB50F4801691E2917
S113072002D10F48FFF7EBFF0FBD0FB50A488169EF
S11307301E2904D1FFF7F0FF0A48FFF7E0FF0FBDC1
S11307400FB50548016A1E2904D1FFF7EEFF0648DC
S1130750FFF7D5FF0FBD000028F0FF1F00CF0000FA
S113076038F0FF1F40F0FF1F48F0FF1F00B501697C
S1130770282903D14369FFF73BFF190000BD00B5E9
S11307808169282903D1C369FFF732FF190000BD2D
S11307900EB58269036A9A420AD1072A08D8043F2F
S11307A03E60D600FFF794FF1E43836102F0A7FE6C
S11307B00EBD0EB501698269036A914202D0994265
S11307C000D00EBD043F3E60CE00FFF781FF1E4304
S11307D0036102F094FE0EBD00B5FFF77EFEFFF745
S11307E072FEFFF775FF036100BD01B5064803689B
S11307F0013307D00023DB430360043F3E60034E14
S113080002F07DFE01BD0000D82F002000B50000DD
S11308103408000042020432647570003868043FF2
S11308203E60043F3860704700B500F04FFC00F0B4
S11308304DFC00BD540800006202053264726F7002
S1130840043740CF704700B500F0F0FB00F0EEFB3A
S113085000BDC0467408000044000532737761701F
S113086007CF043F3860043F3E60043F3A600E0007
S11308707047C04688080000620004326E69700048
S113088007CF043F38607047A408000044000532D5
S11308906F766572B868043F3E60043F3860FE6856
S11308A07047C046C8080000440005327475636B85
S11308B007CF043F3860043F3E60043F3A60043F82
S11308C03960043F38607047EC0800004600043289
S11308D0726F74003868B9683A69B86039613A600F
S11308E079687E60FE68F9607047C04610090000B0
S11308F0460005322D726F743868B9683A693861F8
S11309003960BA60F968FE607E6879607047C046F5
S113091038090000200203323E7201CF01B440B412
S113092040CF704700B5FFF760FF00F0A3FB00F075
S113093047FC00F045FC00BD6409000020020332BE
S1130940723E043F3E6040BC01BC043F38607047C7
S113095000B5FFF74AFF00F04EFC00F04CFC00F03D
S113096089FB00BD94090000200203327240043F59
S11309703E60019E043F3E60009E704700B5FFF755
S113098034FF043F3E600C4E03F0DFFA03F0DAFA62
S113099000BDC046C0090000200206327264726FB6
S11309A0700002B0704700B5FFF71FFF043F3E60C0
S11309B0024E02F0A4FD00BD0198000002B0000048
S11309C0D809000042000364322F3868F10776101A
S11309D04008084338607047EC0900006200036473
S11309E0322A38680018764138607047080A0000D7
S11309F042000464736872003868F107760840089E
S1130A00084338607047C046200A0000620004644E
S1130A1073686C0038680018764138607047C046C7
S1130A20340A00004200046461627300002E08D49A
S1130A307047C046540A0000420007646E6567614F
S1130A40746538680021C043F64301304E41386074
S1130A507047C0466C0A0000640002642D0007CF92
S1130A60121AB1410E00043F3A607047840A000034
S1130A70640002642B0007CF12184E41043F3A6011
S1130A807047C046A40A0000610203733E64043F39
S1130A903E60F617704700B500F0B6FA00F063FD4B
S1130AA000BDC046D00A0000420003756D2A3868B4
S1130AB0030073433B60010C320C0B005343B6B28A
S1130AC080B24E4350433618360CF6187047C04671
S1130AD0000B00004200026D2A003868C11705D0DF
S1130AE040423860F01704D07642E0E7F017DED0D9
S1130AF0764200B5FFF7DBFFFFF7A3FF00BDC0465A
S1130B00400B000044000375642A07CF5643414359
S1130B107618010C130C59437618010C80B292B26A
S1130B205143434350430022C91852411204B6189A
S1130B300A04090C80184E41043F38607047C046CF
S1130B40D40B000044000475646D2A0010B5002421
S1130B50043F3E607E68043F3E603E69FFF7A7FFA6
S1130B60310040CF300040CF043F3E603E68043F38
S1130B703E60FE6803B4FFF79AFF03BC330040CF26
S1130B80320040CF043F3E603E68043F3E603E6911
S1130B900FB4FFF78CFF0FBC9219634140CF891942
S1130BA06241634140CF043F3E607E68043F3E6043
S1130BB0FE680FB4FFF77BFF0FBC9219634140CF6F
S1130BC089196241634140CF1E003A607960B86080
S1130BD010BDC046F80B00004300022A2F0000B5E8
S1130BE040B440CFFFF779FF043F3E6040BC00F0C3
S1130BF04FF8043700BDC0461C0C00004300052A12
S1130C002F6D6F6400B540B440CFFFF766FF043F1B
S1130C103E6040BC00F03CF800BDC046400C000003
S1130C20430003752A2F00B540B440CFFFF73FFFC0
S1130C30043F3E6040BC00F01CF8043700BDC046D1
S1130C40640C0000430006752A2F6D6F640000B524
S1130C5040B440CFFFF72BFF043F3E6040BC00F0A0
S1130C6008F800BD840C0000430006756D2F6D6FFD
S1130C70640000B5043F3E60002600F01AF840CF3F
S1130C80043700BDA40C00004300056D2F6D6F6494
S1130C9000B5043F3E60F61700F034F840CF043747
S1130CA000BDC046F80C000044000675642F6D6F4B
S1130CB0640030B4002300227968B86835003C68C9
S1130CC040264000494152415B41AB4202D804D323
S1130CD0A24202D3121BAB410130013EF1D10E00FE
S1130CE038607B60BA6030BC704730B400237A68E7
S1130CF0B9680020E2E7C046700D000044000564B6
S1130D002F6D6F6400B5F01719D0FFF79AFEFFF747
S1130D10A7FDF0170CD0FFF794FEFFF7A1FDFFF736
S1130D20C8FFFFF79DFDFFF78CFEFFF799FD00BD9F
S1130D30FFF796FDFFF7BDFFFFF783FE00BDFFF74A
S1130D408FFDF0170ED0FFF77CFEFFF789FDFFF74C
S1130D50B0FFFFF776FEFFF783FDFFF772FEFFF7A4
S1130D607FFD00BDFFF77CFDFFF7A3FF00BDC0467C
S1130D70880D0000440002642F0000B5FFF7C2FF95
S1130D80FFF77EFD00BDC046D00D000044000266A2
S1130D902A0000B5F0170DD0FFF753FEFFF760FDF2
S1130DA0F0170DD0FFF74DFEFFF7D0FE40CF01CF77
S1130DB0386000BDFFF754FDF017F5D0FFF741FE92
S1130DC0FFF7C4FE40CF01CF3860FFF73AFE00BD05
S1130DD01C0E0000440002662F0000B5F0170ED070
S1130DE0FFF72FFEFFF73CFDF0170ED0FFF729FEAB
S1130DF0FFF736FDFFF779FFFFF742FD00BDFFF770
S1130E002FFDF017F4D0FFF71CFEFFF729FDFFF7C5
S1130E106CFFFFF716FEFFF733FD00BD640E000004
S1130E2020020232210006CF3160726040CF704749
S1130E3000B5FFF785FC0169426906B400F0CEFDF8
S1130E40FFF741FB06BC0161282905D0043F3E6041
S1130E50544E00F0C6FD00BD0432426100F0BEFDF8
S1130E6000BDC046AC0E0000200202324000043F28
S1130E70706838603668704700B500F0C5F80169DD
S1130E80282909D0043F3E60474E00F088FD00F059
S1130E90F1F800F081FD00BD41690431416100F0C9
S1130EA07BFD00F0E7F800F077FD00BDCC0E0000FC
S1130EB044000364753C07CF8E4204D801D19042AC
S1130EC001D8002670470026F6437047EC0E000058
S1130ED044000364753E07CFB14204D801D1824275
S1130EE001D8002670470026F64370470C0F000017
S1130EF0440002643C0007CF8E4204DC01D19042DE
S1130F0001DC002670470026F64370472C0F0000D2
S1130F10440002643E0007CFB14204DC01D18242A6
S1130F2001DC002670470026F6437047480F000096
S1130F3062020364303C0437F617704700B500F0D2
S1130F40ACF800F010FB00BD700F000062020364F7
S1130F50303D01CF0643013EB641704700B5043F22
S1130F603E60124E00F083FA00F0D8FA00BDC0468D
S1130F708C0F0000440003643C3E07CF50404E40B9
S1130F800643013EB641F6437047C046B00F000029
S1130F90440002643D0007CF50404E400643013EEA
S1130FA0B641704740600000406800000043000004
S1130FB0C40F0000200003737040043F3E603E00F5
S1130FC07047C046D40F000020000373702137001F
S1130FD040CF7047E80F0000200003727040043FC8
S1130FE03E606E467047C046F80F00002000037252
S1130FF07021B54640CF70471C10000061020364A5
S11310007570043F3E60704706B5FFF785FB0169C4
S11310104269FFF758FA0161426106BD48100000B9
S113102061020464726F700040CF704700B50169BB
S11310301E2905D1043F3E60A24E02F060FA00BDB5
S1131040FFF74BFA00BDC046601000006100043F8A
S113105064757000002E01D0043F3E607047C046A6
S11310608C100000620204737761700039683E607E
S11310700E0070470CB5FFF758FB026983690361E2
S113108082614269C3694361C2610CBDB81000004A
S11310906202036E69700437704700B5FFF73CFBCA
S11310A081691E2902D0FFF71EFA00BD043F3E608D
S11310B0844E02F024FA00BDE01000006202046FC6
S11310C076657200043F3E607E68704700B5FFF7A6
S11310D02CFB8169C269FFF7F6F90161426100BD29
S11310E00C1100006202047475636B0001CF083FA9
S11310F07E603860704700B5FFF717FBFFF7D0F943
S1131100016901624169416200BDC04644110000A9
S1131110630203726F7403CF083F78603E600E0071
S113112070470EB5FFF70CFB01698269036A8161A0
S1131130026203614169C269436AC16142624361F7
S11311400EBDC046681100006302042D726F740066
S113115003CF083F7E6039600600704700B5FFF793
S1131160E0FFFFF7DEFF00BD7C11000020000470EB
S113117069636B00B0003E587047C046941100008C
S113118000000564657074684F49C91B043F3E60E4
S11311908E087047B0110000000006726465707418
S11311A06800043F3E606E464849891B8E087047BC
S11311B0E41100002002023E720040B440CF7047A8
S11311C000B5FFF712FBFFF7A7FAFFF7CFFA043FCA
S11311D03E603F4E01228A40164302F090F9FFF729
S11311E07CF900BD18120000200202723E00043F88
S11311F03E6040BC704700B5FFF7F7FAFFF763F9AC
S1131200FFF766FA0361043F3E60324E01229A40C2
S1131210164302F074F900BD381200002002027275
S11312204000043F3E60009E704700B5FFF7DDFAC2
S113123002F088FE00BDC0465C1200002002057268
S113124064726F7001B0704700B5FFF7CEFA043FC7
S11312503E60214E02F053F900BDC04670120000FA
S1131260200005727069636BB6006E44366870477F
S11312709C120000000004726F6C6C00002E01D1FF
S113128040CF7047B0003958C019031F1A68026074
S11312900438013EF9D104370E007047DC12000017
S11312A00000052D726F6C6C002E01D140CF704789
S11312B0386839464A680A600431013EFAD1086048
S11312C040CF7047043700005CF2FF1F5CF3FF1F40
S11312D000B4000000BC000001B00000F4120000E3
S11312E0620203616E6401CF06407047043F3E60B2
S11312F07B4EBCE01013000062020362696301CFFD
S1131300B04306007047043F3E60764EC9E0C046D5
S1131310281300006202026F720001CF0643704777
S1131320043F3E60704EA2E0401300006202037866
S11313306F7201CF46407047043F3E606B4E96E0AB
S1131340581300006202012A01CF46437047043F4C
S11313503E60674E8BE0C046781300004100036393
S11313606C7A300006D00026400002D001D201364B
S1131370FAE7704720267047881300006100037263
S11313806F720120C64170479C1300006100037214
S11313906F6C0020B61946417047C046D013000058
S11313A06202076172736869667401CF3041060096
S11313B0704700B5043F3E604E4E043F3E604E4EC3
S11313C0FFF7B3F941691F2928D91F21416125E09D
S11313D0F81300006202067273686966740001CF34
S11313E0F0400600704700B5043F3E60434E043FA2
S11313F03E60434E12E0C0460C1500006202066CCB
S113140073686966740001CFB0400600704700B588
S1131410043F3E603B4E043F3E600026FFF785F9E3
S11314200169282903D040CF00F03BF800BD043700
S11314304169FFF752F8002901D140CF00BD1F29AF
S11314400AD889010E430269D2001643FFF7C4F992
S11314501E4302F054F800BD40CFFFF7BDF9043F2E
S11314603E60294E1B021E4302F049F800BD0FB531
S1131470FFF75BF90169062901D1FFF7FBFD8269DA
S1131480282A01D1FFF7F6FDFFF782F9FFF76EF97D
S1131490C90082690E43164302F031F8FFF71DF8C4
S11314A00FBD0FB5FFF741F9FFF772F9FFF75EF9CA
S11314B08269282A0BD1043F3E60C669FFF708F908
S11314C08361043F3E601E001A0001F07DFCC900E8
S11314D00E43164302F013F8FEF7FFFF0FBD0000A2
S11314E00040000080430000004300004040000032
S11314F0404300000041000000100000C040000014
S113150000080000804000000020000030150000AA
S1131510610202303D00013EB641704700B500F063
S113152003F900F004FFFEF7D8FF7349816200BDA0
S113153058150000610203303C3E013EB641F643BB
S1131540704700B500F0F0F800F0F1FEFEF7C5FFBB
S11315506A49816200BDC0467C1500006102023008
S11315603C00F617704700B500F0DEF8043F3E601B
S1131570634E00F0DFFE6349816200BD94150000F4
S11315806000047472756500043F3E600026F643F3
S11315907047C046A815000060000566616C73655D
S11315A0043F3E6000267047CC1500004202023E14
S11315B03D0001CFB042E9DA00267047043F3E60A7
S11315C0514E043F3E60514EB8E0C046F015000055
S11315D04202023C3D0001CFB042D7DD00267047F5
S11315E0043F3E604A4E043F3E604A4EA6E0C04679
S11315F0101600004202013C01CFB042C6DB0026B7
S11316007047043F3E60414E043F3E603E4E95E0CD
S1131610301600004202013E01CFB042B6DC002683
S11316207047043F3E603B4E043F3E60384E85E0C9
S113163054160000620203753E3D01CF861BB6417D
S1131640F6437047043F3E602C4E043F3E602A4EF2
S113165074E0C04678160000620203753C3D01CF79
S1131660361AB641F6437047043F3E602A4E043FA3
S11316703E602A4E62E0C04698160000620202757F
S11316803C0001CF861BB6417047043F3E601A4EB2
S1131690043F3E60194E51E0B81600006202027524
S11316A03E0001CF361AB6417047043F3E601B4EE0
S11316B0043F3E60184E41E0D81600006202023C2E
S11316C03E0001CF811B361A0E437047043F3E6033
S11316D0134E043F3E6031E02C1800006202013DCD
S11316E001CF361A013EB6417047043F3E600D4EAD
S11316F0043F3E6022E0000000D2000000D300005E
S1131700C017000000D5000000DB000000DA000074
S113171000DC000000DD000000D8000000D900005B
S113172000D0000000D1000000B5FEF7F5FF202333
S1131730FEF78DFF1823FEF78AFF00BD00B5FEF704
S1131740F4FF2023FEF783FF8269282A04D1FFF7E0
S113175091FC39683E600E4640CF0169282909D1C1
S11317604169FF2906D8043F3E60644E0E438169F7
S1131770090206E0FEF7FAFF043F3E60604EC9002E
S113178016430E4301F0BBFEFEF7A7FEFEF7A5FECF
S1131790866240CF00BD0FB55A48816A002930D017
S11317A0043F3E60866A00218162310AD52901D155
S11317B040CF0FBDFEF787FEFEF78AFF0361D229F3
S11317C003D1514E00F0FEFD0FBDD32905D14E4E7D
S11317D000F0F8FD00F009FE0FBD023601F08FFEA7
S11317E0043F3E60494E00F00DF800F0FEFD043F5A
S11317F03E60474E01F083FE043F3E60434E00F0DE
S113180001F80FBD00B5FEF787FFFEF7D2FF0169AF
S113181009020E4301F073FE00BD00B5816A090A96
S1131820D52901D1FEF759FE00BDC0464818000075
S11318306202036D696E01CFB04200DC060070479E
S1131840043F3E60334E2BE0641800006202036DD7
S1131850617801CFB04200DB06007047043F3E6070
S11318602D4E1DE084180000620204756D6178003D
S113187001CFB04200D306007047043F3E60274EBC
S11318800EE0C04628190000620204756D696E00FE
S113189001CFB04200D806007047043F3E60204E9E
S11318A000B5FEF742FF01698269914203D140CF3E
S11318B0FEF719FE00BD062A01D1FFF7DBFB016923
S11318C0282901D1FFF7D6FBFEF773FFFEF757FF78
S11318D0C9000269043F3E60094E0E43164301F0FD
S11318E00EFE01F00CFE043F3E600E4E0E43164306
S11318F001F005FEFEF7F7FD00BD00000028000022
S11319008042000028F0FF1F8041000000200000FA
S113191000E0000000DB000000DC000000D8000054
S113192000D3000000460000681900000000046DA8
S11319306F76650007B5310040CF320040CF0029F3
S11319400FD0B2420DD006D3013E013A705C505420
S11319500139FBD105E030781070013601320139CC
S1131960F9D140CF07BDC0468C19000000000466C1
S1131970696C6C00300040CF310040CF002902D0A8
S113198001397054FCD140CF7047C046CC190000D7
S11319902002014036687047043F3E60984E00B50F
S11319A0FEF7BAFE0369282B08D143697C2119404C
S11319B009010E437C218B43FEF727FEDB001E4307
S11319C0FEF70AFF1E4301F09AFD00BD201A000035
S11319D02002012103CF30600E007047043F3E60B7
S11319E0884E00B5FEF7A1FE0369282B08D1436990
S11319F07C21194009010E437C218B43FEF705FE2F
S1131A00DB001E438369282B02D1C369FEF7F0FD76
S1131A101E4301F074FDFEF760FDFEF75EFD00BDA0
S1131A20581A00002002022B210003CF326812183A
S1131A3032600E00704700B5FEF777FEFFF7E4FA58
S1131A40FFF7AAFFFFF76DFB00F023FCFFF712FB83
S1131A50FFF7C4FF00BDC0469C1A000020020268C4
S1131A6040003688704700B5FEF756FE043F3E60DE
S1131A70654E0369282B08D143693E211940490169
S1131A800E433E218B43FEF7C0FDDB001E43FEF7F1
S1131A90A3FE1E4301F033FD00BDC046F41A00004E
S1131AA020020268210003CF30800E00704700B589
S1131AB0FEF73BFE043F3E60544E0369282B08D1D9
S1131AC043693E21194049010E433E218B43FEF7F1
S1131AD09CFDDB001E438369282B02D1C369FEF7FA
S1131AE087FD1E4301F00BFDFEF7F7FCFEF7F5FC46
S1131AF000BDC0462C1B0000200203682B2103CF2D
S1131B003288121832800E00704700B5FEF70DFEC1
S1131B10FFF77AFAFFF7A7FFFFF703FB00F0B9FB23
S1131B20FFF7A8FAFFF7C3FF00BDC046701B000013
S1131B302002026340003678704700B5FEF7ECFDE2
S1131B40043F3E60324E0369282B08D143691F21AC
S1131B50194089010E431F218B43FEF756FDDB001C
S1131B601E43FEF739FE1E4301F0C9FC00BDC0460A
S1131B70C81B000020020263210003CF30700E0056
S1131B80704700B5FEF7D1FD043F3E60214E036966
S1131B90282B08D143691F21194089010E431F21B5
S1131BA08B43FEF732FDDB001E438369282B02D1F1
S1131BB0C369FEF71DFD1E4301F0A1FCFEF78DFC79
S1131BC0FEF78BFC00BDC046181C00002002036316
S1131BD02B2103CF3278121832700E00704700B5F3
S1131BE0FEF7A3FDFFF710FAFFF7A7FFFFF799FA37
S1131BF000F04FFBFFF73EFAFFF7C3FF00BD000004
S1131C000068000000600000008800000080000000
S1131C100078000000700000581C000020020462DC
S1131C206973210003CF3268024332600E007047AB
S1131C3000B5FEF77AFDFFF7E7F9FFF7ADFEFFF712
S1131C4070FA043F3E60AB4EFFF711FCFFF712FA47
S1131C50FFF7C4FE00BDC046981C000020020462C9
S1131C606963210003CF3268824332600E007047FB
S1131C7000B5FEF75AFDFFF7C7F9FFF78DFEFFF732
S1131C8050FA043F3E609C4EFFF70BFCFFF7F2F95D
S1131C90FFF7A4FE00BDC046D81C00002002047853
S1131CA06F72210003CF3268424032600E007047E9
S1131CB000B5FEF73AFDFFF7A7F9FFF76DFEFFF752
S1131CC030FA043F3E608D4EFFF7D1FBFFF7D2F9A7
S1131CD0FFF784FE00BDC0460C1D00002002046214
S1131CE06974400001CF36680640013EB641F643B0
S1131CF0704700B5FEF719FDFFF74EFE043F3E6046
S1131D007F4EFFF7B4FBFFF71CFC00BD4C1D000029
S1131D10200205686269732103CF3288024332804E
S1131D200E00704700B5FEF700FDFFF76DF9FFF7F1
S1131D309AFEFFF7F6F9043F3E606E4EFFF797FBFD
S1131D40FFF798F9FFF7B3FE00BDC0468C1D0000F5
S1131D50200205686269632103CF3288824332809E
S1131D600E00704700B5FEF7E0FCFFF74DF9FFF7F2
S1131D707AFEFFF7D6F9043F3E605F4EFFF791FB12
S1131D80FFF778F9FFF793FE00BDC046CC1D0000B5
S1131D9020020568786F722103CF32884240328076
S1131DA00E00704700B5FEF7C0FCFFF72DF9FFF7F2
S1131DB05AFEFFF7B6F9043F3E60504EFFF757FB5B
S1131DC0FFF758F9FFF773FE00BDC046001E000080
S1131DD0200205686269744001CF36880640013EDE
S1131DE0B641F643704700B5FEF79FFCFFF73BFE94
S1131DF0043F3E60424EFFF73AFBFFF7A2FB00BDF3
S1131E00401E0000200205636269732103CF32780B
S1131E10024332700E00704700B5FEF786FCFFF7F0
S1131E20F3F8FFF78AFEFFF77CF9043F3E60314E7A
S1131E30FFF71DFBFFF71EF9FFF7A3FE00BDC04629
S1131E40801E0000200205636269632103CF32789B
S1131E50824332700E00704700B5FEF766FCFFF750
S1131E60D3F8FFF76AFEFFF75CF9043F3E60224EA9
S1131E70FFF717FBFFF7FEF8FFF783FE00BDC04630
S1131E80C01E000020020563786F722103CF3278F0
S1131E90424032700E00704700B5FEF746FCFFF773
S1131EA0B3F8FFF74AFEFFF73CF9043F3E60134ED8
S1131EB0FFF7DDFAFFF7DEF8FFF763FE00BDC0466B
S1131EC0041F0000200205636269744001CF367864
S1131ED00640013EB641F643704700B5FEF725FCC7
S1131EE0FFF72BFE043F3E60054EFFF7C0FAFFF7F5
S1131EF028FB00BD00430000804300004040000078
S1131F000040000014200000000006666C61736845
S1131F102100300040CF310040CF854B984268D338
S1131F20844B99422ED0032202402CD102689A425B
S1131F3046D1814A137880221A40FAD030221A40BE
S1131F4002D07D4A302313707C4A062313707C4AE6
S1131F501070000A7B4A1070000A7B4A10707B4A9A
S1131F601170090A7A4A1170090A7A4A1170090A29
S1131F70794A1170704A802313706F4A1378802253
S1131F801A40FAD0704700F0D1FD304164647265A4
S1131F9073732068617320746F20626520342D612F
S1131FA06C69676E656420666F7220777269746904
S1131FB06E6720666C61736820210A0002F096FC4B
S1131FC000F0B4FD29466C617368206C6F63617422
S1131FD0696F6E2063616E6E6F7420626520777224
S1131FE0697474656E20747769636520210A02F050
S1131FF07DFC00F09BFD1943616E6E6F7420777257
S113200069746520696E746F20636F726520210A9C
S113201002F06CFC9820000000000E666C6173688E
S1132020706167656572617365000FB5300040CFFC
S11320303F4B984220D3032398433F4A137880228E
S11320401A40FAD030221A4002D03B4A302313708F
S11320503A4A092313703A4A1070000A394A107038
S1132060000A394A1070344A80231370324A1378B4
S113207080221A40FAD00FBD00F058FD1443616E5F
S11320806E6F7420657261736520636F72652021C1
S11320900A0002F02BFCC0461421000000000A656F
S11320A072617365666C61736800214872B62B496E
S11320B02B4A036893421CD0043F3E600600043F51
S11320C03E6000F033FD10457261736520626C6FF1
S11320D0636B20617420200000F0A0FD00F026FD59
S11320E00C2066726F6D20466C6173680A00FFF7FE
S11320F09CFF04308842DCD100F018FD1246696E62
S113210069736865642E20526573657420210A0022
S113211002F086FCAC21000000000E65726173655C
S1132120666C61736866726F6D00300040CFBDE706
S113213000500000FFFFFFFF0000024007000240C4
S1132140040002400500024006000240080002406C
S1132150090002400A0002400B0002400000020095
S1132160FFFFFFFF46486021002202800230013950
S1132170FBD17047424860210288002A12D000F047
S1132180D5FC1D556E7061697265642031362D620F
S1132190697420466C6173682077726974652E0ACD
S11321A002F0A4FB02300139E6D17047842200001A
S11321B000000768666C6173682130B5320040CF57
S11321C0500813D300F0B2FC1E68666C617368217A
S11321D0206E65656473206576656E206164647243
S11321E065737365732E0A0002F080FB022353406B
S11321F023482021048845882D042C439C422AD05E
S113220006300139F6D11E482021048845882D0462
S11322102C431AD006300139F7D100F087FC27543B
S11322206F6F206D616E7920756E7061697265647F
S11322302031362D62697420466C61736820777290
S1132240697465732E0A02F051FB0280120C4280FD
S1132250868040CF30BD0221114003D0023A8188EC
S1132260360401E0818809040E43043F3E601600F1
S11322700021018041808180FFF74BFE30BD0000CA
S11322805CF3FF1FB02200006202012B01CF36185D
S1132290704700B5FEF749FA043F3E60D84E043F4C
S11322A03E60D84E8169282912D1FEF7E3FE0FE083
S11322B0202300006202012D01CF861B704700B568
S11322C0FEF733FA043F3E60CF4E043F3E60CF4EEC
S11322D0016928290ED14169FF290BD840CFFEF7A7
S11322E057FA0E43816909020E4301F008F9FEF71B
S11322F0F4F800BD0437FEF739FA8269282A03D1BD
S1132300C369FEF775F91A008901D2000E4316431A
S1132310FEF7E3F8FEF760FA1E4301F0F0F800BDA3
S11323204C230000610202312D00013E7047043F3E
S11323303E60B74E00B5FEF7EFF90169C9000E43E0
S1132340FEF74AFA1E4301F0DAF800BD64230000E8
S1132350610202312B0001367047043F3E60AD4EEE
S1132360E8E7C0467C230000610202322D00023EF1
S11323707047043F3E60A84EDCE7C046942300004B
S1132380610202322B0002367047043F3E60A34EC6
S1132390D0E7C046AC23000061020563656C6C2B7A
S11323A004367047043F3E609D4EC3E7DC230000C3
S11323B06102066E65676174650076427047043F8A
S11323C03E60984E00B5FEF7A7F9FEF7F2F90169F1
S11323D00E43C9000E4301F092F800BDF42300003F
S11323E06102036E6F74F6437047043F3E608E4E85
S11323F0E8E7C0460C2400006102037368727608A3
S11324007047043F3E60894EDCE7C0461C24000050
S113241061020373686C7600704706E034240000A0
S1132420610202322A0076007047043F3E60402673
S1132430C8E7C0464C24000061020563656C6C73F8
S1132440B6007047043F3E608026BBE7642400006A
S1132450610202322F0076107047043F3E60744ED2
S1132460B0E7C046B0240000610203616273F01754
S113247036184640704700B5FEF74EF9FEF799F955
S11324801E2101600169043F3E606A4ECA00164382
S113249001F035F8043F3E605A4E0E43164301F0F6
S11324A02EF8043F3E60644E0E4301F028F800BD50
S11324B0F8240000420005752F6D6F64310040CF91
S11324C0002903D1043F3E60002670470122002307
S11324D08E4206D9003104D45200490001D48E4200
S11324E0FAD88E4201D3761A134349085208F8D118
S11324F0043F3E601E007047682500004200042F20
S11325006D6F640000B5300040CF002E1CDA7642B7
S113251000280CDA4042043F3E600600FFF7CEFF7D
S1132520300040CF7642043F3E60060000BD043FC9
S11325303E600600FFF7C2FF300040CF40427642C3
S1132540043F3E60060000BD002807DA4042043F15
S11325503E600600FFF7B2FF764200BD043F3E60D6
S11325600600FFF7ABFF00BD7C2500004200036DB1
S11325706F6400B5FFF7C6FF40CF00BD9025000093
S11325804200012F00B5FFF7BDFF043700BDC04670
S1132590A42500006100046576656E0001203040CA
S11325A036187047BC250000810004626173650021
S11325B0043F3E60214E70470A000000D42500000D
S11325C000000662696E617279001C480221016094
S11325D07047C046EC250000000007646563696D20
S11325E0616C16480A2101607047C04688260000C5
S11325F000000368657811481021016070470000ED
S1132600003000000018000000380000001A00002C
S1132610401E0000401C0000801E0000801C0000C2
S1132620001D000040420000C043000040080000BC
S113263040100000C017000040400000FC2F0020A4
S1132640804981480160814981480160814982480B
S11326500160824982480160824801600021824809
S1132660017082480170824801708248017006211D
S1132670814801700021814801701A21804801704D
S11326800C21794801707047A42600008100096874
S11326906F6F6B2D656D6974043F3E60794E7047B2
S11326A09A270000C0260000810008686F6F6B2D18
S11326B06B657900043F3E60734E7047C22700008B
S11326C0E026000081000A686F6F6B2D656D6974E8
S11326D03F00043F3E606D4E7047F0270000C04647
S11326E0FC260000810009686F6F6B2D6B65793FD4
S11326F0043F3E60664E7047222800001C270000FD
S113270081000A686F6F6B2D706175736500043FFB
S11327103E60604E7047CE490000C046342700003A
S1132720000004656D6974000FB5564800F029F87F
S11327300FBDC046482700000000036B65790FB544
S1132740514800F01EF80FBD5C270000000005652D
S11327506D69743F4D4800688746C0467027000085
S11327600000046B65793F00494800688746C0460D
S1132770882700000000057061757365454800688E
S1132780874600688746C046B027000000000B73E8
S1132790657269616C2D656D697400B500F028F887
S11327A0002E40CFFAD03C48067040CF00BDC04652
S11327B0DC27000000000A73657269616C2D6B658B
S11327C0790000B500F02DF8002E40CFFAD0324841
S11327D0043F3E600678F6B200BDC04610280000F3
S11327E000000C73657269616C2D656D69743F003E
S11327F000B5FFF7C3FF294808210170043F3E607C
S11328000026264880220178114000D0F64300BDFE
S1132810A028000000000B73657269616C2D6B6564
S1132820793F00B5FFF7AAFF1C4808210170043F57
S11328303E600026194820220178114000D0F6435A
S113284000BD0000803F000038800440300400F0E8
S113285034800440000000040480044000020000AE
S1132860049004400890044003A0064002A00640DF
S113287006A0064005A006400AA0064000A00640A7
S113288001A00640F82F0020F42F0020F02F002094
S1132890EC2F0020E82F002007A0064004A00640EB
S11328A0C42800000000076365787065637400B590
S11328B0386801B40130386000F00BF801BC0670D0
S11328C040CF00BD3C2900000000066163636570D1
S11328D0740000B502CF01390022FFF730FF300049
S11328E040CF7F2809D0202819D2092816D00A28D9
S11328F01FD00D281DD00828EFD1002AEDD000F0FC
S113290015F903082008002AE7D0885C013A8023DF
S11329100340E2D040230340F5D0DEE72020B2425A
S1132920DBD2043F3E600600FFF7FEFE013288540E
S1132930D3E7160000F0A8F800BDC04650290000F7
S1132940400003746962043F3E602B4E7047C046EA
S1132950682900008100033E696E043F3E60274EF3
S1132960704700000000C0469029000082000E63FA
S1132970757272656E742D736F7572636500043FB2
S11329803E601F4E70470000000094F0FF1FC046D9
S1132990AC290000000009736574736F7572636578
S11329A0174802CF0660416040CF7047CC29000031
S11329B0000006736F7572636500043F3E60104E3D
S11329C0043F7068386036687047C046042A0000C7
S11329D000000571756572790FB508480021016022
S11329E0FFF7B1FF043F3E60043F3E60C826FFF797
S11329F070FFFFF7D5FF0FBD94F0FF1FE42F0020F9
S1132A00DC2F0020542A0000000007636F6D706102
S1132A1072650FB5310040CF01CF884202D040CF5C
S1132A2000260FBD02CF002810D001380A5C335CA9
S1132A30412A02D35B2A00D22032412B02D35B2BE2
S1132A4000D220339A42EED000260FBD0026F64372
S1132A500FBDC046682A000000000263720000B582
S1132A6000F064F8010A00BD7C2A00000000026244
S1132A706C00043F3E6020267047C046902A000048
S1132A800000057370616365043F3E6020264BE6D9
S1132A90B02A00000000067370616365730000B51E
S1132AA0002E03DDFFF7F0FF013EFBD140CF00BD58
S1132AB0C02A00005000065B636861725D0005E097
S1132AC0D82A0000000004636861720000B501F0B8
S1132AD01BFC40CF367800BDE82A000050040128D2
S1132AE0043F3E60292606E0042B00005004015CEC
S1132AF0043F3E60002600B501F010FC043740CFCF
S1132B0000BDC0464C2B00001000022E22009F483E
S1132B1000B5043F3E60060000F0DEF9043F3E606D
S1132B20222601F0FBFB00F02AFD00BD0AB4043F9D
S1132B303E607646013E33780121013319405B182B
S1132B407146C9188E460ABC3CE0C046742B00008E
S1132B501000026322008E48DAE7043F3E607646A6
S1132B60013E33780121013319405B187146C918BD
S1132B708E467047A02B0000100002732200854887
S1132B80C6E7043F3E607646043F3E60013E367829
S1132B900121731C19405B187146C9188E46704791
S1132BA0B82B0000000005636F756E740136043F96
S1132BB03E60013E36787047E02B0000000005635C
S1132BC07479706501B53078002807D00136043F68
S1132BD03E603678FFF7A8FD0138F7D140CF01BD3C
S1132BE0102C00000000047479706500310040CF9F
S1132BF0300040CF00B5002908D00022043F3E60D9
S1132C00865CFFF791FD01329142F7D100BDC046C9
S1132C104C2C00000000046865782E0007B53100D4
S1132C2040CF20200F220438043F3E600E00C640EF
S1132C301640092E01D9373600E03036FFF774FD0F
S1132C400028F0D1FFF720FF07BDC0465C2C000030
S1132C50000003682E731FB54F4C0EE06C2C00006F
S1132C60000003752E731FB54C4C06E0EC2C0000DD
S1132C700000022E73001FB5494C4A49C91B89083C
S1132C80494A106803B40A201060FFF74FFF085345
S1132C907461636B3A205B00043F3E600E0001F0F8
S1132CA01BFDFFF743FF025D200003BC3E4A10609A
S1132CB000290AD03D4A106806B4043F3E6006006D
S1132CC0A04706BC043A0139F5D1FFF72FFF0620CF
S1132CD0544F533A2000043F3E603600A047FFF7AC
S1132CE025FF04202A3E0A001FBDC046B02D000067
S1132CF0000005776F72647300B5FFF717FF010AD0
S1132D0000F07DFEFFF712FF09416464726573737E
S1132D103A20043F3E60FFF781FFFFF707FF064CB0
S1132D20696E6B3A2000043F3E603668FFF776FF19
S1132D30FFF7FCFE07466C6167733A20043F3E6070
S1132D40B688FFF76BFFFFF7F1FE06436F64653A41
S1132D502000B01D00F08EFE043F3E600600FFF729
S1132D605DFFFFF7E3FE064E616D653A2000043F08
S1132D703E600636FFF726FFFFF7D8FE010A00F093
S1132D8056FE300040CFBDD040CF00BD2C2B0000FC
S1132D905A2B0000822B00001D2C0000C7460000A7
S1132DA0D94600005CF2FF1FFC2F002058F2FF1FE1
S1132DB0CC2E000000001072656769737465726C34
S1132DC069746572616C2C003FB5350040CF2900F1
S1132DD0C90029432D029E480543FF2300223000E9
S1132DE0D040984301D00132F9E73000D040184078
S1132DF02843043F3E60060000F081FB95480543EC
S1132E0018009040864310D000243000E0409843DE
S1132E1001D00134F9E7101B043F3E600E0080012D
S1132E20064300F06CFB2200DFE7002A06D0043FD3
S1132E303E600E009201164300F061FB40CF3FBD9F
S1132E401FB5310040CF844C0C43C9000C434901E9
S1132E50300040CF020EFF231A407D4B0B43134337
S1132E60043F3E601E0000F04AFB043F3E60260023
S1132E7000F045FB020CFF231A40784B0B4313432D
S1132E80043F3E601E0000F03AFB043F3E60260013
S1132E9000F035FB020AFF231A40704B0B43134327
S1132EA0043F3E601E0000F02AFB043F3E60260003
S1132EB000F025FB0200FF231A40684B0B43134329
S1132EC0043F3E601E0000F01AFB1FBD3C2F0000B3
S1132ED000000563616C6C2C0FB5330000F06EFECE
S1132EE0300040CF1B1A043B5D49194000290ED025
S1132EF05C4A91420BD00136043F3E600026FFF746
S1132F0063FF043F3E60584E00F0F9FA0FBD40CF16
S1132F105B085648564919400843DB0A554919408D
S1132F20090408439B0A0121194089060843043F08
S1132F303E60060000F013FB0FBDC046902F00005A
S1132F400000086C69746572616C2C0008B5043F5C
S1132F503E60494E00F0D3FA043F3E60474E00F015
S1132F60CEFA474B3000184098420BD1F643043F49
S1132F703E600626FFF728FF043F3E60414E00F006
S1132F80BEFA08BD043F3E600626FFF71DFF08BDDC
S1132F90B82F00000000066372656174650000B517
S1132FA000F03DF82F200002D7308047043F3E60F8
S1132FB07646013E00BDC046103000002000056486
S1132FC06F65733E2F200002D7308047043F3E6078
S1132FD07646013E7047043F3E607646013E2A4AEB
S1132FE013682A4909680220084000D102310231DD
S1132FF011600136043F3E600026FFF721FF043FC5
S11330003E60194E00F07BFA136000F0ECF900BD4D
S1133010943000000000073C6275696C647300B56D
S113302000F07AFB00F0CAFD0220064040CF04D134
S1133030043F3E60362600F062FA043F3E60144EC0
S113304000F05DFA043F3E60102600F0CBFA00BDAC
S1133050002000000010000000020000003000000A
S11330600100C0FF0000C0FF8047000000F800F02E
S1133070FF070000FF030000043F00003E60000063
S11330800000FFFFF643000000F0FF1F14F0FF1FD5
S113309000B50000A03000005000035B275D03E092
S11330A0B83000000000012700B501F02DF900F050
S11330B020FD300040CF00BDF83000001000087043
S11330C06F7374706F6E650000B5FFF7EDFF10212C
S11330D001400DD12021014005D0FFF737FF043F07
S11330E03E60E64E04E0FFF731FF043F3E60E44EED
S11330F0FFF7F2FE00BDC04644310000000007693E
S11331006E6C696E652C00B5DE49DF4ADF4B308892
S1133110884208D0904208D0984206D0043F3E60CE
S1133120060000F0ECF90236F1E740CF00BD0EB422
S1133130D54AD64B01880230914201D09942F9D147
S11331400EBC7047583100000000047265742C00F6
S1133150043F3E60CC4ED2E168310000300004658B
S113316078697400F4E7C0468031000030000772CB
S1133170656375727365043F3E60C54E3668ABE6A1
S1133180983100008100057374617465043F3E60EA
S1133190C04E704700000000AC3100000000015D2B
S11331A0BC480021C94301607047C046BC310000DF
S11331B01000015BB748002101607047E431000052
S11331C00008013A00B5B448076000F0A5FA043FCE
S11331D03E60AC4E00F093F9AE480021C943016053
S11331E000BDC046443200003010013B00B5AA487F
S11331F00168B9420ED0FFF799FC1520537461633E
S11332006B206E6F742062616C616E6365642E0A5C
S113321001F06CFB043F3E609B4E9E480068411CDD
S113322007D0062804D8043F3E609C4E00F00CF9F9
S1133230964E00F064F900F0D6F89648002101603B
S113324000BDC0465832000000000765786563750C
S11332507465300040CF8746703200001010096951
S11332606D6D656469617465043F3E601026EBE032
S113327088320000101006696E6C696E6500043FA8
S11332803E602026E0E0C046A432000010100B632C
S11332906F6D70696C656F6E6C79043F3E603026AB
S11332A0D2E0C046C032000010100A302D666F6CA8
S11332B06461626C6500043F3E604026C4E0C04621
S11332C0DC32000010100A312D666F6C6461626C90
S11332D06500043F3E604126B6E0C046F832000077
S11332E010100A322D666F6C6461626C6500043FD5
S11332F03E604226A8E0C0461433000010100A3392
S11333002D666F6C6461626C6500043F3E60432609
S11333109AE0C0463033000010100A342D666F6CFA
S11333206461626C6500043F3E6044268CE0C046E4
S11333304C33000010100A352D666F6C6461626CAA
S11333406500043F3E6045267EE0C04668330000C9
S113335010100A362D666F6C6461626C6500043F60
S11333603E60462670E0C0468433000010100A37E1
S11333702D666F6C6461626C6500043F3E60472695
S113338062E0C046B4330000000008636F6E7374DB
S1133390616E740000B500F0BFF9FFF7D7FD043F7C
S11333A03E603A4E00F0ABF8FFF785FF00F01BF8E3
S11333B000BDC046D833000000000932636F6E734D
S11333C074616E7400B500F0A7F939683E600E466A
S11333D0FFF7BCFDE1E7C046383400000000067387
S11333E06D756467650000B52D4801682C4A9142EB
S11333F01CD202390A882B4B9A4204D1043F3E6006
S1133400294E00F07CF800F069F828480068043F71
S11334103E600600264909680431214A1368116098
S113342000F06DF81360FEF7A5FE00BD00F056F83D
S1133430043F3E60002608E0B43400000000087336
S11334406574666C6167730000B515480168144AB9
S1133450914205D2154801683143016040CF00BD57
S1133460320040CF12480068043001880D4B994265
S113347001D1110000E01143018000BD06310000BC
S1133480D82E000000B5000000BD00007047000009
S113349014F0FF1FD82F002010F0FF1F2010000091
S11334A000F0FF1FFFFF00000000000020F0FF1FDE
S11334B004F0FF1FD0340000410007616C69676E9F
S11334C065640120304036180220304036187047B9
S11334D0F4340000000005616C69676E00B5834830
S11334E001680220014004D0043F3E60002600F041
S11334F006F800BD38350000000002682C000FB546
S1133500B6B27B480168002902D0013100D00160C5
S113351076480168754A914205D2043F3E600E0028
S1133520FEF74BFE02E0320040CF0A80043F3E60CB
S1133530022600F057F80FBD543500000000012C9E
S113354000B5043F3E60FFF7DAFF360CFFF7D7FF04
S113355000BDC046703500000000033E3C2C00B5A1
S1133560043F3E60360CFFF7CAFFFFF7C8FF00BDFB
S1133570D8350000000007737472696E672C07B5B4
S1133580FF21314040CF300040CF002905D1043F16
S11335903E600026FFF7B3FF07BD043F3E60067898
S11335A036020E43FFF7ABFF0130013902290AD37B
S11335B0043F3E604678360202781643FFF79FFFC9
S11335C002300239F2E7002900D107BD043F3E6012
S11335D00678FFF794FF07BD34360000000005614C
S11335E06C6C6F7441480168404A91420FD23200BA
S11335F040CF89183F4A914219D3FFF797FA0B46F7
S11336006C6173682066756C6C0A01F06FF93200A6
S113361040CF8918384A1268914208D3FFF786FAD6
S11336200952616D2066756C6C0A01F05FF90160E6
S11336307047C0465C36000000000D636F6D706912
S11336406C65746F72616D3F043F3E6000262748CD
S113365000682649884248D3F64370477C36000008
S113366000000C636F6D70696C65746F72616D003E
S11336701E4800681D49884211D37047083700006E
S113368000000E636F6D70696C65746F666C6173B6
S11336906800164800681549884200D270471748E8
S11336A0174902680B680A600360104815490268EC
S11336B00B680A60036010480068834215D300B5A4
S11336C0FFF734FA23205661726961626C657320D6
S11336D0636F6C6C696465207769746820646963DE
S11336E074696F6E6172790A00BD704700F0FF1F44
S11336F0D82F00200000020024F0FF1F04F0FF1F59
S11337001CF0FF1F18F0FF1FF4370000000008280A
S1133710637265617465290000B500F0F5FD002E43
S11337200ED1FFF703FA1520437265617465206EAC
S113373065656473206E616D6520210A01F0D6F819
S11337403868043F3E60043F386000F0A3F940CF7E
S1133750002E40CF11D03868043F3E60043F3860EB
S1133760FFF7E4F9095265646566696E6520FFF741
S11337703DFAFFF7DBF9022E0A00FFF7AFFE00F077
S11337801DFA8D4800688C4988421CD28B48002160
S11337900160043F3E600626FFF724FFFDF7D8FCD6
S11337A0FFF7EDFE864801680A68864B9A4207D106
S11337B0814A13681160043F3E60FFF7C1FE136045
S11337C0066040CF10E07E48043F3E600668FFF785
S11337D0B7FE043F3E607C4EFFF791FE784831000F
S11337E040CF0160FFF7CBFE734801687748016062
S11337F000BDC0460C3800000000087661726961A3
S1133800626C6500043F3E60012613E0243800002A
S1133810000009327661726961626C65043F3E6042
S1133820022607E0FC3800000000096E7661726928
S113383061626C6500B5FFF76FFF5F4801685E4A1F
S1133840914233D20F200640B20061480168891AC0
S1133850604A91420BD2FFF769F90F4E6F742065ED
S11338606E6F7567682052414D0A01F03FF80160A0
S1133870043F3E600E00FFF769FB043F3E60564E76
S1133880FFF73DFE300040CF0200002805D00E6057
S11338900431FFF755FE0138F9D1043F3E6080261C
S11338A01643FFF7D1FDFFF79EFD00BD00F086F93A
S11338B00220064040CF04D1043F3E603626FFF785
S11338C01EFE043F3E60454EFFF749FE043F3E6046
S11338D0434EFFF744FE043F3E603F4EFFF70FFEAA
S11338E0300040CF002803D0FFF72AFE0138FBD177
S11338F0FFF7E1FCFFF777FD00BDC046E8390000A3
S11339000000076275666665723A00B5FFF704FF4A
S1133910012030403618022030403618264801680D
S1133920254A914226D22A480168891B294A914294
S11339300BD2FFF7FBF80F4E6F7420656E6F75673F
S1133940682052414D0A00F0D1FF0160043F3E60FF
S11339500E00FFF7FBFA043F3E601F4EFFF7CFFD5A
S1133960FFF7EEFD043F3E601E4EFFF76DFDFFF7CF
S11339703AFD00BD00F022F90220064040CF04D1F8
S1133980043F3E603626FFF7BAFD043F3E60134E07
S1133990FFF7E5FD043F3E60114EFFF7E0FD043FF5
S11339A03E600D4EFFF7ABFDFFF71CFEFFF783FCF7
S11339B0FFF719FD00BD000000F0FF1F20F0FF1FFE
S11339C004F0FF1FFFFFFFFFFFFF000014F0FF1FC5
S11339D024F0FF1F1CF4FF1F704700003E60043FEB
S11339E002367E4640010000183A000000000F64D1
S11339F0696374696F6E6172797374617274424839
S1133A0000684149043F3E60884201D23F4E7047FE
S1133A103F4E36687047C046543A000000000E64BA
S1133A20696374696F6E6172796E6578740003B549
S1133A3031683848814207D08879FF2804D00E00C5
S1133A40043F3E60002603BD043F3E600026F6436B
S1133A5003BDC046883A000000000A736B697073A6
S1133A607472696E67003178013101220A40891845
S1133A707618704706B40178013101220A4089188A
S1133A80401806BC7047C0461C3B0000000004669A
S1133A90696E64003FB500220023350040CF340036
S1133AA040CFFFF7ACFF1C48B188884217D0043FD1
S1133AB03E600636FFF77AF8043F3E602600043F76
S1133AC03E602E00FEF7A5FF002E40CF07D0B01DAC
S1133AD0FFF7D0FF02000B000B48824204D2FFF72D
S1133AE0A6FF300040CFDED01600043F3E601E002B
S1133AF03FBD00B531003868FFF7CCFF3A68002AB3
S1133B0001D100F05FFE00BD00F0FF1F10040000B3
S1133B1004F0FF1FFFFFFFFFFFFF0000783B0000E2
S1133B20000006636A756D702C00320040CF3100CE
S1133B3040CF8B1B043BEA49194000290DD0E948CA
S1133B4081420AD0FEF7F2FF0D4A756D7020746F42
S1133B506F206661720A00F0C9FE5B10FF210B4002
S1133B60134330001E0000B5DF4A13681060FFF7EE
S1133B70C6FC136000BDC046B03B00000000056AEF
S1133B80756D702C310040CF300040CF0B1A043BD0
S1133B90D6491940002902D0D54A9142D2D15B10AE
S1133BA0D44A1340D44A1343043F3E601E00DAE76C
S1133BB0C83B00000000046865726500043F3E6075
S1133BC0C94E36687047C046043D000000000D66CB
S1133BD06C6173687661722D68657265043F3E603E
S1133BE0C64E3668704700B5043F3E60C44EFFF7CA
S1133BF086FC043F3E60C34EFFF781FC00BDDDE759
S1133C0000B500F037F839683E600E46043F3E6068
S1133C10BD4EFFF78AFF00BD00B500F02BF83968F0
S1133C203E600E46043F3E60B84EFFF77EFF00BD87
S1133C3000B5FFF7D8FF00F01DF839683E600E4666
S1133C40043F3E60B24EFFF770FF00BD00B500F0C8
S1133C5011F839683E600E46FFF794FF00BD00B5C9
S1133C60FFF7C1FFFFF7AAFF043F3E600226FFF7FC
S1133C70B9FC00BD00B5FFF7A1FF043F3E6002267A
S1133C80FFF7B0FC00BD00B5FFF798FFFFF77AFF20
S1133C9000BD00B5FFF792FF043F3E609C4EFFF766
S1133CA044FF00BD00B5FFF789FF043F3E60964E18
S1133CB0FFF73BFF00BD00B5FCF72EFD016942692B
S1133CC0FCF70BFCFCF742FCFCF745FC0369282BD2
S1133CD002D14369FCF78CFC282908D1043F3E60DB
S1133CE08C4E002A00D00136FFF709FC06E0043FA1
S1133CF03E60894E09020E43FFF701FCFCF730FCDD
S1133D0000BDC046743D000030060269660000B57F
S1133D10FFF7A5FF043F3E607D4E043F3E60022650
S1133D2000BD00B5FCF761FDFDF777FD816A002950
S1133D3010D002B4FCF702FCFFF740FF043F3E60E2
S1133D400226FFF74FFC043F3E6040BC043F3E6048
S1133D50022600BDFFF7AFFFFFF730FF043F3E60D0
S1133D600226FFF73FFC043F3E60694E043F3E607D
S1133D70022600BDA83D0000300004656C73650098
S1133D8000B5022E26D140CFFFF774FFFDF7E0F90E
S1133D90FFF714FF39683E600E46FFF7C6FE043F86
S1133DA03E60052600BDC046F43D000030000474AA
S1133DB068656E00052E01D140CF64E7022E09D15B
S1133DC040CF00B5FFF7FAFE39683E600E46FFF7B4
S1133DD0ACFE00BDFEF7AAFE1753747275637475CA
S1133DE072657320646F6E2774206D617463680A52
S1133DF000F07CFD243E00003000067265706561B1
S1133E007400042EE6D140CF00B5FDF784F9FFF726
S1133E101DFFFFF7D3FE39683E600E46FFF785FEAF
S1133E2000BDC046503E00003006057768696C65E9
S1133E30012ECFD140CF00B5FFF769FF023600BD98
S1133E40012EC7D140CF00B5FFF76BFF023600BD8E
S1133E50B03E0000300605756E74696C012EB9D150
S1133E6040CFE5E67047012EB4D140CF00B5FDF751
S1133E70D4FC816A00290DD002B4FCF75FFBFFF784
S1133E80F9FE39683E600E46043F3E6040BCFFF7D1
S1133E904CFE00BDFFF70FFFFFF7ECFE39683E60F4
S1133EA00E46043F3E601A4EFFF73FFE00BDC0467B
S1133EB0C43E0000300005616761696E012E89D13E
S1133EC040CFC3E61C3F0000300005626567696EA1
S1133ED000B5FFF794FE043F3E60012600BD0000DC
S1133EE001FFFFFF00FFFFFF00F0FF1F01F8FFFFCE
S1133EF000F8FFFFFF07000000E0000024F0FF1FB0
S1133F00002E000040CF000000D1000000D70000C8
S1133F1000D000000022000000280000343F000010
S1133F202002016B043F3E60029E7047043F3E60E6
S1133F308C4E0AE0603F00002002016A043F3E60AC
S1133F40009E7047043F3E60874E00B5FCF7BBFA05
S1133F50FCF7BEFB03611B021E43FFF7D0FA00BD52
S1133F608C3F000020020169043F3E602600704738
S1133F7000B5043F3E607D4EFCF7A5FAFCF7A8FBB4
S1133F8003611E43FFF7BBFA00BDC046CC3F0000EF
S1133F903000056C6561766500B5754801683B00C5
S1133FA0043F1A68043B1A6008338B42F9D103B406
S1133FB0FFF760FE03BC330040CF04390B6001609F
S1133FC004390A6801320A6000BDC046E03F0000BF
S1133FD0200006756E6C6F6F700030BC7047C04671
S1133FE0184000003000052B6C6F6F70032E00D05A
S1133FF0F0E640CF00B5043F3E605E4EFFF783F825
S1134000FFF70AFE1AE0802000060019A419401BDD
S1134010801940CF7047C0465C4000003000046CFB
S11340206F6F7000032E00D0D4E640CF00B5043F7C
S11340303E60514EFFF767F8FFF7E2FD00F04AF9E2
S11340404B48310040CF0160043F3E604B4EFFF7C8
S11340505AF800BD0134AC427047C046A440000089
S1134060300202646F0000B5043F3E60444EFFF727
S11340704AF83F480168043F3E600E00043F3E603A
S113408000260760FFF7BBFD043F3E60032600BD2A
S113409000B500F02EF8ECE730B4340040CF350022
S11340A040CF7047944100003002033F646F00B575
S11340B0043F3E60324EFFF726F8043F3E60314E27
S11340C0FFF71DFA2A480168043F3E600E00FFF71F
S11340D0D1FD0136043F3E60012625480760FFF705
S11340E08EFD043F3E60032600BD00B500F001F8DC
S11340F0E3E700B5FCF779FBFCF717FBFCF726FABE
S1134100043F3E60204EFFF7FAF90169282907D0E1
S1134110043F3E601D4EC9000E43FFF7F0F907E06F
S1134120043F3E604669043F3E600426FEF74CFEB1
S11341308169282907D0043F3E60154EC9000E430B
S1134140FFF7DDF907E0043F3E60C669043F3E60C7
S11341500526FEF739FEFCF7C0F9FCF7BEF9FCF7BB
S1134160FFF900BD02980000009800002000000044
S11341700CF0FF1F0640000054400000DA3F00002E
S113418098400000AC42000030B40000040000007D
S113419005000000B4410000300004636173650051
S11341A000B5FCF722FB043F3E600026043F3E605E
S11341B0082600BDCC4100003000033F6F666A480A
S11341C00AE0013EB64140CF7047C0467442000049
S11341D03002026F66006548082E00D0FAE540CF31
S11341E000B5043F3E600600FEF78DFFFFF742FD79
S11341F039683E600E460136043F3E600926043F9E
S11342003E605B4EFFF77BF900BD082E00D0E1E570
S113421040CF00B5FCF789FAFCF798F9043F3E60FB
S1134220544EFCF7ACFA0E430269282A15D14269B0
S1134230FF2A07D840CF043F3E604F4E1643090281
S11342400E430CE0043F3E601600FCF741FA1A00EE
S1134250043F3E601E00FEF7B7FDD2001643FFF791
S11342604EF9FCF73AF9FCF77BF9BFE7300040CF91
S1134270B0427047AC420000300005656E646F6662
S1134280092E00D0A6E540CF00B540B440CFFFF7DB
S1134290F1FC39683E600E46FFF704FD043F3E60C2
S11342A040BC043F3E60082600BDC046FC420000FE
S11342B0300007656E6463617365082E00D089E57C
S11342C040CF00B5043F3E60294EFFF718F900F0D7
S11342D001F800BD00B5300040CF00280DD003B474
S11342E001213140002903D0013EFFF7D2FC01E057
S11342F0FFF7C9FC03BC0138EFE700BD1043000021
S1134300000005746F6B656E043F3E60202605E077
S113431080430000000005706172736510B5FEF7FC
S11343204CFB310040CF300040CF144A126884184F
S1134330202E07D191420FD0835CB34202D10132C7
S11343408418F7E7914207D0835C0132B342F9D174
S11343508618361B013E01E08618361B043F3C607C
S11343600648026010BD0000C24100006C4200001B
S113437040CF00008042000000280000E42F00200D
S1134380C04300000000056469676974D44B1B686E
S1134390303E0BD30A2E0BD3073E0A2E06D3242E0F
S11343A006D3203E0A2E01D3242E01D300267047C3
S11343B09E42FBD2043F3E600026F6437047C0464F
S11343C0CC4400000000066E756D626572003FB556
S11343D0310040CF701E0126012204B4C04B1B687B
S11343E00024002500293CD00130013902782D2A0F
S11343F004D101B00022D24304B4F3E7232A01D14B
S11344000A23EFE7242A01D11023EBE7252A01D15F
S11344100223E7E72E2A01D10226E3E72C2A36D02D
S1134420043F3E601600FFF7B3FF002E40CF2BD0B1
S1134430043F3E602600043F3E602E00043F3E6081
S11344401E00043F3E6000260FB4FCF75EFB0FBC69
S1134450350040CF340040CF0022A419554140CF4D
S1134460C0E704BC002A04D50022E443ED43013430
S1134470554133002600012B02D0043F3E602E003C
S1134480043F3E601E003FBD01B000263FBD250035
S1134490002402260029E4D0425C01392E2AF9D0F6
S11344A0043F3E601600FFF773FF002E40CFEBD0B1
S11344B0043F3C60043F3E601E000FB4FCF7D9FB90
S11344C00FBC340040CF40CFE4E7C046F0440000C6
S11344D00000062E6469676974000A2E01D2303622
S11344E07047242E01D23736704723267047C046C2
S11344F028450000000004686F6C6400330040CF5E
S1134500784801783F290DD2013101704018012902
S113451007D00138027801300270013801390129CD
S1134520F7D103707047C046484500000000056895
S11345306F6C643C330040CF6A4801783F2902D253
S1134540013101704354704760450000000004735A
S113455069676E00002E01D440CF70472D26CDE749
S113456074450000000002233E005E4806780130D6
S1134570386070478C45000000000366235310B573
S1134580202400F008F8013CFBD110BDB045000028
S113459000000266230000B5043F3E60504E3668BA
S11345A0FCF785FAFFF799FFFFF7C4FF00BDC0468B
S11345B0CC45000000000223530000B500F00AF8C7
S11345C0002EFBD138680028F8D100BDF845000062
S11345D00000012300B5043F3E60414E3668043FAD
S11345E03E600026FCF765FBFCF73AF940CFFFF785
S11345F074FFFFF783FF00BD0C4600000000023C7F
S113460023003848002101707047C046204600004E
S1134610000002662E00043F3E60202605E0C046EE
S113462070460000000003662E6E00B510B434001E
S113463040CFFCF75BFDFCF7F9F9043F3E60002630
S1134640FFF7DFFFFFF7B9FF40CF2C26FFF772FF1C
S1134650002C03D0FFF79FFF013CFBD110BC40CFDF
S1134660FFF778FF043F3E60043F3E601EE0C04613
S11346708846000000000375642E00B5FFF7C1FFF3
S1134680FFF79BFF12E0C046BC4600000000026436
S11346902E0000B5FCF72AFDFCF7C8F9FFF7B1FFBF
S11346A0FFF78BFFFCF737FDFFF754FFFFF75DFFC4
S11346B0FEF79CFAFEF7E8F900BDC046D0460000BC
S11346C0000002752E00043F3E600026D5E7C04678
S11346D0E84600000000012E043F3E60F617D8E7CC
S11346E0FC2F002054F0FF1F304700000000086535
S11346F076616C756174650000B5FEF75EF901CFF3
S113470001B440B440CF8A48016802B4002101607A
S1134710FEF746F900F014F8854802BC0160043F36
S11347203E6040BC01BC043F3860FEF739F900BD6F
S1134730C4480000000009696E7465727072657483
S113474030B57C4887420BD9FEF7F0F910537461F9
S1134750636B20756E646572666C6F770A00C5E0E2
S1134760754887420AD2FEF7E1F90F537461636B0F
S1134770206F766572666C6F770AB7E06F4C2568B8
S1134780002D01D13D002560FFF7BEFD002E02D1B2
S1134790043740CF30BD3868043F3E60043F386082
S11347A0FFF778F9310040CF320040CF002A15D10D
S11347B038683100FCF7EFFFFFF709FE320040CF05
S11347C0002ABED1FEF716FAFEF7B0F90C206E6F80
S11347D07420666F756E642E0A0087E0584B1B6860
S11347E0002B29D100252560564B0B4009D00437F6
S11347F040CF55480760FEF78FFF51480121016003
S11348009FE730230B40302B0ED1FEF7EFF9FEF774
S11348108DF91220697320636F6D70696C652D6F5B
S11348206E6C792E0A0061E0043740CF043F3E608D
S11348301600FEF70EFD84E7043740CF43480840D6
S113484001D1FCF7A8FF8020084008D1EB1B9B088E
S11348504020084009D00F200840834205D3043F7C
S11348603E601600FEF7F5FC6BE7394808400CD0B3
S1134870FBF7E1FD1000FEF75AFC421C3548904757
S113488038002060FBF7E6FD5BE7FBF7D4FDFBF7A0
S113489055FE002525603048084001D1FBF7A5FFEF
S11348A0043F3E60160010220A4002D0FEF7D1FCFD
S11348B047E720220A4002D0FEF725FC41E7FEF735
S11348C00BFB3EE7E0480000810009686F6F6B2D29
S11348D071756974043F3E60204E70471C490000A6
S11348E07049000000000471756974001C48854615
S11348F0104FFDF737FC1B480A21016010480021C6
S113490001600E480160FBF768FE09480160164823
S1134910016016494160114800688746FEF75CF85B
S1134920FFF70EFFFEF702F905206F6B2E0AF5E77D
S1134930E42F00205CF2FF1F5CF1FF1F08F0FF1F53
S1134940D82F00200008000010F0FF1F0004000012
S11349500002000028F0FF1F00100000D42F0020E8
S11349605CF3FF1FFC2F0020DC2F002094F0FF1FBE
S11349708C49000000000565696E743F043F3E6089
S1134980EFF31086013EB6417047C0469C490000D3
S113499020000465696E740062B67047AC4900007B
S11349A020000464696E740072B67047C449000044
S11349B02000046970737200043F3E60EFF30586C3
S11349C07047C046D04900000000036E6F70704706
S11349D0144A0000000009756E68616E646C6564B9
S11349E000B5FEF7A3F814556E68616E646C6564D7
S11349F020496E746572727570742000043F3E60C5
S1134A00EFF30586FEF70AF9FEF790F802210A0093
S1134A1000BDC046284A0000000005726573657435
S1134A2099489A490160C0464C4A000081000B69CC
S1134A3072712D7379737469636B043F3E60944E95
S1134A407047E0490000924800688746704A0000B9
S1134A508100096972712D6661756C74043F3E6052
S1134A608C4E7047E04900008A4800688746C0467B
S1134A70984A000081000E6972712D636F6C6C6539
S1134A806374696F6E00043F3E60834E7047E04973
S1134A900000814800688746B84A00008100076921
S1134AA072712D616463043F3E607C4E7047E0493F
S1134AB000007A4800688746D84A000081000769E8
S1134AC072712D636D70043F3E60754E7047E0490E
S1134AD00000734800688746F84A000081000769AF
S1134AE072712D646163043F3E606E4E7047E0490D
S1134AF000006C48006887461C4B0000810009696F
S1134B0072712D706F727461043F3E60664E70471F
S1134B10E0490000644800688746C046404B0000F6
S1134B208100096972712D706F727464043F3E6074
S1134B305E4E7047E04900005C4800688746C04606
S1134B4000500000FFFF182D2D2D20466C61736866
S1134B502044696374696F6E617279202D2D2D0074
S1134B60002153480160FDF76BFD52488546524FC2
S1134B702A26524852490160524853490160043F71
S1134B803E60514E514DB188514B994224D0514B06
S1134B900B400AD0B01DFEF76DFFFEF7C8FA03887C
S1134BA0408800040343ED1A16E080230B4013D021
S1134BB00F23194089006D1AB01DFEF75BFFFEF745
S1134BC0B6FA043F3E600600043F3E602E00043FF8
S1134BD03E600E00FCF7AEFEFEF729FF300040CF2A
S1134BE0D1D03D48066040CF3C4805603C483D4933
S1134BF0374A884204D0023803889342F9D00230FD
S1134C0039490860FDF7AEFAFDF790FF514D656331
S1134C10726973702D5374656C6C61726973205280
S1134C204120302E38206578706572696D656E7428
S1134C30616C2077697468204D3020636F72652041
S1134C40666F72204B4C32355A31323820627920EB
S1134C504D61747468696173204B6F63680A2348FB
S1134C6000210160043F3E60214E043F3E60042663
S1134C70FEF710FF40CF002E02D0FEF7EAFA4AE614
S1134C8040CF33E6696E69740CED00E00400FA0568
S1134C90D02F0020CC2F0020C82F0020C42F0020AC
S1134CA0C02F0020BC2F0020B82F0020B42F0020DC
S1134CB0008104405CF3FF1F5CF2FF1F00F0FF1F44
S1134CC01CF4FF1F04F0FF1F10040000003000203C
S1134CD0FFFF0000000100001CF0FF1F24F0FF1F75
S1134CE0000002000050000018F0FF1F08F0FF1F32
S1074CF0844C0000EC
S9030000FC
