S02200006D6563726973702D7374656C6C617269732D6B6C32357A3132382E737265638F
S113000064F3FF1F914B0000994A0000994A0000D5
S113001000000000000000000000000000000000DC
S1130020000000000000000000000000C34A0000BF
S11300300000000000000000C34A0000774A0000EE
S1130040C34A0000C34A0000C34A0000C34A000078
S1130050C34A0000C34A0000C34A0000C34A000068
S1130060C34A0000C34A0000C34A0000C34A000058
S1130070C34A0000C34A0000C34A0000E34A000028
S1130080034B0000C34A0000C34A0000C34A0000F7
S1130090C34A0000C34A0000C34A0000C34A000028
S11300A0C34A0000234B0000C34A0000C34A0000B7
S11300B0C34A0000C34A0000454B0000694B0000DE
S11300C0FFFFFFFFFFFFFFFFFFFFFFFFFFFFFFFF3C
S11300D0FFFFFFFFFFFFFFFFFFFFFFFFFFFFFFFF2C
S11300E0FFFFFFFFFFFFFFFFFFFFFFFFFFFFFFFF1C
S11300F0FFFFFFFFFFFFFFFFFFFFFFFFFFFFFFFF0C
S113041048080000FFFF1E2D2D2D204D65637269D5
S113042073702D5374656C6C6172697320436F72C1
S113043065202D2D2D0007B59348002B09D000F021
S11304402FF800F035F800F01FF842602821016011
S1130450F3E707BD00B58C4800230168282905D1BE
S1130460426800F004F800F040F8F6E700BD03B578
S1130470043F3E601600043F3E601E0008B400F0D6
S11304802DFF08BC013303BD03B5013B043F3E60AF
S11304901E0008B400F00CFF08BC320040CF03BDBE
S11304A003B57A4801681E2901D000F034F803BD71
S11304B0816901620169816181680161016881600A
S11304C0C16941624169C161C16841614168C160FA
S11304D01E21016070470FB56B4801681E2903D0C7
S11304E0FFF7DEFFFFF7E4FF0FBD02B5816801608F
S11304F0C168416000E002B5016981604169C16081
S113050081690161C1694161016A8161416AC161B5
S11305101E21016202BD08B501681E22026008297D
S113052001D20B0004E028290DD1436800F05DF8E6
S1130530043F3E60564E02F0FEFF043F3E60554EBF
S11305401E4302F0F8FF08BD00B500F009F800F002
S11305500CF800F00FF800F012F800F015F800BDE8
S11305600FB54A48FFF7D7FF0FBD0FB54A48FFF74D
S1130570D2FF0FBD0FB54948FFF7CDFF0FBD0FB533
S11305804748FFF7C8FF0FBD0FB53F480168062273
S113059002601E2905D1043F3E60424E02F0CBFFAB
S11305A014E0282909D14368043F3E601E00043F3B
S11305B03E60062602F024FC08E0062906D0043F2B
S11305C03E60394EC9000E4302F0B5FF00F001F859
S11305D00FBD2D481E210162816101618160C162EC
S11305E00621016000218162704707B5043F3E6027
S11305F01E0000F05BF8043F3E601E0002F000FCA9
S113060007BD07B5C16A282904D1016B994201D1FC
S1130610002307BD0168002918D08168002915D07E
S11306200169002912D0816900290FD0016A0029CB
S11306300CD00363043F3E601E00043F3E6000266E
S113064002F0DEFB2821C162002307BD043F3E60A7
S11306501E0000F02BF8043F3E601E0002F0D0FBA9
S113066007BD06B51B18196828290CD15A68043F20
S11306703E601600190000F019F80B60043F3E605C
S11306801E0002F0BDFB06BD28F0FF1F48F0FF1F4F
S1130690043F00003860000040F0FF1F38F0FF1FE7
S11306A030F0FF1F40CF00000646000037B5354844
S11306B00168826803698469056A062000F00DF800
S11306C0032000F00AF8022000F007F8012000F0EF
S11306D004F800231E21C16237BD814209D0824241
S11306E007D0834205D0844203D0854201D0030061
S11306F037BD7047043F3E60234E00B581581E2924
S113070005D1FFF7D3FF8350012199400E4300BD6B
S113071000B501681E2904D10022FFF7EBFF02F0A7
S11307200AFF00BD00B581681E2907D10822FFF722
S1130730E1FF0022FFF7E1FF02F0FDFE00BD00B57E
S113074001691E290AD11022FFF7D4FF0822FFF7FE
S1130750D4FF0022FFF7D1FF02F0EDFE00BD00B58B
S113076081691E290DD11822FFF7C4FF1022FFF75B
S1130770C4FF0822FFF7C1FF0022FFF7BEFF02F00B
S1130780DAFE00BD28F0FF1F00CF000000B50168AD
S1130790282903D14368FFF728FF190000BD00B5DD
S11307A08168282903D1C368FFF71FFF190000BD22
S11307B03EB5826803698469056A9A4203D0A242FD
S11307C001D0AA420AD1072A08D8043F3E60D600C5
S11307D0FFF76CFF1E43836002F0ADFE3EBD3EB5E5
S11307E00168826803698469056A914206D0994266
S11307F004D0A14202D0A94200D03EBD043F3E60D5
S1130800CE00FFF753FF1E43036002F094FE3EBD8B
S113081000B5FFF76AFEFFF75EFEFFF747FF0360D0
S113082000BD01B506480368013307D00023DB434C
S11308300360043F3E60034E02F07DFE01BD0000F4
S1130840D82F002000B500006C08000042020432DA
S1130850647570003868043F3E60043F3860704738
S113086000B500F04FFC00F04DFC00BD8C0800000A
S11308706202053264726F70043740CF704700B56E
S113088000F0F0FB00F0EEFB00BDC046AC08000039
S1130890440005327377617007CF043F3860043F2A
S11308A03E60043F3A600E007047C046C008000036
S11308B0620004326E69700007CF043F38607047ED
S11308C0DC080000440005326F766572B868043FA6
S11308D03E60043F3860FE687047C046000900006F
S11308E0440005327475636B07CF043F3860043FDE
S11308F03E60043F3A60043F3960043F386070470B
S11309002409000046000432726F74003868B96824
S11309103A69B86039613A6079687E60FE68F96066
S11309207047C04648090000460005322D726F74B6
S11309303868B9683A6938613960BA60F968FE6044
S11309407E6879607047C046700900002002033257
S11309503E7201CF01B440B440CF704700B5FFF7F9
S113096060FF00F0A3FB00F045FC00F043FC00BD79
S11309709C09000020020332723E043F3E6040BCEA
S113098001BC043F3860704700B5FFF74AFF00F030
S11309904CFC00F04AFC00F089FB00BDCC090000CF
S11309A0200203327240043F3E60019E043F3E60D9
S11309B0009E704700B5FFF734FF043F3E600C4EC5
S11309C003F0D3FA03F0CEFA00BDC046F8090000E4
S11309D0200206327264726F700002B0704700B574
S11309E0FFF71FFF043F3E60024E02F0A4FD00BD6E
S11309F00198000002B00000100A000042000364E5
S1130A00322F3868F1077610400808433860704781
S1130A10240A000062000364322A38680018764110
S1130A2038607047400A0000420004647368720032
S1130A303868F10776084008084338607047C046B4
S1130A40580A00006200046473686C003868001877
S1130A50764138607047C0466C0A00004200046466
S1130A6061627300002E08D47047C0468C0A0000EF
S1130A70420007646E656761746538680021C0438D
S1130A80F64301304E4138607047C046A40A000066
S1130A90640002642D0007CF121AB1410E00043F16
S1130AA03A607047BC0A0000640002642B0007CF60
S1130AB012184E41043F3A607047C046DC0A0000F9
S1130AC0610203733E64043F3E60F617704700B54D
S1130AD000F0B6FA00F061FD00BDC046080B00004E
S1130AE0420003756D2A3868030073433B60010CB0
S1130AF0320C0B005343B6B280B24E435043361807
S1130B00360CF6187047C046380B00004200026DE0
S1130B102A003868C11705D040423860F01704D065
S1130B207642E0E7F017DED0764200B5FFF7DBFF50
S1130B30FFF7A3FF00BDC046780B00004400037517
S1130B40642A07CF564341437618010C130C5943CA
S1130B507618010C80B292B25143434350430022B1
S1130B60C91852411204B6180A04090C80184E41DF
S1130B70043F38607047C0460C0C00004400047504
S1130B80646D2A0010B50024043F3E607E68043F73
S1130B903E603E69FFF7A7FF310040CF300040CFF1
S1130BA0043F3E603E68043F3E60FE6803B4FFF7C6
S1130BB09AFF03BC330040CF320040CF043F3E6075
S1130BC03E68043F3E603E690FB4FFF78CFF0FBCE4
S1130BD09219634140CF89196241634140CF043F78
S1130BE03E607E68043F3E60FE680FB4FFF77BFF03
S1130BF00FBC9219634140CF89196241634140CFD0
S1130C001E003A607960B86010BDC046300C000028
S1130C104300022A2F0000B540B440CFFFF779FF0C
S1130C20043F3E6040BC00F04FF8043700BDC046AE
S1130C30540C00004300052A2F6D6F6400B540B4C6
S1130C4040CFFFF766FF043F3E6040BC00F03CF835
S1130C5000BDC046780C0000430003752A2F00B580
S1130C6040B440CFFFF73FFF043F3E6040BC00F07C
S1130C701CF8043700BDC0469C0C000043000675F8
S1130C802A2F6D6F640000B540B440CFFFF72BFFEF
S1130C90043F3E6040BC00F008F800BDBC0C0000FE
S1130CA0430006756D2F6D6F640000B5043F3E6010
S1130CB0002600F01AF840CF043700BDDC0C000019
S1130CC04300056D2F6D6F6400B5043F3E60F61759
S1130CD000F034F840CF043700BDC046300D0000AA
S1130CE044000675642F6D6F640030B40023002245
S1130CF07968B86835003C68402640004941524153
S1130D005B41AB4202D804D3A24202D3121BAB41D3
S1130D100130013EF1D10E0038607B60BA6030BC16
S1130D20704730B400237A68B9680020E2E7C0460F
S1130D30A80D0000440005642F6D6F6400B5F01722
S1130D4019D0FFF79AFEFFF7A7FDF0170CD0FFF7B5
S1130D5094FEFFF7A1FDFFF7C8FFFFF79DFDFFF726
S1130D608CFEFFF799FD00BDFFF796FDFFF7BDFF71
S1130D70FFF783FE00BDFFF78FFDF0170ED0FFF7DE
S1130D807CFEFFF789FDFFF7B0FFFFF776FEFFF764
S1130D9083FDFFF772FEFFF77FFD00BDFFF77CFDCB
S1130DA0FFF7A3FF00BDC046C00D0000440002646D
S1130DB02F0000B5FFF7C2FFFFF77EFD00BDC04660
S1130DC0080E0000440002662A0000B5F0170DD09A
S1130DD0FFF753FEFFF760FDF0170DD0FFF74DFE50
S1130DE0FFF7D0FE40CF01CF386000BDFFF754FDC0
S1130DF0F017F5D0FFF741FEFFF7C4FE40CF01CF57
S1130E003860FFF73AFE00BD540E0000440002664D
S1130E102F0000B5F0170ED0FFF72FFEFFF73CFDB3
S1130E20F0170ED0FFF729FEFFF736FDFFF779FF25
S1130E30FFF742FD00BDFFF72FFDF017F4D0FFF7D9
S1130E401CFEFFF729FDFFF76CFFFFF716FEFFF707
S1130E5033FD00BD9C0E000020020232210006CFAB
S1130E603160726040CF704700B5FFF768FC0168DD
S1130E70426806B400F0D6FDFFF72DFB06BC016006
S1130E80282905D0043F3E60544E00F0CEFD00BD3D
S1130E900432426000F0C6FD00BDC046E40E00000E
S1130EA0200202324000043F7068386036687047A0
S1130EB000B500F0C5F80168282909D0043F3E6058
S1130EC0474E00F090FD00F0F1F800F089FD00BD00
S1130ED041680431416000F083FD00F0E7F800F060
S1130EE07FFD00BD040F000044000364753C07CF80
S1130EF08E4204D801D1904201D8002670470026C2
S1130F00F6437047240F000044000364753E07CF86
S1130F10B14204D801D1824201D80026704700268C
S1130F20F6437047440F0000440002643C0007CFBE
S1130F308E4204DC01D1904201DC00267047002679
S1130F40F6437047640F0000440002643E0007CF7C
S1130F50B14204DC01D1824201DC00267047002644
S1130F60F6437047800F000062020364303C04378C
S1130F70F617704700B500F0ACF800F00EFB00BDAA
S1130F80A80F000062020364303D01CF0643013E16
S1130F90B641704700B5043F3E60124E00F081FA3E
S1130FA000F0D6FA00BDC046C40F0000440003643C
S1130FB03C3E07CF50404E400643013EB641F64307
S1130FC07047C046E80F0000440002643D0007CFAC
S1130FD050404E400643013EB64170474060000019
S1130FE04068000000430000FC0F00002000037371
S1130FF07040043F3E603E007047C0460C10000045
S1131000200003737021370040CF70472010000088
S1131010200003727040043F3E606E467047C04635
S113102030100000200003727021B54640CF704795
S113103054100000610203647570043F3E60704701
S113104006B5FFF765FB01684268FFF744FA0160E3
S1131050426006BD8010000061020464726F70007B
S113106040CF704700B501681E2905D1043F3E609A
S1131070A14E02F060FA00BDFFF737FA00BDC0468A
S1131080981000006100043F64757000002E01D0C8
S1131090043F3E607047C046C410000062020473FF
S11310A07761700039683E600E0070470CB5FFF739
S11310B039FB02688368036082604268C3684360E6
S11310C0C2600CBDF01000006202036E6970043748
S11310D0704700B5FFF71CFB81681E2902D0FFF79B
S11310E00AFA00BD043F3E60834E02F024FA00BDBC
S11310F0181100006202046F76657200043F3E60BE
S11311007E68704700B5FFF70DFB8168C268FFF782
S1131110E2F90160426000BD401100006202047403
S113112075636B0001CF083F7E603860704700B57F
S1131130FFF705FBFFF784FF00F02AF800BDC04667
S113114078110000630203726F7403CF083F786064
S11311503E600E0070470EB5FFF7F1FA0168826831
S113116003698160026103604168C2684369C160C8
S1131170426143600EBDC0469C1100006302042D11
S1131180726F740003CF083F7E60396006007047B9
S113119000B5FFF7E0FFFFF7DEFF00BDB011000070
S11311A02000047069636B00B0003E587047C0466D
S11311B0C811000000000564657074684F49C91BBC
S11311C0043F3E608E087047E41100000000067280
S11311D0646570746800043F3E606E464849891B2C
S11311E08E087047181200002002023E720040B4BC
S11311F040CF704700B5FFF714FBFFF789FAFFF7FC
S1131200C5FA043F3E603F4E01228A40164302F075
S113121092F9FFF76AF900BD4C1200002002027235
S11312203E00043F3E6040BC704700B5FFF7F9FA4A
S1131230FFF751F9FFF73AFA0360043F3E60324E7C
S113124001229A40164302F076F900BD6C120000A8
S1131250200202724000043F3E60009E704700B5C9
S1131260FFF7DFFA02F07EFE00BDC04690120000D8
S11312702002057264726F7001B0704700B5FFF709
S1131280D0FA043F3E60214E02F055F900BDC0463D
S1131290A4120000200005727069636BB6006E44EE
S11312A036687047D0120000000004726F6C6C0046
S11312B0002E01D140CF7047B0003958C019031F28
S11312C01A6802600438013EF9D104370E007047F1
S11312D0101300000000052D726F6C6C002E01D1FC
S11312E040CF7047386839464A680A600431013E85
S11312F0FAD1086040CF70470437000064F2FF1F42
S113130064F3FF1F00B4000000BC000001B0000043
S113131028130000620203616E6401CF0640704727
S1131320043F3E607B4EBCE0441300006202036253
S1131330696301CFB04306007047043F3E60764EB8
S1131340C9E0C0465C1300006202026F720001CF64
S113135006437047043F3E60704EA2E074130000E1
S1131360620203786F7201CF46407047043F3E60CB
S11313706B4E96E08C1300006202012A01CF4643B3
S11313807047043F3E60674E8BE0C046AC130000DC
S1131390410003636C7A300006D00026400002D07E
S11313A001D20136FAE7704720267047BC130000CB
S11313B0610003726F720120C6417047D0130000B0
S11313C0610003726F6C0020B61946417047C04635
S11313D0041400006202076172736869667401CFC5
S11313E030410600704700B5043F3E604E4E043F56
S11313F03E604E4EFFF796F941681F2928D91F21F8
S1131400416025E02C14000062020672736869666C
S1131410740001CFF0400600704700B5043F3E6001
S1131420434E043F3E60434E12E0C0464015000068
S11314306202066C73686966740001CFB0400600EE
S1131440704700B5043F3E603B4E043F3E600026BB
S1131450FFF768F90168282903D040CF00F03BF872
S113146000BD04374168FFF740F8002901D140CF9F
S113147000BD1F290AD889010E430268D200164311
S1131480FFF7C6F91E4302F056F800BD40CFFFF740
S1131490BFF9043F3E60294E1B021E4302F04BF885
S11314A000BD0FB5FFF73EF90168062901D1FFF72A
S11314B0FDFD8268282A01D1FFF7F8FDFFF778F9CE
S11314C0FFF764F9C90082680E43164302F033F84B
S11314D0FFF70BF80FBD0FB5FFF724F9FFF768F915
S11314E0FFF754F98268282A0BD1043F3E60C6688E
S11314F0FFF7DCF88360043F3E601E001A0001F031
S11315007FFCC9000E43164302F015F8FEF7EDFF09
S11315100FBD0000004000008043000000430000B5
S11315204040000040430000004100000010000063
S1131530C0400000000800008040000000200000BF
S113154064150000610202303D00013EB64170475F
S113155000B500F003F900F010FFFEF7C6FF734971
S1131560816200BD8C150000610203303C3E013EE7
S1131570B641F643704700B500F0F0F800F0FDFE08
S1131580FEF7B3FF6A49816200BDC046B015000092
S1131590610202303C00F617704700B500F0DEF837
S11315A0043F3E60634E00F0EBFE6349816200BD80
S11315B0C81500006000047472756500043F3E6045
S11315C00026F6437047C046DC150000600005663F
S11315D0616C7365043F3E6000267047001600008E
S11315E04202023E3D0001CFB042E9DA00267047D4
S11315F0043F3E60514E043F3E60514EBEE0C04643
S1131600241600004202023C3D0001CFB042D7DD67
S113161000267047043F3E604A4E043F3E604A4EF7
S1131620ACE0C046441600004202013C01CFB04287
S1131630C6DB00267047043F3E60414E043F3E60D7
S11316403E4E9BE0641600004202013E01CFB042D0
S1131650B6DC00267047043F3E603B4E043F3E60CC
S1131660384E8BE088160000620203753E3D01CFC0
S1131670861BB641F6437047043F3E602C4E043F40
S11316803E602A4E7AE0C046AC1600006202037542
S11316903C3D01CF361AB641F6437047043F3E60E5
S11316A02A4E043F3E602A4E68E0C046CC16000035
S11316B0620202753C0001CF861BB6417047043FAD
S11316C03E601A4E043F3E60194E57E0EC1600008F
S11316D0620202753E0001CF361AB6417047043FDC
S11316E03E601B4E043F3E60184E47E00C1700005E
S11316F06202023C3E0001CF811B361A0E43704742
S1131700043F3E60134E043F3E6037E0741800000F
S11317106202013D01CF361A013EB6417047043FD3
S11317203E600D4E043F3E6028E0000000D2000001
S113173000D30000C017000000D5000000DB00004B
S113174000DA000000DC000000DD000000D800002A
S113175000D9000000D0000000D1000000B5FEF761
S1131760D7FF2023FEF77DFF1823FEF77AFF10230F
S1131770FEF777FF0823FEF774FF00BD00B5FEF700
S1131780D1FFFEF7EDFEFEF7F0FE1023FEF769FF32
S11317908268282A04D1FFF789FC39683E600E4626
S11317A040CF0168282909D14168FF2906D8043FA0
S11317B03E60644E0E438168090206E0FEF7E6FFD0
S11317C0043F3E60604EC90016430E4301F0B3FE71
S11317D0FEF78BFEFEF789FE866240CF00BD0FB593
S11317E05A48816A002930D0043F3E60866A00214D
S11317F08162310AD52901D140CF0FBDFEF76BFEBE
S1131800FEF754FF0360D22903D1514E00F000FECD
S11318100FBDD32905D14E4E00F0FAFD00F00BFEAA
S11318200FBD023601F087FE043F3E60494E00F0D2
S11318300DF800F000FE043F3E60474E01F07BFED1
S1131840043F3E60434E00F001F80FBD00B5FEF7C3
S11318505FFFFEF7C4FF016809020E4301F06BFE4F
S113186000BD00B5816A090AD52901D1FEF73DFE04
S113187000BDC046901800006202036D696E01CF7E
S1131880B04200DC06007047043F3E60334E2BE05C
S1131890AC1800006202036D617801CFB04200DB36
S11318A006007047043F3E602D4E1DE0CC1800003A
S11318B0620204756D61780001CFB04200D3060066
S11318C07047043F3E60274E0EE0C046701900008A
S11318D0620204756D696E0001CFB04200D8060043
S11318E07047043F3E60204E00B5FEF71BFF0168C1
S11318F08268914203D140CFFEF7FDFD00BD062A68
S113190001D1FFF7D3FB0168282901D1FFF7CEFBF2
S1131910FEF765FFFEF743FFC9000268043F3E601F
S1131920094E0E43164301F006FE01F004FE043F87
S11319303E600E4E0E43164301F0FDFDFEF7DBFD47
S113194000BD0000002800008042000028F0FF1FB6
S1131950804100000020000000E0000000DB0000E7
S113196000DC000000D8000000D3000000460000A6
S1131970B01900000000046D6F76650007B53100F2
S113198040CF320040CF00290FD0B2420DD006D351
S1131990013E013A705C50540139FBD105E03078C6
S11319A01070013601320139F9D140CF07BDC0466C
S11319B0D419000000000466696C6C00300040CF4C
S11319C0310040CF002902D001397054FCD140CFFE
S11319D07047C046141A0000200201403668704760
S11319E0043F3E60994E00B5FEF792FE0368282B33
S11319F008D143687C21194009010E437C218B43A3
S1131A00FEF7FFFDDB001E43FEF702FF1E4301F05D
S1131A1092FD00BD6C1A00002002012103CF30604A
S1131A200E007047043F3E60894E00B5FEF77AFE13
S1131A300368282B09D143687C21194009010E430E
S1131A407C218B43FEF7DDFD0360DB001E438368CE
S1131A50282B02D1C368FEF7C8FD1E4301F06BFDBD
S1131A60FEF743FDFEF741FD00BDC046A41A000089
S1131A702002022B210003CF3268121832600E00BC
S1131A80704700B5FEF74EFEFFF7DAFAFFF7A8FF3E
S1131A90FFF761FB00F023FCFFF708FBFFF7C2FF31
S1131AA000BDC046E81A00002002026840003688E3
S1131AB0704700B5FEF72CFE043F3E60654E036898
S1131AC0282B08D143683E21194049010E433E2189
S1131AD08B43FEF796FDDB001E43FEF799FE1E4383
S1131AE001F029FD00BDC046401B00002002026831
S1131AF0210003CF30800E00704700B5FEF712FEC0
S1131B00043F3E60544E0368282B09D143683E21AC
S1131B10194049010E433E218B43FEF772FD0360D9
S1131B20DB001E438368282B02D1C368FEF75DFDEA
S1131B301E4301F000FDFEF7D8FCFEF7D6FC00BD05
S1131B40781B0000200203682B2103CF328812186F
S1131B5032800E00704700B5FEF7E4FDFFF770FA1F
S1131B60FFF7A7FFFFF7F7FA00F0B9FBFFF79EFABC
S1131B70FFF7C3FF00BDC046BC1B00002002026388
S1131B8040003678704700B5FEF7C2FD043F3E6062
S1131B90324E0368282B08D143681F21194089015C
S1131BA00E431F218B43FEF72CFDDB001E43FEF783
S1131BB02FFE1E4301F0BFFC00BDC046141C0000F4
S1131BC020020263210003CF30700E00704700B57D
S1131BD0FEF7A8FD043F3E60214E0368282B09D17F
S1131BE043681F21194089010E431F218B43FEF7CF
S1131BF008FD0360DB001E438368282B02D1C36801
S1131C00FEF7F3FC1E4301F096FCFEF76EFCFEF7B4
S1131C106CFC00BD641C0000200203632B2103CF75
S1131C203278121832700E00704700B5FEF77AFD54
S1131C30FFF706FAFFF7A7FFFFF78DFA00F04FFB57
S1131C40FFF734FAFFF7C3FF00BD0000006800008F
S1131C5000600000008800000080000000780000A0
S1131C6000700000A41C00002002046269732100BB
S1131C7003CF3268024332600E00704700B5FEF7AE
S1131C8051FDFFF7DDF9FFF7ABFEFFF764FA043F00
S1131C903E60AB4EFFF705FCFFF708FAFFF7C2FE04
S1131CA000BDC046E41C00002002046269632100F8
S1131CB003CF3268824332600E00704700B5FEF7EE
S1131CC031FDFFF7BDF9FFF78BFEFFF744FA043F40
S1131CD03E609C4EFFF7FFFBFFF7E8F9FFF7A2FE1B
S1131CE000BDC046241D0000200204786F7221004C
S1131CF003CF3268424032600E00704700B5FEF7F1
S1131D0011FDFFF79DF9FFF76BFEFFF724FA043F7F
S1131D103E608D4EFFF7C5FBFFF7C8F9FFF782FE63
S1131D2000BDC046581D00002002046269744000D2
S1131D3001CF36680640013EB641F643704700B510
S1131D40FEF7F0FCFFF74CFE043F3E607F4EFFF7CA
S1131D50A8FBFFF710FC00BD981D000020020568D9
S1131D606269732103CF3288024332800E007047C8
S1131D7000B5FEF7D7FCFFF763F9FFF79AFEFFF70C
S1131D80EAF9043F3E606E4EFFF78BFBFFF78EF9D6
S1131D90FFF7B3FE00BDC046D81D00002002056851
S1131DA06269632103CF3288824332800E00704718
S1131DB000B5FEF7B7FCFFF743F9FFF77AFEFFF72C
S1131DC0CAF9043F3E605F4EFFF785FBFFF76EF9EB
S1131DD0FFF793FE00BDC046181E000020020568F0
S1131DE0786F722103CF3288424032800E007047F0
S1131DF000B5FEF797FCFFF723F9FFF75AFEFFF74C
S1131E00AAF9043F3E60504EFFF74BFBFFF74EF933
S1131E10FFF773FE00BDC0464C1E0000200205689B
S1131E206269744001CF36880640013EB641F643EC
S1131E30704700B5FEF776FCFFF73BFE043F3E60BB
S1131E40424EFFF72EFBFFF796FB00BD8C1E0000F1
S1131E50200205636269732103CF32780243327032
S1131E600E00704700B5FEF75DFCFFF7E9F8FFF7D9
S1131E708AFEFFF770F9043F3E60314EFFF711FB15
S1131E80FFF714F9FFF7A3FE00BDC046CC1E000007
S1131E90200205636269632103CF32788243327082
S1131EA00E00704700B5FEF73DFCFFF7C9F8FFF7D9
S1131EB06AFEFFF750F9043F3E60224EFFF70BFB2A
S1131EC0FFF7F4F8FFF783FE00BDC0460C1F0000C7
S1131ED020020563786F722103CF3278424032705A
S1131EE00E00704700B5FEF71DFCFFF7A9F8FFF7D9
S1131EF04AFEFFF730F9043F3E60134EFFF7D1FA74
S1131F00FFF7D4F8FFF763FE00BDC046501F000082
S1131F10200205636269744001CF36780640013EB1
S1131F20B641F643704700B5FEF7FCFBFFF72BFE06
S1131F30043F3E60054EFFF7B4FAFFF71CFB00BDFB
S1131F4000430000804300004040000000400000C7
S1131F5060200000000006666C6173682100300098
S1131F6040CF310040CF854B984268D3844B99428F
S1131F702ED0032202402CD102689A4246D1814AD3
S1131F80137880221A40FAD030221A4002D07D4AB7
S1131F90302313707C4A062313707C4A1070000AA5
S1131FA07B4A1070000A7B4A10707B4A1170090A40
S1131FB07A4A1170090A7A4A1170090A794A117029
S1131FC0704A802313706F4A137880221A40FAD023
S1131FD0704700F0C7FD3041646472657373206814
S1131FE0617320746F20626520342D616C69676EA3
S1131FF0656420666F722077726974696E67206603
S11320006C61736820210A0002F088FC00F0AAFDCC
S113201029466C617368206C6F636174696F6E200C
S113202063616E6E6F742062652077726974746583
S11320306E20747769636520210A02F06FFC00F05A
S113204091FD1943616E6E6F742077726974652017
S1132050696E746F20636F726520210A02F05EFC62
S1132060E420000000000E666C61736870616765AF
S11320706572617365000FB5300040CF3F4B9842E5
S113208020D3032398433F4A137880221A40FAD07E
S113209030221A4002D03B4A302313703A4A0923B3
S11320A013703A4A1070000A394A1070000A394A0B
S11320B01070344A80231370324A137880221A40F5
S11320C0FAD00FBD00F04EFD1443616E6E6F7420A4
S11320D0657261736520636F726520210A0002F0E6
S11320E01DFCC0466021000000000A657261736532
S11320F0666C61736800214872B62B492B4A0368E9
S113210093421CD0043F3E600600043F3E6000F052
S113211029FD10457261736520626C6F636B2061E9
S11321207420200000F096FD00F01CFD0C20667267
S11321306F6D20466C6173680A00FFF79CFF0430E2
S11321408842DCD100F00EFD1246696E6973686541
S1132150642E20526573657420210A0002F078FC15
S1132160F821000000000E6572617365666C61738E
S11321706866726F6D00300040CFBDE7005000000C
S1132180FFFFFFFF0000024007000240040002407E
S11321900500024006000240080002400900024017
S11321A00A0002400B00024000000200FFFFFFFF94
S11321B0464860210022028002300139FBD1704779
S11321C0424860210288002A12D000F0CBFC1D5541
S11321D06E7061697265642031362D6269742046BF
S11321E06C6173682077726974652E0A02F096FB3D
S11321F002300139E6D17047D022000000000768A0
S1132200666C6173682130B5320040CF500813D337
S113221000F0A8FC1E68666C61736821206E656519
S11322206473206576656E2061646472657373659A
S1132230732E0A0002F072FB02235340234820212C
S1132240048845882D042C439C422AD00630013949
S1132250F6D11E482021048845882D042C431AD029
S113226006300139F7D100F07DFC27546F6F206DE3
S1132270616E7920756E7061697265642031362DE6
S113228062697420466C617368207772697465733F
S11322902E0A02F043FB0280120C4280868040CF5B
S11322A030BD0221114003D0023A8188360401E096
S11322B0818809040E43043F3E601600002101801A
S11322C041808180FFF74BFE30BD000064F3FF1FA7
S11322D0FC2200006202012B01CF3618704700B5C2
S11322E0FEF720FA043F3E60D34E043F3E60D34ED7
S11322F08168282912D1FEF7D9FE0FE06C23000073
S11323006202012D01CF861B704700B5FEF70AFA61
S1132310043F3E60CA4E043F3E60CA4E016828290D
S11323200ED14168FF290BD840CFFEF741FA0E4386
S1132330816809020E4301F0FEF8FEF7D6F800BDED
S11323400437FEF723FA8268282A03D1C368FEF70C
S11323504CF91A008901D2000E431643FEF7C5F862
S1132360FEF756FA1E4301F0E6F800BD982300007C
S1132370610202312D00013E7047043F3E60B24EBF
S113238000B5FEF7C5F90168C9000E43FEF740FA2F
S11323901E4301F0D0F800BDB023000061020231F9
S11323A02B0001367047043F3E60A84EE8E7C04664
S11323B0C8230000610202322D00023E7047043F30
S11323C03E60A34EDCE7C046E02300006102023217
S11323D02B0002367047043F3E609E4ED0E7C04655
S11323E0F823000061020563656C6C2B04367047AA
S11323F0043F3E60984EC3E7282400006102066E45
S113240065676174650076427047043F3E60934E91
S113241000B5FEF77DF9FEF7E2F901680E43C90045
S11324200E4301F088F800BD402400006102036EF1
S11324306F74F6437047043F3E60894EE8E7C04638
S11324405824000061020373687276087047043FE1
S11324503E60844EDCE7C0466824000061020373DA
S1132460686C7600704706E0802400006102023246
S11324702A0076007047043F3E604026C8E7C04605
S11324809824000061020563656C6C73B6007047A4
S1132490043F3E608026BBE7B024000061020232A4
S11324A02F0076107047043F3E606F4EB0E7C04681
S11324B0E8240000610203616273F0173618464095
S11324C0704700B5FEF724F9043F3E60674E01688B
S11324D009020E4301F02FF8043F3E60644E01F000
S11324E02AF8FFF792FF00BD302500004200057571
S11324F02F6D6F64310040CF002903D1043F3E604B
S113250000267047012200238E4206D9003104D4EC
S11325105200490001D48E42FAD88E4201D3761A71
S1132520134349085208F8D1043F3E601E00704727
S1132530A02500004200042F6D6F640000B5300038
S113254040CF002E1CDA764200280CDA4042043FC9
S11325503E600600FFF7CEFF300040CF7642043FD6
S11325603E60060000BD043F3E600600FFF7C2FF68
S1132570300040CF40427642043F3E60060000BD3A
S1132580002807DA4042043F3E600600FFF7B2FF2E
S1132590764200BD043F3E600600FFF7ABFF00BD7E
S11325A0B42500004200036D6F6400B5FFF7C6FF59
S11325B040CF00BDC82500004200012F00B5FFF741
S11325C0BDFF043700BDC046DC2500006100046582
S11325D076656E000120304036187047F4250000FF
S11325E08100046261736500043F3E60214E7047C0
S11325F00A0000000C26000000000662696E617289
S113260079001C48022101607047C046242600005E
S1132610000007646563696D616C16480A210160F6
S11326207047C046C0260000000003686578114862
S11326301021016070470000003000000018000005
S113264000380000001A0000401E0000401C00007A
S1132650801E0000801C0000001D0000404200009D
S1132660C0430000400800004010000000280000A3
S113267000D50000FC2F0020804981480160814979
S11326808148016081498248016082498248016031
S113269082480160002182480170824801708248AA
S11326A0017082480170062181480170002181482F
S11326B001701A21804801700C217948017070471B
S11326C0DC260000810009686F6F6B2D656D6974ED
S11326D0043F3E60794E7047D2270000F826000080
S11326E0810008686F6F6B2D6B657900043F3E6055
S11326F0734E7047FA2700001827000081000A680B
S11327006F6F6B2D656D69743F00043F3E606D4EC5
S1132710704728280000C04634270000810009685B
S11327206F6F6B2D6B65793F043F3E60664E70475B
S11327305A2800005427000081000A686F6F6B2D2F
S1132740706175736500043F3E60604E7047FE49DA
S11327500000C0466C270000000004656D69740029
S11327600FB5564800F029F80FBDC0468027000079
S11327700000036B65790FB5514800F01EF80FBDDA
S113278094270000000005656D69743F4D4800689A
S11327908746C046A82700000000046B65793F0007
S11327A0494800688746C046C027000000000570FD
S11327B06175736545480068874600688746C0466A
S11327C0E827000000000B73657269616C2D656D6C
S11327D0697400B500F028F8002E40CFFAD03C48C8
S11327E0067040CF00BDC0461428000000000A73E4
S11327F0657269616C2D6B65790000B500F02DF888
S1132800002E40CFFAD03248043F3E600678F6B23C
S113281000BDC0464828000000000C736572696161
S11328206C2D656D69743F0000B5FFF7C3FF29483F
S113283008210170043F3E6000262648802201786A
S1132840114000D0F64300BDD828000000000B73EF
S1132850657269616C2D6B65793F00B5FFF7AAFF5E
S11328601C4808210170043F3E60002619482022BC
S11328700178114000D0F64300BD0000803F000005
S113288038800440300400F0348004400000000428
S113289004800440000200000490044008900440B6
S11328A003A0064002A0064006A0064005A006407C
S11328B00AA0064000A0064001A00640F82F002010
S11328C0F42F0020F02F0020EC2F0020E82F002010
S11328D007A0064004A00640FC280000000007638F
S11328E065787065637400B5386801B40130386088
S11328F000F00BF801BC067040CF00BD7429000045
S11329000000066163636570740000B502CF01398D
S11329100022FFF730FF300040CF7F2809D0202865
S113292019D2092816D00A281FD00D281DD008282E
S1132930EFD1002AEDD000F015F903082008002A91
S1132940E7D0885C013A80230340E2D0402303406F
S1132950F5D0DEE72020B242DBD2043F3E60060021
S1132960FFF7FEFE01328854D3E7160000F0A8F802
S113297000BDC04688290000400003746962043F1A
S11329803E602B4E7047C046A02900008100033EE4
S1132990696E043F3E60274E704700000000C04649
S11329A0C829000082000E63757272656E742D73FF
S11329B06F7572636500043F3E601F4E70470000F0
S11329C000009CF0FF1FC046E429000000000973CA
S11329D06574736F75726365174802CF0660416052
S11329E040CF7047042A0000000006736F757263BD
S11329F06500043F3E60104E043F706838603668DE
S1132A007047C0463C2A0000000005717565727964
S1132A100FB5084800210160FFF7B1FF043F3E6095
S1132A20043F3E60C826FFF770FFFFF7D5FF0FBDD8
S1132A309CF0FF1FE42F0020DC2F00208C2A0000D4
S1132A40000007636F6D706172650FB5310040CF90
S1132A5001CF884202D040CF00260FBD02CF00280C
S1132A6010D001380A5C335C412A02D35B2A00D2BD
S1132A702032412B02D35B2B00D220339A42EED07A
S1132A8000260FBD0026F6430FBDC046A02A000055
S1132A9000000263720000B500F064F8010A00BD92
S1132AA0B42A0000000002626C00043F3E6020264D
S1132AB07047C046C82A0000000005737061636552
S1132AC0043F3E6020264BE6E82A0000000006731F
S1132AD070616365730000B5002E03DDFFF7F0FF3E
S1132AE0013EFBD140CF00BDF82A00005000065B38
S1132AF0636861725D0005E0102B00000000046350
S1132B006861720000B501F017FC40CF367800BD53
S1132B10202B000050040128043F3E60292606E0D3
S1132B203C2B00005004015C043F3E60002600B5CD
S1132B3001F00CFC043740CF00BDC046842B0000DC
S1132B401000022E22009F4800B5043F3E6006009C
S1132B5000F0DEF9043F3E60222601F0F7FB00F0AE
S1132B602AFD00BD0AB4043F3E607646013E337838
S1132B700121013319405B187146C9188E460ABCFD
S1132B803CE0C046AC2B00001000026322008E48DB
S1132B90DAE7043F3E607646013E33780121013393
S1132BA019405B187146C9188E467047D82B00002F
S1132BB01000027322008548C6E7043F3E60764653
S1132BC0043F3E60013E36780121731C19405B18B6
S1132BD07146C9188E467047F02B0000000005634B
S1132BE06F756E740136043F3E60013E367870475F
S1132BF0182C0000000005637479706501B5307805
S1132C00002807D00136043F3E603678FFF7A8FD60
S1132C100138F7D140CF01BD482C000000000474F6
S1132C2079706500310040CF300040CF00B50029F5
S1132C3008D00022043F3E60865CFFF791FD01321C
S1132C409142F7D100BDC046842C00000000046806
S1132C5065782E0007B5310040CF20200F220438BC
S1132C60043F3E600E00C6401640092E01D9373697
S1132C7000E03036FFF774FD0028F0D1FFF720FFA5
S1132C8007BDC046942C0000000003682E731FB5D6
S1132C904F4C0EE0A42C0000000003752E731FB5EA
S1132CA04C4C06E0242D00000000022E73001FB5DA
S1132CB0494C4A49C91B8908494A106803B40A2087
S1132CC01060FFF74FFF08537461636B3A205B0099
S1132CD0043F3E600E0001F017FDFFF743FF025D65
S1132CE0200003BC3E4A106000290AD03D4A106807
S1132CF006B4043F3E600600A04706BC043A01390E
S1132D00F5D1FFF72FFF0620544F533A2000043F1C
S1132D103E603600A047FFF725FF04202A3E0A0044
S1132D201FBDC046E82D0000000005776F72647374
S1132D3000B5FFF717FF010A00F07DFEFFF712FF51
S1132D4009416464726573733A20043F3E60FFF77F
S1132D5081FFFFF707FF064C696E6B3A2000043FC2
S1132D603E603668FFF776FFFFF7FCFE07466C61AE
S1132D7067733A20043F3E60B688FFF76BFFFFF7A6
S1132D80F1FE06436F64653A2000B01D00F08EFE2C
S1132D90043F3E600600FFF75DFFFFF7E3FE064ECB
S1132DA0616D653A2000043F3E600636FFF726FF5A
S1132DB0FFF7D8FE010A00F056FE300040CFBDD028
S1132DC040CF00BD642B0000922B0000BA2B000002
S1132DD0552C0000F74600000947000064F2FF1F6D
S1132DE0FC2F002060F2FF1F042F0000000010726F
S1132DF0656769737465726C69746572616C2C00C3
S1132E003FB5350040CF2900C90029432D029E4813
S1132E100543FF2300223000D040984301D0013203
S1132E20F9E73000D04018402843043F3E600600D4
S1132E3000F081FB9548054318009040864310D06C
S1132E4000243000E040984301D00134F9E7101B1E
S1132E50043F3E600E008001064300F06CFB22003C
S1132E60DFE7002A06D0043F3E600E0092011643BD
S1132E7000F061FB40CF3FBD1FB5310040CF844C13
S1132E800C43C9000C434901300040CF020EFF231C
S1132E901A407D4B0B431343043F3E601E0000F079
S1132EA04AFB043F3E60260000F045FB020CFF2372
S1132EB01A40784B0B431343043F3E601E0000F05E
S1132EC03AFB043F3E60260000F035FB020AFF2374
S1132ED01A40704B0B431343043F3E601E0000F046
S1132EE02AFB043F3E60260000F025FB0200FF237E
S1132EF01A40684B0B431343043F3E601E0000F02E
S1132F001AFB1FBD742F000000000563616C6C2C5C
S1132F100FB5330000F06EFE300040CF1B1A043BA7
S1132F205D49194000290ED05C4A91420BD001360C
S1132F30043F3E600026FFF763FF043F3E60584EA7
S1132F4000F0F9FA0FBD40CF5B08564856491940C6
S1132F500843DB0A55491940090408439B0A012127
S1132F60194089060843043F3E60060000F013FB45
S1132F700FBDC046C82F00000000086C697465725C
S1132F80616C2C0008B5043F3E60494E00F0D3FA52
S1132F90043F3E60474E00F0CEFA474B30001840E5
S1132FA098420BD1F643043F3E600626FFF728FF04
S1132FB0043F3E60414E00F0BEFA08BD043F3E604F
S1132FC00626FFF71DFF08BDF02F00000000066372
S1132FD072656174650000B500F03DF830200002B0
S1132FE00F308047043F3E607646013E00BDC04638
S1132FF048300000200005646F65733E30200002F5
S11330000F308047043F3E607646013E7047043FE0
S11330103E607646013E2A4A13682A49096802201E
S1133020084000D10231023111600136043F3E6094
S11330300026FFF721FF043F3E60194E00F07BFAA3
S1133040136000F0ECF900BDCC3000000000073C38
S11330506275696C647300B500F07AFB00F0CAFD18
S11330600220064040CF04D1043F3E60362600F0E3
S113307062FA043F3E60144E00F05DFA043F3E6085
S1133080102600F0CBFA00BD002000000010000064
S113309000020000003000000100C0FF0000C0FF7B
S11330A08047000000F800F0FF070000FF03000065
S11330B0043F00003E6000000000FFFFF6430000F4
S11330C000F0FF1F14F0FF1F00B50000D83000000F
S11330D05000035B275D03E0F0300000000001278F
S11330E000B501F029F900F020FD300040CF00BD0B
S11330F030310000100008706F7374706F6E6500DB
S113310000B5FFF7EDFF102101400DD12021014052
S113311005D0FFF737FF043F3E60E64E04E0FFF7BB
S113312031FF043F3E60E44EFFF7F2FE00BDC046AF
S11331307C310000000007696E6C696E652C00B577
S1133140DE49DF4ADF4B3088884208D0904208D0FD
S1133150984206D0043F3E60060000F0ECF90236C7
S1133160F1E740CF00BD0EB4D54AD64B01880230FA
S1133170914201D09942F9D10EBC704790310000C0
S11331800000047265742C00043F3E60CC4ED2E112
S1133190A03100003000046578697400F4E7C0468B
S11331A0B831000030000772656375727365043FBF
S11331B03E60C54E3668ABE6D03100008100057331
S11331C074617465043F3E60C04E704700000000A7
S11331D0E43100000000015DBC480021C9430160E6
S11331E07047C046F43100001000015BB74800216D
S11331F0016070471C3200000008013A00B5B44871
S1133200076000F0A5FA043F3E60AC4E00F093F96D
S1133210AE480021C943016000BDC0467C320000B5
S11332203010013B00B5AA480168B9420ED0FFF73F
S113323099FC1520537461636B206E6F7420626176
S11332406C616E6365642E0A01F068FB043F3E60A6
S11332509B4E9E480068411C07D0062804D8043FB2
S11332603E609C4E00F00CF9964E00F064F900F0BC
S1133270D6F896480021016000BDC0469032000097
S113328000000765786563757465300040CF874634
S1133290A8320000101009696D6D65646961746578
S11332A0043F3E601026EBE0C032000010100669B7
S11332B06E6C696E6500043F3E602026E0E0C04607
S11332C0DC32000010100B636F6D70696C656F6EFB
S11332D06C79043F3E603026D2E0C046F8320000EC
S11332E010100A302D666F6C6461626C6500043FD7
S11332F03E604026C4E0C0461433000010100A317A
S11333002D666F6C6461626C6500043F3E6041260B
S1133310B6E0C0463033000010100A322D666F6CE0
S11333206461626C6500043F3E604226A8E0C046CA
S11333304C33000010100A332D666F6C6461626CAC
S11333406500043F3E6043269AE0C04668330000AF
S113335010100A342D666F6C6461626C6500043F62
S11333603E6044268CE0C0468433000010100A35C9
S11333702D666F6C6461626C6500043F3E60452697
S11333807EE0C046A033000010100A362D666F6C34
S11333906461626C6500043F3E60462670E0C0468E
S11333A0BC33000010100A372D666F6C6461626CC8
S11333B06500043F3E60472662E0C046EC330000EF
S11333C0000008636F6E7374616E740000B500F0E2
S11333D0BFF9FFF7D7FD043F3E603A4E00F0ABF86B
S11333E0FFF785FF00F01BF800BDC0461034000055
S11333F000000932636F6E7374616E7400B500F07F
S1133400A7F939683E600E46FFF7BCFDE1E7C04608
S113341070340000000006736D756467650000B5C4
S11334202D4801682C4A91421CD202390A882B4B40
S11334309A4204D1043F3E60294E00F07CF800F02B
S113344069F828480068043F3E6006002649096878
S11334500431214A1368116000F06DF81360FEF71F
S1133460AFFE00BD00F056F8043F3E60002608E0C1
S1133470EC340000000008736574666C61677300C7
S113348000B515480168144A914205D215480168EF
S11334903143016040CF00BD320040CF1248006884
S11334A0043001880D4B994201D1110000E0114311
S11334B0018000BD3E310000102F000000B5000067
S11334C000BD00007047000014F0FF1FD82F00203B
S11334D010F0FF1F2010000000F0FF1FFFFF00008E
S11334E00000000020F0FF1F04F0FF1F083500005B
S11334F0410007616C69676E6564012030403618CD
S113350002203040361870472C3500000000056159
S11335106C69676E00B5834801680220014004D0DD
S1133520043F3E60002600F006F800BD7035000040
S1133530000002682C000FB5B6B27B480168002970
S113354002D0013100D0016076480168754A914289
S113355005D2043F3E600E00FEF755FE02E0320045
S113356040CF0A80043F3E60022600F057F80FBDAA
S11335708C3500000000012C00B5043F3E60FFF7CD
S1133580DAFF360CFFF7D7FF00BDC046A8350000B0
S11335900000033E3C2C00B5043F3E60360CFFF7B0
S11335A0CAFFFFF7C8FF00BD103600000000077314
S11335B07472696E672C07B5FF21314040CF30002B
S11335C040CF002905D1043F3E600026FFF7B3FF3A
S11335D007BD043F3E60067836020E43FFF7ABFF9B
S11335E00130013902290AD3043F3E60467836028D
S11335F002781643FFF79FFF02300239F2E70029F1
S113360000D107BD043F3E600678FFF794FF07BD75
S11336106C360000000005616C6C6F7441480168F1
S1133620404A91420FD2320040CF89183F4A91421A
S113363019D3FFF797FA0B466C6173682066756CB3
S11336406C0A01F06BF9320040CF8918384A1268CD
S1133650914208D3FFF786FA0952616D2066756CB2
S11336606C0A01F05BF901607047C04694360000B3
S113367000000D636F6D70696C65746F72616D3FEE
S1133680043F3E600026274800682649884248D304
S1133690F6437047B436000000000C636F6D706928
S11336A06C65746F72616D001E4800681D49884224
S11336B011D370474037000000000E636F6D7069CE
S11336C06C65746F666C6173680016480068154910
S11336D0884200D270471748174902680B680A608D
S11336E003601048154902680B680A6003601048BB
S11336F00068834215D300B5FFF734FA23205661DE
S1133700726961626C657320636F6C6C69646520B7
S1133710776974682064696374696F6E6172790A89
S113372000BD704700F0FF1FD82F002000000200EA
S113373024F0FF1F04F0FF1F1CF0FF1F18F0FF1FF1
S11337402C38000000000828637265617465290044
S113375000B500F0F1FD002E0ED1FFF703FA15209D
S1133760437265617465206E65656473206E616D76
S11337706520210A01F0D2F83868043F3E60043F16
S1133780386000F0A3F940CF002E40CF11D0386844
S1133790043F3E60043F3860FFF7E4F90952656472
S11337A06566696E6520FFF73DFAFFF7DBF9022EC7
S11337B00A00FFF7AFFE00F01DFA8D4800688C493F
S11337C088421CD28B4800210160043F3E600626DB
S11337D0FFF724FFFDF7D6FCFFF7EDFE86480168EE
S11337E00A68864B9A4207D1814A13681160043FE4
S11337F03E60FFF7C1FE1360066040CF10E07E48D4
S1133800043F3E600668FFF7B7FE043F3E607C4E0F
S1133810FFF791FE7848310040CF0160FFF7CBFEFF
S1133820734801687748016000BDC0464438000011
S11338300000087661726961626C6500043F3E6055
S1133840012613E05C3800000000093276617269D9
S113385061626C65043F3E60022607E03439000073
S11338600000096E7661726961626C6500B5FFF7EC
S11338706FFF5F4801685E4A914233D20F200640D1
S1133880B20061480168891A604A91420BD2FFF77D
S113389069F90F4E6F7420656E6F75676820524129
S11338A04D0A01F03BF80160043F3E600E00FFF753
S11338B069FB043F3E60564EFFF73DFE300040CFAB
S11338C00200002805D00E600431FFF755FE0138D0
S11338D0F9D1043F3E6080261643FFF7D1FDFFF780
S11338E09EFD00BD00F086F90220064040CF04D1C1
S11338F0043F3E603626FFF71EFE043F3E60454E01
S1133900FFF749FE043F3E60434EFFF744FE043F89
S11339103E603F4EFFF70FFE300040CF002803D03B
S1133920FFF72AFE0138FBD1FFF7E1FCFFF777FD33
S113393000BDC046203A0000000007627566666557
S1133940723A00B5FFF704FF012030403618022018
S11339503040361826480168254A914226D22A4822
S11339600168891B294A91420BD2FFF7FBF80F4EDD
S11339706F7420656E6F7567682052414D0A00F0C0
S1133980CDFF0160043F3E600E00FFF7FBFA043FE9
S11339903E601F4EFFF7CFFDFFF7EEFD043F3E6094
S11339A01E4EFFF76DFDFFF73AFD00BD00F022F952
S11339B00220064040CF04D1043F3E603626FFF784
S11339C0BAFD043F3E60134EFFF7E5FD043F3E6041
S11339D0114EFFF7E0FD043F3E600D4EFFF7ABFDD7
S11339E0FFF71CFEFFF783FCFFF719FD00BD000085
S11339F000F0FF1F20F0FF1F04F0FF1FFFFFFFFF79
S1133A00FFFF000014F0FF1F24F0FF1F24F4FF1F2A
S1133A10704700003E60043F02367E4640010000CD
S1133A20503A000000000F64696374696F6E61723C
S1133A30797374617274424800684149043F3E607E
S1133A40884201D23F4E70473F4E36687047C046A9
S1133A508C3A000000000E64696374696F6E6172D1
S1133A60796E6578740003B531683848814207D0AF
S1133A708879FF2804D00E00043F3E60002603BD71
S1133A80043F3E600026F64303BDC046C03A000032
S1133A9000000A736B6970737472696E6700317821
S1133AA0013101220A4089187618704706B401785A
S1133AB0013101220A408918401806BC7047C046EB
S1133AC0543B000000000466696E64003FB50022A8
S1133AD00023350040CF340040CFFFF7ACFF1C4833
S1133AE0B188884217D0043F3E600636FFF77AF863
S1133AF0043F3E602600043F3E602E00FEF7A5FF13
S1133B00002E40CF07D0B01DFFF7D0FF02000B00FE
S1133B100B48824204D2FFF7A6FF300040CFDED02C
S1133B201600043F3E601E003FBD00B531003868FA
S1133B30FFF7CCFF3A68002A01D100F05BFE00BD1C
S1133B4000F0FF1F1004000004F0FF1FFFFFFFFF41
S1133B50FFFF0000B03B0000000006636A756D7053
S1133B602C00320040CF310040CF8B1B043BE54991
S1133B70194000290DD0E44881420AD0FEF7F2FF33
S1133B800D4A756D7020746F6F206661720A00F0C3
S1133B90C5FE5B10FF210B40134330001E0000B52F
S1133BA0DA4A13681060FFF7C6FC136000BDC04614
S1133BB0E83B00000000056A756D702C310040CFB1
S1133BC0300040CF0B1A043BD1491940002902D0E0
S1133BD0D04A9142D2D15B10CF4A1340CF4A13430B
S1133BE0043F3E601E00DAE7003C00000000046869
S1133BF065726500043F3E60C44E36687047C04637
S1133C00283D000000000D666C6173687661722DBA
S1133C1068657265043F3E60C14E3668704700B502
S1133C20043F3E60BF4EFFF786FC043F3E60BE4E3D
S1133C30FFF781FC00BDDDE700B500F037F8396817
S1133C403E600E46043F3E60B84EFFF78AFF00BD5B
S1133C5000B500F02BF839683E600E46043F3E6024
S1133C60B34EFFF77EFF00BD00B5FFF7D8FF00F0AD
S1133C701DF839683E600E46043F3E60AD4EFFF7C6
S1133C8070FF00BD00B500F011F839683E600E46C3
S1133C90FFF794FF00BD00B5FFF7C1FFFFF7AAFFD0
S1133CA0043F3E600226FFF7B9FC00BD00B5FFF7F4
S1133CB0A1FF043F3E600226FFF7B0FC00BD00B543
S1133CC0FFF798FFFFF77AFF00BD00B5FFF792FFFB
S1133CD0043F3E60974EFFF744FF00BD00B5FFF779
S1133CE089FF043F3E60914EFFF73BFF00BD00B5E6
S1133CF0FCF70EFDFCF734FCFCF737FCFCF73AFC50
S1133D008168282901D1FCF74AFDFCF73FFD043FF7
S1133D103E60894E09020E43FFF70DFCFCF7E5FBFC
S1133D20FCF712FC00BDC046983D00003006026955
S1133D30660000B5FFF7AFFF043F3E607D4E043FD1
S1133D403E60022600BD00B5FCF76BFDFDF789FD62
S1133D50816A002910D002B4FCF7F6FBFFF74AFF92
S1133D60043F3E600226FFF759FC043F3E6040BC1E
S1133D70043F3E60022600BDFFF7B9FFFFF73AFF9C
S1133D80043F3E600226FFF749FC043F3E60694E53
S1133D90043F3E60022600BDCC3D000030000465B7
S1133DA06C73650000B5022E26D140CFFFF77EFF6D
S1133DB0FDF7E8F9FFF71EFF39683E600E46FFF78E
S1133DC0D0FE043F3E60052600BDC046183E0000FC
S1133DD03000047468656E00052E01D140CF6EE793
S1133DE0022E09D140CF00B5FFF704FF39683E60C9
S1133DF00E46FFF7B6FE00BDFEF7B4FE175374720D
S1133E007563747572657320646F6E2774206D61B9
S1133E107463680A00F082FD483E000030000672B8
S1133E20657065617400042EE6D140CF00B5FDF7DE
S1133E308CF9FFF727FFFFF7DDFE39683E600E4679
S1133E40FFF78FFE00BDC046743E000030060577C4
S1133E5068696C65012ECFD140CF00B5FFF769FFCB
S1133E60023600BD012EC7D140CF00B5FFF76BFF6E
S1133E70023600BDD43E0000300605756E74696CD0
S1133E80012EB9D140CFEFE67047012EB4D140CF17
S1133E9000B5FDF7E6FC816A00290DD002B4FCF7F9
S1133EA053FBFFF703FF39683E600E46043F3E6054
S1133EB040BCFFF756FE00BDFFF719FFFFF7F6FE03
S1133EC039683E600E46043F3E601A4EFFF749FED5
S1133ED000BDC046E83E0000300005616761696EC0
S1133EE0012E89D140CFCDE63C3F00003000056271
S1133EF06567696E00B5FFF79EFE043F3E600126CC
S1133F0000BD000001FFFFFF00FFFFFF00F0FF1FE7
S1133F1001F8FFFF00F8FFFFFF07000000E00000CA
S1133F2024F0FF1F002E000040CF000000D100004D
S1133F3000D7000000D0000000280000543F00001B
S1133F402002016B043F3E60029E7047043F3E60C6
S1133F508E4E0AE0803F00002002016A043F3E606A
S1133F60009E7047043F3E60894E00B5FCF7B3FAEB
S1133F70FCF79CFB03601B021E43FFF7DCFA00BD49
S1133F80AC3F000020020169043F3E6026007047F8
S1133F9000B5043F3E607F4EFCF79DFAFCF786FBBC
S1133FA003601E43FFF7C7FA00BDC046EC3F0000A4
S1133FB03000056C6561766500B5774801683B00A3
S1133FC0043F1A68043B1A6008338B42F9D103B4E6
S1133FD0FFF76CFE03BC330040CF04390B60016073
S1133FE004390A6801320A6000BDC046004000007E
S1133FF0200006756E6C6F6F700030BC7047C04651
S1134000384000003000052B6C6F6F70032E00D019
S1134010F2E640CF00B5043F3E60604EFFF78FF8F4
S1134020FFF716FE1AE0802000060019A419401BB1
S1134030801940CF7047C0467C4000003000046CBB
S11340406F6F7000032E00D0D6E640CF00B5043F5A
S11340503E60534EFFF773F8FFF7EEFD00F052F9A0
S11340604D48310040CF0160043F3E604D4EFFF7A4
S113407066F800BD0134AC427047C046C44000003D
S1134080300202646F0000B5043F3E60464EFFF705
S113409056F841480168043F3E600E00043F3E600C
S11340A000260760FFF7C7FD043F3E60032600BDFE
S11340B000B500F02EF8ECE730B4340040CF350002
S11340C040CF7047BC4100003002033F646F00B52D
S11340D0043F3E60344EFFF732F8043F3E60334EF7
S11340E0FFF729FA2C480168043F3E600E00FFF7F1
S11340F0DDFD0136043F3E60012627480760FFF7D7
S11341009AFD043F3E60032600BD00B500F001F8AF
S1134110E3E700B5FCF785FBFCF704FBFCF720FAAA
S1134120FCF723FAFCF726FA043F3E60204EFFF723
S113413002FA0168282907D0043F3E601D4EC900D9
S11341400E43FFF7F8F907E0043F3E604668043F7A
S11341503E600426FEF754FE8168282907D0043FF8
S11341603E60154EC9000E43FFF7E5F907E0043F32
S11341703E60C668043F3E600526FEF741FEFCF73C
S1134180B4F9FCF7B2F9FCF7FFF900BD029800009E
S113419000980000200000000CF0FF1F26400000E3
S11341A074400000FA3F0000B8400000AC42000038
S11341B030B400000400000005000000DC410000F1
S11341C0300004636173650000B5FCF72AFB043F0B
S11341D03E600026043F3E60082600BDF441000016
S11341E03000033F6F666C480AE0013EB64140CFA1
S11341F07047C046A44200003002026F6600674860
S1134200082E00D0F8E540CF00B5043F3E6006001C
S1134210FEF795FFFFF74AFD39683E600E4601360A
S1134220043F3E600926043F3E605D4EFFF783F97C
S113423000BD082E00D0DFE540CF00B5FCF772FAD0
S1134240FCF78EF9FCF791F9FCF794F9043F3E6012
S1134250544EFCF7A4FA0E430268282A15D142688A
S1134260FF2A07D840CF043F3E604F4E1643090251
S11342700E430CE0043F3E601600FCF717FA1A00E8
S1134280043F3E601E00FEF7BBFDD2001643FFF75D
S113429052F9FCF72AF9FCF777F9BBE7300040CF75
S11342A0B0427047DC420000300005656E646F6602
S11342B0092E00D0A0E540CF00B540B440CFFFF7B1
S11342C0F5FC39683E600E46FFF708FD043F3E608A
S11342D040BC043F3E60082600BDC0462C4300009D
S11342E0300007656E6463617365082E00D083E552
S11342F040CF00B5043F3E60294EFFF71CF900F0A3
S113430001F800BD00B5300040CF00280DD003B443
S113431001213140002903D0013EFFF7D6FC01E022
S1134320FFF7CDFC03BC0138EFE700BD40430000BC
S1134330000005746F6B656E043F3E60202605E047
S1134340B0430000000005706172736510B5FEF79C
S113435050FB310040CF300040CF144A126884181B
S1134360202E07D191420FD0835CB34202D1013297
S11343708418F7E7914207D0835C0132B342F9D144
S11343808618361B013E01E08618361B043F3C604C
S11343900648026010BD0000EA4100009C42000093
S11343A040CF00008042000000280000E42F0020DD
S11343B0F04300000000056469676974D44B1B680E
S11343C0303E0BD30A2E0BD3073E0A2E06D3242EDF
S11343D006D3203E0A2E01D3242E01D30026704793
S11343E09E42FBD2043F3E600026F6437047C0461F
S11343F0FC4400000000066E756D626572003FB5F6
S1134400310040CF701E0126012204B4C04B1B684A
S11344100024002500293CD00130013902782D2ADE
S113442004D101B00022D24304B4F3E7232A01D11A
S11344300A23EFE7242A01D11023EBE7252A01D12F
S11344400223E7E72E2A01D10226E3E72C2A36D0FD
S1134450043F3E601600FFF7B3FF002E40CF2BD081
S1134460043F3E602600043F3E602E00043F3E6051
S11344701E00043F3E6000260FB4FCF762FB0FBC35
S1134480350040CF340040CF0022A419554140CF1D
S1134490C0E704BC002A04D50022E443ED43013400
S11344A0554133002600012B02D0043F3E602E000C
S11344B0043F3E601E003FBD01B000263FBD250005
S11344C0002402260029E4D0425C01392E2AF9D0C6
S11344D0043F3E601600FFF773FF002E40CFEBD081
S11344E0043F3C60043F3E601E000FB4FCF7DDFB5C
S11344F00FBC340040CF40CFE4E7C0462045000065
S11345000000062E6469676974000A2E01D23036F1
S11345107047242E01D23736704723267047C04691
S113452058450000000004686F6C6400330040CFFD
S1134530784801783F290DD20131017040180129D2
S113454007D001380278013002700138013901299D
S1134550F7D103707047C046784500000000056835
S11345606F6C643C330040CF6A4801783F2902D223
S113457001310170435470479045000000000473FA
S113458069676E00002E01D440CF70472D26CDE719
S1134590A4450000000002233E005E480678013076
S11345A038607047BC45000000000366235310B513
S11345B0202400F008F8013CFBD110BDE0450000C8
S11345C000000266230000B5043F3E60504E36688A
S11345D0FCF789FAFFF799FFFFF7C4FF00BDC04657
S11345E0FC45000000000223530000B500F00AF867
S11345F0002EFBD138680028F8D100BD2846000001
S11346000000012300B5043F3E60414E3668043F7C
S11346103E600026FCF769FBFCF73EF940CFFFF74C
S113462074FFFFF783FF00BD3C4600000000023C1E
S113463023003848002101707047C04650460000EE
S1134640000002662E00043F3E60202605E0C046BE
S1134650A0460000000003662E6E00B510B43400BE
S113466040CFFCF75FFDFCF7FDF9043F3E600026F8
S1134670FFF7DFFFFFF7B9FF40CF2C26FFF772FFEC
S1134680002C03D0FFF79FFF013CFBD110BC40CFAF
S1134690FFF778FF043F3E60043F3E601EE0C046E3
S11346A0B846000000000375642E00B5FFF7C1FF93
S11346B0FFF79BFF12E0C046EC46000000000264D6
S11346C02E0000B5FCF72EFDFCF7CCF9FFF7B1FF87
S11346D0FFF78BFFFCF739FDFFF754FFFFF75DFF92
S11346E0FEF7A0FAFEF7ECF900BDC0460047000053
S11346F0000002752E00043F3E600026D5E7C04648
S1134700184700000000012E043F3E60F617D8E76A
S1134710FC2F00205CF0FF1F6047000000000865CC
S113472076616C756174650000B5FEF762F901CFBE
S113473001B440B440CF8A48016802B4002101604A
S1134740FEF74AF900F014F8854802BC0160043F02
S11347503E6040BC01BC043F3860FEF73DF900BD3B
S1134760F4480000000009696E7465727072657423
S113477030B57C4887420BD9FEF7F4F910537461C5
S1134780636B20756E646572666C6F770A00C5E0B2
S1134790754887420AD2FEF7E5F90F537461636BDB
S11347A0206F766572666C6F770AB7E06F4C256888
S11347B0002D01D13D002560FFF7BEFD002E02D182
S11347C0043740CF30BD3868043F3E60043F386052
S11347D0FFF77CF9310040CF320040CF002A15D1D9
S11347E038683100FCF7FBFFFFF709FE320040CFC9
S11347F0002ABED1FEF71AFAFEF7B4F90C206E6F48
S11348007420666F756E642E0A0087E0584B1B682F
S1134810002B29D100252560564B0B4009D00437C5
S113482040CF55480760FEF793FF514801210160CE
S11348309FE730230B40302B0ED1FEF7F3F9FEF740
S113484091F91220697320636F6D70696C652D6F27
S11348506E6C792E0A0061E0043740CF043F3E605D
S11348601600FEF712FD84E7043740CF43480840A2
S113487001D1FCF7B4FF8020084008D1EB1B9B0852
S11348804020084009D00F200840834205D3043F4C
S11348903E601600FEF7F9FC6BE7394808400CD07F
S11348A0FBF7C9FD1000FEF75EFC421C354890473B
S11348B038002060FBF7CEFD5BE7FBF7BCFDFBF7A0
S11348C043FE002525603048084001D1FBF7A9FFCD
S11348D0043F3E60160010220A4002D0FEF7D5FCC9
S11348E047E720220A4002D0FEF729FC41E7FEF701
S11348F00FFB3EE710490000810009686F6F6B2DC4
S113490071756974043F3E60204E70474C49000045
S1134910A049000000000471756974001C488546B4
S1134920104FFDF745FC1B480A2101601048002187
S113493001600E480160FBF74CFE0948016016480F
S1134940016016494160114800688746FEF760F827
S1134950FFF70EFFFEF706F905206F6B2E0AF5E749
S1134960E42F002064F2FF1F64F1FF1F08F0FF1F13
S1134970D82F00200008000010F0FF1F00040000E2
S11349800002000028F0FF1F00100000D42F0020B8
S113499064F3FF1FFC2F0020DC2F00209CF0FF1F7E
S11349A0BC49000000000565696E743F043F3E6029
S11349B0EFF31086013EB6417047C046CC49000073
S11349C020000465696E740062B67047DC4900001B
S11349D020000464696E740072B67047F4490000E4
S11349E02000046970737200043F3E60EFF3058693
S11349F07047C046004A00000000036E6F707047A5
S1134A00444A0000000009756E68616E646C656458
S1134A1000B5FEF7A7F814556E68616E646C6564A2
S1134A2020496E746572727570742000043F3E6094
S1134A30EFF30586FEF70EF9FEF794F802210A005B
S1134A4000BDC046584A00000000057265736574D5
S1134A5099489A490160C0467C4A000081000B696C
S1134A6072712D7379737469636B043F3E60944E65
S1134A707047104A0000924800688746A04A000028
S1134A808100096972712D6661756C74043F3E6022
S1134A908C4E7047104A00008A4800688746C0461A
S1134AA0C84A000081000E6972712D636F6C6C65D9
S1134AB06374696F6E00043F3E60834E7047104A12
S1134AC00000814800688746E84A000081000769C1
S1134AD072712D616463043F3E607C4E7047104ADE
S1134AE000007A4800688746084B00008100076987
S1134AF072712D636D70043F3E60754E7047104AAD
S1134B000000734800688746284B0000810007694D
S1134B1072712D646163043F3E606E4E7047104AAB
S1134B2000006C48006887464C4B0000810009690E
S1134B3072712D706F727461043F3E60664E7047EF
S1134B40104A0000644800688746C046704B000065
S1134B508100096972712D706F727464043F3E6044
S1134B605E4E7047104A00005C4800688746C046A5
S1134B7000500000FFFF182D2D2D20466C61736836
S1134B802044696374696F6E617279202D2D2D0044
S1134B90002153480160FDF76FFD52488546524F8E
S1134BA02A26524852490160524853490160043F41
S1134BB03E60514E514DB188514B994224D0514BD6
S1134BC00B400AD0B01DFEF771FFFEF7CCFA038844
S1134BD0408800040343ED1A16E080230B4013D0F1
S1134BE00F23194089006D1AB01DFEF75FFFFEF711
S1134BF0BAFA043F3E600600043F3E602E00043FC4
S1134C003E600E00FCF7BAFEFEF72DFF300040CFE9
S1134C10D1D03D48066040CF3C4805603C483D4902
S1134C20374A884204D0023803889342F9D00230CC
S1134C3039490860FDF7BCFAFDF794FF514D6563EF
S1134C40726973702D5374656C6C61726973205250
S1134C504120302E39206578706572696D656E74F7
S1134C60616C2077697468204D3020636F72652011
S1134C70666F72204B4C32355A31323820627920BB
S1134C804D61747468696173204B6F63680A2348CB
S1134C9000210160043F3E60214E043F3E60042633
S1134CA0FEF714FF40CF002E02D0FEF7EEFA4AE6DC
S1134CB040CF33E6696E69740CED00E00400FA0538
S1134CC0D02F0020CC2F0020C82F0020C42F00207C
S1134CD0C02F0020BC2F0020B82F0020B42F0020AC
S1134CE00081044064F3FF1F64F2FF1F00F0FF1F04
S1134CF024F4FF1F04F0FF1F100400000030002004
S1134D00FFFF0000000100001CF0FF1F24F0FF1F44
S1134D10000002000050000018F0FF1F08F0FF1F01
S1074D20B44C00008B
S9030000FC
