S02200006D6563726973702D7374656C6C617269732D6B6C32357A3132382E737265638F
S113000064F3FF1F594C0000614B0000614B00007A
S113001000000000000000000000000000000000DC
S11300200000000000000000000000008B4B0000F6
S113003000000000000000008B4B00003F4B00005C
S11300408B4B00008B4B00008B4B00008B4B000054
S11300508B4B00008B4B00008B4B00008B4B000044
S11300608B4B00008B4B00008B4B00008B4B000034
S11300708B4B00008B4B00008B4B0000AB4B000004
S1130080CB4B00008B4B00008B4B00008B4B0000D4
S11300908B4B00008B4B00008B4B00008B4B000004
S11300A08B4B0000EB4B00008B4B00008B4B000094
S11300B08B4B00008B4B00000D4C0000314C0000BA
S11300C0FFFFFFFFFFFFFFFFFFFFFFFFFFFFFFFF3C
S11300D0FFFFFFFFFFFFFFFFFFFFFFFFFFFFFFFF2C
S11300E0FFFFFFFFFFFFFFFFFFFFFFFFFFFFFFFF1C
S11300F0FFFFFFFFFFFFFFFFFFFFFFFFFFFFFFFF0C
S11304103C080000FFFF1E2D2D2D204D65637269E1
S113042073702D5374656C6C6172697320436F72C1
S113043065202D2D2D0007B58A48002B09D000F02A
S11304402FF800F035F800F01FF842602821016011
S1130450F3E707BD00B5834800230168282905D1C7
S1130460426800F004F800F040F8F6E700BD03B578
S1130470043F3E601600043F3E601E0008B400F0D6
S1130480BBFF08BC013303BD03B5013B043F3E6021
S11304901E0008B400F09AFF08BC320040CF03BD30
S11304A003B5714801681E2901D000F034F803BD7A
S11304B0816901620169816181680161016881600A
S11304C0C16941624169C161C16841614168C160FA
S11304D01E21016070470FB5624801681E2903D0D0
S11304E0FFF7DEFFFFF7E4FF0FBD02B5816801608F
S11304F0C168416000E002B5016981604169C16081
S113050081690161C1694161016A8161416AC161B5
S11305101E21016202BD08B501681E22026008297D
S113052001D20B0004E028290DD1436800F05DF8E6
S1130530043F3E604D4E03F06AF8043F3E604C4E6B
S11305401E4303F064F808BD00B500F009F800F09C
S11305500CF800F00FF800F012F800F015F800BDE8
S11305600FB54148FFF7D7FF0FBD0FB54148FFF75F
S1130570D2FF0FBD0FB54048FFF7CDFF0FBD0FB53C
S11305803E48FFF7C8FF0FBD0FB536480168062285
S113059002601E2905D1043F3E60394E03F037F84E
S11305A014E0282909D14368043F3E601E00043F3B
S11305B03E60062602F090FC08E0062906D0043FBF
S11305C03E60304EC9000E4303F021F800F001F8FC
S11305D00FBD24481E210162816101618160C162F5
S11305E00621016000218162704707B5043F3E6027
S11305F01E0000F049F8043F3E601E0002F06CFC4F
S113060007BD07B5C16A282904D1016B994201D1FC
S1130610002307BD0168002918D08168002915D07E
S11306200169002912D0816900290FD0016A0029CB
S11306300CD00363043F3E601E00043F3E6000266E
S113064002F04AFC2821C162002307BD043F3E603A
S11306501E0000F019F8043F3E601E0002F03CFC4E
S113066007BD000028F0FF1F48F0FF1F043F0000F3
S11306703860000040F0FF1F38F0FF1F30F0FF1F0C
S113068040CF00000646000037B53548016882684F
S113069003698469056A062000F00DF8032000F060
S11306A00AF8022000F007F8012000F004F8002303
S11306B01E21C16237BD814209D0824207D08342E4
S11306C005D0844203D0854201D0030037BD704772
S11306D0043F3E60234E00B581581E2905D1FFF723
S11306E0D3FF8350012199400E4300BD00B501683A
S11306F01E2904D10022FFF7EBFF02F088FF00BDA2
S113070000B581681E2907D10822FFF7E1FF002206
S1130710FFF7E1FF02F07BFF00BD00B501691E2970
S11307200AD11022FFF7D4FF0822FFF7D4FF0022DA
S1130730FFF7D1FF02F06BFF00BD00B581691E29F0
S11307400DD11822FFF7C4FF1022FFF7C4FF0822BF
S1130750FFF7C1FF0022FFF7BEFF02F058FF00BD04
S113076028F0FF1F00CF000000B50168282904D13C
S11307704368FFF73AFF0360190000BD00B58168C4
S1130780282904D1C368FFF730FF8360190000BD36
S113079000B50169282904D14369FFF726FF0361E5
S11307A0190000BD3EB5826803698469056A9A42EE
S11307B003D0A24201D0AA420AD1072A08D8043F92
S11307C03E60D600FFF760FF1E43836002F01FFF08
S11307D03EBD3EB50168826803698469056A914239
S11307E006D0994204D0A14202D0A94200D03EBD15
S11307F0043F3E60CE00FFF747FF1E43036002F054
S113080006FF3EBD00B5FFF770FEFFF764FEFFF77D
S11308103BFF036000BD01B506480368013307D000
S11308200023DB430360043F3E60034E02F0EFFE0F
S113083001BD0000D82F002000B5000060080000B2
S113084042020432647570003868043F3E60043F1D
S11308503860704700B500F0E3FC00F0E1FC00BD37
S1130860800800006202053264726F70043740CF62
S1130870704700B500F084FC00F082FC00BDC04667
S1130880C8080000440205327377617007CF043F43
S11308903860043F3E60043F3A600E00704700B584
S11308A0FFF74BFF02680369036002614268436912
S11308B0436042618268836983608261C268C369FC
S11308C0C360C26100BDC046F00800006202043289
S11308D06E69700007CF043F3860704700B5FFF7BA
S11308E02CFFFFF7DCFFFFF700FEFFF7FEFD00BD66
S11308F00C090000440005326F766572B868043F45
S11309003E60043F3860FE687047C046300900000E
S1130910440005327475636B07CF043F3860043FAD
S11309203E60043F3A60043F3960043F38607047DA
S11309305409000046000432726F74003868B968C4
S11309403A69B86039613A6079687E60FE68F96036
S11309507047C04678090000460005322D726F7456
S11309603868B9683A6938613960BA60F968FE6014
S11309707E6879607047C046A009000020020332F7
S11309803E7201CF01B440B440CF704700B5FFF7C9
S113099042FF00F019FC00F0BBFC00F0B9FC00BD04
S11309A0CC09000020020332723E043F3E6040BC8A
S11309B001BC043F3860704700B5FFF72CFF00F01E
S11309C0C2FC00F0C0FC00F0FFFB00BDFC0900000D
S11309D0200203327240043F3E60019E043F3E60A9
S11309E0009E704700B5FFF716FF043F3E600C4EB3
S11309F003F027FB03F022FB00BDC046280A0000D9
S1130A00200206327264726F700002B0704700B543
S1130A10FFF701FF043F3E60024E02F0F8FD00BD07
S1130A200198000002B00000400A00004200036484
S1130A30322F3868F1077610400808433860704751
S1130A40580A000062020364322A386800187641AA
S1130A503860704719E0C046740A0000420004641C
S1130A60736872003868F1077608400808433860F4
S1130A707047C046C00A00006202046473686C00D8
S1130A803868001876413860704700B5FFF738FEC3
S1130A90FFF76AFEFFF79DFE00F096FBFFF764FE8A
S1130AA0FFF797FE043F3E60402601F01DFD00F075
S1130AB08BFB043F3E60404E01F016FD00BDC04676
S1130AC0D40A00004200046461627300002E08D45A
S1130AD07047C046F40A0000420007646E6567610F
S1130AE0746538680021C043F64301304E413860D4
S1130AF07047C046440B0000640202642D0007CF17
S1130B00121AB1410E00043F3A60704700B5FFF776
S1130B1014FE00F0AEFBFFF727FEFFF75AFE00F0CD
S1130B2053FBFFF721FEFFF754FEFFF7B8FE01F079
S1130B305CFC00F0BBFB043F3E60204E00F03FFD38
S1130B4000BDC046900B0000640202642B0007CF76
S1130B5012184E41043F3A60704700B5FFF7EDFDAF
S1130B6000F087FBFFF700FEFFF733FE00F02CFBDD
S1130B70FFF7FAFDFFF72DFEFFF791FE01F01FFCD2
S1130B8000F094FB043F3E600B4E00F01CFD00BDE2
S1130B90C40B0000610203733E64043F3E60F61719
S1130BA0704700B500F0DAFAFFF713FE043F3E6029
S1130BB0034E01F051FC00BD4041000080410000A3
S1130BC0C0170000F00B0000420003756D2A38685E
S1130BD0030073433B60010C320C0B005343B6B269
S1130BE080B24E4350433618360CF6187047C04650
S1130BF0200C00004200026D2A003868C11705D09D
S1130C0040423860F01704D07642E0E7F017DED0B7
S1130C10764200B5FFF7DBFFFFF763FF00BDC04678
S1130C20600C000044000375642A07CF5643414317
S1130C307618010C130C59437618010C80B292B249
S1130C405143434350430022C91852411204B61879
S1130C500A04090C80184E41043F38607047C046AE
S1130C60F40C000044000475646D2A0010B50024DF
S1130C70043F3E607E68043F3E603E69FFF7A7FF85
S1130C80310040CF300040CF043F3E603E68043F17
S1130C903E60FE6803B4FFF79AFF03BC330040CF05
S1130CA0320040CF043F3E603E68043F3E603E69F0
S1130CB00FB4FFF78CFF0FBC9219634140CF891921
S1130CC06241634140CF043F3E607E68043F3E6022
S1130CD0FE680FB4FFF77BFF0FBC9219634140CF4E
S1130CE089196241634140CF1E003A607960B8605F
S1130CF010BDC046180D00004300022A2F0000B5A5
S1130D0040B440CFFFF779FF043F3E6040BC00F0A1
S1130D104FF8043700BDC0463C0D00004300052ACF
S1130D202F6D6F6400B540B440CFFFF766FF043FFA
S1130D303E6040BC00F03CF800BDC046600D0000C1
S1130D40430003752A2F00B540B440CFFFF73FFF9F
S1130D50043F3E6040BC00F01CF8043700BDC046B0
S1130D60840D0000430006752A2F6D6F640000B5E2
S1130D7040B440CFFFF72BFF043F3E6040BC00F07F
S1130D8008F800BDA40D0000430006756D2F6D6FBB
S1130D90640000B5043F3E60002600F01AF840CF1E
S1130DA0043700BDC40D00004300056D2F6D6F6452
S1130DB000B5043F3E60F61700F034F840CF043726
S1130DC000BDC046180E000044000675642F6D6F08
S1130DD0640030B4002300227968B86835003C68A8
S1130DE040264000494152415B41AB4202D804D302
S1130DF0A24202D3121BAB410130013EF1D10E00DD
S1130E0038607B60BA6030BC704730B400237A68C5
S1130E10B9680020E2E7C046900E00004400056473
S1130E202F6D6F6400B5F01719D0FFF75AFEFFF766
S1130E302DFDF0170CD0FFF754FEFFF727FDFFF749
S1130E40C8FFFFF723FDFFF74CFEFFF71FFD00BDB2
S1130E50FFF71CFDFFF7BDFFFFF743FE00BDFFF7E3
S1130E6015FDF0170ED0FFF73CFEFFF70FFDFFF75F
S1130E70B0FFFFF736FEFFF709FDFFF732FEFFF77D
S1130E8005FD00BDFFF702FDFFF7A3FF00BDC0464F
S1130E90A80E0000440002642F0000B5FFF7C2FF53
S1130EA0FFF718FD00BDC046F00E000044000266C6
S1130EB02A0000B5F0170DD0FFF713FEFFF7E6FC8C
S1130EC0F0170DD0FFF70DFEFFF7D0FE40CF01CF96
S1130ED0386000BDFFF7DAFCF017F5D0FFF701FE2C
S1130EE0FFF7C4FE40CF01CF3860FFF7FAFD00BD25
S1130EF03C0F0000440002662F0000B5F0170ED02E
S1130F00FFF7EFFDFFF7C2FCF0170ED0FFF7E9FD86
S1130F10FFF7BCFCFFF779FFFFF7DCFC00BDFFF730
S1130F20B5FCF017F4D0FFF7DCFDFFF7AFFCFFF7DB
S1130F306CFFFFF7D6FDFFF7CDFC00BD840F00006A
S1130F4020020232210006CF3160726040CF704728
S1130F5000B5FFF7E2FB0168426806B400F0D2FD79
S1130F60FFF7B9FA06BC0160282905D0043F3E60AA
S1130F70614E00F0CAFD00BD0432426000F0C2FDC3
S1130F8000BDC046CC0F0000200202324000043FE6
S1130F90706838603668704700B500F0DFF80168A3
S1130FA0282909D0043F3E60544E00F08CFD00F027
S1130FB00BF900F085FD00BD41680431416000F08B
S1130FC07FFD00F001F900F07BFD00BDEC0F000097
S1130FD044000364753C07CF8E4204D801D190428B
S1130FE001D8002670470026F64370470C10000015
S1130FF044000364753E07CFB14204D801D1824254
S113100001D8002670470026F64370472C100000D4
S1131010440002643C0007CF8E4204DC01D19042BC
S113102001DC002670470026F64370474C10000090
S1131030440002643E0007CFB14204DC01D1824285
S113104001DC002670470026F64370476810000054
S113105062020364303C0437F617704700B500F0B1
S1131060C6F800F010FB00BD90100000620203649B
S1131070303D01CF0643013EB641704700B5043F01
S11310803E601F4E00F09FFA00F0D8FA00BDC04643
S1131090B8100000440203643C3E07CF50404E4069
S11310A00643013EB641F643704700B500F016F81A
S11310B000F0D7FA00BDC0460411000044020264E7
S11310C03D0007CF50404E400643013EB6417047B5
S11310D000B500F003F800F0B1FA00BD00B5FFF769
S11310E02CFB00F0C6F800F0CFF900F0DFF800F0B8
S11310F0CBF900F0BDF900BD40600000406800007D
S11311000043000018110000200003737040043FE6
S11311103E603E007047C046281100002000037363
S11311207021370040CF70473C110000200003724B
S11311307040043F3E606E467047C0464C1100004C
S1131140200003727021B54640CF70477011000033
S1131150610203647570043F3E60704706B5FFF793
S1131160C5FA01684268FFF7B6F90160426006BD3E
S11311709C11000061020464726F700040CF7047DC
S113118000B501681E2905D1043F3E60A14E02F05E
S11311903EFA00BDFFF7A9F900BDC046B411000036
S11311A06100043F64757000002E01D0043F3E606E
S11311B07047C046E011000062020473776170005A
S11311C039683E600E0070470CB5FFF799FA026863
S11311D08368036082604268C3684360C2600CBD78
S11311E00C1200006202036E69700437704700B588
S11311F0FFF77CFA81681E2902D0FFF77CF900BD55
S1131200043F3E60834E02F002FA00BD3412000037
S11312106202046F76657200043F3E607E68704728
S113122000B5FFF76DFA8168C268FFF754F90160F1
S1131230426000BD5C1200006202047475636B00BE
S113124001CF083F7E603860704700B5FFF765FA4C
S1131250FFF784FF00F02AF800BDC0469412000096
S1131260630203726F7403CF083F78603E600E0020
S113127070470EB5FFF751FA01688268036981600F
S1131280026103604168C2684369C16042614360AE
S11312900EBDC046B81200006302042D726F7400C4
S11312A003CF083F7E6039600600704700B5FFF742
S11312B0E0FFFFF7DEFF00BDCC1200002000047049
S11312C069636B00B0003E587047C046E4120000EA
S11312D000000564657074684F49C91B043F3E6093
S11312E08E08704700130000000006726465707475
S11312F06800043F3E606E464849891B8E0870476B
S1131300341300002002023E720040B440CF704704
S113131000B5FFF780FAFFF7E9F9FFF725FA043F74
S11313203E603F4E01228A40164302F070F9FFF7F7
S1131330DCF800BD68130000200202723E00043F86
S11313403E6040BC704700B5FFF765FAFFF7C3F88D
S1131350FFF79AF90360043F3E60324E01229A403F
S1131360164302F054F900BD8813000020020272F3
S11313704000043F3E60009E704700B5FFF74BFA03
S113138002F05CFE00BDC046AC13000020020572F2
S113139064726F7001B0704700B5FFF73CFA043F08
S11313A03E60214E02F033F900BDC046C013000078
S11313B0200005727069636BB6006E44366870472E
S11313C0EC130000000004726F6C6C00002E01D15D
S11313D040CF7047B0003958C019031F1A68026023
S11313E00438013EF9D104370E0070472C14000074
S11313F00000052D726F6C6C002E01D140CF704738
S1131400386839464A680A600431013EFAD10860F6
S113141040CF70470437000064F2FF1F64F3FF1FDE
S113142000B4000000BC000001B00000441400003F
S1131430620203616E6401CF06407047043F3E6060
S11314406F4EC0E06014000062020362696301CF62
S1131450B04306007047043F3E606A4EAFE0C046AA
S1131460781400006202026F720001CF06437047D5
S1131470043F3E60644EA6E09014000062020378CC
S11314806F7201CF46407047043F3E605F4E9AE062
S1131490A81400006202012A01CF46437047043FAA
S11314A03E605B4E8FE0C046C814000041000363F9
S11314B06C7A300006D00026400002D001D20136FA
S11314C0FAE7704720267047D814000061000372C1
S11314D06F720120C6417047EC1400006100037272
S11314E06F6C0020B61946417047C04620150000B5
S11314F06202076172736869667401CF3041060045
S1131500704700B5043F3E60424E043F3E60424E89
S1131510FFF7F6F841681F2928D91F21416025E00B
S1131520481500006202067273686966740001CF90
S1131530F0400600704700B5043F3E60374E043F5C
S11315403E60374E12E0C0462C1600006202066C64
S113155073686966740001CFB0400600704700B537
S1131560043F3E602F4E043F3E600026FFF7C8F85C
S11315700168282903D040CF00F021F800BD0437CA
S11315804168FEF7B2FF002901D140CF00BD1F29F9
S11315900AD889010E430268D2001643FFF732F9D4
S11315A01E4302F034F800BD40CFFFF72BF9043F8F
S11315B03E601D4E1B021E4302F029F800BD0FB50C
S11315C0FFF79EF80CE00FB5FFF79AF801680629BB
S11315D001D1FFF7F9FD8268282A01D1FFF7F4FD54
S11315E0FFF7CCF8FFF7DEF8FFF7BEF8C900826812
S11315F00E43164302F00BF8FEF777FF0FBD000011
S11316000040000080430000004300004040000010
S1131610404300000041000000100000C0400000F2
S11316200008000080400000002000005016000068
S1131630610202303D00013EB641704700B500F042
S113164003F900F006FFFEF750FF7349816200BD05
S113165078160000610203303C3E013EB641F64379
S1131660704700B500F0F0F800F0F3FEFEF73DFF20
S11316706A49816200BDC0469C16000061020230C6
S11316803C00F617704700B500F0DEF8043F3E60FA
S1131690634E00F0E1FE6349816200BDB4160000B0
S11316A06000047472756500043F3E600026F643D2
S11316B07047C046C816000060000566616C73651B
S11316C0043F3E6000267047EC1600004202023ED2
S11316D03D0001CFB042E9DA00267047043F3E6086
S11316E0514E043F3E60514EBAE0C0461017000010
S11316F04202023C3D0001CFB042D7DD00267047D4
S1131700043F3E604A4E043F3E604A4EA8E0C04655
S1131710301700004202013C01CFB042C6DB002674
S11317207047043F3E60414E043F3E603E4E97E0AA
S1131730501700004202013E01CFB042B6DC002641
S11317407047043F3E603B4E043F3E60384E87E0A6
S113175074170000620203753E3D01CF861BB6413B
S1131760F6437047043F3E602C4E043F3E602A4ED1
S113177076E0C04698170000620203753C3D01CF35
S1131780361AB641F6437047043F3E602A4E043F82
S11317903E602A4E64E0C046B8170000620202753B
S11317A03C0001CF861BB6417047043F3E601A4E91
S11317B0043F3E60194E53E0D817000062020275E0
S11317C03E0001CF361AB6417047043F3E601B4EBF
S11317D0043F3E60184E43E0F81700006202023CEA
S11317E03E0001CF811B361A0E437047043F3E6012
S11317F0134E043F3E6033E0541900006202013D81
S113180001CF361A013EB6417047043F3E600D4E8B
S1131810043F3E6024E0000000D2000000D300003A
S1131820C017000000D5000000DB000000DA000053
S113183000DC000000DD000000D8000000D900003A
S113184000D0000000D1000000B5FEF74FFFFEF706
S113185087FEFEF78AFEFEF78DFEFEF78FFF00BDC2
S113186000B5FEF74DFFFEF77BFEFEF77EFEFEF7AA
S11318708FFF8268282A04D1FFF7A6FC39683E60EE
S11318800E4640CF0168282909D14168FF2906D8AE
S1131890043F3E60634E0E438168090206E0FEF792
S11318A063FF043F3E60604EC90016430E4301F0DF
S11318B0AEFEFEF71AFEFEF718FE866240CF00BDAC
S11318C00FB55A48816A002930D0043F3E60866AC9
S11318D000218162310AD52901D140CF0FBDFEF725
S11318E0FAFDFEF7D1FE0360D22903D1504E00F079
S11318F0FBFD0FBDD32905D14D4E00F0F5FD00F0E1
S113190006FE0FBD023601F082FE043F3E60494EE2
S113191000F00DF800F0FBFD043F3E60464E01F080
S113192076FE043F3E60434E00F001F80FBD00B563
S1131930FEF7DCFEFEF74DFF016809020E4301F0DD
S113194066FE00BD00B5816A090AD52901D1FEF7FA
S1131950CCFD00BD701900006202036D696E01CFF9
S1131960B04200DC06007047043F3E60334E2BE07B
S11319708C1900006202036D617801CFB04200DB74
S113198006007047043F3E602D4E1DE0AC19000078
S1131990620204756D61780001CFB04200D3060085
S11319A07047043F3E60274E0EE0C046501A0000C8
S11319B0620204756D696E0001CFB04200D8060062
S11319C07047043F3E60204E00B5FEF799FE016863
S11319D08268914203D140CFFEF78DFD00BD062AF7
S11319E001D1FFF7F1FB0168282901D1FFF7ECFBD6
S11319F0FEF7EFFEFEF7C2FEC9000268043F3E6038
S1131A00094E0E43164301F002FE01F000FE043FAE
S1131A103E600E4E0E43164301F0F9FDFEF76BFDDA
S1131A2000BD0000002800008042000028F0FF1FD5
S1131A30804100000020000000E0000000DB000006
S1131A4000DC000000D8000000D3000000460000C5
S1131A50901A00000000046D6F76650007B5310030
S1131A6040CF320040CF00290FD0B2420DD006D370
S1131A70013E013A705C50540139FBD105E03078E5
S1131A801070013601320139F9D140CF07BDC0468B
S1131A90B41A000000000466696C6C00300040CF8A
S1131AA0310040CF002902D001397054FCD140CF1D
S1131AB07047C046F41A000020020140366870479F
S1131AC0043F3E60994E00B5FEF710FE0368282BD4
S1131AD008D143687C21194009010E437C218B43C2
S1131AE0FEF78FFDDB001E43FEF78CFE1E4301F064
S1131AF08EFD00BD4C1B00002002012103CF30608D
S1131B000E007047043F3E60894E00B5FEF7F8FDB5
S1131B100368282B09D143687C21194009010E432D
S1131B207C218B43FEF76DFD0360DB001E4383685D
S1131B30282B02D1C368FEF758FD1E4301F067FD50
S1131B40FEF7D3FCFEF7D1FC00BDC046841B0000A9
S1131B502002022B210003CF3268121832600E00DB
S1131B60704700B5FEF7CCFDFFF7F8FAFFF7A8FFC2
S1131B70FFF77FFB00F023FCFFF726FBFFF7C2FF14
S1131B8000BDC046C81B0000200202684000368821
S1131B90704700B5FEF7AAFD043F3E60654E03683A
S1131BA0282B08D143683E21194049010E433E21A8
S1131BB08B43FEF726FDDB001E43FEF723FE1E4388
S1131BC001F025FD00BDC046201C00002002026873
S1131BD0210003CF30800E00704700B5FEF790FD62
S1131BE0043F3E60544E0368282B09D143683E21CC
S1131BF0194049010E433E218B43FEF702FD036069
S1131C00DB001E438368282B02D1C368FEF7EDFC7A
S1131C101E4301F0FCFCFEF768FCFEF766FC00BD09
S1131C20581C0000200203682B2103CF32881218AD
S1131C3032800E00704700B5FEF762FDFFF78EFAA2
S1131C40FFF7A7FFFFF715FB00F0B9FBFFF7BCFA9E
S1131C50FFF7C3FF00BDC0469C1C000020020263C6
S1131C6040003678704700B5FEF740FD043F3E6003
S1131C70324E0368282B08D143681F21194089017B
S1131C800E431F218B43FEF7BCFCDB001E43FEF713
S1131C90B9FD1E4301F0BBFC00BDC046F41C0000AE
S1131CA020020263210003CF30700E00704700B59C
S1131CB0FEF726FD043F3E60214E0368282B09D120
S1131CC043681F21194089010E431F218B43FEF7EE
S1131CD098FC0360DB001E438368282B02D1C36891
S1131CE0FEF783FC1E4301F092FCFEF7FEFBFEF7B9
S1131CF0FCFB00BD441D0000200203632B2103CF25
S1131D003278121832700E00704700B5FEF7F8FCF6
S1131D10FFF724FAFFF7A7FFFFF7ABFA00F04FFB3A
S1131D20FFF752FAFFF7C3FF00BD00000068000090
S1131D3000600000008800000080000000780000BF
S1131D4000700000841D00002002046269732100F9
S1131D5003CF3268024332600E00704700B5FEF7CD
S1131D60CFFCFFF7FBF9FFF7ABFEFFF782FA043F66
S1131D703E60AB4EFFF727FCFFF726FAFFF7C2FEE3
S1131D8000BDC046C41D0000200204626963210036
S1131D9003CF3268824332600E00704700B5FEF70D
S1131DA0AFFCFFF7DBF9FFF78BFEFFF762FA043FA6
S1131DB03E609C4EFFF703FCFFF706FAFFF7A2FE16
S1131DC000BDC046041E0000200204786F7221008A
S1131DD003CF3268424032600E00704700B5FEF710
S1131DE08FFCFFF7BBF9FFF76BFEFFF742FA043FE6
S1131DF03E608D4EFFF7E7FBFFF7E6F9FFF782FE43
S1131E0000BDC046381E0000200204626974400010
S1131E1001CF36680640013EB641F643704700B52F
S1131E20FEF76EFCFFF74CFE043F3E607F4EFFF76B
S1131E30CAFBFFF716FC00BD781E000020020568EF
S1131E406269732103CF3288024332800E007047E7
S1131E5000B5FEF755FCFFF781F9FFF79AFEFFF78F
S1131E6008FA043F3E606E4EFFF7ADFBFFF7ACF996
S1131E70FFF7B3FE00BDC046B81E0000200205688F
S1131E806269632103CF3288824332800E00704737
S1131E9000B5FEF735FCFFF761F9FFF77AFEFFF7AF
S1131EA0E8F9043F3E605F4EFFF789FBFFF78CF9CA
S1131EB0FFF793FE00BDC046F81E0000200205682F
S1131EC0786F722103CF3288424032800E0070470F
S1131ED000B5FEF715FCFFF741F9FFF75AFEFFF7CF
S1131EE0C8F9043F3E60504EFFF76DFBFFF76CF9F5
S1131EF0FFF773FE00BDC0462C1F000020020568DA
S1131F006269744001CF36880640013EB641F6430B
S1131F10704700B5FEF7F4FBFFF73BFE043F3E605D
S1131F20424EFFF750FBFFF79CFB00BD6C1F000007
S1131F30200205636269732103CF32780243327051
S1131F400E00704700B5FEF7DBFBFFF707F9FFF75C
S1131F508AFEFFF78EF9043F3E60314EFFF733FBF4
S1131F60FFF732F9FFF7A3FE00BDC046AC1F000027
S1131F70200205636269632103CF327882433270A1
S1131F800E00704700B5FEF7BBFBFFF7E7F8FFF75D
S1131F906AFEFFF76EF9043F3E60224EFFF70FFB27
S1131FA0FFF712F9FFF783FE00BDC046EC1F0000E7
S1131FB020020563786F722103CF32784240327079
S1131FC00E00704700B5FEF79BFBFFF7C7F8FFF75D
S1131FD04AFEFFF74EF9043F3E60134EFFF7F3FA53
S1131FE0FFF7F2F8FFF763FE00BDC04630200000A3
S1131FF0200205636269744001CF36780640013ED1
S1132000B641F643704700B5FEF77AFBFFF72BFEA7
S1132010043F3E60054EFFF7D6FAFFF722FB00BDF2
S113202000430000804300004040000000400000E6
S113203040210000000006666C61736821003000D6
S113204040CF310040CF854B984268D3844B9942AE
S11320502ED0032202402CD102689A4246D1814AF2
S1132060137880221A40FAD030221A4002D07D4AD6
S1132070302313707C4A062313707C4A1070000AC4
S11320807B4A1070000A7B4A10707B4A1170090A5F
S11320907A4A1170090A7A4A1170090A794A117048
S11320A0704A802313706F4A137880221A40FAD042
S11320B0704700F0C3FD3041646472657373206837
S11320C0617320746F20626520342D616C69676EC2
S11320D0656420666F722077726974696E67206622
S11320E06C61736820210A0002F07CFC00F0A6FDFC
S11320F029466C617368206C6F636174696F6E202C
S113210063616E6E6F7420626520777269747465A2
S11321106E20747769636520210A02F063FC00F085
S11321208DFD1943616E6E6F74207772697465203A
S1132130696E746F20636F726520210A02F052FC8D
S1132140C421000000000E666C61736870616765ED
S11321506572617365000FB5300040CF3F4B984204
S113216020D3032398433F4A137880221A40FAD09D
S113217030221A4002D03B4A302313703A4A0923D2
S113218013703A4A1070000A394A1070000A394A2A
S11321901070344A80231370324A137880221A4014
S11321A0FAD00FBD00F04AFD1443616E6E6F7420C7
S11321B0657261736520636F726520210A0002F005
S11321C011FCC0464022000000000A65726173657C
S11321D0666C61736800214872B62B492B4A036808
S11321E093421CD0043F3E600600043F3E6000F072
S11321F025FD10457261736520626C6F636B20610D
S11322007420200000F092FD00F018FD0C2066728E
S11322106F6D20466C6173680A00FFF79CFF043001
S11322208842DCD100F00AFD1246696E6973686564
S1132230642E20526573657420210A0002F06CFC40
S1132240D822000000000E6572617365666C6173CC
S11322506866726F6D00300040CFBDE7005000002B
S1132260FFFFFFFF0000024007000240040002409D
S11322700500024006000240080002400900024036
S11322800A0002400B00024000000200FFFFFFFFB3
S1132290464860210022028002300139FBD1704798
S11322A0424860210288002A12D000F0C7FC1D5564
S11322B06E7061697265642031362D6269742046DE
S11322C06C6173682077726974652E0A02F08AFB68
S11322D002300139E6D17047B023000000000768DE
S11322E0666C6173682130B5320040CF500813D357
S11322F000F0A4FC1E68666C61736821206E65653D
S11323006473206576656E206164647265737365B9
S1132310732E0A0002F066FB022353402348202157
S1132320048845882D042C439C422AD00630013968
S1132330F6D11E482021048845882D042C431AD048
S113234006300139F7D100F079FC27546F6F206D06
S1132350616E7920756E7061697265642031362D05
S113236062697420466C617368207772697465735E
S11323702E0A02F037FB0280120C4280868040CF86
S113238030BD0221114003D0023A8188360401E0B5
S1132390818809040E43043F3E6016000021018039
S11323A041808180FFF74BFE30BD000064F3FF1FC6
S11323B0DC2300006202012B01CF3618704700B500
S11323C0FEF79EF9043F3E60D14E043F3E60D14E7D
S11323D08168282912D1FEF7F7FE0FE0442400009B
S11323E06202012D01CF861B704700B5FEF788F904
S11323F0043F3E60C84E043F3E60C84EFEF7BEF93F
S1132400016828290ED14168FF290BD840CFFEF777
S1132410C9F90E43816809020E4301F0F8F8FEF78A
S113242064F800BD0437FEF79FF989018268D20081
S11324300E431643FEF759F8FEF7E4F91E4301F084
S1132440E6F800BD70240000610202312D00013E57
S11324507047043F3E60B24E00B5FEF747F901688D
S1132460C9000E43FEF7CEF91E4301F0D0F800BDBB
S113247088240000610202312B0001367047043FBA
S11324803E60A84EE8E7C046A02400006102023284
S11324902D00023E7047043F3E60A34EDCE7C04679
S11324A0B8240000610202322B0002367047043F58
S11324B03E609E4ED0E7C046D02400006102056312
S11324C0656C6C2B04367047043F3E60984EC3E73E
S11324D0002500006102066E65676174650076423E
S11324E07047043F3E60934E00B5FEF7FFF8FEF7D9
S11324F070F901680E43C9000E4301F088F800BD6D
S1132500182500006102036E6F74F6437047043FA0
S11325103E60894EE8E7C04630250000610203733F
S1132520687276087047043F3E60844EDCE7C0461C
S11325304025000061020373686C7600704706E072
S113254058250000610202322A0076007047043FD9
S11325503E604026C8E7C04670250000610205635E
S1132560656C6C73B6007047043F3E608026BBE721
S113257088250000610202322F0076107047043F64
S11325803E606F4EB0E7C046C025000061020361A3
S11325906273F01736184640704700B5FEF7A6F888
S11325A0043F3E60674E016809020E4301F02FF8B4
S11325B0043F3E60644E01F02AF8FFF792FF00BD2D
S11325C008260000420005752F6D6F64310040CF6E
S11325D0002903D1043F3E600026704701220023F6
S11325E08E4206D9003104D45200490001D48E42EF
S11325F0FAD88E4201D3761A134349085208F8D107
S1132600043F3E601E007047782600004200042FFD
S11326106D6F640000B5300040CF002E1CDA7642A6
S113262000280CDA4042043F3E600600FFF7CEFF6C
S1132630300040CF7642043F3E60060000BD043FB8
S11326403E600600FFF7C2FF300040CF40427642B2
S1132650043F3E60060000BD002807DA4042043F04
S11326603E600600FFF7B2FF764200BD043F3E60C5
S11326700600FFF7ABFF00BD8C2600004200036D8F
S11326806F6400B5FFF7C6FF40CF00BDA026000071
S11326904200012F00B5FFF7BDFF043700BDC0465F
S11326A0B42600006100046576656E0001203040A8
S11326B036187047CC2600008100046261736500FF
S11326C0043F3E60214E70470A000000E4260000EB
S11326D000000662696E617279001C480221016083
S11326E07047C046FC260000000007646563696DFE
S11326F0616C16480A2101607047C04698270000A3
S113270000000368657811481021016070470000DB
S1132710003000000018000000380000001A00001B
S1132720401E0000401C0000801E0000801C0000B1
S1132730001D000040420000C043000040080000AB
S1132740401000000028000000D50000FC2F0020ED
S113275080498148016081498148016081498248FA
S113276001608249824801608248016000218248F8
S1132770017082480170824801708248017006210C
S1132780814801700021814801701A21804801703C
S11327900C21794801707047B42700008100096852
S11327A06F6F6B2D656D6974043F3E60794E7047A1
S11327B0AA280000D0270000810008686F6F6B2DE5
S11327C06B657900043F3E60734E7047D228000069
S11327D0F027000081000A686F6F6B2D656D6974C6
S11327E03F00043F3E606D4E704700290000C04624
S11327F00C280000810009686F6F6B2D6B65793FB1
S1132800043F3E60664E7047322900002C280000C9
S113281081000A686F6F6B2D706175736500043FEA
S11328203E60604E7047C64A0000C046442800001F
S1132830000004656D6974000FB5564800F029F86E
S11328400FBDC046582800000000036B65790FB522
S1132850514800F01EF80FBD6C280000000005650B
S11328606D69743F4D4800688746C0468028000063
S11328700000046B65793F00494800688746C046FC
S1132880982800000000057061757365454800686C
S1132890874600688746C046C028000000000B73C6
S11328A0657269616C2D656D697400B500F028F876
S11328B0002E40CFFAD03C48067040CF00BDC04641
S11328C0EC28000000000A73657269616C2D6B6569
S11328D0790000B500F02DF8002E40CFFAD0324830
S11328E0043F3E600678F6B200BDC04620290000D1
S11328F000000C73657269616C2D656D69743F002D
S113290000B5FFF7C3FF294808210170043F3E606A
S11329100026264880220178114000D0F64300BDED
S1132920B029000000000B73657269616C2D6B6542
S1132930793F00B5FFF7AAFF1C4808210170043F46
S11329403E600026194820220178114000D0F64349
S113295000BD0000803F000038800440300400F0D7
S1132960348004400000000404800440000200009D
S1132970049004400890044003A0064002A00640CE
S113298006A0064005A006400AA0064000A0064096
S113299001A00640F82F0020F42F0020F02F002083
S11329A0EC2F0020E82F002007A0064004A00640DA
S11329B0D42900000000076365787065637400B56E
S11329C0386801B40130386000F00BF801BC0670BF
S11329D040CF00BD4C2A00000000066163636570AF
S11329E0740000B502CF01390022FFF730FF300038
S11329F040CF7F2809D0202819D2092816D00A28C8
S1132A001FD00D281DD00828EFD1002AEDD000F0EA
S1132A1015F903082008002AE7D0885C013A8023CE
S1132A200340E2D040230340F5D0DEE72020B24249
S1132A30DBD2043F3E600600FFF7FEFE01328854FD
S1132A40D3E7160000F0A8F800BDC046602A0000D5
S1132A50400003746962043F3E602B4E7047C046D9
S1132A60782A00008100033E696E043F3E60274ED1
S1132A70704700000000C046A02A000082000E63D8
S1132A80757272656E742D736F7572636500043FA1
S1132A903E601F4E7047000000009CF0FF1FC046C0
S1132AA0BC2A0000000009736574736F7572636556
S1132AB0174802CF0660416040CF7047DC2A00000F
S1132AC0000006736F7572636500043F3E60104E2C
S1132AD0043F7068386036687047C046142B0000A5
S1132AE000000571756572790FB508480021016011
S1132AF0FFF7B1FF043F3E60043F3E60C826FFF786
S1132B0070FFFFF7D5FF0FBD9CF0FF1FE42F0020DF
S1132B10DC2F0020642B0000000007636F6D7061E0
S1132B2072650FB5310040CF01CF884202D040CF4B
S1132B3000260FBD02CF002810D001380A5C335C98
S1132B40412A02D35B2A00D22032412B02D35B2BD1
S1132B5000D220339A42EED000260FBD0026F64361
S1132B600FBDC046782B000000000263720000B560
S1132B7000F064F8010A00BD8C2B00000000026222
S1132B806C00043F3E6020267047C046A02B000026
S1132B900000057370616365043F3E6020264BE6C8
S1132BA0C02B00000000067370616365730000B5FC
S1132BB0002E03DDFFF7F0FF013EFBD140CF00BD47
S1132BC0D02B00005000065B636861725D0005E075
S1132BD0E82B0000000004636861720000B501F096
S1132BE00FFC40CF367800BDF82B000050040128BC
S1132BF0043F3E60292606E0142C00005004015CCA
S1132C00043F3E60002600B501F004FC043740CFC9
S1132C1000BDC0465C2C00001000022E22009F481C
S1132C2000B5043F3E60060000F0DEF9043F3E605C
S1132C30222601F0EFFB00F02AFD00BD0AB4043F98
S1132C403E607646013E33780121013319405B181A
S1132C507146C9188E460ABC3CE0C046842C00006C
S1132C601000026322008E48DAE7043F3E60764695
S1132C70013E33780121013319405B187146C918AC
S1132C808E467047B02C0000100002732200854865
S1132C90C6E7043F3E607646043F3E60013E367818
S1132CA00121731C19405B187146C9188E46704780
S1132CB0C82C0000000005636F756E740136043F74
S1132CC03E60013E36787047F02C0000000005633A
S1132CD07479706501B53078002807D00136043F57
S1132CE03E603678FFF7A8FD0138F7D140CF01BD2B
S1132CF0202D00000000047479706500310040CF7D
S1132D00300040CF00B5002908D00022043F3E60C7
S1132D10865CFFF791FD01329142F7D100BDC046B8
S1132D205C2D00000000046865782E0007B53100B2
S1132D3040CF20200F220438043F3E600E00C640DE
S1132D401640092E01D9373600E03036FFF774FDFE
S1132D500028F0D1FFF720FF07BDC0466C2D00000E
S1132D60000003682E731FB54F4C0EE07C2D00004D
S1132D70000003752E731FB54C4C06E0FC2D0000BB
S1132D800000022E73001FB5494C4A49C91B89082B
S1132D90494A106803B40A201060FFF74FFF085334
S1132DA07461636B3A205B00043F3E600E0001F0E7
S1132DB00FFDFFF743FF025D200003BC3E4A106095
S1132DC000290AD03D4A106806B4043F3E6006005C
S1132DD0A04706BC043A0139F5D1FFF72FFF0620BE
S1132DE0544F533A2000043F3E603600A047FFF79B
S1132DF025FF04202A3E0A001FBDC046C02E000045
S1132E00000005776F72647300B5FFF717FF010ABE
S1132E1000F07DFEFFF712FF09416464726573736D
S1132E203A20043F3E60FFF781FFFFF707FF064C9F
S1132E30696E6B3A2000043F3E603668FFF776FF08
S1132E40FFF7FCFE07466C6167733A20043F3E605F
S1132E50B688FFF76BFFFFF7F1FE06436F64653A30
S1132E602000B01D00F08EFE043F3E600600FFF718
S1132E705DFFFFF7E3FE064E616D653A2000043FF7
S1132E803E600636FFF726FFFFF7D8FE010A00F082
S1132E9056FE300040CFBDD040CF00BD3C2C0000DA
S1132EA06A2C0000922C00002D2D0000BF4700006A
S1132EB0D147000064F2FF1FFC2F002060F2FF1FC7
S1132EC0DC2F000000001072656769737465726C12
S1132ED069746572616C2C003FB5350040CF2900E0
S1132EE0C90029432D029E480543FF2300223000D8
S1132EF0D040984301D00132F9E73000D040184067
S1132F002843043F3E60060000F081FB95480543DA
S1132F1018009040864310D000243000E0409843CD
S1132F2001D00134F9E7101B043F3E600E0080011C
S1132F30064300F06CFB2200DFE7002A06D0043FC2
S1132F403E600E009201164300F061FB40CF3FBD8E
S1132F501FB5310040CF844C0C43C9000C434901D8
S1132F60300040CF020EFF231A407D4B0B43134326
S1132F70043F3E601E0000F04AFB043F3E60260012
S1132F8000F045FB020CFF231A40784B0B4313431C
S1132F90043F3E601E0000F03AFB043F3E60260002
S1132FA000F035FB020AFF231A40704B0B43134316
S1132FB0043F3E601E0000F02AFB043F3E602600F2
S1132FC000F025FB0200FF231A40684B0B43134318
S1132FD0043F3E601E0000F01AFB1FBD4C30000091
S1132FE000000563616C6C2C0FB5330000F06EFEBD
S1132FF0300040CF1B1A043B5D49194000290ED014
S11330005C4A91420BD00136043F3E600026FFF734
S113301063FF043F3E60584E00F0F9FA0FBD40CF05
S11330205B085648564919400843DB0A554919407C
S1133030090408439B0A0121194089060843043FF7
S11330403E60060000F013FB0FBDC046A030000038
S11330500000086C69746572616C2C0008B5043F4B
S11330603E60494E00F0D3FA043F3E60474E00F004
S1133070CEFA474B3000184098420BD1F643043F38
S11330803E600626FFF728FF043F3E60414E00F0F5
S1133090BEFA08BD043F3E600626FFF71DFF08BDCB
S11330A0C83000000000066372656174650000B5F5
S11330B000F03DF830200002E7308047043F3E60D6
S11330C07646013E00BDC046203100002000056464
S11330D06F65733E30200002E7308047043F3E6056
S11330E07646013E7047043F3E607646013E2A4ADA
S11330F013682A4909680220084000D102310231CC
S113310011600136043F3E600026FFF721FF043FB3
S11331103E60194E00F07BFA136000F0ECF900BD3C
S1133120A43100000000073C6275696C647300B54B
S113313000F07AFB00F0CAFD0220064040CF04D123
S1133140043F3E60362600F062FA043F3E60144EAF
S113315000F05DFA043F3E60102600F0CBFA00BD9B
S113316000200000001000000002000000300000F9
S11331700100C0FF0000C0FF8047000000F800F01D
S1133180FF070000FF030000043F00003E60000052
S11331900000FFFFF643000000F0FF1F14F0FF1FC4
S11331A000B50000B03100005000035B275D03E070
S11331B0C83100000000012700B501F021F900F03A
S11331C020FD300040CF00BD083200001000087020
S11331D06F7374706F6E650000B5FFF7EDFF10211B
S11331E001400DD12021014005D0FFF737FF043FF6
S11331F03E60E64E04E0FFF731FF043F3E60E44EDC
S1133200FFF7F2FE00BDC04654320000000007691B
S11332106E6C696E652C00B5DE49DF4ADF4B308881
S1133220884208D0904208D0984206D0043F3E60BD
S1133230060000F0ECF90236F1E740CF00BD0EB411
S1133240D54AD64B01880230914201D09942F9D136
S11332500EBC7047683200000000047265742C00D4
S1133260043F3E60CC4ED2E1783200003000046569
S113327078697400F4E7C0469032000030000772A9
S1133280656375727365043F3E60C54E3668ABE690
S1133290A83200008100057374617465043F3E60C8
S11332A0C04E704700000000BC3200000000015D09
S11332B0BC480021C94301607047C046CC320000BD
S11332C01000015BB748002101607047F432000030
S11332D00008013A00B5B448076000F0A5FA043FBD
S11332E03E60AC4E00F093F9AE480021C943016042
S11332F000BDC046543300003010013B00B5AA485D
S11333000168B9420ED0FFF799FC1520537461632C
S11333106B206E6F742062616C616E6365642E0A4B
S113332001F060FB043F3E609B4E9E480068411CD8
S113333007D0062804D8043F3E609C4E00F00CF9E8
S1133340964E00F064F900F0D6F89648002101602A
S113335000BDC046683300000000076578656375EA
S11333607465300040CF874680330000101009692F
S11333706D6D656469617465043F3E601026EBE021
S113338098330000101006696E6C696E6500043F86
S11333903E602026E0E0C046B433000010100B630A
S11333A06F6D70696C656F6E6C79043F3E6030269A
S11333B0D2E0C046D033000010100A302D666F6C86
S11333C06461626C6500043F3E604026C4E0C04610
S11333D0EC33000010100A312D666F6C6461626C6E
S11333E06500043F3E604126B6E0C0460834000054
S11333F010100A322D666F6C6461626C6500043FC4
S11334003E604226A8E0C0462434000010100A336F
S11334102D666F6C6461626C6500043F3E604326F8
S11334209AE0C0464034000010100A342D666F6CD8
S11334306461626C6500043F3E6044268CE0C046D3
S11334405C34000010100A352D666F6C6461626C88
S11334506500043F3E6045267EE0C04678340000A7
S113346010100A362D666F6C6461626C6500043F4F
S11334703E60462670E0C0469434000010100A37BF
S11334802D666F6C6461626C6500043F3E60472684
S113349062E0C046C4340000000008636F6E7374B9
S11334A0616E740000B500F0BFF9FFF7D7FD043F6B
S11334B03E603A4E00F0ABF8FFF785FF00F01BF8D2
S11334C000BDC046E834000000000932636F6E732B
S11334D074616E7400B500F0A7F939683E600E4659
S11334E0FFF7BCFDE1E7C046483500000000067365
S11334F06D756467650000B52D4801682C4A9142DA
S11335001CD202390A882B4B9A4204D1043F3E60F4
S1133510294E00F07CF800F069F828480068043F60
S11335203E600600264909680431214A1368116087
S113353000F06DF81360FEF7B3FE00BD00F056F81E
S1133540043F3E60002608E0C43500000000087314
S11335506574666C6167730000B515480168144AA8
S1133560914205D2154801683143016040CF00BD46
S1133570320040CF12480068043001880D4B994254
S113358001D1110000E01143018000BD163200009A
S1133590E82F000000B5000000BD000070470000E7
S11335A014F0FF1FD82F002010F0FF1F2010000080
S11335B000F0FF1FFFFF00000000000020F0FF1FCD
S11335C004F0FF1FE0350000410007616C69676E7D
S11335D065640120304036180220304036187047A8
S11335E004360000000005616C69676E00B583480D
S11335F001680220014004D0043F3E60002600F030
S113360006F800BD48360000000002682C000FB523
S1133610B6B27B480168002902D0013100D00160B4
S113362076480168754A914205D2043F3E600E0017
S1133630FEF759FE02E0320040CF0A80043F3E60AC
S1133640022600F057F80FBD643600000000012C7C
S113365000B5043F3E60FFF7DAFF360CFFF7D7FFF3
S113366000BDC046803600000000033E3C2C00B57F
S1133670043F3E60360CFFF7CAFFFFF7C8FF00BDEA
S1133680E8360000000007737472696E672C07B592
S1133690FF21314040CF300040CF002905D1043F05
S11336A03E600026FFF7B3FF07BD043F3E60067887
S11336B036020E43FFF7ABFF0130013902290AD36A
S11336C0043F3E604678360202781643FFF79FFFB8
S11336D002300239F2E7002900D107BD043F3E6001
S11336E00678FFF794FF07BD44370000000005612A
S11336F06C6C6F7441480168404A91420FD23200A9
S113370040CF89183F4A914219D3FFF797FA0B46E5
S11337106C6173682066756C6C0A01F063F93200A1
S113372040CF8918384A1268914208D3FFF786FAC5
S11337300952616D2066756C6C0A01F053F90160E1
S11337407047C0466C37000000000D636F6D7069F0
S11337506C65746F72616D3F043F3E6000262748BC
S113376000682649884248D3F64370478C370000E6
S113377000000C636F6D70696C65746F72616D002D
S11337801E4800681D49884211D37047183800004C
S113379000000E636F6D70696C65746F666C6173A5
S11337A06800164800681549884200D270471748D7
S11337B0174902680B680A600360104815490268DB
S11337C00B680A60036010480068834215D300B593
S11337D0FFF734FA23205661726961626C657320C5
S11337E0636F6C6C696465207769746820646963CD
S11337F074696F6E6172790A00BD704700F0FF1F33
S1133800D82F00200000020024F0FF1F04F0FF1F47
S11338101CF0FF1F18F0FF1F0439000000000828E7
S1133820637265617465290000B500F0E9FD002E3E
S11338300ED1FFF703FA1520437265617465206E9B
S113384065656473206E616D6520210A01F0CAF814
S11338503868043F3E60043F386000F0A3F940CF6D
S1133860002E40CF11D03868043F3E60043F3860DA
S1133870FFF7E4F9095265646566696E6520FFF730
S11338803DFAFFF7DBF9022E0A00FFF7AFFE00F066
S11338901DFA8D4800688C4988421CD28B4800214F
S11338A00160043F3E600626FFF724FFFDF7F8FCA5
S11338B0FFF7EDFE864801680A68864B9A4207D1F5
S11338C0814A13681160043F3E60FFF7C1FE136034
S11338D0066040CF10E07E48043F3E600668FFF774
S11338E0B7FE043F3E607C4EFFF791FE78483100FE
S11338F040CF0160FFF7CBFE734801687748016051
S113390000BDC0461C390000000008766172696180
S1133910626C6500043F3E60012613E03439000008
S1133920000009327661726961626C65043F3E6031
S1133930022607E00C3A00000000096E7661726905
S113394061626C6500B5FFF76FFF5F4801685E4A0E
S1133950914233D20F200640B20061480168891AAF
S1133960604A91420BD2FFF769F90F4E6F742065DC
S11339706E6F7567682052414D0A01F033F801609B
S1133980043F3E600E00FFF769FB043F3E60564E65
S1133990FFF73DFE300040CF0200002805D00E6046
S11339A00431FFF755FE0138F9D1043F3E6080260B
S11339B01643FFF7D1FDFFF79EFD00BD00F086F929
S11339C00220064040CF04D1043F3E603626FFF774
S11339D01EFE043F3E60454EFFF749FE043F3E6035
S11339E0434EFFF744FE043F3E603F4EFFF70FFE99
S11339F0300040CF002803D0FFF72AFE0138FBD166
S1133A00FFF7E1FCFFF777FD00BDC046F83A000080
S1133A100000076275666665723A00B5FFF704FF39
S1133A2001203040361802203040361826480168FC
S1133A30254A914226D22A480168891B294A914283
S1133A400BD2FFF7FBF80F4E6F7420656E6F75672E
S1133A50682052414D0A00F0C5FF0160043F3E60FA
S1133A600E00FFF7FBFA043F3E601F4EFFF7CFFD49
S1133A70FFF7EEFD043F3E601E4EFFF76DFDFFF7BE
S1133A803AFD00BD00F022F90220064040CF04D1E7
S1133A90043F3E603626FFF7BAFD043F3E60134EF6
S1133AA0FFF7E5FD043F3E60114EFFF7E0FD043FE4
S1133AB03E600D4EFFF7ABFDFFF71CFEFFF783FCE6
S1133AC0FFF719FD00BD000000F0FF1F20F0FF1FED
S1133AD004F0FF1FFFFFFFFFFFFF000014F0FF1FB4
S1133AE024F0FF1F24F4FF1F704700003E60043FD2
S1133AF002367E4640010000283B000000000F64AF
S1133B00696374696F6E6172797374617274424827
S1133B1000684149043F3E60884201D23F4E7047ED
S1133B203F4E36687047C046643B000000000E6498
S1133B30696374696F6E6172796E6578740003B538
S1133B4031683848814207D08879FF2804D00E00B4
S1133B50043F3E60002603BD043F3E600026F6435A
S1133B6003BDC046983B000000000A736B69707384
S1133B707472696E67003178013101220A40891834
S1133B807618704706B40178013101220A40891879
S1133B90401806BC7047C0462C3C00000000046678
S1133BA0696E64003FB500220023350040CF340025
S1133BB040CFFFF7ACFF1C48B188884217D0043FC0
S1133BC03E600636FFF77AF8043F3E602600043F65
S1133BD03E602E00FEF7A5FF002E40CF07D0B01D9B
S1133BE0FFF7D0FF02000B000B48824204D2FFF71C
S1133BF0A6FF300040CFDED01600043F3E601E001A
S1133C003FBD00B531003868FFF7CCFF3A68002AA1
S1133C1001D100F053FE00BD00F0FF1F10040000AE
S1133C2004F0FF1FFFFFFFFFFFFF0000883C0000C0
S1133C30000006636A756D702C00320040CF3100BD
S1133C4040CF8B1B043BE549194000290DD0E448C3
S1133C5081420AD0FEF7F2FF0D4A756D7020746F31
S1133C606F206661720A00F0BDFE5B10FF210B40FD
S1133C70134330001E0000B5DA4A13681060FFF7E2
S1133C80C6FC136000BDC046C03C00000000056ACD
S1133C90756D702C310040CF300040CF0B1A043BBF
S1133CA0D1491940002902D0D04A9142D2D15B10A7
S1133CB0CF4A1340CF4A1343043F3E601E00DAE765
S1133CC0D83C00000000046865726500043F3E6053
S1133CD0C44E36687047C046003E000000000D66C2
S1133CE06C6173687661722D68657265043F3E602D
S1133CF0C14E3668704700B5043F3E60BF4EFFF7C3
S1133D0086FC043F3E60BE4EFFF781FC00BDDDE74C
S1133D1000B500F037F839683E600E46043F3E6057
S1133D20B84EFFF78AFF00BD00B500F02BF83968E4
S1133D303E600E46043F3E60B34EFFF77EFF00BD7B
S1133D4000B5FFF7D8FF00F01DF839683E600E4655
S1133D50043F3E60AD4EFFF770FF00BD00B500F0BC
S1133D6011F839683E600E46FFF794FF00BD00B5B8
S1133D70FFF7C1FFFFF7AAFF043F3E600226FFF7EB
S1133D80B9FC00BD00B5FFF7A1FF043F3E60022669
S1133D90FFF7B0FC00BD00B5FFF798FFFFF77AFF0F
S1133DA000BD00B5FFF792FF043F3E60974EFFF75A
S1133DB044FF00BD00B5FFF789FF043F3E60914E0C
S1133DC0FFF73BFF00BD00B5FCF790FCFCF7C8FB18
S1133DD0FCF7CBFBFCF7CEFB8168282901D1FCF76B
S1133DE0CDFCFCF7C1FC043F3E60894E09020E4342
S1133DF0FFF70DFCFCF779FBFCF7A6FB00BDC04602
S1133E00703E000030060269660000B5FFF7AFFFA0
S1133E10043F3E607D4E043F3E60022600BD00B577
S1133E20FCF7F9FCFDF78EFD816A002910D002B47D
S1133E30FCF78AFBFFF74AFF043F3E600226FFF7C8
S1133E4059FC043F3E6040BC043F3E60022600BD76
S1133E50FFF7B9FFFFF73AFF043F3E600226FFF782
S1133E6049FC043F3E60694E043F3E60022600BDAB
S1133E70A43E0000300004656C73650000B5022E9A
S1133E8026D140CFFFF77EFFFDF70AFAFFF71EFFAA
S1133E9039683E600E46FFF7D0FE043F3E600526BB
S1133EA000BDC046F03E00003000047468656E003A
S1133EB0052E01D140CF6EE7022E09D140CF00B5C7
S1133EC0FFF704FF39683E600E46FFF7B6FE00BDFB
S1133ED0FEF7B4FE175374727563747572657320BC
S1133EE0646F6E2774206D617463680A00F07AFD54
S1133EF0203F000030000672657065617400042E76
S1133F00E6D140CF00B5FDF7AEF9FFF727FFFFF785
S1133F10DDFE39683E600E46FFF78FFE00BDC046E9
S1133F204C3F00003006057768696C65012ECFD1DF
S1133F3040CF00B5FFF769FF023600BD012EC7D19F
S1133F4040CF00B5FFF76BFF023600BDAC3F000069
S1133F50300605756E74696C012EB9D140CFEFE659
S1133F607047012EB4D140CF00B5FDF7EBFC816A58
S1133F7000290DD002B4FCF7E7FAFFF703FF396814
S1133F803E600E46043F3E6040BCFFF756FE00BD57
S1133F90FFF719FFFFF7F6FE39683E600E46043F4F
S1133FA03E601A4EFFF749FE00BDC046C03F000008
S1133FB0300005616761696E012E89D140CFCDE67D
S1133FC014400000300005626567696E00B5FFF7B4
S1133FD09EFE043F3E60012600BD000001FFFFFF7E
S1133FE000FFFFFF00F0FF1F01F8FFFF00F8FFFFD5
S1133FF0FF07000000E0000024F0FF1F002E000077
S113400040CF000000D1000000D7000000D0000025
S1134010002800002C4000002002016B043F3E6099
S1134020029E7047043F3E608E4E0AE058400000F6
S11340302002016A043F3E60009E7047043F3E60D8
S1134040894E00B5FCF747FAFCF71EFB03601B0220
S11340501E43FFF7DCFA00BD844000002002016922
S1134060043F3E602600704700B5043F3E607F4E2B
S1134070FCF731FAFCF708FB03601E43FFF7C7FAAD
S113408000BDC046C44000003000056C6561766523
S113409000B5774801683B00043F1A68043B1A6086
S11340A008338B42F9D103B4FFF76CFE03BC330031
S11340B040CF04390B60016004390A6801320A6098
S11340C000BDC046D8400000200006756E6C6F6FBE
S11340D0700030BC7047C046104100003000052B12
S11340E06C6F6F70032E00D0F2E640CF00B5043F32
S11340F03E60604EFFF78FF8FFF716FE1AE080204F
S113410000060019A419401B801940CF7047C0460F
S1134110544100003000046C6F6F7000032E00D017
S1134120D6E640CF00B5043F3E60534EFFF773F828
S1134130FFF7EEFD00F04AF94D48310040CF016031
S1134140043F3E604D4EFFF766F800BD0134AC42BB
S11341507047C0469C410000300202646F0000B505
S1134160043F3E60464EFFF756F841480168043F5D
S11341703E600E00043F3E6000260760FFF7C7FD67
S1134180043F3E60032600BD00B500F02EF8ECE7C6
S113419030B4340040CF350040CF70479442000023
S11341A03002033F646F00B5043F3E60344EFFF7B6
S11341B032F8043F3E60334EFFF729FA2C48016879
S11341C0043F3E600E00FFF7DDFD0136043F3E6014
S11341D0012627480760FFF79AFD043F3E60032647
S11341E000BD00B500F001F8E3E700B5FCF713FBF0
S11341F0FCF786FAFCF7B4F9FCF7B7F9FCF7BAF95F
S1134200043F3E60204EFFF702FA0168282907D0D8
S1134210043F3E601D4EC9000E43FFF7F8F907E066
S1134220043F3E604668043F3E600426FEF754FEA9
S11342308168282907D0043F3E60154EC9000E430B
S1134240FFF7E5F907E0043F3E60C668043F3E60BF
S11342500526FEF741FEFCF748F9FCF746F9FCF7A2
S113426093F900BD029800000098000020000000AF
S11342700CF0FF1FFE4000004C410000D240000043
S113428090410000AC42000030B400000400000083
S113429005000000B442000030000463617365004F
S11342A000B5FCF7B8FA043F3E600026043F3E60C8
S11342B0082600BDCC4200003000033F6F6668480A
S11342C00AE0013EB64140CF7047C0466C4300004F
S11342D03002026F66006348082E00D0F8E540CF34
S11342E000B5043F3E600600FEF795FFFFF74AFD68
S11342F039683E600E460136043F3E600926043F9D
S11343003E60594EFFF783F900BD082E00D0DFE56B
S113431040CF00B5FCF7F4F9FCF722F9FCF725F9D6
S1134320FCF728F9043F3E60504EFCF727FA0E4391
S11343300268282A0DD14268FF2A07D840CF043FDB
S11343403E604B4E164309020E4304E0FCF70CFAA0
S11343500A00D2001643FFF75AF9FCF7C6F8FCF737
S113436013F9C3E7300040CFB0427047A4430000C4
S1134370300005656E646F66092E00D0A8E540CF55
S113438000B540B440CFFFF7FDFC39683E600E46EF
S1134390FFF710FD043F3E6040BC043F3E6008262A
S11343A000BDC046F4430000300007656E646361DD
S11343B07365082E00D08BE540CF00B5043F3E6006
S11343C0294EFFF724F900F001F800BD00B53000D4
S11343D040CF00280DD003B401213140002903D07F
S11343E0013EFFF7DEFC01E0FFF7D5FC03BC01381A
S11343F0EFE700BD08440000000005746F6B656EB4
S1134400043F3E60202605E078440000000005706B
S11344106172736510B5FEF758FB310040CF300070
S113442040CF144A12688418202E07D191420FD02D
S1134430835CB34202D101328418F7E7914207D07A
S1134440835C0132B342F9D18618361B013E01E088
S11344508618361B043F3C600648026010BD00000D
S1134460C24200006443000040CF000080420000CC
S113447000280000E42F0020B84400000000056478
S113448069676974D44B1B68303E0BD30A2E0BD377
S1134490073E0A2E06D3242E06D3203E0A2E01D32D
S11344A0242E01D3002670479E42FBD2043F3E6077
S11344B00026F6437047C046C44500000000066E5F
S11344C0756D626572003FB5310040CF701E0126E4
S11344D0012204B4C04B1B680024002500293CD0F1
S11344E00130013902782D2A04D101B00022D243CF
S11344F004B4F3E7232A01D10A23EFE7242A01D1E4
S11345001023EBE7252A01D10223E7E72E2A01D164
S11345100226E3E72C2A36D0043F3E601600FFF75C
S1134520B3FF002E40CF2BD0043F3E602600043F53
S11345303E602E00043F3E601E00043F3E600026A5
S11345400FB4FCF772FB0FBC350040CF340040CFF2
S11345500022A419554140CFC0E704BC002A04D569
S11345600022E443ED430134554133002600012B7E
S113457002D0043F3E602E00043F3E601E003FBD5B
S113458001B000263FBD2500002402260029E4D006
S1134590425C01392E2AF9D0043F3E601600FFF731
S11345A073FF002E40CFEBD0043F3C60043F3E60DD
S11345B01E000FB4FCF7EDFB0FBC340040CF40CF1E
S11345C0E4E7C046E84500000000062E6469676918
S11345D074000A2E01D230367047242E01D23736A9
S11345E0704723267047C046204600000000046838
S11345F06F6C6400330040CF784801783F290DD2B6
S1134600013101704018012907D0013802780130C6
S11346100270013801390129F7D103707047C0468F
S113462040460000000005686F6C643C330040CFD6
S11346306A4801783F2902D201310170435470471E
S1134640584600000000047369676E00002E01D410
S113465040CF70472D26CDE76C46000000000223B2
S11346603E005E480678013038607047844600009A
S113467000000366235310B5202400F008F8013C21
S1134680FBD110BDA846000000000266230000B55F
S1134690043F3E60504E3668FCF799FAFFF799FFE5
S11346A0FFF7C4FF00BDC046C4460000000002235B
S11346B0530000B500F00AF8002EFBD1386800283A
S11346C0F8D100BDF04600000000012300B5043F0E
S11346D03E60414E3668043F3E600026FCF779FB9D
S11346E0FCF7D4F840CFFFF774FFFFF783FF00BD5A
S11346F0044700000000023C2300384800210170F8
S11347007047C04618470000000002662E00043FB0
S11347103E60202605E0C0466847000000000366AE
S11347202E6E00B510B4340040CFFCF789FDFCF7C1
S1134730CDF9043F3E600026FFF7DFFFFFF7B9FF26
S113474040CF2C26FFF772FF002C03D0FFF79FFF0A
S1134750013CFBD110BC40CFFFF778FF043F3E6023
S1134760043F3E601EE0C046804700000000037521
S1134770642E00B5FFF7C1FFFFF79BFF12E0C046B0
S1134780B4470000000002642E0000B5FCF758FD99
S1134790FCF79CF9FFF7B1FFFFF78BFFFCF763FD14
S11347A0FFF754FFFFF75DFFFEF7A8FAFEF7F4F9F1
S11347B000BDC046C8470000000002752E00043F3B
S11347C03E600026D5E7C046E04700000000012E09
S11347D0043F3E60F617D8E7FC2F00205CF0FF1F73
S11347E0284800000000086576616C7561746500F6
S11347F000B5FEF76AF901CF01B440B440CF8A484E
S1134800016802B400210160FEF752F900F014F8C7
S1134810854802BC0160043F3E6040BC01BC043FCB
S11348203860FEF745F900BDBC4900000000096985
S11348306E7465727072657430B57C4887420BD9AA
S1134840FEF7FCF910537461636B20756E64657236
S1134850666C6F770A00C5E0754887420AD2FEF796
S1134860EDF90F537461636B206F766572666C6F3C
S1134870770AB7E06F4C2568002D01D13D00256013
S1134880FFF7BEFD002E02D1043740CF30BD38689B
S1134890043F3E60043F3860FFF784F9310040CFA5
S11348A0320040CF002A15D138683100FDF708F8EE
S11348B0FFF709FE320040CF002ABED1FEF722FAEC
S11348C0FEF7BCF90C206E6F7420666F756E642E53
S11348D00A0087E0584B1B68002B29D1002525606E
S11348E0564B0B4009D0043740CF55480760FEF7BC
S11348F09BFF5148012101609FE730230B40302B7F
S11349000ED1FEF7FBF9FEF799F9122069732063C3
S11349106F6D70696C652D6F6E6C792E0A0061E0A5
S1134920043740CF043F3E601600FEF71AFD84E7CB
S1134930043740CF4348084001D1FCF7C1FF802031
S1134940084008D1EB1B9B084020084009D00F20E9
S11349500840834205D3043F3E601600FEF701FD84
S11349606BE7394808400CD0FBF765FD1000FEF7F3
S113497066FC421C3548904738002060FBF76AFD0E
S11349805BE7FBF758FDFBF7DFFD002525603048AA
S1134990084001D1FBF73FFF043F3E6016001022A0
S11349A00A4002D0FEF7DDFC47E720220A4002D08D
S11349B0FEF731FC41E7FEF717FB3EE7D84900005C
S11349C0810009686F6F6B2D71756974043F3E60D7
S11349D0204E7047144A0000684A00000000047129
S11349E0756974001C488546104FFDF751FC1B483F
S11349F00A2101601048002101600E480160FBF7A4
S1134A00E8FD0948016016480160164941601148F3
S1134A1000688746FEF768F8FFF70EFFFEF70EF909
S1134A2005206F6B2E0AF5E7E42F002064F2FF1FC8
S1134A3064F1FF1F08F0FF1FD82F002000080000BA
S1134A4010F0FF1F000400000002000028F0FF1F08
S1134A5000100000D42F002064F3FF1FFC2F00205F
S1134A60DC2F00209CF0FF1F844A00000000056535
S1134A70696E743F043F3E60EFF31086013EB64119
S1134A807047C046944A000020000465696E7400B3
S1134A9062B67047A44A000020000464696E740082
S1134AA072B67047BC4A000020000469707372003B
S1134AB0043F3E60EFF305867047C046C84A0000D5
S1134AC00000036E6F7070470C4B00000000097506
S1134AD06E68616E646C656400B5FEF7AFF81455DA
S1134AE06E68616E646C656420496E74657272757B
S1134AF070742000043F3E60EFF30586FEF716F95C
S1134B00FEF79CF802210A0000BDC046204B0000BD
S1134B10000005726573657499489A490160C0463E
S1134B20444B000081000B6972712D7379737469B1
S1134B30636B043F3E60944E7047D84A000092482D
S1134B4000688746684B00008100096972712D6610
S1134B5061756C74043F3E608C4E7047D84A000007
S1134B608A4800688746C046904B000081000E6961
S1134B7072712D636F6C6C656374696F6E00043FB2
S1134B803E60834E7047D84A0000814800688746DB
S1134B90B04B00008100076972712D616463043FAA
S1134BA03E607C4E7047D84A00007A4800688746C9
S1134BB0D04B00008100076972712D636D70043F52
S1134BC03E60754E7047D84A0000734800688746B7
S1134BD0F04B00008100076972712D646163043F2A
S1134BE03E606E4E7047D84A00006C4800688746A5
S1134BF0144C00008100096972712D706F72746128
S1134C00043F3E60664E7047D84A0000644800681E
S1134C108746C046384C00008100096972712D70C6
S1134C206F727464043F3E605E4E7047D84A000061
S1134C305C4800688746C04600500000FFFF182DFE
S1134C402D2D20466C6173682044696374696F6E0E
S1134C50617279202D2D2D00002153480160FDF74C
S1134C6077FD52488546524F2A26524852490160E0
S1134C70524853490160043F3E60514E514DB18842
S1134C80514B994224D0514B0B400AD0B01DFEF732
S1134C9079FFFEF7D4FA0388408800040343ED1A31
S1134CA016E080230B4013D00F23194089006D1A9E
S1134CB0B01DFEF767FFFEF7C2FA043F3E60060030
S1134CC0043F3E602E00043F3E600E00FCF7C6FE2B
S1134CD0FEF735FF300040CFD1D03D48066040CFCD
S1134CE03C4805603C483D49374A884204D0023874
S1134CF003889342F9D0023039490860FDF7C8FAB5
S1134D00FDF79CFF514D6563726973702D53746593
S1134D106C6C6172697320524120312E30206578A9
S1134D20706572696D656E74616C20776974682052
S1134D304D3020636F726520666F72204B4C3235A4
S1134D405A313238206279204D6174746869617314
S1134D50204B6F63680A234800210160043F3E60D2
S1134D60214E043F3E600426FEF71CFF40CF002E78
S1134D7002D0FEF7F6FA4AE640CF33E6696E69746C
S1134D800CED00E00400FA05D02F0020CC2F002009
S1134D90C82F0020C42F0020C02F0020BC2F0020CB
S1134DA0B82F0020B42F00200081044064F3FF1FBB
S1134DB064F2FF1F00F0FF1F24F4FF1F04F0FF1F25
S1134DC01004000000300020FFFF0000000100007C
S1134DD01CF0FF1F24F0FF1F000002000050000021
S10F4DE018F0FF1F08F0FF1F7C4D0000BE
S9030000FC
