S02200006D6563726973702D7374656C6C617269732D6B6C32357A3132382E737265638F
S11300005CF3FF1F354A00003D4900003D490000F4
S113001000000000000000000000000000000000DC
S1130020000000000000000000000000674900001C
S11300300000000000000000674900001B490000A8
S113004067490000674900006749000067490000EC
S113005067490000674900006749000067490000DC
S113006067490000674900006749000067490000CC
S1130070674900006749000067490000874900009C
S1130080A74900006749000067490000674900006C
S1130090674900006749000067490000674900009C
S11300A067490000C749000067490000674900002C
S11300B06749000067490000E94900000D4A000053
S11300C0FFFFFFFFFFFFFFFFFFFFFFFFFFFFFFFF3C
S11300D0FFFFFFFFFFFFFFFFFFFFFFFFFFFFFFFF2C
S11300E0FFFFFFFFFFFFFFFFFFFFFFFFFFFFFFFF1C
S11300F0FFFFFFFFFFFFFFFFFFFFFFFFFFFFFFFF0C
S113041084080000FFFF1E2D2D2D204D6563726999
S113042073702D5374656C6C6172697320436F72C1
S113043065202D2D2D0007B59B48002B09D000F019
S11304402EF800F034F800F01EF842612821016112
S1130450F3E707BD07B594480169282905D1426926
S113046000F004F800F038F8F6E707BD03B5043FE0
S11304703E601600043F3E601E0008B400F004FF16
S113048008BC013303BD03B5013B043F3E601E00BD
S113049008B400F0E3FE08BC320040CF03BD03B54E
S11304A0824801681E2901D000F024F803BD816947
S11304B0016201698161C16941624169C1611E21B1
S11304C0016170470FB5784801691E2903D0FFF711
S11304D0E6FFFFF7ECFF0FBD02B581690161C16959
S11304E0416100E002B5016A8161416AC1611E2176
S11304F0016202BD08B501681E22026008290BD200
S1130500043F3E606A4E02F08EFF043F3E60694E37
S11305100E4302F088FF08BD28290DD1043F3E6038
S1130520634E02F080FF436800F061F8043F3E60D0
S1130530604E1E4302F077FF08BD00B500F005F8D9
S113054000F008F800F00BF800BD0FB55748FFF7AE
S1130550D1FF0FBD0FB55848FFF7CCFF0FBD0FB546
S113056051480169062202611E2905D1043F3E60FB
S1130570524E02F058FF2CE0282921D1436901682A
S11305801E2908D041688B4205D1043F3E604C4E81
S113059002F049FF1DE081681E2908D0C1688B4222
S11305A005D1043F3E60474E02F03DFF11E0043F99
S11305B03E601E00043F3E60062602F0A7FB08E0F2
S11305C0062906D0043F3E603D4EC9000E4302F0AA
S11305D02AFF00F001F80FBD33481E21016081603D
S11305E0016281610621016100218162704707B5C2
S11305F000F017F84360282101600023043F3E60A7
S11306001E0002F083FB07BD07B500F00AF8C360C3
S1130610282181600123043F3E601E0002F076FB26
S113062007BD214801681E2904D04168994201D1BF
S1130630002307BD81681E2904D0C168994201D1F5
S1130640012307BD043F3E601E00704706B51B181A
S11306501968282926D15A6801681E2906D04168DC
S1130660914203D1043F3E60174E08E081681E2981
S11306700CD0C168914209D1043F3E60134E00F092
S113068027F813601E4302F0CEFE06BD043F3E6011
S11306901600190000F01CF80B60043F3E601E00B9
S11306A002F034FB06BD000028F0FF1F48F0FF1FD6
S11306B0043F00003860000040F0FF1F40CF0000FE
S11306C0064600000E4600000046000008460000F2
S11306D007B5214801698269036A062905D0062AFB
S11306E003D0062B01D0062307BD032905D0032A16
S11306F003D0032B01D0032307BD022307BD00B59C
S1130700FFF7E6FF036001219940043F3E60134E6A
S11307100E4302F088FE00BD0FB50F4801691E2983
S113072002D10F48FFF7EBFF0FBD0FB50A488169EF
S11307301E2904D1FFF7F0FF0A48FFF7E0FF0FBDC1
S11307400FB50548016A1E2904D1FFF7EEFF0648DC
S1130750FFF7D5FF0FBD000028F0FF1F00CF0000FA
S113076038F0FF1F40F0FF1F48F0FF1F00B501697C
S1130770282903D14369FFF73AFF190000BD00B5EA
S11307808169282903D1C369FFF731FF190000BD2E
S11307900EB58269036A9A420AD1072A08D8043F2F
S11307A03E60D600FFF794FF1E43836102F03BFED8
S11307B00EBD0EB501698269036A914202D0994265
S11307C000D00EBD043F3E60CE00FFF781FF1E4304
S11307D0036102F028FE0EBD00B5FFF77DFEFFF7B2
S11307E071FEFFF775FF036100BD0FB5100002F045
S11307F040FC0200043F3E601688090B2048032990
S113080006D004291ED040CF013290470FBD0FB54A
S1130810FFF78BFF0169062901D100F023FC8269EF
S1130820282A01D100F01EFCFFF7B2FFFFF79EFF5C
S1130830C90082690E43164302F0F5FDFFF74CFE32
S11308400FBD0FB5FFF771FFFFF7A2FFFFF78EFF94
S11308508269282A0BD1043F3E60C669FFF738FF3E
S11308608361043F3E601E001A0002F04FFAC90083
S11308700E43164302F0D7FDFFF72EFE0FBD000016
S113088028F0FF1FA80800004202043264757000BB
S11308903868043F3E60043F3860704700B500F09C
S11308A00DFC00F00BFC00BDC8080000620205321C
S11308B064726F70043740CF704700B500F0AEFB30
S11308C000F0ACFB00BDC046E8080000440005325F
S11308D07377617007CF043F3860043F3E60043F84
S11308E03A600E007047C046FC0800006200043203
S11308F06E69700007CF043F386070471809000024
S1130900440005326F766572B868043F3E60043F68
S11309103860FE687047C0463C0900004400053258
S11309207475636B07CF043F3860043F3E60043F37
S11309303A60043F3960043F386070476009000042
S113094046000432726F74003868B9683A69B86056
S113095039613A6079687E60FE68F9607047C04624
S113096084090000460005322D726F743868B96836
S11309703A6938613960BA60F968FE607E68796006
S11309807047C046A8090000200203323E7201CF1E
S113099001B440B440CF704700B500F063FB00F0F1
S11309A007FC00F005FC00BDD00900002002033262
S11309B0723E043F3E6040BC01BC043F3860704757
S11309C000B500F00EFC00F00CFC00F04BFB00BD89
S11309D0FC090000200203327240043F3E60019E85
S11309E0043F3E60009E704700B5043F3E600B4EDE
S11309F003F035FA03F030FA00BDC046240A0000C3
S1130A00200206327264726F700002B0704700B543
S1130A10043F3E60024E02F006FD00BD0198000056
S1130A2002B000003C0A000042000364322F386820
S1130A30F10776104008084338607047500A0000F8
S1130A4062000364322A38680018764138607047BF
S1130A506C0A000042000464736872003868F1078D
S1130A6076084008084338607047C046840A00008E
S1130A706200046473686C0038680018764138605A
S1130A807047C046980A0000420004646162730023
S1130A90002E08D47047C046B80A0000420007641C
S1130AA06E656761746538680021C043F6430130A0
S1130AB04E4138607047C046D00A000064000264AA
S1130AC02D0007CF121AB1410E00043F3A6070475F
S1130AD0E80A0000640002642B0007CF12184E419C
S1130AE0043F3A607047C046080B0000610203737C
S1130AF03E64043F3E60F617704700B500F07CFA90
S1130B0000F0BFFC00BDC046340B0000420003757A
S1130B106D2A3868030073433B60010C320C0B00F0
S1130B205343B6B280B24E4350433618360CF618CF
S1130B307047C046640B00004200026D2A0038680A
S1130B40C11705D040423860F01704D07642E0E780
S1130B50F017DED0764200B5FFF7DBFFFFF7A3FF07
S1130B6000BDC046A40B000044000375642A07CFEF
S1130B70564341437618010C130C59437618010C63
S1130B8080B292B25143434350430022C9185241A8
S1130B901204B6180A04090C80184E41043F386048
S1130BA07047C046380C000044000475646D2A0088
S1130BB010B50024043F3E607E68043F3E603E69F9
S1130BC0FFF7A7FF310040CF300040CF043F3E6025
S1130BD03E68043F3E60FE6803B4FFF79AFF03BC1F
S1130BE0330040CF320040CF043F3E603E68043FB4
S1130BF03E603E690FB4FFF78CFF0FBC921963414E
S1130C0040CF89196241634140CF043F3E607E6812
S1130C10043F3E60FE680FB4FFF77BFF0FBC9219E0
S1130C20634140CF89196241634140CF1E003A605D
S1130C307960B86010BDC0465C0C00004300022A15
S1130C402F0000B540B440CFFFF779FF043F3E606A
S1130C5040BC00F04FF8043700BDC046800C0000D3
S1130C604300052A2F6D6F6400B540B440CFFFF7F1
S1130C7066FF043F3E6040BC00F03CF800BDC04647
S1130C80A40C0000430003752A2F00B540B440CFE4
S1130C90FFF73FFF043F3E6040BC00F01CF8043700
S1130CA000BDC046C80C0000430006752A2F6D6FB6
S1130CB0640000B540B440CFFFF72BFF043F3E6013
S1130CC040BC00F008F800BDE80C000043000675C5
S1130CD06D2F6D6F640000B5043F3E60002600F088
S1130CE01AF840CF043700BD080D00004300056D1D
S1130CF02F6D6F6400B5043F3E60F61700F034F8C2
S1130D0040CF043700BDC0465C0D000044000675AA
S1130D10642F6D6F640030B4002300227968B868D2
S1130D2035003C6840264000494152415B41AB429A
S1130D3002D804D3A24202D3121BAB410130013EBC
S1130D40F1D10E0038607B60BA6030BC704730B4BB
S1130D5000237A68B9680020E2E7C046D40D000099
S1130D60440005642F6D6F6400B5F01719D0FFF7C8
S1130D709AFEFFF7AFFDF0170CD0FFF794FEFFF7D4
S1130D80A9FDFFF7C8FFFFF7A5FDFFF78CFEFFF7EE
S1130D90A1FD00BDFFF79EFDFFF7BDFFFFF783FE3A
S1130DA000BDFFF797FDF0170ED0FFF77CFEFFF7AD
S1130DB091FDFFF7B0FFFFF776FEFFF78BFDFFF71E
S1130DC072FEFFF787FD00BDFFF784FDFFF7A3FF69
S1130DD000BDC046EC0D0000440002642F0000B5C5
S1130DE0FFF7C2FFFFF786FD00BDC046340E0000CA
S1130DF0440002662A0000B5F0170DD0FFF753FE39
S1130E00FFF768FDF0170DD0FFF74DFEFFF7D0FE9A
S1130E1040CF01CF386000BDFFF75CFDF017F5D07F
S1130E20FFF741FEFFF7C4FE40CF01CF3860FFF764
S1130E303AFE00BD800E0000440002662F0000B59B
S1130E40F0170ED0FFF72FFEFFF744FDF0170ED07A
S1130E50FFF729FEFFF73EFDFFF779FFFFF74AFD95
S1130E6000BDFFF737FDF017F4D0FFF71CFEFFF7C6
S1130E7031FDFFF76CFFFFF716FEFFF73BFD00BDEA
S1130E80940E000020000232210006CF316072600F
S1130E9040CF7047A80E0000200002324000043FFB
S1130EA07068386036687047C80E000044000364F8
S1130EB0753C07CF8E4204D801D1904201D8002658
S1130EC070470026F6437047E80E000044000364B0
S1130ED0753E07CFB14204D801D1824201D8002621
S1130EE070470026F6437047080F00004400026470
S1130EF03C0007CF8E4204DC01D1904201DC002685
S1130F0070470026F6437047280F0000440002642F
S1130F103E0007CFB14204DC01D1824201DC00264D
S1130F2070470026F6437047440F000062020364D2
S1130F30303C0437F617704700B500F0A6F800F00F
S1130F40A0FA00BD6C0F000062020364303D01CFC3
S1130F500643013EB641704700B5043F3E60D14EA2
S1130F60FFF755FC00F068FA00BDC046880F00008A
S1130F70440003643C3E07CF50404E400643013ECC
S1130F80B641F6437047C046A00F00004400026417
S1130F903D0007CF50404E400643013EB6417047E6
S1130FA0B40F0000200003737040043F3E603E0015
S1130FB07047C046C40F000020000373702137003F
S1130FC040CF7047D80F0000200003727040043FE8
S1130FD03E606E467047C046E80F00002000037272
S1130FE07021B54640CF70470C10000061020364C5
S1130FF07570043F3E60704706B5FFF78DFB0169CD
S11310004269FFF75FFA0161426106BD38100000D2
S113101061020464726F700040CF704700B50169CB
S11310201E2905D1043F3E609F4E02F0FCF900BD2D
S1131030FFF752FA00BDC046501000006100043FA3
S113104064757000002E01D0043F3E607047C046B6
S11310507C100000620204737761700039683E609E
S11310600E0070470CB5FFF760FB026983690361EA
S113107082614269C3694361C2610CBDA81000006A
S11310806202036E69700437704700B5FFF744FBD2
S113109081691E2902D0FFF725FA00BD043F3E6096
S11310A0814E02F0C0F900BDD01000006202046F4E
S11310B076657200043F3E607E68704700B5FFF7B6
S11310C034FB8169C269FFF7FDF90161426100BD2A
S11310D0FC1000006202047475636B0001CF083FCA
S11310E07E603860704700B5FFF71FFBFFF7D7F944
S11310F0016901624169416200BDC04634110000CA
S1131100630203726F7403CF083F78603E600E0081
S113111070470EB5FFF714FB01698269036A8161A8
S1131120026203614169C269436AC1614262436107
S11311300EBDC046581100006302042D726F740086
S113114003CF083F7E6039600600704700B5FFF7A3
S1131150E0FFFFF7DEFF00BD6C110000200004700B
S113116069636B00B0003E587047C04684110000AC
S113117000000564657074684C49C91B043F3E60F7
S11311808E087047A0110000000006726465707438
S11311906800043F3E606E464549891B8E087047CF
S11311A0D01100002002023E720040B440CF7047CC
S11311B000B5FFF7B1FAFFF7D9FA043F3E603D4EA0
S11311C001228A40164302F02EF9FFF785F900BD8B
S11311D000120000200202723E00043F3E6040BC48
S11311E0704700B5FFF76EF9FFF772FA0361043F29
S11311F03E60314E01229A40164302F014F900BDBC
S11312001C120000200202724000043F3E60009E57
S1131210704700B502F020FE00BDC0463C1200003D
S11312202002057264726F7001B0704700B5043F0C
S11312303E60224E02F0F7F800BDC0465012000096
S1131240200005727069636BB6006E44366870479F
S11312507C120000000004726F6C6C00002E01D13F
S113126040CF7047B0003958C019031F1A68026094
S11312700438013EF9D104370E007047C012000053
S11312800000052D726F6C6C002E01D140CF7047A9
S1131290386839464A680A600431013EFAD1086068
S11312A040CF704700430000043700005CF2FF1F8A
S11312B05CF3FF1F00B4000000BC000001B000009C
S11312C0D4120000203203616E6401CF06407047DF
S11312D00040C046E812000020420362696301CF67
S11312E0B043060070478043FC1200002032026FB6
S11312F0720001CF064370470043C046101300003C
S1131300203203786F7201CF464070474040C04698
S113131030130000410003636C7A300006D00026CD
S1131320400002D001D20136FAE770472026704708
S113133040130000610003726F720120C6417047C0
S113134054130000610003726F6C0020B61946410B
S11313507047C046881300006202076172736869AF
S1131360667401CF30410600704700B5043F3E600B
S1131370A84E043F3E60A84EFFF7D7F941691F29E4
S113138028D91F21416125E0B013000062020672D2
S113139073686966740001CFF0400600704700B5B9
S11313A0043F3E609D4E043F3E609D4E12E0C046A9
S11313B0281400006202066C73686966740001CF29
S11313C0B0400600704700B5043F3E60954E043FB0
S11313D03E600026FFF7A9F90169282903D040CF10
S11313E0FFF72FFA00BD04374169FFF775F80029AC
S11313F001D140CF00BD1F290AD889010E430269DB
S1131400D2001643FFF7E8F91E4302F00CF800BDC2
S113141040CFFFF7E1F9043F3E60834E1B021E43B9
S113142002F001F800BDC0464C1400006102023015
S11314303D00013EB641704700B500F00FF900F0E1
S113144010FFFFF749F87949816200BD7414000068
S1131450610203303C3E013EB641F643704700B59D
S113146000F0FCF800F0FDFEFFF736F870498162E9
S113147000BDC04698140000610202303C00F6171B
S1131480704700B500F0EAF8043F3E60694E00F092
S1131490EBFE6949816200BDB01400006000047471
S11314A072756500043F3E600026F6437047C046EF
S11314B0C414000060000566616C7365043F3E60FF
S11314C000267047E81400004202023E3D0001CFAE
S11314D0B042E9DA00267047043F3E60574E043FAD
S11314E03E60574EC4E0C0460C1500004202023C68
S11314F03D0001CFB042D7DD00267047043F3E6077
S1131500504E043F3E60504EB2E0C0462C150000E1
S11315104202013C01CFB042C6DB00267047043FC3
S11315203E60474E043F3E60444EA1E04C1500002F
S11315304202013E01CFB042B6DC00267047043FB0
S11315403E60414E043F3E603E4E91E07015000007
S1131550620203753E3D01CF861BB641F6437047D8
S1131560043F3E60324E043F3E60304E80E0C04651
S113157094150000620203753C3D01CF361AB64152
S1131580F6437047043F3E60304E043F3E60304EA9
S11315906EE0C046B4150000620202753C0001CF43
S11315A0861BB6417047043F3E60204E043F3E60B8
S11315B01F4E5DE0D4150000620202753E0001CFAB
S11315C0361AB6417047043F3E60214E043F3E60E8
S11315D01E4E4DE0F41500006202023C3E0001CFB5
S11315E0811B361A0E437047043F3E60194E043F78
S11315F03E603DE0601700006202013D01CF361AF3
S1131600013EB6417047043F3E60134E043F3E60C6
S11316102EE000000041000000100000C040000067
S113162000080000804000000020000000D20000FC
S113163000D30000C017000000D5000000DB00004C
S113164000DA000000DC000000DD000000D800002B
S113165000D9000000D0000000D1000000B5FFF761
S11316605BF82023FEF7F2FF1823FEF7EFFF00BD1F
S113167000B5FFF75AF82023FEF7E8FF8269282A0D
S113168004D1FFF7EFFC39683E600E4640CF016994
S1131690282909D14169FF2906D8043F3E60644ED8
S11316A00E438169090206E0FFF760F8043F3E60DB
S11316B0604EC90016430E4301F0B5FEFEF70CFF61
S11316C0FEF70AFF866240CF00BD0FB55A48816A13
S11316D0002930D0043F3E60866A00218162310ACD
S11316E0D52901D140CF0FBDFEF7ECFEFEF7F0FF88
S11316F00361D22903D1514E00F0FEFD0FBDD32961
S113170005D14E4E00F0F8FD00F009FE0FBD023683
S113171001F089FE043F3E60494E00F00DF800F0F0
S1131720FEFD043F3E60474E01F07DFE043F3E60F7
S1131730434E00F001F80FBD00B5FEF7EDFFFFF7D3
S113174038F8016909020E4301F06DFE00BD00B5D1
S1131750816A090AD52901D1FEF7BEFE00BDC04643
S11317607C1700006202036D696E01CFB04200DC99
S113177006007047043F3E60334E2BE0981700008C
S11317806202036D617801CFB04200DB060070474E
S1131790043F3E602D4E1DE0B81700006202047540
S11317A06D61780001CFB04200D306007047043F5A
S11317B03E60274E0EE0C0465C18000062020475CD
S11317C06D696E0001CFB04200D806007047043F37
S11317D03E60204E00B5FEF7A8FF01698269914280
S11317E003D140CFFEF77EFE00BD062A01D1FFF7EC
S11317F039FC0169282901D1FFF734FCFEF7D9FF30
S1131800FEF7BDFFC9000269043F3E60094E0E4366
S1131810164301F008FE01F006FE043F3E600E4E42
S11318200E43164301F0FFFDFEF75CFE00BD000011
S1131830002800008042000028F0FF1F80410000C3
S11318400020000000E0000000DB000000DC0000DD
S113185000D8000000D30000004600009C180000DF
S11318600000046D6F76650007B5310040CF32008B
S113187040CF00290FD0B2420DD006D3013E013A29
S1131880705C50540139FBD105E03078107001369A
S113189001320139F9D140CF07BDC046C01800005C
S11318A000000466696C6C00300040CF310040CF0A
S11318B0002902D001397054FCD140CF7047C04692
S11318C000190000200201403668704700B5FEF799
S11318D023FF043F3E60974E0369282B08D14369D8
S11318E07C21194009010E437C218B43FEF78CFEB9
S11318F0DB001E43FEF770FF1E4301F094FD00BDA4
S1131900541900002002012103CF30600E007047FB
S113191000B5FEF70AFF043F3E60874E0369282B9B
S113192008D143697C21194009010E437C218B4372
S1131930FEF76AFEDB001E438369282B02D1C369CC
S1131940FEF755FE1E4301F06EFDFEF7C5FDFEF7E2
S1131950C3FD00BD8C1900002002022B210003CF1F
S11319603268121832600E00704700B5FEF7DDFED3
S1131970FFF742FBFFF7AAFFFFF7CBFB00F023FCC6
S1131980FFF770FBFFF7C4FF00BDC046D01900008D
S11319902002026840003688704700B5FEF7BCFE9E
S11319A0043F3E60654E0369282B08D143693E21FC
S11319B0194049010E433E218B43FEF725FEDB000F
S11319C01E43FEF709FF1E4301F02DFD00BDC04676
S11319D0281A000020020268210003CF30800E0084
S11319E0704700B5FEF7A1FE043F3E60544E036904
S11319F0282B08D143693E21194049010E433E2159
S1131A008B43FEF701FEDB001E438369282B02D1C2
S1131A10C369FEF7ECFD1E4301F005FDFEF75CFD16
S1131A20FEF75AFD00BDC046601A0000200203689C
S1131A302B2103CF3288121832800E00704700B574
S1131A40FEF773FEFFF7D8FAFFF7A7FFFFF761FB76
S1131A5000F0B9FBFFF706FBFFF7C3FF00BDC0466C
S1131A60A41A00002002026340003678704700B5D3
S1131A70FEF752FE043F3E60324E0369282B08D124
S1131A8043691F21194089010E431F218B43FEF72F
S1131A90BBFDDB001E43FEF79FFE1E4301F0C3FCAB
S1131AA000BDC046FC1A000020020263210003CFDF
S1131AB030700E00704700B5FEF737FE043F3E60FD
S1131AC0214E0369282B08D143691F21194089013C
S1131AD00E431F218B43FEF797FDDB001E438369F2
S1131AE0282B02D1C369FEF782FD1E4301F09BFC43
S1131AF0FEF7F2FCFEF7F0FC00BDC0464C1B0000F4
S1131B00200203632B2103CF3278121832700E00A7
S1131B10704700B5FEF709FEFFF76EFAFFF7A7FF5F
S1131B20FFF7F7FA00F04FFBFFF79CFAFFF7C3FF4C
S1131B3000BD000000680000006000000088000094
S1131B400080000000780000007000008C1B000082
S1131B50200204626973210003CF326802433260B9
S1131B600E00704700B5FEF7E0FDFFF745FAFFF7FA
S1131B70ADFEFFF7CEFA043F3E60AB4EFEF747FEE4
S1131B80FFF770FAFFF7C4FE00BDC046CC1B00008F
S1131B90200204626963210003CF32688243326009
S1131BA00E00704700B5FEF7C0FDFFF725FAFFF7FA
S1131BB08DFEFFF7AEFA043F3E609C4EFEF741FEF9
S1131BC0FFF750FAFFF7A4FE00BDC0460C1C00004E
S1131BD0200204786F72210003CF326842403260E1
S1131BE00E00704700B5FEF7A0FDFFF705FAFFF7FA
S1131BF06DFEFFF78EFA043F3E608D4EFEF707FE42
S1131C00FFF730FAFFF784FE00BDC046401C000019
S1131C10200204626974400001CF36680640013E28
S1131C20B641F643704700B5FEF77FFDFFF74EFE61
S1131C30043F3E607F4EFEF7EAFDFFF710FC00BD57
S1131C40801C0000200205686269732103CF32887A
S1131C50024332800E00704700B5FEF766FDFFF7C1
S1131C60CBF9FFF79AFEFFF754FA043F3E606E4E3D
S1131C70FEF7CDFDFFF7F6F9FFF7B3FE00BDC04652
S1131C80C01C0000200205686269632103CF32880A
S1131C90824332800E00704700B5FEF746FDFFF721
S1131CA0ABF9FFF77AFEFFF734FA043F3E605F4E6C
S1131CB0FEF7C7FDFFF7D6F9FFF793FE00BDC04658
S1131CC0001D000020020568786F722103CF32885E
S1131CD0424032800E00704700B5FEF726FDFFF744
S1131CE08BF9FFF75AFEFFF714FA043F3E60504E9B
S1131CF0FEF78DFDFFF7B6F9FFF773FE00BDC04692
S1131D00341D0000200205686269744001CF3688E2
S1131D100640013EB641F643704700B5FEF705FDA7
S1131D20FFF73BFE043F3E60424EFEF770FDFFF7B7
S1131D3096FB00BD741D00002002056362697321D7
S1131D4003CF3278024332700E00704700B5FEF7BD
S1131D50ECFCFFF751F9FFF78AFEFFF7DAF9043FCD
S1131D603E60314EFEF753FDFFF77CF9FFF7A3FE0B
S1131D7000BDC046B41D00002002056362696321F2
S1131D8003CF3278824332700E00704700B5FEF7FD
S1131D90CCFCFFF731F9FFF76AFEFFF7BAF9043F0D
S1131DA03E60224EFEF74DFDFFF75CF9FFF783FE20
S1131DB000BDC046F41D000020020563786F722147
S1131DC003CF3278424032700E00704700B5FEF700
S1131DD0ACFCFFF711F9FFF74AFEFFF79AF9043F4D
S1131DE03E60134EFEF713FDFFF73CF9FFF763FE69
S1131DF000BDC046381E00002002056362697440BD
S1131E0001CF36780640013EB641F643704700B52F
S1131E10FEF78BFCFFF72BFE043F3E60054EFEF7FA
S1131E20F6FCFFF71CFB00BD0043000080430000EC
S1131E304040000000400000481F0000000006660B
S1131E406C6173682100300040CF310040CF854B76
S1131E50984268D3844B99422ED0032202402CD15D
S1131E6002689A4246D1814A137880221A40FAD0F5
S1131E7030221A4002D07D4A302313707C4A062354
S1131E8013707C4A1070000A7B4A1070000A7B4A67
S1131E9010707B4A1170090A7A4A1170090A7A4A49
S1131EA01170090A794A1170704A802313706F4ABD
S1131EB0137880221A40FAD0704700F0D9FD3041DF
S1131EC06464726573732068617320746F20626543
S1131ED020342D616C69676E656420666F722077AB
S1131EE0726974696E6720666C61736820210A00E8
S1131EF002F06EFC00F0BCFD29466C617368206C36
S1131F006F636174696F6E2063616E6E6F742062BB
S1131F1065207772697474656E20747769636520CF
S1131F20210A02F055FC00F0A3FD1943616E6E6FA7
S1131F307420777269746520696E746F20636F72A0
S1131F406520210A02F044FCCC1F000000000E664C
S1131F506C617368706167656572617365000FB564
S1131F60300040CF3F4B984220D3032398433F4A4D
S1131F70137880221A40FAD030221A4002D03B4A09
S1131F80302313703A4A092313703A4A1070000A36
S1131F90394A1070000A394A1070344A8023137089
S1131FA0324A137880221A40FAD00FBD00F060FD47
S1131FB01443616E6E6F7420657261736520636F84
S1131FC0726520210A0002F003FCC046482000008C
S1131FD000000A6572617365666C6173680021486C
S1131FE072B62B492B4A036893421CD0043F3E60CF
S1131FF00600043F3E6000F03BFD104572617365CE
S113200020626C6F636B20617420200000F0A8FDD7
S113201000F02EFD0C2066726F6D20466C617368B3
S11320200A00FFF79CFF04308842DCD100F020FD59
S11320301246696E69736865642E2052657365740F
S113204020210A0002F056FCE020000000000E658A
S113205072617365666C61736866726F6D003000DF
S113206040CFBDE700600000FFFFFFFF000002401B
S1132070070002400400024005000240060002403E
S113208008000240090002400A0002400B0002401E
S113209000000200FFFFFFFF46486021002202808B
S11320A002300139FBD17047424860210288002A7E
S11320B012D000F0DDFC1D556E70616972656420FC
S11320C031362D62697420466C61736820777269B9
S11320D074652E0A02F07CFB02300139E6D17047A8
S11320E0B821000000000768666C6173682130B590
S11320F0320040CF500813D300F0BAFC1E68666C5F
S113210061736821206E65656473206576656E2051
S11321106164647265737365732E0A0002F058FB80
S11321200223534023482021048845882D042C434E
S11321309C422AD006300139F6D11E482021048859
S113214045882D042C431AD006300139F7D100F00C
S11321508FFC27546F6F206D616E7920756E7061EE
S1132160697265642031362D62697420466C61732E
S113217068207772697465732E0A02F029FB028065
S1132180120C4280868040CF30BD0221114003D022
S1132190023A8188360401E0818809040E43043F31
S11321A03E6016000021018041808180FFF74BFED4
S11321B030BD00005CF3FF1FE42100006202012B2C
S11321C001CF3618704700B5FEF7AFFA043F3E6002
S11321D0DC4E043F3E60DC4E8169282912D1FEF7B3
S11321E041FF0FE0542200006202012D01CF861B43
S11321F0704700B5FEF799FA043F3E60D34E043FA2
S11322003E60D34E016928290ED14169FF290BD8BC
S113221040CFFEF7BDFA0E43816909020E4301F077
S113222002F9FEF759F900BD0437FEF79FFA8269F7
S1132230282A03D1C369FEF7DAF91A008901D2000A
S11322400E431643FEF748F9FEF7C6FA1E4301F0A3
S1132250EAF800BD80220000610202312D00013E37
S11322607047043F3E60BB4E00B5FEF755FA016966
S1132270C9000E43FEF7B0FA1E4301F0D4F800BDC6
S113228098220000610202312B0001367047043F9E
S11322903E60B14EE8E7C046B0220000610202325F
S11322A02D00023E7047043F3E60AC4EDCE7C04662
S11322B0C8220000610202322B0002367047043F3C
S11322C03E60A74ED0E7C046E022000061020563ED
S11322D0656C6C2B04367047043F3E60A14EC3E727
S11322E0102300006102066E656761746500764222
S11322F07047043F3E609C4E00B5FEF70DFAFEF7B2
S113230058FA01690E43C9000E4301F08CF800BD70
S1132310282300006102036E6F74F6437047043F84
S11323203E60924EE8E7C04640230000610203731A
S1132330687276087047043F3E608D4EDCE7C04605
S11323405023000061020373686C7600704706E056
S113235068230000610202322A0076007047043FBD
S11323603E604026C8E7C046802300006102056342
S1132370656C6C73B6007047043F3E608026BBE713
S113238098230000610202322F0076107047043F48
S11323903E60784EB0E7C046E4230000610203616A
S11323A06273F01736184640704700B5FEF7B4F96B
S11323B0FEF7FFF91E2101600169043F3E606E4E85
S11323C0CA00164301F02FF8043F3E605E4E0E43F0
S11323D0164301F028F8043F3E60684E0E4301F0B6
S11323E022F800BD2C240000420005752F6D6F6497
S11323F0310040CF002903D1043F3E6000267047DE
S1132400012200238E4206D9003104D4520049002F
S113241001D48E42FAD88E4201D3761A1343490866
S11324205208F8D1043F3E601E0070479C2400000F
S11324304200042F6D6F640000B5300040CF002EC1
S11324401CDA764200280CDA4042043F3E60060063
S1132450FFF7CEFF300040CF7642043F3E600600D7
S113246000BD043F3E600600FFF7C2FF300040CFCE
S113247040427642043F3E60060000BD002807DA71
S11324804042043F3E600600FFF7B2FF764200BDC3
S1132490043F3E600600FFF7ABFF00BDB024000020
S11324A04200036D6F6400B5FFF7C6FF40CF00BD67
S11324B0C42400004200012F00B5FFF7BDFF04371C
S11324C000BDC046D42400006232012A01CF464335
S11324D070474043E82400006100046576656E009F
S11324E00120304036187047002500008100046246
S11324F061736500043F3E60214E70470A0000008E
S11325001825000000000662696E617279001C489B
S1132510022101607047C0463025000000000764B6
S11325206563696D616C16480A2101607047C04695
S1132530CC25000000000368657811481021016073
S11325407047000000300000001800000038000050
S1132550001A0000401E0000401C0000801E000005
S1132560801C0000001D000040420000C043000029
S11325704008000040100000C01700004040000068
S1132580FC2F002080498148016081498148016015
S11325908149824801608249824801608248016021
S11325A0002182480170824801708248017082488B
S11325B001700621814801700021814801701A21AF
S11325C0804801700C21794801707047E8250000AB
S11325D0810009686F6F6B2D656D6974043F3E60FF
S11325E0794E7047DE26000004260000810008684A
S11325F06F6F6B2D6B657900043F3E60734E7047BF
S1132600062700002426000081000A686F6F6B2DE6
S1132610656D69743F00043F3E606D4E704734271A
S11326200000C04640260000810009686F6F6B2DD2
S11326306B65793F043F3E60664E70476627000035
S11326406026000081000A686F6F6B2D70617573DE
S11326506500043F3E60604E7047A2480000C046DB
S113266078260000000004656D6974000FB55648B3
S113267000F029F80FBDC0468C2600000000036B53
S113268065790FB5514800F01EF80FBDA026000073
S1132690000005656D69743F4D4800688746C04673
S11326A0B42600000000046B65793F0049480068C7
S11326B08746C046CC26000000000570617573652E
S11326C045480068874600688746C046F4260000EF
S11326D000000B73657269616C2D656D697400B5DA
S11326E000F028F8002E40CFFAD03C48067040CFC6
S11326F000BDC0462027000000000A7365726961AE
S11327006C2D6B65790000B500F02DF8002E40CFDC
S1132710FAD03248043F3E600678F6B200BDC046A7
S11327205427000000000C73657269616C2D656D9F
S113273069743F0000B5FFF7C3FF29480821017001
S1132740043F3E600026264880220178114000D0D4
S1132750F64300BDE427000000000B736572696155
S11327606C2D6B65793F00B5FFF7AAFF1C48082163
S11327700170043F3E600026194820220178114070
S113278000D0F64300BD0000803F000038800440C4
S1132790300400F03480044000000004048004404D
S11327A000020000049004400890044003A0064086
S11327B002A0064006A0064005A006400AA0064066
S11327C000A0064001A00640F82F0020F42F0020AE
S11327D0F02F0020EC2F0020E82F002007A0064057
S11327E004A00640082800000000076365787065AF
S11327F0637400B5386801B40130386000F00BF838
S113280001BC067040CF00BD8028000000000661B6
S113281063636570740000B502CF01390022FFF7CD
S113282030FF300040CF7F2809D0202819D2092852
S113283016D00A281FD00D281DD00828EFD1002A51
S1132840EDD000F015F903082008002AE7D0885CD1
S1132850013A80230340E2D040230340F5D0DEE771
S11328602020B242DBD2043F3E600600FFF7FEFEAA
S113287001328854D3E7160000F0A8F800BDC04622
S113288094280000400003746962043F3E602B4EAC
S11328907047C046AC2800008100033E696E043FC7
S11328A03E60274E704700000000C046D428000058
S11328B082000E63757272656E742D736F75726328
S11328C06500043F3E601F4E70470000000094F016
S11328D0FF1FC046F0280000000009736574736F81
S11328E075726365174802CF0660416040CF704738
S11328F010290000000006736F7572636500043FC1
S11329003E60104E043F7068386036687047C046B9
S11329104829000000000571756572790FB50848F3
S113292000210160FFF7B1FF043F3E60043F3E60B9
S1132930C826FFF770FFFFF7D5FF0FBD94F0FF1F08
S1132940E42F0020DC2F00209829000000000763FA
S11329506F6D706172650FB5310040CF01CF884251
S113296002D040CF00260FBD02CF002810D001387E
S11329700A5C335C412A02D35B2A00D22032412B09
S113298002D35B2B00D220339A42EED000260FBD37
S11329900026F6430FBDC046AC29000000000263C8
S11329A0720000B500F064F8010A00BDC0290000FF
S11329B0000002626C00043F3E6020267047C0465F
S11329C0D42900000000057370616365043F3E6014
S11329D020264BE6F429000000000673706163654D
S11329E0730000B5002E03DDFFF7F0FF013EFBD1BD
S11329F040CF00BD042A00005000065B636861728A
S1132A005D0005E01C2A0000000004636861720098
S1132A1000B501F0FFFB40CF367800BD2C2A000042
S1132A2050040128043F3E60292606E0482A00009D
S1132A305004015C043F3E60002600B501F0F4FB45
S1132A40043740CF00BDC046902A00001000022E7B
S1132A5022009F4800B5043F3E60060000F0DEF906
S1132A60043F3E60222601F0DFFB00F016FD00BDAE
S1132A700AB4043F3E607646013E337801210133B7
S1132A8019405B187146C9188E460ABC3CE0C04622
S1132A90B82A00001000026322008E48DAE7043FDF
S1132AA03E607646013E33780121013319405B18BC
S1132AB07146C9188E467047E42A0000100002735C
S1132AC022008548C6E7043F3E607646043F3E60E8
S1132AD0013E36780121731C19405B187146C918F0
S1132AE08E467047FC2A0000000005636F756E7403
S1132AF00136043F3E60013E36787047242B0000C7
S1132B00000005637479706501B53078002807D03A
S1132B100136043F3E603678FFF7A8FD0138F7D14F
S1132B2040CF01BD542B000000000474797065008F
S1132B30310040CF300040CF00B5002908D000223A
S1132B40043F3E60865CFFF791FD01329142F7D16C
S1132B5000BDC046902B00000000046865782E007C
S1132B6007B5310040CF20200F220438043F3E60D7
S1132B700E00C6401640092E01D9373600E0303623
S1132B80FFF774FD0028F0D1FFF720FF07BDC04612
S1132B90A02B0000000003682E731FB54F4C0EE0FD
S1132BA0B02B0000000003752E731FB54C4C06E0DB
S1132BB0302C00000000022E73001FB5494C4A4916
S1132BC0C91B8908494A106803B40A201060FFF73A
S1132BD04FFF08537461636B3A205B00043F3E600F
S1132BE00E0001F0FFFCFFF743FF025D200003BC71
S1132BF03E4A106000290AD03D4A106806B4043FDA
S1132C003E600600A04706BC043A0139F5D1FFF73F
S1132C102FFF0620544F533A2000043F3E603600F5
S1132C20A047FFF725FF04202A3E0A001FBDC04627
S1132C30F42C0000000005776F72647300B5FFF791
S1132C4017FF010A00F067FEFFF712FF09416464F1
S1132C50726573733A20043F3E60FFF781FFFFF70C
S1132C6007FF064C696E6B3A2000043F3E603668ED
S1132C70FFF776FFFFF7FCFE07466C6167733A20A7
S1132C80043F3E60B688FFF76BFFFFF7F1FE064393
S1132C906F64653A2000B01D00F078FE043F3E608A
S1132CA00600FFF75DFFFFF7E3FE064E616D653A30
S1132CB02000043F3E600636FFF726FFFFF7D8FEEC
S1132CC0010A00F040FE300040CFBDD040CF00BD2F
S1132CD0702A00009E2A0000C62A0000612B000012
S1132CE0D3450000E54500005CF2FF1FFC2F0020E7
S1132CF058F2FF1F102E0000000010726567697300
S1132D007465726C69746572616C2C003FB5350032
S1132D1040CF2900C90029432D029E480543FF23C3
S1132D2000223000D040984301D00132F9E730004E
S1132D30D04018402843043F3E60060000F073FB77
S1132D409548054318009040864310D00024300075
S1132D50E040984301D00134F9E7101B043F3E6082
S1132D600E008001064300F05EFB2200DFE7002A2C
S1132D7006D0043F3E600E009201164300F053FB60
S1132D8040CF3FBD1FB5310040CF844C0C43C90038
S1132D900C434901300040CF020EFF231A407D4B03
S1132DA00B431343043F3E601E0000F03CFB043F12
S1132DB03E60260000F037FB020CFF231A40784BDC
S1132DC00B431343043F3E601E0000F02CFB043F02
S1132DD03E60260000F027FB020AFF231A40704BD6
S1132DE00B431343043F3E601E0000F01CFB043FF2
S1132DF03E60260000F017FB0200FF231A40684BD8
S1132E000B431343043F3E601E0000F00CFB1FBD48
S1132E10802E000000000563616C6C2C0FB533003C
S1132E2000F058FE300040CF1B1A043B5D491940A6
S1132E3000290ED05C4A91420BD00136043F3E601B
S1132E400026FFF763FF043F3E60584E00F0EBFAA4
S1132E500FBD40CF5B085648564919400843DB0A6A
S1132E6055491940090408439B0A01211940890660
S1132E700843043F3E60060000F0FFFA0FBDC04661
S1132E80D42E00000000086C69746572616C2C001B
S1132E9008B5043F3E60494E00F0C5FA043F3E6069
S1132EA0474E00F0C0FA474B3000184098420BD10F
S1132EB0F643043F3E600626FFF728FF043F3E60CA
S1132EC0414E00F0B0FA08BD043F3E600626FFF70D
S1132ED01DFF08BDFC2E00000000066372656174CE
S1132EE0650000B500F03DF82F2000021B3080473C
S1132EF0043F3E607646013E00BDC046542F0000AC
S1132F00200005646F65733E2F2000021B3080474C
S1132F10043F3E607646013E7047043F3E6076467D
S1132F20013E2A4A13682A4909680220084000D150
S1132F300231023111600136043F3E600026FFF782
S1132F4021FF043F3E60194E00F06DFA136000F05B
S1132F50E0F900BDD82F00000000073C6275696CE1
S1132F60647300B500F064FB00F0B4FD0220064079
S1132F7040CF04D1043F3E60362600F054FA043FAB
S1132F803E60144E00F04FFA043F3E60102600F0FD
S1132F90B7FA00BD0020000000100000000200008D
S1132FA0003000000100C0FF0000C0FF80470000A7
S1132FB000F800F0FF070000FF030000043F0000DA
S1132FC03E6000000000FFFFF643000000F0FF1F1A
S1132FD014F0FF1F00B50000E42F00005000035B55
S1132FE0275D03E0FC2F00000000012700B501F07D
S1132FF011F900F00AFD300040CF00BD3C30000064
S1133000100008706F7374706F6E650000B5FFF781
S1133010EDFF102101400DD12021014005D0FFF723
S113302037FF043F3E60E04E04E0FFF731FF043F0A
S11330303E60DE4EFFF7F2FE00BDC0468830000061
S1133040000007696E6C696E652C00B5D849D94AD1
S1133050D94B3088884208D0904208D0984206D094
S1133060043F3E60060000F0DEF90236F1E740CF8F
S113307000BD0EB4CF4AD04B01880230914201D03A
S11330809942F9D10EBC70479C30000000000472D4
S113309065742C00043F3E60C64EC4E1AC300000B1
S11330A03000046578697400F4E7C046C430000059
S11330B030000772656375727365043F3E60BF4EEE
S11330C03668ABE6DC30000081000573746174651A
S11330D0043F3E60BA4E704700000000F03000002C
S11330E00000015DB6480021C94301607047C04635
S11330F0003100001000015BB148002101607047FD
S1133100283100000000013A00B5AE48076000F025
S11331108FFA043F3E60A64E00F085F9A8480021CE
S1133120C943016000BDC046703100003000013B5E
S113313000B5A4480168B9420ED0FFF799FC1520E8
S1133140537461636B206E6F742062616C616E6393
S113315065642E0A01F03CFB043F3E60954E00F08E
S113316062F900F0D6F896480021016000BDC0461F
S1133170843100000000076578656375746530006C
S113318040CF87469C310000100009696D6D65646D
S113319069617465043F3E601026EBE0B4310000C1
S11331A0100006696E6C696E6500043F3E6020265F
S11331B0E0E0C046D031000010000B636F6D706911
S11331C06C656F6E6C79043F3E603026D2E0C04679
S11331D0EC31000010000A302D666F6C6461626C83
S11331E06500043F3E604026C4E0C046083200004B
S11331F010000A312D666F6C6461626C6500043FD7
S11332003E604126B6E0C0462432000010000A3277
S11332102D666F6C6461626C6500043F3E604226FB
S1133220A8E0C0464032000010000A332D666F6CDF
S11332306461626C6500043F3E6043269AE0C046C8
S11332405C32000010000A342D666F6C6461626C9D
S11332506500043F3E6044268CE0C046783200009E
S113326010000A352D666F6C6461626C6500043F62
S11332703E6045267EE0C0469432000010000A36C7
S11332802D666F6C6461626C6500043F3E60462687
S113329070E0C046B032000010000A372D666F6C33
S11332A06461626C6500043F3E60472662E0C0468C
S11332B0E0320000000008636F6E7374616E740086
S11332C000B500F0B5F9FFF7E3FD043F3E603A4E68
S11332D000F0A9F8FFF785FF00F01BF800BDC04619
S11332E00433000000000932636F6E7374616E74FE
S11332F000B500F09DF939683E600E46FFF7C8FD41
S1133300E1E7C04664330000000006736D7564672E
S1133310650000B52C4801682B4A91421CD2023941
S11333200A882A4B9A4204D1043F3E60284E00F09A
S11333307AF800F067F827480068043F3E6006000A
S1133340254909680431204A1368116000F06BF8BC
S11333501360FEF7A9FE00BD00F054F8043F3E6080
S1133360002608E0DC330000000008736574666C16
S11333706167730000B514480168134A914205D28D
S1133380144801683143016040CF00BD320040CF92
S113339011480068043001880C4B994201D1110096
S11333A000E01143018000BD4A3000001C2E0000E3
S11333B000B5000000BD00007047000014F0FF1FBE
S11333C0D82F002010F0FF1F00F0FF1FFFFF0000A8
S11333D00000000020F0FF1F04F0FF1FF83300007E
S11333E0410007616C69676E6564012030403618DE
S11333F002203040361870471C340000000005617C
S11334006C69676E00B5804801680220014004D0F1
S1133410043F3E60002600F006F800BD543400006E
S1133420000002682C000FB5B6B277480168764AEE
S1133430914205D2043F3E600E00FEF758FE02E0C2
S1133440320040CF0A80043F3E60022600F058F864
S11334500FBDC046703400000000012C00B5043FCD
S11334603E60FFF7E0FF360CFFF7DDFF00BDC0460E
S11334708C3400000000033E3C2C00B5043F3E6049
S1133480360CFFF7D0FFFFF7CEFF00BDF434000089
S1133490000007737472696E672C07B5FF21314011
S11334A040CF300040CF002905D1043F3E600026C4
S11334B0FFF7B9FF07BD043F3E60067836020E43AE
S11334C0FFF7B1FF0130013902290AD3043F3E60FE
S11334D04678360202781643FFF7A5FF0230023918
S11334E0F2E7002900D107BD043F3E600678FFF7EC
S11334F09AFF07BD50350000000005616C6C6F74C5
S113350041480168404A91420FD2320040CF8918A5
S11335103E4A914219D3FFF7ABFA0B466C617368CC
S11335202066756C6C0A01F053F9320040CF89189B
S1133530374A1268914208D3FFF79AFA0952616D2B
S11335402066756C6C0A01F043F901607047C0464F
S11335507835000000000D636F6D70696C65746FE1
S113356072616D3F043F3E6000262748006826498B
S1133570884248D3F64370479835000000000C6336
S11335806F6D70696C65746F72616D001E480068C0
S11335901D49884211D370472036000000000E6395
S11335A06F6D70696C65746F666C61736800164842
S11335B000681549884200D27047164816490268C7
S11335C00B680A6003601048144902680B680A60BB
S11335D003600F480068834215D300B5FFF748FA2B
S11335E023205661726961626C657320636F6C6C31
S11335F069646520776974682064696374696F6EAF
S11336006172790A00BD704700F0FF1F00000200DC
S113361024F0FF1F04F0FF1F1CF0FF1F18F0FF1F12
S11336200C37000000000828637265617465290086
S113363000B500F0EFFD002E0ED1FFF719FA1520AA
S1133640437265617465206E65656473206E616D97
S11336506520210A01F0BCF83868043F3E60043F4D
S1133660386000F0A3F940CF002E40CF11D0386865
S1133670043F3E60043F3860FFF7FAF9095265647D
S11336806566696E6520FFF753FAFFF7F1F9022EBC
S11336900A00FFF7B7FE00F01DFA8D4800688C4958
S11336A088421CD28B4800210160043F3E600626FC
S11336B0FFF726FFFDF744FDFFF7EFFE864801689C
S11336C00A68864B9A4207D1814A13681160043F05
S11336D03E60FFF7C3FE1360066040CF10E07E48F3
S11336E0043F3E600668FFF7B9FE043F3E607C4E2F
S11336F0FFF799FE7848310040CF0160FFF7CDFE17
S1133700734801687748016000BDC0462437000053
S11337100000087661726961626C6500043F3E6076
S1133720012613E03C37000000000932766172691B
S113373061626C65043F3E60022607E014380000B5
S11337400000096E7661726961626C6500B5FFF70D
S11337506FFF5F4801685E4A914233D20F200640F2
S1133760B20061480168891A604A91420BD2FFF79E
S11337707FF90F4E6F7420656E6F75676820524134
S11337804D0A01F025F80160043F3E600E00FFF78A
S11337907FFB043F3E60564EFFF745FE300040CFAE
S11337A00200002805D00E600431FFF757FE0138EF
S11337B0F9D1043F3E6080261643FFF7DBFDFFF797
S11337C0A8FD00BD00F086F90220064040CF04D1D8
S11337D0043F3E603626FFF726FE043F3E60454E1A
S11337E0FFF74BFE043F3E60434EFFF746FE043FA7
S11337F03E603F4EFFF717FE300040CF002803D055
S1133800FFF72CFE0138FBD1FFF7EBFCFFF781FD3E
S113381000BDC04600390000000007627566666599
S1133820723A00B5FFF704FF012030403618022039
S11338303040361826480168254A914226D22A4843
S11338400168891B294A91420BD2FFF711F90F4EE7
S11338506F7420656E6F7567682052414D0A00F0E1
S1133860B7FF0160043F3E600E00FFF711FB043F09
S11338703E601F4EFFF7D7FDFFF7F0FD043F3E60AB
S11338801E4EFFF777FDFFF744FD00BD00F022F95F
S11338900220064040CF04D1043F3E603626FFF7A5
S11338A0C2FD043F3E60134EFFF7E7FD043F3E6058
S11338B0114EFFF7E2FD043F3E600D4EFFF7B3FDEE
S11338C0FFF71EFEFFF78DFCFFF723FD00BD000090
S11338D000F0FF1F20F0FF1F04F0FF1FFFFFFFFF9A
S11338E0FFFF000014F0FF1F24F0FF1F1CF4FF1F54
S11338F0704700003E60043F02367E4640010000EF
S11339003039000000000F64696374696F6E61727E
S1133910797374617274424800684149043F3E609F
S1133920884201D23F4E70473F4E36687047C046CA
S11339306C39000000000E64696374696F6E617213
S1133940796E6578740003B531683848814207D0D0
S11339508879FF2804D00E00043F3E60002603BD92
S1133960043F3E600026F64303BDC046A039000074
S113397000000A736B6970737472696E6700317842
S1133980013101220A4089187618704706B401787B
S1133990013101220A408918401806BC7047C0460C
S11339A0343A000000000466696E64003FB50022EA
S11339B00023350040CF340040CFFFF7ACFF1C4854
S11339C0B188884217D0043F3E600636FFF790F86E
S11339D0043F3E602600043F3E602E00FEF7BBFF1E
S11339E0002E40CF07D0B01DFFF7D0FF02000B0020
S11339F00B48824204D2FFF7A6FF300040CFDED04E
S1133A001600043F3E601E003FBD00B5310038681B
S1133A10FFF7CCFF3A68002A01D100F059FE00BD3F
S1133A2000F0FF1F1004000004F0FF1FFFFFFFFF62
S1133A30FFFF0000903A0000000006636A756D7095
S1133A402C00320040CF310040CF8B1B043BE949AE
S1133A50194000290DD0E84881420AD0FFF708F840
S1133A600D4A756D7020746F6F206661720A00F0E4
S1133A70AFFE5B10FF210B40134330001E0000B566
S1133A80DE4A13681060FFF7CEFC136000BDC04629
S1133A90C83A00000000056A756D702C310040CFF3
S1133AA0300040CF0B1A043BD5491940002902D0FD
S1133AB0D44A9142D2D15B10D34A1340D34A134320
S1133AC0043F3E601E00DAE7E03A000000000468AC
S1133AD065726500043F3E60C84E36687047C04654
S1133AE01C3C000000000D666C6173687661722DE9
S1133AF068657265043F3E60C54E3668704700B520
S1133B00043F3E60C34EFFF78EFC043F3E60C24E4E
S1133B10FFF789FC00BDDDE700B500F037F8396830
S1133B203E600E46043F3E60BC4EFFF78AFF00BD78
S1133B3000B500F02BF839683E600E46043F3E6045
S1133B40B74EFFF77EFF00BD00B5FFF7D8FF00F0CA
S1133B501DF839683E600E46043F3E60B14EFFF7E3
S1133B6070FF00BD00B500F011F839683E600E46E4
S1133B70FFF794FF00BD00B5FFF7C1FFFFF7AAFFF1
S1133B80043F3E600226FFF7BBFC00BD00B5FFF713
S1133B90A1FF043F3E600226FFF7B2FC00BD00B562
S1133BA0FFF798FFFFF77AFF00BD00B5FFF792FF1C
S1133BB0043F3E609B4EFFF744FF00BD00B5FFF796
S1133BC089FF043F3E60954EFFF73BFF00BD00B503
S1133BD0FCF7A2FD01694269FCF77EFCFCF7B5FC29
S1133BE0FCF7B8FC0369282B02D14369FCF7FFFCFE
S1133BF0282908D1043F3E608B4E002A00D00136AC
S1133C00FFF711FC06E0043F3E60884E09020E43B4
S1133C10FFF709FCFCF7A3FC00BDC046883C00008C
S1133C2030060269660000B5FFF7A5FF043F3E6059
S1133C307C4E043F3E60022600BD00B5FDF787FDC3
S1133C40816A002910D002B4FCF777FCFFF742FF29
S1133C50043F3E600226FFF753FC043F3E6040BC35
S1133C60043F3E60022600BDFFF7B1FFFFF732FFBD
S1133C70043F3E600226FFF743FC043F3E60694E6A
S1133C80043F3E60022600BDBC3C000030000465D9
S1133C906C73650000B5022E26D140CFFFF776FF86
S1133CA0FDF74EFAFFF716FF39683E600E46FFF740
S1133CB0C8FE043F3E60052600BDC046083D000026
S1133CC03000047468656E00052E01D140CF66E7AC
S1133CD0022E09D140CF00B5FFF7FCFE39683E60E3
S1133CE00E46FFF7AEFE00BDFEF7C2FE1753747218
S1133CF07563747572657320646F6E2774206D61CB
S1133D007463680A00F064FD383D000030000672F8
S1133D10657065617400042EE6D140CF00B5FDF7EF
S1133D20F2F9FFF71FFFFFF7D5FE39683E600E4634
S1133D30FFF787FE00BDC046643D000030060577EE
S1133D4068696C65012ECFD140CF00B5FFF76BFFDA
S1133D50023600BD012EC7D140CF00B5FFF76DFF7D
S1133D60023600BDC43D0000300605756E74696CF2
S1133D70012EB9D140CFE7E67047012EB4D140CF30
S1133D8000B5FDF7E4FC816A00290DD002B4FCF70C
S1133D90D4FBFFF7FBFE39683E600E46043F3E60ED
S1133DA040BCFFF74EFE00BDFFF711FFFFF7EEFE2C
S1133DB039683E600E46043F3E601A4EFFF741FEEE
S1133DC000BDC046D83D0000300005616761696EE2
S1133DD0012E89D140CFC5E6303E00003000056297
S1133DE06567696E00B5FFF796FE043F3E600126E5
S1133DF000BD000001FFFFFF00FFFFFF00F0FF1FF9
S1133E0001F8FFFF00F8FFFFFF07000000E00000DB
S1133E1024F0FF1F002E000040CF000000D100005E
S1133E2000D7000000D0000000220000002800009D
S1133E30483E00002002016B043F3E60029E704732
S1133E40043F3E608B4E0AE0743E00002002016A8B
S1133E50043F3E60009E7047043F3E60864E00B5BE
S1133E60FCF730FBFCF734FC03611B021E43FFF735
S1133E70DAFA00BDA03E000020020169043F3E6062
S1133E802600704700B5043F3E607C4EFCF71AFBE9
S1133E90FCF71EFC03611E43FFF7C5FA00BDC046D4
S1133EA0E03E00003000056C6561766500B574483D
S1133EB001683B00043F1A68043B1A6008338B42D4
S1133EC0F9D103B4FFF762FE03BC330040CF0439D9
S1133ED00B60016004390A6801320A6000BDC04603
S1133EE0F43E0000200006756E6C6F6F700030BCED
S1133EF07047C0462C3F00003000052B6C6F6F707C
S1133F00032E00D0F0E640CF00B5043F3E605D4E86
S1133F10FFF79BF8FFF70CFE1AE08020000600195B
S1133F20A419401B801940CF7047C046703F000061
S1133F303000046C6F6F7000032E00D0D4E640CFC5
S1133F4000B5043F3E60504EFFF77FF8FFF7E4FDF5
S1133F5000F046F94A48310040CF0160043F3E601A
S1133F604A4EFFF772F800BD0134AC427047C046B8
S1133F70B83F0000300202646F0000B5043F3E60A9
S1133F80434EFFF762F83E480168043F3E600E006E
S1133F90043F3E6000260760FFF7BDFD043F3E601E
S1133FA0032600BD00B500F02EF8ECE730B4340071
S1133FB040CF350040CF7047A44000003002033F9B
S1133FC0646F00B5043F3E60314EFFF73EF8043F96
S1133FD03E60304EFFF727FA29480168043F3E60EF
S1133FE00E00FFF7D3FD0136043F3E60012624484E
S1133FF00760FFF790FD043F3E60032600BD00B557
S113400000F001F8E3E700B5FCF78FFBFCF79DFA3D
S1134010043F3E60204EFFF706FA0169282907D0C5
S1134020043F3E601D4EC9000E43FFF7FCF907E054
S1134030043F3E604669043F3E600426FEF766FE88
S11340408169282907D0043F3E60154EC9000E43FC
S1134050FFF7E9F907E0043F3E60C669043F3E60AC
S11340600526FEF753FEFCF737FAFCF735FAFCF7A2
S113407076FA00BD029800000098000020000000BD
S11340800CF0FF1F1A3F0000683F0000EE3E0000E6
S1134090AC3F0000AC42000030B40000040000005B
S11340A005000000C0400000300004636173650037
S11340B0043F3E600026043F3E6008267047C04629
S11340C0D84000003000033F6F666A480AE0013EB2
S11340D0B64140CF7047C046804100003002026FB5
S11340E066006548082E00D0FEE540CF00B5043FC9
S11340F03E600600FEF7A9FFFFF748FD39683E6001
S11341000E460136043F3E600926043F3E605B4E86
S1134110FFF789F900BD082E00D0E5E540CF00B5D2
S1134120FCF703FBFCF711FA043F3E60544EFCF726
S113413026FB0E430269282A15D14269FF2A07D8B3
S113414040CF043F3E604F4E164309020E430CE03D
S1134150043F3E601600FCF7BBFA1A00043F3E60C1
S11341601E00FEF7D3FDD2001643FFF75CF9FCF7FF
S1134170B3F9FCF7F4F9BFE7300040CFB042704721
S1134180B8410000300005656E646F66092E00D0EA
S1134190AAE540CF00B540B440CFFFF7F7FC39683B
S11341A03E600E46FFF70AFD043F3E6040BC043FFC
S11341B03E60082600BDC046084200003000076586
S11341C06E6463617365082E00D08DE540CF00B541
S11341D0043F3E60294EFFF726F900F001F800BDC8
S11341E000B5300040CF00280DD003B40121314088
S11341F0002903D0013EFFF7D8FC01E0FFF7CFFC14
S113420003BC0138EFE700BD1C4200000000057448
S11342106F6B656E043F3E60202605E08C42000013
S1134220000005706172736510B5FEF768FB31001C
S113423040CF300040CF144A12688418202E07D192
S113424091420FD0835CB34202D101328418F7E764
S1134250914207D0835C0132B342F9D18618361BF0
S1134260013E01E08618361B043F3C6006480260AC
S113427010BD0000CE4000007841000040CF000097
S11342808042000000280000E42F0020CC420000FF
S11342900000056469676974D44B1B68303E0BD316
S11342A00A2E0BD3073E0A2E06D3242E06D3203E15
S11342B00A2E01D3242E01D3002670479E42FBD23E
S11342C0043F3E600026F6437047C046D8430000D2
S11342D00000066E756D626572003FB5310040CF17
S11342E0701E0126012204B4C04B1B680024002563
S11342F000293CD00130013902782D2A04D101B0C3
S11343000022D24304B4F3E7232A01D10A23EFE7BE
S1134310242A01D11023EBE7252A01D10223E7E760
S11343202E2A01D10226E3E72C2A36D0043F3E6030
S11343301600FFF7B3FF002E40CF2BD0043F3E60A2
S11343402600043F3E602E00043F3E601E00043FF2
S11343503E6000260FB4FCF70AFC0FBC350040CFCA
S1134360340040CF0022A419554140CFC0E704BC1B
S1134370002A04D50022E443ED43013455413300BF
S11343802600012B02D0043F3E602E00043F3E6015
S11343901E003FBD01B000263FBD250000240226BB
S11343A00029E4D0425C01392E2AF9D0043F3E6052
S11343B01600FFF773FF002E40CFEBD0043F3C60A4
S11343C0043F3E601E000FB4FCF785FC0FBC3400B4
S11343D040CF40CFE4E7C046FC4300000000062E77
S11343E06469676974000A2E01D230367047242E3E
S11343F001D23736704723267047C0463444000044
S1134400000004686F6C6400330040CF7848017882
S11344103F290DD2013101704018012907D001381C
S1134420027801300270013801390129F7D1037093
S11344307047C04654440000000005686F6C643C3B
S1134440330040CF6A4801783F2902D2013101701C
S1134450435470476C4400000000047369676E00A5
S1134460002E01D440CF70472D26CDE780440000B4
S1134470000002233E005E48067801303860704731
S11344809844000000000366235310B5202400F074
S113449008F8013CFBD110BDBC44000000000266DA
S11344A0230000B5043F3E60504E3668FCF731FBF4
S11344B0FFF799FFFFF7C4FF00BDC046D8440000D2
S11344C000000223530000B500F00AF8002EFBD1CF
S11344D038680028F8D100BD04450000000001231D
S11344E000B5043F3E60414E3668043F3E600026FE
S11344F0FCF711FCFCF7EEF940CFFFF774FFFFF770
S113450083FF00BD184500000000023C230038482A
S1134510002101707047C0462C450000000002666F
S11345202E00043F3E60202605E0C0467C45000086
S1134530000003662E6E00B510B4340040CFFCF7C3
S1134540CDFDFCF7A5FA043F3E600026FFF7DFFF30
S1134550FFF7B9FF40CF2C26FFF772FF002C03D0E2
S1134560FFF79FFF013CFBD110BC40CFFFF778FF62
S1134570043F3E60043F3E601EE0C0469445000098
S113458000000375642E00B5FFF7C1FFFFF79BFF22
S113459012E0C046C8450000000002642E0000B5C9
S11345A0FCF79CFDFCF774FAFFF7B1FFFFF78BFFF4
S11345B0FCF7A9FDFFF754FFFFF75DFFFEF7B8FA1C
S11345C0FEF704FA00BDC046DC4500000000027599
S11345D02E00043F3E600026D5E7C046F4450000A7
S11345E00000012E043F3E60F617D8E7FC2F0020A0
S11345F054F0FF1F3C4600000000086576616C75AE
S11346006174650000B5FEF77AF901CF01B440B4D6
S113461040CF8048016802B400210160FEF762F9CE
S113462000F014F87B4802BC0160043F3E6040BCCB
S113463001BC043F3860FEF755F900BDA8470000EF
S1134640000009696E7465727072657430B57248E1
S113465087420BD9FEF70CFA10537461636B207513
S11346606E646572666C6F770A00B1E06B488742CE
S11346700AD2FEF7FDF90F537461636B206F766500
S113468072666C6F770AA3E0654C2568002D01D132
S11346903D002560FFF7BEFD002E02D1043740CF58
S11346A030BD3868043F3E60043F3860FFF77EF950
S11346B0310040CF320040CF002A15D13868310094
S11346C0FDF703F8FFF709FE320040CF002ABED100
S11346D0FEF732FAFEF7CCF90C206E6F7420666F89
S11346E0756E642E0A0073E04E4B1B68002B1DD1BF
S11346F00025256030230B40302B0ED1FEF718FA2D
S1134700FEF7B6F91220697320636F6D70696C65EA
S11347102D6F6E6C792E0A005AE0043740CF043FA7
S11347203E601600FEF72BFDFFF791FF043740CFE4
S11347303D48084001D1FCF7C8FF8020084008D15B
S1134740EB1B9B084020084009D00F2008408342FF
S113475005D3043F3E601600FEF711FD77E73348AA
S1134760084008D0FBF767FEFCF73FF838002060EC
S1134770FBF770FE6BE7FBF75EFEFBF7DEFE002542
S11347802560043F3E60160010220A4002D0FEF766
S1134790F6FC5CE720220A4002D0FEF756FC56E7FE
S11347A0FEF73CFB53E7C046C4470000810009689C
S11347B06F6F6B2D71756974043F3E601C4E7047BA
S11347C0004800004448000000000471756974004A
S11347D018488546104FFDF75FFC17480A21016011
S11347E01048002101600E480160FBF7F5FE0948FE
S11347F0016012480160124941600D480068874613
S1134800FEF78CF8FFF722FFFEF732F905206F6BF5
S11348102E0AF5E7E42F00205CF2FF1F5CF1FF1F76
S113482008F0FF1FD82F0020000400000002000041
S1134830D42F00205CF3FF1FFC2F0020DC2F00206E
S113484094F0FF1F6048000000000565696E743F26
S1134850043F3E60EFF31086013EB6417047C04608
S11348607048000020000465696E740062B67047E9
S11348708048000020000464696E740072B67047BA
S1134880984800002000046970737200043F3E6081
S1134890EFF305867047C046A44800000000036E8D
S11348A06F707047E8480000000009756E68616E1B
S11348B0646C656400B5FEF7DBF814556E68616ED0
S11348C0646C656420496E7465727275707420003E
S11348D0043F3E60EFF30586FEF742F9FEF7C8F8A1
S11348E002210A0000BDC046FC4800000000057219
S11348F06573657499489A490160C046204900006F
S113490081000B6972712D7379737469636B043F51
S11349103E60944E7047B448000092480068874651
S1134920444900008100096972712D6661756C74D7
S1134930043F3E608C4E7047B44800008A480068CB
S11349408746C0466C49000081000E6972712D6370
S11349506F6C6C656374696F6E00043F3E60834ED8
S11349607047B44800008148006887468C490000BD
S11349708100076972712D616463043F3E607C4E5F
S11349807047B44800007A4800688746AC49000084
S11349908100076972712D636D70043F3E60754E2E
S11349A07047B4480000734800688746CC4900004B
S11349B08100076972712D646163043F3E606E4E2D
S11349C07047B44800006C4800688746F04900000E
S11349D08100096972712D706F727461043F3E60C9
S11349E0664E7047B4480000644800688746C04675
S11349F0144A00008100096972712D706F72746429
S1134A00043F3E605E4E7047B44800005C48006856
S1134A108746C04600600000FFFF182D2D2D20465C
S1134A206C6173682044696374696F6E6172792084
S1134A302D2D2D00002153480160FDF7A3FD5248A0
S1134A408546524F2A2652485249016052485349DA
S1134A500160043F3E60514E514DB188514B994223
S1134A6024D0514B0B400AD0B01DFEF78FFFFEF748
S1134A7000FB0388408800040343ED1A16E08023FA
S1134A800B4013D00F23194089006D1AB01DFEF797
S1134A907DFFFEF7EEFA043F3E600600043F3E60F1
S1134AA02E00043F3E600E00FCF7DEFEFEF74BFFD7
S1134AB0300040CFD1D03D48066040CF3C4805602F
S1134AC03C483D49374A884204D00238038893421F
S1134AD0F9D0023039490860FDF7DEFAFDF7C8FF66
S1134AE0514D6563726973702D5374656C6C61729A
S1134AF0697320524120302E3620657870657269C2
S1134B006D656E74616C2077697468204D30206324
S1134B106F726520666F72204B4C32355A313238D1
S1134B20206279204D61747468696173204B6F63EE
S1134B30680A234800210160043F3E60214E043F7F
S1134B403E600426FEF732FF40CF002E02D0FEF76F
S1134B5016FB52E640CF3BE6696E69740CED00E04B
S1134B600400FA05D02F0020CC2F0020C82F0020ED
S1134B70C42F0020C02F0020BC2F0020B82F0020FD
S1134B80B42F0020008104405CF3FF1F5CF2FF1F80
S1134B9000F0FF1F1CF4FF1F04F0FF1F10040000AF
S1134BA000300020FFFF0000000100001CF0FF1F88
S1134BB024F0FF1F000002000060000018F0FF1F37
S10B4BC008F0FF1F584B000030
S9030000FC
