S02200006D6563726973702D7374656C6C617269732D6B6C32357A3132382E737265638F
S11300008CF3FF1FA54D0000AD4C0000AD4C00006B
S113001000000000000000000000000000000000DC
S1130020000000000000000000000000D74C0000A9
S11300300000000000000000D74C00008B4C0000C2
S1130040D74C0000D74C0000D74C0000D74C000020
S1130050D74C0000D74C0000D74C0000D74C000010
S1130060D74C0000D74C0000D74C0000D74C000000
S1130070D74C0000D74C0000D74C0000F74C0000D0
S1130080174D0000D74C0000D74C0000D74C00009F
S1130090D74C0000D74C0000D74C0000D74C0000D0
S11300A0D74C0000374D0000D74C0000D74C00005F
S11300B0D74C0000D74C0000594D00007D4D000086
S11300C0FFFFFFFFFFFFFFFFFFFFFFFFFFFFFFFF3C
S11300D0FFFFFFFFFFFFFFFFFFFFFFFFFFFFFFFF2C
S11300E0FFFFFFFFFFFFFFFFFFFFFFFFFFFFFFFF1C
S11300F0FFFFFFFFFFFFFFFFFFFFFFFFFFFFFFFF0C
S113041064080000FFFF1E2D2D2D204D65637269B9
S113042073702D5374656C6C6172697320436F72C1
S113043065202D2D2D0007B59048002B09D000F024
S11304403BF800F041F800F027F8426028210160F1
S1130450F3E707BD00B5894800230168282905D1C1
S1130460426800F004F800F04CF8F6E700BD03B56C
S1130470043F3E601600043F3E601E0008B400F0D6
S1130480CFFF08BC0133043F3E607D4E043F3E6015
S11304907C4E04F040FA03BD03B5013B043F3E60CB
S11304A01E0008B400F0A6FF08BC3200043F3E6002
S11304B0754E04F030FA03BD03B5744801681E2973
S11304C001D000F034F803BD8169016201698161E2
S11304D08168016101688160C16941624169C161EA
S11304E0C16841614168C1601E21016070470FB558
S11304F0624801681E2903D0FFF7DEFFFFF7E4FF1F
S11305000FBD02B581680160C168416000E002B5B9
S1130510016981604169C16081690161C1694161A9
S1130520016A8161416AC1611E21016202BD08B58F
S113053001681E220260082901D20B0004E0282968
S11305400DD1436800F05DF8043F3E60504E03F067
S11305507AF8043F3E604F4E1E4303F074F808BD22
S113056000B500F009F800F00CF800F00FF800F006
S113057012F800F015F800BD0FB54448FFF7D7FF97
S11305800FBD0FB54448FFF7D2FF0FBD0FB5434869
S1130590FFF7CDFF0FBD0FB54148FFF7C8FF0FBDF3
S11305A00FB536480168062202601E2905D1043FB2
S11305B03E603C4E03F047F814E0282909D1436813
S11305C0043F3E601E00043F3E60062602F098FC95
S11305D008E0062906D0043F3E60334EC9000E43AE
S11305E003F031F800F001F80FBD24481E21016228
S11305F0816101618160C162062101600021816223
S1130600704707B5043F3E601E0000F04FF8043FFA
S11306103E601E0002F074FC07BD07B5C16A2829BC
S113062004D1016B994201D1002307BD016800295F
S113063018D08168002915D00169002912D0816978
S113064000290FD0016A00290CD00363043F3E60E7
S11306501E00043F3E60002602F052FC2821C162C5
S1130660002307BD043F3E601E0000F01FF8043F56
S11306703E601E0002F044FC07BD000028F0FF1F8E
S1130680A4110000610200000020000048F0FF1FD8
S1130690043F00003860000040F0FF1F38F0FF1FE7
S11306A030F0FF1F40CF00000646000037B5364843
S11306B00168826803698469056A062000F00EF8FF
S11306C0032000F00BF8022000F008F8012000F0ED
S11306D005F800232C481E21C16237BD814209D090
S11306E0824207D0834205D0844203D0854201D0A0
S11306F0030037BD7047043F3E60244E00B5815867
S11307001E2905D1FFF7D2FF8350012199400E43E2
S113071000BD00B501681E2904D10022FFF7EBFFDC
S113072002F091FF00BD00B581681E2907D108229F
S1130730FFF7E1FF0022FFF7E1FF02F084FF00BDB5
S113074000B501691E290AD11022FFF7D4FF08223F
S1130750FFF7D4FF0022FFF7D1FF02F074FF00BDC2
S113076000B581691E290DD11822FFF7C4FF10229C
S1130770FFF7C4FF0822FFF7C1FF0022FFF7BEFF07
S113078002F061FF00BD000028F0FF1F00CF000051
S113079000B50168282904D14368FFF732FF0360DC
S11307A0190000BD00B58168282904D1C368FFF78A
S11307B028FF8360190000BD00B50169282904D110
S11307C04369FFF71EFF0361190000BD3EB582684F
S11307D003698469056A9A4203D0A24201D0AA42FD
S11307E00AD1072A08D8043F3E60D600FFF75EFF0F
S11307F01E43836002F027FF3EBD3EB50168826858
S113080003698469056A914206D0994204D0A142E1
S113081002D0A94200D03EBD043F3E60CE00FFF7A7
S113082045FF1E43036002F00EFF3EBD00B5FFF717
S113083068FEFFF75CFEFFF739FF036000BD01B5FA
S113084006480368013307D00023DB430360043FF9
S11308503E60034E02F0F7FE01BD0000D82F0020D9
S113086000B500008808000042020432647570007C
S11308703868043F3E60043F3860704700B500F0BC
S1130880E3FC00F0E1FC00BDA808000062020532B0
S113089064726F70043740CF704700B500F084FC79
S11308A000F082FC00BDC046F0080000440205329E
S11308B07377617007CF043F3860043F3E60043FA4
S11308C03A600E00704700B5FFF74AFF02680369FB
S11308D003600261426843694360426182688369DC
S11308E083608261C268C369C360C26100BDC046DF
S11308F018090000620204326E69700007CF043FD9
S11309003860704700B5FFF72BFFFFF7DCFFFFF7F8
S1130910F8FDFFF7F6FD00BD340900004400053280
S11309206F766572B868043F3E60043F3860FE68C5
S11309307047C04658090000440005327475636B63
S113094007CF043F3860043F3E60043F3A60043FF1
S11309503960043F386070477C0900004600043267
S1130960726F74003868B9683A69B86039613A607E
S113097079687E60FE68F9607047C046A00900008F
S1130980460005322D726F743868B9683A69386167
S11309903960BA60F968FE607E6879607047C04665
S11309A0C8090000200203323E7201CF01B440B4F2
S11309B040CF704700B5FFF742FF00F019FC00F08C
S11309C0BBFC00F0B9FC00BDF409000020020332B6
S11309D0723E043F3E6040BC01BC043F3860704737
S11309E000B5FFF72CFF00F0C2FC00F0C0FC00F0E3
S11309F0FFFB00BD240A0000200203327240043FC2
S1130A003E60019E043F3E60009E704700B5FFF7C4
S1130A1016FF043F3E600C4E03F02FFB03F02AFB4D
S1130A2000BDC046500A0000200206327264726F94
S1130A30700002B0704700B5FFF701FF043F3E604D
S1130A40024E02F000FE00BD0198000002B000005A
S1130A50680A000042000364322F3868F1077610F8
S1130A604008084338607047800A0000620203644B
S1130A70322A3868001876413860704719E0C04659
S1130A809C0A000042000464736872003868F1072D
S1130A9076084008084338607047C046E80A0000FA
S1130AA06202046473686C00386800187641386028
S1130AB0704700B5FFF737FEFFF76AFEFFF79DFEAC
S1130AC000F096FBFFF764FEFFF797FE043F3E60DD
S1130AD0402601F01DFD00F08BFB043F3E60404EBC
S1130AE001F016FD00BDC046FC0A0000420004648B
S1130AF061627300002E08D47047C0461C0B0000CE
S1130B00420007646E656761746538680021C043FC
S1130B10F64301304E4138607047C0466C0B00000C
S1130B20640202642D0007CF121AB1410E00043F83
S1130B303A60704700B5FFF713FE00F0AEFBFFF715
S1130B4027FEFFF75AFE00F053FBFFF721FEFFF7E5
S1130B5054FEFFF7B8FE01F05CFC00F0BBFB043F61
S1130B603E60204E00F03FFD00BDC046B80B0000C3
S1130B70640202642B0007CF12184E41043F3A600E
S1130B80704700B5FFF7ECFD00F087FBFFF700FEB0
S1130B90FFF733FE00F02CFBFFF7FAFDFFF72DFE05
S1130BA0FFF791FE01F01FFC00F094FB043F3E6050
S1130BB00B4E00F01CFD00BDEC0B00006102037342
S1130BC03E64043F3E60F617704700B500F0DAFA61
S1130BD0FFF713FE043F3E60034E01F051FC00BDDD
S1130BE04041000080410000C0170000180C0000C4
S1130BF0420003756D2A3868030073433B60010C9F
S1130C00320C0B005343B6B280B24E4350433618F5
S1130C10360CF6187047C046480C00004200026DBE
S1130C202A003868C11705D040423860F01704D054
S1130C307642E0E7F017DED0764200B5FFF7DBFF3F
S1130C40FFF763FF00BDC046880C00004400037535
S1130C50642A07CF564341437618010C130C5943B9
S1130C607618010C80B292B25143434350430022A0
S1130C70C91852411204B6180A04090C80184E41CE
S1130C80043F38607047C0461C0D000044000475E2
S1130C90646D2A0010B50024043F3E607E68043F62
S1130CA03E603E69FFF7A7FF310040CF300040CFE0
S1130CB0043F3E603E68043F3E60FE6803B4FFF7B5
S1130CC09AFF03BC330040CF320040CF043F3E6064
S1130CD03E68043F3E603E690FB4FFF78CFF0FBCD3
S1130CE09219634140CF89196241634140CF043F67
S1130CF03E607E68043F3E60FE680FB4FFF77BFFF2
S1130D000FBC9219634140CF89196241634140CFBE
S1130D101E003A607960B86010BDC046400D000006
S1130D204300022A2F0000B540B440CFFFF779FFFB
S1130D30043F3E6040BC00F04FF8043700BDC0469D
S1130D40640D00004300052A2F6D6F6400B540B4A4
S1130D5040CFFFF766FF043F3E6040BC00F03CF824
S1130D6000BDC046880D0000430003752A2F00B55E
S1130D7040B440CFFFF73FFF043F3E6040BC00F06B
S1130D801CF8043700BDC046AC0D000043000675D6
S1130D902A2F6D6F640000B540B440CFFFF72BFFDE
S1130DA0043F3E6040BC00F008F800BDCC0D0000DC
S1130DB0430006756D2F6D6F640000B5043F3E60FF
S1130DC0002600F01AF840CF043700BDEC0D0000F7
S1130DD04300056D2F6D6F6400B5043F3E60F61748
S1130DE000F034F840CF043700BDC046400E000088
S1130DF044000675642F6D6F640030B40023002234
S1130E007968B86835003C68402640004941524141
S1130E105B41AB4202D804D3A24202D3121BAB41C2
S1130E200130013EF1D10E0038607B60BA6030BC05
S1130E30704730B400237A68B9680020E2E7C046FE
S1130E40B80E0000440005642F6D6F6400B5F01700
S1130E5019D0FFF75AFEFFF72DFDF0170CD0FFF75E
S1130E6054FEFFF727FDFFF7C8FFFFF723FDFFF749
S1130E704CFEFFF71FFD00BDFFF71CFDFFF7BDFF94
S1130E80FFF743FE00BDFFF715FDF0170ED0FFF787
S1130E903CFEFFF70FFDFFF7B0FFFFF736FEFFF74D
S1130EA009FDFFF732FEFFF705FD00BDFFF702FD68
S1130EB0FFF7A3FF00BDC046D00E0000440002644B
S1130EC02F0000B5FFF7C2FFFFF718FD00BDC046B5
S1130ED0180F0000440002662A0000B5F0170DD078
S1130EE0FFF713FEFFF7E6FCF0170DD0FFF70DFE3A
S1130EF0FFF7D0FE40CF01CF386000BDFFF7DAFC2A
S1130F00F017F5D0FFF701FEFFF7C4FE40CF01CF85
S1130F103860FFF7FAFD00BD640F0000440002666C
S1130F202F0000B5F0170ED0FFF7EFFDFFF7C2FC5E
S1130F30F0170ED0FFF7E9FDFFF7BCFCFFF779FFD0
S1130F40FFF7DCFC00BDFFF7B5FCF017F4D0FFF7AA
S1130F50DCFDFFF7AFFCFFF76CFFFFF7D6FDFFF7F3
S1130F60CDFC00BDAC0F000020020232210006CFF0
S1130F703160726040CF704700B5FFF7E1FB016854
S1130F80426806B400F0D2FDFFF7B1FA06BC016076
S1130F90282905D0043F3E60614E00F0CAFD00BD23
S1130FA00432426000F0C2FD00BDC046F40F0000F0
S1130FB0200202324000043F70683860366870478F
S1130FC000B500F0DFF80168282909D0043F3E602D
S1130FD0544E00F08CFD00F00BF900F085FD00BDCF
S1130FE041680431416000F07FFD00F001F900F038
S1130FF07BFD00BD1410000044000364753C07CF62
S11310008E4204D801D1904201D8002670470026B0
S1131010F64370473410000044000364753E07CF64
S1131020B14204D801D1824201D80026704700267B
S1131030F643704754100000440002643C0007CF9C
S11310408E4204DC01D1904201DC00267047002668
S1131050F643704774100000440002643E0007CF5A
S1131060B14204DC01D1824201DC00267047002633
S1131070F64370479010000062020364303C04376A
S1131080F617704700B500F0C6F800F010FB00BD7D
S1131090B810000062020364303D01CF0643013EF4
S11310A0B641704700B5043F3E601F4E00F09FFA02
S11310B000F0D8FA00BDC046E0100000440203640A
S11310C03C3E07CF50404E400643013EB641F643F6
S11310D0704700B500F016F800F0D7FA00BDC0461E
S11310E02C110000440202643D0007CF50404E40E2
S11310F00643013EB641704700B500F003F800F026
S1131100B1FA00BD00B5FFF72BFB00F0C6F800F004
S1131110CFF900F0DFF800F0CBF900F0BDF900BD25
S113112040600000406800000043000040110000DF
S1131130200003737040043F3E603E007047C04689
S113114050110000200003737021370040CF704716
S113115064110000200003727040043F3E606E463C
S11311607047C04674110000200003727021B54618
S113117040CF704798110000610203647570043F0A
S11311803E60704706B5FFF7C4FA01684268FFF78E
S1131190AEF90160426006BDC4110000610204643E
S11311A0726F700040CF704700B501681E2905D1E9
S11311B0043F3E60A14E02F046FA00BDFFF7A1F9DC
S11311C000BDC046DC1100006100043F647570007E
S11311D0002E01D0043F3E607047C0460812000054
S11311E0620204737761700039683E600E007047D4
S11311F00CB5FFF798FA026883680360826042685E
S1131200C3684360C2600CBD341200006202036E06
S113121069700437704700B5FFF77BFA81681E29AF
S113122002D0FFF774F900BD043F3E60834E02F024
S11312300AFA00BD5C1200006202046F7665720057
S1131240043F3E607E68704700B5FFF76CFA816822
S1131250C268FFF74CF90160426000BD84120000CF
S11312606202047475636B0001CF083F7E603860CE
S1131270704700B5FFF757FAFFF784FF00F02AF82C
S113128000BDC046BC120000630203726F7403CF3A
S1131290083F78603E600E0070470EB5FFF750FAC5
S11312A00168826803698160026103604168C26801
S11312B04369C160426143600EBDC046E012000054
S11312C06302042D726F740003CF083F7E6039609F
S11312D00600704700B5FFF7E0FFFFF7DEFF00BD33
S11312E0F41200002000047069636B00B0003E58E3
S11312F07047C0460C1300000000056465707468F4
S11313004F49C91B043F3E608E08704728130000F4
S113131000000672646570746800043F3E606E46A7
S11313204849891B8E0870475C1300002002023E66
S1131330720040B440CF704700B5FFF780FAFFF762
S1131340E8F9FFF725FA043F3E603F4E01228A4048
S1131350164302F078F9FFF7D4F800BD90130000AB
S1131360200202723E00043F3E6040BC704700B55C
S1131370FFF765FAFFF7BBF8FFF798F90360043F3E
S11313803E60324E01229A40164302F05CF900BDE1
S1131390B0130000200202724000043F3E60009E31
S11313A0704700B5FFF74BFA02F064FE00BDC0467B
S11313B0D41300002002057264726F7001B070478C
S11313C000B5FFF73CFA043F3E60214E02F03BF9C2
S11313D000BDC046E8130000200005727069636B0D
S11313E0B6006E443668704714140000000004729E
S11313F06F6C6C00002E01D140CF7047B00039589B
S1131400C019031F1A6802600438013EF9D1043779
S11314100E007047541400000000052D726F6C6CB0
S1131420002E01D140CF7047386839464A680A60B7
S11314300431013EFAD1086040CF70470437000000
S11314408CF2FF1F8CF3FF1F00B4000000BC0000EF
S113145001B000006C140000620203616E6401CFED
S113146006407047043F3E606F4EC0E088140000A1
S113147062020362696301CFB04306007047043F10
S11314803E606A4EAFE0C046A01400006202026FE4
S1131490720001CF06437047043F3E60644EA6E0ED
S11314A0B8140000620203786F7201CF464070479F
S11314B0043F3E605F4E9AE0D01400006202012AAD
S11314C001CF46437047043F3E605B4E8FE0C04609
S11314D0F0140000410003636C7A300006D000264B
S11314E0400002D001D20136FAE770472026704747
S11314F000150000610003726F720120C64170473D
S113150014150000610003726F6C0020B619464187
S11315107047C0464815000062020761727368692B
S1131520667401CF30410600704700B5043F3E6049
S1131530424E043F3E60424EFFF7F5F841681F29D2
S113154028D91F21416025E070150000620206724F
S113155073686966740001CFF0400600704700B5F7
S1131560043F3E60374E043F3E60374E12E0C046B3
S1131570541600006202066C73686966740001CF39
S1131580B0400600704700B5043F3E602F4E043F54
S11315903E600026FFF7C7F80168282903D040CF32
S11315A000F021F800BD04374168FEF7AAFF0029C6
S11315B001D140CF00BD1F290AD889010E4302681A
S11315C0D2001643FFF732F91E4302F03CF800BD87
S11315D040CFFFF72BF9043F3E601D4E1B021E4314
S11315E002F031F800BD0FB5FFF79DF80CE00FB520
S11315F0FFF799F80168062901D1FFF7F9FD826820
S1131600282A01D1FFF7F4FDFFF7CCF8FFF7DEF845
S1131610FFF7BEF8C90082680E43164302F013F8C0
S1131620FEF76FFF0FBD0000004000008043000084
S1131630004300004040000040430000004100001F
S113164000100000C04000000008000080400000BE
S11316500020000078160000610202303D00013EC7
S1131660B641704700B500F003F900F006FFFEF73D
S113167048FF7349816200BDA01600006102033077
S11316803C3E013EB641F643704700B500F0F0F829
S113169000F0F3FEFEF735FF6A49816200BDC046E3
S11316A0C4160000610202303C00F617704700B512
S11316B000F0DEF8043F3E60634E00F0E1FE634953
S11316C0816200BDDC160000600004747275650060
S11316D0043F3E600026F6437047C046F016000003
S11316E060000566616C7365043F3E6000267047C8
S11316F0141700004202023E3D0001CFB042E9DA75
S113170000267047043F3E60514E043F3E60514EF8
S1131710BAE0C046381700004202023C3D0001CF47
S1131720B042D7DD00267047043F3E604A4E043F76
S11317303E604A4EA8E0C046581700004202013CF1
S113174001CFB042C6DB00267047043F3E60414EE5
S1131750043F3E603E4E97E0781700004202013E8F
S113176001CFB042B6DC00267047043F3E603B4EDA
S1131770043F3E60384E87E09C1700006202037508
S11317803E3D01CF861BB641F6437047043F3E60A1
S11317902C4E043F3E602A4E76E0C046C01700003F
S11317A0620203753C3D01CF361AB641F6437047D9
S11317B0043F3E602A4E043F3E602A4E64E0C04629
S11317C0E0170000620202753C0001CF861BB6419F
S11317D07047043F3E601A4E043F3E60194E53E08A
S11317E000180000620202753E0001CF361AB641AD
S11317F07047043F3E601B4E043F3E60184E43E07A
S1131800201800006202023C3E0001CF811B361A00
S11318100E437047043F3E60134E043F3E6033E086
S11318207C1900006202013D01CF361A013EB64127
S11318307047043F3E600D4E043F3E6024E00000CC
S113184000D2000000D30000C017000000D5000043
S113185000DB000000DA000000DC000000DD000016
S113186000D8000000D9000000D0000000D1000022
S113187000B5FEF74EFFFEF77FFEFEF782FEFEF791
S113188085FEFEF78FFF00BD00B5FEF74CFFFEF7A7
S113189073FEFEF776FEFEF78FFF8268282A04D1D6
S11318A0FFF7A6FC39683E600E4640CF0168282940
S11318B009D14168FF2906D8043F3E60634E0E43B8
S11318C08168090206E0FEF763FF043F3E60604E54
S11318D0C90016430E4301F0B6FEFEF712FEFEF7F2
S11318E010FE866240CF00BD0FB55A48816A0029B8
S11318F030D0043F3E60866A00218162310AD529D6
S113190001D140CF0FBDFEF7F2FDFEF7CFFE03601D
S1131910D22903D1504E00F0FBFD0FBDD32905D1D0
S11319204D4E00F0F5FD00F006FE0FBD023601F04D
S11319308AFE043F3E60494E00F00DF800F0FBFDC6
S1131940043F3E60464E01F07EFE043F3E60434E3F
S113195000F001F80FBD00B5FEF7DBFEFEF74DFF0A
S1131960016809020E4301F06EFE00BD00B5816AF4
S1131970090AD52901D1FEF7C4FD00BD981900005C
S11319806202036D696E01CFB04200DC060070474D
S1131990043F3E60334E2BE0B41900006202036D35
S11319A0617801CFB04200DB06007047043F3E601F
S11319B02D4E1DE0D4190000620204756D6178009B
S11319C001CFB04200D306007047043F3E60274E6B
S11319D00EE0C046781A0000620204756D696E005C
S11319E001CFB04200D806007047043F3E60204E4D
S11319F000B5FEF798FE01688268914203D140CF9A
S1131A00FEF785FD00BD062A01D1FFF7F1FB016851
S1131A10282901D1FFF7ECFBFEF7EFFEFEF7C2FE2B
S1131A20C9000268043F3E60094E0E43164301F0AC
S1131A300AFE01F008FE043F3E600E4E0E431643BC
S1131A4001F001FEFEF763FD00BD00000028000068
S1131A508042000028F0FF1F8041000000200000A9
S1131A6000E0000000DB000000DC000000D8000003
S1131A7000D3000000460000B81A00000000046D06
S1131A806F76650007B5310040CF320040CF0029A2
S1131A900FD0B2420DD006D3013E013A705C5054CF
S1131AA00139FBD105E0307810700136013201397B
S1131AB0F9D140CF07BDC046DC1A0000000004661F
S1131AC0696C6C00300040CF310040CF002902D057
S1131AD001397054FCD140CF7047C0461C1B000034
S1131AE02002014036687047043F3E60994E00B5BD
S1131AF0FEF70FFE0368282B08D143687C211940A8
S1131B0009010E437C218B43FEF787FDDB001E4356
S1131B10FEF78CFE1E4301F096FD00BD741B000011
S1131B202002012103CF30600E007047043F3E6065
S1131B30894E00B5FEF7F7FD0368282B09D14368E9
S1131B407C21194009010E437C218B43FEF765FD7E
S1131B500360DB001E438368282B02D1C368FEF7B1
S1131B6050FD1E4301F06FFDFEF7CBFCFEF7C9FCF0
S1131B7000BDC046AC1B00002002022B210003CF95
S1131B803268121832600E00704700B5FEF7CBFDC4
S1131B90FFF7F8FAFFF7A8FFFFF77FFB00F023FC3D
S1131BA0FFF726FBFFF7C2FF00BDC046F01B000095
S1131BB02002026840003688704700B5FEF7A9FD90
S1131BC0043F3E60654E0368282B08D143683E21DC
S1131BD0194049010E433E218B43FEF71EFDDB00F5
S1131BE01E43FEF723FE1E4301F02DFD00BDC0463B
S1131BF0481C000020020268210003CF30800E0040
S1131C00704700B5FEF78FFD043F3E60544E0368F5
S1131C10282B09D143683E21194049010E433E2136
S1131C208B43FEF7FAFC0360DB001E438368282B1A
S1131C3002D1C368FEF7E5FC1E4301F004FDFEF784
S1131C4060FCFEF75EFC00BD801C000020020368FF
S1131C502B2103CF3288121832800E00704700B552
S1131C60FEF761FDFFF78EFAFFF7A7FFFFF715FBFD
S1131C7000F0B9FBFFF7BCFAFFF7C3FF00BDC04695
S1131C80C41C00002002026340003678704700B58F
S1131C90FEF73FFD043F3E60324E0368282B08D117
S1131CA043681F21194089010E431F218B43FEF70E
S1131CB0B4FCDB001E43FEF7B9FD1E4301F0C3FC78
S1131CC000BDC0461C1D000020020263210003CF9A
S1131CD030700E00704700B5FEF725FD043F3E60EE
S1131CE0214E0368282B09D143681F21194089011B
S1131CF00E431F218B43FEF790FC0360DB001E4361
S1131D008368282B02D1C368FEF77BFC1E4301F0D5
S1131D109AFCFEF7F6FBFEF7F4FB00BD6C1D000019
S1131D20200203632B2103CF3278121832700E0085
S1131D30704700B5FEF7F7FCFFF724FAFFF7A7FF9B
S1131D40FFF7ABFA00F04FFBFFF752FAFFF7C3FFC0
S1131D5000BD000000680000006000000088000072
S1131D60008000000078000000700000AC1D00003E
S1131D70200204626973210003CF32680243326097
S1131D800E00704700B5FEF7CEFCFFF7FBF9FFF736
S1131D90ABFEFFF782FA043F3E60AB4EFFF727FC31
S1131DA0FFF726FAFFF7C2FE00BDC046EC1D000097
S1131DB0200204626963210003CF326882433260E7
S1131DC00E00704700B5FEF7AEFCFFF7DBF9FFF736
S1131DD08BFEFFF762FA043F3E609C4EFFF703FC64
S1131DE0FFF706FAFFF7A2FE00BDC0462C1E000056
S1131DF0200204786F72210003CF326842403260BF
S1131E000E00704700B5FEF78EFCFFF7BBF9FFF735
S1131E106BFEFFF742FA043F3E608D4EFFF7E7FB8F
S1131E20FFF7E6F9FFF782FE00BDC046601E000022
S1131E30200204626974400001CF36680640013E06
S1131E40B641F643704700B5FEF76DFCFFF74CFE54
S1131E50043F3E607F4EFFF7CAFBFFF716FC00BD50
S1131E60A01E0000200205686269732103CF328836
S1131E70024332800E00704700B5FEF754FCFFF7B2
S1131E8081F9FFF79AFEFFF708FA043F3E606E4EB1
S1131E90FFF7ADFBFFF7ACF9FFF7B3FE00BDC0469B
S1131EA0E01E0000200205686269632103CF3288C6
S1131EB0824332800E00704700B5FEF734FCFFF712
S1131EC061F9FFF77AFEFFF7E8F9043F3E605F4EE1
S1131ED0FFF789FBFFF78CF9FFF793FE00BDC046BF
S1131EE0201F000020020568786F722103CF32881A
S1131EF0424032800E00704700B5FEF714FCFFF735
S1131F0041F9FFF75AFEFFF7C8F9043F3E60504E0F
S1131F10FFF76DFBFFF76CF9FFF773FE00BDC046DA
S1131F20541F0000200205686269744001CF36889E
S1131F300640013EB641F643704700B5FEF7F3FB99
S1131F40FFF73BFE043F3E60424EFFF750FBFFF7B6
S1131F509CFB00BD941F000020020563626973218D
S1131F6003CF3278024332700E00704700B5FEF79B
S1131F70DAFBFFF707F9FFF78AFEFFF78EF9043F54
S1131F803E60314EFFF733FBFFF732F9FFF7A3FE54
S1131F9000BDC046D41F00002002056362696321AE
S1131FA003CF3278824332700E00704700B5FEF7DB
S1131FB0BAFBFFF7E7F8FFF76AFEFFF76EF9043F95
S1131FC03E60224EFFF70FFBFFF712F9FFF783FE87
S1131FD000BDC0461420000020020563786F722102
S1131FE003CF3278424032700E00704700B5FEF7DE
S1131FF09AFBFFF7C7F8FFF74AFEFFF74EF9043FD5
S11320003E60134EFFF7F3FAFFF7F2F8FFF763FEB3
S113201000BDC04658200000200205636269744078
S113202001CF36780640013EB641F643704700B50D
S1132030FEF779FBFFF72BFE043F3E60054EFFF7EA
S1132040D6FAFFF722FB00BD0043000080430000E6
S113205040400000004000006821000000000666C7
S11320606C6173682100300040CF310040CF854B54
S1132070984268D3844B99422ED0032202402CD13B
S113208002689A4246D1814A137880221A40FAD0D3
S113209030221A4002D07D4A302313707C4A062332
S11320A013707C4A1070000A7B4A1070000A7B4A45
S11320B010707B4A1170090A7A4A1170090A7A4A27
S11320C01170090A794A1170704A802313706F4A9B
S11320D0137880221A40FAD0704700F0C3FD3041D3
S11320E06464726573732068617320746F20626521
S11320F020342D616C69676E656420666F72207789
S1132100726974696E6720666C61736820210A00C5
S113211002F00AFD00F0A6FD29466C617368206C8C
S11321206F636174696F6E2063616E6E6F74206299
S113213065207772697474656E20747769636520AD
S1132140210A02F0F1FC00F08DFD1943616E6E6FFF
S11321507420777269746520696E746F20636F727E
S11321606520210A02F0E0FCEC21000000000E666C
S11321706C617368706167656572617365000FB542
S1132180300040CF3F4B984220D3032398433F4A2B
S1132190137880221A40FAD030221A4002D03B4AE7
S11321A0302313703A4A092313703A4A1070000A14
S11321B0394A1070000A394A1070344A8023137067
S11321C0324A137880221A40FAD00FBD00F04AFD3B
S11321D01443616E6E6F7420657261736520636F62
S11321E0726520210A0002F09FFCC04668220000AC
S11321F000000A6572617365666C6173680021484A
S113220072B62B492B4A036893421CD0043F3E60AC
S11322100600043F3E6000F025FD104572617365C1
S113222020626C6F636B20617420200000F092FDCB
S113223000F018FD0C2066726F6D20466C617368A7
S11322400A00FFF79CFF04308842DCD100F00AFD4D
S11322501246696E69736865642E205265736574ED
S113226020210A0002F0FEFC0023000000000E659D
S113227072617365666C61736866726F6D003000BD
S113228040CFBDE700500000FFFFFFFF0000024009
S1132290070002400400024005000240060002401C
S11322A008000240090002400A0002400B000240FC
S11322B000000200FFFFFFFF464860210022028069
S11322C002300139FBD17047424860210288002A5C
S11322D012D000F0C7FC1D556E70616972656420F0
S11322E031362D62697420466C6173682077726997
S11322F074652E0A02F018FC02300139E6D17047E9
S1132300D823000000000768666C6173682130B54B
S1132310320040CF500813D300F0A4FC1E68666C52
S113232061736821206E65656473206576656E202F
S11323306164647265737365732E0A0002F0F4FBC2
S11323400223534023482021048845882D042C432C
S11323509C422AD006300139F6D11E482021048837
S113236045882D042C431AD006300139F7D100F0EA
S113237079FC27546F6F206D616E7920756E7061E2
S1132380697265642031362D62697420466C61730C
S113239068207772697465732E0A02F0C5FB0280A7
S11323A0120C4280868040CF30BD0221114003D000
S11323B0023A8188360401E0818809040E43043F0F
S11323C03E6016000021018041808180FFF74BFEB2
S11323D030BD00008CF3FF1F042400006202012BB7
S11323E001CF3618704700B5FEF79DF9043F3E60F3
S11323F0D14E043F3E60D14E8168282912D1FEF7A8
S1132400F7FE0FE06C2400006202012D01CF861B51
S1132410704700B5FEF787F9043F3E60C84E043F9D
S11324203E60C84EFEF7BEF9016828290ED1416806
S1132430FF290BD840CFFEF7C9F90E438168090282
S11324400E4301F000F9FEF75CF800BD0437FEF717
S11324509FF989018268D2000E431643FEF751F8B2
S1132460FEF7E4F91E4301F0EEF800BD98240000E5
S1132470610202312D00013E7047043F3E60B24EBE
S113248000B5FEF746F90168C9000E43FEF7CEF920
S11324901E4301F0D8F800BDB024000061020231EF
S11324A02B0001367047043F3E60A84EE8E7C04663
S11324B0C8240000610202322D00023E7047043F2E
S11324C03E60A34EDCE7C046E02400006102023215
S11324D02B0002367047043F3E609E4ED0E7C04654
S11324E0F824000061020563656C6C2B04367047A8
S11324F0043F3E60984EC3E7282500006102066E43
S113250065676174650076427047043F3E60934E90
S113251000B5FEF7FEF8FEF770F901680E43C90036
S11325200E4301F090F800BD402500006102036EE7
S11325306F74F6437047043F3E60894EE8E7C04637
S11325405825000061020373687276087047043FDF
S11325503E60844EDCE7C0466825000061020373D8
S1132560686C7600704706E0802500006102023244
S11325702A0076007047043F3E604026C8E7C04604
S11325809825000061020563656C6C73B6007047A2
S1132590043F3E608026BBE7B025000061020232A2
S11325A02F0076107047043F3E606F4EB0E7C04680
S11325B0E8250000610203616273F0173618464093
S11325C0704700B5FEF7A5F8043F3E60674E01680A
S11325D009020E4301F037F8043F3E60644E01F0F7
S11325E032F8FFF792FF00BD302600004200057567
S11325F02F6D6F64310040CF002903D1043F3E604A
S113260000267047012200238E4206D9003104D4EB
S11326105200490001D48E42FAD88E4201D3761A70
S1132620134349085208F8D1043F3E601E00704726
S1132630A02600004200042F6D6F640000B5300036
S113264040CF002E1CDA764200280CDA4042043FC8
S11326503E600600FFF7CEFF300040CF7642043FD5
S11326603E60060000BD043F3E600600FFF7C2FF67
S1132670300040CF40427642043F3E60060000BD39
S1132680002807DA4042043F3E600600FFF7B2FF2D
S1132690764200BD043F3E600600FFF7ABFF00BD7D
S11326A0B42600004200036D6F6400B5FFF7C6FF57
S11326B040CF00BDC82600004200012F00B5FFF73F
S11326C0BDFF043700BDC046DC2600006100046580
S11326D076656E000120304036187047F4260000FD
S11326E08100046261736500043F3E60214E7047BF
S11326F00A0000000C27000000000662696E617287
S113270079001C48022101607047C046242700005C
S1132710000007646563696D616C16480A210160F5
S11327207047C046C0270000000003686578114860
S11327301021016070470000003000000018000004
S113274000380000001A0000401E0000401C000079
S1132750801E0000801C0000001D0000404200009C
S1132760C0430000400800004010000000280000A2
S113277000D50000FC2F0020804981480160814978
S11327808148016081498248016082498248016030
S113279082480160002182480170824801708248A9
S11327A0017082480170062181480170002181482E
S11327B001701A21804801700C217948017070471A
S11327C0DC270000810009686F6F6B2D656D6974EB
S11327D0043F3E60794E7047D2280000F82700007D
S11327E0810008686F6F6B2D6B657900043F3E6054
S11327F0734E7047FA2800001828000081000A6808
S11328006F6F6B2D656D69743F00043F3E606D4EC4
S1132810704728290000C046342800008100096858
S11328206F6F6B2D6B65793F043F3E60664E70475A
S11328305A2900005428000081000A686F6F6B2D2C
S1132840706175736500043F3E60604E7047124CC2
S11328500000C0466C280000000004656D69740027
S11328600FB5564800F029F80FBDC0468028000077
S11328700000036B65790FB5514800F01EF80FBDD9
S113288094280000000005656D69743F4D48006898
S11328908746C046A82800000000046B65793F0005
S11328A0494800688746C046C028000000000570FB
S11328B06175736545480068874600688746C04669
S11328C0E828000000000B73657269616C2D656D6A
S11328D0697400B500F028F8002E40CFFAD03C48C7
S11328E0067040CF00BDC0461429000000000A73E2
S11328F0657269616C2D6B65790000B500F02DF887
S1132900002E40CFFAD03248043F3E600678F6B23B
S113291000BDC0464829000000000C73657269615F
S11329206C2D656D69743F0000B5FFF7C3FF29483E
S113293008210170043F3E60002626488022017869
S1132940114000D0F64300BDD829000000000B73ED
S1132950657269616C2D6B65793F00B5FFF7AAFF5D
S11329601C4808210170043F3E60002619482022BB
S11329700178114000D0F64300BD0000803F000004
S113298038800440300400F0348004400000000427
S113299004800440000200000490044008900440B5
S11329A003A0064002A0064006A0064005A006407B
S11329B00AA0064000A0064001A00640F82F00200F
S11329C0F42F0020F02F0020EC2F0020E82F00200F
S11329D007A0064004A00640FC290000000007638D
S11329E065787065637400B5386801B40130386087
S11329F000F00BF801BC067040CF00BD742A000043
S1132A000000066163636570740000B502CF01398C
S1132A100022FFF730FF300040CF7F2809D0202864
S1132A2019D2092816D00A281FD00D281DD008282D
S1132A30EFD1002AEDD000F015F903082008002A90
S1132A40E7D0885C013A80230340E2D0402303406E
S1132A50F5D0DEE72020B242DBD2043F3E60060020
S1132A60FFF7FEFE01328854D3E7160000F0A8F801
S1132A7000BDC046882A0000400003746962043F18
S1132A803E602B4E7047C046A02A00008100033EE2
S1132A90696E043F3E60274E704700000000C04648
S1132AA0C82A000082000E63757272656E742D73FD
S1132AB06F7572636500043F3E601F4E70470000EF
S1132AC00000C4F0FF1FC046E42A000000000973A0
S1132AD06574736F75726365174802CF0660416051
S1132AE040CF7047042B0000000006736F757263BB
S1132AF06500043F3E60104E043F706838603668DD
S1132B007047C0463C2B0000000005717565727962
S1132B100FB5084800210160FFF7B1FF043F3E6094
S1132B20043F3E60C826FFF770FFFFF7D5FF0FBDD7
S1132B30C4F0FF1FE42F0020DC2F00208C2B0000AA
S1132B40000007636F6D706172650FB5310040CF8F
S1132B5001CF884202D040CF00260FBD02CF00280B
S1132B6010D001380A5C335C412A02D35B2A00D2BC
S1132B702032412B02D35B2B00D220339A42EED079
S1132B8000260FBD0026F6430FBDC046A02B000053
S1132B9000000263720000B500F064F8010A00BD91
S1132BA0B42B0000000002626C00043F3E6020264B
S1132BB07047C046C82B0000000005737061636550
S1132BC0043F3E6020264BE6E82B0000000006731D
S1132BD070616365730000B5002E03DDFFF7F0FF3D
S1132BE0013EFBD140CF00BDF82B00005000065B36
S1132BF0636861725D0005E0102C0000000004634E
S1132C006861720000B501F017FC40CF367800BD52
S1132C10202C000050040128043F3E60292606E0D1
S1132C203C2C00005004015C043F3E60002600B5CB
S1132C3001F00CFC043740CF00BDC046842C0000DA
S1132C401000022E22009F4800B5043F3E6006009B
S1132C5000F0F8F9043F3E60222601F0F7FB00F093
S1132C6032FD00BD0AB4043F3E607646013E33782F
S1132C700121013319405B187146C9188E460ABCFC
S1132C803CE0C046AC2C00001000026322008E48D9
S1132C90DAE7043F3E607646013E33780121013392
S1132CA019405B187146C9188E467047D82C00002D
S1132CB01000027322008548C6E7043F3E60764652
S1132CC0043F3E60013E36780121731C19405B18B5
S1132CD07146C9188E467047F02C00000000056349
S1132CE06F756E740136043F3E60013E367870475E
S1132CF0182D0000000005637479706501B5307803
S1132D00002807D00136043F3E603678FFF7A8FD5F
S1132D100138F7D140CF01BD482D000000000474F4
S1132D2079706500310040CF300040CF00B50029F4
S1132D3008D00022043F3E60865CFFF791FD01321B
S1132D409142F7D100BDC046842D00000000046804
S1132D5065782E0007B5310040CF20200F220438BB
S1132D60043F3E600E00C6401640092E01D9373696
S1132D7000E03036FFF774FD0028F0D1FFF720FFA4
S1132D8007BDC046942D0000000003682E731FB5D4
S1132D904F4C0EE0A42D0000000003752E731FB5E8
S1132DA04C4C06E0242E00000000022E73001FB5D8
S1132DB0494C4A49C91B8908494A106803B40A2086
S1132DC01060FFF74FFF08537461636B3A205B0098
S1132DD0043F3E600E0001F017FDFFF743FF025D64
S1132DE0200003BC3E4A106000290AD03D4A106806
S1132DF006B4043F3E600600A04706BC043A01390D
S1132E00F5D1FFF72FFF0620544F533A2000043F1B
S1132E103E603600A047FFF725FF04202A3E0A0043
S1132E201FBDC046E82E0000000005776F72647372
S1132E3000B5FFF717FF010A00F085FEFFF712FF48
S1132E4009416464726573733A20043F3E60FFF77E
S1132E5081FFFFF707FF064C696E6B3A2000043FC1
S1132E603E603668FFF776FFFFF7FCFE07466C61AD
S1132E7067733A20043F3E60B688FFF76BFFFFF7A5
S1132E80F1FE06436F64653A2000B01D00F096FE23
S1132E90043F3E600600FFF75DFFFFF7E3FE064ECA
S1132EA0616D653A2000043F3E600636FFF726FF59
S1132EB0FFF7D8FE010A00F05EFE300040CFBDD01F
S1132EC040CF00BD642C0000922C0000BA2C0000FE
S1132ED0552D0000F7470000094800008CF2FF1F41
S1132EE0FC2F002088F2FF1F383000000000107211
S1132EF0656769737465726C69746572616C2C00C2
S1132F003FB5A64B3868184098420FD13868C04383
S1132F10386040B400F00DF8043F3E60A04E01BCA0
S1132F200643C000064300F08EFB3FBD00F001F8ED
S1132F303FBD00B5350040CF2900C90029432D020B
S1132F4098480543FF2300223000D040984301D025
S1132F500132F9E73000D04018402843043F3E6076
S1132F60060000F070FB904805431800904086432B
S1132F7010D000243000E040984301D00134F9E738
S1132F80101B043F3E600E008001064300F05BFB13
S1132F902200DFE7002A06D0043F3E600E009201C3
S1132FA0164300F050FB40CF00BD1FB5310040CFA9
S1132FB07E4C0C43C9000C434901300040CF020E43
S1132FC0FF231A40774B0B431343043F3E601E001C
S1132FD000F039FB043F3E60260000F034FB020C95
S1132FE0FF231A40724B0B431343043F3E601E0001
S1132FF000F029FB043F3E60260000F024FB020A97
S1133000FF231A406A4B0B431343043F3E601E00E8
S113301000F019FB043F3E60260000F014FB0200A0
S1133020FF231A40624B0B431343043F3E601E00D0
S113303000F009FB1FBDC046A83000000000056376
S1133040616C6C2C0FB5330000F05CFE300040CF97
S11330501B1A043B5749194000290ED0564A914285
S11330600BD00136043F3E600026FFF749FF043FC2
S11330703E60524E00F0E7FA0FBD40CF5B08504867
S1133080504919400843DB0A4F49194009040843D1
S11330909B0A0121194089060843043F3E6006004B
S11330A000F001FB0FBDC046DC3000000000086CDE
S11330B069746572616C2C0000B5043F3E60434E38
S11330C000F0C1FA043F3E60414E00F0BCFA043FF8
S11330D03E600626FFF714FF00BDC0460431000021
S11330E00000066372656174650000B500F03DF888
S11330F03120000223308047043F3E607646013E83
S113310000BDC0465C310000200005646F65733E5D
S11331103120000223308047043F3E607646013E62
S11331207047043F3E607646013E2A4A13682A49A6
S113313009680220084000D10231023111600136D1
S1133140043F3E600026FFF730FF043F3E601B4E05
S113315000F079FA136000F0EAF900BDE0310000F4
S11331600000073C6275696C647300B500F078FB7D
S113317000F0C8FD0220064040CF04D1043F3E6069
S1133180362600F060FA043F3E60144E00F05BFA0D
S1133190043F3E60102600F0C9FA00BD0000FFFFA6
S11331A0C0430000002000000010000000020000E6
S11331B0003000000100C0FF0000C0FF8047000095
S11331C000F800F0FF070000FF030000043F0000C8
S11331D03E60000000F0FF1F14F0FF1F00B5000068
S11331E0EC3100005000035B275D03E00432000073
S11331F00000012700B501F01FF900F01EFD3000AA
S113320040CF00BD3C320000300008706F73747012
S11332106F6E650000B5FFF7EDFF043F3E600600EA
S113322039683E600E46FFF747FFFFF745FF043F4E
S11332303E60E44EFFF706FF00BDC0468832000042
S1133240000007696E6C696E652C00B5DE49DF4AC3
S1133250DF4B3088884208D0904208D0984206D08C
S1133260043F3E60060000F0EEF90236F1E740CF7D
S113327000BD0EB4D54AD64B01880230914201D02C
S11332809942F9D10EBC70479C32000000000472D0
S113329065742C00043F3E60CC4ED4E1AC32000097
S11332A03000046578697400F4E7C046C432000055
S11332B030000772656375727365043F3E60C54EE6
S11332C03668BFE6DC320000810005737461746502
S11332D0043F3E60C04E704700000000F032000022
S11332E00000015DBC480021C94301607047C0462D
S11332F0003300001000015BB748002101607047F3
S1133300203300000000013A00B5B448076000F023
S1133310A7FAB14801210160B1480021016000BD54
S11333208C3300003008013B00B5AC480168B94259
S11333300ED0FFF797FC1520537461636B206E6FFA
S1133340742062616C616E6365642E0A01F0ECFBAB
S1133350A1480068411C0ED00B2804D8043F3E60ED
S1133360A04E00F015F9043F3E60994E00F06BF951
S113337001F0E7FA04E0043F3E60944E00F063F984
S113338000F0D5F894480021016000BDA03300008E
S113339000000765786563757465300040CF874623
S11333A0B8330000100809696D6D6564696174655E
S11333B0043F3E601026EBE0D0330000100806699D
S11333C06E6C696E6500043F3E602026E0E0C046F6
S11333D0EC33000010080B636F6D70696C656F6EE1
S11333E06C79043F3E603026D2E0C04608340000C9
S11333F010080A302D666F6C6461626C6500043FCE
S11334003E604026C4E0C0462434000010080A315F
S11334102D666F6C6461626C6500043F3E604126FA
S1133420B6E0C0464034000010080A322D666F6CC6
S11334306461626C6500043F3E604226A8E0C046B9
S11334405C34000010080A332D666F6C6461626C92
S11334506500043F3E6043269AE0C046783400008D
S113346010080A342D666F6C6461626C6500043F59
S11334703E6044268CE0C0469434000010080A35AF
S11334802D666F6C6461626C6500043F3E60452686
S11334907EE0C046B034000010080A362D666F6C1A
S11334A06461626C6500043F3E60462670E0C0467D
S11334B0CC34000010080A372D666F6C6461626CAE
S11334C06500043F3E60472662E0C046FC340000CD
S11334D0000008636F6E7374616E740000B500F0D1
S11334E0BFF9FFF7E9FD043F3E60394E00F0ABF849
S11334F0FFF785FF00F01BF800BDC0462035000033
S113350000000932636F6E7374616E7400B500F06D
S1133510A7F939683E600E46FFF7CEFDE1E7C046E5
S113352080350000000006736D756467650000B5A2
S11335302D4801682C4A91421CD202390A882B4B2F
S11335409A4204D1043F3E60294E00F07CF800F01A
S113355069F828480068043F3E6006002649096867
S11335600431214A1368116000F06DF81360FEF70E
S1133570ABFE00BD00F056F8043F3E60002608E0B4
S1133580FC350000000008736574666C61677300A5
S113359000B515480168144A914205D215480168DE
S11335A03143016040CF00BD320040CF1248006873
S11335B0043001880D4B994201D1110000E0114300
S11335C0018000BD4648000000B5000000BD0000B9
S11335D07047000014F0FF1FD82F002010F0FF1FC9
S11335E05CF0FF1F2008000000F0FF1FFFFF000039
S11335F00000000020F0FF1F04F0FF1F1836000039
S1133600410007616C69676E6564012030403618BB
S113361002203040361870473C3600000000056137
S11336206C69676E00B5834801680220014004D0CC
S1133630043F3E60002600F006F800BD803600001E
S1133640000002682C000FB5B6B27B48016800295F
S113365002D0013100D0016076480168754A914278
S113366005D2043F3E600E00FEF751FE02E0320038
S113367040CF0A80043F3E60022600F057F80FBD99
S11336809C3600000000012C00B5043F3E60FFF7AB
S1133690DAFF360CFFF7D7FF00BDC046B83600008E
S11336A00000033E3C2C00B5043F3E60360CFFF79F
S11336B0CAFFFFF7C8FF00BD2037000000000773F2
S11336C07472696E672C07B5FF21314040CF30001A
S11336D040CF002905D1043F3E600026FFF7B3FF29
S11336E007BD043F3E60067836020E43FFF7ABFF8A
S11336F00130013902290AD3043F3E60467836027C
S113370002781643FFF79FFF02300239F2E70029DF
S113371000D107BD043F3E600678FFF794FF07BD64
S11337207C370000000005616C6C6F7441480168CF
S1133730404A91420FD2320040CF89183F4A914209
S113374019D3FFF78FFA0B466C6173682066756CAA
S11337506C0A01F0E9F9320040CF8918384A12683E
S1133760914208D3FFF77EFA0952616D2066756CA9
S11337706C0A01F0D9F901607047C046A437000013
S113378000000D636F6D70696C65746F72616D3FDD
S1133790043F3E600026274800682649884248D3F3
S11337A0F6437047C437000000000C636F6D706906
S11337B06C65746F72616D001E4800681D49884213
S11337C011D370475038000000000E636F6D7069AC
S11337D06C65746F666C61736800164800681549FF
S11337E0884200D270471748174902680B680A607C
S11337F003601048154902680B680A6003601048AA
S11338000068834215D300B5FFF72CFA23205661D4
S1133810726961626C657320636F6C6C69646520A6
S1133820776974682064696374696F6E6172790A78
S113383000BD704700F0FF1FD82F002000000200D9
S113384024F0FF1F04F0FF1F1CF0FF1F18F0FF1FE0
S11338503C39000000000828637265617465290022
S113386000B500F0E9FD002E0ED1FFF7FBF915209D
S1133870437265617465206E65656473206E616D65
S11338806520210A01F050F93868043F3E60043F86
S1133890386000F0A3F940CF002E40CF11D0386833
S11338A0043F3E60043F3860FFF7DCF90952656469
S11338B06566696E6520FFF735FAFFF7D3F9022EC6
S11338C00A00FFF7AFFE00F01DFA8D4800688C492E
S11338D088421CD28B4800210160043F3E600626CA
S11338E0FFF724FFFDF7F0FCFFF7EDFE86480168C3
S11338F00A68864B9A4207D1814A13681160043FD3
S11339003E60FFF7C1FE1360066040CF10E07E48C2
S1133910043F3E600668FFF7B7FE043F3E607C4EFE
S1133920FFF791FE7848310040CF0160FFF7CBFEEE
S1133930734801687748016000BDC04654390000EF
S11339400000087661726961626C6500043F3E6044
S1133950012613E06C3900000000093276617269B7
S113396061626C65043F3E60022607E0443A000051
S11339700000096E7661726961626C6500B5FFF7DB
S11339806FFF5F4801685E4A914233D20F200640C0
S1133990B20061480168891A604A91420BD2FFF76C
S11339A061F90F4E6F7420656E6F75676820524120
S11339B04D0A01F0B9F80160043F3E600E00FFF7C4
S11339C07BFB043F3E60564EFFF73DFE300040CF88
S11339D00200002805D00E600431FFF755FE0138BF
S11339E0F9D1043F3E6080261643FFF7D1FDFFF76F
S11339F09EFD00BD00F086F90220064040CF04D1B0
S1133A00043F3E603626FFF71EFE043F3E60454EEF
S1133A10FFF749FE043F3E60434EFFF744FE043F78
S1133A203E603F4EFFF70FFE300040CF002803D02A
S1133A30FFF72AFE0138FBD1FFF7E1FCFFF777FD22
S1133A4000BDC046303B0000000007627566666535
S1133A50723A00B5FFF704FF012030403618022007
S1133A603040361826480168254A914226D22A4811
S1133A700168891B294A91420BD2FFF7F3F80F4ED4
S1133A806F7420656E6F7567682052414D0A01F0AE
S1133A904BF80160043F3E600E00FFF70DFB043F4E
S1133AA03E601F4EFFF7CFFDFFF7EEFD043F3E6083
S1133AB01E4EFFF76DFDFFF73AFD00BD00F022F941
S1133AC00220064040CF04D1043F3E603626FFF773
S1133AD0BAFD043F3E60134EFFF7E5FD043F3E6030
S1133AE0114EFFF7E0FD043F3E600D4EFFF7ABFDC6
S1133AF0FFF71CFEFFF783FCFFF719FD00BD000074
S1133B0000F0FF1F20F0FF1F04F0FF1FFFFFFFFF67
S1133B10FFFF000014F0FF1F24F0FF1F4CF4FF1FF1
S1133B20704700003E60043F02367E4640010000BC
S1133B30603B000000000F64696374696F6E61721A
S1133B40797374617274424800684149043F3E606D
S1133B50884201D23F4E70473F4E36687047C04698
S1133B609C3B000000000E64696374696F6E6172AF
S1133B70796E6578740003B531683848814207D09E
S1133B808879FF2804D00E00043F3E60002603BD60
S1133B90043F3E600026F64303BDC046D03B000010
S1133BA000000A736B6970737472696E6700317810
S1133BB0013101220A4089187618704706B4017849
S1133BC0013101220A408918401806BC7047C046DA
S1133BD0643C000000000466696E64003FB5002286
S1133BE00023350040CF340040CFFFF7ACFF1C4822
S1133BF0B188884217D0043F3E600636FFF772F85A
S1133C00043F3E602600043F3E602E00FEF79DFF09
S1133C10002E40CF07D0B01DFFF7D0FF02000B00ED
S1133C200B48824204D2FFF7A6FF300040CFDED01B
S1133C301600043F3E601E003FBD00B531003868E9
S1133C40FFF7CCFF3A68002A01D100F021FF00BD44
S1133C5000F0FF1F1004000004F0FF1FFFFFFFFF30
S1133C60FFFF0000C03C0000000006636A756D7031
S1133C702C00320040CF310040CF8B1B043BE54980
S1133C80194000290DD0E44881420AD0FEF7EAFF2A
S1133C900D4A756D7020746F6F206661720A00F0B2
S1133CA043FF5B10FF210B40134330001E0000B59F
S1133CB0DA4A13681060FFF7C6FC136000BDC04603
S1133CC0F83C00000000056A756D702C310040CF8F
S1133CD0300040CF0B1A043BD1491940002902D0CF
S1133CE0D04A9142D2D15B10CF4A1340CF4A1343FA
S1133CF0043F3E601E00DAE7103D00000000046847
S1133D0065726500043F3E60C44E36687047C04625
S1133D10383E000000000D666C6173687661722D98
S1133D2068657265043F3E60C14E3668704700B5F1
S1133D30043F3E60BF4EFFF786FC043F3E60BE4E2C
S1133D40FFF781FC00BDDDE700B500F037F8396806
S1133D503E600E46043F3E60B84EFFF78AFF00BD4A
S1133D6000B500F02BF839683E600E46043F3E6013
S1133D70B34EFFF77EFF00BD00B5FFF7D8FF00F09C
S1133D801DF839683E600E46043F3E60AD4EFFF7B5
S1133D9070FF00BD00B500F011F839683E600E46B2
S1133DA0FFF794FF00BD00B5FFF7C1FFFFF7AAFFBF
S1133DB0043F3E600226FFF7B9FC00BD00B5FFF7E3
S1133DC0A1FF043F3E600226FFF7B0FC00BD00B532
S1133DD0FFF798FFFFF77AFF00BD00B5FFF792FFEA
S1133DE0043F3E60974EFFF744FF00BD00B5FFF768
S1133DF089FF043F3E60914EFFF73BFF00BD00B5D5
S1133E00FCF787FCFCF7B8FBFCF7BBFBFCF7BEFB3D
S1133E108168282901D1FCF7C5FCFCF7B9FC043FF3
S1133E203E60894E09020E43FFF70DFCFCF769FB67
S1133E30FCF796FB00BDC046A83E000030060269B0
S1133E40660000B5FFF7AFFF043F3E607D4E043FC0
S1133E503E60022600BD00B5FCF7F1FCFDF786FDCF
S1133E60816A002910D002B4FCF77AFBFFF74AFFFD
S1133E70043F3E600226FFF759FC043F3E6040BC0D
S1133E80043F3E60022600BDFFF7B9FFFFF73AFF8B
S1133E90043F3E600226FFF749FC043F3E60694E42
S1133EA0043F3E60022600BDDC3E00003000046595
S1133EB06C73650000B5022E26D140CFFFF77EFF5C
S1133EC0FDF702FAFFF71EFF39683E600E46FFF762
S1133ED0D0FE043F3E60052600BDC046283F0000DA
S1133EE03000047468656E00052E01D140CF6EE782
S1133EF0022E09D140CF00B5FFF704FF39683E60B8
S1133F000E46FFF7B6FE00BDFEF7ACFE1753747203
S1133F107563747572657320646F6E2774206D61A8
S1133F207463680A00F000FE583F00003000067217
S1133F30657065617400042EE6D140CF00B5FDF7CD
S1133F40A6F9FFF727FFFFF7DDFE39683E600E464E
S1133F50FFF78FFE00BDC046843F000030060577A2
S1133F6068696C65012ECFD140CF00B5FFF769FFBA
S1133F70023600BD012EC7D140CF00B5FFF76BFF5D
S1133F80023600BDE43F0000300605756E74696CAE
S1133F90012EB9D140CFEFE67047012EB4D140CF06
S1133FA000B5FDF7E3FC816A00290DD002B4FCF7EB
S1133FB0D7FAFFF703FF39683E600E46043F3E60C0
S1133FC040BCFFF756FE00BDFFF719FFFFF7F6FEF2
S1133FD039683E600E46043F3E601A4EFFF749FEC4
S1133FE000BDC046F83F0000300005616761696E9E
S1133FF0012E89D140CFCDE64C400000300005624F
S11340006567696E00B5FFF79EFE043F3E600126BA
S113401000BD000001FFFFFF00FFFFFF00F0FF1FD6
S113402001F8FFFF00F8FFFFFF07000000E00000B9
S113403024F0FF1F002E000040CF000000D100003C
S113404000D7000000D000000028000064400000F9
S11340502002016B043F3E60029E7047043F3E60B5
S11340608E4E0AE0904000002002016A043F3E6048
S1134070009E7047043F3E60894E00B5FCF737FA56
S1134080FCF714FB03601B021E43FFF7DCFA00BDC0
S1134090BC40000020020169043F3E6026007047D6
S11340A000B5043F3E607F4EFCF721FAFCF7FEFAB0
S11340B003601E43FFF7C7FA00BDC046FC40000082
S11340C03000056C6561766500B5774801683B0092
S11340D0043F1A68043B1A6008338B42F9D103B4D5
S11340E0FFF76CFE03BC330040CF04390B60016062
S11340F004390A6801320A6000BDC046104100005C
S1134100200006756E6C6F6F700030BC7047C0463F
S1134110484100003000052B6C6F6F70032E00D0F7
S1134120F2E640CF00B5043F3E60604EFFF78DF8E5
S1134130FFF716FE1AE0802000060019A419401BA0
S1134140801940CF7047C0468C4100003000046C99
S11341506F6F7000032E00D0D6E640CF00B5043F49
S11341603E60534EFFF771F8FFF7EEFD00F04AF999
S11341704D48310040CF0160043F3E604D4EFFF793
S113418064F800BD0134AC427047C046D44100001D
S1134190300202646F0000B5043F3E60464EFFF7F4
S11341A054F841480168043F3E600E00043F3E60FD
S11341B000260760FFF7C7FD043F3E60032600BDED
S11341C000B500F02EF8ECE730B4340040CF3500F1
S11341D040CF7047CC4200003002033F646F00B50B
S11341E0043F3E60344EFFF730F8043F3E60334EE8
S11341F0FFF729FA2C480168043F3E600E00FFF7E0
S1134200DDFD0136043F3E60012627480760FFF7C5
S11342109AFD043F3E60032600BD00B500F001F89E
S1134220E3E700B5FCF70BFBFCF77DFAFCF7A4F918
S1134230FCF7A7F9FCF7AAF9043F3E60204EFFF70C
S113424002FA0168282907D0043F3E601D4EC900C8
S11342500E43FFF7F8F907E0043F3E604668043F69
S11342603E600426FEF74CFE8168282907D0043FEF
S11342703E60154EC9000E43FFF7E5F907E0043F21
S11342803E60C668043F3E600526FEF739FEFCF733
S113429038F9FCF736F9FCF783F900BD0298000001
S11342A000980000200000000CF0FF1F36410000C1
S11342B0844100000A410000C8410000AC420000F3
S11342C030B400000400000005000000EC420000CF
S11342D0300004636173650000B5FCF7B0FA043F75
S11342E03E600026043F3E60082600BD04430000F3
S11342F03000033F6F6668480AE0013EB64140CF94
S11343007047C046A44300003002026F6600634851
S1134310082E00D0F8E540CF00B5043F3E6006000B
S1134320FEF793FFFFF74AFD39683E600E460136FB
S1134330043F3E600926043F3E60594EFFF783F96F
S113434000BD082E00D0DFE540CF00B5FCF7EBF947
S1134350FCF712F9FCF715F9FCF718F9043F3E6075
S1134360504EFCF71FFA0E430268282A0DD142680A
S1134370FF2A07D840CF043F3E604B4E1643090244
S11343800E4304E0FCF704FA0A00D2001643FFF7D8
S11343905AF9FCF7B6F8FCF703F9C3E7300040CF4D
S11343A0B0427047DC430000300005656E646F6600
S11343B0092E00D0A8E540CF00B540B440CFFFF7A8
S11343C0FDFC39683E600E46FFF710FD043F3E6079
S11343D040BC043F3E60082600BDC0462C4400009B
S11343E0300007656E6463617365082E00D08BE549
S11343F040CF00B5043F3E60294EFFF724F900F09A
S113440001F800BD00B5300040CF00280DD003B442
S113441001213140002903D0013EFFF7DEFC01E019
S1134420FFF7D5FC03BC0138EFE700BD40440000B2
S1134430000005746F6B656E043F3E60202605E046
S1134440B0440000000005706172736510B5FEF79A
S113445050FB310040CF300040CF144A126884181A
S1134460202E07D191420FD0835CB34202D1013296
S11344708418F7E7914207D0835C0132B342F9D143
S11344808618361B013E01E08618361B043F3C604B
S11344900648026010BD0000FA4200009C43000080
S11344A040CF00008042000000280000E42F0020DC
S11344B0F04400000000056469676974D44B1B680C
S11344C0303E0BD30A2E0BD3073E0A2E06D3242EDE
S11344D006D3203E0A2E01D3242E01D30026704792
S11344E09E42FBD2043F3E600026F6437047C0461E
S11344F0FC4500000000066E756D626572003FB5F4
S1134500310040CF701E0126012204B4C04B1B6849
S11345100024002500293CD00130013902782D2ADD
S113452004D101B00022D24304B4F3E7232A01D119
S11345300A23EFE7242A01D11023EBE7252A01D12E
S11345400223E7E72E2A01D10226E3E72C2A36D0FC
S1134550043F3E601600FFF7B3FF002E40CF2BD080
S1134560043F3E602600043F3E602E00043F3E6050
S11345701E00043F3E6000260FB4FCF76AFB0FBC2C
S1134580350040CF340040CF0022A419554140CF1C
S1134590C0E704BC002A04D50022E443ED430134FF
S11345A0554133002600012B02D0043F3E602E000B
S11345B0043F3E601E003FBD01B000263FBD250004
S11345C0002402260029E4D0425C01392E2AF9D0C5
S11345D0043F3E601600FFF773FF002E40CFEBD080
S11345E0043F3C60043F3E601E000FB4FCF7E5FB53
S11345F00FBC340040CF40CFE4E7C0462046000063
S11346000000062E6469676974000A2E01D23036F0
S11346107047242E01D23736704723267047C04690
S113462058460000000004686F6C6400330040CFFB
S1134630784801783F290DD20131017040180129D1
S113464007D001380278013002700138013901299C
S1134650F7D103707047C046784600000000056833
S11346606F6C643C330040CF6A4801783F2902D222
S113467001310170435470479046000000000473F8
S113468069676E00002E01D440CF70472D26CDE718
S1134690A4460000000002233E005E480678013074
S11346A038607047BC46000000000366235310B511
S11346B0202400F008F8013CFBD110BDE0460000C6
S11346C000000266230000B5043F3E60504E366889
S11346D0FCF791FAFFF799FFFFF7C4FF00BDC0464E
S11346E0FC46000000000223530000B500F00AF865
S11346F0002EFBD138680028F8D100BD28470000FF
S11347000000012300B5043F3E60414E3668043F7B
S11347103E600026FCF771FBFCF7CCF840CFFFF7B6
S113472074FFFFF783FF00BD3C4700000000023C1C
S113473023003848002101707047C04650470000EC
S1134740000002662E00043F3E60202605E0C046BD
S1134750A0470000000003662E6E00B510B43400BC
S113476040CFFCF781FDFCF7C5F9043F3E6000260D
S1134770FFF7DFFFFFF7B9FF40CF2C26FFF772FFEB
S1134780002C03D0FFF79FFF013CFBD110BC40CFAE
S1134790FFF778FF043F3E60043F3E601EE0C046E2
S11347A0B847000000000375642E00B5FFF7C1FF91
S11347B0FFF79BFF12E0C046EC47000000000264D4
S11347C02E0000B5FCF750FDFCF794F9FFF7B1FF9C
S11347D0FFF78BFFFCF75BFDFFF754FFFFF75DFF6F
S11347E0FEF7A0FAFEF7ECF900BDC0460048000051
S11347F0000002752E00043F3E600026D5E7C04647
S1134800BC4900000000012E043F3E60F617D8E7C3
S1134810FC2F002084F0FF1F30B5D44C2568002DF8
S113482001D13D00256030BD30B5D04C3D00256040
S113483030BD30B5CD4C0025256030BDCB4B1B6859
S1134840DB1B9B08704700B5310040CFC8480840C7
S113485002D000F09BF800BDC648084001D1FDF726
S113486043F8320040CFFFF7D7FFC348084003D0D6
S1134870043F3E60160000BDFFF7E0FF80200840C3
S113488006D14020084009D00F200840834205D3B8
S1134890043F3E601600FEF780FD00BDB7480840A7
S11348A014D0FBF7C8FD043F3E601600043F3E6091
S11348B00E0000F030F81000FEF7DBFC421CB0489C
S11348C09047FFF7B1FFFBF7C5FD00BDFBF7B3FD54
S11348D0043F3E601600043F3E600E0000F01BF8EB
S11348E0FBF73EFEFFF7A5FFA648084001D1FBF702
S11348F0A6FF043F3E60160010220A4002D0FEF7D5
S11349004CFD00BD20220A4002D0FEF79EFC00BDF3
S1134910FEF798FB00BD0FB5320040CF330040CF07
S113492099480168062907D2062041439748401850
S113493003801B0C4380828093480168013101602D
S11349400FBD0FB59048016806291ED88F4801395C
S113495016D0043F3E600E00FEF775FE043F3E6035
S11349600688FEF770FE043F3E604688FEF76BFE45
S1134970043F3E608688FEF766FE06300139EDD1BD
S1134980043F3E607A4EFEF703FE0FBD00B53000D3
S113499040CFFEF76EFC01880230043F3E6006887B
S11349A0428812041643043F3E60868803B4FFF72E
S11349B04AFF03BC06300139EFD100BD044A0000B0
S11349C00000086576616C756174650000B5FEF7DA
S11349D090F801CF01B440B440CF6D48016802B4EF
S11349E000210160FEF778F800F014F8684802BC72
S11349F00160043F3E6040BC01BC043F3860FEF7E8
S1134A006BF800BD004B0000000009696E7465720C
S1134A107072657400B55F4887420BD9FEF722F9BE
S1134A2010537461636B20756E646572666C6F7786
S1134A300A0079E0584887420AD2FEF713F90F5367
S1134A407461636B206F766572666C6F770A6BE0D6
S1134A50FFF7E2FEFFF7F0FC002E02D1043740CF4F
S1134A6000BD3868043F3E60043F3860FFF7B6F885
S1134A70310040CF320040CF002A15D138683100D0
S1134A80FCF732FFFFF73BFD320040CF002AC2D1D2
S1134A90FEF74CF9FEF7E6F80C206E6F7420666F93
S1134AA0756E642E0A003FE03C4B1B68002B1CD142
S1134AB0FFF7BFFE30230B40302B0ED1FEF732F947
S1134AC0FEF7D0F81220697320636F6D70696C650E
S1134AD02D6F6E6C792E0A0026E0043740CF043F18
S1134AE03E601600FEF759FC95E7043740CF043FBB
S1134AF03E601600043F3E600E00FFF7A4FE8AE706
S1134B001C4B0000810009686F6F6B2D717569740F
S1134B10043F3E60224E7047584B0000B44B0000E7
S1134B2000000471756974001E488546194FFDF72D
S1134B30C3FB1D480A2101601848002101600B488D
S1134B400160FBF752FD12480160184801601849E2
S1134B504160134800688746FDF7DAFFFFF75AFF04
S1134B60FEF780F805206F6B2E0AF5E708F0FF1FAB
S1134B7000100000000400000020000000020000FB
S1134B8028F0FF1F000800005CF0FF1F60F0FF1F0B
S1134B90E42F00208CF2FF1F8CF1FF1FD82F002080
S1134BA0D42F00208CF3FF1FFC2F0020DC2F0020CB
S1134BB0C4F0FF1FD04B000000000565696E743F10
S1134BC0043F3E60EFF31086013EB6417047C04695
S1134BD0E04B000020000465696E740062B6704703
S1134BE0F04B000020000464696E740072B67047D4
S1134BF0084C00002000046970737200043F3E609A
S1134C00EFF305867047C046144C00000000036EA5
S1134C106F707047584C0000000009756E68616E33
S1134C20646C656400B5FEF71DF814556E68616E1A
S1134C30646C656420496E746572727570742000CA
S1134C40043F3E60EFF30586FEF784F8FEF70AF8AA
S1134C5002210A0000BDC0466C4C00000000057231
S1134C606573657499489A490160C046904C000088
S1134C7081000B6972712D7379737469636B043FDE
S1134C803E60944E7047244C00009248006887466A
S1134C90B44C00008100096972712D6661756C74F1
S1134CA0043F3E608C4E7047244C00008A480068E4
S1134CB08746C046DC4C000081000E6972712D638A
S1134CC06F6C6C656374696F6E00043F3E60834E65
S1134CD07047244C0000814800688746FC4C000063
S1134CE08100076972712D616463043F3E607C4EEC
S1134CF07047244C00007A48006887461C4D000029
S1134D008100076972712D636D70043F3E60754EBA
S1134D107047244C00007348006887463C4D0000EF
S1134D208100076972712D646163043F3E606E4EB9
S1134D307047244C00006C4800688746604D0000B2
S1134D408100096972712D706F727461043F3E6055
S1134D50664E7047244C0000644800688746C0468D
S1134D60844D00008100096972712D706F72746442
S1134D70043F3E605E4E7047244C00005C4800686F
S1134D808746C04600500000FFFF182D2D2D2046F9
S1134D906C6173682044696374696F6E6172792011
S1134DA02D2D2D00002153480160FDF7E5FC5248EC
S1134DB08546524F2A265248524901605248534967
S1134DC00160043F3E60514E514DB188514B9942B0
S1134DD024D0514B0B400AD0B01DFEF7EFFEFEF776
S1134DE048FA0388408800040343ED1A16E0802340
S1134DF00B4013D00F23194089006D1AB01DFEF724
S1134E00DDFEFEF736FA043F3E600600043F3E60D6
S1134E102E00043F3E600E00FCF734FEFEF7ABFEAE
S1134E20300040CFD1D03D48066040CF3C480560BB
S1134E303C483D49374A884204D0023803889342AB
S1134E40F9D0023039490860FDF736FAFDF70AFF58
S1134E50514D6563726973702D5374656C6C617226
S1134E60697320524120312E332065787065726950
S1134E706D656E74616C2077697468204D302063B1
S1134E806F726520666F72204B4C32355A3132385E
S1134E90206279204D61747468696173204B6F637B
S1134EA0680A234800210160043F3E60214E043F0C
S1134EB03E600426FEF792FE40CF002E02D0FEF79D
S1134EC06CFA46E640CF2FE6696E69740CED00E09B
S1134ED00400FA05D02F0020CC2F0020C82F00207A
S1134EE0C42F0020C02F0020BC2F0020B82F00208A
S1134EF0B42F0020008104408CF3FF1F8CF2FF1FAD
S1134F0000F0FF1F4CF4FF1F04F0FF1F100400000B
S1134F1000300020FFFF0000000100001CF0FF1F14
S1134F2024F0FF1F000002000050000018F0FF1FD3
S10B4F3008F0FF1FC84E000049
S9030000FC
