:020000040800F2
:100000008C040020674C0000A74A0000A74A0000AB
:10001000A74A0000A74A0000A74A0000000000000D
:10002000000000000000000000000000D54A0000B1
:10003000D54A000000000000D54A00007F4A0000B9
:10004000D54A0000D54A0000D54A0000D54A000034
:10005000D54A0000D54A0000FD4A0000254B0000AB
:100060004D4B0000754B00009D4B0000D54A000031
:10007000D54A0000D54A0000D54A0000D54A000004
:10008000D54A0000D54A0000C34B0000D54A000005
:10009000D54A0000D54A0000D54A0000D54A0000E4
:1000A000D54A0000D54A0000D54A0000D54A0000D4
:1000B000EB4B0000134C00003B4C0000D54A000005
:1000C000D54A0000D54A0000D54A0000D54A0000B4
:1000D000D54A0000D54A0000D54A0000D54A0000A4
:1000E000D54A0000D54A0000D54A0000D54A000094
:1000F000D54A0000D54A0000D54A0000D54A000084
:10010000D54A0000D54A0000D54A0000D54A000073
:10011000D54A0000D54A0000D54A0000D54A000063
:10012000D54A0000D54A0000D54A0000D54A000053
:10013000D54A0000D54A0000D54A0000D54A000043
:10014000D54A0000D54A0000D54A0000D54A000033
:10015000D54A0000D54A0000D54A0000D54A000023
:10016000D54A0000D54A0000D54A0000D54A000013
:10017000D54A0000D54A0000D54A0000D54A000003
:10018000D54A0000D54A0000CC050000FFFF1E2D17
:100190002D2D204D6563726973702D5374656C6CE1
:1001A0006172697320436F7265202D2D2D0007B594
:1001B0009148002B09D000F03BF800F041F800F026
:1001C00027F8426028210160F3E707BD00B58A489F
:1001D00000230168282905D1426800F004F800F0E6
:1001E0004CF8F6E700BD03B547F8046D160047F874
:1001F000046D1E0008B400F0B9FF08BC013347F8D5
:10020000046D7E4E47F8046D7D4E04F080FA03BD08
:1002100003B5013B47F8046D1E0008B400F090FFE1
:1002200008BC320047F8046D764E04F070FA03BD46
:1002300003B5754801681E2901D000F034F803BDEC
:100240008169016201698161816801610168816080
:10025000C16941624169C161C16841614168C16070
:100260001E21016070470FB5634801681E2903D045
:10027000FFF7DEFFFFF7E4FF0FBD02B58168016005
:10028000C168416000E002B5016981604169C160F7
:1002900081690161C1694161016A8161416AC1612C
:1002A0001E21016202BD08B501681E2202600829F4
:1002B00001D20B0004E0282909D1436800F05BF863
:1002C00047F8046D514E56EA033603F0F0F808BDC6
:1002D00000B500F009F800F00CF800F00FF800F09D
:1002E00012F800F015F800BD0FB54748FFF7DBFF27
:1002F0000FBD0FB54648FFF7D6FF0FBD0FB54548F8
:10030000FFF7D1FF0FBD0FB54348FFF7CCFF0FBD7F
:100310000FB539480168062202601E2906D147F848
:10032000046D4CF6407603F093F815E0282909D1C6
:10033000436847F8046D1E0047F8046D062602F076
:1003400021FD09E0062907D047F8046D44F206664E
:10035000C9000E4303F07CF800F001F80FBD2648F9
:100360001E210162816101618160C162062101601B
:1003700000218162704707B547F8046D1E0000F048
:100380004DF847F8046D1E0002F0FCFC07BD07B5F0
:10039000C16A282904D1016B994201D1002307BD0C
:1003A0000168002900F01D808168002900F0198093
:1003B0000169002900F015808169002900F0118091
:1003C000016A002900F00D80036347F8046D1E00E8
:1003D00047F8046D002602F0D5FC2821C1620023F5
:1003E00007BD47F8046D1E0000F018F847F8046DCB
:1003F0001E0002F0C7FC07BD28000020F40E00001C
:10040000610200000020000048000020040D47F8B1
:1004100040000020380000203000002037B536486A
:100420000168826803698469056A062000F00EF895
:10043000032000F00BF8022000F008F8012000F083
:1004400005F800232C481E21C16237BD814209D026
:10045000824207D0834205D0844203D0854201D036
:10046000030037BD704747F8046D4CF6007600B5C1
:1004700081581E2905D1FFF7D1FF835001219940F2
:100480000E4300BD00B501681E2904D10022FFF70C
:10049000EAFF02F0DDFF00BD00B581681E2907D12B
:1004A0000822FFF7E0FF0022FFF7E1FF02F0D0FF94
:1004B00000BD00B501691E290AD11022FFF7D3FF44
:1004C0000822FFF7D4FF0022FFF7D1FF02F0C0FFA0
:1004D00000BD00B581691E290DD11822FFF7C3FFA9
:1004E0001022FFF7C4FF0822FFF7C1FF0022FFF729
:1004F000BEFF02F0ADFF00BD2800002000B501687E
:10050000282904D14368FFF736FF0360190000BDB6
:1005100000B58168282904D1C368FFF72CFF8360E8
:10052000190000BD00B50169282904D14369FFF70E
:1005300022FF0361190000BD3EB58268036984692A
:10054000056A9A4203D0A24201D0AA420AD1072AE0
:1005500008D847F8046DD600FFF760FF1E4383609C
:1005600002F076FF3EBD3EB501688268036984698A
:10057000056A914206D0994204D0A14202D0A94214
:1005800000D03EBD47F8046DCE00FFF747FF1E4385
:10059000036002F05DFF3EBD00B5FFF76EFEFFF7A2
:1005A00062FEFFF73BFF036000BD01B5064803682C
:1005B000013308D00023DB43036047F8046D4BF29E
:1005C000005602F045FF01BDD87F0120F005000074
:1005D0004202043264757000386847F8046D043FC5
:1005E0003860704700B500F0D7FC00F0D5FC00BDC6
:1005F0000E0600006202053264726F70043740CF4D
:10060000704700B500F078FC00F076FC00BD5406A1
:100610000000440205327377617007CF043F3860F1
:1006200047F8046D043F3A600E00704700B5FFF7CD
:1006300050FF0268036903600261426843694360D6
:1006400042618268836983608261C268C369C360F2
:10065000C26100BD7C060000620204326E69700057
:1006600007CF043F3860704700B5FFF732FFFFF750
:10067000DDFFFFF702FEFFF700FE00BD960600005B
:10068000440005326F766572B86847F8046D043F20
:100690003860FE687047BA06000044000532747581
:1006A000636B07CF043F386047F8046D043F3A603E
:1006B000043F3960043F38607047DC0600004600A4
:1006C0000432726F74003868B9683A69B860396189
:1006D0003A6079687E60FE68F9607047FE06000047
:1006E000460005322D726F743868B9683A6938610E
:1006F0003960BA60F968FE607E68796070472607E5
:100700000000200203323E7201CF01B440B440CF5A
:10071000704700B5FFF749FF00F011FC00F0B1FC95
:1007200000F0AFFC00BD5207000020020332723E11
:1007300047F8046D40BC01BC043F3860704700B509
:10074000FFF733FF00F0B9FC00F0B7FC00F0F7FB57
:1007500000BD8207000020020332724047F8046D9A
:10076000019E47F8046D009E704700B5FFF71DFF1E
:1007700047F8046D49F6010603F083FB03F07DFBA7
:1007800000BDA8070000200206327264726F70007C
:1007900002B0704700B5FFF708FF47F8046D4BF251
:1007A000020602F055FE00BDC007000042000364CF
:1007B000322F3868F10776104008084338607047D8
:1007C000D607000062020364322A386800187641B6
:1007D0003860704717E0F007000042000464736857
:1007E00072003868F107760840080843386070479F
:1007F0003C0800006202046473686C0038680018EA
:1008000076413860704700B5FFF746FEFFF776FE89
:10081000FFF7A9FE00F093FBFFF770FEFFF7A3FEC2
:1008200047F8046D402601F075FD00F088FB47F89D
:10083000046D44F2401601F06DFD00BD4E0800004D
:100840004200046461627300002E07D470476C0894
:100850000000420007646E656761746538680021B6
:10086000C043F64301304E4138607047BC08000079
:10087000640202642D0007CF121AB1410E00043F3A
:100880003A60704700B5FFF724FE00F0ADFBFFF7BC
:1008900035FEFFF768FE00F052FBFFF72FFEFFF773
:1008A00062FEFFF7C3FE01F09FFC00F0B9FB47F8C2
:1008B000046D44F2801600F045FD00BD0A090000F9
:1008C000640202642B0007CF12184E41043F3A60C5
:1008D000704700B5FFF7FDFD00F086FBFFF70EFE49
:1008E000FFF741FE00F02BFBFFF708FEFFF73BFE92
:1008F000FFF79CFE01F05DFC00F092FB47F8046DF1
:1009000044F2401600F022FD00BD340900006102EF
:1009100003733E6447F8046DF617704700B500F0A6
:10092000D9FAFFF720FE47F8046D41F2C07601F0D6
:10093000F1FC00BD92090000620203756D2A38685F
:10094000A0FB06063860704747F8046DDFF828659D
:1009500000B5FFF7A1FDFFF7D1FDFFF7D9FD016855
:100960000E43816856EA0146FFF787FCFFF785FCD6
:10097000FFF779FCFFF752FD036056EA0336FFF7F5
:1009800072FCFFF74BFD036056EA032602F08FFD71
:1009900000BDB00900006202026D2A00386880FBC9
:1009A00006063860704747F8046DDFF8D064CFE77B
:1009B000EE09000044000375642A07CF5643414303
:1009C0007618010C130C59437618010C80B292B2C0
:1009D0005143434350430022C91852411204B618F0
:1009E0000A04090C80184E41043F38607047800AA1
:1009F000000044000475646D2A0010B5002447F817
:100A0000046D7E6847F8046D3E69FFF798FF31007A
:100A100040CF300040CF47F8046D3E6847F8046D82
:100A2000FE6803B4FFF78BFF03BC330040CF3200F6
:100A300040CF47F8046D3E6847F8046D3E690FB437
:100A4000FFF77DFF0FBC9219634140CF89196241C6
:100A5000634140CF47F8046D7E6847F8046DFE6837
:100A60000FB4FFF76CFF0FBC9219634140CF891997
:100A70006241634140CF1E003A607960B86010BDAA
:100A8000A20A00004300022A2F0000B540B440CF64
:100A9000FFF784FF47F8046D40BC00F04CF80437C2
:100AA00000BDC40A00004300052A2F6D6F6400B525
:100AB00040B440CFFFF772FF47F8046D40BC00F030
:100AC0003AF800BDE60A0000430003752A2F00B57E
:100AD00040B440CFFFF733FF47F8046D40BC00F04F
:100AE0001BF8043700BD0A0B0000430006752A2FCF
:100AF0006D6F640000B540B440CFFFF720FF47F8AA
:100B0000046D40BC00F008F800BD2A0B0000430053
:100B100006756D2F6D6F640000B547F8046D0026F3
:100B200000F019F840CF043700BD480B0000430027
:100B3000056D2F6D6F6400B547F8046DF61700F072
:100B400032F840CF043700BD9A0B00004400067510
:100B5000642F6D6F640030B4002300227968B86898
:100B600035003C6840264000494152415B41AB4260
:100B700002D804D3A24202D3121BAB410130013E82
:100B8000F1D10E0038607B60BA6030BC704730B481
:100B900000237A68B9680020E2E7100C00004400E6
:100BA00005642F6D6F6400B5F01719D0FFF756FE7E
:100BB000FFF733FDF0170CD0FFF750FEFFF72DFDC8
:100BC000FFF7C9FFFFF729FDFFF748FEFFF725FDF7
:100BD00000BDFFF722FDFFF7BEFFFFF73FFE00BDA0
:100BE000FFF71BFDF0170ED0FFF738FEFFF715FDDE
:100BF000FFF7B1FFFFF732FEFFF70FFDFFF72EFE05
:100C0000FFF70BFD00BDFFF708FDFFF7A4FF00BDD8
:100C1000260C0000440002642F0000B5FFF7C3FF5C
:100C2000FFF71EFD00BD6E0C0000440002662A00A6
:100C300000B5F0170DD0FFF711FEFFF7EEFCF0172F
:100C40000DD0FFF70BFEFFF7D8FE40CF01CF386085
:100C500000BDFFF7E2FCF017F5D0FFF7FFFDFFF74F
:100C6000CCFE40CF01CF3860FFF7F8FD00BDBA0CD5
:100C70000000440002662F0000B5F0170ED0FFF709
:100C8000EDFDFFF7CAFCF0170ED0FFF7E7FDFFF709
:100C9000C4FCFFF77CFFFFF7E3FC00BDFFF7BDFCE2
:100CA000F017F4D0FFF7DAFDFFF7B7FCFFF76FFF9F
:100CB000FFF7D4FDFFF7D4FC00BD020D00002002B9
:100CC0000232210006CF3160726040CF704700B51C
:100CD000FFF7EFFB0168426806B400F006FEFFF77D
:100CE000C2FA06BC0160282906D047F8046D46F216
:100CF000400600F0FEFD00BD0432426000F0F5FD4C
:100D000000BD4C0D0000200202324000043F70681C
:100D100038603668704700B500F0DCF801682829B3
:100D20000AD047F8046D46F6400600F0BFFD00F01B
:100D300006F900F0B7FD00BD41680431416000F0E4
:100D4000B1FD00F0FCF800F0ADFD00BD6C0D000041
:100D500044000364753C07CF8E4204D801D1904211
:100D600001D8002670470026F64370478C0D00001E
:100D700044000364753E07CFB14204D801D18242DA
:100D800001D8002670470026F6437047AC0D0000DE
:100D9000440002643C0007CF8E4204DC01D1904243
:100DA00001DC002670470026F6437047CC0D00009A
:100DB000440002643E0007CFB14204DC01D182420C
:100DC00001DC002670470026F6437047E80D00005E
:100DD00062020364303C0437F617704700B500F038
:100DE000C1F800F03DFB00BD100E0000620203647C
:100DF000303D01CF0643013EB641704700B547F88C
:100E0000046D44F2003600F0A1FA00F005FB00BDCD
:100E1000360E0000440203643C3E07CF50404E4073
:100E20000643013EB641F643704700B500F015F8A1
:100E300000F005FB00BD800E0000440202643D008E
:100E400007CF50404E400643013EB641704700B5C3
:100E500000F003F800F0E0FA00BD00B5FFF739FB41
:100E600000F0C2F800F0C4F900F0DAF800F0C0F9C0
:100E700000F0B1F900BD00000000A0FB000080FB05
:100E8000920E000020000373704047F8046D3E008E
:100E90007047A20E0000200003737021370040CF7E
:100EA0007047B40E000020000372704047F8046DD4
:100EB0006E467047C40E0000200003727021B546D4
:100EC00040CF7047E80E000061020364757047F878
:100ED000046D704706B5FFF7D5FA01684268FFF761
:100EE000C2F90160426006BD140F00006102046493
:100EF000726F700040CF704700B501681E2906D19F
:100F000047F8046D43F2047602F0A2FA00BDFFF741
:100F1000B4F900BD2A0F00006100043F6475700041
:100F2000002E01D047F8046D7047560F0000620292
:100F300004737761700039683E600E0070470CB52D
:100F4000FFF7AAFA02688368036082604268C36898
:100F50004360C2600CBD840F00006202036E6970C2
:100F60000437704700B5FFF78DFA81681E2902D05B
:100F7000FFF789F900BD47F8046D43F2047602F0EB
:100F800067FA00BDAC0F00006202046F7665720064
:100F900047F8046D7E68704700B5FFF77DFA8168F9
:100FA000C268FFF760F90160426000BDD20F000027
:100FB0006202047475636B0001CF083F7E60386085
:100FC000704700B5FFF768FAFFF784FF00F028F8D4
:100FD00000BD08100000630203726F7403CF083F66
:100FE00078603E600E0070470EB5FFF762FA016848
:100FF000826803698160026103604168C268436975
:10100000C160426143600EBD2C1000006302042DDC
:10101000726F740003CF083F7E603960060070472E
:1010200000B5FFF7E1FFFFF7DFFF00BD3E10000056
:101030002000047069636B0057F8266070475610F3
:10104000000000000564657074684F49C91B47F8CB
:10105000046D8E087047721000000000067264650F
:101060007074680047F8046D6E464849891B8E0805
:101070007047A81000002002023E720040B440CF2A
:10108000704700B5FFF791FAFFF7FCF9FFF736FA62
:1010900047F8046D4BF2004601228A40164302F0E5
:1010A000D7F9FFF7EAF800BDDE1000002002027257
:1010B0003E0047F8046D40BC704700B5FFF775FA75
:1010C000FFF7D1F8FFF7AAF9036047F8046D4BF674
:1010D000004601229A40164302F0BAF900BDFC1006
:1010E000000020020272400047F8046D009E704725
:1010F00000B5FFF75AFA02F0C0FE00BD2011000053
:101100002002057264726F7001B0704700B5FFF77E
:101110004CFA47F8046D4BF2010602F099F900BD54
:1011200034110000200005727069636BB6006E44D4
:101130003668704760110000000004726F6C6C002C
:10114000002E01D140CF7047B0003958C019031F9D
:101150001A6802600438013EF9D104370E00704766
:10116000901100000000052D726F6C6C002E01D1F3
:1011700040CF7047386839464A680A600431013EFA
:10118000FAD1086040CF70478C0300208C04002007
:10119000AA110000620203616E6401CF064070472D
:1011A00047F8046D44F20006D0E0C6110000620268
:1011B0000362696301CFB0430600704747F8046DCE
:1011C00044F28036BEE0E01100006202026F72005D
:1011D00001CF0643704747F8046D44F20036B5E08E
:1011E000FA110000620203786F7201CF4640704727
:1011F00047F8046D44F24006A8E0121200006202B3
:10120000012A01CF4643704747F8046D44F2403647
:101210009CE046120000610203636C7AB6FA86F61F
:10122000704700B5FFF72EF947F8046D6F4EFFF7D2
:1012300065F90E4356EA0146FFF7AEF956EA032672
:1012400002F035F900BD56120000610003726F72A2
:101250005FEA7606704768120000610003726F6CE7
:10126000B61956F100067047A0120000620207612D
:1012700072736869667401CF30410600704700B52B
:1012800047F8046D44F2001647F8046D41F2000679
:10129000FFF702F941681F292AD91F21416027E081
:1012A000CA1200006202067273686966740001CF98
:1012B000F0400600704700B547F8046D44F2C006E0
:1012C00047F8046D40F6000612E0081400006202C0
:1012D000066C73686966740001CFB0400600704701
:1012E00000B547F8046D44F2800647F8046D002607
:1012F000FFF7D2F80168282903D040CF00F022F888
:1013000000BD04374168FEF7B8FF002901D140CF86
:1013100000BD1F290AD889010E430268D200164376
:10132000FFF73AF91E4302F093F800BD40CFFFF7F4
:1013300033F947F8046D42F200061B021E4302F027
:1013400087F800BD0FB5FFF7A7F80CE00FB5FFF762
:10135000A3F80168062901D1FFF7F1FD8268282A68
:1013600001D1FFF7ECFDFFF7D3F8016828291CD164
:1013700047F8046D466801F051FC02CF002E40CFC3
:1013800013D0B6F5804F01D1194E1CE0194A964290
:1013900001D1194E17E0B6F5864F01D1174E12E074
:1013A000174A964201D1174E0DE0FFF7C5F8FFF737
:1013B000A5F8C90082680E43164302F049F8FEF70B
:1013C0005CFF0FBD0FB50E43816856EA0146FEF77C
:1013D00054FFFEF752FFFEF746FFFFF71FF80360CA
:1013E00056EA032602F063F80FBD000080F0B0FA61
:1013F000000010F040400000000090F0000050F0AD
:1014000080430000000030F02C1400006102023024
:101410003D00013EB641704700B500F0FDF800F018
:1014200036FFFEF72AFF7949816200BD52140000A1
:10143000610203303C3E013EB641F643704700B5C1
:1014400000F0EAF800F023FFFEF717FF7049816211
:1014500000BD78140000610202303C00F6177047AE
:1014600000B500F0D9F847F8046D41F2C07600F0FD
:1014700051FF6849816200BD8E1400006000047451
:101480007275650047F8046D0026F6437047A21494
:10149000000060000566616C736547F8046D002606
:1014A0007047C81400004202023E3D0001CFB04226
:1014B000EADA0026704747F8046D4DF6003647F823
:1014C000046D4DF60026B3E0EE1400004202023C2B
:1014D0003D0001CFB042D7DD0026704747F8046DCC
:1014E0004DF6004647F8046D4DF60056A0E0121583
:1014F00000004202013C01CFB042C5DB002670472C
:1015000047F8046D4DF6002647F8046D4DF6003699
:101510008EE0361500004202013E01CFB042B3DC3E
:101520000026704747F8046D4DF6005647F8046DE5
:101530004DF600467CE05C150000620203753E3DFE
:1015400001CF861BB641F643704747F8046D4DF254
:10155000003647F8046D4DF2002669E08215000060
:10156000620203753C3D01CF361AB641F64370471F
:1015700047F8046D4DF6000647F8046D4DF6001669
:1015800056E0A6150000620202753C0001CF861BE2
:10159000B641704747F8046D4DF2002647F8046DD8
:1015A0004DF2003644E0CA150000620202753E00AA
:1015B00001CF361AB641704747F8046D4DF6001654
:1015C00047F8046D4DF6000632E0EC1500006202AB
:1015D000023C3E0001CF811B361A0E43704747F88C
:1015E000046D4DF2000647F8046D21E05417000029
:1015F0006202013D01CF361A013EB641704747F8FD
:10160000046D4DF2001647F8046D11E000D20000A1
:1016100000D3000000D5000000B5FEF733FFFEF751
:1016200063FEFEF766FEFEF769FEFEF771FF00BD82
:1016300000B5FEF731FFFEF757FEFEF75AFEFEF744
:1016400071FF8268282A04D1FFF779FC39683E606F
:101650000E4640CF016828291DD14168FF2907D8CF
:1016600047F8046D42F600060E43816809021AE04D
:1016700047F8046D466801F0D1FA02CF002E40CF42
:1016800009D047F8046D694E0E43816856EA014659
:1016900001F00DFF0AE0FEF731FF47F8046D44F258
:1016A0008026C90016430E4301F0D2FEFEF7E5FD89
:1016B000FEF7E3FD866240CF00BD0FB55C48816A4E
:1016C000002933D047F8046D866A00218162310A0F
:1016D000D52901D140CF0FBDFEF7C5FDFEF79EFE17
:1016E0000360D22903D1534E00F014FE0FBDD3295D
:1016F00005D1504E00F00EFE00F01FFE0FBD023669
:1017000001F0A6FE47F8046D42F2000600F00FF863
:1017100000F013FE47F8046D4EF2000601F098FE4B
:1017200047F8046D42F2000600F001F80FBD00B565
:10173000FEF7A8FEFEF717FF016809020E4301F04D
:1017400087FE00BD00B5816A090AD52901D1FEF7DF
:1017500094FD00BD721700006202036D696E01CF37
:10176000B04200DC0600704747F8046D4DF60036C5
:101770002DE0901700006202036D617801CFB04246
:1017800000DB0600704747F8046D4DF600461EE08A
:10179000B0170000620204756D61780001CFB0429D
:1017A00000D30600704747F8046D4DF600060EE0C2
:1017B00038180000620204756D696E0001CFB042F6
:1017C00000D80600704747F8046D4DF2003600B5AA
:1017D000FEF762FE01688268914203D140CFFEF7B6
:1017E00052FD00BD062A01D1FFF7A9FB0168282997
:1017F00001D1FFF7A4FBFEF7B6FEFEF789FEC90094
:10180000026847F8046D44F280260E43164301F047
:101810001FFE01F01DFE47F8046D44F200660E4302
:10182000164301F015FEFEF72EFD00BD000FB0F1CE
:101830002800002080410000761800000000046DA0
:101840006F76650007B5310040CF320040CF0029E8
:101850000FD0B2420DD006D3013E013A705C505415
:101860000139FBD105E030781070013601320139C1
:10187000F9D140CF07BD9818000000000466696CDC
:101880006C00300040CF310040CF002902D0013938
:101890007054FCD140CF7047DA180000200201409C
:1018A0003668704747F8046D46F6000600B5FEF747
:1018B000E9FD0368282B08D143687C211940090100
:1018C0000E437C218B43FEF762FDDB001E43FEF7D7
:1018D00063FE1E4301F0BCFD00BD32190000200272
:1018E000012103CF30600E00704747F8046D46F2C7
:1018F000000600B5FEF7D0FD0368282B09D1436828
:101900007C21194009010E437C218B43FEF73FFDEA
:101910000360DB001E438368282B02D1C368FEF7F7
:101920002AFD1E4301F094FDFEF7A7FCFEF7A5FC7F
:1019300000BD681900002002022B210003CF32688D
:10194000121832600E00704700B5FEF7A5FDFFF7D4
:10195000C1FAFFF7A7FFFFF747FB00F02AFCFFF7EC
:10196000EEFAFFF7C2FF00BDAC19000020020268CA
:1019700040003688704700B5FEF784FD47F8046DD7
:1019800048F600060368282B08D143683E21194019
:1019900049010E433E218B43FEF7F9FCDB001E4359
:1019A000FEF7FAFD1E4301F053FD00BD061A0000CC
:1019B00020020268210003CF30800E00704700B57E
:1019C000FEF76AFD47F8046D48F200060368282B0D
:1019D00009D143683E21194049010E433E218B4302
:1019E000FEF7D5FC0360DB001E438368282B02D181
:1019F000C368FEF7C0FC1E4301F02AFDFEF73DFC64
:101A0000FEF73BFC00BD3C1A0000200203682B21BE
:101A100003CF3288121832800E00704700B5FEF7EF
:101A20003BFDFFF757FAFFF7A6FFFFF7DDFA00F0DF
:101A3000C0FBFFF784FAFFF7C2FF00BD801A000069
:101A40002002026340003678704700B5FEF71AFDA9
:101A500047F8046D47F600060368282B08D1436851
:101A60001F21194089010E431F218B43FEF78FFC74
:101A7000DB001E43FEF790FD1E4301F0E9FC00BDB4
:101A8000DA1A000020020263210003CF30700E003A
:101A9000704700B5FEF700FD47F8046D47F20006F9
:101AA0000368282B09D143681F21194089010E437F
:101AB0001F218B43FEF76BFC0360DB001E43836832
:101AC000282B02D1C368FEF756FC1E4301F0C0FC70
:101AD000FEF7D3FBFEF7D1FB00BD101B0000200278
:101AE00003632B2103CF3278121832700E00704737
:101AF00000B5FEF7D1FCFFF7EDF9FFF7A6FFFFF702
:101B000073FA00F056FBFFF71AFAFFF7C2FF00BDA9
:101B1000501B0000200204626973210003CF326869
:101B2000024332600E00704700B5FEF7B5FCFFF7C8
:101B3000D1F9FFF7B7FEFFF757FA47F8046D44F203
:101B40000036FFF703FCFFF7FAF9FFF7CEFE00BD02
:101B5000901B0000200204626963210003CF3268F9
:101B6000824332600E00704700B5FEF795FCFFF728
:101B7000B1F9FFF797FEFFF737FA47F8046D44F223
:101B80008036FFF7DFFBFFF7DAF9FFF7AEFE00BDA7
:101B9000D01B0000200204786F72210003CF32684E
:101BA000424032600E00704700B5FEF775FCFFF74B
:101BB00091F9FFF777FEFFF717FA47F8046D44F243
:101BC0004006FFF7C3FBFFF7BAF9FFF78EFE00BD33
:101BD000061C0000200204626974400001CF3668D0
:101BE000064018BF4FF0FF36704700B5FEF754FCB3
:101BF000FFF758FE47F8046D44F20006FFF7A6FB16
:101C0000FFF71DFC00BD461C00002002056862694C
:101C1000732103CF3288024332800E00704700B533
:101C2000FEF73AFCFFF756F9FFF7A5FEFFF7DCF9E0
:101C300047F8046D44F20036FFF788FBFFF77FF9A1
:101C4000FFF7BDFE00BD861C00002002056862692A
:101C5000632103CF3288824332800E00704700B583
:101C6000FEF71AFCFFF736F9FFF785FEFFF7BCF920
:101C700047F8046D44F28036FFF764FBFFF75FF925
:101C8000FFF79DFE00BDC61C000020020568786FAE
:101C9000722103CF3288424032800E00704700B577
:101CA000FEF7FAFBFFF716F9FFF765FEFFF79CF961
:101CB00047F8046D44F24006FFF748FBFFF73FF991
:101CC000FFF77DFE00BDFC1C000020020568626974
:101CD000744001CF3688064018BF4FF0FF3670477A
:101CE00000B5FEF7D9FBFFF746FE47F8046D44F256
:101CF0000006FFF72BFBFFF7A2FB00BD3C1D000019
:101D0000200205636269732103CF32780243327087
:101D10000E00704700B5FEF7BFFBFFF7DBF8FFF7DB
:101D200094FEFFF761F947F8046D44F20036FFF7BF
:101D30000DFBFFF704F9FFF7ACFE00BD7C1D0000B2
:101D4000200205636269632103CF327882433270D7
:101D50000E00704700B5FEF79FFBFFF7BBF8FFF7DB
:101D600074FEFFF741F947F8046D44F28036FFF73F
:101D7000E9FAFFF7E4F8FFF78CFE00BDBC1D000098
:101D800020020563786F722103CF327842403270AF
:101D90000E00704700B5FEF77FFBFFF79BF8FFF7DB
:101DA00054FEFFF721F947F8046D44F24006FFF7AF
:101DB000CDFAFFF7C4F8FFF76CFE00BD1A1E000055
:101DC000200205636269744001CF3678064018BF6F
:101DD0004FF0FF36704700B5FEF75EFBFFF735FEAC
:101DE00047F8046D44F20006FFF7B0FAFFF727FB4F
:101DF00000BD00F0CEFD1E466C6173682063616E0D
:101E00006E6F74206265207772697474656E2074D9
:101E1000776963650A0002F084BDEC1E00000000D3
:101E2000083136666C61736821003FB50F20304081
:101E300015D000F0AEFD223136666C61736821204A
:101E40006E656564732031362D616C69676E6564FB
:101E500020616464726573730A0002F062BD3068C9
:101E600001307FF4C6AF706801307FF4C2AFB06854
:101E700001307FF4BEAFF06801307FF4BAAF114A91
:101E8000B618114A114B1360114B1360114A01230C
:101E9000136008CF04CF02CF01CF01C602C600F005
:101EA0001DF804C608C600F019F80A4A1088012176
:101EB00088431080074A106807490843106040CFE4
:101EC0003FBD0000000000080820024023016745D4
:101ED000AB89EFCD142002400000008003B41F49FD
:101EE000088801210840FAD103BC70478C1F00000C
:101EF00000000E666C61736870616765657261737E
:101F000065000FB5300040CF154B984225D3154AD8
:101F1000154B1360154B1360154A022313600821FB
:101F2000C840144A104002210843114A1080012081
:101F3000114A1080094A138801201840FBD10F4A2A
:101F4000802313700E4A116802B40E488143116059
:101F50000D480143116002BC11600FBD1220024008
:101F6000005000000820024023016745AB89EFCDF7
:101F700014200240F80F00001620024017200240F3
:101F80000020024000060000001800000A200000A7
:101F900000000A6572617365666C617368002248AF
:101FA00072B62249224A038893421CD047F8046D36
:101FB000060047F8046D00F0ECFC10457261736593
:101FC00020626C6F636B20617420200000F054FD70
:101FD00000F0DFFC0C2066726F6D20466C61736848
:101FE0000A00FFF78EFF134B02308842DBD100F06E
:101FF000D0FC1246696E69736865642E2052657361
:10200000657420210A0002F028FD3820000000003D
:102010000E6572617365666C61736866726F6D00E0
:10202000300040CFBCE7000000500000000010006E
:10203000FFFF0000000800005820000000000969B0
:102040006E6974666C61736853485449002202706B
:1020500001300139FBD170473E21000000000768C4
:10206000666C6173682130B5320040CF500813D3DD
:1020700000F08FFC1E68666C61736821206E6565D8
:102080006473206576656E20616464726573736540
:10209000732E0A0002F045BC414B9A4210D200F068
:1020A00078FC1943616E6E6F7420777269746520D5
:1020B000696E746F20636F726520210A02F031BC73
:1020C000130935482021046824099C4226D0143085
:1020D0000139F8D1304820210468002C17D0143081
:1020E0000139F9D100F055FC21546F6F206D616EFC
:1020F000792073636174746572656420466C6173E2
:1021000068207772697465732E0A02F00ABC1B019D
:102110000360013941608160C16001610F2111409C
:102120000431465240CF0168013101600F22114055
:10213000082903D100F01AF8FFF777FE30BDA4217B
:10214000000000000A666C757368666C6173680055
:1021500000B5114820210268002A03D000F006F8DB
:10216000FFF763FE14300139F5D100BD47F8046D67
:10217000466847F8046D866847F8046DC66847F8F6
:10218000046D066947F8046D0F26F6430268164091
:1021900000220260704700008C04002080020000D2
:1021A00000500000DA2100006202012B01CF361836
:1021B000704700B5FEF770F947F8046D43F200066A
:1021C00047F8046DC84E47F8046D41F60006816873
:1021D000282917D1FEF7B3FE14E080220000620226
:1021E000012D01CF861B704700B5FEF755F947F862
:1021F000046D43F6000647F8046DBC4E47F8046DC5
:1022000041F60026FEF784F90168282927D14168A4
:10221000FF290CD840CF40CFFEF78EF90E438168DE
:1022200009020E4301F014F9FEF727F800BD47F844
:10223000046D0E0000F0F2FC02CF002E40CF0ED055
:1022400040CF04370E43816856EA0146FEF715F881
:10225000FEF7A2F956EA032601F029F900BD04377A
:102260000437FEF74BF989018268D2000E4316430A
:10227000FEF703F8FEF790F91E4301F0E9F800BD00
:1022800098220000610202312D00013E704747F89C
:10229000046D41F640663DE0B0220000610202316B
:1022A0002B000136704747F8046D41F6404631E097
:1022B000C8220000610202322D00023E704747F83A
:1022C000046D41F6806625E0E022000061020232E2
:1022D0002B000236704747F8046D41F6804619E03E
:1022E000FA22000061020563656C6C2B04367047AE
:1022F00047F8046D41F600560CE02C230000610203
:10230000066E6567617465007642704747F8046D34
:1023100044F2402600B5FEF7B5F80168C9000E4347
:10232000FEF73AF91E4301F093F800BD4423000084
:102330006102036E6F74F643704747F8046D44F210
:10234000C036E7E75C230000610203736872760819
:10235000704747F8046D40F64006DBE76C23000049
:1023600061020373686C7600704706E08223000008
:10237000610202322A007600704747F8046D402659
:10238000C8E79A23000061020563656C6C73B600B0
:10239000704747F8046D8026BCE7B2230000610255
:1023A00002322F007610704747F8046D41F2400664
:1023B000B0E7EE230000610203616273F017361884
:1023C0004640704700B5FEF75DF847F8046D42F6E9
:1023D0000006016809020E4301F03AF847F8046D5F
:1023E0004DF2005601F034F8FFF790FF00BD0C24C9
:1023F0000000420005752F6D6F6401CF3100B0FB06
:10240000F6F67143401A043F386070472A240000F2
:102410004200042F6D6F640001CF310090FBF6F68F
:102420007143401A043F386070473E240000420068
:10243000036D6F6400B5FFF7EFFF40CF00BD7E2452
:1024400000006202012F01CF90FBF6F6704700B545
:10245000FEF722F8FEF752F8FEF75AF847F8046D37
:10246000234E01680E43816856EA0146FDF705FFD9
:10247000FEF792F856EA032601F019F800BD9224FF
:1024800000006100046576656E000120304036185A
:102490007047AA240000810004626173650047F858
:1024A000046D144E70470A000000C02400000000B4
:1024B0000662696E617279000E4802210160704700
:1024C000D6240000000007646563696D616C0948EB
:1024D0000A21016070472425000000000368657828
:1024E0000448102101607047000010F10000B0F1B5
:1024F000F0F090FBFC7F012071497248086072493E
:1025000072480860724973480860734973480860EC
:1025100073492320086073497348086073497448FD
:102520000860704740250000810009686F6F6B2DBF
:10253000656D697447F8046D6E4E70472A26000079
:102540005C250000810008686F6F6B2D6B6579005A
:1025500047F8046D684E7047502600007A25000049
:1025600081000A686F6F6B2D656D69743F0047F8D5
:10257000046D624E70477A260000962500008100A7
:1025800009686F6F6B2D6B65793F47F8046D5C4E82
:102590007047A6260000B425000081000A686F6F0E
:1025A0006B2D70617573650047F8046D554E70476B
:1025B0000A4A0000CA250000000004656D69740025
:1025C0000FB54C4800F026F80FBDDE2500000000D6
:1025D000036B65790FB5484800F01CF80FBDF02576
:1025E0000000000005656D69743F44480068874637
:1025F000022600000000046B65793F004048006837
:1026000087461826000000000570617573653D4817
:1026100000688746006887463E26000000000B736E
:10262000657269616C2D656D697400B500F025F8FF
:10263000002E40CFFAD0344A167040CF00BD662637
:10264000000000000A73657269616C2D6B6579008A
:1026500000B500F028F8002E40CFFAD047F8046DFE
:102660002A4A167800BD9426000000000C7365729B
:1026700069616C2D656D69743F0000B5FFF7C7FF98
:1026800047F8046D0026224801688020014000D0F0
:10269000F64300BD1427000000000B7365726961EA
:1026A0006C2D6B65793F00B5FFF7B1FF47F8046DFE
:1026B0000026174801682020014000D0F64300BDE5
:1026C0004C100240FF0000005810024000000200C1
:1026D000000C0048FFEBFFFF200C004800007007D3
:1026E0000C4400400844004000100000004400403A
:1026F0000D000000F87F0120F47F0120F07F012011
:10270000EC7F0120E87F0120284400402444004061
:102710001C4400403827000000000763657870659E
:10272000637400B5386801B40130386000F00BF80C
:1027300001BC067040CF00BDAE270000000006615E
:1027400063636570740000B502CF01390022FFF7A2
:1027500041FF300040CF7F2809D0202819D2092816
:1027600016D00A281FD00D281DD00828EFD1002A26
:10277000EDD000F00EF903082008002AE7D0885CAD
:10278000013A80230340E2D040230340F5D0DEE746
:102790002020B242DBD247F8046D0600FFF710FF9D
:1027A00001328854D3E7160000F0A2F800BDC0271C
:1027B000000040000374696247F8046D294E7047B9
:1027C000D62700008100033E696E47F8046D264E4F
:1027D000704700000000FC27000082000E63757245
:1027E00072656E742D736F757263650047F8046DC2
:1027F0001E4E704700000000C40000201828000092
:10280000000009736574736F75726365174802CFB2
:102810000660416040CF7047362800000000067314
:102820006F757263650047F8046D104E043F706861
:1028300038603668704770280000000005717565C3
:1028400072790FB5084800210160FFF7B5FF47F81E
:10285000046D47F8046DC826FFF775FFFFF7D6FF34
:102860000FBD0000C4000020E47F0120DC7F0120B8
:10287000BE280000000007636F6D706172650FB5C0
:10288000310040CF01CF884202D040CF00260FBD9B
:1028900002CF002810D001380A5C335C412A02D3F1
:1028A0005B2A38BF2032412B02D35B2B38BF203349
:1028B0009A42EED000260FBD0026F6430FBDD22867
:1028C000000000000263720000B500F062F8010A27
:1028D00000BDE4280000000002626C0047F8046DAF
:1028E00020267047F82800000000057370616365BA
:1028F00047F8046D202663E61829000000000673DF
:1029000070616365730000B5002E03DDFFF7F0FF13
:10291000013EFBD140CF00BD282900005000065BDE
:10292000636861725D0005E04029000000000463F7
:102930006861720000B501F089FC40CF367800BDB7
:10294000502900005004012847F8046D292606E0AC
:102950006A2900005004015C47F8046D002600B5A8
:1029600001F07EFC043740CF00BDAE29000010000E
:10297000022E22009B4800B547F8046D060000F0C7
:102980005EFA47F8046D222601F06AFC00F09FFD14
:1029900000BD0AB447F8046D7646013E3378012144
:1029A000013319405B181EEB030E0ABC39E0D42931
:1029B00000001000026322008B48DCE747F8046D3A
:1029C0007646013E33780121013319405B181EEB36
:1029D000030E7047FE290000100002732200834896
:1029E000C9E747F8046D764647F8046D013E36782E
:1029F0000121731C19405B181EEB030E7047162A49
:102A00000000000005636F756E74013647F8046DB1
:102A1000013E367870473E2A000000000563747955
:102A2000706501B53078002807D0013647F8046D8D
:102A30003678FFF7C5FD0138F7D140CF01BD6C2ACC
:102A400000000000047479706500310040CF300050
:102A500040CF00B5002908D0002247F8046D865CFD
:102A6000FFF7AEFD01329142F7D100BDA62A00006A
:102A70000000046865782E0007B5310040CF2020A3
:102A80000F22043847F8046D0E00C6401640092E88
:102A900001D9373600E03036FFF792FD0028F0D13B
:102AA000FFF726FF07BDB62A0000000003682E735B
:102AB0001FB54F4C0EE0C62A0000000003752E73B0
:102AC0001FB54C4C06E0442B00000000022E7300A2
:102AD0001FB5494C4949C91B8908494A106803B4C4
:102AE0000A201060FFF755FF08537461636B3A20AA
:102AF0005B0047F8046D0E0001F081FDFFF749FF10
:102B0000025D200003BC3E4A106000290AD03D4A05
:102B1000106806B447F8046D0600A04706BC043AE6
:102B20000139F5D1FFF735FF0620544F533A200005
:102B300047F8046D3600A047FFF72BFF04202A3E1C
:102B40000A001FBD082C0000000005776F72647337
:102B500000B5FFF71EFF010A00F001FFFFF719FFA4
:102B600009416464726573733A2047F8046DFFF796
:102B700083FFFFF70EFF064C696E6B3A200047F8A3
:102B8000046D3668FFF778FFFFF703FF07466C61B7
:102B900067733A2047F8046DB688FFF76DFFFFF7BB
:102BA000F8FE06436F64653A2000B01D00F010FF88
:102BB00047F8046D0600FFF75FFFFFF7EAFE064ED9
:102BC000616D653A200047F8046D0636FFF729FF6E
:102BD000FFF7DFFE010A00F0D9FE300040CFBDD084
:102BE00040CF00BD92290000BC290000E22900006E
:102BF000792A0000EF450000FF4500008C0300200B
:102C0000FC7F0120880300206C2D000000000D31A6
:102C100032626974656E636F64696E670FB5FF2E0B
:102C200004D847F8046D5FF0FF360FBD16F0FF10B3
:102C3000B0420ED14FF6FF710840310C814208D1ED
:102C400016F0FF0656F4805647F8046D5FF0FF3625
:102C50000FBD16F0FF20B0420FD14FF6FF710840B4
:102C6000310C814209D1360A16F0FF0656F400569F
:102C700047F8046D5FF0FF360FBDFF2231001140B1
:102C8000300A1040884210D1300C104088420CD1DC
:102C9000300E1040884208D116F0FF0656F4405618
:102CA00047F8046D5FF0FF360FBD300000210131A1
:102CB000001850F100007FF07F020240802A05D00A
:102CC0001F29F4D347F8046D00260FBD0829F9D356
:102CD000060036F0800611F00100C001064311F035
:102CE0000E00C002064311F010008005064347F8AD
:102CF000046D5FF0FF360FBD47F8046DDFF898668E
:102D00005FF4704110EA0102120116435FF40061A2
:102D100010EA0102D20316435FF4E06110EA0102F7
:102D200012011643FF2110EA010216431E43BEE3BF
:102D300047F8046DDFF864665FF0704110EA010245
:102D4000120B16435FF0006110EA010252081643AD
:102D50005FF0E06110EA0102120B16435FF47F019D
:102D600010EA0102120C16431E43A0E3D22D00000C
:102D700000001072656769737465726C69746572BE
:102D8000616C2C000FB5330040CF1B02FF2E05D81D
:102D900056F400561E4300F05BFB0FBDFFF73EFFED
:102DA000002E40CF06D0DFF8F80506431E4300F0A2
:102DB0007EFB0FBDF643FFF731FF002E40CF06D05C
:102DC000DFF8E00506431E4300F071FB0FBDF6433C
:102DD0000BE0322E00000000096D6F76776D6F7684
:102DE000742C0FB5330040CF1B02300040CFFFF7EB
:102DF00083FF4FF6FF7110EA014001D0FFF798FF03
:102E00000FBD0FB50136300040CF0023FFF774FF30
:102E1000FFF78EFF06E00FB5013647F8046D002678
:102E2000FFF7B0FF47F8046D44F2807600F010FB26
:102E30000FBD982E000000000563616C6C2C0FB56F
:102E4000330000F068FE300040CF1B1A043BDFF86F
:102E500058151940002906D0DFF85025914202D0BC
:102E6000BDE80F40D7E740CF5B08DFF8440540F2EC
:102E7000FF7119400843DB0A40F2FF311940090491
:102E800008439B0A13F001018906084347F8046DC3
:102E9000060000F00CFB0FBDCE2E00000000086CF9
:102EA00069746572616C2C0008B547F8046D4FF6C3
:102EB000470600F0CDFA47F8046D46F6045600F0D8
:102EC000C7FA47F8046D0626FFF75CFF08BDF22E2F
:102ED00000000000066372656174650000B500F0D3
:102EE0003DF842F60F70804747F8046DBEF10106C9
:102EF00000BD4E2F0000200005646F65733E42F652
:102F00000F70804747F8046DBEF10106704747F81F
:102F1000046DBEF10106DFF89C241368DFF89814F5
:102F20000968DFF89004834205D20F200840062884
:102F300005D00231F9E70220084000D00231023109
:102F40001160FFF75EFF136000F0D8F900BDB82FE5
:102F500000000000073C6275696C647300B500F006
:102F600083FBDFF850040168DFF8482491420CD25B
:102F700000F0D1FD0F200640062E40CF10D047F8BC
:102F8000046D362600F064FAF2E700F0C4FD02207A
:102F9000064040CF04D047F8046D362600F058FABA
:102FA00047F8046D4BF2005600F052FA47F8046DF2
:102FB0000A2600F0BFFA00BDC42F00005000035BDA
:102FC000275D03E0DC2F00000000012700B501F0C1
:102FD0003DF900F03BFD300040CF00BD1230000055
:102FE000300008706F7374706F6E650000B5FFF786
:102FF000EDFF47F8046D060039683E600E46FFF7A6
:1030000053FFFFF751FF47F8046DEC4EFFF717FF32
:1030100000BD68300000000007696E6C696E652CA9
:1030200000B54BF200514BF6005244F270733088F9
:10303000884208D0904208D0984206D047F8046DE4
:10304000060000F005FA0236F1E740CF00BD0EB4ED
:103050004BF6005244F2707301880230914201D065
:103060009942F9D10EBC70477E3000000000047216
:1030700065742C0047F8046D4BF60056E8E18C307F
:1030800000003000046578697400F3E7A4300000A4
:103090003000077265637572736547F8046DC64E3C
:1030A0003668CCE6BC30000081000573746174653D
:1030B00047F8046DC24E704700000000CE3000009B
:1030C0000000015DBE480021C94301607047DE3049
:1030D00000001000015BBA48002101607047FE301B
:1030E00000000000013A00B5B648076000F0BCFAE5
:1030F000B34801210160B4480021016000BD703176
:1031000000003008013B00B5AE480168B9420ED05E
:10311000FFF73FFC1520537461636B206E6F7420C2
:1031200062616C616E6365642E0A01F0FABBA448AB
:103130000068411C10D00B2805D847F8046D40F6F4
:10314000200600F00EF947F8046D44F2707600F0A6
:103150007FF901F0F2FA05E047F8046D4BF60056EE
:1031600000F076F900F0CAF895480021016000BD32
:103170008431000000000765786563757465300070
:1031800040CF87469C310000100009696D6D656471
:103190006961746547F8046D1026E2E0B231000001
:1031A000500006696E6C696E650047F8046D202654
:1031B000D7E0CC31000010000B636F6D70696C6557
:1031C0006F6E6C7947F8046D3026CAE0E631000076
:1031D00050000A302D666F6C6461626C650047F8C0
:1031E000046D4026BDE00032000050000A312D661B
:1031F0006F6C6461626C650047F8046D4126B0E055
:103200001A32000050000A322D666F6C6461626CE5
:10321000650047F8046D4226A3E0343200005000F8
:103220000A332D666F6C6461626C650047F8046D4B
:10323000432696E04E32000050000A342D666F6C33
:103240006461626C650047F8046D442689E0683269
:10325000000050000A352D666F6C6461626C650079
:1032600047F8046D45267CE08232000050000A36A3
:103270002D666F6C6461626C650047F8046D4626CC
:103280006FE09C32000050000A372D666F6C64615D
:10329000626C650047F8046D472662E0CC3200009E
:1032A000000008636F6E7374616E740000B500F007
:1032B000DBF9FFF7F9FD47F8046D44F2707600F092
:1032C000C7F8FFF78CFF00F019F800BDEE320000E0
:1032D00000000932636F6E7374616E7400B500F0A4
:1032E000C3F939683E600E46FFF7DEFDE1E7523371
:1032F0000000000006736D756467650000B52D4819
:1033000001682C4A91421ED202390A882F4B9A42F8
:1033100004D147F8046D2E4E00F09AF800F072F8D0
:1033200000F084F82B48006847F8046D06002A492D
:10333000096804311F4A1368116000F089F81360AE
:10334000FEF706FF00BD00F05DF847F8046D0026AB
:1033500008E0DC330000000008736574666C616788
:10336000730000B513480168124A914205D219480A
:1033700001683143016040CF00BD320040CF1648A4
:10338000006804300188114B994201D1110000E01E
:103390001143018000BD0000000040F20000C0F2B7
:1033A00000005FF000007FF00100C0FF0000C0FFE0
:1033B00000F800F000000020140000203E4600004D
:1033C000D87F0120100000205C000020FFFF0000DB
:1033D000000000002000002004000020F83300005E
:1033E000410007616C69676E6564012030403618E2
:1033F00002203040361870471C3400000000056180
:103400006C69676E00B58D4801680220014004D0E8
:1034100047F8046D002600F01BF800BD463400009C
:10342000000008616C69676E31362C0000B5834876
:1034300001680F20014005D047F8046D002600F018
:1034400007F8F4E700BD8A340000000002682C0091
:103450000FB5B6B27A480168002902D0013100D018
:10346000016076480168754A914205D247F8046DBB
:103470000E00FEF7F8FD02E0320040CF0A8047F868
:10348000046D022600F056F80FBDA43400000000C1
:10349000012C00B547F8046DFFF7DAFF360CFFF793
:1034A000D7FF00BDC03400000000033E3C2C00B537
:1034B00047F8046D360CFFF7CBFFFFF7C9FF00BDDF
:1034C00028350000000007737472696E672C07B519
:1034D000FF21314040CF300040CF002905D147F8CF
:1034E000046D0026FFF7B4FF07BD47F8046D0678AA
:1034F00036020E43FFF7ACFF0130013902290AD32F
:1035000047F8046D4678360202781643FFF7A0FFAD
:1035100002300239F2E7002900D107BD47F8046DF7
:103520000678FFF795FF07BD8235000000000561B2
:103530006C6C6F7441480168404A91420FD232006E
:1035400040CF89183F4A914219D3FFF722FA0B4620
:103550006C6173682066756C6C0A01F0E2B9320028
:1035600040CF8918384A1268914208D3FFF711FA00
:103570000952616D2066756C6C0A01F0D2B9016068
:103580007047AA35000000000D636F6D70696C65AF
:10359000746F72616D3F47F8046D0026274800681C
:1035A0002649884248D3F6437047CA3500000000D8
:1035B0000C636F6D70696C65746F72616D001F488C
:1035C00000681E49884211D3704758360000000039
:1035D0000E636F6D70696C65746F666C6173680003
:1035E000164800681549884200D2704717481849A4
:1035F00002680B680A6003601048164902680B688D
:103600000A60036010480068834215D300B5FFF7D5
:10361000C0F923205661726961626C657320636F23
:103620006C6C696465207769746820646963746987
:103630006F6E6172790A00BD7047000000000020C3
:10364000D87F01200000100024000020040000208A
:103650001C0000201800002054370000000008283B
:10366000637265617465290000B500F0EFFD002EFE
:103670000ED1FFF78EF91520437265617465206ED7
:1036800065656473206E616D6520210A01F049B99A
:10369000386847F8046D043F386000F0A8F940CF5F
:1036A000002E40CF11D0386847F8046D043F3860D1
:1036B000FFF76FF9095265646566696E6520FFF76B
:1036C000C4F9FFF766F9022E0A00FFF79BFE944843
:1036D00000689349884225D2924800210160FFF793
:1036E000A5FE47F8046D0C26FFF724FF00F013FA3F
:1036F00047F8046D0626FFF71DFFFDF78BFCFFF76B
:10370000E6FE894801680A68884B9A4207D1844AD4
:103710001368116047F8046DFFF7BBFE1360066085
:1037200040CF12E000F0F7F97F4847F8046D0668D3
:10373000FFF7AFFE47F8046D7D4EFFF789FE7A482C
:10374000310040CF0160FFF7C2FE7548016879483B
:10375000016000BD6C37000000000876617269618D
:10376000626C650047F8046D012613E084370000A1
:10377000000009327661726961626C6547F8046D18
:10378000022607E05E3800000000096E766172696B
:1037900061626C6500B5FFF767FF61480168604AC8
:1037A000914234D20F200640B20063480168891A62
:1037B000624A91420BD2FFF7ECF80F4E6F7420650E
:1037C0006E6F7567682052414D0A01F0AAB801601A
:1037D00047F8046D0E00FFF767FB47F8046D44F2ED
:1037E0007076FFF735FE300040CF0200002805D08C
:1037F0000E600431FFF74DFE0138F9D147F8046D32
:1038000080261643FFF7ADFDFFF778FD00BD00F001
:1038100082F90220064040CF04D147F8046D3626D5
:10382000FFF716FE47F8046D454EFFF740FE47F8D8
:10383000046D444EFFF73BFE47F8046D44F270768A
:10384000FFF706FE300040CF002803D0FFF721FE2F
:103850000138FBD1FFF7C3FCFFF750FD00BD48392D
:1038600000000000076275666665723A00B5FFF7F2
:10387000FBFE012030403618022030403618284820
:103880000168274A914228D22B480168891B2B4A9C
:1038900091420BD2FFF77DF80F4E6F7420656E6F6B
:1038A0007567682052414D0A01F03BB8016047F846
:1038B000046D0E00FFF7F8FA47F8046D44F27076D5
:1038C000FFF7C6FDFFF7E5FD47F8046D40F240162F
:1038D000FFF747FDFFF712FD00BD00F01CF90220C5
:1038E000064040CF04D147F8046D3626FFF7B0FDFF
:1038F00047F8046D124EFFF7DAFD47F8046D114EDC
:10390000FFF7D5FD47F8046D44F27076FFF7A0FD90
:10391000FFF710FEFFF763FCFFF7F0FC00BD0000AF
:10392000000000202000002004000020FFFFFFFF17
:10393000FFFF0000140000202400002030070020BA
:103940003E60043F02367E467639000000000F6478
:10395000696374696F6E61727973746172744148DE
:103960000068404947F8046D884201D23E4E7047D6
:103970003E4E36687047B039000000000E6469633F
:1039800074696F6E6172796E6578740003B5316821
:103990003748814207D08879FF2804D00E0047F8C5
:1039A000046D002603BD47F8046D0026F64303BDF1
:1039B000E239000000000A736B6970737472696EFB
:1039C00067003178013101220A4089187618704762
:1039D00006B40178013101220A408918401806BC5A
:1039E0007047783A000000000466696E64003FB5D5
:1039F00000220023350040CF340040CFFFF7AFFF57
:103A00001C48B188884217D047F8046D0636FEF787
:103A1000FCFF47F8046D260047F8046D2E00FEF702
:103A20002EFF002E40CF07D0B01DFFF7D1FF0200C0
:103A30000B000C48824204D2FFF7A8FF300040CFB1
:103A4000DED0160047F8046D1E003FBD00B5310002
:103A50003868FFF7CCFF3A68002A01D100F015FF63
:103A600000BD0000000000208801000004000020CC
:103A7000FFFFFFFFFFFF0000D23A000000000663D7
:103A80006A756D702C00320040CF310040CF8B1B27
:103A9000043BE849194000290DD0E74881420AD08B
:103AA000FEF777FF0D4A756D7020746F6F206661A9
:103AB000720A00F036BF5B10FF210B401343300049
:103AC0001E0000B5DD4A13681060FFF7C1FC1360EB
:103AD00000BD0A3B00000000056A756D702C3100C6
:103AE00040CF300040CF0B1A043BD5491940002984
:103AF00002D0D44A9142D3D15B10D34A134053F43D
:103B0000604347F8046D1E00DBE7203B0000000027
:103B100004686572650047F8046DC84E36687047E2
:103B2000563C000000000D666C6173687661722D72
:103B30006865726547F8046DC44E3668704700B515
:103B400047F8046D42F60066FFF782FC47F8046D03
:103B50004CF64076FFF77CFC00BDDCE700B500F0DA
:103B60003AF839683E600E4647F8046D4DF200168B
:103B7000FFF789FF00BD00B500F02DF839683E6001
:103B80000E4647F8046D4DF20076FFF77CFF00BD4E
:103B900000B5FFF7D4FF00F01EF839683E600E460E
:103BA00047F8046D4DF20006FFF76DFF00BD00B54C
:103BB00000F011F839683E600E46FFF790FF00BD37
:103BC00000B5FFF7BCFFFFF7A6FF47F8046D02261C
:103BD000FFF7B0FC00BD00B5FFF79DFF47F8046D8F
:103BE0000226FFF7A7FC00BD00B5FFF794FFFFF723
:103BF00076FF00BD00B5FFF78EFF47F8046D4DF26C
:103C00000006FFF740FF00BD00B5FFF784FF47F84F
:103C1000046D4DF20016FFF736FF00BD00B5FCF74E
:103C200031FCFCF761FBFCF764FBFCF767FB816888
:103C3000282901D1FCF76CFCFCF760FC47F8046D07
:103C400042F6000609020E43FFF702FCFCF715FBE3
:103C5000FCF73EFB00BDCA3C00003006026966006E
:103C600000B5FFF7ADFF47F8046D4DF2000647F8C9
:103C7000046D022600BD00B5FCF797FCFDF762FD60
:103C8000816A002910D002B4FCF722FBFFF743FF42
:103C900047F8046D0226FFF74DFC47F8046D40BC61
:103CA00047F8046D022600BDFFF7B8FFFFF733FFAA
:103CB00047F8046D0226FFF73DFC47F8046D4DF20E
:103CC000000647F8046D022600BDFE3C00003000EF
:103CD00004656C73650000B5022E40F0268040CF6D
:103CE000FFF779FFFDF796F9FFF715FF39683E609A
:103CF0000E46FFF7C8FE47F8046D052600BD4A3D95
:103D000000003000047468656E00052E01D140CFBC
:103D10006AE7022E09D140CF00B5FFF7FCFE3968F3
:103D20003E600E46FFF7AFFE00BDFEF732FE1753B2
:103D300074727563747572657320646F6E27742076
:103D40006D617463680A00F0ECBD783D00003000DE
:103D50000672657065617400042EE6D140CF00B52F
:103D6000FDF73CF9FFF723FFFFF7D5FE39683E600A
:103D70000E46FFF788FE00BDA43D00003006057723
:103D800068696C65012ED0D140CF00B5FFF768FFA0
:103D9000023600BD012EC8D140CF00B5FFF76BFF42
:103DA000023600BD043E0000300605756E74696C75
:103DB000012EBAD140CFEBE67047012EB5D140CFEE
:103DC00000B5FDF7BFFC816A00290DD002B4FCF7F5
:103DD0007FFAFFF700FF39683E600E4647F8046D32
:103DE00040BCFFF750FE00BDFFF718FFFFF7F3FEE2
:103DF00039683E600E4647F8046D4DF20006FFF745
:103E000042FE00BD183E0000300005616761696E2A
:103E1000012E8AD140CFCAE6503E00003000056234
:103E20006567696E00B5FFF798FE47F8046D0126D7
:103E300000BD000001FFFFFF00FFFFFF00000020AA
:103E400001F8FFFF00F8FFFFFF070000240000203B
:103E50006A3E00002002016B47F8046D029E704725
:103E600047F8046D49F602060BE0983E0000200278
:103E7000016A47F8046D009E704747F8046D49F6E3
:103E8000000600B5FCF7EFF9FCF7C8FA03601B0267
:103E90001E43FFF7DDFA00BDC43E000020020169A9
:103EA00047F8046D2600704700B547F8046D40F2EE
:103EB0002006FCF7D8F9FCF7B1FA03601E43FFF7C0
:103EC000C7FA00BD023F00003000056C65617665F1
:103ED00000B5754801683B00043F1A68043B1A604E
:103EE00008338B42F9D103B4FFF775FE03BC3300EE
:103EF00040CF04390B60016004390A6801320A605E
:103F000000BD143F0000200006756E6C6F6F7000DE
:103F100030BC70474C3F00003000052B6C6F6F7059
:103F2000032E00D001E740CF00B547F8046D5F4E87
:103F3000FFF776F8FFF71FFE1AE014F10044641B48
:103F4000A41940CF2C44A4F1004470478E3F0000D8
:103F50003000046C6F6F7000032E00D0E5E640CF98
:103F600000B547F8046D524EFFF75AF8FFF7F6FD1B
:103F700000F052F94C48310040CF016047F8046D21
:103F80004C4EFFF74DF800BD0134AC427047D63FB0
:103F90000000300202646F0000B547F8046D464E21
:103FA000FFF73EF84048016847F8046D0E0047F8F7
:103FB000046D00260760FFF7D0FD47F8046D032667
:103FC00000BD00B500F02FF8ECE730B4340040CF6E
:103FD000350040CF7047BC4000003002033F646FA3
:103FE00000B547F8046D344EFFF71AF847F8046D32
:103FF00044F2AC26FFF72CFA2B48016847F8046D11
:104000000E00FFF7E8FD013647F8046D012626484B
:104010000760FFF7A2FD47F8046D032600BD00B559
:1040200000F001F8E2E700B5FCF7BFFAFCF734FA5C
:10403000FCF75AF9FCF75DF9FCF760F947F8046DF5
:104040004BF23046FFF704FA0168282908D047F8F8
:10405000046D40F20406C9000E43FFF7F9F907E0CA
:1040600047F8046D466847F8046D0426FEF78AFE9B
:104070008168282908D047F8046D40F20506C90078
:104080000E43FFF7E5F907E047F8046DC66847F807
:10409000046D0526FEF776FEFCF7EFF8FCF7EDF869
:1040A000FCF736F900BD00000C0000203A3F00008C
:1040B000883F0000103F0000CA3F0000DC400000C5
:1040C000300004636173650000B5FCF76EFA47F8D1
:1040D000046D002647F8046D082600BDF24000007C
:1040E0003000033F6F66714809E0013EB64140CFA2
:1040F0007047B84100003002026F66006C48082E1D
:1041000000D012E640CF00B547F8046D0600FEF778
:1041100087FFFFF760FD39683E600E46013647F8BD
:10412000046D092647F8046D4CF64076FFF790F9C8
:1041300000BD082E00D0F8E540CF00B5FCF7ACF983
:10414000FCF7D2F8FCF7D5F8FCF7D8F847F8046D7F
:1041500044F28026FCF7DCF90E430268282A1ED1BF
:104160004268FF2A08D840CF47F8046D42F600069F
:10417000164309020E4314E047F8046D4668FEF743
:104180004DFD04CF002E40CF06D04A4E164356EACE
:104190000146FFF78CF906E0FCF7B0F90A00D200FF
:1041A0001643FFF755F9FCF768F8FCF7B1F8B0E7EC
:1041B000300040CFB0427047EE410000300005654E
:1041C0006E646F66092E00D0AFE540CF00B540B4F5
:1041D00040CFFFF700FD39683E600E46FFF714FD43
:1041E00047F8046D40BC47F8046D082600BD404206
:1041F0000000300007656E6463617365082E00D0AF
:1042000093E540CF00B547F8046D4CF64076FFF7D4
:104210001FF900F001F800BD00B5300040CF0028C4
:104220000DD003B401213140002903D0013EFFF736
:10423000E1FC01E0FFF7D8FC03BC0138EFE700BD6B
:1042400054420000000005746F6B656E47F8046D02
:10425000202605E0BC420000000005706172736515
:1042600010B5FEF7E0FA310040CF300040CF124ADF
:1042700012688418202E07D191420FD0835CB3427C
:1042800002D101328418F7E7914207D0835C0132F2
:10429000B342F9D18618361B013E01E08618361B61
:1042A000043F3C600448026010BD0000EA4000008A
:1042B000B0410000000FB0F1E47F0120FA4200009D
:1042C0000000056469676974CF4B1B68303E0BD3EF
:1042D0000A2E0BD3073E0A2E06D3242E06D3203EE9
:1042E0000A2E01D3242E01D3002670479E42FBD212
:1042F00047F8046D0026F6437047044400000000B0
:10430000066E756D626572003FB5310040CF701E5C
:104310000126012204B4BC4B1B680024002500299F
:104320003CD00130013902782D2A04D101B000229D
:10433000D24304B4F3E7232A01D10A23EFE7242A66
:1043400001D11023EBE7252A01D10223E7E72E2A2A
:1043500001D10226E3E72C2A36D047F8046D160077
:10436000FFF7B4FF002E40CF2BD047F8046D260096
:1043700047F8046D2E0047F8046D1E0047F8046DE1
:1043800000260FB4FCF719FB0FBC350040CF3400FA
:1043900040CF0022A419554140CFC0E704BC002AF9
:1043A00004D50022E443ED43013455413300260097
:1043B000012B02D047F8046D2E0047F8046D1E0053
:1043C0003FBD01B000263FBD250000240226002984
:1043D000E4D0425C01392E2AF9D047F8046D16006A
:1043E000FFF774FF002E40CFEBD0043F3C6047F84E
:1043F000046D1E000FB4FCF78FFB0FBC340040CFE0
:1044000040CFE4E7264400000000062E6469676997
:1044100074000A2E01D230367047242E01D237366E
:104420007047232670475C440000000004686F6CEE
:104430006400330040CF754801783F290DD2013127
:1044400001704018012907D001380278013002704C
:10445000013801390129F7D1037070477C4400000D
:10446000000005686F6C643C330040CF67480178FA
:104470003F2902D201310170435470479444000037
:104480000000047369676E00002E01D440CF7047AE
:104490002D26CEE7A8440000000002233E005B4822
:1044A0000678013038607047C044000000000366A1
:1044B000235310B5202400F008F8013CFBD110BDB7
:1044C000E244000000000266230000B547F8046DD6
:1044D0004D4E3668FCF733FAFFF79BFFFFF7C4FF3A
:1044E00000BDFE44000000000223530000B500F0B0
:1044F0000AF8002EFBD138680028F8D100BD2A4503
:1045000000000000012300B547F8046D3E4E3668F8
:1045100047F8046D0026FCF71EFBFCF77EF840CF41
:10452000FFF777FFFFF785FF00BD3C450000000067
:10453000023C230035480021017070474E450000C1
:10454000000002662E0047F8046D202604E09C451A
:104550000000000003662E6E00B510B4340040CF9A
:10456000FCF72AFDFCF770F947F8046D0026FFF709
:10457000E1FFFFF7BBFF40CF2C26FFF775FF002CB4
:1045800003D0FFF7A2FF013CFBD110BC40CFFFF7E7
:104590007BFF47F8046D47F8046D1CE0B24500004E
:1045A00000000375642E00B5FFF7C4FFFFF79EFF00
:1045B00011E0E4450000000002642E0000B5FCF7A5
:1045C000FBFCFCF741F9FFF7B5FFFFF78FFFFCF7A6
:1045D00005FDFFF759FFFFF762FFFEF736FAFEF71A
:1045E00087F900BDF6450000000002752E0047F86F
:1045F000046D0026D7E7B64700000000012E47F8FB
:10460000046DF617DAE70000FC7F0120840000202B
:1046100030B5D54C2568002D01D13D00256030BD59
:1046200030B5D14C3D00256030BD30B5CE4C0025B5
:10463000256030BDCC4B1B68DB1B9B08704700B569
:10464000310040CFC948084002D000F09CF800BDBE
:10465000C748084001D1FDF730F8320040CFFFF7DE
:10466000D7FFC448084003D047F8046D160000BDCA
:10467000FFF7E0FF8020084006D14020084009D025
:104680000F200840834205D347F8046D1600FEF75B
:1046900076FD00BDB848084014D0FBF788FD47F808
:1046A000046D160047F8046D0E0000F030F810009D
:1046B000FEF7CDFC421CB1489047FFF7B1FFFBF776
:1046C00085FD00BDFBF773FD47F8046D160047F844
:1046D000046D0E0000F01BF8FBF7FAFDFFF7A5FFD5
:1046E000A748084001D1FBF760FF47F8046D1600AA
:1046F00010220A4002D0FEF742FD00BD20220A40EF
:1047000002D0FEF78DFC00BDFEF799FB00BD0FB592
:10471000320040CF330040CF9A480168062907D2C3
:10472000062041439848401803801B0C4380828038
:1047300094480168013101600FBD0FB591480168CF
:1047400006291FD89048013916D047F8046D0E008D
:10475000FEF77EFE47F8046D0688FEF779FE47F8FF
:10476000046D4688FEF774FE47F8046D8688FEF7F0
:104770006FFE06300139EDD147F8046D41F20006B5
:10478000FEF7EFFD0FBD00B5300040CFFEF75FFC38
:104790000188023047F8046D0688428812041643E7
:1047A00047F8046D868803B4FFF749FF03BC063061
:1047B0000139EFD100BDFE470000000008657661B9
:1047C0006C756174650000B5FEF72DF801CF01B47A
:1047D00040B440CF6D48016802B400210160FEF78B
:1047E00015F800F014F8694802BC016047F8046D40
:1047F00040BC01BC043F3860FEF708F800BDFA4831
:104800000000000009696E7465727072657400B50D
:104810005F4887420BD9FEF7BCF810537461636B95
:1048200020756E646572666C6F770A0079E059488E
:1048300087420AD2FEF7ADF80F537461636B206FA5
:10484000766572666C6F770A6BE0FFF7E1FEFFF743
:10485000FDFC002E02D1043740CF00BD386847F878
:10486000046D043F3860FFF7C2F8310040CF3200DA
:1048700040CF002A15D138683100FCF71EFFFFF742
:1048800043FD320040CF002AC2D1FEF7E2F8FEF726
:1048900080F80C206E6F7420666F756E642E0A00AF
:1048A0003FE03D4B1B68002B1CD1FFF7BEFE3023C1
:1048B0000B40302B0ED1FEF7C8F8FEF76AF8122035
:1048C000697320636F6D70696C652D6F6E6C792EE6
:1048D0000A0026E0043740CF47F8046D1600FEF7C3
:1048E0004EFC95E7043740CF47F8046D160047F8B3
:1048F000046D0E00FFF7A3FE8AE716490000810051
:1049000009686F6F6B2D7175697447F8046D234EDC
:10491000704752490000B0490000000004717569F9
:104920007400DFF87CD01A4FFDF78EFB1D480A217A
:1049300001601948002101600B480160FBF70FFD81
:104940001248016018480160184941601348006826
:104950008746FDF776FFFFF75AFFFEF71AF80520A6
:104960006F6B2E0AF5E70000080000200010000021
:1049700000040000002000000002000028000020C9
:10498000000800005C00002060000020E47F01209F
:104990008C0300208C010020D87F0120D47F0120CF
:1049A0008C040020FC7F0120DC7F0120C40000205B
:1049B000CA49000000000565696E743F47F8046D40
:1049C000EFF31086013EB6417047DA49000020003F
:1049D0000465696E740062B67047EA490000200001
:1049E0000464696E740072B67047004A00002000CB
:1049F00004697073720047F8046DEFF30586704721
:104A00000C4A00000000036E6F7070474E4A0000B1
:104A1000000009756E68616E646C656400B5FDF731
:104A2000B8FF14556E68616E646C656420496E74DD
:104A3000657272757074200047F8046DEFF3058697
:104A4000FEF71AF8FDF7A5FF02210A0000BD604A33
:104A500000000000057265736574C948C9490160AA
:104A60008A4A000081000B6972712D737973746931
:104A7000636B47F8046DC44E70471C4A000047F64C
:104A8000D070C2F2010000688746B24A000081007F
:104A9000096972712D6661756C7447F8046DBB4EBF
:104AA00070471C4A000047F6CC70C2F20100006853
:104AB0008746E04A000081000E6972712D636F6CB9
:104AC0006C656374696F6E0047F8046DB04E704793
:104AD0001C4A000047F6C870C2F201000068874611
:104AE000084B00008100096972712D657874693086
:104AF00047F8046DA74E70471C4A000047F6C47083
:104B0000C2F2010000688746304B0000810009694D
:104B100072712D657874693147F8046D9E4E704747
:104B20001C4A000047F6C070C2F2010000688746C8
:104B3000584B00008100096972712D6578746932E3
:104B400047F8046D954E70471C4A000047F6BC704C
:104B5000C2F2010000688746804B000081000969AD
:104B600072712D657874693347F8046D8C4E704707
:104B70001C4A000047F6B870C2F201000068874680
:104B8000A84B00008100096972712D657874693441
:104B900047F8046D834E70471C4A000047F6B47016
:104BA000C2F2010000688746CE4B00008100076911
:104BB00072712D61646347F8046D7B4E70471C4A27
:104BC000000047F6B070C2F2010000688746F64B5D
:104BD00000008100086972712D74696D320047F818
:104BE000046D724E70471C4A000047F6AC70C2F26A
:104BF0000100006887461E4C000081000869727140
:104C00002D74696D330047F8046D694E70471C4A76
:104C1000000047F6A870C2F2010000688746464CC3
:104C200000008100086972712D74696D340047F8C5
:104C3000046D604E70471C4A000047F6A470C2F233
:104C40000100006887460C500000FFFF182D2D2D35
:104C500020466C6173682044696374696F6E617289
:104C600079202D2D2D00FDF747FC53488546534FE5
:104C70002A2653485349016053485449016047F874
:104C8000046D524E524DB188524B994224D0524B32
:104C90000B400AD0B01DFEF79BFEFEF7D8F9038843
:104CA000408800040343ED1A16E080230B4013D024
:104CB0000F23194089006D1AB01DFEF789FEFEF71B
:104CC000C6F947F8046D060047F8046D2E0047F852
:104CD000046D0E00FCF7B6FDFEF758FE300040CF25
:104CE000D1D03E48066040CF3D4805603D483E4932
:104CF000384A884204D0023803889342F9D00230FF
:104D00003A490860FDF7A0F9FDF743FE464D65639B
:104D1000726973702D5374656C6C61726973205283
:104D20004120312E35206578706572696D656E742D
:104D3000616C20666F722053544D33324C343736D9
:104D4000206279204D61747468696173204B6F63D0
:104D500068200A0026480021016047F8046D254EAE
:104D600047F8046D0426FEF742FE40CF002E02D025
:104D7000FEF705FAEAE540CFD3E5696E69740000F5
:104D80000CED00E00400FA05D07F0120CC7F01206B
:104D9000C87F0120C47F0120C07F0120BC7F01208B
:104DA000B87F0120B47F0120B07F0120AC7F0120BB
:104DB000A87F0120A47F01208C0400208C03002008
:104DC00000000020300700200400002088010000BF
:104DD00000800120FFFF0000000100001C000020F7
:104DE00024000020000010000050000018000020E7
:084DF000080000207A4D0000CC
:0400000508000000EF
:00000001FF
