:100000005C040010B94900000549000005490000E2
:1000100000000000000000000000000000000000E0
:100020000000000000000000000000002F49000058
:1000300000000000000000002F490000E34800001D
:100040002F4900002F4900002F4900002F490000D0
:100050002F4900002F4900002F4900002F490000C0
:100060002F4900002F4900002F4900002F490000B0
:100070002F4900002F4900002F4900006F49000060
:100080002F4900002F4900002F4900002F49000090
:100090002F490000914900002F4900002F4900001E
:1000A0004F4900002F4900002F4900002F49000050
:1000B0002F4900002F4900002F4900002F49000060
:1000C000FFFFFFFFFFFFFFFFFFFFFFFFFFFFFFFF40
:1000D000FFFFFFFFFFFFFFFFFFFFFFFFFFFFFFFF30
:1000E000FFFFFFFFFFFFFFFFFFFFFFFFFFFFFFFF20
:1003000000070000FFFF1E2D2D2D204D6563726933
:1003100073702D5374656C6C6172697320436F72D6
:1003200065202D2D2D0007B59B48002B09D000F02E
:100330002FF800F035F800F01FF842612821016124
:10034000F3E707BD00B5944800230169282905D1CA
:10035000426900F004F800F038F8F6E700BD03B594
:10036000043F3E601600043F3E601E0008B400F0EB
:1003700013FF08BC013303BD03B5013B043F3E60DE
:100380001E0008B400F0F2FE08BC320040CF03BDEE
:1003900003B5824801681E2901D000F024F803BD8E
:1003A0008169016201698161C16941624169C1611B
:1003B0001E21016170470FB5774801691E2903D0DE
:1003C000FFF7E6FFFFF7ECFF0FBD02B581690161A2
:1003D000C169416100E002B5016A8161416AC161A0
:1003E0001E21016202BD08B501681E2202600829B3
:1003F0000BD2043F3E606A4E02F0C7FF043F3E60EE
:10040000684E0E4302F0C1FF08BD28290DD1043FFC
:100410003E60634E02F0B9FF436800F061F8043FAC
:100420003E60604E1E4302F0B0FF08BD00B500F014
:1004300005F800F008F800F00BF800BD0FB55748BC
:10044000FFF7D1FF0FBD0FB55748FFF7CCFF0FBD2A
:100450000FB551480169062202611E2905D1043FEA
:100460003E60524E02F091FF2CE0282921D14369D1
:1004700001681E2908D041688B4205D1043F3E60C7
:100480004B4E02F082FF1DE081681E2908D0C16832
:100490008B4205D1043F3E60464E02F076FF11E0EC
:1004A000043F3E601E00043F3E60062602F09EFBB5
:1004B00008E0062906D0043F3E603D4EC9000E43C9
:1004C00002F063FF00F001F80FBD33481E21016008
:1004D00081600162816106210161002181627047B2
:1004E00007B500F017F84360282101600023043F9E
:1004F0003E601E0002F07AFB07BD07B500F00AF867
:10050000C360282181600123043F3E601E0002F089
:100510006DFB07BD204801681E2904D0416899423F
:1005200001D1002307BD81681E2904D0C16899420A
:1005300001D1012307BD043F3E601E00704706B590
:100540001B181968282926D15A6801681E2906D067
:100550004168914203D1043F3E60174E08E0816834
:100560001E290CD0C168914209D1043F3E60134E50
:1005700000F026F813601E4302F007FF06BD043F9B
:100580003E601600190000F01BF80B60043F3E604F
:100590001E0002F02BFB06BD2800001048000010D2
:1005A000043F0000386000004000001040CF000011
:1005B000064600000E460000004600000846000007
:1005C00007B5214801698269036A062905D0062A10
:1005D00003D0062B01D0062307BD032905D0032A2B
:1005E00003D0032B01D0032307BD022307BD00B5B1
:1005F000FFF7E6FF036001219940043F3E60134E80
:100600000E4302F0C2FE00BD0FB50F4801691E295E
:1006100002D10F48FFF7EBFF0FBD0FB50A48816904
:100620001E2904D1FFF7F0FF0A48FFF7E0FF0FBDD6
:100630000FB50548016A1E2904D1FFF7EEFF0648F1
:10064000FFF7D5FF0FBD00002800001000CF00000D
:1006500038000010400000104800001000B501698B
:10066000282903D14369FFF73BFF190000BD00B5FE
:100670008169282903D1C369FFF732FF190000BD42
:100680000EB58269036A9A420AD1072A08D8043F44
:100690003E60D600FFF794FF1E43836102F075FEB3
:1006A0000EBD0EB501698269036A914202D099427A
:1006B00000D00EBD043F3E60CE00FFF781FF1E4319
:1006C000036102F062FE0EBD00B5FFF77EFEFFF78C
:1006D00072FEFFF775FF036100BD01B506480368B0
:1006E000013307D00023DB430360043F3E60034E29
:1006F00002F04BFE01BD0000B40F001000B5000079
:100700002407000042020432647570003868043F18
:100710003E60043F3860704700B500F04FFC00F0C9
:100720004DFC00BD440700006202053264726F7028
:10073000043740CF704700B500F0F0FB00F0EEFB4F
:1007400000BDC04664070000440005327377617045
:1007500007CF043F3860043F3E60043F3A600E001C
:100760007047C04678070000620004326E6970006E
:1007700007CF043F386070479407000044000532FB
:100780006F766572B868043F3E60043F3860FE686B
:100790007047C046B8070000440005327475636BAB
:1007A00007CF043F3860043F3E60043F3A60043F97
:1007B0003960043F38607047DC07000046000432AF
:1007C000726F74003868B9683A69B86039613A6024
:1007D00079687E60FE68F9607047C04600080000D6
:1007E000460005322D726F743868B9683A6938610D
:1007F0003960BA60F968FE607E6879607047C0460B
:1008000028080000200203323E7201CF01B440B438
:1008100040CF704700B5FFF760FF00F0A3FB00F08A
:1008200047FC00F045FC00BD5408000020020332E4
:10083000723E043F3E6040BC01BC043F38607047DC
:1008400000B5FFF74AFF00F04EFC00F04CFC00F052
:1008500089FB00BD84080000200203327240043F7F
:100860003E60019E043F3E60009E704700B5FFF76A
:1008700034FF043F3E600C4E03F0B5FA03F0B0FACB
:1008800000BDC046B0080000200206327264726FDC
:10089000700002B0704700B5FFF71FFF043F3E60D5
:1008A000024E02F072FD00BD0198000002B000008F
:1008B000C808000042000364322F3868F107761040
:1008C0004008084338607047DC0800006200036499
:1008D000322A38680018764138607047F8080000FE
:1008E00042000464736872003868F10776084008B3
:1008F000084338607047C046100900006200046475
:1009000073686C0038680018764138607047C046DC
:10091000240900004200046461627300002E08D4C0
:100920007047C04644090000420007646E65676175
:10093000746538680021C043F64301304E41386089
:100940007047C0465C090000640002642D0007CFB8
:10095000121AB1410E00043F3A607047740900005A
:10096000640002642B0007CF12184E41043F3A6026
:100970007047C04694090000610203733E64043F5F
:100980003E60F617704700B500F0B6FA00F063FD60
:1009900000BDC046C0090000420003756D2A3868DA
:1009A000030073433B60010C320C0B005343B6B29F
:1009B00080B24E4350433618360CF6187047C04686
:1009C000F00900004200026D2A003868C11705D006
:1009D00040423860F01704D07642E0E7F017DED0EE
:1009E000764200B5FFF7DBFFFFF7A3FF00BDC0466F
:1009F000300A000044000375642A07CF5643414380
:100A00007618010C130C59437618010C80B292B27F
:100A10005143434350430022C91852411204B618AF
:100A20000A04090C80184E41043F38607047C046E4
:100A3000C40A000044000475646D2A0010B5002447
:100A4000043F3E607E68043F3E603E69FFF7A7FFBB
:100A5000310040CF300040CF043F3E603E68043F4D
:100A60003E60FE6803B4FFF79AFF03BC330040CF3B
:100A7000320040CF043F3E603E68043F3E603E6926
:100A80000FB4FFF78CFF0FBC9219634140CF891957
:100A90006241634140CF043F3E607E68043F3E6058
:100AA000FE680FB4FFF77BFF0FBC9219634140CF84
:100AB00089196241634140CF1E003A607960B86095
:100AC00010BDC046E80A00004300022A2F0000B50E
:100AD00040B440CFFFF779FF043F3E6040BC00F0D8
:100AE0004FF8043700BDC0460C0B00004300052A38
:100AF0002F6D6F6400B540B440CFFFF766FF043F31
:100B00003E6040BC00F03CF800BDC046300B000029
:100B1000430003752A2F00B540B440CFFFF73FFFD5
:100B2000043F3E6040BC00F01CF8043700BDC046E6
:100B3000540B0000430006752A2F6D6F640000B54A
:100B400040B440CFFFF72BFF043F3E6040BC00F0B5
:100B500008F800BD740B0000430006756D2F6D6F23
:100B6000640000B5043F3E60002600F01AF840CF54
:100B7000043700BD940B00004300056D2F6D6F64BA
:100B800000B5043F3E60F61700F034F840CF04375C
:100B900000BDC046E80B000044000675642F6D6F71
:100BA000640030B4002300227968B86835003C68DE
:100BB00040264000494152415B41AB4202D804D338
:100BC000A24202D3121BAB410130013EF1D10E0013
:100BD00038607B60BA6030BC704730B400237A68FC
:100BE000B9680020E2E7C046600C000044000564DC
:100BF0002F6D6F6400B5F01719D0FFF79AFEFFF75D
:100C0000A7FDF0170CD0FFF794FEFFF7A1FDFFF74B
:100C1000C8FFFFF79DFDFFF78CFEFFF799FD00BDB4
:100C2000FFF796FDFFF7BDFFFFF783FE00BDFFF75F
:100C30008FFDF0170ED0FFF77CFEFFF789FDFFF761
:100C4000B0FFFFF776FEFFF783FDFFF772FEFFF7B9
:100C50007FFD00BDFFF77CFDFFF7A3FF00BDC04691
:100C6000780C0000440002642F0000B5FFF7C2FFBB
:100C7000FFF77EFD00BDC046C00C000044000266C8
:100C80002A0000B5F0170DD0FFF753FEFFF760FD07
:100C9000F0170DD0FFF74DFEFFF7D0FE40CF01CF8C
:100CA000386000BDFFF754FDF017F5D0FFF741FEA7
:100CB000FFF7C4FE40CF01CF3860FFF73AFE00BD1A
:100CC0000C0D0000440002662F0000B5F0170ED096
:100CD000FFF72FFEFFF73CFDF0170ED0FFF729FEC0
:100CE000FFF736FDFFF779FFFFF742FD00BDFFF785
:100CF0002FFDF017F4D0FFF71CFEFFF729FDFFF7DB
:100D00006CFFFFF716FEFFF733FD00BD540D00002A
:100D100020020232210006CF3160726040CF70475E
:100D200000B5FFF785FC0169426906B400F0CEFD0D
:100D3000FFF741FB06BC0161282905D0043F3E6056
:100D4000544E00F0C6FD00BD0432426100F0BEFD0D
:100D500000BDC0469C0D0000200202324000043F4E
:100D6000706838603668704700B500F0C5F80169F2
:100D7000282909D0043F3E60474E00F088FD00F06E
:100D8000F1F800F081FD00BD41690431416100F0DE
:100D90007BFD00F0E7F800F077FD00BDBC0D000022
:100DA00044000364753C07CF8E4204D801D19042C1
:100DB00001D8002670470026F6437047DC0D00007E
:100DC00044000364753E07CFB14204D801D182428A
:100DD00001D8002670470026F6437047FC0D00003E
:100DE000440002643C0007CF8E4204DC01D19042F3
:100DF00001DC002670470026F64370471C0E0000F9
:100E0000440002643E0007CFB14204DC01D18242BB
:100E100001DC002670470026F6437047380E0000BC
:100E200062020364303C0437F617704700B500F0E7
:100E3000ACF800F010FB00BD600E0000620203641D
:100E4000303D01CF0643013EB641704700B5043F37
:100E50003E60124E00F083FA00F0D8FA00BDC046A2
:100E60007C0E0000440003643C3E07CF50404E40DF
:100E70000643013EB641F6437047C046A00E00004F
:100E8000440002643D0007CF50404E400643013EFF
:100E9000B641704740600000406800000043000019
:100EA000B40E0000200003737040043F3E603E001B
:100EB0007047C046C40E0000200003737021370045
:100EC00040CF7047D80E0000200003727040043FEE
:100ED0003E606E467047C046E80E00002000037278
:100EE0007021B54640CF70470C0F000061020364CB
:100EF0007570043F3E60704706B5FFF785FB0169DA
:100F00004269FFF758FA0161426106BD380F0000DF
:100F100061020464726F700040CF704700B50169D0
:100F20001E2905D1043F3E60A24E02F02EFA00BDFC
:100F3000FFF74BFA00BDC046500F00006100043FB0
:100F400064757000002E01D0043F3E607047C046BB
:100F50007C0F0000620204737761700039683E60A4
:100F60000E0070470CB5FFF758FB026983690361F7
:100F700082614269C3694361C2610CBDA80F000070
:100F80006202036E69700437704700B5FFF73CFBDF
:100F900081691E2902D0FFF71EFA00BD043F3E60A2
:100FA000844E02F0F2F900BDD00F00006202046F1F
:100FB00076657200043F3E607E68704700B5FFF7BB
:100FC0002CFB8169C269FFF7F6F90161426100BD3E
:100FD000FC0F00006202047475636B0001CF083FD0
:100FE0007E603860704700B5FFF717FBFFF7D0F958
:100FF000016901624169416200BDC04634100000D0
:10100000630203726F7403CF083F78603E600E0086
:1010100070470EB5FFF70CFB01698269036A8161B5
:10102000026203614169C269436AC161426243610C
:101030000EBDC046581000006302042D726F74008C
:1010400003CF083F7E6039600600704700B5FFF7A8
:10105000E0FFFFF7DEFF00BD6C1000002000047011
:1010600069636B00B0003E587047C04684100000B2
:1010700000000564657074684F49C91B043F3E60F9
:101080008E087047A010000000000672646570743E
:101090006800043F3E606E464849891B8E087047D1
:1010A000D41000002002023E720040B440CF7047CE
:1010B00000B5FFF712FBFFF7A7FAFFF7CFFA043FDF
:1010C0003E603F4E01228A40164302F05EF9FFF770
:1010D0007CF900BD08110000200202723E00043FAE
:1010E0003E6040BC704700B5FFF7F7FAFFF763F9C1
:1010F000FFF766FA0361043F3E60324E01229A40D8
:10110000164302F042F900BD2811000020020272CD
:101110004000043F3E60009E704700B5FFF7DDFAD7
:1011200002F05EFE00BDC0464C11000020020572B8
:1011300064726F7001B0704700B5FFF7CEFA043FDC
:101140003E60214E02F021F900BDC0466011000052
:10115000200005727069636BB6006E443668704794
:101160008C110000000004726F6C6C00002E01D125
:1011700040CF7047B0003958C019031F1A68026089
:101180000438013EF9D104370E007047CC1100003D
:101190000000052D726F6C6C002E01D140CF70479E
:1011A000386839464A680A600431013EFAD108605D
:1011B00040CF7047043700005C0300105C0400104F
:1011C00000B4000000BC000001B00000E411000009
:1011D000620203616E6401CF06407047043F3E60C7
:1011E0007B4EBCE00012000062020362696301CF23
:1011F000B04306007047043F3E60764EC9E0C046EB
:10120000181200006202026F720001CF064370479D
:10121000043F3E60704EA2E030120000620203788C
:101220006F7201CF46407047043F3E606B4E96E0C0
:10123000481200006202012A01CF46437047043F72
:101240003E60674E8BE0C0466812000041000363B9
:101250006C7A300006D00026400002D001D2013660
:10126000FAE7704720267047781200006100037289
:101270006F720120C64170478C120000610003723A
:101280006F6C0020B61946417047C046C01200007E
:101290006202076172736869667401CF30410600AB
:1012A000704700B5043F3E604E4E043F3E604E4ED8
:1012B000FFF7B3F941691F2928D91F21416125E0B2
:1012C000E81200006202067273686966740001CF5A
:1012D000F0400600704700B5043F3E60434E043FB7
:1012E0003E60434E12E0C046FC1300006202066CF2
:1012F00073686966740001CFB0400600704700B59E
:10130000043F3E603B4E043F3E600026FFF785F9F8
:101310000169282903D040CF00F03BF800BD043715
:101320004169FFF752F8002901D140CF00BD1F29C4
:101330000AD889010E430269D2001643FFF7C4F9A7
:101340001E4302F022F800BD40CFFFF7BDF9043F75
:101350003E60294E1B021E4302F017F800BD0FB578
:10136000FFF75BF90169062901D1FFF7FBFD8269EF
:10137000282A01D1FFF7F6FDFFF782F9FFF76EF992
:10138000C90082690E43164301F0FFFFFFF71DF805
:101390000FBD0FB5FFF741F9FFF772F9FFF75EF9DF
:1013A0008269282A0BD1043F3E60C669FFF708F91D
:1013B0008361043F3E601E001A0001F017FCC90063
:1013C0000E43164301F0E1FFFEF7FFFF0FBD0000E3
:1013D0000040000080430000004300004040000047
:1013E000404300000041000000100000C040000029
:1013F00000080000804000000020000020140000D1
:10140000610202303D00013EB641704700B500F078
:1014100003F900F0AEFEFEF7D8FF7349816200BD0C
:1014200048140000610203303C3E013EB641F643E1
:10143000704700B500F0F0F800F09BFEFEF7C5FF26
:101440006A49816200BDC0466C140000610202302E
:101450003C00F617704700B500F0DEF8043F3E6030
:10146000634E00F089FE6349816200BD8414000070
:101470006000047472756500043F3E600026F64308
:101480007047C0469814000060000566616C736583
:10149000043F3E6000267047BC1400004202023E3A
:1014A0003D0001CFB042E9DA00267047043F3E60BC
:1014B000514E043F3E60514EB8E0C046E01400007B
:1014C0004202023C3D0001CFB042D7DD002670470A
:1014D000043F3E604A4E043F3E604A4EA6E0C0468E
:1014E000001500004202013C01CFB042C6DB0026DD
:1014F0007047043F3E60414E043F3E603E4E95E0E3
:10150000201500004202013E01CFB042B6DC0026A9
:101510007047043F3E603B4E043F3E60384E85E0DE
:1015200044150000620203753E3D01CF861BB641A3
:10153000F6437047043F3E602C4E043F3E602A4E07
:1015400074E0C04668150000620203753C3D01CF9F
:10155000361AB641F6437047043F3E602A4E043FB8
:101560003E602A4E62E0C0468815000062020275A5
:101570003C0001CF861BB6417047043F3E601A4EC7
:10158000043F3E60194E51E0A8150000620202754A
:101590003E0001CF361AB6417047043F3E601B4EF5
:1015A000043F3E60184E41E0C81500006202023C54
:1015B0003E0001CF811B361A0E437047043F3E6048
:1015C000134E043F3E6031E01C1700006202013DF3
:1015D00001CF361A013EB6417047043F3E600D4EC2
:1015E000043F3E6022E0000000D2000000D3000073
:1015F000C017000000D5000000DB000000DA00008A
:1016000000DC000000DD000000D8000000D9000070
:1016100000D0000000D1000000B5FEF7F5FF202348
:10162000FEF78DFF1823FEF78AFF00BD00B5FEF719
:10163000F4FF2023FEF783FF8269282A04D1FFF7F5
:1016400091FC39683E600E4640CF0169282909D1D6
:101650004169FF2906D8043F3E60644E0E4381690C
:10166000090206E0FEF7FAFF043F3E60604EC90043
:1016700016430E4301F089FEFEF7A7FEFEF7A5FE16
:10168000866240CF00BD0FB55A48816A002930D02C
:10169000043F3E60866A00218162310AD52901D16A
:1016A00040CF0FBDFEF787FEFEF78AFF0361D22908
:1016B00003D1514E00F0A8FD0FBDD32905D14E4EE8
:1016C00000F0A2FD00F0B3FD0FBD023601F05DFE9B
:1016D000043F3E60494E00F00DF800F0A8FD043FC5
:1016E0003E60474E01F051FE043F3E60434E00F025
:1016F00001F80FBD00B5FEF787FFFEF7D2FF0169C5
:1017000009020E4301F041FE00BD00B5816A090ADD
:10171000D52901D1FEF759FE00BDC046381700009B
:101720006202036D696E01CFB04200DC06007047B3
:10173000043F3E60334E2BE0541700006202036DFD
:10174000617801CFB04200DB06007047043F3E6085
:101750002D4E1DE074170000620204756D61780063
:1017600001CFB04200D306007047043F3E60274ED1
:101770000EE0C04618180000620204756D696E0024
:1017800001CFB04200D806007047043F3E60204EB3
:1017900000B5FEF742FF01698269914203D140CF53
:1017A000FEF719FE00BD062A01D1FFF7DBFB016938
:1017B000282901D1FFF7D6FBFEF773FFFEF757FF8D
:1017C000C9000269043F3E60094E0E43164301F012
:1017D000DCFD01F0DAFD043F3E600E4E0E43164381
:1017E00001F0D3FDFEF7F7FD00BD0000002800006A
:1017F000804200002800001080410000002000000E
:1018000000E0000000DB000000DC000000D8000069
:1018100000D3000000460000581800000000046DCE
:101820006F76650007B5310040CF320040CF002908
:101830000FD0B2420DD006D3013E013A705C505435
:101840000139FBD105E030781070013601320139E1
:10185000F9D140CF07BDC0467C18000000000466E7
:10186000696C6C00300040CF310040CF002902D0BD
:1018700001397054FCD140CF7047C046BC180000FD
:101880002002014036687047043F3E60984E00B524
:10189000FEF7BAFE0369282B08D143697C21194061
:1018A00009010E437C218B43FEF727FEDB001E431C
:1018B000FEF70AFF1E4301F068FD00BD101900008D
:1018C0002002012103CF30600E007047043F3E60CC
:1018D000884E00B5FEF7A1FE0369282B08D14369A5
:1018E0007C21194009010E437C218B43FEF705FE44
:1018F000DB001E438369282B02D1C369FEF7F0FD8C
:101900001E4301F042FDFEF760FDFEF75EFD00BDE7
:10191000481900002002022B210003CF3268121860
:1019200032600E00704700B5FEF777FEFFF7E4FA6D
:10193000FFF7AAFFFFF76DFB00F0CDFBFFF712FBEF
:10194000FFF7C4FF00BDC0468C19000020020268EA
:1019500040003688704700B5FEF756FE043F3E60F3
:10196000654E0369282B08D143693E21194049017E
:101970000E433E218B43FEF7C0FDDB001E43FEF706
:10198000A3FE1E4301F001FD00BDC046E4190000A6
:1019900020020268210003CF30800E00704700B59E
:1019A000FEF73BFE043F3E60544E0369282B08D1EE
:1019B00043693E21194049010E433E218B43FEF706
:1019C0009CFDDB001E438369282B02D1C369FEF70F
:1019D00087FD1E4301F0D9FCFEF7F7FCFEF7F5FC8E
:1019E00000BDC0461C1A0000200203682B2103CF53
:1019F0003288121832800E00704700B5FEF70DFED7
:101A0000FFF77AFAFFF7A7FFFFF703FB00F063FB8E
:101A1000FFF7A8FAFFF7C3FF00BDC046601A000039
:101A20002002026340003678704700B5FEF7ECFDF7
:101A3000043F3E60324E0369282B08D143691F21C1
:101A4000194089010E431F218B43FEF756FDDB0031
:101A50001E43FEF739FE1E4301F097FC00BDC04651
:101A6000B81A000020020263210003CF30700E007C
:101A7000704700B5FEF7D1FD043F3E60214E03697B
:101A8000282B08D143691F21194089010E431F21CA
:101A90008B43FEF732FDDB001E438369282B02D106
:101AA000C369FEF71DFD1E4301F06FFCFEF78DFCC0
:101AB000FEF78BFC00BDC046081B0000200203633C
:101AC0002B2103CF3278121832700E00704700B508
:101AD000FEF7A3FDFFF710FAFFF7A7FFFFF799FA4C
:101AE00000F0F9FAFFF73EFAFFF7C3FF00BD000070
:101AF0000068000000600000008800000080000016
:101B00000078000000700000481B00002002046202
:101B10006973210003CF3268024332600E007047C0
:101B200000B5FEF77AFDFFF7E7F9FFF7ADFEFFF727
:101B300070FA043F3E60AB4EFFF711FCFFF712FA5C
:101B4000FFF7C4FE00BDC046881B000020020462EF
:101B50006963210003CF3268824332600E00704710
:101B600000B5FEF75AFDFFF7C7F9FFF78DFEFFF747
:101B700050FA043F3E609C4EFFF70BFCFFF7F2F972
:101B8000FFF7A4FE00BDC046C81B00002002047879
:101B90006F72210003CF3268424032600E007047FE
:101BA00000B5FEF73AFDFFF7A7F9FFF76DFEFFF767
:101BB00030FA043F3E608D4EFFF7D1FBFFF7D2F9BC
:101BC000FFF784FE00BDC046FC1B0000200204623B
:101BD0006974400001CF36680640013EB641F643C5
:101BE000704700B5FEF719FDFFF74EFE043F3E605B
:101BF0007F4EFFF7B4FBFFF71CFC00BD3C1C000050
:101C0000200205686269732103CF32880243328063
:101C10000E00704700B5FEF700FDFFF76DF9FFF706
:101C20009AFEFFF7F6F9043F3E606E4EFFF797FB12
:101C3000FFF798F9FFF7B3FE00BDC0467C1C00001B
:101C4000200205686269632103CF328882433280B3
:101C50000E00704700B5FEF7E0FCFFF74DF9FFF707
:101C60007AFEFFF7D6F9043F3E605F4EFFF791FB27
:101C7000FFF778F9FFF793FE00BDC046BC1C0000DB
:101C800020020568786F722103CF3288424032808B
:101C90000E00704700B5FEF7C0FCFFF72DF9FFF707
:101CA0005AFEFFF7B6F9043F3E60504EFFF757FB70
:101CB000FFF758F9FFF773FE00BDC046F01C0000A7
:101CC000200205686269744001CF36880640013EF3
:101CD000B641F643704700B5FEF79FFCFFF73BFEA9
:101CE000043F3E60424EFFF73AFBFFF7A2FB00BD08
:101CF000301D0000200205636269732103CF327832
:101D0000024332700E00704700B5FEF786FCFFF705
:101D1000F3F8FFF78AFEFFF77CF9043F3E60314E8F
:101D2000FFF71DFBFFF71EF9FFF7A3FE00BDC0463E
:101D3000701D0000200205636269632103CF3278C1
:101D4000824332700E00704700B5FEF766FCFFF765
:101D5000D3F8FFF76AFEFFF75CF9043F3E60224EBE
:101D6000FFF717FBFFF7FEF8FFF783FE00BDC04645
:101D7000B01D000020020563786F722103CF327816
:101D8000424032700E00704700B5FEF746FCFFF788
:101D9000B3F8FFF74AFEFFF73CF9043F3E60134EED
:101DA000FFF7DDFAFFF7DEF8FFF763FE00BDC04680
:101DB000F41D0000200205636269744001CF36788B
:101DC0000640013EB641F643704700B5FEF725FCDC
:101DD000FFF72BFE043F3E60054EFFF7C0FAFFF70A
:101DE00028FB00BD0043000080430000404000008D
:101DF00000400000381E0000810009666C617368B5
:101E00002D6B687A043F3E604F4E7047E02E000015
:101E100000F09EFD1E466C6173682063616E6E6FFC
:101E200074206265207772697474656E20747769B6
:101E300063650A0002F0A8FCE41E000000000831FF
:101E400036666C61736821003FB50F20304015D0B5
:101E500000F07EFD223136666C61736821206E656C
:101E60006564732031362D616C69676E656420612D
:101E70006464726573730A0002F086FC3068013096
:101E8000C6D170680130C3D1B0680130C0D1F068EC
:101E90000130BDD100F046F808CF04CF02CF01CF0A
:101EA000803F803F01B438004024284D20C0013CD1
:101EB000FCD101BCFF243440E4190FC4FF25AE431C
:101EC0002348332101604660876080218031C160F2
:101ED0001D49096801611F491F4A904780378037B3
:101EE00040CF3FBD5C1F000000000A657261736552
:101EF000666C6173680072B600F014F800F015F8B3
:101F000000F026FD1A46696E697368656420657283
:101F10006173696E672E20526573657420210A0013
:101F200002F0CCFC00B5322101E000B534210848B4
:101F30000160052141600721816003490968C16092
:101F40000449054A904700BDDC0F0010FFFFFFFF6A
:101F5000DC060010F0060010F11FFF1F7C1F0000C0
:101F6000000009696E6974666C617368534854496E
:101F70000022027001300139FBD17047642000005B
:101F800000000768666C6173682130B5320040CF8D
:101F9000500813D300F0DCFC1E68666C6173682186
:101FA000206E65656473206576656E206164647279
:101FB00065737365732E0A0002F0E6FB414B9A428B
:101FC00010D200F0C5FC1943616E6E6F74207772F9
:101FD00069746520696E746F20636F726520210AD1
:101FE00002F0D2FB130935482021046824099C42E1
:101FF00026D014300139F8D1304820210468002C53
:1020000017D014300139F9D100F0A2FC21546F6FC0
:10201000206D616E792073636174746572656420EC
:10202000466C617368207772697465732E0A02F0DA
:10203000ABFB1B010360013941608160C16001613C
:102040000F2111400431465240CF01680131016037
:102050000F221140082903D100F01BF8FFF7F4FE0E
:1020600030BDC046C820000000000A666C75736869
:10207000666C6173680000B5104820210268002A70
:1020800003D000F006F8FFF7DFFE14300139F5D178
:1020900000BD043F3E604668043F3E608668043FE2
:1020A0003E60C668043F3E600669043F3E600F26FE
:1020B000F643026816400022026070475C0400107C
:1020C0008002000000500000F42000006202012B9A
:1020D00001CF3618704700B5FEF79FFA043F3E6007
:1020E000D84E043F3E60D84E8169282912D1FEF7B0
:1020F00039FF0FE0642100006202012D01CF861B31
:10210000704700B5FEF789FA043F3E60CF4E043FAA
:102110003E60CF4E016928290ED14169FF290BD8B5
:1021200040CFFEF7ADFA0E43816909020E4301F07C
:102130002CF9FEF74AF900BD0437FEF78FFA8269E1
:10214000282A03D1C369FEF7CBF91A008901D2000E
:102150000E431643FEF739F9FEF7B6FA1E4301F0B7
:1021600014F900BD90210000610202312D00013EF2
:102170007047043F3E60B74E00B5FEF745FA01696F
:10218000C9000E43FEF7A0FA1E4301F0FEF800BDA1
:10219000A8210000610202312B0001367047043F84
:1021A0003E60AD4EE8E7C046C02100006102023249
:1021B0002D00023E7047043F3E60A84EDCE7C0465B
:1021C000D8210000610202322B0002367047043F22
:1021D0003E60A34ED0E7C046F021000061020563D7
:1021E000656C6C2B04367047043F3E609D4EC3E720
:1021F000202200006102066E656761746500764208
:102200007047043F3E60984E00B5FEF7FDF9FEF7BB
:1022100048FA01690E43C9000E4301F0B6F800BD4B
:10222000382200006102036E6F74F6437047043F6A
:102230003E608E4EE8E7C046502200006102037304
:10224000687276087047043F3E60894EDCE7C046FE
:102250006022000061020373686C7600704706E03C
:1022600078220000610202322A0076007047043FA3
:102270003E604026C8E7C046902200006102056328
:10228000656C6C73B6007047043F3E608026BBE708
:10229000A8220000610202322F0076107047043F2E
:1022A0003E60744EB0E7C046F42200006102036154
:1022B0006273F01736184640704700B5FEF7A4F970
:1022C000FEF7EFF91E2101600169043F3E606A4E8E
:1022D000CA00164301F059F8043F3E605A4E0E43BF
:1022E000164301F052F8043F3E60644E0E4301F085
:1022F0004CF800BD3C230000420005752F6D6F6453
:10230000310040CF002903D1043F3E6000267047D2
:10231000012200238E4206D9003104D45200490024
:1023200001D48E42FAD88E4201D3761A134349085B
:102330005208F8D1043F3E601E007047AC230000F5
:102340004200042F6D6F640000B5300040CF002EB6
:102350001CDA764200280CDA4042043F3E60060058
:10236000FFF7CEFF300040CF7642043F3E600600CC
:1023700000BD043F3E600600FFF7C2FF300040CFC3
:1023800040427642043F3E60060000BD002807DA66
:102390004042043F3E600600FFF7B2FF764200BDB8
:1023A000043F3E600600FFF7ABFF00BDC023000006
:1023B0004200036D6F6400B5FFF7C6FF40CF00BD5C
:1023C000D42300004200012F00B5FFF7BDFF043702
:1023D00000BDC046E82300006100046576656E001C
:1023E000012030403618704700240000810004624C
:1023F00061736500043F3E60214E70470A00000093
:102400001824000000000662696E617279001C48A1
:10241000022101607047C0463024000000000764BC
:102420006563696D616C16480A2101607047C0469A
:10243000D024000000000368657811481021016075
:102440007047000000300000001800000038000055
:10245000001A0000401E0000401C0000801E00000A
:10246000801C0000001D000040420000C04300002E
:102470004008000040100000C0170000404000006D
:10248000D80F00107E487F4A0168114301607E48E2
:10249000C12101607D48016079487D4A016811438E
:1024A00001607C48012101607B48802101607B48FC
:1024B000852101607A48042101607A480021016089
:1024C0007548032101607848072101607047C046C4
:1024D000EC240000810009686F6F6B2D656D6974D5
:1024E000043F3E60714E7047E22500000825000061
:1024F000810008686F6F6B2D6B657900043F3E604B
:102500006B4E70470A2600002825000081000A68EB
:102510006F6F6B2D656D69743F00043F3E60654EC3
:10252000704738260000C046442500008100096835
:102530006F6F6B2D6B65793F043F3E605E4E704759
:10254000662600006425000081000A686F6F6B2D0D
:10255000706175736500043F3E60584E70476A486D
:102560000000C0467C250000000004656D69740011
:102570000FB54E4800F029F80FBDC0469025000069
:102580000000036B65790FB5494800F01EF80FBDD8
:10259000A4250000000005656D69743F454800688A
:1025A0008746C046B82500000000046B65793F00EF
:1025B000414800688746C046D025000000000570ED
:1025C000617573653D480068874600688746C04668
:1025D000F825000000000B73657269616C2D656D54
:1025E000697400B500F028F8002E40CFFAD0F6B29A
:1025F0002B48066040CF00BD2426000000000A736F
:10260000657269616C2D6B65790000B500F02BF87F
:10261000002E40CFFAD0043F3E60214E3668F6B21D
:1026200000BDC0465426000000000C73657269614D
:102630006C2D656D69743F0000B5FFF7C3FF043F63
:102640003E6000261E4820220168114000D0F6435B
:1026500000BDC046C426000000000B7365726961AE
:102660006C2D6B65793F00B5FFF7ACFF043F3E6012
:102670000026134801220168114000D0F64300BD36
:102680008080044040000100A4400440A840044071
:1026900000100000988004400C800040288000401A
:1026A000008000400480004008800040D40F0010EB
:1026B000D00F0010CC0F0010C80F0010C40F001076
:1026C00014800040E826000000000763657870650C
:1026D000637400B5386801B40130386000F00BF85D
:1026E00001BC067040CF00BD6027000000000661FD
:1026F00063636570740000B502CF01390022FFF7F3
:1027000042FF300040CF7F2809D0202819D2092865
:1027100016D00A281FD00D281DD00828EFD1002A76
:10272000EDD000F015F903082008002AE7D0885CF6
:10273000013A80230340E2D040230340F5D0DEE796
:102740002020B242DBD2043F3E600600FFF710FFBC
:1027500001328854D3E7160000F0A8F800BDC04647
:1027600074270000400003746962043F3E602B4EF2
:102770007047C0468C2700008100033E696E043F0D
:102780003E60274E704700000000C046B42700009E
:1027900082000E63757272656E742D736F7572634D
:1027A0006500043F3E601F4E70470000000094002B
:1027B0000010C046D0270000000009736574736FD5
:1027C00075726365174802CF0660416040CF70475D
:1027D000F0270000000006736F7572636500043F08
:1027E0003E60104E043F7068386036687047C046DF
:1027F0002828000000000571756572790FB508483A
:1028000000210160FFF7B1FF043F3E60043F3E60DE
:10281000C826FFF770FFFFF7D5FF0FBD940000102B
:10282000C00F0010B80F00107828000000000763E8
:102830006F6D706172650FB5310040CF01CF884276
:1028400002D040CF00260FBD02CF002810D00138A3
:102850000A5C335C412A02D35B2A00D22032412B2E
:1028600002D35B2B00D220339A42EED000260FBD5C
:102870000026F6430FBDC0468C280000000002630E
:10288000720000B500F064F8010A00BDA028000045
:10289000000002626C00043F3E6020267047C04684
:1028A000B42800000000057370616365043F3E605A
:1028B00020265DE6D4280000000006737061636581
:1028C000730000B5002E03DDFFF7F0FF013EFBD1E2
:1028D00040CF00BDE42800005000065B63686172D1
:1028E0005D0005E0FC2800000000046368617200E0
:1028F00000B501F057FC40CF367800BD0C29000030
:1029000050040128043F3E60292606E028290000E3
:102910005004015C043F3E60002600B501F04CFC11
:10292000043740CF00BDC046702900001000022EC1
:1029300022009F4800B5043F3E60060000F0DEF92B
:10294000043F3E60222601F037FC00F05EFD00BD32
:102950000AB4043F3E607646013E337801210133DC
:1029600019405B187146C9188E460ABC3CE0C04647
:10297000982900001000026322008E48DAE7043F25
:102980003E607646013E33780121013319405B18E1
:102990007146C9188E467047C429000010000273A2
:1029A00022008548C6E7043F3E607646043F3E600D
:1029B000013E36780121731C19405B187146C91815
:1029C0008E467047DC290000000005636F756E7449
:1029D0000136043F3E60013E36787047042A00000D
:1029E000000005637479706501B53078002807D060
:1029F0000136043F3E603678FFF7BAFD0138F7D163
:102A000040CF01BD342A00000000047479706500D5
:102A1000310040CF300040CF00B5002908D000225F
:102A2000043F3E60865CFFF7A3FD01329142F7D17F
:102A300000BDC046702A00000000046865782E00C2
:102A400007B5310040CF20200F220438043F3E60FC
:102A50000E00C6401640092E01D9373600E0303648
:102A6000FFF786FD0028F0D1FFF720FF07BDC04625
:102A7000802A0000000003682E731FB54F4C0EE043
:102A8000902A0000000003752E731FB54C4C06E021
:102A9000102B00000000022E73001FB5494C4A495C
:102AA000C91B8908494A106803B40A201060FFF75F
:102AB0004FFF08537461636B3A205B00043F3E6034
:102AC0000E0001F057FDFFF743FF025D200003BC3D
:102AD0003E4A106000290AD03D4A106806B4043FFF
:102AE0003E600600A04706BC043A0139F5D1FFF765
:102AF0002FFF0620544F533A2000043F3E6036001B
:102B0000A047FFF725FF04202A3E0A001FBDC0464C
:102B1000D42B0000000005776F72647300B5FFF7D7
:102B200017FF010A00F0B9FEFFF712FF09416464C4
:102B3000726573733A20043F3E60FFF781FFFFF731
:102B400007FF064C696E6B3A2000043F3E60366812
:102B5000FFF776FFFFF7FCFE07466C6167733A20CC
:102B6000043F3E60B688FFF76BFFFFF7F1FE0643B8
:102B70006F64653A2000B01D00F0CAFE043F3E605D
:102B80000600FFF75DFFFFF7E3FE064E616D653A55
:102B90002000043F3E600636FFF726FFFFF7D8FE11
:102BA000010A00F092FE300040CFBDD040CF00BD02
:102BB000502900007E290000A6290000412A0000BB
:102BC00063450000754500005C030010D80F00103D
:102BD00058030010F02C0000000010726567697344
:102BE0007465726C69746572616C2C003FB5350058
:102BF00040CF2900C90029432D02AC480543FF23DB
:102C000000223000D040984301D00132F9E7300073
:102C1000D04018402843043F3E60060000F0B5FB5A
:102C2000A348054318009040864310D0002430008C
:102C3000E040984301D00134F9E7101B043F3E60A7
:102C40000E008001064300F0A0FB2200DFE7002A0F
:102C500006D0043F3E600E009201164300F095FB43
:102C600040CF3FBD1FB5310040CF924C0C43C9004F
:102C70000C434901300040CF020EFF231A408B4B1A
:102C80000B431343043F3E601E0000F07EFB043FF5
:102C90003E60260000F079FB020CFF231A40864BB1
:102CA0000B431343043F3E601E0000F06EFB043FE5
:102CB0003E60260000F069FB020AFF231A407E4BAB
:102CC0000B431343043F3E601E0000F05EFB043FD5
:102CD0003E60260000F059FB0200FF231A40764BAD
:102CE0000B431343043F3E601E0000F04EFB1FBD2C
:102CF000602D000000000563616C6C2C0FB5330083
:102D000000F0AAFE300040CF1B1A043B6B4919406B
:102D100000290ED06A4A91420BD00136043F3E6032
:102D20000026FFF763FF043F3E60664E00F02DFB78
:102D30000FBD40CF5B086448644919400843DB0A73
:102D400063491940090408439B0A01211940890677
:102D50000843043F3E60060000F047FB0FBDC0463D
:102D6000B42D00000000086C69746572616C2C0061
:102D700008B5043F3E60574E00F007FB043F3E603D
:102D8000554E00F002FB554B3000184098420BD1D5
:102D9000F643043F3E600626FFF728FF043F3E60EF
:102DA0004F4E00F0F2FA08BD043F3E600626FFF7E2
:102DB0001DFF08BDDC2D0000000006637265617414
:102DC000650000B500F047F82D200002FB30804779
:102DD000043F3E607646013E00BDC046482E0000DE
:102DE000200005646F65733E2D200002FB30804794
:102DF000043F3E607646013E7047043F3E607646A3
:102E0000013E384A1368384909683648834205D27A
:102E10000F2008400E2805D00231F9E702200840B3
:102E200000D10231023111600136043F3E600026BC
:102E3000FFF718FF043F3E60224E00F0A6FA136031
:102E400000F0FFF900BDC046F02E00000000073C76
:102E50006275696C647300B500F0A4FB21480168D9
:102E6000204A91420CD200F0F7FD0F2006400E2EB2
:102E700040CF10D0043F3E60362600F086FAF2E7DD
:102E800000F0EAFD0220064040CF04D1043F3E603E
:102E9000362600F07AFA043F3E60144E00F075FAD0
:102EA000043F3E60102600F0E3FA00BD0020000061
:102EB0000010000000020000003000000100C0FF10
:102EC0000000C0FF8047000000F800F0FF0700008E
:102ED000FF030000043F00003E6000000000FFFF11
:102EE000F6430000000000101400001000B50000C0
:102EF000FC2E00005000035B275D03E0142F000050
:102F00000000012700B501F04DF900F040FD300050
:102F100040CF00BD542F0000100008706F73747014
:102F20006F6E650000B5FFF7EDFF102101400DD178
:102F30002021014005D0FFF71BFF043F3E60E74E14
:102F400004E0FFF715FF043F3E60E54EFFF7D6FEB5
:102F500000BDC046A02F0000000007696E6C696EBE
:102F6000652C00B5DF49E04AE04B3088884208D044
:102F7000904208D0984206D0043F3E60060000F020
:102F800004FA0236F1E740CF00BD0EB4D64AD74B63
:102F900001880230914201D09942F9D10EBC7047AC
:102FA000B42F00000000047265742C00043F3E60E2
:102FB000CD4EEAE1C42F000030000465786974004A
:102FC000F4E7C046DC2F00003000077265637572BD
:102FD0007365043F3E60C64E36688FE6F42F0000EE
:102FE0008100057374617465043F3E60C14E704793
:102FF00000000000083000000000015DBD48002115
:10300000C94301607047C046183000001000015BE2
:10301000B848002101607047403000000008013AC4
:1030200000B5B548076000F0BDFA043F3E60AD4E04
:1030300000F0ABF9AF480021C943016000BDC046B4
:10304000A03000003010013B00B5AB480168B94228
:103050000ED0FFF77DFC1520537461636B206E6FFB
:10306000742062616C616E6365642E0A01F08CFBF2
:10307000043F3E609C4E9F480068411C07D00628D4
:1030800004D8043F3E609D4E00F00EF9974E00F0CC
:103090007CF900F0D6F897480021016000BDC046D9
:1030A000B430000000000765786563757465300012
:1030B00040CF8746CC300000101009696D6D656403
:1030C00069617465043F3E601026EDE0E430000065
:1030D000101006696E6C696E6500043F3E60202624
:1030E000E2E0C0460031000010100B636F6D7069A4
:1030F0006C656F6E6C79043F3E603026D4E0C0464C
:103100001C31000010100A302D666F6C6461626C17
:103110006500043F3E604026C6E0C04638310000EE
:1031200010100A312D666F6C6461626C6500043F9B
:103130003E604126B8E0C0465431000010100A320B
:103140002D666F6C6461626C6500043F3E604226D0
:10315000AAE0C0467031000010100A332D666F6C73
:103160006461626C6500043F3E6043269CE0C0469B
:103170008C31000010100A342D666F6C6461626C33
:103180006500043F3E6044268EE0C046A831000042
:1031900010100A352D666F6C6461626C6500043F27
:1031A0003E60452680E0C046C431000010100A365B
:1031B0002D666F6C6461626C6500043F3E6046265C
:1031C00072E0C046E031000010100A372D666F6CC7
:1031D0006461626C6500043F3E60472664E0C0465F
:1031E00010320000000008636F6E7374616E74002B
:1031F00000B500F0D7F9FFF7BBFD043F3E603B4E42
:1032000000F0C3F8FFF785FF00F01BF800BDC046D3
:103210003432000000000932636F6E7374616E74A3
:1032200000B500F0BFF939683E600E46FFF7A0FD1B
:10323000E1E7C04698320000000006736D756467D0
:10324000650000B52E4801682D4A91421ED2023910
:103250000A882C4B9A4204D1043F3E602A4E00F06B
:1032600094F800F06BF800F07DF828480068043FFF
:103270003E600600264909680431214A136811603E
:1032800000F083F81360FEF7F6FE00BD00F056F87C
:10329000043F3E60002608E014330000000008737D
:1032A0006574666C6167730000B515480168144A5F
:1032B000914205D2154801683143016040CF00BDFD
:1032C000320040CF12480068043001880D4B99420B
:1032D00001D1110000E01143018000BD622F000008
:1032E000FC2C000000B5000000BD0000704700008D
:1032F00014000010B40F0010100000102010000087
:1033000000000010FFFF000000000000200000107F
:103310000400001030330000410007616C69676EE3
:10332000656401203040361802203040361870475E
:1033300054330000000005616C69676E00B58E486B
:1033400001680220014004D0043F3E60002600F0E6
:103350001CF800BD80330000000008616C69676ED6
:1033600031362C0000B5844801680F20014005D09B
:10337000043F3E60002600F008F8F4E700BDC046B8
:10338000C4330000000002682C000FB5B6B27B48C1
:103390000168002902D0013100D00160764801683F
:1033A000754A914205D2043F3E600E00FEF7EDFDE6
:1033B00002E0320040CF0A80043F3E60022600F067
:1033C00057F80FBDE03300000000012C00B5043FAA
:1033D0003E60FFF7DAFF360CFFF7D7FF00BDC046AF
:1033E000FC3300000000033E3C2C00B5043F3E606F
:1033F000360CFFF7CAFFFFF7C8FF00BD64340000BA
:10340000000007737472696E672C07B5FF213140A5
:1034100040CF300040CF002905D1043F3E60002658
:10342000FFF7B3FF07BD043F3E60067836020E4348
:10343000FFF7ABFF0130013902290AD3043F3E6098
:103440004678360202781643FFF79FFF02300239B2
:10345000F2E7002900D107BD043F3E600678FFF780
:1034600094FF07BDC0340000000005616C6C6F74F0
:1034700041480168404A91420FD2320040CF89183A
:103480003F4A914219D3FFF763FA0B466C617368A8
:103490002066756C6C0A01F077F9320040CF89180C
:1034A000384A1268914208D3FFF752FA0952616D07
:1034B0002066756C6C0A01F067F901607047C046C0
:1034C000E834000000000D636F6D70696C65746F07
:1034D00072616D3F043F3E60002627480068264920
:1034E000884248D3F64370470835000000000C635B
:1034F0006F6D70696C65746F72616D001E48006855
:103500001D49884211D370479435000000000E63B6
:103510006F6D70696C65746F666C617368001648D6
:1035200000681549884200D2704717481749026859
:103530000B680A6003601048154902680B680A604E
:10354000036010480068834215D300B5FFF700FA06
:1035500023205661726961626C657320636F6C6CC5
:1035600069646520776974682064696374696F6E43
:103570006172790A00BD704700000010B40F00109E
:103580000080000024000010040000101C00001047
:103590001800001090360000000008286372656172
:1035A0007465290000B500F0FDFD002E0ED1FFF777
:1035B000CFF91520437265617465206E656564738B
:1035C000206E616D6520210A01F0DEF83868043F45
:1035D0003E60043F386000F0ABF940CF002E40CF92
:1035E00011D03868043F3E60043F3860FFF7B0F9FF
:1035F000095265646566696E6520FFF709FAFFF791
:10360000A7F9022E0A00FFF799FE92480068914937
:10361000884225D2904800210160FFF7A3FE043FB5
:103620003E600C26FFF724FF00F016FA043F3E60D0
:103630000626FFF71DFFFDF703FDFFF7E6FE8748AF
:1036400001680A68864B9A4207D1824A1368116062
:10365000043F3E60FFF7BAFE1360066040CF12E001
:1036600000F0FAF97D48043F3E600668FFF7AEFEC1
:10367000043F3E607B4EFFF788FE7848310040CF24
:103680000160FFF7C2FE734801687748016000BD22
:10369000A83600000000087661726961626C6500FE
:1036A000043F3E60012613E0C036000000000932EE
:1036B0007661726961626C65043F3E60022607E0D4
:1036C000983700000000096E7661726961626C656E
:1036D00000B5FFF767FF5F4801685E4A914233D249
:1036E0000F200640B20061480168891A604A914281
:1036F0000BD2FFF72DF90F4E6F7420656E6F756753
:10370000682052414D0A01F03FF80160043F3E60DD
:103710000E00FFF72DFB043F3E60564EFFF735FECF
:10372000300040CF0200002805D00E600431FFF7C2
:103730004DFE0138F9D1043F3E6080261643FFF765
:10374000B3FDFFF77EFD00BD00F086F902200640C4
:1037500040CF04D1043F3E603626FFF716FE043FFB
:103760003E60454EFFF741FE043F3E60434EFFF78B
:103770003CFE043F3E603F4EFFF707FE300040CF67
:10378000002803D0FFF722FE0138FBD1FFF7C1FC70
:10379000FFF757FD00BDC0468438000000000762F7
:1037A00075666665723A00B5FFF7FCFE0120304091
:1037B000361802203040361826480168254A9142C2
:1037C00026D22A480168891B294A91420BD2FFF769
:1037D000BFF80F4E6F7420656E6F75676820524199
:1037E0004D0A00F0D1FF0160043F3E600E00FFF77C
:1037F000BFFA043F3E601F4EFFF7C7FDFFF7E6FD2F
:10380000043F3E601E4EFFF74FFDFFF71AFD00BD5F
:1038100000F022F90220064040CF04D1043F3E6070
:103820003626FFF7B2FD043F3E60134EFFF7DDFD85
:10383000043F3E60114EFFF7D8FD043F3E600D4E41
:10384000FFF7A3FDFFF714FEFFF763FCFFF7F9FC9A
:1038500000BD000000000010200000100400001057
:10386000FFFFFFFFFFFF0000140000102400001006
:1038700000070010704700003E60043F02367E469D
:1038800040010000B438000000000F6469637469EF
:103890006F6E617279737461727442480068414955
:1038A000043F3E60884201D23F4E70473F4E36682B
:1038B0007047C046F038000000000E646963746908
:1038C0006F6E6172796E6578740003B5316838483F
:1038D000814207D08879FF2804D00E00043F3E6063
:1038E000002603BD043F3E600026F64303BDC046EC
:1038F0002439000000000A736B6970737472696E7A
:1039000067003178013101220A4089187618704722
:1039100006B40178013101220A408918401806BC1A
:103920007047C046B839000000000466696E640044
:103930003FB500220023350040CF340040CFFFF7D1
:10394000ACFF1C48B188884217D0043F3E60063661
:10395000FFF73EF8043F3E602600043F3E602E0025
:10396000FEF769FF002E40CF07D0B01DFFF7D0FF54
:1039700002000B000B48824204D2FFF7A6FF300082
:1039800040CFDED01600043F3E601E003FBD00B5B4
:1039900031003868FFF7CCFF3A68002A01D100F007
:1039A0005FFE00BD000000100003000004000010D6
:1039B000FFFFFFFFFFFF0000143A00000000066356
:1039C0006A756D702C00320040CF310040CF8B1BE8
:1039D000043BEA49194000290DD0E94881420AD048
:1039E000FEF7B6FF0D4A756D7020746F6F2066612B
:1039F000720A00F0C9FE5B10FF210B401343300038
:103A00001E0000B5DF4A13681060FFF7BEFC1360AC
:103A100000BDC0464C3A00000000056A756D702C70
:103A2000310040CF300040CF0B1A043BD64919403B
:103A3000002902D0D54A9142D2D15B10D44A13401A
:103A4000D44A1343043F3E601E00DAE7643A0000A4
:103A50000000046865726500043F3E60C94E366828
:103A60007047C046A03B000000000D666C617368A3
:103A70007661722D68657265043F3E60C64E366899
:103A8000704700B5043F3E60C44EFFF77EFC043F24
:103A90003E60C34EFFF779FC00BDDDE700B500F0E6
:103AA00037F839683E600E46043F3E60BD4EFFF772
:103AB0008AFF00BD00B500F02BF839683E600E4665
:103AC000043F3E60B84EFFF77EFF00BD00B5FFF734
:103AD000D8FF00F01DF839683E600E46043F3E6096
:103AE000B24EFFF770FF00BD00B500F011F8396865
:103AF0003E600E46FFF794FF00BD00B5FFF7C1FF23
:103B0000FFF7AAFF043F3E600226FFF7B1FC00BDAD
:103B100000B5FFF7A1FF043F3E600226FFF7A8FCB7
:103B200000BD00B5FFF798FFFFF77AFF00BD00B5B5
:103B3000FFF792FF043F3E609C4EFFF744FF00BD3D
:103B400000B5FFF789FF043F3E60964EFFF73BFF4D
:103B500000BD00B5FCF758FD01694269FCF735FC72
:103B6000FCF76CFCFCF76FFC0369282B02D143695E
:103B7000FCF7B6FC282908D1043F3E608C4E002A91
:103B800000D00136FFF701FC06E0043F3E60894E9D
:103B900009020E43FFF7F9FBFCF75AFC00BDC046D3
:103BA000103C000030060269660000B5FFF7A5FF73
:103BB000043F3E607D4E043F3E60022600BD00B5DE
:103BC000FCF78BFDFDF7A1FD816A002910D002B43E
:103BD000FCF72CFCFFF740FF043F3E600226FFF796
:103BE00047FC043F3E6040BC043F3E60022600BDEF
:103BF000FFF7AFFFFFF730FF043F3E600226FFF7FD
:103C000037FC043F3E60694E043F3E60022600BD23
:103C1000443C0000300004656C73650000B5022E62
:103C200026D140CFFFF774FFFDF70AFAFFF714FF24
:103C300039683E600E46FFF7C6FE043F3E6005262B
:103C400000BDC046903C00003000047468656E0002
:103C5000052E01D140CF64E7022E09D140CF00B537
:103C6000FFF7FAFE39683E600E46FFF7ACFE00BD76
:103C7000FEF76EFE17537472756374757265732068
:103C8000646F6E2774206D617463680A00F07CFDB8
:103C9000C03C000030000672657065617400042E3F
:103CA000E6D140CF00B5FDF7AEF9FFF71DFFFFF7F6
:103CB000D3FE39683E600E46FFF785FE00BDC04664
:103CC000EC3C00003006057768696C65012ECFD1A9
:103CD00040CF00B5FFF769FF023600BD012EC7D106
:103CE00040CF00B5FFF76BFF023600BD4C3D000032
:103CF000300605756E74696C012EB9D140CFE5E6CA
:103D00007047012EB4D140CF00B5FDF7FEFC816AAB
:103D100000290DD002B4FCF789FBFFF7F9FE3968E2
:103D20003E600E46043F3E6040BCFFF74CFE00BDC7
:103D3000FFF70FFFFFF7ECFE39683E600E46043FC9
:103D40003E601A4EFFF73FFE00BDC046603D0000DA
:103D5000300005616761696E012E89D140CFC3E6ED
:103D6000B83D0000300005626567696E00B5FFF779
:103D700094FE043F3E60012600BD000001FFFFFFEE
:103D800000FFFFFF0000001001F8FFFF00F8FFFF39
:103D9000FF07000000E0000024000010002E0000DB
:103DA00040CF000000D1000000D7000000D000008C
:103DB0000022000000280000D03D00002002016B1E
:103DC000043F3E60029E7047043F3E608C4E0AE016
:103DD000FC3D00002002016A043F3E60009E7047E7
:103DE000043F3E60874E00B5FCF7E5FAFCF7E8FBC0
:103DF00003611B021E43FFF7C8FA00BD283E000006
:103E000020020169043F3E602600704700B5043F70
:103E10003E607D4EFCF7CFFAFCF7D2FB03611E43F8
:103E2000FFF7B3FA00BDC046683E00003000056CE5
:103E30006561766500B5754801683B00043F1A6806
:103E4000043B1A6008338B42F9D103B4FFF760FEDC
:103E500003BC330040CF04390B60016004390A68A9
:103E600001320A6000BDC0467C3E0000200006759D
:103E70006E6C6F6F700030BC7047C046B43E00007F
:103E80003000052B6C6F6F70032E00D0F0E640CF32
:103E900000B5043F3E605E4EFFF763F8FFF70AFE91
:103EA0001AE0802000060019A419401B801940CF99
:103EB0007047C046F83E00003000046C6F6F700021
:103EC000032E00D0D4E640CF00B5043F3E60514EF3
:103ED000FFF747F8FFF7E2FD00F04AF94B483100E1
:103EE00040CF0160043F3E604B4EFFF73AF800BD03
:103EF0000134AC427047C046403F000030020264CB
:103F00006F0000B5043F3E60444EFFF72AF83F487B
:103F10000168043F3E600E00043F3E6000260760DB
:103F2000FFF7BBFD043F3E60032600BD00B500F077
:103F30002EF8ECE730B4340040CF350040CF704766
:103F4000304000003002033F646F00B5043F3E6024
:103F5000324EFFF706F8043F3E60314EFFF715FA88
:103F60002A480168043F3E600E00FFF7D1FD01368C
:103F7000043F3E60012625480760FFF78EFD043FA1
:103F80003E60032600BD00B500F001F8E3E700B590
:103F9000FCF7A3FBFCF741FBFCF750FA043F3E6043
:103FA000204EFFF7F2F90169282907D0043F3E604F
:103FB0001D4EC9000E43FFF7E8F907E0043F3E60DD
:103FC0004669043F3E600426FEF710FE81692829F9
:103FD00007D0043F3E60154EC9000E43FFF7D5F9E8
:103FE00007E0043F3E60C669043F3E600526FEF7D9
:103FF000FDFDFCF7EAF9FCF7E8F9FCF729FA00BD4A
:104000000298000000980000200000000C00001042
:10401000A23E0000F03E0000763E0000343F00006B
:10402000AC42000030B400000400000005000000B5
:1040300050400000300004636173650000B5FCF778
:104040004CFB043F3E600026043F3E60082600BD56
:10405000684000003000033F6F666A480AE0013E96
:10406000B64140CF7047C046104100003002026F99
:1040700066006548082E00D0FAE540CF00B5043F41
:104080003E600600FEF76DFFFFF742FD39683E60B7
:104090000E460136043F3E600926043F3E605B4EFB
:1040A000FFF773F900BD082E00D0E1E540CF00B561
:1040B000FCF7B3FAFCF7C2F9043F3E60544EFCF73C
:1040C000D6FA0E430269282A15D14269FF2A07D879
:1040D00040CF043F3E604F4E164309020E430CE0B2
:1040E000043F3E601600FCF76BFA1A00043F3E6086
:1040F0001E00FEF77BFDD2001643FFF746F9FCF7E2
:1041000064F9FCF7A5F9BFE7300040CFB042704733
:1041100048410000300005656E646F66092E00D0CE
:10412000A6E540CF00B540B440CFFFF7F1FC3968B9
:104130003E600E46FFF704FD043F3E6040BC043F76
:104140003E60082600BDC04698410000300007656B
:104150006E6463617365082E00D089E540CF00B5B9
:10416000043F3E60294EFFF710F900F001F800BD52
:1041700000B5300040CF00280DD003B401213140FC
:10418000002903D0013EFFF7D2FC01E0FFF7C9FC94
:1041900003BC0138EFE700BDAC410000000005742E
:1041A0006F6B656E043F3E60202605E01C420000F8
:1041B000000005706172736510B5FEF710FB3100E9
:1041C00040CF300040CF144A12688418202E07D107
:1041D00091420FD0835CB34202D101328418F7E7D9
:1041E000914207D0835C0132B342F9D18618361B65
:1041F000013E01E08618361B043F3C600648026021
:1042000010BD00005E4000000841000040CF0000EB
:104210008042000000280000C00F00105C42000037
:104220000000056469676974D44B1B68303E0BD38A
:104230000A2E0BD3073E0A2E06D3242E06D3203E89
:104240000A2E01D3242E01D3002670479E42FBD2B2
:10425000043F3E600026F6437047C04668430000B6
:104260000000066E756D626572003FB5310040CF8B
:10427000701E0126012204B4C04B1B6800240025D7
:1042800000293CD00130013902782D2A04D101B037
:104290000022D24304B4F3E7232A01D10A23EFE733
:1042A000242A01D11023EBE7252A01D10223E7E7D5
:1042B0002E2A01D10226E3E72C2A36D0043F3E60A5
:1042C0001600FFF7B3FF002E40CF2BD0043F3E6017
:1042D0002600043F3E602E00043F3E601E00043F67
:1042E0003E6000260FB4FCF788FB0FBC350040CFC2
:1042F000340040CF0022A419554140CFC0E704BC90
:10430000002A04D50022E443ED4301345541330033
:104310002600012B02D0043F3E602E00043F3E6089
:104320001E003FBD01B000263FBD2500002402262F
:104330000029E4D0425C01392E2AF9D0043F3E60C6
:104340001600FFF773FF002E40CFEBD0043F3C6018
:10435000043F3E601E000FB4FCF703FC0FBC3400AA
:1043600040CF40CFE4E7C0468C4300000000062E5B
:104370006469676974000A2E01D230367047242EB2
:1043800001D23736704723267047C046C443000029
:10439000000004686F6C6400330040CF78480178F7
:1043A0003F290DD2013101704018012907D0013891
:1043B000027801300270013801390129F7D1037008
:1043C0007047C046E4430000000005686F6C643C21
:1043D000330040CF6A4801783F2902D20131017091
:1043E00043547047FC4300000000047369676E008B
:1043F000002E01D440CF70472D26CDE71044000099
:10440000000002233E005E480678013038607047A5
:104410002844000000000366235310B5202400F058
:1044200008F8013CFBD110BD4C44000000000266BE
:10443000230000B5043F3E60504E3668FCF7AFFAEB
:10444000FFF799FFFFF7C4FF00BDC04668440000B6
:1044500000000223530000B500F00AF8002EFBD143
:1044600038680028F8D100BD944400000000012302
:1044700000B5043F3E60414E3668043F3E60002672
:10448000FCF78FFBFCF764F940CFFFF774FFFFF7F1
:1044900083FF00BDA84400000000023C2300384810
:1044A000002101707047C046BC4400000000026655
:1044B0002E00043F3E60202605E0C0460C4500006B
:1044C000000003662E6E00B510B4340040CFFCF738
:1044D00085FDFCF723FA043F3E600026FFF7DFFF6F
:1044E000FFF7B9FF40CF2C26FFF772FF002C03D057
:1044F000FFF79FFF013CFBD110BC40CFFFF778FFD7
:10450000043F3E60043F3E601EE0C046244500007C
:1045100000000375642E00B5FFF7C1FFFFF79BFF96
:1045200012E0C04658450000000002642E0000B5AD
:10453000FCF754FDFCF7F2F9FFF7B1FFFFF78BFF33
:10454000FCF761FDFFF754FFFFF75DFFFEF760FA30
:10455000FEF7ACF900BDC0466C45000000000275D6
:104560002E00043F3E600026D5E7C046844500008B
:104570000000012E043F3E60F617D8E7D80F001068
:1045800054000010CC4500000000086576616C7591
:104590006174650000B5FEF722F901CF01B440B4A3
:1045A00040CF8A48016802B400210160FEF70AF991
:1045B00000F014F8854802BC0160043F3E6040BC36
:1045C00001BC043F3860FEF7FDF800BD6047000005
:1045D000000009696E7465727072657430B57C484C
:1045E00087420BD9FEF7B4F910537461636B2075E1
:1045F0006E646572666C6F770A00C5E07548874225
:104600000AD2FEF7A5F90F537461636B206F7665CC
:1046100072666C6F770AB7E06F4C2568002D01D188
:104620003D002560FFF7BEFD002E02D1043740CFCC
:1046300030BD3868043F3E60043F3860FFF778F9CA
:10464000310040CF320040CF002A15D13868310008
:10465000FDF719F8FFF709FE320040CF002ABED15E
:10466000FEF7DAF9FEF774F90C206E6F7420666FAE
:10467000756E642E0A0087E0584B1B68002B29D109
:1046800000252560564B0B4009D0043740CF5548D4
:104690000760FEF787FF5148012101609FE7302343
:1046A0000B40302B0ED1FEF7B3F9FEF751F9122073
:1046B000697320636F6D70696C652D6F6E6C792EF8
:1046C0000A0061E0043740CF043F3E601600FEF769
:1046D000EEFC84E7043740CF4348084001D1FCF7A3
:1046E000D2FF8020084008D1EB1B9B0840200840E7
:1046F00009D00F200840834205D3043F3E601600D6
:10470000FEF7D5FC6BE7394808400CD0FBF70BFEF1
:104710001000FEF73AFC421C3548904738002060F4
:10472000FBF710FE5BE7FBF7FEFDFBF77FFE0025C6
:1047300025603048084001D1FBF7CFFF043F3E60C1
:10474000160010220A4002D0FEF7B1FC47E72022F3
:104750000A4002D0FEF705FC41E7FEF7CFFA3EE73C
:104760007C470000810009686F6F6B2D717569745B
:10477000043F3E60204E7047B84700000C480000E0
:1047800000000471756974001C488546104FFDF7E0
:10479000EDFB1B480A2101601048002101600E4812
:1047A0000160FBF792FE0948016016480160164956
:1047B0004160114800688746FEF720F8FFF70EFFBA
:1047C000FEF7C6F805206F6B2E0AF5E7C00F001044
:1047D0005C0300105C01001008000010B40F001012
:1047E000000800001000001000040000000200009B
:1047F0002800001000100000B00F00105C04001032
:10480000D80F0010B80F00109400001028480000C6
:1048100000000565696E743F043F3E60EFF310864B
:10482000013EB6417047C04638480000200004658C
:10483000696E740062B67047484800002000046446
:10484000696E740072B67047604800002000046909
:1048500070737200043F3E60EFF305867047C046F8
:104860006C4800000000036E6F707047B048000095
:10487000000009756E68616E646C656400B5FEF7D2
:1048800067F814556E68616E646C656420496E74D7
:104890006572727570742000043F3E60EFF3058608
:1048A000FEF7CEF8FEF754F802210A0000BDC0461C
:1048B000C448000000000572657365748848894922
:1048C0000160C046E848000081000B6972712D73D9
:1048D00079737469636B043F3E60834E70477C4814
:1048E00000008148006887460C4900008100096982
:1048F00072712D6661756C74043F3E607B4E70472B
:104900007C480000794800688746C046344900006A
:1049100081000E6972712D636F6C6C656374696FD1
:104920006E00043F3E60724E70477C480000704845
:1049300000688746544900008100076972712D6143
:104940006463043F3E606B4E70477C4800006948DA
:1049500000688746744900008100076972712D69FB
:104960003263043F3E60644E70477C4800006248FA
:1049700000688746984900008100086972712D75AA
:1049800061727400043F3E605C4E70477C480000DA
:104990005A4800688746C0460C500000FFFF182D9B
:1049A0002D2D20466C6173682044696374696F6EB5
:1049B000617279202D2D2D00FDF764FD504885464C
:1049C000504F2A26504851490160514851490160D1
:1049D000043F3E604F4E504DB188504B994224D019
:1049E0004F4B0B400AD0B01DFEF792FFFEF7CDFAF9
:1049F0000388408800040343ED1A16E080230B402F
:104A000013D00F23194089006D1AB01DFEF780FFE7
:104A1000FEF7BBFA043F3E600600043F3E602E00F6
:104A2000043F3E600E00FCF7FDFEFEF74EFF300037
:104A300040CFD1D03B48066040CF3B4805603B4863
:104A40003B49364A884204D0023803889342F9D061
:104A5000023038490860FDF789FAFDF779FF544DB7
:104A60006563726973702D5374656C6C61726973E0
:104A700020524120302E38206578706572696D654E
:104A80006E74616C2077697468204D3020636F729A
:104A90006520666F72204C504331313134464E32BE
:104AA00038206279204D61747468696173204B6F9E
:104AB00063680A00204800210160043F3E601F4EE9
:104AC000043F3E600426FEF733FF40CF002E02D0A5
:104AD000FEF7EDFA6DE640CF56E6696E69740000A8
:104AE0000CED00E00400FA05AC0F0010A80F001058
:104AF000A40F0010A00F00109C0F0010980F0010C2
:104B00005C0400105C03001000000010000700109F
:104B10000400001000030000E00F0010FFFF000081
:104B2000000100001C0000102400001000800000A4
:104B3000005000001800001008000010DA4A0000C1
:00000001FF
