:1000000064040010B14A0000FD490000FD490000F1
:1000100000000000000000000000000000000000E0
:10002000000000000000000000000000274A00005F
:100030000000000000000000274A0000DB4900002B
:10004000274A0000274A0000274A0000274A0000EC
:10005000274A0000274A0000274A0000274A0000DC
:10006000274A0000274A0000274A0000274A0000CC
:10007000274A0000274A0000274A0000674A00007C
:10008000274A0000274A0000274A0000274A0000AC
:10009000274A0000894A0000274A0000274A00003A
:1000A000474A0000274A0000274A0000274A00006C
:1000B000274A0000274A0000274A0000274A00007C
:1000C000FFFFFFFFFFFFFFFFFFFFFFFFFFFFFFFF40
:1000D000FFFFFFFFFFFFFFFFFFFFFFFFFFFFFFFF30
:1000E000FFFFFFFFFFFFFFFFFFFFFFFFFFFFFFFF20
:100300002C070000FFFF1E2D2D2D204D6563726907
:1003100073702D5374656C6C6172697320436F72D6
:1003200065202D2D2D0007B58A48002B09D000F03F
:100330002FF800F035F800F01FF842602821016026
:10034000F3E707BD00B5834800230168282905D1DC
:10035000426800F004F800F040F8F6E700BD03B58D
:10036000043F3E601600043F3E601E0008B400F0EB
:10037000BBFF08BC013303BD03B5013B043F3E6036
:100380001E0008B400F09AFF08BC320040CF03BD45
:1003900003B5714801681E2901D000F034F803BD8F
:1003A000816901620169816181680161016881601F
:1003B000C16941624169C161C16841614168C1600F
:1003C0001E21016070470FB5624801681E2903D0E5
:1003D000FFF7DEFFFFF7E4FF0FBD02B581680160A4
:1003E000C168416000E002B5016981604169C16096
:1003F00081690161C1694161016A8161416AC161CB
:100400001E21016202BD08B501681E220260082992
:1004100001D20B0004E028290DD1436800F05DF8FB
:10042000043F3E604D4E03F038F8043F3E604C4EB2
:100430001E4303F032F808BD00B500F009F800F0E3
:100440000CF800F00FF800F012F800F015F800BDFD
:100450000FB54148FFF7D7FF0FBD0FB54148FFF774
:10046000D2FF0FBD0FB54048FFF7CDFF0FBD0FB551
:100470003E48FFF7C8FF0FBD0FB53648016806229A
:1004800002601E2905D1043F3E60394E03F005F895
:1004900014E0282909D14368043F3E601E00043F50
:1004A0003E60062602F02AFC08E0062906D0043F3A
:1004B0003E60304EC9000E4302F0EFFF00F001F83D
:1004C0000FBD24481E210162816101618160C1620A
:1004D0000621016000218162704707B5043F3E603C
:1004E0001E0000F049F8043F3E601E0002F006FCCA
:1004F00007BD07B5C16A282904D1016B994201D112
:10050000002307BD0168002918D08168002915D093
:100510000169002912D0816900290FD0016A0029E0
:100520000CD00363043F3E601E00043F3E60002683
:1005300002F0E4FB2821C162002307BD043F3E60B6
:100540001E0000F019F8043F3E601E0002F0D6FBCA
:1005500007BD00002800001048000010043F000004
:10056000386000004000001038000010300000101B
:1005700040CF00000646000037B535480168826864
:1005800003698469056A062000F00DF8032000F075
:100590000AF8022000F007F8012000F004F8002318
:1005A0001E21C16237BD814209D0824207D08342F9
:1005B00005D0844203D0854201D0030037BD704787
:1005C000043F3E60234E00B581581E2905D1FFF738
:1005D000D3FF8350012199400E4300BD00B501684F
:1005E0001E2904D10022FFF7EBFF02F056FF00BDE9
:1005F00000B581681E2907D10822FFF7E1FF00221C
:10060000FFF7E1FF02F049FF00BD00B501691E29B7
:100610000AD11022FFF7D4FF0822FFF7D4FF0022EF
:10062000FFF7D1FF02F039FF00BD00B581691E2937
:100630000DD11822FFF7C4FF1022FFF7C4FF0822D4
:10064000FFF7C1FF0022FFF7BEFF02F026FF00BD4B
:100650002800001000CF000000B50168282904D14F
:100660004368FFF73AFF0360190000BD00B58168D9
:10067000282904D1C368FFF730FF8360190000BD4B
:1006800000B50169282904D14369FFF726FF0361FA
:10069000190000BD3EB5826803698469056A9A4203
:1006A00003D0A24201D0AA420AD1072A08D8043FA7
:1006B0003E60D600FFF760FF1E43836002F0EDFE50
:1006C0003EBD3EB50168826803698469056A91424E
:1006D00006D0994204D0A14202D0A94200D03EBD2A
:1006E000043F3E60CE00FFF747FF1E43036002F069
:1006F000D4FE3EBD00B5FFF770FEFFF764FEFFF7C6
:100700003BFF036000BD01B506480368013307D015
:100710000023DB430360043F3E60034E02F0BDFE56
:1007200001BD0000B40F001000B50000500700002C
:1007300042020432647570003868043F3E60043F32
:100740003860704700B500F0E3FC00F0E1FC00BD4C
:10075000700700006202053264726F70043740CF88
:10076000704700B500F084FC00F082FC00BDC0467C
:10077000B8070000440205327377617007CF043F69
:100780003860043F3E60043F3A600E00704700B599
:10079000FFF74BFF02680369036002614268436927
:1007A000436042618268836983608261C268C36911
:1007B000C360C26100BDC046E007000062020432AF
:1007C0006E69700007CF043F3860704700B5FFF7CF
:1007D0002CFFFFF7DCFFFFF700FEFFF7FEFD00BD7B
:1007E000FC070000440005326F766572B868043F6C
:1007F0003E60043F3860FE687047C0462008000035
:10080000440005327475636B07CF043F3860043FC2
:100810003E60043F3A60043F3960043F38607047EF
:100820004408000046000432726F74003868B968EA
:100830003A69B86039613A6079687E60FE68F9604B
:100840007047C04668080000460005322D726F747C
:100850003868B9683A6938613960BA60F968FE6029
:100860007E6879607047C04690080000200203321D
:100870003E7201CF01B440B440CF704700B5FFF7DE
:1008800042FF00F019FC00F0BBFC00F0B9FC00BD19
:10089000BC08000020020332723E043F3E6040BCB0
:1008A00001BC043F3860704700B5FFF72CFF00F033
:1008B000C2FC00F0C0FC00F0FFFB00BDEC08000033
:1008C000200203327240043F3E60019E043F3E60BE
:1008D000009E704700B5FFF716FF043F3E600C4EC8
:1008E00003F0FDFA03F0F8FA00BDC0461809000055
:1008F000200206327264726F700002B0704700B559
:10090000FFF701FF043F3E60024E02F0C6FD00BD4E
:100910000198000002B000003009000042000364AA
:10092000322F3868F1077610400808433860704766
:100930004809000062020364322A386800187641D0
:100940003860704719E0C046640900004200046442
:10095000736872003868F107760840080843386009
:100960007047C046B00900006202046473686C00FE
:100970003868001876413860704700B5FFF738FED8
:10098000FFF76AFEFFF79DFE00F096FBFFF764FE9F
:10099000FFF797FE043F3E60402601F0C7FC00F0E1
:1009A0008BFB043F3E60404E01F0C0FC00BDC046E2
:1009B000C40900004200046461627300002E08D480
:1009C0007047C046E4090000420007646E65676135
:1009D000746538680021C043F64301304E413860E9
:1009E0007047C046340A0000640202642D0007CF3D
:1009F000121AB1410E00043F3A60704700B5FFF78C
:100A000014FE00F0AEFBFFF727FEFFF75AFE00F0E2
:100A100053FBFFF721FEFFF754FEFFF7B8FE01F08E
:100A200006FC00F0BBFB043F3E60204E00F03FFDA3
:100A300000BDC046800A0000640202642B0007CF9C
:100A400012184E41043F3A60704700B5FFF7EDFDC4
:100A500000F087FBFFF700FEFFF733FE00F02CFBF2
:100A6000FFF7FAFDFFF72DFEFFF791FE01F0C9FB3E
:100A700000F094FB043F3E600B4E00F01CFD00BDF7
:100A8000B40A0000610203733E64043F3E60F6173F
:100A9000704700B500F0DAFAFFF713FE043F3E603E
:100AA000034E01F0FBFB00BD40410000804100000F
:100AB000C0170000E00A0000420003756D2A386884
:100AC000030073433B60010C320C0B005343B6B27E
:100AD00080B24E4350433618360CF6187047C04665
:100AE000100B00004200026D2A003868C11705D0C3
:100AF00040423860F01704D07642E0E7F017DED0CD
:100B0000764200B5FFF7DBFFFFF763FF00BDC0468D
:100B1000500B000044000375642A07CF564341433D
:100B20007618010C130C59437618010C80B292B25E
:100B30005143434350430022C91852411204B6188E
:100B40000A04090C80184E41043F38607047C046C3
:100B5000E40B000044000475646D2A0010B5002405
:100B6000043F3E607E68043F3E603E69FFF7A7FF9A
:100B7000310040CF300040CF043F3E603E68043F2C
:100B80003E60FE6803B4FFF79AFF03BC330040CF1A
:100B9000320040CF043F3E603E68043F3E603E6905
:100BA0000FB4FFF78CFF0FBC9219634140CF891936
:100BB0006241634140CF043F3E607E68043F3E6037
:100BC000FE680FB4FFF77BFF0FBC9219634140CF63
:100BD00089196241634140CF1E003A607960B86074
:100BE00010BDC046080C00004300022A2F0000B5CB
:100BF00040B440CFFFF779FF043F3E6040BC00F0B7
:100C00004FF8043700BDC0462C0C00004300052AF5
:100C10002F6D6F6400B540B440CFFFF766FF043F0F
:100C20003E6040BC00F03CF800BDC046500C0000E7
:100C3000430003752A2F00B540B440CFFFF73FFFB4
:100C4000043F3E6040BC00F01CF8043700BDC046C5
:100C5000740C0000430006752A2F6D6F640000B508
:100C600040B440CFFFF72BFF043F3E6040BC00F094
:100C700008F800BD940C0000430006756D2F6D6FE1
:100C8000640000B5043F3E60002600F01AF840CF33
:100C9000043700BDB40C00004300056D2F6D6F6478
:100CA00000B5043F3E60F61700F034F840CF04373B
:100CB00000BDC046080D000044000675642F6D6F2E
:100CC000640030B4002300227968B86835003C68BD
:100CD00040264000494152415B41AB4202D804D317
:100CE000A24202D3121BAB410130013EF1D10E00F2
:100CF00038607B60BA6030BC704730B400237A68DB
:100D0000B9680020E2E7C046800D00004400056499
:100D10002F6D6F6400B5F01719D0FFF75AFEFFF77B
:100D20002DFDF0170CD0FFF754FEFFF727FDFFF75E
:100D3000C8FFFFF723FDFFF74CFEFFF71FFD00BDC7
:100D4000FFF71CFDFFF7BDFFFFF743FE00BDFFF7F8
:100D500015FDF0170ED0FFF73CFEFFF70FFDFFF774
:100D6000B0FFFFF736FEFFF709FDFFF732FEFFF792
:100D700005FD00BDFFF702FDFFF7A3FF00BDC04664
:100D8000980D0000440002642F0000B5FFF7C2FF79
:100D9000FFF718FD00BDC046E00D000044000266EC
:100DA0002A0000B5F0170DD0FFF713FEFFF7E6FCA1
:100DB000F0170DD0FFF70DFEFFF7D0FE40CF01CFAB
:100DC000386000BDFFF7DAFCF017F5D0FFF701FE41
:100DD000FFF7C4FE40CF01CF3860FFF7FAFD00BD3A
:100DE0002C0E0000440002662F0000B5F0170ED054
:100DF000FFF7EFFDFFF7C2FCF0170ED0FFF7E9FD9C
:100E0000FFF7BCFCFFF779FFFFF7DCFC00BDFFF745
:100E1000B5FCF017F4D0FFF7DCFDFFF7AFFCFFF7F0
:100E20006CFFFFF7D6FDFFF7CDFC00BD740E000090
:100E300020020232210006CF3160726040CF70473D
:100E400000B5FFF7E2FB0168426806B400F0D2FD8E
:100E5000FFF7B9FA06BC0160282905D0043F3E60BF
:100E6000614E00F0CAFD00BD0432426000F0C2FDD8
:100E700000BDC046BC0E0000200202324000043F0C
:100E8000706838603668704700B500F0DFF80168B8
:100E9000282909D0043F3E60544E00F08CFD00F03C
:100EA0000BF900F085FD00BD41680431416000F0A0
:100EB0007FFD00F001F900F07BFD00BDDC0E0000BD
:100EC00044000364753C07CF8E4204D801D19042A0
:100ED00001D8002670470026F6437047FC0E00003C
:100EE00044000364753E07CFB14204D801D1824269
:100EF00001D8002670470026F64370471C0F0000FB
:100F0000440002643C0007CF8E4204DC01D19042D1
:100F100001DC002670470026F64370473C0F0000B6
:100F2000440002643E0007CFB14204DC01D182429A
:100F300001DC002670470026F6437047580F00007A
:100F400062020364303C0437F617704700B500F0C6
:100F5000C6F800F010FB00BD800F000062020364C1
:100F6000303D01CF0643013EB641704700B5043F16
:100F70003E601F4E00F09FFA00F0D8FA00BDC04658
:100F8000A80F0000440203643C3E07CF50404E408F
:100F90000643013EB641F643704700B500F016F82F
:100FA00000F0D7FA00BDC046F40F0000440202640E
:100FB0003D0007CF50404E400643013EB6417047CA
:100FC00000B500F003F800F0B1FA00BD00B5FFF77E
:100FD0002CFB00F0C6F800F0CFF900F0DFF800F0CD
:100FE000CBF900F0BDF900BD406000004068000092
:100FF0000043000008100000200003737040043F0D
:101000003E603E007047C046181000002000037389
:101010007021370040CF70472C1000002000037271
:101020007040043F3E606E467047C0463C10000072
:10103000200003727021B54640CF70476010000059
:10104000610203647570043F3E60704706B5FFF7A8
:10105000C5FA01684268FFF7B6F90160426006BD53
:101060008C10000061020464726F700040CF704702
:1010700000B501681E2905D1043F3E60A14E02F073
:101080000CFA00BDFFF7A9F900BDC046A41000008E
:101090006100043F64757000002E01D0043F3E6083
:1010A0007047C046D0100000620204737761700080
:1010B00039683E600E0070470CB5FFF799FA026878
:1010C0008368036082604268C3684360C2600CBD8D
:1010D000FC1000006202036E69700437704700B5AF
:1010E000FFF77CFA81681E2902D0FFF77CF900BD6A
:1010F000043F3E60834E02F0D0F900BD2411000091
:101100006202046F76657200043F3E607E6870473D
:1011100000B5FFF76DFA8168C268FFF754F9016006
:10112000426000BD4C1100006202047475636B00E4
:1011300001CF083F7E603860704700B5FFF758FA6E
:10114000FFF784FF00F02AF800BDC04684110000BC
:10115000630203726F7403CF083F78603E600E0035
:1011600070470EB5FFF751FA016882680369816024
:10117000026103604168C2684369C16042614360C3
:101180000EBDC046A81100006302042D726F7400EA
:1011900003CF083F7E6039600600704700B5FFF757
:1011A000E0FFFFF7DEFF00BDBC110000200004706F
:1011B00069636B00B0003E587047C046D411000010
:1011C00000000564657074684F49C91B043F3E60A8
:1011D0008E087047F011000000000672646570749C
:1011E0006800043F3E606E464849891B8E08704780
:1011F000241200002002023E720040B440CF70472B
:1012000000B5FFF780FAFFF7E9F9FFF725FA043F89
:101210003E603F4E01228A40164302F03EF9FFF73E
:10122000DCF800BD58120000200202723E00043FAC
:101230003E6040BC704700B5FFF765FAFFF7C3F8A2
:10124000FFF79AF90360043F3E60324E01229A4054
:10125000164302F022F900BD78120000200202724B
:101260004000043F3E60009E704700B5FFF74BFA18
:1012700002F032FE00BDC0469C1200002002057242
:1012800064726F7001B0704700B5FFF73CFA043F1D
:101290003E60214E02F001F900BDC046B0120000D0
:1012A000200005727069636BB6006E443668704743
:1012B000DC120000000004726F6C6C00002E01D183
:1012C00040CF7047B0003958C019031F1A68026038
:1012D0000438013EF9D104370E0070471C1300009A
:1012E0000000052D726F6C6C002E01D140CF70474D
:1012F000386839464A680A600431013EFAD108600C
:1013000040CF7047043700006403001064040010ED
:1013100000B4000000BC000001B000003413000065
:10132000620203616E6401CF06407047043F3E6075
:101330006F4EC0E05013000062020362696301CF88
:10134000B04306007047043F3E606A4EAFE0C046BF
:10135000681300006202026F720001CF06437047FB
:10136000043F3E60644EA6E08013000062020378F2
:101370006F7201CF46407047043F3E605F4E9AE077
:10138000981300006202012A01CF46437047043FD0
:101390003E605B4E8FE0C046B8130000410003631F
:1013A0006C7A300006D00026400002D001D201360F
:1013B000FAE7704720267047C813000061000372E7
:1013C0006F720120C6417047DC1300006100037298
:1013D0006F6C0020B61946417047C04610140000DB
:1013E0006202076172736869667401CF304106005A
:1013F000704700B5043F3E60424E043F3E60424E9F
:10140000FFF7F6F841681F2928D91F21416025E020
:10141000381400006202067273686966740001CFB6
:10142000F0400600704700B5043F3E60374E043F71
:101430003E60374E12E0C0461C1500006202066C8A
:1014400073686966740001CFB0400600704700B54C
:10145000043F3E602F4E043F3E600026FFF7C8F871
:101460000168282903D040CF00F021F800BD0437DF
:101470004168FEF7B2FF002901D140CF00BD1F290E
:101480000AD889010E430268D2001643FFF732F9E9
:101490001E4302F002F800BD40CFFFF72BF9043FD6
:1014A0003E601D4E1B021E4301F0F7FF00BD0FB54D
:1014B000FFF79EF80CE00FB5FFF79AF801680629D0
:1014C00001D1FFF7F9FD8268282A01D1FFF7F4FD69
:1014D000FFF7CCF8FFF7DEF8FFF7BEF8C900826827
:1014E0000E43164301F0D9FFFEF777FF0FBD000052
:1014F0000040000080430000004300004040000026
:10150000404300000041000000100000C040000007
:10151000000800008040000000200000401500008E
:10152000610202303D00013EB641704700B500F057
:1015300003F900F0B0FEFEF750FF7349816200BD71
:1015400068150000610203303C3E013EB641F6439F
:10155000704700B500F0F0F800F09DFEFEF73DFF8B
:101560006A49816200BDC0468C15000061020230EC
:101570003C00F617704700B500F0DEF8043F3E600F
:10158000634E00F08BFE6349816200BDA41500002C
:101590006000047472756500043F3E600026F643E7
:1015A0007047C046B815000060000566616C736541
:1015B000043F3E6000267047DC1500004202023EF8
:1015C0003D0001CFB042E9DA00267047043F3E609B
:1015D000514E043F3E60514EBAE0C0460016000036
:1015E0004202023C3D0001CFB042D7DD00267047E9
:1015F000043F3E604A4E043F3E604A4EA8E0C0466B
:10160000201600004202013C01CFB042C6DB00269A
:101610007047043F3E60414E043F3E603E4E97E0BF
:10162000401600004202013E01CFB042B6DC002667
:101630007047043F3E603B4E043F3E60384E87E0BB
:1016400064160000620203753E3D01CF861BB64161
:10165000F6437047043F3E602C4E043F3E602A4EE6
:1016600076E0C04688160000620203753C3D01CF5B
:10167000361AB641F6437047043F3E602A4E043F97
:101680003E602A4E64E0C046A81600006202027561
:101690003C0001CF861BB6417047043F3E601A4EA6
:1016A000043F3E60194E53E0C81600006202027506
:1016B0003E0001CF361AB6417047043F3E601B4ED4
:1016C000043F3E60184E43E0E81600006202023C10
:1016D0003E0001CF811B361A0E437047043F3E6027
:1016E000134E043F3E6033E0441800006202013DA7
:1016F00001CF361A013EB6417047043F3E600D4EA1
:10170000043F3E6024E0000000D2000000D300004F
:10171000C017000000D5000000DB000000DA000068
:1017200000DC000000DD000000D8000000D900004F
:1017300000D0000000D1000000B5FEF74FFFFEF71B
:1017400087FEFEF78AFEFEF78DFEFEF78FFF00BDD7
:1017500000B5FEF74DFFFEF77BFEFEF77EFEFEF7BF
:101760008FFF8268282A04D1FFF7A6FC39683E6003
:101770000E4640CF0168282909D14168FF2906D8C3
:10178000043F3E60634E0E438168090206E0FEF7A7
:1017900063FF043F3E60604EC90016430E4301F0F4
:1017A0007CFEFEF71AFEFEF718FE866240CF00BDF3
:1017B0000FB55A48816A002930D0043F3E60866ADE
:1017C00000218162310AD52901D140CF0FBDFEF73A
:1017D000FAFDFEF7D1FE0360D22903D1504E00F08E
:1017E000A5FD0FBDD32905D14D4E00F09FFD00F0A2
:1017F000B0FD0FBD023601F050FE043F3E60494E81
:1018000000F00DF800F0A5FD043F3E60464E01F0EB
:1018100044FE043F3E60434E00F001F80FBD00B5AA
:10182000FEF7DCFEFEF74DFF016809020E4301F0F2
:1018300034FE00BD00B5816A090AD52901D1FEF741
:10184000CCFD00BD601800006202036D696E01CF1F
:10185000B04200DC06007047043F3E60334E2BE090
:101860007C1800006202036D617801CFB04200DB9A
:1018700006007047043F3E602D4E1DE09C1800009E
:10188000620204756D61780001CFB04200D306009A
:101890007047043F3E60274E0EE0C04640190000EE
:1018A000620204756D696E0001CFB04200D8060077
:1018B0007047043F3E60204E00B5FEF799FE016878
:1018C0008268914203D140CFFEF78DFD00BD062A0C
:1018D00001D1FFF7F1FB0168282901D1FFF7ECFBEB
:1018E000FEF7EFFEFEF7C2FEC9000268043F3E604D
:1018F000094E0E43164301F0D0FD01F0CEFD043F2A
:101900003E600E4E0E43164301F0C7FDFEF76BFD21
:1019100000BD0000002800008042000028000010E8
:10192000804100000020000000E0000000DB00001B
:1019300000DC000000D8000000D3000000460000DA
:10194000801900000000046D6F76650007B5310056
:1019500040CF320040CF00290FD0B2420DD006D385
:10196000013E013A705C50540139FBD105E03078FA
:101970001070013601320139F9D140CF07BDC046A0
:10198000A419000000000466696C6C00300040CFB0
:10199000310040CF002902D001397054FCD140CF32
:1019A0007047C046E41900002002014036687047C5
:1019B000043F3E60994E00B5FEF710FE0368282BE9
:1019C00008D143687C21194009010E437C218B43D7
:1019D000FEF78FFDDB001E43FEF78CFE1E4301F079
:1019E0005CFD00BD3C1A00002002012103CF3060E5
:1019F0000E007047043F3E60894E00B5FEF7F8FDCB
:101A00000368282B09D143687C21194009010E4342
:101A10007C218B43FEF76DFD0360DB001E43836872
:101A2000282B02D1C368FEF758FD1E4301F035FD97
:101A3000FEF7D3FCFEF7D1FC00BDC046741A0000CF
:101A40002002022B210003CF3268121832600E00F0
:101A5000704700B5FEF7CCFDFFF7F8FAFFF7A8FFD7
:101A6000FFF77FFB00F0CDFBFFF726FBFFF7C2FF80
:101A700000BDC046B81A0000200202684000368847
:101A8000704700B5FEF7AAFD043F3E60654E03684F
:101A9000282B08D143683E21194049010E433E21BD
:101AA0008B43FEF726FDDB001E43FEF723FE1E439D
:101AB00001F0F3FC00BDC046101B000020020268CC
:101AC000210003CF30800E00704700B5FEF790FD77
:101AD000043F3E60544E0368282B09D143683E21E1
:101AE000194049010E433E218B43FEF702FD03607E
:101AF000DB001E438368282B02D1C368FEF7EDFC90
:101B00001E4301F0CAFCFEF768FCFEF766FC00BD50
:101B1000481B0000200203682B2103CF32881218D3
:101B200032800E00704700B5FEF762FDFFF78EFAB7
:101B3000FFF7A7FFFFF715FB00F063FBFFF7BCFA09
:101B4000FFF7C3FF00BDC0468C1B000020020263EC
:101B500040003678704700B5FEF740FD043F3E6018
:101B6000324E0368282B08D143681F211940890190
:101B70000E431F218B43FEF7BCFCDB001E43FEF728
:101B8000B9FD1E4301F089FC00BDC046E41B000006
:101B900020020263210003CF30700E00704700B5B1
:101BA000FEF726FD043F3E60214E0368282B09D135
:101BB00043681F21194089010E431F218B43FEF703
:101BC00098FC0360DB001E438368282B02D1C368A6
:101BD000FEF783FC1E4301F060FCFEF7FEFBFEF700
:101BE000FCFB00BD341C0000200203632B2103CF4B
:101BF0003278121832700E00704700B5FEF7F8FC0C
:101C0000FFF724FAFFF7A7FFFFF7ABFA00F0F9FAA6
:101C1000FFF752FAFFF7C3FF00BD000000680000A5
:101C200000600000008800000080000000780000D4
:101C300000700000741C000020020462697321001F
:101C400003CF3268024332600E00704700B5FEF7E2
:101C5000CFFCFFF7FBF9FFF7ABFEFFF782FA043F7B
:101C60003E60AB4EFFF727FCFFF726FAFFF7C2FEF8
:101C700000BDC046B41C000020020462696321005C
:101C800003CF3268824332600E00704700B5FEF722
:101C9000AFFCFFF7DBF9FFF78BFEFFF762FA043FBB
:101CA0003E609C4EFFF703FCFFF706FAFFF7A2FE2B
:101CB00000BDC046F41C0000200204786F722100B1
:101CC00003CF3268424032600E00704700B5FEF725
:101CD0008FFCFFF7BBF9FFF76BFEFFF742FA043FFB
:101CE0003E608D4EFFF7E7FBFFF7E6F9FFF782FE58
:101CF00000BDC046281D0000200204626974400037
:101D000001CF36680640013EB641F643704700B544
:101D1000FEF76EFCFFF74CFE043F3E607F4EFFF780
:101D2000CAFBFFF716FC00BD681D00002002056815
:101D30006269732103CF3288024332800E007047FC
:101D400000B5FEF755FCFFF781F9FFF79AFEFFF7A4
:101D500008FA043F3E606E4EFFF7ADFBFFF7ACF9AB
:101D6000FFF7B3FE00BDC046A81D000020020568B5
:101D70006269632103CF3288824332800E0070474C
:101D800000B5FEF735FCFFF761F9FFF77AFEFFF7C4
:101D9000E8F9043F3E605F4EFFF789FBFFF78CF9DF
:101DA000FFF793FE00BDC046E81D00002002056855
:101DB000786F722103CF3288424032800E00704724
:101DC00000B5FEF715FCFFF741F9FFF75AFEFFF7E4
:101DD000C8F9043F3E60504EFFF76DFBFFF76CF90A
:101DE000FFF773FE00BDC0461C1E00002002056800
:101DF0006269744001CF36880640013EB641F64321
:101E0000704700B5FEF7F4FBFFF73BFE043F3E6072
:101E1000424EFFF750FBFFF79CFB00BD5C1E00002D
:101E2000200205636269732103CF32780243327066
:101E30000E00704700B5FEF7DBFBFFF707F9FFF771
:101E40008AFEFFF78EF9043F3E60314EFFF733FB09
:101E5000FFF732F9FFF7A3FE00BDC0469C1E00004D
:101E6000200205636269632103CF327882433270B6
:101E70000E00704700B5FEF7BBFBFFF7E7F8FFF772
:101E80006AFEFFF76EF9043F3E60224EFFF70FFB3C
:101E9000FFF712F9FFF783FE00BDC046DC1E00000D
:101EA00020020563786F722103CF3278424032708E
:101EB0000E00704700B5FEF79BFBFFF7C7F8FFF772
:101EC0004AFEFFF74EF9043F3E60134EFFF7F3FA68
:101ED000FFF7F2F8FFF763FE00BDC046201F0000C9
:101EE000200205636269744001CF36780640013EE6
:101EF000B641F643704700B5FEF77AFBFFF72BFEBD
:101F0000043F3E60054EFFF7D6FAFFF722FB00BD07
:101F100000430000804300004040000000400000FB
:101F2000641F0000810009666C6173682D6B687A1C
:101F3000043F3E604F4E7047E02E000000F090FDE1
:101F40001E466C6173682063616E6E6F74206265FB
:101F5000207772697474656E2074776963650A000E
:101F600002F08EFC102000000000083136666C6123
:101F7000736821003FB50F20304015D000F070FD90
:101F8000223136666C61736821206E65656473204A
:101F900031362D616C69676E6564206164647265B9
:101FA00073730A0002F06CFC30680130C6D17068AF
:101FB0000130C3D1B0680130C0D1F0680130BDD16B
:101FC00000F046F808CF04CF02CF01CF803F803F1A
:101FD00001B438004024284D20C0013CFCD101BC94
:101FE000FF243440E4190FC4FF25AE4323483321B6
:101FF00001604660876080218031C1601D490968A9
:1020000001611F491F4A90478037803740CF3FBD4D
:102010008820000000000A6572617365666C617358
:10202000680072B600F014F800F015F800F018FD22
:102030001A46696E69736865642065726173696EBA
:10204000672E20526573657420210A0002F0B2FCED
:1020500000B5322101E000B53421084801600521B6
:1020600041600721816003490968C1600449054A4C
:10207000904700BDDC0F0010FFFFFFFFE4060010DB
:10208000F8060010F11FFF1FA820000000000969DA
:102090006E6974666C61736853485449002202701B
:1020A00001300139FBD17047902100000000076822
:1020B000666C6173682130B5320040CF500813D38D
:1020C00000F0CEFC1E68666C61736821206E656549
:1020D0006473206576656E206164647265737365F0
:1020E000732E0A0002F0CCFB414B9A4210D200F052
:1020F000B7FC1943616E6E6F742077726974652046
:10210000696E746F20636F726520210A02F0B8FB5C
:10211000130935482021046824099C4226D0143034
:102120000139F8D1304820210468002C17D0143030
:102130000139F9D100F094FC21546F6F206D616E6C
:10214000792073636174746572656420466C617391
:1021500068207772697465732E0A02F091FB1B0187
:102160000360013941608160C16001610F2111404C
:102170000431465240CF0168013101600F22114005
:10218000082903D100F01BF8FFF7F4FE30BDC0466C
:10219000F421000000000A666C757368666C617358
:1021A000680000B5104820210268002A03D000F022
:1021B00006F8FFF7DFFE14300139F5D100BD043F0A
:1021C0003E604668043F3E608668043F3E60C668E5
:1021D000043F3E600669043F3E600F26F6430268F6
:1021E0001640002202607047640400108002000064
:1021F00000500000202200006202012B01CF36189F
:10220000704700B5FEF7F4F9043F3E60D14E043F3D
:102210003E60D14E8168282912D1FEF74DFF0FE0B4
:10222000882200006202012D01CF861B704700B595
:10223000FEF7DEF9043F3E60C84E043F3E60C84EE4
:10224000FEF714FA016828290ED14168FF290BD83E
:1022500040CFFEF71FFA0E43816809020E4301F0DA
:102260001CF9FEF7BAF800BD0437FEF7F5F989014D
:102270008268D2000E431643FEF7AFF8FEF73AFA33
:102280001E4301F00AF900BDB422000061020231D0
:102290002D00013E7047043F3E60B24E00B5FEF790
:1022A0009DF90168C9000E43FEF724FA1E4301F0B0
:1022B000F4F800BDCC220000610202312B0001368F
:1022C0007047043F3E60A84EE8E7C046E4220000A5
:1022D000610202322D00023E7047043F3E60A34E71
:1022E000DCE7C046FC220000610202322B0002360D
:1022F0007047043F3E609E4ED0E7C0461423000066
:1023000061020563656C6C2B04367047043F3E60C8
:10231000984EC3E7442300006102066E656761744E
:10232000650076427047043F3E60934E00B5FEF76D
:1023300055F9FEF7C6F901680E43C9000E4301F0D6
:10234000ACF800BD5C2300006102036E6F74F643BD
:102350007047043F3E60894EE8E7C04674230000A2
:1023600061020373687276087047043F3E60844ED2
:10237000DCE7C0468423000061020373686C7600CA
:10238000704706E09C230000610202322A007600BA
:102390007047043F3E604026C8E7C046B4230000B3
:1023A00061020563656C6C73B6007047043F3E6064
:1023B0008026BBE7CC230000610202322F0076109A
:1023C0007047043F3E606F4EB0E7C04604240000F3
:1023D000610203616273F01736184640704700B51A
:1023E000FEF7FCF8043F3E60674E016809020E43A9
:1023F00001F053F8043F3E60644E01F04EF8FFF7E1
:1024000092FF00BD4C240000420005752F6D6F64E3
:10241000310040CF002903D1043F3E6000267047C1
:10242000012200238E4206D9003104D45200490013
:1024300001D48E42FAD88E4201D3761A134349084A
:102440005208F8D1043F3E601E007047BC240000D3
:102450004200042F6D6F640000B5300040CF002EA5
:102460001CDA764200280CDA4042043F3E60060047
:10247000FFF7CEFF300040CF7642043F3E600600BB
:1024800000BD043F3E600600FFF7C2FF300040CFB2
:1024900040427642043F3E60060000BD002807DA55
:1024A0004042043F3E600600FFF7B2FF764200BDA7
:1024B000043F3E600600FFF7ABFF00BDD0240000E4
:1024C0004200036D6F6400B5FFF7C6FF40CF00BD4B
:1024D000E42400004200012F00B5FFF7BDFF0437E0
:1024E00000BDC046F82400006100046576656E00FA
:1024F000012030403618704710250000810004622A
:1025000061736500043F3E60214E70470A00000081
:102510002825000000000662696E617279001C487F
:10252000022101607047C04640250000000007649A
:102530006563696D616C16480A2101607047C04689
:10254000E025000000000368657811481021016053
:102550007047000000300000001800000038000044
:10256000001A0000401E0000401C0000801E0000F9
:10257000801C0000001D000040420000C04300001D
:1025800040080000401000000028000000D50000B6
:10259000D80F00107E487F4A0168114301607E48D1
:1025A000C12101607D48016079487D4A016811437D
:1025B00001607C48012101607B48802101607B48EB
:1025C000852101607A48042101607A480021016078
:1025D0007548032101607848072101607047C046B3
:1025E000FC250000810009686F6F6B2D656D6974B3
:1025F000043F3E60714E7047F2260000182600002E
:10260000810008686F6F6B2D6B657900043F3E6039
:102610006B4E70471A2700003826000081000A68B8
:102620006F6F6B2D656D69743F00043F3E60654EB2
:10263000704748270000C046542600008100096802
:102640006F6F6B2D6B65793F043F3E605E4E704748
:10265000762700007426000081000A686F6F6B2DDA
:10266000706175736500043F3E60584E7047624963
:102670000000C0468C260000000004656D697400EF
:102680000FB54E4800F029F80FBDC046A026000047
:102690000000036B65790FB5494800F01EF80FBDC7
:1026A000B4260000000005656D69743F4548006868
:1026B0008746C046C82600000000046B65793F00CD
:1026C000414800688746C046E026000000000570CB
:1026D000617573653D480068874600688746C04657
:1026E0000827000000000B73657269616C2D656D31
:1026F000697400B500F028F8002E40CFFAD0F6B289
:102700002B48066040CF00BD3427000000000A734C
:10271000657269616C2D6B65790000B500F02BF86E
:10272000002E40CFFAD0043F3E60214E3668F6B20C
:1027300000BDC0466427000000000C73657269612B
:102740006C2D656D69743F0000B5FFF7C3FF043F52
:102750003E6000261E4820220168114000D0F6434A
:1027600000BDC046D427000000000B73657269618C
:102770006C2D6B65793F00B5FFF7ACFF043F3E6001
:102780000026134801220168114000D0F64300BD25
:102790008080044040000100A4400440A840044060
:1027A00000100000988004400C8000402880004009
:1027B000008000400480004008800040D40F0010DA
:1027C000D00F0010CC0F0010C80F0010C40F001065
:1027D00014800040F82700000000076365787065EA
:1027E000637400B5386801B40130386000F00BF84C
:1027F00001BC067040CF00BD7028000000000661DB
:1028000063636570740000B502CF01390022FFF7E1
:1028100042FF300040CF7F2809D0202819D2092854
:1028200016D00A281FD00D281DD00828EFD1002A65
:10283000EDD000F015F903082008002AE7D0885CE5
:10284000013A80230340E2D040230340F5D0DEE785
:102850002020B242DBD2043F3E600600FFF710FFAB
:1028600001328854D3E7160000F0A8F800BDC04636
:1028700084280000400003746962043F3E602B4ED0
:102880007047C0469C2800008100033E696E043FEB
:102890003E60274E704700000000C046C42800007C
:1028A00082000E63757272656E742D736F7572633C
:1028B0006500043F3E601F4E7047000000009C0012
:1028C0000010C046E0280000000009736574736FB3
:1028D00075726365174802CF0660416040CF70474C
:1028E00000290000000006736F7572636500043FE5
:1028F0003E60104E043F7068386036687047C046CE
:102900003829000000000571756572790FB5084817
:1029100000210160FFF7B1FF043F3E60043F3E60CD
:10292000C826FFF770FFFFF7D5FF0FBD9C00001012
:10293000C00F0010B80F00108829000000000763C6
:102940006F6D706172650FB5310040CF01CF884265
:1029500002D040CF00260FBD02CF002810D0013892
:102960000A5C335C412A02D35B2A00D22032412B1D
:1029700002D35B2B00D220339A42EED000260FBD4B
:102980000026F6430FBDC0469C29000000000263EC
:10299000720000B500F064F8010A00BDB029000023
:1029A000000002626C00043F3E6020267047C04673
:1029B000C42900000000057370616365043F3E6038
:1029C00020265DE6E429000000000673706163655F
:1029D000730000B5002E03DDFFF7F0FF013EFBD1D1
:1029E00040CF00BDF42900005000065B63686172AF
:1029F0005D0005E00C2A00000000046368617200BD
:102A000000B501F04BFC40CF367800BD1C2A000019
:102A100050040128043F3E60292606E0382A0000C1
:102A20005004015C043F3E60002600B501F040FC0C
:102A3000043740CF00BDC046802A00001000022E9F
:102A400022009F4800B5043F3E60060000F0DEF91A
:102A5000043F3E60222601F02BFC00F05EFD00BD2D
:102A60000AB4043F3E607646013E337801210133CB
:102A700019405B187146C9188E460ABC3CE0C04636
:102A8000A82A00001000026322008E48DAE7043F03
:102A90003E607646013E33780121013319405B18D0
:102AA0007146C9188E467047D42A00001000027380
:102AB00022008548C6E7043F3E607646043F3E60FC
:102AC000013E36780121731C19405B187146C91804
:102AD0008E467047EC2A0000000005636F756E7427
:102AE0000136043F3E60013E36787047142B0000EB
:102AF000000005637479706501B53078002807D04F
:102B00000136043F3E603678FFF7BAFD0138F7D151
:102B100040CF01BD442B00000000047479706500B3
:102B2000310040CF300040CF00B5002908D000224E
:102B3000043F3E60865CFFF7A3FD01329142F7D16E
:102B400000BDC046802B00000000046865782E00A0
:102B500007B5310040CF20200F220438043F3E60EB
:102B60000E00C6401640092E01D9373600E0303637
:102B7000FFF786FD0028F0D1FFF720FF07BDC04614
:102B8000902B0000000003682E731FB54F4C0EE021
:102B9000A02B0000000003752E731FB54C4C06E0FF
:102BA000202C00000000022E73001FB5494C4A493A
:102BB000C91B8908494A106803B40A201060FFF74E
:102BC0004FFF08537461636B3A205B00043F3E6023
:102BD0000E0001F04BFDFFF743FF025D200003BC38
:102BE0003E4A106000290AD03D4A106806B4043FEE
:102BF0003E600600A04706BC043A0139F5D1FFF754
:102C00002FFF0620544F533A2000043F3E60360009
:102C1000A047FFF725FF04202A3E0A001FBDC0463B
:102C2000E42C0000000005776F72647300B5FFF7B5
:102C300017FF010A00F0B9FEFFF712FF09416464B3
:102C4000726573733A20043F3E60FFF781FFFFF720
:102C500007FF064C696E6B3A2000043F3E60366801
:102C6000FFF776FFFFF7FCFE07466C6167733A20BB
:102C7000043F3E60B688FFF76BFFFFF7F1FE0643A7
:102C80006F64653A2000B01D00F0CAFE043F3E604C
:102C90000600FFF75DFFFFF7E3FE064E616D653A44
:102CA0002000043F3E600636FFF726FFFFF7D8FE00
:102CB000010A00F092FE300040CFBDD040CF00BDF1
:102CC000602A00008E2A0000B62A0000512B000066
:102CD0005B4600006D46000064030010D80F001032
:102CE00060030010002E0000000010726567697319
:102CF0007465726C69746572616C2C003FB5350047
:102D000040CF2900C90029432D02AC480543FF23C9
:102D100000223000D040984301D00132F9E7300062
:102D2000D04018402843043F3E60060000F0B5FB49
:102D3000A348054318009040864310D0002430007B
:102D4000E040984301D00134F9E7101B043F3E6096
:102D50000E008001064300F0A0FB2200DFE7002AFE
:102D600006D0043F3E600E009201164300F095FB32
:102D700040CF3FBD1FB5310040CF924C0C43C9003E
:102D80000C434901300040CF020EFF231A408B4B09
:102D90000B431343043F3E601E0000F07EFB043FE4
:102DA0003E60260000F079FB020CFF231A40864BA0
:102DB0000B431343043F3E601E0000F06EFB043FD4
:102DC0003E60260000F069FB020AFF231A407E4B9A
:102DD0000B431343043F3E601E0000F05EFB043FC4
:102DE0003E60260000F059FB0200FF231A40764B9C
:102DF0000B431343043F3E601E0000F04EFB1FBD1B
:102E0000702E000000000563616C6C2C0FB5330060
:102E100000F0AAFE300040CF1B1A043B6B4919405A
:102E200000290ED06A4A91420BD00136043F3E6021
:102E30000026FFF763FF043F3E60664E00F02DFB67
:102E40000FBD40CF5B086448644919400843DB0A62
:102E500063491940090408439B0A01211940890666
:102E60000843043F3E60060000F047FB0FBDC0462C
:102E7000C42E00000000086C69746572616C2C003F
:102E800008B5043F3E60574E00F007FB043F3E602C
:102E9000554E00F002FB554B3000184098420BD1C4
:102EA000F643043F3E600626FFF728FF043F3E60DE
:102EB0004F4E00F0F2FA08BD043F3E600626FFF7D1
:102EC0001DFF08BDEC2E00000000066372656174F2
:102ED000650000B500F047F82F2000020B30804756
:102EE000043F3E607646013E00BDC046582F0000BC
:102EF000200005646F65733E2F2000020B30804771
:102F0000043F3E607646013E7047043F3E60764691
:102F1000013E384A1368384909683648834205D269
:102F20000F2008400E2805D00231F9E702200840A2
:102F300000D10231023111600136043F3E600026AB
:102F4000FFF718FF043F3E60224E00F0A6FA136020
:102F500000F0FFF900BDC046003000000000073C53
:102F60006275696C647300B500F0A4FB21480168C8
:102F7000204A91420CD200F0F7FD0F2006400E2EA1
:102F800040CF10D0043F3E60362600F086FAF2E7CC
:102F900000F0EAFD0220064040CF04D1043F3E602D
:102FA000362600F07AFA043F3E60144E00F075FABF
:102FB000043F3E60102600F0E3FA00BD0020000050
:102FC0000010000000020000003000000100C0FFFF
:102FD0000000C0FF8047000000F800F0FF0700007D
:102FE000FF030000043F00003E6000000000FFFF00
:102FF000F6430000000000101400001000B50000AF
:103000000C3000005000035B275D03E0243000001B
:103010000000012700B501F041F900F040FD30004B
:1030200040CF00BD64300000100008706F737470F2
:103030006F6E650000B5FFF7EDFF102101400DD167
:103040002021014005D0FFF71BFF043F3E60E74E03
:1030500004E0FFF715FF043F3E60E54EFFF7D6FEA4
:1030600000BDC046B0300000000007696E6C696E9C
:10307000652C00B5DF49E04AE04B3088884208D033
:10308000904208D0984206D0043F3E60060000F00F
:1030900004FA0236F1E740CF00BD0EB4D64AD74B52
:1030A00001880230914201D09942F9D10EBC70479B
:1030B000C43000000000047265742C00043F3E60C0
:1030C000CD4EEAE1D4300000300004657869740028
:1030D000F4E7C046EC30000030000772656375729B
:1030E0007365043F3E60C64E36688FE604310000CB
:1030F0008100057374617465043F3E60C14E704782
:1031000000000000183100000000015DBD480021F2
:10311000C94301607047C046283100001000015BC0
:10312000B848002101607047503100000008013AA2
:1031300000B5B548076000F0BDFA043F3E60AD4EF3
:1031400000F0ABF9AF480021C943016000BDC046A3
:10315000B03100003010013B00B5AB480168B94206
:103160000ED0FFF77DFC1520537461636B206E6FEA
:10317000742062616C616E6365642E0A01F080FBED
:10318000043F3E609C4E9F480068411C07D00628C3
:1031900004D8043F3E609D4E00F00EF9974E00F0BB
:1031A0007CF900F0D6F897480021016000BDC046C8
:1031B000C4310000000007657865637574653000F0
:1031C00040CF8746DC310000101009696D6D6564E1
:1031D00069617465043F3E601026EDE0F431000043
:1031E000101006696E6C696E6500043F3E60202613
:1031F000E2E0C0461032000010100B636F6D706982
:103200006C656F6E6C79043F3E603026D4E0C0463A
:103210002C32000010100A302D666F6C6461626CF5
:103220006500043F3E604026C6E0C04648320000CC
:1032300010100A312D666F6C6461626C6500043F8A
:103240003E604126B8E0C0466432000010100A32E9
:103250002D666F6C6461626C6500043F3E604226BF
:10326000AAE0C0468032000010100A332D666F6C51
:103270006461626C6500043F3E6043269CE0C0468A
:103280009C32000010100A342D666F6C6461626C11
:103290006500043F3E6044268EE0C046B832000020
:1032A00010100A352D666F6C6461626C6500043F16
:1032B0003E60452680E0C046D432000010100A3639
:1032C0002D666F6C6461626C6500043F3E6046264B
:1032D00072E0C046F032000010100A372D666F6CA5
:1032E0006461626C6500043F3E60472664E0C0464E
:1032F00020330000000008636F6E7374616E740009
:1033000000B500F0D7F9FFF7BBFD043F3E603B4E30
:1033100000F0C3F8FFF785FF00F01BF800BDC046C2
:103320004433000000000932636F6E7374616E7481
:1033300000B500F0BFF939683E600E46FFF7A0FD0A
:10334000E1E7C046A8330000000006736D756467AE
:10335000650000B52E4801682D4A91421ED20239FF
:103360000A882C4B9A4204D1043F3E602A4E00F05A
:1033700094F800F06BF800F07DF828480068043FEE
:103380003E600600264909680431214A136811602D
:1033900000F083F81360FEF704FF00BD00F056F85C
:1033A000043F3E60002608E024340000000008735B
:1033B0006574666C6167730000B515480168144A4E
:1033C000914205D2154801683143016040CF00BDEC
:1033D000320040CF12480068043001880D4B9942FA
:1033E00001D1110000E01143018000BD72300000E6
:1033F0000C2E000000B5000000BD0000704700006A
:1034000014000010B40F0010100000102010000075
:1034100000000010FFFF000000000000200000106E
:103420000400001040340000410007616C69676EC1
:10343000656401203040361802203040361870474D
:1034400064340000000005616C69676E00B58E4849
:1034500001680220014004D0043F3E60002600F0D5
:103460001CF800BD90340000000008616C69676EB4
:1034700031362C0000B5844801680F20014005D08A
:10348000043F3E60002600F008F8F4E700BDC046A7
:10349000D4340000000002682C000FB5B6B27B489F
:1034A0000168002902D0013100D00160764801682E
:1034B000754A914205D2043F3E600E00FEF7FBFDC7
:1034C00002E0320040CF0A80043F3E60022600F056
:1034D00057F80FBDF03400000000012C00B5043F88
:1034E0003E60FFF7DAFF360CFFF7D7FF00BDC0469E
:1034F0000C3500000000033E3C2C00B5043F3E604C
:10350000360CFFF7CAFFFFF7C8FF00BD7435000097
:10351000000007737472696E672C07B5FF21314094
:1035200040CF300040CF002905D1043F3E60002647
:10353000FFF7B3FF07BD043F3E60067836020E4337
:10354000FFF7ABFF0130013902290AD3043F3E6087
:103550004678360202781643FFF79FFF02300239A1
:10356000F2E7002900D107BD043F3E600678FFF76F
:1035700094FF07BDD0350000000005616C6C6F74CE
:1035800041480168404A91420FD2320040CF891829
:103590003F4A914219D3FFF763FA0B466C61736897
:1035A0002066756C6C0A01F06BF9320040CF891807
:1035B000384A1268914208D3FFF752FA0952616DF6
:1035C0002066756C6C0A01F05BF901607047C046BB
:1035D000F835000000000D636F6D70696C65746FE5
:1035E00072616D3F043F3E6000262748006826490F
:1035F000884248D3F64370471836000000000C6339
:103600006F6D70696C65746F72616D001E48006843
:103610001D49884211D37047A436000000000E6394
:103620006F6D70696C65746F666C617368001648C5
:1036300000681549884200D2704717481749026848
:103640000B680A6003601048154902680B680A603D
:10365000036010480068834215D300B5FFF700FAF5
:1036600023205661726961626C657320636F6C6CB4
:1036700069646520776974682064696374696F6E32
:103680006172790A00BD704700000010B40F00108D
:103690000080000024000010040000101C00001036
:1036A00018000010A0370000000008286372656150
:1036B0007465290000B500F0F1FD002E0ED1FFF772
:1036C000CFF91520437265617465206E656564737A
:1036D000206E616D6520210A01F0D2F83868043F40
:1036E0003E60043F386000F0ABF940CF002E40CF81
:1036F00011D03868043F3E60043F3860FFF7B0F9EE
:10370000095265646566696E6520FFF709FAFFF77F
:10371000A7F9022E0A00FFF799FE92480068914926
:10372000884225D2904800210160FFF7A3FE043FA4
:103730003E600C26FFF724FF00F016FA043F3E60BF
:103740000626FFF71DFFFDF723FDFFF7E6FE87487E
:1037500001680A68864B9A4207D1824A1368116051
:10376000043F3E60FFF7BAFE1360066040CF12E0F0
:1037700000F0FAF97D48043F3E600668FFF7AEFEB0
:10378000043F3E607B4EFFF788FE7848310040CF13
:103790000160FFF7C2FE734801687748016000BD11
:1037A000B83700000000087661726961626C6500DC
:1037B000043F3E60012613E0D037000000000932CC
:1037C0007661726961626C65043F3E60022607E0C3
:1037D000A83800000000096E7661726961626C654C
:1037E00000B5FFF767FF5F4801685E4A914233D238
:1037F0000F200640B20061480168891A604A914270
:103800000BD2FFF72DF90F4E6F7420656E6F756741
:10381000682052414D0A01F033F80160043F3E60D8
:103820000E00FFF72DFB043F3E60564EFFF735FEBE
:10383000300040CF0200002805D00E600431FFF7B1
:103840004DFE0138F9D1043F3E6080261643FFF754
:10385000B3FDFFF77EFD00BD00F086F902200640B3
:1038600040CF04D1043F3E603626FFF716FE043FEA
:103870003E60454EFFF741FE043F3E60434EFFF77A
:103880003CFE043F3E603F4EFFF707FE300040CF56
:10389000002803D0FFF722FE0138FBD1FFF7C1FC5F
:1038A000FFF757FD00BDC0469439000000000762D5
:1038B00075666665723A00B5FFF7FCFE0120304080
:1038C000361802203040361826480168254A9142B1
:1038D00026D22A480168891B294A91420BD2FFF758
:1038E000BFF80F4E6F7420656E6F75676820524188
:1038F0004D0A00F0C5FF0160043F3E600E00FFF777
:10390000BFFA043F3E601F4EFFF7C7FDFFF7E6FD1D
:10391000043F3E601E4EFFF74FFDFFF71AFD00BD4E
:1039200000F022F90220064040CF04D1043F3E605F
:103930003626FFF7B2FD043F3E60134EFFF7DDFD74
:10394000043F3E60114EFFF7D8FD043F3E600D4E30
:10395000FFF7A3FDFFF714FEFFF763FCFFF7F9FC89
:1039600000BD000000000010200000100400001046
:10397000FFFFFFFFFFFF00001400001024000010F5
:1039800008070010704700003E60043F02367E4684
:1039900040010000C439000000000F6469637469CD
:1039A0006F6E617279737461727442480068414944
:1039B000043F3E60884201D23F4E70473F4E36681A
:1039C0007047C046003A000000000E6469637469E5
:1039D0006F6E6172796E6578740003B5316838482E
:1039E000814207D08879FF2804D00E00043F3E6052
:1039F000002603BD043F3E600026F64303BDC046DB
:103A0000343A000000000A736B6970737472696E57
:103A100067003178013101220A4089187618704711
:103A200006B40178013101220A408918401806BC09
:103A30007047C046C83A000000000466696E640022
:103A40003FB500220023350040CF340040CFFFF7C0
:103A5000ACFF1C48B188884217D0043F3E60063650
:103A6000FFF73EF8043F3E602600043F3E602E0014
:103A7000FEF769FF002E40CF07D0B01DFFF7D0FF43
:103A800002000B000B48824204D2FFF7A6FF300071
:103A900040CFDED01600043F3E601E003FBD00B5A3
:103AA00031003868FFF7CCFF3A68002A01D100F0F6
:103AB00053FE00BD000000100003000004000010D1
:103AC000FFFFFFFFFFFF0000243B00000000066334
:103AD0006A756D702C00320040CF310040CF8B1BD7
:103AE000043BE549194000290DD0E44881420AD041
:103AF000FEF7B6FF0D4A756D7020746F6F2066611A
:103B0000720A00F0BDFE5B10FF210B401343300032
:103B10001E0000B5DA4A13681060FFF7BEFC1360A0
:103B200000BDC0465C3B00000000056A756D702C4E
:103B3000310040CF300040CF0B1A043BD14919402F
:103B4000002902D0D04A9142D2D15B10CF4A134013
:103B5000CF4A1343043F3E601E00DAE7743B000087
:103B60000000046865726500043F3E60C44E36681C
:103B70007047C0469C3C000000000D666C61736895
:103B80007661722D68657265043F3E60C14E36688D
:103B9000704700B5043F3E60BF4EFFF77EFC043F18
:103BA0003E60BE4EFFF779FC00BDDDE700B500F0DA
:103BB00037F839683E600E46043F3E60B84EFFF766
:103BC0008AFF00BD00B500F02BF839683E600E4654
:103BD000043F3E60B34EFFF77EFF00BD00B5FFF728
:103BE000D8FF00F01DF839683E600E46043F3E6085
:103BF000AD4EFFF770FF00BD00B500F011F8396859
:103C00003E600E46FFF794FF00BD00B5FFF7C1FF11
:103C1000FFF7AAFF043F3E600226FFF7B1FC00BD9C
:103C200000B5FFF7A1FF043F3E600226FFF7A8FCA6
:103C300000BD00B5FFF798FFFFF77AFF00BD00B5A4
:103C4000FFF792FF043F3E60974EFFF744FF00BD31
:103C500000B5FFF789FF043F3E60914EFFF73BFF41
:103C600000BD00B5FCF7BAFCFCF7F2FBFCF7F5FB76
:103C7000FCF7F8FB8168282901D1FCF7F7FCFCF779
:103C8000EBFC043F3E60894E09020E43FFF705FC42
:103C9000FCF7A3FBFCF7D0FB00BDC0460C3D0000C9
:103CA00030060269660000B5FFF7AFFF043F3E60D3
:103CB0007D4E043F3E60022600BD00B5FCF723FDAB
:103CC000FDF7B8FD816A002910D002B4FCF7B4FBFF
:103CD000FFF74AFF043F3E600226FFF751FC043F16
:103CE0003E6040BC043F3E60022600BDFFF7B9FFC6
:103CF000FFF73AFF043F3E600226FFF741FC043F16
:103D00003E60694E043F3E60022600BD403D00001B
:103D1000300004656C73650000B5022E26D140CFDB
:103D2000FFF77EFFFDF734FAFFF71EFF39683E60AC
:103D30000E46FFF7D0FE043F3E60052600BDC0469C
:103D40008C3D00003000047468656E00052E01D1C2
:103D500040CF6EE7022E09D140CF00B5FFF704FF38
:103D600039683E600E46FFF7B6FE00BDFEF778FEEE
:103D7000175374727563747572657320646F6E2760
:103D800074206D617463680A00F07AFDBC3D000028
:103D900030000672657065617400042EE6D140CF74
:103DA00000B5FDF7D8F9FFF727FFFFF7DDFE39680B
:103DB0003E600E46FFF78FFE00BDC046E83D0000A6
:103DC0003006057768696C65012ECFD140CF00B50C
:103DD000FFF769FF023600BD012EC7D140CF00B505
:103DE000FFF76BFF023600BD483E00003006057548
:103DF0006E74696C012EB9D140CFEFE67047012E89
:103E0000B4D140CF00B5FDF715FD816A00290DD072
:103E100002B4FCF711FBFFF703FF39683E600E4662
:103E2000043F3E6040BCFFF756FE00BDFFF719FFA0
:103E3000FFF7F6FE39683E600E46043F3E601A4EBC
:103E4000FFF749FE00BDC0465C3E00003000056142
:103E50006761696E012E89D140CFCDE6B03E00008A
:103E6000300005626567696E00B5FFF79EFE043F8E
:103E70003E60012600BD000001FFFFFF00FFFFFFC5
:103E80000000001001F8FFFF00F8FFFFFF0700002F
:103E900000E0000024000010002E000040CF0000D1
:103EA00000D1000000D7000000D000000028000072
:103EB000C83E00002002016B043F3E60029E704736
:103EC000043F3E608E4E0AE0F43E00002002016A8C
:103ED000043F3E60009E7047043F3E60894E00B53F
:103EE000FCF771FAFCF748FB03601B021E43FFF767
:103EF000D4FA00BD203F000020020169043F3E606B
:103F00002600704700B5043F3E607F4EFCF75BFA29
:103F1000FCF732FB03601E43FFF7BFFA00BDC0464B
:103F2000603F00003000056C6561766500B577483C
:103F300001683B00043F1A68043B1A6008338B4257
:103F4000F9D103B4FFF76CFE03BC330040CF043952
:103F50000B60016004390A6801320A6000BDC04686
:103F6000743F0000200006756E6C6F6F700030BCEF
:103F70007047C046AC3F00003000052B6C6F6F707F
:103F8000032E00D0F2E640CF00B5043F3E60604E05
:103F9000FFF76FF8FFF716FE1AE080200006001901
:103FA000A419401B801940CF7047C046F03F000065
:103FB0003000046C6F6F7000032E00D0D6E640CF47
:103FC00000B5043F3E60534EFFF753F8FFF7EEFD98
:103FD00000F04AF94D48310040CF0160043F3E6097
:103FE0004D4EFFF746F800BD0134AC427047C04665
:103FF00038400000300202646F0000B5043F3E60AC
:10400000464EFFF736F841480168043F3E600E0017
:10401000043F3E6000260760FFF7C7FD043F3E6097
:10402000032600BD00B500F02EF8ECE730B43400F4
:1040300040CF350040CF7047304100003002033F91
:10404000646F00B5043F3E60344EFFF712F8043F42
:104050003E60334EFFF721FA2C480168043F3E6072
:104060000E00FFF7DDFD0136043F3E6001262748C4
:104070000760FFF79AFD043F3E60032600BD00B5D0
:1040800000F001F8E3E700B5FCF73DFBFCF7B0FA00
:10409000FCF7DEF9FCF7E1F9FCF7E4F9043F3E60D8
:1040A000204EFFF7FAF90168282907D0043F3E6047
:1040B0001D4EC9000E43FFF7F0F907E0043F3E60D4
:1040C0004668043F3E600426FEF718FE81682829F2
:1040D00007D0043F3E60154EC9000E43FFF7DDF9DF
:1040E00007E0043F3E60C668043F3E600526FEF7D9
:1040F00005FEFCF772F9FCF770F9FCF7BDF900BD9D
:104100000298000000980000200000000C00001041
:104110009A3F0000E83F00006E3F00002C40000086
:10412000AC42000030B400000400000005000000B4
:1041300050410000300004636173650000B5FCF776
:10414000E2FA043F3E600026043F3E60082600BDC0
:10415000684100003000033F6F6668480AE0013E96
:10416000B64140CF7047C046084200003002026F9F
:1041700066006348082E00D0F8E540CF00B5043F44
:104180003E600600FEF775FFFFF74AFD39683E60A6
:104190000E460136043F3E600926043F3E60594EFC
:1041A000FFF77BF900BD082E00D0DFE540CF00B55A
:1041B000FCF71EFAFCF74CF9FCF74FF9FCF752F943
:1041C000043F3E60504EFCF751FA0E430268282A25
:1041D0000DD14268FF2A07D840CF043F3E604B4EC6
:1041E000164309020E4304E0FCF736FA0A00D20037
:1041F0001643FFF752F9FCF7F0F8FCF73DF9C3E777
:10420000300040CFB04270474042000030000565AA
:104210006E646F66092E00D0A8E540CF00B540B4AB
:1042200040CFFFF7FDFC39683E600E46FFF710FDFA
:10423000043F3E6040BC043F3E60082600BDC046CF
:1042400090420000300007656E6463617365082E5C
:1042500000D08BE540CF00B5043F3E60294EFFF70C
:104260001CF900F001F800BD00B5300040CF002877
:104270000DD003B401213140002903D0013EFFF7E6
:10428000DEFC01E0FFF7D5FC03BC0138EFE700BD21
:10429000A4420000000005746F6B656E043F3E6031
:1042A000202605E01443000000000570617273656C
:1042B00010B5FEF71CFB310040CF300040CF144A50
:1042C00012688418202E07D191420FD0835CB3422C
:1042D00002D101328418F7E7914207D0835C0132A2
:1042E000B342F9D18618361B013E01E08618361B11
:1042F000043F3C600648026010BD00005E410000C3
:104300000042000040CF0000804200000028000072
:10431000C00F001054430000000005646967697411
:10432000D44B1B68303E0BD30A2E0BD3073E0A2E0C
:1043300006D3242E06D3203E0A2E01D3242E01D3E9
:10434000002670479E42FBD2043F3E600026F643A3
:104350007047C046604400000000066E756D6265DF
:1043600072003FB5310040CF701E0126012204B417
:10437000C04B1B680024002500293CD001300139C6
:1043800002782D2A04D101B00022D24304B4F3E70D
:10439000232A01D10A23EFE7242A01D11023EBE7D6
:1043A000252A01D10223E7E72E2A01D10226E3E7DD
:1043B0002C2A36D0043F3E601600FFF7B3FF002ED4
:1043C00040CF2BD0043F3E602600043F3E602E00CD
:1043D000043F3E601E00043F3E6000260FB4FCF721
:1043E0009CFB0FBC350040CF340040CF0022A41905
:1043F000554140CFC0E704BC002A04D50022E44365
:10440000ED430134554133002600012B02D0043F17
:104410003E602E00043F3E601E003FBD01B00026FE
:104420003FBD2500002402260029E4D0425C01396A
:104430002E2AF9D0043F3E601600FFF773FF002ECE
:1044400040CFEBD0043F3C60043F3E601E000FB401
:10445000FCF717FC0FBC340040CF40CFE4E7C04668
:10446000844400000000062E6469676974000A2E07
:1044700001D230367047242E01D2373670472326BA
:104480007047C046BC440000000004686F6C6400C4
:10449000330040CF784801783F290DD201310170B7
:1044A0004018012907D00138027801300270013824
:1044B00001390129F7D103707047C046DC44000080
:1044C000000005686F6C643C330040CF6A48017897
:1044D0003F2902D20131017043547047F444000077
:1044E0000000047369676E00002E01D440CF70474E
:1044F0002D26CDE708450000000002233E005E485F
:1045000006780130386070472045000000000366DF
:10451000235310B5202400F008F8013CFBD110BD56
:104520004445000000000266230000B5043F3E60E1
:10453000504E3668FCF7C3FAFFF799FFFFF7C4FF48
:1045400000BDC0466045000000000223530000B5D6
:1045500000F00AF8002EFBD138680028F8D100BD21
:104560008C4500000000012300B5043F3E60414E31
:104570003668043F3E600026FCF7A3FBFCF7FEF81C
:1045800040CFFFF774FFFFF783FF00BDA045000099
:104590000000023C23003848002101707047C046EB
:1045A000B4450000000002662E00043F3E60202655
:1045B00005E0C04604460000000003662E6E00B50C
:1045C00010B4340040CFFCF7B3FDFCF7F7F9043F1B
:1045D0003E600026FFF7DFFFFFF7B9FF40CF2C2634
:1045E000FFF772FF002C03D0FFF79FFF013CFBD1C8
:1045F00010BC40CFFFF778FF043F3E60043F3E60B1
:104600001EE0C0461C46000000000375642E00B585
:10461000FFF7C1FFFFF79BFF12E0C04650460000C6
:10462000000002642E0000B5FCF782FDFCF7C6F91D
:10463000FFF7B1FFFFF78BFFFCF78DFDFFF754FF8E
:10464000FFF75DFFFEF76CFAFEF7B8F900BDC04654
:1046500064460000000002752E00043F3E60002604
:10466000D5E7C0467C4600000000012E043F3E60B6
:10467000F617D8E7D80F00105C000010C446000001
:104680000000086576616C756174650000B5FEF721
:104690002EF901CF01B440B440CF8A48016802B47A
:1046A00000210160FEF716F900F014F8854802BCFD
:1046B0000160043F3E6040BC01BC043F3860FEF72F
:1046C00009F900BD58480000000009696E74657260
:1046D0007072657430B57C4887420BD9FEF7C0F91B
:1046E00010537461636B20756E646572666C6F77CE
:1046F0000A00C5E0754887420AD2FEF7B1F90F53A8
:104700007461636B206F766572666C6F770AB7E0D1
:104710006F4C2568002D01D13D002560FFF7BEFDDF
:10472000002E02D1043740CF30BD3868043F3E60D0
:10473000043F3860FFF784F9310040CF320040CFAA
:10474000002A15D138683100FDF732F8FFF709FE6D
:10475000320040CF002ABED1FEF7E6F9FEF780F91D
:104760000C206E6F7420666F756E642E0A0087E0F1
:10477000584B1B68002B29D100252560564B0B4058
:1047800009D0043740CF55480760FEF793FF5148E2
:10479000012101609FE730230B40302B0ED1FEF743
:1047A000BFF9FEF75DF91220697320636F6D7069C0
:1047B0006C652D6F6E6C792E0A0061E0043740CF76
:1047C000043F3E601600FEF7FAFC84E7043740CF52
:1047D0004348084001D1FCF7EBFF8020084008D196
:1047E000EB1B9B084020084009D00F200840834263
:1047F00005D3043F3E601600FEF7E1FC6BE7394845
:1048000008400CD0FBF78FFD1000FEF746FC421C61
:104810003548904738002060FBF794FD5BE7FBF7D5
:1048200082FDFBF709FE002525603048084001D1D4
:10483000FBF769FF043F3E60160010220A4002D0D9
:10484000FEF7BDFC47E720220A4002D0FEF711FC2C
:1048500041E7FEF7DBFA3EE7744800008100096893
:104860006F6F6B2D71756974043F3E60204E704709
:10487000B04800000449000000000471756974002C
:104880001C488546104FFDF707FC1B480A210160B4
:104890001048002101600E480160FBF712FE094834
:1048A000016016480160164941601148006887465A
:1048B000FEF72CF8FFF70EFFFEF7D2F805206F6B1E
:1048C0002E0AF5E7C00F0010640300106401001009
:1048D00008000010B40F00100008000010000010C5
:1048E000000400000002000028000010001000007A
:1048F000B00F001064040010D80F0010B80F0010A3
:104900009C0000102049000000000565696E743F9E
:10491000043F3E60EFF31086013EB6417047C0464B
:104920003049000020000465696E740062B670476B
:104930004049000020000464696E740072B670473C
:10494000584900002000046970737200043F3E6003
:10495000EFF305867047C046644900000000036E0F
:104960006F707047A8490000000009756E68616E9D
:10497000646C656400B5FEF773F814556E68616E7B
:10498000646C656420496E74657272757074200081
:10499000043F3E60EFF30586FEF7DAF8FEF760F8B5
:1049A00002210A0000BDC046BC490000000005729B
:1049B00065736574884889490160C046E049000014
:1049C00081000B6972712D7379737469636B043F95
:1049D0003E60834E704774490000814800688746F6
:1049E000044A00008100096972712D6661756C745A
:1049F000043F3E607B4E7047744900007948006870
:104A00008746C0462C4A000081000E6972712D63F2
:104A10006F6C6C656374696F6E00043F3E60724E2C
:104A20007047744900007048006887464C4A00008F
:104A30008100076972712D616463043F3E606B4EB3
:104A40007047744900006948006887466C4A000056
:104A50008100076972712D693263043F3E60644EC4
:104A6000704774490000624800688746904A000019
:104A70008100086972712D7561727400043F3E6097
:104A80005C4E7047744900005A4800688746C0462B
:104A90000C500000FFFF182D2D2D20466C6173680F
:104AA0002044696374696F6E617279202D2D2D0029
:104AB000FDF770FD50488546504F2A265048514911
:104AC0000160514851490160043F3E604F4E504DD6
:104AD000B188504B994224D04F4B0B400AD0B01DA7
:104AE000FEF79EFFFEF7D9FA0388408800040343CF
:104AF000ED1A16E080230B4013D00F2319408900D4
:104B00006D1AB01DFEF78CFFFEF7C7FA043F3E603A
:104B10000600043F3E602E00043F3E600E00FCF79E
:104B200015FFFEF75AFF300040CFD1D03B4806605A
:104B300040CF3B4805603B483B49364A884204D059
:104B4000023803889342F9D0023038490860FDF7F3
:104B5000A3FAFDF785FF544D6563726973702D5399
:104B600074656C6C6172697320524120312E312062
:104B70006578706572696D656E74616C20776974B3
:104B800068204D3020636F726520666F72204C5034
:104B90004331313134464E3238206279204D6174D0
:104BA0007468696173204B6F63680A0020480021B4
:104BB0000160043F3E601F4E043F3E600426FEF746
:104BC0003FFF40CF002E02D0FEF7F9FA6DE640CF4E
:104BD00056E6696E697400000CED00E00400FA0509
:104BE000AC0F0010A80F0010A40F0010A00F0010B1
:104BF0009C0F0010980F0010640400106403001054
:104C0000000000100807001004000010000300005E
:104C1000E00F0010FFFF0000000100001C0000106A
:104C20002400001000800000005000001800001058
:084C300008000010D24B000047
:00000001FF
