:100000008C040010FD4B0000494B0000494B0000E0
:1000100000000000000000000000000000000000E0
:10002000000000000000000000000000734B000012
:100030000000000000000000734B0000274B000090
:10004000734B0000734B0000734B0000734B0000B8
:10005000734B0000734B0000734B0000734B0000A8
:10006000734B0000734B0000734B0000734B000098
:10007000734B0000734B0000734B0000B34B000048
:10008000734B0000734B0000734B0000734B000078
:10009000734B0000D54B0000734B0000734B000006
:1000A000934B0000734B0000734B0000734B000038
:1000B000734B0000734B0000734B0000734B000048
:1000C000FFFFFFFFFFFFFFFFFFFFFFFFFFFFFFFF40
:1000D000FFFFFFFFFFFFFFFFFFFFFFFFFFFFFFFF30
:1000E000FFFFFFFFFFFFFFFFFFFFFFFFFFFFFFFF20
:1003000054070000FFFF1E2D2D2D204D65637269DF
:1003100073702D5374656C6C6172697320436F72D6
:1003200065202D2D2D0007B59048002B09D000F039
:100330003BF800F041F800F027F842602821016006
:10034000F3E707BD00B5894800230168282905D1D6
:10035000426800F004F800F04CF8F6E700BD03B581
:10036000043F3E601600043F3E601E0008B400F0EB
:10037000CFFF08BC0133043F3E607D4E043F3E602A
:100380007C4E04F016FA03BD03B5013B043F3E600A
:100390001E0008B400F0A6FF08BC3200043F3E6017
:1003A000754E04F006FA03BD03B5744801681E29B2
:1003B00001D000F034F803BD8169016201698161F7
:1003C0008168016101688160C16941624169C161FF
:1003D000C16841614168C1601E21016070470FB56D
:1003E000624801681E2903D0FFF7DEFFFFF7E4FF34
:1003F0000FBD02B581680160C168416000E002B5CF
:10040000016981604169C16081690161C1694161BE
:10041000016A8161416AC1611E21016202BD08B5A4
:1004200001681E220260082901D20B0004E028297D
:100430000DD1436800F05DF8043F3E60504E03F07C
:1004400048F8043F3E604F4E1E4303F042F808BD9B
:1004500000B500F009F800F00CF800F00FF800F01B
:1004600012F800F015F800BD0FB54448FFF7D7FFAC
:100470000FBD0FB54448FFF7D2FF0FBD0FB543487E
:10048000FFF7CDFF0FBD0FB54148FFF7C8FF0FBD08
:100490000FB536480168062202601E2905D1043FC7
:1004A0003E603C4E03F015F814E0282909D143685A
:1004B000043F3E601E00043F3E60062602F032FC10
:1004C00008E0062906D0043F3E60334EC9000E43C3
:1004D00002F0FFFF00F001F80FBD24481E21016269
:1004E000816101618160C162062101600021816238
:1004F000704707B5043F3E601E0000F04FF8043F10
:100500003E601E0002F00EFC07BD07B5C16A282937
:1005100004D1016B994201D1002307BD0168002974
:1005200018D08168002915D00169002912D081698D
:1005300000290FD0016A00290CD00363043F3E60FC
:100540001E00043F3E60002602F0ECFB2821C16241
:10055000002307BD043F3E601E0000F01FF8043F6B
:100560003E601E0002F0DEFB07BD00002800001008
:1005700094100000610200000020000048000010FC
:10058000043F0000386000004000001038000010F8
:100590003000001040CF00000646000037B5364856
:1005A0000168826803698469056A062000F00EF814
:1005B000032000F00BF8022000F008F8012000F002
:1005C00005F800232C481E21C16237BD814209D0A5
:1005D000824207D0834205D0844203D0854201D0B5
:1005E000030037BD7047043F3E60244E00B581587C
:1005F0001E2905D1FFF7D2FF8350012199400E43F8
:1006000000BD00B501681E2904D10022FFF7EBFFF1
:1006100002F05FFF00BD00B581681E2907D10822E6
:10062000FFF7E1FF0022FFF7E1FF02F052FF00BDFC
:1006300000B501691E290AD11022FFF7D4FF082254
:10064000FFF7D4FF0022FFF7D1FF02F042FF00BD09
:1006500000B581691E290DD11822FFF7C4FF1022B1
:10066000FFF7C4FF0822FFF7C1FF0022FFF7BEFF1C
:1006700002F02FFF00BD00002800001000CF000096
:1006800000B50168282904D14368FFF732FF0360F1
:10069000190000BD00B58168282904D1C368FFF79F
:1006A00028FF8360190000BD00B50169282904D125
:1006B0004369FFF71EFF0361190000BD3EB5826864
:1006C00003698469056A9A4203D0A24201D0AA4212
:1006D0000AD1072A08D8043F3E60D600FFF75EFF24
:1006E0001E43836002F0F5FE3EBD3EB501688268A0
:1006F00003698469056A914206D0994204D0A142F7
:1007000002D0A94200D03EBD043F3E60CE00FFF7BC
:1007100045FF1E43036002F0DCFE3EBD00B5FFF75F
:1007200068FEFFF75CFEFFF739FF036000BD01B50F
:1007300006480368013307D00023DB430360043F0E
:100740003E60034E02F0C5FE01BD0000B40F001074
:1007500000B50000780700004202043264757000A2
:100760003868043F3E60043F3860704700B500F0D1
:10077000E3FC00F0E1FC00BD9807000062020532D6
:1007800064726F70043740CF704700B500F084FC8E
:1007900000F082FC00BDC046E007000044020532C4
:1007A0007377617007CF043F3860043F3E60043FB9
:1007B0003A600E00704700B5FFF74AFF0268036910
:1007C00003600261426843694360426182688369F1
:1007D00083608261C268C369C360C26100BDC046F4
:1007E00008080000620204326E69700007CF043FFF
:1007F0003860704700B5FFF72BFFFFF7DCFFFFF70E
:10080000F8FDFFF7F6FD00BD2408000044000532A6
:100810006F766572B868043F3E60043F3860FE68DA
:100820007047C04648080000440005327475636B89
:1008300007CF043F3860043F3E60043F3A60043F06
:100840003960043F386070476C080000460004328D
:10085000726F74003868B9683A69B86039613A6093
:1008600079687E60FE68F9607047C04690080000B5
:10087000460005322D726F743868B9683A6938617C
:100880003960BA60F968FE607E6879607047C0467A
:10089000B8080000200203323E7201CF01B440B418
:1008A00040CF704700B5FFF742FF00F019FC00F0A1
:1008B000BBFC00F0B9FC00BDE408000020020332DC
:1008C000723E043F3E6040BC01BC043F386070474C
:1008D00000B5FFF72CFF00F0C2FC00F0C0FC00F0F8
:1008E000FFFB00BD14090000200203327240043FE8
:1008F0003E60019E043F3E60009E704700B5FFF7DA
:1009000016FF043F3E600C4E03F005FB03F000FBB6
:1009100000BDC04640090000200206327264726FBA
:10092000700002B0704700B5FFF701FF043F3E6062
:10093000024E02F0CEFD00BD0198000002B00000A2
:100940005809000042000364322F3868F10776101E
:100950004008084338607047700900006202036471
:10096000322A3868001876413860704719E0C0466E
:100970008C09000042000464736872003868F10753
:1009800076084008084338607047C046D809000020
:100990006202046473686C0038680018764138603D
:1009A000704700B5FFF737FEFFF76AFEFFF79DFEC1
:1009B00000F096FBFFF764FEFFF797FE043F3E60F2
:1009C000402601F0C7FC00F08BFB043F3E60404E28
:1009D00001F0C0FC00BDC046EC0900004200046408
:1009E00061627300002E08D47047C0460C0A0000F4
:1009F000420007646E656761746538680021C04312
:100A0000F64301304E4138607047C0465C0A000032
:100A1000640202642D0007CF121AB1410E00043F98
:100A20003A60704700B5FFF713FE00F0AEFBFFF72A
:100A300027FEFFF75AFE00F053FBFFF721FEFFF7FA
:100A400054FEFFF7B8FE01F006FC00F0BBFB043FCC
:100A50003E60204E00F03FFD00BDC046A80A0000E9
:100A6000640202642B0007CF12184E41043F3A6023
:100A7000704700B5FFF7ECFD00F087FBFFF700FEC5
:100A8000FFF733FE00F02CFBFFF7FAFDFFF72DFE1A
:100A9000FFF791FE01F0C9FB00F094FB043F3E60BC
:100AA0000B4E00F01CFD00BDDC0A00006102037368
:100AB0003E64043F3E60F617704700B500F0DAFA76
:100AC000FFF713FE043F3E60034E01F0FBFB00BD49
:100AD0004041000080410000C0170000080B0000EA
:100AE000420003756D2A3868030073433B60010CB4
:100AF000320C0B005343B6B280B24E43504336180B
:100B0000360CF6187047C046380B00004200026DE4
:100B10002A003868C11705D040423860F01704D069
:100B20007642E0E7F017DED0764200B5FFF7DBFF54
:100B3000FFF763FF00BDC046780B0000440003755B
:100B4000642A07CF564341437618010C130C5943CE
:100B50007618010C80B292B25143434350430022B5
:100B6000C91852411204B6180A04090C80184E41E3
:100B7000043F38607047C0460C0C00004400047508
:100B8000646D2A0010B50024043F3E607E68043F77
:100B90003E603E69FFF7A7FF310040CF300040CFF5
:100BA000043F3E603E68043F3E60FE6803B4FFF7CA
:100BB0009AFF03BC330040CF320040CF043F3E6079
:100BC0003E68043F3E603E690FB4FFF78CFF0FBCE8
:100BD0009219634140CF89196241634140CF043F7C
:100BE0003E607E68043F3E60FE680FB4FFF77BFF07
:100BF0000FBC9219634140CF89196241634140CFD4
:100C00001E003A607960B86010BDC046300C00002C
:100C10004300022A2F0000B540B440CFFFF779FF10
:100C2000043F3E6040BC00F04FF8043700BDC046B2
:100C3000540C00004300052A2F6D6F6400B540B4CA
:100C400040CFFFF766FF043F3E6040BC00F03CF839
:100C500000BDC046780C0000430003752A2F00B584
:100C600040B440CFFFF73FFF043F3E6040BC00F080
:100C70001CF8043700BDC0469C0C000043000675FC
:100C80002A2F6D6F640000B540B440CFFFF72BFFF3
:100C9000043F3E6040BC00F008F800BDBC0C000002
:100CA000430006756D2F6D6F640000B5043F3E6014
:100CB000002600F01AF840CF043700BDDC0C00001D
:100CC0004300056D2F6D6F6400B5043F3E60F6175D
:100CD00000F034F840CF043700BDC046300D0000AE
:100CE00044000675642F6D6F640030B40023002249
:100CF0007968B86835003C68402640004941524157
:100D00005B41AB4202D804D3A24202D3121BAB41D7
:100D10000130013EF1D10E0038607B60BA6030BC1A
:100D2000704730B400237A68B9680020E2E7C04613
:100D3000A80D0000440005642F6D6F6400B5F01726
:100D400019D0FFF75AFEFFF72DFDF0170CD0FFF773
:100D500054FEFFF727FDFFF7C8FFFFF723FDFFF75E
:100D60004CFEFFF71FFD00BDFFF71CFDFFF7BDFFA9
:100D7000FFF743FE00BDFFF715FDF0170ED0FFF79C
:100D80003CFEFFF70FFDFFF7B0FFFFF736FEFFF762
:100D900009FDFFF732FEFFF705FD00BDFFF702FD7D
:100DA000FFF7A3FF00BDC046C00D00004400026471
:100DB0002F0000B5FFF7C2FFFFF718FD00BDC046CA
:100DC000080E0000440002662A0000B5F0170DD09E
:100DD000FFF713FEFFF7E6FCF0170DD0FFF70DFE4F
:100DE000FFF7D0FE40CF01CF386000BDFFF7DAFC3F
:100DF000F017F5D0FFF701FEFFF7C4FE40CF01CF9B
:100E00003860FFF7FAFD00BD540E00004400026692
:100E10002F0000B5F0170ED0FFF7EFFDFFF7C2FC73
:100E2000F0170ED0FFF7E9FDFFF7BCFCFFF779FFE5
:100E3000FFF7DCFC00BDFFF7B5FCF017F4D0FFF7BF
:100E4000DCFDFFF7AFFCFFF76CFFFFF7D6FDFFF708
:100E5000CDFC00BD9C0E000020020232210006CF16
:100E60003160726040CF704700B5FFF7E1FB016869
:100E7000426806B400F0D2FDFFF7B1FA06BC01608B
:100E8000282905D0043F3E60614E00F0CAFD00BD38
:100E90000432426000F0C2FD00BDC046E40E000016
:100EA000200202324000043F7068386036687047A4
:100EB00000B500F0DFF80168282909D0043F3E6042
:100EC000544E00F08CFD00F00BF900F085FD00BDE4
:100ED00041680431416000F07FFD00F001F900F04D
:100EE0007BFD00BD040F000044000364753C07CF88
:100EF0008E4204D801D1904201D8002670470026C6
:100F0000F6437047240F000044000364753E07CF8A
:100F1000B14204D801D1824201D800267047002690
:100F2000F6437047440F0000440002643C0007CFC2
:100F30008E4204DC01D1904201DC0026704700267D
:100F4000F6437047640F0000440002643E0007CF80
:100F5000B14204DC01D1824201DC00267047002648
:100F6000F6437047800F000062020364303C043790
:100F7000F617704700B500F0C6F800F010FB00BD92
:100F8000A80F000062020364303D01CF0643013E1A
:100F9000B641704700B5043F3E601F4E00F09FFA17
:100FA00000F0D8FA00BDC046D00F00004402036430
:100FB0003C3E07CF50404E400643013EB641F6430B
:100FC000704700B500F016F800F0D7FA00BDC04633
:100FD0001C100000440202643D0007CF50404E4008
:100FE0000643013EB641704700B500F003F800F03B
:100FF000B1FA00BD00B5FFF72BFB00F0C6F800F01A
:10100000CFF900F0DFF800F0CBF900F0BDF900BD3A
:101010004060000040680000004300003010000005
:10102000200003737040043F3E603E007047C0469E
:1010300040100000200003737021370040CF70473C
:1010400054100000200003727040043F3E606E4662
:101050007047C04664100000200003727021B5463E
:1010600040CF704788100000610203647570043F30
:101070003E60704706B5FFF7C4FA01684268FFF7A3
:10108000AEF90160426006BDB41000006102046464
:10109000726F700040CF704700B501681E2905D1FE
:1010A000043F3E60A14E02F014FA00BDFFF7A1F923
:1010B00000BDC046CC1000006100043F64757000A4
:1010C000002E01D0043F3E607047C046F81000007B
:1010D000620204737761700039683E600E007047E9
:1010E0000CB5FFF798FA0268836803608260426873
:1010F000C3684360C2600CBD241100006202036E2D
:1011000069700437704700B5FFF77BFA81681E29C4
:1011100002D0FFF774F900BD043F3E60834E02F039
:10112000D8F900BD4C1100006202046F76657200B0
:10113000043F3E607E68704700B5FFF76CFA816837
:10114000C268FFF74CF90160426000BD74110000F5
:101150006202047475636B0001CF083F7E603860E3
:10116000704700B5FFF757FAFFF784FF00F02AF841
:1011700000BDC046AC110000630203726F7403CF60
:10118000083F78603E600E0070470EB5FFF750FADA
:101190000168826803698160026103604168C26816
:1011A0004369C160426143600EBDC046D01100007A
:1011B0006302042D726F740003CF083F7E603960B4
:1011C0000600704700B5FFF7E0FFFFF7DEFF00BD48
:1011D000E41100002000047069636B00B0003E5809
:1011E0007047C046FC11000000000564657074681B
:1011F0004F49C91B043F3E608E087047181200001B
:1012000000000672646570746800043F3E606E46BC
:101210004849891B8E0870474C1200002002023E8C
:10122000720040B440CF704700B5FFF780FAFFF777
:10123000E8F9FFF725FA043F3E603F4E01228A405D
:10124000164302F046F9FFF7D4F800BD8012000003
:10125000200202723E00043F3E6040BC704700B571
:10126000FFF765FAFFF7BBF8FFF798F90360043F53
:101270003E60324E01229A40164302F02AF900BD28
:10128000A0120000200202724000043F3E60009E57
:10129000704700B5FFF74BFA02F03AFE00BDC046BA
:1012A000C41200002002057264726F7001B07047B2
:1012B00000B5FFF73CFA043F3E60214E02F009F909
:1012C00000BDC046D8120000200005727069636B33
:1012D000B6006E44366870470413000000000472C4
:1012E0006F6C6C00002E01D140CF7047B0003958B0
:1012F000C019031F1A6802600438013EF9D104378F
:101300000E007047441300000000052D726F6C6CD6
:10131000002E01D140CF7047386839464A680A60CC
:101320000431013EFAD1086040CF70470437000015
:101330008C0300108C04001000B4000000BC0000FE
:1013400001B000005C130000620203616E6401CF13
:1013500006407047043F3E606F4EC0E078130000C7
:1013600062020362696301CFB04306007047043F25
:101370003E606A4EAFE0C046901300006202026F0A
:10138000720001CF06437047043F3E60644EA6E002
:10139000A8130000620203786F7201CF46407047C5
:1013A000043F3E605F4E9AE0C01300006202012AD3
:1013B00001CF46437047043F3E605B4E8FE0C0461E
:1013C000E0130000410003636C7A300006D0002671
:1013D000400002D001D20136FAE77047202670475C
:1013E000F0130000610003726F720120C641704764
:1013F00004140000610003726F6C0020B6194641AE
:101400007047C04638140000620207617273686951
:10141000667401CF30410600704700B5043F3E605E
:10142000424E043F3E60424EFFF7F5F841681F29E7
:1014300028D91F21416025E0601400006202067275
:1014400073686966740001CFF0400600704700B50C
:10145000043F3E60374E043F3E60374E12E0C046C8
:10146000441500006202066C73686966740001CF5F
:10147000B0400600704700B5043F3E602F4E043F69
:101480003E600026FFF7C7F80168282903D040CF47
:1014900000F021F800BD04374168FEF7AAFF0029DB
:1014A00001D140CF00BD1F290AD889010E4302682F
:1014B000D2001643FFF732F91E4302F00AF800BDCE
:1014C00040CFFFF72BF9043F3E601D4E1B021E4329
:1014D00001F0FFFF00BD0FB5FFF79DF80CE00FB561
:1014E000FFF799F80168062901D1FFF7F9FD826835
:1014F000282A01D1FFF7F4FDFFF7CCF8FFF7DEF85B
:10150000FFF7BEF8C90082680E43164301F0E1FF01
:10151000FEF76FFF0FBD0000004000008043000099
:101520000043000040400000404300000041000034
:1015300000100000C04000000008000080400000D3
:101540000020000068150000610202303D00013EED
:10155000B641704700B500F003F900F0B0FEFEF7A9
:1015600048FF7349816200BD90150000610203309D
:101570003C3E013EB641F643704700B500F0F0F83E
:1015800000F09DFEFEF735FF6A49816200BDC0464E
:10159000B4150000610202303C00F617704700B538
:1015A00000F0DEF8043F3E60634E00F08BFE6349BE
:1015B000816200BDCC150000600004747275650086
:1015C000043F3E600026F6437047C046E015000029
:1015D00060000566616C7365043F3E6000267047DD
:1015E000041600004202023E3D0001CFB042E9DA9B
:1015F00000267047043F3E60514E043F3E60514E0E
:10160000BAE0C046281600004202023C3D0001CF6D
:10161000B042D7DD00267047043F3E604A4E043F8B
:101620003E604A4EA8E0C046481600004202013C17
:1016300001CFB042C6DB00267047043F3E60414EFA
:10164000043F3E603E4E97E0681600004202013EB5
:1016500001CFB042B6DC00267047043F3E603B4EEF
:10166000043F3E60384E87E08C160000620203752E
:101670003E3D01CF861BB641F6437047043F3E60B6
:101680002C4E043F3E602A4E76E0C046B016000065
:10169000620203753C3D01CF361AB641F6437047EE
:1016A000043F3E602A4E043F3E602A4E64E0C0463E
:1016B000D0160000620202753C0001CF861BB641C5
:1016C0007047043F3E601A4E043F3E60194E53E09F
:1016D000F0160000620202753E0001CF361AB641D4
:1016E0007047043F3E601B4E043F3E60184E43E08F
:1016F000101700006202023C3E0001CF811B361A27
:101700000E437047043F3E60134E043F3E6033E09B
:101710006C1800006202013D01CF361A013EB6414D
:101720007047043F3E600D4E043F3E6024E00000E1
:1017300000D2000000D30000C017000000D5000058
:1017400000DB000000DA000000DC000000DD00002B
:1017500000D8000000D9000000D0000000D1000037
:1017600000B5FEF74EFFFEF77FFEFEF782FEFEF7A6
:1017700085FEFEF78FFF00BD00B5FEF74CFFFEF7BC
:1017800073FEFEF776FEFEF78FFF8268282A04D1EB
:10179000FFF7A6FC39683E600E4640CF0168282955
:1017A00009D14168FF2906D8043F3E60634E0E43CD
:1017B0008168090206E0FEF763FF043F3E60604E69
:1017C000C90016430E4301F084FEFEF712FEFEF739
:1017D00010FE866240CF00BD0FB55A48816A0029CD
:1017E00030D0043F3E60866A00218162310AD529EB
:1017F00001D140CF0FBDFEF7F2FDFEF7CFFE036033
:10180000D22903D1504E00F0A5FD0FBDD32905D13B
:101810004D4E00F09FFD00F0B0FD0FBD023601F00F
:1018200058FE043F3E60494E00F00DF800F0A5FD63
:10183000043F3E60464E01F04CFE043F3E60434E86
:1018400000F001F80FBD00B5FEF7DBFEFEF74DFF1F
:10185000016809020E4301F03CFE00BD00B5816A3B
:10186000090AD52901D1FEF7C4FD00BD8818000082
:101870006202036D696E01CFB04200DC0600704762
:10188000043F3E60334E2BE0A41800006202036D5B
:10189000617801CFB04200DB06007047043F3E6034
:1018A0002D4E1DE0C4180000620204756D617800C1
:1018B00001CFB04200D306007047043F3E60274E80
:1018C0000EE0C04668190000620204756D696E0082
:1018D00001CFB04200D806007047043F3E60204E62
:1018E00000B5FEF798FE01688268914203D140CFAF
:1018F000FEF785FD00BD062A01D1FFF7F1FB016867
:10190000282901D1FFF7ECFBFEF7EFFEFEF7C2FE40
:10191000C9000268043F3E60094E0E43164301F0C1
:10192000D8FD01F0D6FD043F3E600E4E0E43164337
:1019300001F0CFFDFEF763FD00BD000000280000B0
:1019400080420000280000108041000000200000BC
:1019500000E0000000DB000000DC000000D8000018
:1019600000D3000000460000A81900000000046D2C
:101970006F76650007B5310040CF320040CF0029B7
:101980000FD0B2420DD006D3013E013A705C5054E4
:101990000139FBD105E03078107001360132013990
:1019A000F9D140CF07BDC046CC1900000000046645
:1019B000696C6C00300040CF310040CF002902D06C
:1019C00001397054FCD140CF7047C0460C1A00005A
:1019D0002002014036687047043F3E60994E00B5D2
:1019E000FEF70FFE0368282B08D143687C211940BD
:1019F00009010E437C218B43FEF787FDDB001E436C
:101A0000FEF78CFE1E4301F064FD00BD641A000069
:101A10002002012103CF30600E007047043F3E607A
:101A2000894E00B5FEF7F7FD0368282B09D14368FE
:101A30007C21194009010E437C218B43FEF765FD93
:101A40000360DB001E438368282B02D1C368FEF7C6
:101A500050FD1E4301F03DFDFEF7CBFCFEF7C9FC37
:101A600000BDC0469C1A00002002022B210003CFBB
:101A70003268121832600E00704700B5FEF7CBFDD9
:101A8000FFF7F8FAFFF7A8FFFFF77FFB00F0CDFBA9
:101A9000FFF726FBFFF7C2FF00BDC046E01A0000BB
:101AA0002002026840003688704700B5FEF7A9FDA5
:101AB000043F3E60654E0368282B08D143683E21F1
:101AC000194049010E433E218B43FEF71EFDDB000A
:101AD0001E43FEF723FE1E4301F0FBFC00BDC04683
:101AE000381B000020020268210003CF30800E0066
:101AF000704700B5FEF78FFD043F3E60544E03680B
:101B0000282B09D143683E21194049010E433E214B
:101B10008B43FEF7FAFC0360DB001E438368282B2F
:101B200002D1C368FEF7E5FC1E4301F0D2FCFEF7CC
:101B300060FCFEF75EFC00BD701B00002002036825
:101B40002B2103CF3288121832800E00704700B567
:101B5000FEF761FDFFF78EFAFFF7A7FFFFF715FB12
:101B600000F063FBFFF7BCFAFFF7C3FF00BDC04600
:101B7000B41B00002002026340003678704700B5B5
:101B8000FEF73FFD043F3E60324E0368282B08D12C
:101B900043681F21194089010E431F218B43FEF723
:101BA000B4FCDB001E43FEF7B9FD1E4301F091FCBF
:101BB00000BDC0460C1C000020020263210003CFC0
:101BC00030700E00704700B5FEF725FD043F3E6003
:101BD000214E0368282B09D143681F211940890130
:101BE0000E431F218B43FEF790FC0360DB001E4376
:101BF0008368282B02D1C368FEF77BFC1E4301F0EB
:101C000068FCFEF7F6FBFEF7F4FB00BD5C1C000071
:101C1000200203632B2103CF3278121832700E009A
:101C2000704700B5FEF7F7FCFFF724FAFFF7A7FFB0
:101C3000FFF7ABFA00F0F9FAFFF752FAFFF7C3FF2C
:101C400000BD000000680000006000000088000087
:101C50000080000000780000007000009C1C000064
:101C6000200204626973210003CF326802433260AC
:101C70000E00704700B5FEF7CEFCFFF7FBF9FFF74B
:101C8000ABFEFFF782FA043F3E60AB4EFFF727FC46
:101C9000FFF726FAFFF7C2FE00BDC046DC1C0000BD
:101CA000200204626963210003CF326882433260FC
:101CB0000E00704700B5FEF7AEFCFFF7DBF9FFF74B
:101CC0008BFEFFF762FA043F3E609C4EFFF703FC79
:101CD000FFF706FAFFF7A2FE00BDC0461C1D00007C
:101CE000200204786F72210003CF326842403260D4
:101CF0000E00704700B5FEF78EFCFFF7BBF9FFF74B
:101D00006BFEFFF742FA043F3E608D4EFFF7E7FBA4
:101D1000FFF7E6F9FFF782FE00BDC046501D000048
:101D2000200204626974400001CF36680640013E1B
:101D3000B641F643704700B5FEF76DFCFFF74CFE69
:101D4000043F3E607F4EFFF7CAFBFFF716FC00BD65
:101D5000901D0000200205686269732103CF32885C
:101D6000024332800E00704700B5FEF754FCFFF7C7
:101D700081F9FFF79AFEFFF708FA043F3E606E4EC6
:101D8000FFF7ADFBFFF7ACF9FFF7B3FE00BDC046B0
:101D9000D01D0000200205686269632103CF3288EC
:101DA000824332800E00704700B5FEF734FCFFF727
:101DB00061F9FFF77AFEFFF7E8F9043F3E605F4EF6
:101DC000FFF789FBFFF78CF9FFF793FE00BDC046D4
:101DD000101E000020020568786F722103CF328840
:101DE000424032800E00704700B5FEF714FCFFF74A
:101DF00041F9FFF75AFEFFF7C8F9043F3E60504E25
:101E0000FFF76DFBFFF76CF9FFF773FE00BDC046EF
:101E1000441E0000200205686269744001CF3688C4
:101E20000640013EB641F643704700B5FEF7F3FBAE
:101E3000FFF73BFE043F3E60424EFFF750FBFFF7CB
:101E40009CFB00BD841E00002002056362697321B3
:101E500003CF3278024332700E00704700B5FEF7B0
:101E6000DAFBFFF707F9FFF78AFEFFF78EF9043F69
:101E70003E60314EFFF733FBFFF732F9FFF7A3FE69
:101E800000BDC046C41E00002002056362696321D4
:101E900003CF3278824332700E00704700B5FEF7F0
:101EA000BAFBFFF7E7F8FFF76AFEFFF76EF9043FAA
:101EB0003E60224EFFF70FFBFFF712F9FFF783FE9C
:101EC00000BDC046041F000020020563786F722128
:101ED00003CF3278424032700E00704700B5FEF7F3
:101EE0009AFBFFF7C7F8FFF74AFEFFF74EF9043FEA
:101EF0003E60134EFFF7F3FAFFF7F2F8FFF763FEC9
:101F000000BDC046481F000020020563626974409E
:101F100001CF36780640013EB641F643704700B522
:101F2000FEF779FBFFF72BFE043F3E60054EFFF7FF
:101F3000D6FAFFF722FB00BD0043000080430000FB
:101F400040400000004000008C1F00008100096636
:101F50006C6173682D6B687A043F3E604F4E70472A
:101F6000E02E000000F090FD1E466C617368206357
:101F7000616E6E6F74206265207772697474656E2D
:101F80002074776963650A0002F01CFD38200000A8
:101F90000000083136666C61736821003FB50F2080
:101FA000304015D000F070FD223136666C617368E8
:101FB00021206E656564732031362D616C69676E12
:101FC000656420616464726573730A0002F0FAFC50
:101FD00030680130C6D170680130C3D1B0680130BB
:101FE000C0D1F0680130BDD100F046F808CF04CF71
:101FF00002CF01CF803F803F01B438004024284DFC
:1020000020C0013CFCD101BCFF243440E4190FC4C2
:10201000FF25AE432348332101604660876080215D
:102020008031C1601D49096801611F491F4A9047FD
:102030008037803740CF3FBDB020000000000A65E8
:1020400072617365666C6173680072B600F014F8B3
:1020500000F015F800F018FD1A46696E697368659E
:10206000642065726173696E672E205265736574B2
:1020700020210A0002F044FD00B5322101E000B544
:10208000342108480160052141600721816003492E
:102090000968C1600449054A904700BDDC0F001083
:1020A000FFFFFFFF0C07001020070010F11FFF1FAC
:1020B000D0200000000009696E6974666C61736865
:1020C000534854490022027001300139FBD1704756
:1020D000B821000000000768666C6173682130B5A4
:1020E000320040CF500813D300F0CEFC1E68666C5F
:1020F00061736821206E65656473206576656E2066
:102100006164647265737365732E0A0002F05AFC91
:10211000414B9A4210D200F0B7FC1943616E6E6FCA
:102120007420777269746520696E746F20636F72B2
:102130006520210A02F046FC130935482021046875
:1021400024099C4226D014300139F8D1304820218E
:102150000468002C17D014300139F9D100F094FC38
:1021600021546F6F206D616E7920736361747465A3
:1021700072656420466C6173682077726974657358
:102180002E0A02F01FFC1B010360013941608160CF
:10219000C16001610F2111400431465240CF0168F6
:1021A000013101600F221140082903D100F01BF812
:1021B000FFF7F4FE30BDC0461C22000000000A6696
:1021C0006C757368666C6173680000B510482021F7
:1021D0000268002A03D000F006F8FFF7DFFE143093
:1021E0000139F5D100BD043F3E604668043F3E60C2
:1021F0008668043F3E60C668043F3E600669043F4F
:102200003E600F26F64302681640002202607047C7
:102210008C040010800200000050000048220000E2
:102220006202012B01CF3618704700B5FEF7F3F9B3
:10223000043F3E60D14E043F3E60D14E8168282964
:1022400012D1FEF74DFF0FE0B02200006202012D17
:1022500001CF861B704700B5FEF7DDF9043F3E60F5
:10226000C84E043F3E60C84EFEF714FA01682829A4
:102270000ED14168FF290BD840CFFEF71FFA0E435D
:10228000816809020E4301F024F9FEF7B2F800BD9F
:102290000437FEF7F5F989018268D2000E43164330
:1022A000FEF7A7F8FEF73AFA1E4301F012F900BD57
:1022B000DC220000610202312D00013E7047043F24
:1022C0003E60B24E00B5FEF79CF90168C9000E43AE
:1022D000FEF724FA1E4301F0FCF800BDF4220000D2
:1022E000610202312B0001367047043F3E60A84E68
:1022F000E8E7C0460C230000610202322D00023ED6
:102300007047043F3E60A34EDCE7C0462423000034
:10231000610202322B0002367047043F3E609E4E3F
:10232000D0E7C0463C23000061020563656C6C2B5E
:1023300004367047043F3E60984EC3E76C230000AC
:102340006102066E65676174650076427047043FFE
:102350003E60934E00B5FEF754F9FEF7C6F90168EA
:102360000E43C9000E4301F0B4F800BD8423000001
:102370006102036E6F74F6437047043F3E60894EFE
:10238000E8E7C0469C230000610203736872760888
:102390007047043F3E60844EDCE7C046AC2300003B
:1023A00061020373686C7600704706E0C423000086
:1023B000610202322A0076007047043F3E604026E8
:1023C000C8E7C046DC23000061020563656C6C73DE
:1023D000B6007047043F3E608026BBE7F423000050
:1023E000610202322F0076107047043F3E606F4E4C
:1023F000B0E7C0462C240000610203616273F0174D
:1024000036184640704700B5FEF7FBF8043F3E60C3
:10241000674E016809020E4301F05BF8043F3E601D
:10242000644E01F056F8FFF792FF00BD74240000DF
:10243000420005752F6D6F64310040CF002903D134
:10244000043F3E6000267047012200238E4206D9D9
:10245000003104D45200490001D48E42FAD88E4291
:1024600001D3761A134349085208F8D1043F3E605D
:102470001E007047E42400004200042F6D6F6400CA
:1024800000B5300040CF002E1CDA764200280CDA6E
:102490004042043F3E600600FFF7CEFF300040CFD1
:1024A0007642043F3E60060000BD043F3E600600E9
:1024B000FFF7C2FF300040CF40427642043F3E600B
:1024C000060000BD002807DA4042043F3E600600D7
:1024D000FFF7B2FF764200BD043F3E600600FFF703
:1024E000ABFF00BDF82400004200036D6F6400B52F
:1024F000FFF7C6FF40CF00BD0C2500004200012FB2
:1025000000B5FFF7BDFF043700BDC0462025000021
:102510006100046576656E00012030403618704712
:10252000382500008100046261736500043F3E604D
:10253000214E70470A00000050250000000006628E
:10254000696E617279001C48022101607047C046C3
:1025500068250000000007646563696D616C1648BA
:102560000A2101607047C046082600000000036889
:1025700065781148102101607047000000300000AC
:102580000018000000380000001A0000401E000083
:10259000401C0000801E0000801C0000001D000088
:1025A00040420000C043000040080000401000000E
:1025B0000028000000D50000D80F00107E487F4A98
:1025C0000168114301607E48C12101607D480160BE
:1025D00079487D4A0168114301607C48012101600E
:1025E0007B48802101607B48852101607A48042175
:1025F00001607A4800210160754803210160784834
:10260000072101607047C046242600008100096848
:102610006F6F6B2D656D6974043F3E60714E70473E
:102620001A27000040260000810008686F6F6B2D9C
:102630006B657900043F3E606B4E70474227000097
:102640006026000081000A686F6F6B2D656D6974EC
:102650003F00043F3E60654E704770270000C04653
:102660007C260000810009686F6F6B2D6B65793FD8
:10267000043F3E605E4E70479E2700009C2600008F
:1026800081000A686F6F6B2D706175736500043F80
:102690003E60584E7047AE4A0000C046B426000067
:1026A000000004656D6974000FB54E4800F029F80C
:1026B0000FBDC046C82600000000036B65790FB54A
:1026C000494800F01EF80FBDDC260000000005653B
:1026D0006D69743F454800688746C046F026000093
:1026E0000000046B65793F00414800688746C0469A
:1026F0000827000000000570617573653D4800689B
:10270000874600688746C0463027000000000B73EC
:10271000657269616C2D656D697400B500F028F80B
:10272000002E40CFFAD0F6B22B48066040CF00BD55
:102730005C27000000000A73657269616C2D6B658F
:10274000790000B500F02BF8002E40CFFAD0043FFE
:102750003E60214E3668F6B200BDC0468C270000B0
:1027600000000C73657269616C2D656D69743F00C2
:1027700000B5FFF7C3FF043F3E6000261E4820223D
:102780000168114000D0F64300BDC046FC270000A0
:1027900000000B73657269616C2D6B65793F00B544
:1027A000FFF7ACFF043F3E6000261348012201689A
:1027B000114000D0F64300BD80800440400001007D
:1027C000A4400440A8400440001000009880044049
:1027D0000C800040288000400080004004800040C1
:1027E00008800040D40F0010D00F0010CC0F001054
:1027F000C80F0010C40F00101480004020280000F3
:102800000000076365787065637400B5386801B4CB
:102810000130386000F00BF801BC067040CF00BDFD
:10282000982800000000066163636570740000B5BD
:1028300002CF01390022FFF742FF300040CF7F284E
:1028400009D0202819D2092816D00A281FD00D280F
:102850001DD00828EFD1002AEDD000F015F90308AB
:102860002008002AE7D0885C013A80230340E2D0A8
:1028700040230340F5D0DEE72020B242DBD2043F04
:102880003E600600FFF710FF01328854D3E71600C0
:1028900000F0A8F800BDC046AC280000400003745A
:1028A0006962043F3E602B4E7047C046C42800005A
:1028B0008100033E696E043F3E60274E7047000072
:1028C0000000C046EC28000082000E63757272653D
:1028D0006E742D736F7572636500043F3E601F4E0A
:1028E000704700000000C4000010C0460829000026
:1028F000000009736574736F75726365174802CFC2
:102900000660416040CF7047282900000000067330
:102910006F7572636500043F3E60104E043F70683F
:10292000386036687047C0466029000000000571B5
:10293000756572790FB5084800210160FFF7B1FF96
:10294000043F3E60043F3E60C826FFF770FFFFF77C
:10295000D5FF0FBDC4000010C00F0010B80F00104D
:10296000B0290000000007636F6D706172650FB5DC
:10297000310040CF01CF884202D040CF00260FBDAA
:1029800002CF002810D001380A5C335C412A02D300
:102990005B2A00D22032412B02D35B2B00D22033A2
:1029A0009A42EED000260FBD0026F6430FBDC0466A
:1029B000C429000000000263720000B500F064F852
:1029C000010A00BDD8290000000002626C00043F2B
:1029D0003E6020267047C046EC29000000000573C9
:1029E00070616365043F3E6020265DE60C2A0000AE
:1029F0000000067370616365730000B5002E03DD8F
:102A0000FFF7F0FF013EFBD140CF00BD1C2A0000C4
:102A10005000065B636861725D0005E0342A0000C7
:102A2000000004636861720000B501F053FC40CF00
:102A3000367800BD442A000050040128043F3E605F
:102A4000292606E0602A00005004015C043F3E6035
:102A5000002600B501F048FC043740CF00BDC04659
:102A6000A82A00001000022E22009F4800B5043F53
:102A70003E60060000F0F8F9043F3E60222601F0B7
:102A800033FC00F066FD00BD0AB4043F3E607646AC
:102A9000013E33780121013319405B187146C91892
:102AA0008E460ABC3CE0C046D02A000010000263FB
:102AB00022008E48DAE7043F3E607646013E3378D6
:102AC0000121013319405B187146C9188E467047C1
:102AD000FC2A00001000027322008548C6E7043F6C
:102AE0003E607646043F3E60013E36780121731C0D
:102AF00019405B187146C9188E467047142B0000A8
:102B0000000005636F756E740136043F3E60013E40
:102B1000367870473C2B00000000056374797065BF
:102B200001B53078002807D00136043F3E60367882
:102B3000FFF7BAFD0138F7D140CF01BD6C2B000083
:102B40000000047479706500310040CF300040CF40
:102B500000B5002908D00022043F3E60865CFFF7E4
:102B6000A3FD01329142F7D100BDC046A82B000061
:102B70000000046865782E0007B5310040CF2020A2
:102B80000F220438043F3E600E00C6401640092E56
:102B900001D9373600E03036FFF786FD0028F0D146
:102BA000FFF720FF07BDC046B82B000000000368F8
:102BB0002E731FB54F4C0EE0C82B000000000375AC
:102BC0002E731FB54C4C06E0482C00000000022E6E
:102BD00073001FB5494C4A49C91B8908494A106806
:102BE00003B40A201060FFF74FFF08537461636B52
:102BF0003A205B00043F3E600E0001F053FDFFF7FA
:102C000043FF025D200003BC3E4A106000290AD049
:102C10003D4A106806B4043F3E600600A04706BC6B
:102C2000043A0139F5D1FFF72FFF0620544F533AEC
:102C30002000043F3E603600A047FFF725FF042038
:102C40002A3E0A001FBDC0460C2D0000000005777B
:102C50006F72647300B5FFF717FF010A00F0C1FE41
:102C6000FFF712FF09416464726573733A20043FF1
:102C70003E60FFF781FFFFF707FF064C696E6B3A76
:102C80002000043F3E603668FFF776FFFFF7FCFE4A
:102C900007466C6167733A20043F3E60B688FFF7D1
:102CA0006BFFFFF7F1FE06436F64653A2000B01D2D
:102CB00000F0D2FE043F3E600600FFF75DFFFFF725
:102CC000E3FE064E616D653A2000043F3E60063625
:102CD000FFF726FFFFF7D8FE010A00F09AFE30004A
:102CE00040CFBDD040CF00BD882A0000B62A0000EA
:102CF000DE2A0000792B000093460000A546000064
:102D00008C030010D80F0010880300105C2E000008
:102D100000001072656769737465726C697465721E
:102D2000616C2C003FB5B44B3868184098420FD105
:102D30003868C043386040B400F00DF8043F3E608E
:102D4000AE4E01BC0643C000064300F0C2FB3FBDCF
:102D500000F001F83FBD00B5350040CF2900C900A3
:102D600029432D02A6480543FF2300223000D0400E
:102D7000984301D00132F9E73000D0401840284391
:102D8000043F3E60060000F0A4FB9E480543180087
:102D90009040864310D000243000E040984301D09A
:102DA0000134F9E7101B043F3E600E00800106432A
:102DB00000F08FFB2200DFE7002A06D0043F3E60D0
:102DC0000E009201164300F084FB40CF00BD1FB5FA
:102DD000310040CF8C4C0C43C9000C4349013000FA
:102DE00040CF020EFF231A40854B0B431343043F91
:102DF0003E601E0000F06DFB043F3E60260000F0C8
:102E000068FB020CFF231A40804B0B431343043F23
:102E10003E601E0000F05DFB043F3E60260000F0B7
:102E200058FB020AFF231A40784B0B431343043F1D
:102E30003E601E0000F04DFB043F3E60260000F0A7
:102E400048FB0200FF231A40704B0B431343043F1F
:102E50003E601E0000F03DFB1FBDC046CC2E0000B2
:102E600000000563616C6C2C0FB5330000F098FE18
:102E7000300040CF1B1A043B6549194000290ED091
:102E8000644A91420BD00136043F3E600026FFF7B2
:102E900049FF043F3E60604E00F01BFB0FBD40CF7A
:102EA0005B085E485E4919400843DB0A5D491940EA
:102EB000090408439B0A0121194089060843043F7D
:102EC0003E60060000F035FB0FBDC046002F00003D
:102ED0000000086C69746572616C2C0000B5043FD9
:102EE0003E60514E00F0F5FA043F3E604F4E00F058
:102EF000F0FA043F3E600626FFF714FF00BDC0460F
:102F0000282F00000000066372656174650000B53B
:102F100000F047F82F20000247308047043F3E6012
:102F20007646013E00BDC046942F00002000056497
:102F30006F65733E2F20000247308047043F3E609C
:102F40007646013E7047043F3E607646013E384A71
:102F50001368384909683648834205D20F20084073
:102F60000E2805D00231F9E70220084000D10231D5
:102F7000023111600136043F3E600026FFF727FF53
:102F8000043F3E60244E00F0A4FA136000F0FDF907
:102F900000BDC0463C3000000000073C6275696C13
:102FA000647300B500F0A2FB21480168204A9142F9
:102FB0000CD200F0F5FD0F2006400E2E40CF10D0B1
:102FC000043F3E60362600F084FAF2E700F0E8FDA8
:102FD0000220064040CF04D1043F3E60362600F078
:102FE00078FA043F3E60144E00F073FA043F3E60EE
:102FF000102600F0E1FA00BD0000FFFFC043000012
:10300000002000000010000000020000003000005E
:103010000100C0FF0000C0FF8047000000F800F082
:10302000FF070000FF030000043F00003E600000B7
:10303000000000101400001000B50000483000002F
:103040005000035B275D03E06030000000000127B3
:1030500000B501F03FF900F03EFD300040CF00BD6B
:1030600098300000300008706F7374706F6E6500E8
:1030700000B5FFF7EDFF043F3E60060039683E6093
:103080000E46FFF72BFFFFF729FF043F3E60E54E9A
:10309000FFF7EAFE00BDC046E4300000000007690B
:1030A0006E6C696E652C00B5DF49E04AE04B3088F4
:1030B000884208D0904208D0984206D0043F3E6033
:1030C000060000F006FA0236F1E740CF00BD0EB46C
:1030D000D64AD74B01880230914201D09942F9D1AA
:1030E0000EBC7047F83000000000047265742C00BC
:1030F000043F3E60CD4EECE1083100003000046535
:1031000078697400F4E7C04620310000300007728F
:10311000656375727365043F3E60C64E3668A3E60C
:10312000383100008100057374617465043F3E60AE
:10313000C14E7047000000004C3100000000015DEE
:10314000BD480021C94301607047C0465C310000A2
:103150001000015BB8480021016070477C3100001D
:103160000000013A00B5B548076000F0BFFAB24868
:1031700001210160B2480021016000BDE83100007A
:103180003008013B00B5AD480168B9420ED0FFF7E9
:103190007BFC1520537461636B206E6F7420626139
:1031A0006C616E6365642E0A01F00CFCA248006835
:1031B000411C0ED00B2804D8043F3E60A14E00F005
:1031C00017F9043F3E609A4E00F083F901F007FBC7
:1031D00004E0043F3E60954E00F07BF900F0D5F826
:1031E00095480021016000BDFC310000000007652A
:1031F000786563757465300040CF874614320000EF
:10320000100009696D6D656469617465043F3E6015
:103210001026EDE02C320000500006696E6C696EDD
:103220006500043F3E602026E2E0C04648320000D0
:1032300010000B636F6D70696C656F6E6C79043F85
:103240003E603026D4E0C0466432000050000A30B0
:103250002D666F6C6461626C6500043F3E604026C1
:10326000C6E0C0468032000050000A312D666F6C07
:103270006461626C6500043F3E604126B8E0C04670
:103280009C32000050000A322D666F6C6461626CE3
:103290006500043F3E604226AAE0C046B832000006
:1032A00050000A332D666F6C6461626C6500043FE8
:1032B0003E6043269CE0C046D432000050000A34F1
:1032C0002D666F6C6461626C6500043F3E6044264D
:1032D0008EE0C046F032000050000A352D666F6C5B
:1032E0006461626C6500043F3E60452680E0C04634
:1032F0000C33000050000A362D666F6C6461626CFE
:103300006500043F3E60462672E0C0462833000058
:1033100050000A372D666F6C6461626C6500043F73
:103320003E60472664E0C046583300000000086352
:103330006F6E7374616E740000B500F0D7F9FFF71B
:10334000CDFD043F3E603A4E00F0C3F8FFF785FF25
:1033500000F01BF800BDC0467C33000000000932BD
:10336000636F6E7374616E7400B500F0BFF93968F5
:103370003E600E46FFF7B2FDE1E7C046E0330000D5
:10338000000006736D756467650000B52E4801681E
:103390002D4A91421ED202390A882C4B9A4204D1FE
:1033A000043F3E602A4E00F094F800F06BF800F005
:1033B0007DF828480068043F3E60060026490968F9
:1033C0000431214A1368116000F083F81360FEF79E
:1033D000FCFE00BD00F056F8043F3E60002608E009
:1033E0005C340000000008736574666C61677300EC
:1033F00000B515480168144A914205D21548016884
:103400003143016040CF00BD320040CF1248006818
:10341000043001880D4B994201D1110000E01143A5
:10342000018000BDE246000000B5000000BD0000C4
:103430007047000014000010B40F001010000010BE
:103440005C0000102008000000000010FFFF0000DA
:10345000000000002000001004000010783400007C
:10346000410007616C69676E656401203040361861
:1034700002203040361870479C340000000005617F
:103480006C69676E00B58E4801680220014004D067
:10349000043F3E60002600F01CF800BDC834000068
:1034A000000008616C69676E31362C0000B58448F5
:1034B00001680F20014005D0043F3E60002600F067
:1034C00008F8F4E700BDC0460C35000000000268B3
:1034D0002C000FB5B6B27B480168002902D001313B
:1034E00000D0016076480168754A914205D2043FD8
:1034F0003E600E00FEF7F3FD02E0320040CF0A808E
:10350000043F3E60022600F057F80FBD283500004A
:103510000000012C00B5043F3E60FFF7DAFF360CD7
:10352000FFF7D7FF00BDC046443500000000033E52
:103530003C2C00B5043F3E60360CFFF7CAFFFFF796
:10354000C8FF00BDAC350000000007737472696EDF
:10355000672C07B5FF21314040CF300040CF002914
:1035600005D1043F3E600026FFF7B3FF07BD043FCF
:103570003E60067836020E43FFF7ABFF013001399B
:1035800002290AD3043F3E60467836020278164389
:10359000FFF79FFF02300239F2E7002900D107BD93
:1035A000043F3E600678FFF794FF07BD0836000031
:1035B000000005616C6C6F7441480168404A91429B
:1035C0000FD2320040CF89183F4A914219D3FFF7FA
:1035D0005BFA0B466C6173682066756C6C0A01F0CF
:1035E000F1F9320040CF8918384A1268914208D365
:1035F000FFF74AFA0952616D2066756C6C0A01F09A
:10360000E1F901607047C0463036000000000D63EC
:103610006F6D70696C65746F72616D3F043F3E60E1
:103620000026274800682649884248D3F643704759
:103630005036000000000C636F6D70696C65746F2C
:1036400072616D001E4800681D49884211D37047A1
:10365000DC36000000000E636F6D70696C65746F7E
:10366000666C61736800164800681549884200D28C
:1036700070471748174902680B680A6003601048D2
:10368000154902680B680A600360104800688342AD
:1036900015D300B5FFF7F8F923205661726961620E
:1036A0006C657320636F6C6C6964652077697468FE
:1036B0002064696374696F6E6172790A00BD704736
:1036C00000000010B40F0010008000002400001063
:1036D000040000101C00001018000010D837000073
:1036E00000000828637265617465290000B500F068
:1036F000F1FD002E0ED1FFF7C7F915204372656169
:103700007465206E65656473206E616D6520210AA5
:1037100001F058F93868043F3E60043F386000F01B
:10372000ABF940CF002E40CF11D03868043F3E6047
:10373000043F3860FFF7A8F9095265646566696E51
:103740006520FFF701FAFFF79FF9022E0A00FFF745
:1037500099FE924800689149884225D290480021FC
:103760000160FFF7A3FE043F3E600C26FFF724FF35
:1037700000F016FA043F3E600626FFF71DFFFDF736
:103780001BFDFFF7E6FE874801680A68864B9A42F0
:1037900007D1824A13681160043F3E60FFF7BAFE0A
:1037A0001360066040CF12E000F0FAF97D48043F54
:1037B0003E600668FFF7AEFE043F3E607B4EFFF7BB
:1037C00088FE7848310040CF0160FFF7C2FE7348A1
:1037D00001687748016000BDF037000000000876FE
:1037E00061726961626C6500043F3E60012613E00E
:1037F00008380000000009327661726961626C6508
:10380000043F3E60022607E0E03800000000096E39
:103810007661726961626C6500B5FFF767FF5F48AA
:1038200001685E4A914233D20F200640B2006148DF
:103830000168891A604A91420BD2FFF725F90F4EB1
:103840006F7420656E6F7567682052414D0A01F0F4
:10385000B9F80160043F3E600E00FFF73FFB043FF4
:103860003E60564EFFF735FE300040CF0200002884
:1038700005D00E600431FFF74DFE0138F9D1043F49
:103880003E6080261643FFF7B3FDFFF77EFD00BDC7
:1038900000F086F90220064040CF04D1043F3E608C
:1038A0003626FFF716FE043F3E60454EFFF741FE09
:1038B000043F3E60434EFFF73CFE043F3E603F4EF8
:1038C000FFF707FE300040CF002803D0FFF722FEAD
:1038D0000138FBD1FFF7C1FCFFF757FD00BDC04623
:1038E000CC3900000000076275666665723A00B563
:1038F000FFF7FCFE01203040361802203040361819
:1039000026480168254A914226D22A480168891B27
:10391000294A91420BD2FFF7B7F80F4E6F7420651A
:103920006E6F7567682052414D0A01F04BF80160D7
:10393000043F3E600E00FFF7D1FA043F3E601F4E89
:10394000FFF7C7FDFFF7E6FD043F3E601E4EFFF7A1
:103950004FFDFFF71AFD00BD00F022F902200640DE
:1039600040CF04D1043F3E603626FFF7B2FD043F4E
:103970003E60134EFFF7DDFD043F3E60114EFFF742
:10398000D8FD043F3E600D4EFFF7A3FDFFF714FE88
:10399000FFF763FCFFF7F9FC00BD0000000000101A
:1039A0002000001004000010FFFFFFFFFFFF0000D9
:1039B00014000010240000103007001070470000B1
:1039C0003E60043F02367E4640010000FC390000A4
:1039D00000000F64696374696F6E6172797374615A
:1039E0007274424800684149043F3E60884201D2F7
:1039F0003F4E70473F4E36687047C046383A000029
:103A000000000E64696374696F6E6172796E657827
:103A1000740003B531683848814207D08879FF289F
:103A200004D00E00043F3E60002603BD043F3E600C
:103A30000026F64303BDC0466C3A000000000A733E
:103A40006B6970737472696E67003178013101229D
:103A50000A4089187618704706B4017801310122AE
:103A60000A408918401806BC7047C046003B000059
:103A700000000466696E64003FB500220023350033
:103A800040CF340040CFFFF7ACFF1C48B1888842DC
:103A900017D0043F3E600636FFF736F8043F3E601D
:103AA0002600043F3E602E00FEF761FF002E40CF4F
:103AB00007D0B01DFFF7D0FF02000B000B48824279
:103AC00004D2FFF7A6FF300040CFDED01600043F3F
:103AD0003E601E003FBD00B531003868FFF7CCFFE7
:103AE0003A68002A01D100F021FF00BD000000105B
:103AF0000003000004000010FFFFFFFFFFFF0000B5
:103B00005C3B0000000006636A756D702C0032009B
:103B100040CF310040CF8B1B043BE54919400029C1
:103B20000DD0E44881420AD0FEF7AEFF0D4A756D14
:103B30007020746F6F206661720A00F043FF5B10A3
:103B4000FF210B40134330001E0000B5DA4A136812
:103B50001060FFF7BEFC136000BDC046943B000040
:103B60000000056A756D702C310040CF300040CFE9
:103B70000B1A043BD1491940002902D0D04A914286
:103B8000D2D15B10CF4A1340CF4A1343043F3E606B
:103B90001E00DAE7AC3B00000000046865726500B7
:103BA000043F3E60C44E36687047C046D43C0000B7
:103BB00000000D666C6173687661722D68657265D0
:103BC000043F3E60C14E3668704700B5043F3E601A
:103BD000BF4EFFF77EFC043F3E60BE4EFFF779FC10
:103BE00000BDDDE700B500F037F839683E600E46ED
:103BF000043F3E60B84EFFF78AFF00BD00B500F0FD
:103C00002BF839683E600E46043F3E60B34EFFF726
:103C10007EFF00BD00B5FFF7D8FF00F01DF8396842
:103C20003E600E46043F3E60AD4EFFF770FF00BDA4
:103C300000B500F011F839683E600E46FFF794FFBA
:103C400000BD00B5FFF7C1FFFFF7AAFF043F3E60CC
:103C50000226FFF7B1FC00BD00B5FFF7A1FF043F4E
:103C60003E600226FFF7A8FC00BD00B5FFF798FFF5
:103C7000FFF77AFF00BD00B5FFF792FF043F3E60FB
:103C8000974EFFF744FF00BD00B5FFF789FF043FE3
:103C90003E60914EFFF73BFF00BD00B5FCF7B1FC65
:103CA000FCF7E2FBFCF7E5FBFCF7E8FB8168282961
:103CB00001D1FCF7EFFCFCF7E3FC043F3E60894ECA
:103CC00009020E43FFF705FCFCF793FBFCF7C0FB72
:103CD00000BDC046443D000030060269660000B5E4
:103CE000FFF7AFFF043F3E607D4E043F3E6002267B
:103CF00000BD00B5FCF71BFDFDF7B0FD816A002992
:103D000010D002B4FCF7A4FBFFF74AFF043F3E606B
:103D10000226FFF751FC043F3E6040BC043F3E607A
:103D2000022600BDFFF7B9FFFFF73AFF043F3E60F0
:103D30000226FFF741FC043F3E60694E043F3E60AF
:103D4000022600BD783D0000300004656C736500FC
:103D500000B5022E26D140CFFFF77EFFFDF72CFAEB
:103D6000FFF71EFF39683E600E46FFF7D0FE043FA6
:103D70003E60052600BDC046C43D0000300004740E
:103D800068656E00052E01D140CF6EE7022E09D185
:103D900040CF00B5FFF704FF39683E600E46FFF7DD
:103DA000B6FE00BDFEF770FE17537472756374752E
:103DB00072657320646F6E2774206D617463680A86
:103DC00000F000FEF43D0000300006726570656191
:103DD0007400042EE6D140CF00B5FDF7D0F9FFF70F
:103DE00027FFFFF7DDFE39683E600E46FFF78FFEC6
:103DF00000BDC046203E00003006057768696C654E
:103E0000012ECFD140CF00B5FFF769FF023600BDCC
:103E1000012EC7D140CF00B5FFF76BFF023600BDC2
:103E2000803E0000300605756E74696C012EB9D1B4
:103E300040CFEFE67047012EB4D140CF00B5FDF77B
:103E40000DFD816A00290DD002B4FCF701FBFFF7DC
:103E500003FF39683E600E46043F3E6040BCFFF7FA
:103E600056FE00BDFFF719FFFFF7F6FE39683E600A
:103E70000E46043F3E601A4EFFF749FE00BDC046A5
:103E8000943E0000300005616761696E012E89D1A2
:103E900040CFCDE6E83E0000300005626567696E00
:103EA00000B5FFF79EFE043F3E60012600BD000006
:103EB00001FFFFFF00FFFFFF0000001001F8FFFF00
:103EC00000F8FFFFFF07000000E0000024000010E2
:103ED000002E000040CF000000D1000000D70000FD
:103EE00000D0000000280000003F00002002016B0D
:103EF000043F3E60029E7047043F3E608E4E0AE0E3
:103F00002C3F00002002016A043F3E60009E704783
:103F1000043F3E60894E00B5FCF761FAFCF73EFBBA
:103F200003601B021E43FFF7D4FA00BD583F000098
:103F300020020169043F3E602600704700B5043F3F
:103F40003E607F4EFCF74BFAFCF728FB03601E43F4
:103F5000FFF7BFFA00BDC046983F00003000056C77
:103F60006561766500B5774801683B00043F1A68D3
:103F7000043B1A6008338B42F9D103B4FFF76CFE9F
:103F800003BC330040CF04390B60016004390A6878
:103F900001320A6000BDC046AC3F0000200006753B
:103FA0006E6C6F6F700030BC7047C046E43F00001D
:103FB0003000052B6C6F6F70032E00D0F2E640CFFF
:103FC00000B5043F3E60604EFFF76DF8FFF716FE48
:103FD0001AE0802000060019A419401B801940CF68
:103FE0007047C046284000003000046C6F6F7000BE
:103FF000032E00D0D6E640CF00B5043F3E60534EBE
:10400000FFF751F8FFF7EEFD00F04AF94D48310097
:1040100040CF0160043F3E604D4EFFF744F800BDC5
:104020000134AC427047C046704000003002026468
:104030006F0000B5043F3E60464EFFF734F841483C
:104040000168043F3E600E00043F3E6000260760AA
:10405000FFF7C7FD043F3E60032600BD00B500F03A
:104060002EF8ECE730B4340040CF350040CF704735
:10407000684100003002033F646F00B5043F3E60BA
:10408000344EFFF710F8043F3E60334EFFF721FA3D
:104090002C480168043F3E600E00FFF7DDFD01364D
:1040A000043F3E60012627480760FFF79AFD043F62
:1040B0003E60032600BD00B500F001F8E3E700B55F
:1040C000FCF735FBFCF7A7FAFCF7CEF9FCF7D1F9C2
:1040D000FCF7D4F9043F3E60204EFFF7FAF901687F
:1040E000282907D0043F3E601D4EC9000E43FFF74C
:1040F000F0F907E0043F3E604668043F3E60042656
:10410000FEF710FE8168282907D0043F3E60154E57
:10411000C9000E43FFF7DDF907E0043F3E60C668C3
:10412000043F3E600526FEF7FDFDFCF762F9FCF753
:1041300060F9FCF7ADF900BD02980000009800009E
:10414000200000000C000010D23F000020400000C2
:10415000A63F000064400000AC42000030B4000004
:1041600004000000050000008841000030000463E6
:104170006173650000B5FCF7DAFA043F3E60002683
:10418000043F3E60082600BDA04100003000033F10
:104190006F6668480AE0013EB64140CF7047C046AE
:1041A000404200003002026F66006348082E00D0D3
:1041B000F8E540CF00B5043F3E600600FEF773FF10
:1041C000FFF74AFD39683E600E460136043F3E6007
:1041D0000926043F3E60594EFFF77BF900BD082ECB
:1041E00000D0DFE540CF00B5FCF715FAFCF73CF94D
:1041F000FCF73FF9FCF742F9043F3E60504EFCF7F4
:1042000049FA0E430268282A0DD14268FF2A07D8CE
:1042100040CF043F3E604B4E164309020E4304E07C
:10422000FCF72EFA0A00D2001643FFF752F9FCF70A
:10423000E0F8FCF72DF9C3E7300040CFB0427047FB
:1042400078420000300005656E646F66092E00D06C
:10425000A8E540CF00B540B440CFFFF7FDFC39687A
:104260003E600E46FFF710FD043F3E6040BC043F39
:104270003E60082600BDC046C84200003000076509
:104280006E6463617365082E00D08BE540CF00B586
:10429000043F3E60294EFFF71CF900F001F800BD15
:1042A00000B5300040CF00280DD003B401213140CB
:1042B000002903D0013EFFF7DEFC01E0FFF7D5FC4B
:1042C00003BC0138EFE700BDDC42000000000574CC
:1042D0006F6B656E043F3E60202605E04C43000096
:1042E000000005706172736510B5FEF714FB3100B4
:1042F00040CF300040CF144A12688418202E07D1D6
:1043000091420FD0835CB34202D101328418F7E7A7
:10431000914207D0835C0132B342F9D18618361B33
:10432000013E01E08618361B043F3C6006480260EF
:1043300010BD0000964100003842000040CF000050
:104340008042000000280000C00F00108C430000D5
:104350000000056469676974D44B1B68303E0BD359
:104360000A2E0BD3073E0A2E06D3242E06D3203E58
:104370000A2E01D3242E01D3002670479E42FBD281
:10438000043F3E600026F6437047C0469844000054
:104390000000066E756D626572003FB5310040CF5A
:1043A000701E0126012204B4C04B1B6800240025A6
:1043B00000293CD00130013902782D2A04D101B006
:1043C0000022D24304B4F3E7232A01D10A23EFE702
:1043D000242A01D11023EBE7252A01D10223E7E7A4
:1043E0002E2A01D10226E3E72C2A36D0043F3E6074
:1043F0001600FFF7B3FF002E40CF2BD0043F3E60E6
:104400002600043F3E602E00043F3E601E00043F35
:104410003E6000260FB4FCF794FB0FBC350040CF84
:10442000340040CF0022A419554140CFC0E704BC5E
:10443000002A04D50022E443ED4301345541330002
:104440002600012B02D0043F3E602E00043F3E6058
:104450001E003FBD01B000263FBD250000240226FE
:104460000029E4D0425C01392E2AF9D0043F3E6095
:104470001600FFF773FF002E40CFEBD0043F3C60E7
:10448000043F3E601E000FB4FCF70FFC0FBC34006D
:1044900040CF40CFE4E7C046BC4400000000062EF9
:1044A0006469676974000A2E01D230367047242E81
:1044B00001D23736704723267047C046F4440000C7
:1044C000000004686F6C6400330040CF78480178C6
:1044D0003F290DD2013101704018012907D0013860
:1044E000027801300270013801390129F7D10370D7
:1044F0007047C04614450000000005686F6C643CBE
:10450000330040CF6A4801783F2902D2013101705F
:10451000435470472C4500000000047369676E0027
:10452000002E01D440CF70472D26CDE74045000036
:10453000000002233E005E48067801303860704774
:104540005845000000000366235310B5202400F0F6
:1045500008F8013CFBD110BD7C450000000002665C
:10456000230000B5043F3E60504E3668FCF7BBFAAE
:10457000FFF799FFFFF7C4FF00BDC0469845000054
:1045800000000223530000B500F00AF8002EFBD112
:1045900038680028F8D100BDC445000000000123A0
:1045A00000B5043F3E60414E3668043F3E60002641
:1045B000FCF79BFBFCF7F6F840CFFFF774FFFFF723
:1045C00083FF00BDD84500000000023C23003848AE
:1045D000002101707047C046EC45000000000266F3
:1045E0002E00043F3E60202605E0C0463C46000009
:1045F000000003662E6E00B510B4340040CFFCF707
:10460000ABFDFCF7EFF9043F3E600026FFF7DFFF4C
:10461000FFF7B9FF40CF2C26FFF772FF002C03D025
:10462000FFF79FFF013CFBD110BC40CFFFF778FFA5
:10463000043F3E60043F3E601EE0C046544600001A
:1046400000000375642E00B5FFF7C1FFFFF79BFF65
:1046500012E0C04688460000000002642E0000B54B
:10466000FCF77AFDFCF7BEF9FFF7B1FFFFF78BFF10
:10467000FCF785FDFFF754FFFFF75DFFFEF764FAD7
:10468000FEF7B0F900BDC0469C4600000000027570
:104690002E00043F3E600026D5E7C0465848000083
:1046A0000000012E043F3E60F617D8E7D80F001037
:1046B0008400001030B5D44C2568002D01D13D0098
:1046C000256030BD30B5D04C3D00256030BD30B5E3
:1046D000CD4C0025256030BDCB4B1B68DB1B9B08F8
:1046E000704700B5310040CFC848084002D000F004
:1046F0009BF800BDC648084001D1FDF76DF83200B7
:1047000040CFFFF7D7FFC348084003D0043F3E60C7
:10471000160000BDFFF7E0FF8020084006D14020D2
:10472000084009D00F200840834205D3043F3E6073
:104730001600FEF760FD00BDB748084014D0FBF737
:10474000F2FD043F3E601600043F3E600E0000F0A4
:1047500030F81000FEF7BBFC421CB0489047FFF752
:10476000B1FFFBF7EFFD00BDFBF7DDFD043F3E6051
:104770001600043F3E600E0000F01BF8FBF768FED9
:10478000FFF7A5FFA648084001D1FBF7D0FF043F83
:104790003E60160010220A4002D0FEF72CFD00BD3C
:1047A00020220A4002D0FEF77EFC00BDFEF75CFB33
:1047B00000BD0FB5320040CF330040CF99480168AB
:1047C000062907D2062041439748401803801B0C56
:1047D0004380828093480168013101600FBD0FB5AD
:1047E0009048016806291ED88F48013916D0043F29
:1047F0003E600E00FEF76DFE043F3E600688FEF749
:1048000068FE043F3E604688FEF763FE043F3E605C
:104810008688FEF75EFE06300139EDD1043F3E602A
:104820007A4EFEF7E5FD0FBD00B5300040CFFEF734
:104830004EFC01880230043F3E6006884288120424
:104840001643043F3E60868803B4FFF74AFF03BC6B
:1048500006300139EFD100BDA04800000000086516
:1048600076616C756174650000B5FEF754F801CF90
:1048700001B440B440CF6D48016802B4002101602A
:10488000FEF73CF800F014F8684802BC0160043FF1
:104890003E6040BC01BC043F3860FEF72FF800BD0D
:1048A0009C490000000009696E746572707265743D
:1048B00000B55F4887420BD9FEF7E6F810537461E4
:1048C000636B20756E646572666C6F770A0079E0C1
:1048D000584887420AD2FEF7D7F80F537461636BCA
:1048E000206F766572666C6F770A6BE0FFF7E2FE09
:1048F000FFF7F0FC002E02D1043740CF00BD38682E
:10490000043F3E60043F3860FFF7B6F8310040CF07
:10491000320040CF002A15D138683100FCF75CFF27
:10492000FFF73BFD320040CF002AC2D1FEF710F95D
:10493000FEF7AAF80C206E6F7420666F756E642EF9
:104940000A003FE03C4B1B68002B1CD1FFF7BFFE69
:1049500030230B40302B0ED1FEF7F6F8FEF794F81B
:104960001220697320636F6D70696C652D6F6E6CBA
:10497000792E0A0026E0043740CF043F3E6016003F
:10498000FEF739FC95E7043740CF043F3E60160040
:10499000043F3E600E00FFF7A4FE8AE7B84900001E
:1049A000810009686F6F6B2D71756974043F3E60FB
:1049B000224E7047F4490000504A00000000047184
:1049C000756974001E488546194FFDF779FB1D482F
:1049D0000A2101601848002101600B480160FBF7C3
:1049E0007CFD124801601848016018494160134875
:1049F00000688746FDF79EFFFFF75AFFFEF744F871
:104A000005206F6B2E0AF5E708000010001000006B
:104A10000004000000200000000200002800001038
:104A2000000800005C00001060000010C00F0010C3
:104A30008C0300108C010010B40F0010B00F001098
:104A40008C040010D80F0010B80F0010C400001024
:104A50006C4A000000000565696E743F043F3E60CB
:104A6000EFF31086013EB6417047C0467C4A000015
:104A700020000465696E740062B670478C4A0000BD
:104A800020000464696E740072B67047A44A000086
:104A90002000046970737200043F3E60EFF30586E6
:104AA0007047C046B04A00000000036E6F70704748
:104AB000F44A0000000009756E68616E646C6564FC
:104AC00000B5FDF7E1FF14556E68616E646C6564B6
:104AD00020496E746572727570742000043F3E60E8
:104AE000EFF30586FEF748F8FDF7CEFF02210A0036
:104AF00000BDC046084B0000000005726573657478
:104B0000884889490160C0462C4B000081000B6930
:104B100072712D7379737469636B043F3E60834EC9
:104B20007047C04A0000814800688746504B00002B
:104B30008100096972712D6661756C74043F3E6075
:104B40007B4E7047C04A0000794800688746C046DF
:104B5000784B000081000E6972712D636F6C6C657B
:104B60006374696F6E00043F3E60724E7047C04AC6
:104B70000000704800688746984B00008100076974
:104B800072712D616463043F3E606B4E7047C04A92
:104B90000000694800688746B84B0000810007693B
:104BA00072712D693263043F3E60644E7047C04AA3
:104BB0000000624800688746DC4B000081000869FD
:104BC00072712D7561727400043F3E605C4E7047D7
:104BD000C04A00005A4800688746C0460C50000092
:104BE000FFFF182D2D2D20466C61736820446963EA
:104BF00074696F6E617279202D2D2D00FDF7DEFC3A
:104C000050488546504F2A26504851490160514826
:104C100051490160043F3E604F4E504DB188504BAA
:104C2000994224D04F4B0B400AD0B01DFEF714FF21
:104C3000FEF74DFA0388408800040343ED1A16E09E
:104C400080230B4013D00F23194089006D1AB01D2B
:104C5000FEF702FFFEF73BFA043F3E600600043F0A
:104C60003E602E00043F3E600E00FCF783FEFEF720
:104C7000D0FE300040CFD1D03B48066040CF3B480B
:104C800005603B483B49364A884204D002380388D5
:104C90009342F9D0023038490860FDF711FAFDF768
:104CA000F3FE544D6563726973702D5374656C6CBB
:104CB0006172697320524120312E3320657870650E
:104CC00072696D656E74616C2077697468204D300F
:104CD00020636F726520666F72204C504331313112
:104CE00034464E3238206279204D617474686961AF
:104CF00073204B6F63680A00204800210160043F65
:104D00003E601F4E043F3E600426FEF7B5FE40CFD6
:104D1000002E02D0FEF76FFA69E640CF52E6696EC8
:104D2000697400000CED00E00400FA05AC0F0010FF
:104D3000A80F0010A40F0010A00F00109C0F00106F
:104D4000980F00108C0400108C030010000000105D
:104D5000300700100400001000030000E00F0010F6
:104D6000FFFF0000000100001C00001024000010E4
:104D70000080000000500000180000100800001023
:044D80001E4D0000C4
:00000001FF
