:1000000064040010E949000035490000354900004A
:1000100000000000000000000000000000000000E0
:100020000000000000000000000000005F49000028
:1000300000000000000000005F49000013490000BC
:100040005F4900005F4900005F4900005F49000010
:100050005F4900005F4900005F4900005F49000000
:100060005F4900005F4900005F4900005F490000F0
:100070005F4900005F4900005F4900009F490000A0
:100080005F4900005F4900005F4900005F490000D0
:100090005F490000C14900005F4900005F4900005E
:1000A0007F4900005F4900005F4900005F49000090
:1000B0005F4900005F4900005F4900005F490000A0
:1000C000FFFFFFFFFFFFFFFFFFFFFFFFFFFFFFFF40
:1000D000FFFFFFFFFFFFFFFFFFFFFFFFFFFFFFFF30
:1000E000FFFFFFFFFFFFFFFFFFFFFFFFFFFFFFFF20
:1003000038070000FFFF1E2D2D2D204D65637269FB
:1003100073702D5374656C6C6172697320436F72D6
:1003200065202D2D2D0007B59348002B09D000F036
:100330002FF800F035F800F01FF842602821016026
:10034000F3E707BD00B58C4800230168282905D1D3
:10035000426800F004F800F040F8F6E700BD03B58D
:10036000043F3E601600043F3E601E0008B400F0EB
:100370002DFF08BC013303BD03B5013B043F3E60C4
:100380001E0008B400F00CFF08BC320040CF03BDD3
:1003900003B57A4801681E2901D000F034F803BD86
:1003A000816901620169816181680161016881601F
:1003B000C16941624169C161C16841614168C1600F
:1003C0001E21016070470FB56B4801681E2903D0DC
:1003D000FFF7DEFFFFF7E4FF0FBD02B581680160A4
:1003E000C168416000E002B5016981604169C16096
:1003F00081690161C1694161016A8161416AC161CB
:100400001E21016202BD08B501681E220260082992
:1004100001D20B0004E028290DD1436800F05DF8FB
:10042000043F3E60564E02F0CCFF043F3E60554E06
:100430001E4302F0C6FF08BD00B500F009F800F049
:100440000CF800F00FF800F012F800F015F800BDFD
:100450000FB54A48FFF7D7FF0FBD0FB54A48FFF762
:10046000D2FF0FBD0FB54948FFF7CDFF0FBD0FB548
:100470004748FFF7C8FF0FBD0FB53F480168062288
:1004800002601E2905D1043F3E60424E02F099FFF2
:1004900014E0282909D14368043F3E601E00043F50
:1004A0003E60062602F0BEFB08E0062906D0043FA7
:1004B0003E60394EC9000E4302F083FF00F001F8A0
:1004C0000FBD2D481E210162816101618160C16201
:1004D0000621016000218162704707B5043F3E603C
:1004E0001E0000F05BF8043F3E601E0002F09AFB25
:1004F00007BD07B5C16A282904D1016B994201D112
:10050000002307BD0168002918D08168002915D093
:100510000169002912D0816900290FD0016A0029E0
:100520000CD00363043F3E601E00043F3E60002683
:1005300002F078FB2821C162002307BD043F3E6022
:100540001E0000F02BF8043F3E601E0002F06AFB24
:1005500007BD06B51B18196828290CD15A68043F35
:100560003E601600190000F019F80B60043F3E6071
:100570001E0002F057FB06BD2800001048000010C6
:10058000043F0000386000004000001038000010F8
:100590003000001040CF00000646000037B5354857
:1005A0000168826803698469056A062000F00DF815
:1005B000032000F00AF8022000F007F8012000F004
:1005C00004F800231E21C16237BD814209D0824256
:1005D00007D0834205D0844203D0854201D0030076
:1005E00037BD7047043F3E60234E00B581581E2939
:1005F00005D1FFF7D3FF8350012199400E4300BD81
:1006000000B501681E2904D10022FFF7EBFF02F0BC
:10061000D8FE00BD00B581681E2907D10822FFF76A
:10062000E1FF0022FFF7E1FF02F0CBFE00BD00B5C5
:1006300001691E290AD11022FFF7D4FF0822FFF713
:10064000D4FF0022FFF7D1FF02F0BBFE00BD00B5D2
:1006500081691E290DD11822FFF7C4FF1022FFF770
:10066000C4FF0822FFF7C1FF0022FFF7BEFF02F020
:10067000A8FE00BD2800001000CF000000B50168F2
:10068000282903D14368FFF728FF190000BD00B5F2
:100690008168282903D1C368FFF71FFF190000BD37
:1006A0003EB5826803698469056A9A4203D0A24212
:1006B00001D0AA420AD1072A08D8043F3E60D600DA
:1006C000FFF76CFF1E43836002F07BFE3EBD3EB52C
:1006D0000168826803698469056A914206D099427B
:1006E00004D0A14202D0A94200D03EBD043F3E60EA
:1006F000CE00FFF753FF1E43036002F062FE3EBDD3
:1007000000B5FFF76AFEFFF75EFEFFF747FF0360E5
:1007100000BD01B506480368013307D00023DB4361
:100720000360043F3E60034E02F04BFE01BD00003B
:10073000B40F001000B500005C0700004202043254
:10074000647570003868043F3E60043F386070474D
:1007500000B500F04FFC00F04DFC00BD7C07000030
:100760006202053264726F70043740CF704700B583
:1007700000F0F0FB00F0EEFB00BDC0469C0700005F
:10078000440005327377617007CF043F3860043F3F
:100790003E60043F3A600E007047C046B00700005C
:1007A000620004326E69700007CF043F3860704702
:1007B000CC070000440005326F766572B868043FCC
:1007C0003E60043F3860FE687047C046F007000096
:1007D000440005327475636B07CF043F3860043FF3
:1007E0003E60043F3A60043F3960043F3860704720
:1007F0001408000046000432726F74003868B9684B
:100800003A69B86039613A6079687E60FE68F9607B
:100810007047C04638080000460005322D726F74DC
:100820003868B9683A6938613960BA60F968FE6059
:100830007E6879607047C04660080000200203327D
:100840003E7201CF01B440B440CF704700B5FFF70E
:1008500060FF00F0A3FB00F045FC00F043FC00BD8E
:100860008C08000020020332723E043F3E6040BC10
:1008700001BC043F3860704700B5FFF74AFF00F045
:100880004CFC00F04AFC00F089FB00BDBC080000F5
:10089000200203327240043F3E60019E043F3E60EE
:1008A000009E704700B5FFF734FF043F3E600C4EDA
:1008B00003F0A9FA03F0A4FA00BDC046E80800005E
:1008C000200206327264726F700002B0704700B589
:1008D000FFF71FFF043F3E60024E02F072FD00BDB5
:1008E0000198000002B0000000090000420003640B
:1008F000322F3868F1077610400808433860704797
:100900001409000062000364322A38680018764136
:100910003860704730090000420004647368720058
:100920003868F10776084008084338607047C046C9
:10093000480900006200046473686C00386800189D
:10094000764138607047C0465C090000420004648C
:1009500061627300002E08D47047C0467C09000015
:10096000420007646E656761746538680021C043A2
:10097000F64301304E4138607047C046940900008C
:10098000640002642D0007CF121AB1410E00043F2B
:100990003A607047AC090000640002642B0007CF86
:1009A00012184E41043F3A607047C046CC0900001F
:1009B000610203733E64043F3E60F617704700B562
:1009C00000F0B6FA00F061FD00BDC046F809000075
:1009D000420003756D2A3868030073433B60010CC5
:1009E000320C0B005343B6B280B24E43504336181C
:1009F000360CF6187047C046280A00004200026D07
:100A00002A003868C11705D040423860F01704D07A
:100A10007642E0E7F017DED0764200B5FFF7DBFF65
:100A2000FFF7A3FF00BDC046680A0000440003753D
:100A3000642A07CF564341437618010C130C5943DF
:100A40007618010C80B292B25143434350430022C6
:100A5000C91852411204B6180A04090C80184E41F4
:100A6000043F38607047C046FC0A0000440004752B
:100A7000646D2A0010B50024043F3E607E68043F88
:100A80003E603E69FFF7A7FF310040CF300040CF06
:100A9000043F3E603E68043F3E60FE6803B4FFF7DB
:100AA0009AFF03BC330040CF320040CF043F3E608A
:100AB0003E68043F3E603E690FB4FFF78CFF0FBCF9
:100AC0009219634140CF89196241634140CF043F8D
:100AD0003E607E68043F3E60FE680FB4FFF77BFF18
:100AE0000FBC9219634140CF89196241634140CFE5
:100AF0001E003A607960B86010BDC046200B00004F
:100B00004300022A2F0000B540B440CFFFF779FF21
:100B1000043F3E6040BC00F04FF8043700BDC046C3
:100B2000440B00004300052A2F6D6F6400B540B4EC
:100B300040CFFFF766FF043F3E6040BC00F03CF84A
:100B400000BDC046680B0000430003752A2F00B5A6
:100B500040B440CFFFF73FFF043F3E6040BC00F091
:100B60001CF8043700BDC0468C0B0000430006751E
:100B70002A2F6D6F640000B540B440CFFFF72BFF04
:100B8000043F3E6040BC00F008F800BDAC0B000024
:100B9000430006756D2F6D6F640000B5043F3E6025
:100BA000002600F01AF840CF043700BDCC0B00003F
:100BB0004300056D2F6D6F6400B5043F3E60F6176E
:100BC00000F034F840CF043700BDC046200C0000D0
:100BD00044000675642F6D6F640030B4002300225A
:100BE0007968B86835003C68402640004941524168
:100BF0005B41AB4202D804D3A24202D3121BAB41E9
:100C00000130013EF1D10E0038607B60BA6030BC2B
:100C1000704730B400237A68B9680020E2E7C04624
:100C2000980C0000440005642F6D6F6400B5F01748
:100C300019D0FFF79AFEFFF7A7FDF0170CD0FFF7CA
:100C400094FEFFF7A1FDFFF7C8FFFFF79DFDFFF73B
:100C50008CFEFFF799FD00BDFFF796FDFFF7BDFF86
:100C6000FFF783FE00BDFFF78FFDF0170ED0FFF7F3
:100C70007CFEFFF789FDFFF7B0FFFFF776FEFFF779
:100C800083FDFFF772FEFFF77FFD00BDFFF77CFDE0
:100C9000FFF7A3FF00BDC046B00C00004400026493
:100CA0002F0000B5FFF7C2FFFFF77EFD00BDC04675
:100CB000F80C0000440002662A0000B5F0170DD0C1
:100CC000FFF753FEFFF760FDF0170DD0FFF74DFE65
:100CD000FFF7D0FE40CF01CF386000BDFFF754FDD5
:100CE000F017F5D0FFF741FEFFF7C4FE40CF01CF6C
:100CF0003860FFF73AFE00BD440D00004400026674
:100D00002F0000B5F0170ED0FFF72FFEFFF73CFDC8
:100D1000F0170ED0FFF729FEFFF736FDFFF779FF3A
:100D2000FFF742FD00BDFFF72FFDF017F4D0FFF7EE
:100D30001CFEFFF729FDFFF76CFFFFF716FEFFF71C
:100D400033FD00BD8C0D000020020232210006CFD1
:100D50003160726040CF704700B5FFF768FC0168F2
:100D6000426806B400F0D6FDFFF72DFB06BC01601B
:100D7000282905D0043F3E60544E00F0CEFD00BD52
:100D80000432426000F0C6FD00BDC046D40D000034
:100D9000200202324000043F7068386036687047B5
:100DA00000B500F0C5F80168282909D0043F3E606D
:100DB000474E00F090FD00F0F1F800F089FD00BD15
:100DC00041680431416000F083FD00F0E7F800F075
:100DD0007FFD00BDF40D000044000364753C07CFA7
:100DE0008E4204D801D1904201D8002670470026D7
:100DF000F6437047140E000044000364753E07CFAD
:100E0000B14204D801D1824201D8002670470026A1
:100E1000F6437047340E0000440002643C0007CFE4
:100E20008E4204DC01D1904201DC0026704700268E
:100E3000F6437047540E0000440002643E0007CFA2
:100E4000B14204DC01D1824201DC00267047002659
:100E5000F6437047700E000062020364303C0437B2
:100E6000F617704700B500F0ACF800F00EFB00BDBF
:100E7000980E000062020364303D01CF0643013E3C
:100E8000B641704700B5043F3E60124E00F081FA53
:100E900000F0D6FA00BDC046B40E00004400036462
:100EA0003C3E07CF50404E400643013EB641F6431C
:100EB0007047C046D80E0000440002643D0007CFD2
:100EC00050404E400643013EB6417047406000002E
:100ED0004068000000430000EC0E00002000037397
:100EE0007040043F3E603E007047C046FC0E00006C
:100EF000200003737021370040CF7047100F0000AF
:100F0000200003727040043F3E606E467047C0464A
:100F1000200F0000200003727021B54640CF7047BB
:100F2000440F0000610203647570043F3E60704727
:100F300006B5FFF765FB01684268FFF744FA0160F8
:100F4000426006BD700F000061020464726F7000A1
:100F500040CF704700B501681E2905D1043F3E60AF
:100F6000A14E02F02EFA00BDFFF737FA00BDC046D1
:100F7000880F00006100043F64757000002E01D0EE
:100F8000043F3E607047C046B40F00006202047325
:100F90007761700039683E600E0070470CB5FFF74E
:100FA00039FB02688368036082604268C3684360FB
:100FB000C2600CBDE00F00006202036E697004376E
:100FC000704700B5FFF71CFB81681E2902D0FFF7B0
:100FD0000AFA00BD043F3E60834E02F0F2F900BD04
:100FE000081000006202046F76657200043F3E60E4
:100FF0007E68704700B5FFF70DFB8168C268FFF798
:10100000E2F90160426000BD301000006202047429
:1010100075636B0001CF083F7E603860704700B594
:10102000FFF705FBFFF784FF00F02AF800BDC0467C
:1010300068100000630203726F7403CF083F78608A
:101040003E600E0070470EB5FFF7F1FA0168826846
:1010500003698160026103604168C2684369C160DD
:10106000426143600EBDC0468C1000006302042D37
:10107000726F740003CF083F7E60396006007047CE
:1010800000B5FFF7E0FFFFF7DEFF00BDA010000096
:101090002000047069636B00B0003E587047C04682
:1010A000B810000000000564657074684F49C91BE2
:1010B000043F3E608E087047D410000000000672A6
:1010C000646570746800043F3E606E464849891B41
:1010D0008E087047081100002002023E720040B4E2
:1010E00040CF704700B5FFF714FBFFF789FAFFF711
:1010F000C5FA043F3E603F4E01228A40164302F08B
:1011000060F9FFF76AF900BD3C110000200202728D
:101110003E00043F3E6040BC704700B5FFF7F9FA5F
:10112000FFF751F9FFF73AFA0360043F3E60324E91
:1011300001229A40164302F044F900BD5C11000000
:10114000200202724000043F3E60009E704700B5DE
:10115000FFF7DFFA02F054FE00BDC0468011000028
:101160002002057264726F7001B0704700B5FFF71E
:10117000D0FA043F3E60214E02F023F900BDC04684
:1011800094110000200005727069636BB6006E4414
:1011900036687047C0110000000004726F6C6C006C
:1011A000002E01D140CF7047B0003958C019031F3D
:1011B0001A6802600438013EF9D104370E00704706
:1011C000001200000000052D726F6C6C002E01D122
:1011D00040CF7047386839464A680A600431013E9A
:1011E000FAD1086040CF7047043700006403001054
:1011F0006404001000B4000000BC000001B0000056
:1012000018120000620203616E6401CF064070474D
:10121000043F3E607B4EBCE0341200006202036279
:10122000696301CFB04306007047043F3E60764ECD
:10123000C9E0C0464C1200006202026F720001CF8A
:1012400006437047043F3E60704EA2E06412000007
:10125000620203786F7201CF46407047043F3E60E0
:101260006B4E96E07C1200006202012A01CF4643D9
:101270007047043F3E60674E8BE0C0469C12000002
:10128000410003636C7A300006D00026400002D093
:1012900001D20136FAE7704720267047AC120000F1
:1012A000610003726F720120C6417047C0120000D6
:1012B000610003726F6C0020B61946417047C0464A
:1012C000F41200006202076172736869667401CFEC
:1012D00030410600704700B5043F3E604E4E043F6B
:1012E0003E604E4EFFF796F941681F2928D91F210D
:1012F000416025E01C130000620206727368696693
:10130000740001CFF0400600704700B5043F3E6016
:10131000434E043F3E60434E12E0C046301400008E
:101320006202066C73686966740001CFB040060003
:10133000704700B5043F3E603B4E043F3E600026D0
:10134000FFF768F90168282903D040CF00F03BF887
:1013500000BD04374168FFF740F8002901D140CFB4
:1013600000BD1F290AD889010E430268D200164326
:10137000FFF7C6F91E4302F024F800BD40CFFFF787
:10138000BFF9043F3E60294E1B021E4302F019F8CC
:1013900000BD0FB5FFF73EF90168062901D1FFF73F
:1013A000FDFD8268282A01D1FFF7F8FDFFF778F9E3
:1013B000FFF764F9C90082680E43164302F001F892
:1013C000FFF70BF80FBD0FB5FFF724F9FFF768F92A
:1013D000FFF754F98268282A0BD1043F3E60C668A3
:1013E000FFF7DCF88360043F3E601E001A0001F046
:1013F00019FCC9000E43164301F0E3FFFEF7EDFFB1
:101400000FBD0000004000008043000000430000CA
:101410004040000040430000004100000010000078
:10142000C0400000000800008040000000200000D4
:1014300054140000610202303D00013EB641704785
:1014400000B500F003F900F0BAFEFEF7C6FF7349DD
:10145000816200BD7C140000610203303C3E013E0D
:10146000B641F643704700B500F0F0F800F0A7FE73
:10147000FEF7B3FF6A49816200BDC046A0140000B8
:10148000610202303C00F617704700B500F0DEF84C
:10149000043F3E60634E00F095FE6349816200BDEB
:1014A000B81400006000047472756500043F3E606B
:1014B0000026F6437047C046CC1400006000056665
:1014C000616C7365043F3E6000267047F0140000B5
:1014D0004202023E3D0001CFB042E9DA00267047E9
:1014E000043F3E60514E043F3E60514EBEE0C04658
:1014F000141500004202023C3D0001CFB042D7DD8E
:1015000000267047043F3E604A4E043F3E604A4E0C
:10151000ACE0C046341500004202013C01CFB042AD
:10152000C6DB00267047043F3E60414E043F3E60EC
:101530003E4E9BE0541500004202013E01CFB042F6
:10154000B6DC00267047043F3E603B4E043F3E60E1
:10155000384E8BE078150000620203753E3D01CFE6
:10156000861BB641F6437047043F3E602C4E043F55
:101570003E602A4E7AE0C0469C1500006202037568
:101580003C3D01CF361AB641F6437047043F3E60FA
:101590002A4E043F3E602A4E68E0C046BC1500005B
:1015A000620202753C0001CF861BB6417047043FC2
:1015B0003E601A4E043F3E60194E57E0DC150000B5
:1015C000620202753E0001CF361AB6417047043FF1
:1015D0003E601B4E043F3E60184E47E0FC15000085
:1015E0006202023C3E0001CF811B361A0E43704757
:1015F000043F3E60134E043F3E6037E06417000036
:101600006202013D01CF361A013EB6417047043FE8
:101610003E600D4E043F3E6028E0000000D2000016
:1016200000D30000C017000000D5000000DB000060
:1016300000DA000000DC000000DD000000D800003F
:1016400000D9000000D0000000D1000000B5FEF776
:10165000D7FF2023FEF77DFF1823FEF77AFF102324
:10166000FEF777FF0823FEF774FF00BD00B5FEF715
:10167000D1FFFEF7EDFEFEF7F0FE1023FEF769FF47
:101680008268282A04D1FFF789FC39683E600E463B
:1016900040CF0168282909D14168FF2906D8043FB5
:1016A0003E60644E0E438168090206E0FEF7E6FFE5
:1016B000043F3E60604EC90016430E4301F081FEB8
:1016C000FEF78BFEFEF789FE866240CF00BD0FB5A8
:1016D0005A48816A002930D0043F3E60866A002162
:1016E0008162310AD52901D140CF0FBDFEF76BFED3
:1016F000FEF754FF0360D22903D1514E00F0AAFD3A
:101700000FBDD32905D14E4E00F0A4FD00F0B5FD6C
:101710000FBD023601F055FE043F3E60494E00F019
:101720000DF800F0AAFD043F3E60474E01F049FE6F
:10173000043F3E60434E00F001F80FBD00B5FEF7D8
:101740005FFFFEF7C4FF016809020E4301F039FE96
:1017500000BD00B5816A090AD52901D1FEF73DFE19
:1017600000BDC046801700006202036D696E01CFA4
:10177000B04200DC06007047043F3E60334E2BE071
:101780009C1700006202036D617801CFB04200DB5C
:1017900006007047043F3E602D4E1DE0BC17000060
:1017A000620204756D61780001CFB04200D306007B
:1017B0007047043F3E60274E0EE0C04660180000B0
:1017C000620204756D696E0001CFB04200D8060058
:1017D0007047043F3E60204E00B5FEF71BFF0168D6
:1017E0008268914203D140CFFEF7FDFD00BD062A7D
:1017F00001D1FFF7D3FB0168282901D1FFF7CEFB08
:10180000FEF765FFFEF743FFC9000268043F3E6034
:10181000094E0E43164301F0D4FD01F0D2FD043F02
:101820003E600E4E0E43164301F0CBFDFEF7DBFD8E
:1018300000BD0000002800008042000028000010C9
:10184000804100000020000000E0000000DB0000FC
:1018500000DC000000D8000000D3000000460000BB
:10186000A01800000000046D6F76650007B5310018
:1018700040CF320040CF00290FD0B2420DD006D366
:10188000013E013A705C50540139FBD105E03078DB
:101890001070013601320139F9D140CF07BDC04681
:1018A000C418000000000466696C6C00300040CF72
:1018B000310040CF002902D001397054FCD140CF13
:1018C0007047C04604190000200201403668704786
:1018D000043F3E60994E00B5FEF792FE0368282B48
:1018E00008D143687C21194009010E437C218B43B8
:1018F000FEF7FFFDDB001E43FEF702FF1E4301F073
:1019000060FD00BD5C1900002002012103CF3060A2
:101910000E007047043F3E60894E00B5FEF77AFE28
:101920000368282B09D143687C21194009010E4323
:101930007C218B43FEF7DDFD0360DB001E438368E3
:10194000282B02D1C368FEF7C8FD1E4301F039FD04
:10195000FEF743FDFEF741FD00BDC04694190000AF
:101960002002022B210003CF3268121832600E00D1
:10197000704700B5FEF74EFEFFF7DAFAFFF7A8FF53
:10198000FFF761FB00F0CDFBFFF708FBFFF7C2FF9D
:1019900000BDC046D8190000200202684000368809
:1019A000704700B5FEF72CFE043F3E60654E0368AD
:1019B000282B08D143683E21194049010E433E219E
:1019C0008B43FEF796FDDB001E43FEF799FE1E4398
:1019D00001F0F7FC00BDC046301A0000200202688A
:1019E000210003CF30800E00704700B5FEF712FED5
:1019F000043F3E60544E0368282B09D143683E21C2
:101A0000194049010E433E218B43FEF772FD0360EE
:101A1000DB001E438368282B02D1C368FEF75DFDFF
:101A20001E4301F0CEFCFEF7D8FCFEF7D6FC00BD4D
:101A3000681A0000200203682B2103CF3288121895
:101A400032800E00704700B5FEF7E4FDFFF770FA34
:101A5000FFF7A7FFFFF7F7FA00F063FBFFF79EFA27
:101A6000FFF7C3FF00BDC046AC1A000020020263AE
:101A700040003678704700B5FEF7C2FD043F3E6077
:101A8000324E0368282B08D143681F211940890171
:101A90000E431F218B43FEF72CFDDB001E43FEF798
:101AA0002FFE1E4301F08DFC00BDC046041B00004C
:101AB00020020263210003CF30700E00704700B592
:101AC000FEF7A8FD043F3E60214E0368282B09D194
:101AD00043681F21194089010E431F218B43FEF7E4
:101AE00008FD0360DB001E438368282B02D1C36816
:101AF000FEF7F3FC1E4301F064FCFEF76EFCFEF7FC
:101B00006CFC00BD541B0000200203632B2103CF9B
:101B10003278121832700E00704700B5FEF77AFD69
:101B2000FFF706FAFFF7A7FFFFF78DFA00F0F9FAC3
:101B3000FFF734FAFFF7C3FF00BD000000680000A4
:101B400000600000008800000080000000780000B5
:101B500000700000941B00002002046269732100E1
:101B600003CF3268024332600E00704700B5FEF7C3
:101B700051FDFFF7DDF9FFF7ABFEFFF764FA043F15
:101B80003E60AB4EFFF705FCFFF708FAFFF7C2FE19
:101B900000BDC046D41B000020020462696321001E
:101BA00003CF3268824332600E00704700B5FEF703
:101BB00031FDFFF7BDF9FFF78BFEFFF744FA043F55
:101BC0003E609C4EFFF7FFFBFFF7E8F9FFF7A2FE30
:101BD00000BDC046141C0000200204786F72210072
:101BE00003CF3268424032600E00704700B5FEF706
:101BF00011FDFFF79DF9FFF76BFEFFF724FA043F95
:101C00003E608D4EFFF7C5FBFFF7C8F9FFF782FE78
:101C100000BDC046481C00002002046269744000F8
:101C200001CF36680640013EB641F643704700B525
:101C3000FEF7F0FCFFF74CFE043F3E607F4EFFF7DF
:101C4000A8FBFFF710FC00BD881C000020020568FF
:101C50006269732103CF3288024332800E007047DD
:101C600000B5FEF7D7FCFFF763F9FFF79AFEFFF721
:101C7000EAF9043F3E606E4EFFF78BFBFFF78EF9EB
:101C8000FFF7B3FE00BDC046C81C00002002056877
:101C90006269632103CF3288824332800E0070472D
:101CA00000B5FEF7B7FCFFF743F9FFF77AFEFFF741
:101CB000CAF9043F3E605F4EFFF785FBFFF76EF900
:101CC000FFF793FE00BDC046081D00002002056816
:101CD000786F722103CF3288424032800E00704705
:101CE00000B5FEF797FCFFF723F9FFF75AFEFFF761
:101CF000AAF9043F3E60504EFFF74BFBFFF74EF949
:101D0000FFF773FE00BDC0463C1D000020020568C1
:101D10006269744001CF36880640013EB641F64301
:101D2000704700B5FEF776FCFFF73BFE043F3E60D0
:101D3000424EFFF72EFBFFF796FB00BD7C1D000017
:101D4000200205636269732103CF32780243327047
:101D50000E00704700B5FEF75DFCFFF7E9F8FFF7EE
:101D60008AFEFFF770F9043F3E60314EFFF711FB2A
:101D7000FFF714F9FFF7A3FE00BDC046BC1D00002D
:101D8000200205636269632103CF32788243327097
:101D90000E00704700B5FEF73DFCFFF7C9F8FFF7EE
:101DA0006AFEFFF750F9043F3E60224EFFF70BFB3F
:101DB000FFF7F4F8FFF783FE00BDC046FC1D0000EE
:101DC00020020563786F722103CF3278424032706F
:101DD0000E00704700B5FEF71DFCFFF7A9F8FFF7EE
:101DE0004AFEFFF730F9043F3E60134EFFF7D1FA89
:101DF000FFF7D4F8FFF763FE00BDC046401E0000A9
:101E0000200205636269744001CF36780640013EC6
:101E1000B641F643704700B5FEF7FCFBFFF72BFE1B
:101E2000043F3E60054EFFF7B4FAFFF71CFB00BD10
:101E300000430000804300004040000000400000DC
:101E4000841E0000810009666C6173682D6B687ADE
:101E5000043F3E604F4E7047E02E000000F094FDBE
:101E60001E466C6173682063616E6E6F74206265DC
:101E7000207772697474656E2074776963650A00EF
:101E800002F09AFC301F00000000083136666C61D9
:101E9000736821003FB50F20304015D000F074FD6D
:101EA000223136666C61736821206E65656473202B
:101EB00031362D616C69676E65642061646472659A
:101EC00073730A0002F078FC30680130C6D1706884
:101ED0000130C3D1B0680130C0D1F0680130BDD14C
:101EE00000F046F808CF04CF02CF01CF803F803FFB
:101EF00001B438004024284D20C0013CFCD101BC75
:101F0000FF243440E4190FC4FF25AE432348332196
:101F100001604660876080218031C1601D49096889
:101F200001611F491F4A90478037803740CF3FBD2E
:101F3000A81F000000000A6572617365666C61731A
:101F4000680072B600F014F800F015F800F01CFDFF
:101F50001A46696E69736865642065726173696E9B
:101F6000672E20526573657420210A0002F0BEFCC2
:101F700000B5322101E000B5342108480160052197
:101F800041600721816003490968C1600449054A2D
:101F9000904700BDDC0F0010FFFFFFFFE4060010BC
:101FA000F8060010F11FFF1FC81F0000000009699C
:101FB0006E6974666C6173685348544900220270FC
:101FC00001300139FBD17047B020000000000768E4
:101FD000666C6173682130B5320040CF500813D36E
:101FE00000F0D2FC1E68666C61736821206E656526
:101FF0006473206576656E206164647265737365D1
:10200000732E0A0002F0D8FB414B9A4210D200F026
:10201000BBFC1943616E6E6F742077726974652022
:10202000696E746F20636F726520210A02F0C4FB31
:10203000130935482021046824099C4226D0143015
:102040000139F8D1304820210468002C17D0143011
:102050000139F9D100F098FC21546F6F206D616E49
:10206000792073636174746572656420466C617372
:1020700068207772697465732E0A02F09DFB1B015C
:102080000360013941608160C16001610F2111402D
:102090000431465240CF0168013101600F221140E6
:1020A000082903D100F01BF8FFF7F4FE30BDC0464D
:1020B0001421000000000A666C757368666C617319
:1020C000680000B5104820210268002A03D000F003
:1020D00006F8FFF7DFFE14300139F5D100BD043FEB
:1020E0003E604668043F3E608668043F3E60C668C6
:1020F000043F3E600669043F3E600F26F6430268D7
:102100001640002202607047640400108002000044
:1021100000500000402100006202012B01CF361860
:10212000704700B5FEF776FA043F3E60D34E043F99
:102130003E60D34E8168282912D1FEF72FFF0FE0B1
:10214000B02100006202012D01CF861B704700B54F
:10215000FEF760FA043F3E60CA4E043F3E60CA4E3E
:10216000016828290ED14168FF290BD840CFFEF71E
:1021700097FA0E43816809020E4301F022F9FEF737
:102180002CF900BD0437FEF779FA8268282A03D1BA
:10219000C368FEF7A2F91A008901D2000E43164364
:1021A000FEF71BF9FEF7ACFA1E4301F00AF900BD79
:1021B000DC210000610202312D00013E7047043F26
:1021C0003E60B24E00B5FEF71BFA0168C9000E432F
:1021D000FEF796FA1E4301F0F4F800BDF42100006A
:1021E000610202312B0001367047043F3E60A84E69
:1021F000E8E7C0460C220000610202322D00023ED8
:102200007047043F3E60A34EDCE7C0462422000036
:10221000610202322B0002367047043F3E609E4E40
:10222000D0E7C0463C22000061020563656C6C2B60
:1022300004367047043F3E60984EC3E76C220000AE
:102240006102066E65676174650076427047043FFF
:102250003E60934E00B5FEF7D3F9FEF738FA0168F9
:102260000E43C9000E4301F0ACF800BD842200000B
:102270006102036E6F74F6437047043F3E60894EFF
:10228000E8E7C0469C22000061020373687276088A
:102290007047043F3E60844EDCE7C046AC2200003D
:1022A00061020373686C7600704706E0C422000088
:1022B000610202322A0076007047043F3E604026E9
:1022C000C8E7C046DC22000061020563656C6C73E0
:1022D000B6007047043F3E608026BBE7F422000052
:1022E000610202322F0076107047043F3E606F4E4D
:1022F000B0E7C0462C230000610203616273F0174F
:1023000036184640704700B5FEF77AF9043F3E6044
:10231000674E016809020E4301F053F8043F3E6026
:10232000644E01F04EF8FFF792FF00BD74230000E9
:10233000420005752F6D6F64310040CF002903D135
:10234000043F3E6000267047012200238E4206D9DA
:10235000003104D45200490001D48E42FAD88E4292
:1023600001D3761A134349085208F8D1043F3E605E
:102370001E007047E42300004200042F6D6F6400CC
:1023800000B5300040CF002E1CDA764200280CDA6F
:102390004042043F3E600600FFF7CEFF300040CFD2
:1023A0007642043F3E60060000BD043F3E600600EA
:1023B000FFF7C2FF300040CF40427642043F3E600C
:1023C000060000BD002807DA4042043F3E600600D8
:1023D000FFF7B2FF764200BD043F3E600600FFF704
:1023E000ABFF00BDF82300004200036D6F6400B531
:1023F000FFF7C6FF40CF00BD0C2400004200012FB4
:1024000000B5FFF7BDFF043700BDC0462024000023
:102410006100046576656E00012030403618704713
:10242000382400008100046261736500043F3E604F
:10243000214E70470A000000502400000000066290
:10244000696E617279001C48022101607047C046C4
:1024500068240000000007646563696D616C1648BC
:102460000A2101607047C04608250000000003688B
:1024700065781148102101607047000000300000AD
:102480000018000000380000001A0000401E000084
:10249000401C0000801E0000801C0000001D000089
:1024A00040420000C043000040080000401000000F
:1024B0000028000000D50000D80F00107E487F4A99
:1024C0000168114301607E48C12101607D480160BF
:1024D00079487D4A0168114301607C48012101600F
:1024E0007B48802101607B48852101607A48042176
:1024F00001607A4800210160754803210160784835
:10250000072101607047C04624250000810009684A
:102510006F6F6B2D656D6974043F3E60714E70473F
:102520001A26000040250000810008686F6F6B2D9F
:102530006B657900043F3E606B4E70474226000099
:102540006025000081000A686F6F6B2D656D6974EE
:102550003F00043F3E60654E704770260000C04655
:102560007C250000810009686F6F6B2D6B65793FDA
:10257000043F3E605E4E70479E2600009C25000092
:1025800081000A686F6F6B2D706175736500043F81
:102590003E60584E70479A480000C046B42500007F
:1025A000000004656D6974000FB54E4800F029F80D
:1025B0000FBDC046C82500000000036B65790FB54C
:1025C000494800F01EF80FBDDC250000000005653D
:1025D0006D69743F454800688746C046F025000095
:1025E0000000046B65793F00414800688746C0469B
:1025F0000826000000000570617573653D4800689D
:10260000874600688746C0463026000000000B73EE
:10261000657269616C2D656D697400B500F028F80C
:10262000002E40CFFAD0F6B22B48066040CF00BD56
:102630005C26000000000A73657269616C2D6B6591
:10264000790000B500F02BF8002E40CFFAD0043FFF
:102650003E60214E3668F6B200BDC0468C260000B2
:1026600000000C73657269616C2D656D69743F00C3
:1026700000B5FFF7C3FF043F3E6000261E4820223E
:102680000168114000D0F64300BDC046FC260000A2
:1026900000000B73657269616C2D6B65793F00B545
:1026A000FFF7ACFF043F3E6000261348012201689B
:1026B000114000D0F64300BD80800440400001007E
:1026C000A4400440A840044000100000988004404A
:1026D0000C800040288000400080004004800040C2
:1026E00008800040D40F0010D00F0010CC0F001055
:1026F000C80F0010C40F00101480004020270000F5
:102700000000076365787065637400B5386801B4CC
:102710000130386000F00BF801BC067040CF00BDFE
:10272000982700000000066163636570740000B5BF
:1027300002CF01390022FFF742FF300040CF7F284F
:1027400009D0202819D2092816D00A281FD00D2810
:102750001DD00828EFD1002AEDD000F015F90308AC
:102760002008002AE7D0885C013A80230340E2D0A9
:1027700040230340F5D0DEE72020B242DBD2043F05
:102780003E600600FFF710FF01328854D3E71600C1
:1027900000F0A8F800BDC046AC270000400003745C
:1027A0006962043F3E602B4E7047C046C42700005C
:1027B0008100033E696E043F3E60274E7047000073
:1027C0000000C046EC27000082000E63757272653F
:1027D0006E742D736F7572636500043F3E601F4E0B
:1027E0007047000000009C000010C0460828000050
:1027F000000009736574736F75726365174802CFC3
:102800000660416040CF7047282800000000067332
:102810006F7572636500043F3E60104E043F706840
:10282000386036687047C0466028000000000571B7
:10283000756572790FB5084800210160FFF7B1FF97
:10284000043F3E60043F3E60C826FFF770FFFFF77D
:10285000D5FF0FBD9C000010C00F0010B80F001076
:10286000B0280000000007636F6D706172650FB5DE
:10287000310040CF01CF884202D040CF00260FBDAB
:1028800002CF002810D001380A5C335C412A02D301
:102890005B2A00D22032412B02D35B2B00D22033A3
:1028A0009A42EED000260FBD0026F6430FBDC0466B
:1028B000C428000000000263720000B500F064F854
:1028C000010A00BDD8280000000002626C00043F2D
:1028D0003E6020267047C046EC28000000000573CB
:1028E00070616365043F3E6020265DE60C290000B0
:1028F0000000067370616365730000B5002E03DD90
:10290000FFF7F0FF013EFBD140CF00BD1C290000C6
:102910005000065B636861725D0005E034290000C9
:10292000000004636861720000B501F053FC40CF01
:10293000367800BD4429000050040128043F3E6061
:10294000292606E0602900005004015C043F3E6037
:10295000002600B501F048FC043740CF00BDC0465A
:10296000A82900001000022E22009F4800B5043F55
:102970003E60060000F0DEF9043F3E60222601F0D2
:1029800033FC00F05EFD00BD0AB4043F3E607646B5
:10299000013E33780121013319405B187146C91893
:1029A0008E460ABC3CE0C046D029000010000263FD
:1029B00022008E48DAE7043F3E607646013E3378D7
:1029C0000121013319405B187146C9188E467047C2
:1029D000FC2900001000027322008548C6E7043F6E
:1029E0003E607646043F3E60013E36780121731C0E
:1029F00019405B187146C9188E467047142A0000AA
:102A0000000005636F756E740136043F3E60013E41
:102A1000367870473C2A00000000056374797065C1
:102A200001B53078002807D00136043F3E60367883
:102A3000FFF7BAFD0138F7D140CF01BD6C2A000085
:102A40000000047479706500310040CF300040CF41
:102A500000B5002908D00022043F3E60865CFFF7E5
:102A6000A3FD01329142F7D100BDC046A82A000063
:102A70000000046865782E0007B5310040CF2020A3
:102A80000F220438043F3E600E00C6401640092E57
:102A900001D9373600E03036FFF786FD0028F0D147
:102AA000FFF720FF07BDC046B82A000000000368FA
:102AB0002E731FB54F4C0EE0C82A000000000375AE
:102AC0002E731FB54C4C06E0482B00000000022E70
:102AD00073001FB5494C4A49C91B8908494A106807
:102AE00003B40A201060FFF74FFF08537461636B53
:102AF0003A205B00043F3E600E0001F053FDFFF7FB
:102B000043FF025D200003BC3E4A106000290AD04A
:102B10003D4A106806B4043F3E600600A04706BC6C
:102B2000043A0139F5D1FFF72FFF0620544F533AED
:102B30002000043F3E603600A047FFF725FF042039
:102B40002A3E0A001FBDC0460C2C0000000005777D
:102B50006F72647300B5FFF717FF010A00F0B9FE4A
:102B6000FFF712FF09416464726573733A20043FF2
:102B70003E60FFF781FFFFF707FF064C696E6B3A77
:102B80002000043F3E603668FFF776FFFFF7FCFE4B
:102B900007466C6167733A20043F3E60B688FFF7D2
:102BA0006BFFFFF7F1FE06436F64653A2000B01D2E
:102BB00000F0CAFE043F3E600600FFF75DFFFFF72E
:102BC000E3FE064E616D653A2000043F3E60063626
:102BD000FFF726FFFFF7D8FE010A00F092FE300053
:102BE00040CFBDD040CF00BD88290000B6290000ED
:102BF000DE290000792A000093450000A545000069
:102C000064030010D80F001060030010282D00008E
:102C100000001072656769737465726C697465721F
:102C2000616C2C003FB5350040CF2900C900294315
:102C30002D02AC480543FF2300223000D0409843CA
:102C400001D00132F9E73000D04018402843043F5A
:102C50003E60060000F0B5FBA34805431800904015
:102C6000864310D000243000E040984301D0013466
:102C7000F9E7101B043F3E600E008001064300F0A0
:102C8000A0FB2200DFE7002A06D0043F3E600E00D2
:102C90009201164300F095FB40CF3FBD1FB53100B8
:102CA00040CF924C0C43C9000C434901300040CF47
:102CB000020EFF231A408B4B0B431343043F3E602D
:102CC0001E0000F07EFB043F3E60260000F079FB12
:102CD000020CFF231A40864B0B431343043F3E6014
:102CE0001E0000F06EFB043F3E60260000F069FB12
:102CF000020AFF231A407E4B0B431343043F3E60FE
:102D00001E0000F05EFB043F3E60260000F059FB11
:102D10000200FF231A40764B0B431343043F3E60EF
:102D20001E0000F04EFB1FBD982D00000000056343
:102D3000616C6C2C0FB5330000F0AAFE300040CF60
:102D40001B1A043B6B49194000290ED06A4A914274
:102D50000BD00136043F3E600026FFF763FF043FBF
:102D60003E60664E00F02DFB0FBD40CF5B0864480F
:102D7000644919400843DB0A6349194009040843C0
:102D80009B0A0121194089060843043F3E60060062
:102D900000F047FB0FBDC046EC2D00000000086CA2
:102DA00069746572616C2C0008B5043F3E60574E33
:102DB00000F007FB043F3E60554E00F002FB554B10
:102DC0003000184098420BD1F643043F3E6006267F
:102DD000FFF728FF043F3E604F4E00F0F2FA08BDB7
:102DE000043F3E600626FFF71DFF08BD142E0000BD
:102DF0000000066372656174650000B500F047F875
:102E00002E20000233308047043F3E607646013E6C
:102E100000BDC046802E0000200005646F65733E33
:102E20002E20000233308047043F3E607646013E4C
:102E30007047043F3E607646013E384A1368384981
:102E400009683648834205D20F2008400E2805D075
:102E50000231F9E70220084000D10231023111604D
:102E60000136043F3E600026FFF718FF043F3E6036
:102E7000224E00F0A6FA136000F0FFF900BDC04634
:102E8000282F00000000073C6275696C647300B570
:102E900000F0A4FB21480168204A91420CD200F0C6
:102EA000F7FD0F2006400E2E40CF10D0043F3E60AD
:102EB000362600F086FAF2E700F0EAFD022006402E
:102EC00040CF04D1043F3E60362600F07AFA043F3A
:102ED0003E60144E00F075FA043F3E60102600F08C
:102EE000E3FA00BD00200000001000000002000016
:102EF000003000000100C0FF0000C0FF804700005C
:102F000000F800F0FF070000FF030000043F00008E
:102F10003E6000000000FFFFF643000000000010CC
:102F20001400001000B50000342F00005000035BB7
:102F3000275D03E04C2F00000000012700B501F0E1
:102F400049F900F040FD300040CF00BD8C2F00005B
:102F5000100008706F7374706F6E650000B5FFF736
:102F6000EDFF102101400DD12021014005D0FFF7D8
:102F70001BFF043F3E60E74E04E0FFF715FF043FF0
:102F80003E60E54EFFF7D6FE00BDC046D82F0000DC
:102F9000000007696E6C696E652C00B5DF49E04A78
:102FA000E04B3088884208D0904208D0984206D042
:102FB000043F3E60060000F004FA0236F1E740CF1D
:102FC00000BD0EB4D64AD74B01880230914201D0E1
:102FD0009942F9D10EBC7047EC2F0000000004723A
:102FE00065742C00043F3E60CD4EEAE1FC2F0000EA
:102FF0003000046578697400F4E7C04614300000BE
:1030000030000772656375727365043F3E60C64E9B
:1030100036688FE62C30000081000573746174659A
:10302000043F3E60C14E7047000000004030000089
:103030000000015DBD480021C94301607047C046E2
:10304000503000001000015BB8480021016070475B
:10305000783000000008013A00B5B548076000F07C
:10306000BDFA043F3E60AD4E00F0ABF9AF48002121
:10307000C943016000BDC046D83000003010013B9C
:1030800000B5AB480168B9420ED0FFF77DFC1520B2
:10309000537461636B206E6F742062616C616E6348
:1030A00065642E0A01F088FB043F3E609C4E9F48F9
:1030B0000068411C07D0062804D8043F3E609D4E9E
:1030C00000F00EF9974E00F07CF900F0D6F8974822
:1030D0000021016000BDC046EC3000000000076523
:1030E000786563757465300040CF87460431000011
:1030F000101009696D6D656469617465043F3E6017
:103100001026EDE01C310000101006696E6C696E2F
:103110006500043F3E602026E2E0C04638310000F2
:1031200010100B636F6D70696C656F6E6C79043F86
:103130003E603026D4E0C0465431000010100A3002
:103140002D666F6C6461626C6500043F3E604026D2
:10315000C6E0C0467031000010100A312D666F6C59
:103160006461626C6500043F3E604126B8E0C04681
:103170008C31000010100A322D666F6C6461626C35
:103180006500043F3E604226AAE0C046A831000028
:1031900010100A332D666F6C6461626C6500043F29
:1031A0003E6043269CE0C046C431000010100A3443
:1031B0002D666F6C6461626C6500043F3E6044265E
:1031C0008EE0C046E031000010100A352D666F6CAD
:1031D0006461626C6500043F3E60452680E0C04645
:1031E000FC31000010100A362D666F6C6461626C51
:1031F0006500043F3E60462672E0C046183200007B
:1032000010100A372D666F6C6461626C6500043FB4
:103210003E60472664E0C046483200000000086374
:103220006F6E7374616E740000B500F0D7F9FFF72C
:10323000BBFD043F3E603B4E00F0C3F8FFF785FF47
:1032400000F01BF800BDC0466C32000000000932DF
:10325000636F6E7374616E7400B500F0BFF9396806
:103260003E600E46FFF7A0FDE1E7C046D032000009
:10327000000006736D756467650000B52E4801682F
:103280002D4A91421ED202390A882C4B9A4204D10F
:10329000043F3E602A4E00F094F800F06BF800F016
:1032A0007DF828480068043F3E600600264909680A
:1032B0000431214A1368116000F083F81360FEF7AF
:1032C00000FF00BD00F056F8043F3E60002608E015
:1032D0004C330000000008736574666C616773000E
:1032E00000B515480168144A914205D21548016895
:1032F0003143016040CF00BD320040CF124800682A
:10330000043001880D4B994201D1110000E01143B6
:10331000018000BD9A2F0000342D000000B5000090
:1033200000BD00007047000014000010B40F001032
:10333000100000102010000000000010FFFF00002F
:10334000000000002000001004000010683300009E
:10335000410007616C69676E656401203040361872
:1033600002203040361870478C33000000000561A1
:103370006C69676E00B58E4801680220014004D078
:10338000043F3E60002600F01CF800BDB83300008A
:10339000000008616C69676E31362C0000B5844806
:1033A00001680F20014005D0043F3E60002600F078
:1033B00008F8F4E700BDC046FC33000000000268D6
:1033C0002C000FB5B6B27B480168002902D001314C
:1033D00000D0016076480168754A914205D2043FE9
:1033E0003E600E00FEF7F7FD02E0320040CF0A809B
:1033F000043F3E60022600F057F80FBD183400006D
:103400000000012C00B5043F3E60FFF7DAFF360CE8
:10341000FFF7D7FF00BDC046343400000000033E74
:103420003C2C00B5043F3E60360CFFF7CAFFFFF7A7
:10343000C8FF00BD9C340000000007737472696E01
:10344000672C07B5FF21314040CF300040CF002925
:1034500005D1043F3E600026FFF7B3FF07BD043FE0
:103460003E60067836020E43FFF7ABFF01300139AC
:1034700002290AD3043F3E6046783602027816439A
:10348000FFF79FFF02300239F2E7002900D107BDA4
:10349000043F3E600678FFF794FF07BDF834000054
:1034A000000005616C6C6F7441480168404A9142AC
:1034B0000FD2320040CF89183F4A914219D3FFF70B
:1034C00063FA0B466C6173682066756C6C0A01F0D8
:1034D00073F9320040CF8918384A1268914208D3F4
:1034E000FFF752FA0952616D2066756C6C0A01F0A3
:1034F00063F901607047C0462035000000000D638D
:103500006F6D70696C65746F72616D3F043F3E60F2
:103510000026274800682649884248D3F64370476A
:103520004035000000000C636F6D70696C65746F4E
:1035300072616D001E4800681D49884211D37047B2
:10354000CC35000000000E636F6D70696C65746FA0
:10355000666C61736800164800681549884200D29D
:1035600070471748174902680B680A6003601048E3
:10357000154902680B680A600360104800688342BE
:1035800015D300B5FFF700FA232056617269616216
:103590006C657320636F6C6C69646520776974680F
:1035A0002064696374696F6E6172790A00BD704747
:1035B00000000010B40F0010008000002400001074
:1035C000040000101C00001018000010C836000095
:1035D00000000828637265617465290000B500F079
:1035E000F9FD002E0ED1FFF7CFF91520437265616A
:1035F0007465206E65656473206E616D6520210AB7
:1036000001F0DAF83868043F3E60043F386000F0AB
:10361000ABF940CF002E40CF11D03868043F3E6058
:10362000043F3860FFF7B0F9095265646566696E5A
:103630006520FFF709FAFFF7A7F9022E0A00FFF746
:1036400099FE924800689149884225D2904800210D
:103650000160FFF7A3FE043F3E600C26FFF724FF46
:1036600000F016FA043F3E600626FFF71DFFFDF747
:1036700001FDFFF7E6FE874801680A68864B9A421B
:1036800007D1824A13681160043F3E60FFF7BAFE1B
:103690001360066040CF12E000F0FAF97D48043F65
:1036A0003E600668FFF7AEFE043F3E607B4EFFF7CC
:1036B00088FE7848310040CF0160FFF7C2FE7348B2
:1036C00001687748016000BDE03600000000087620
:1036D00061726961626C6500043F3E60012613E01F
:1036E000F8360000000009327661726961626C652B
:1036F000043F3E60022607E0D03700000000096E5C
:103700007661726961626C6500B5FFF767FF5F48BB
:1037100001685E4A914233D20F200640B2006148F0
:103720000168891A604A91420BD2FFF72DF90F4EBA
:103730006F7420656E6F7567682052414D0A01F005
:103740003BF80160043F3E600E00FFF72DFB043F95
:103750003E60564EFFF735FE300040CF0200002895
:1037600005D00E600431FFF74DFE0138F9D1043F5A
:103770003E6080261643FFF7B3FDFFF77EFD00BDD8
:1037800000F086F90220064040CF04D1043F3E609D
:103790003626FFF716FE043F3E60454EFFF741FE1A
:1037A000043F3E60434EFFF73CFE043F3E603F4E09
:1037B000FFF707FE300040CF002803D0FFF722FEBE
:1037C0000138FBD1FFF7C1FCFFF757FD00BDC04634
:1037D000BC3800000000076275666665723A00B585
:1037E000FFF7FCFE0120304036180220304036182A
:1037F00026480168254A914226D22A480168891B39
:10380000294A91420BD2FFF7BFF80F4E6F74206523
:103810006E6F7567682052414D0A00F0CDFF016060
:10382000043F3E600E00FFF7BFFA043F3E601F4EAC
:10383000FFF7C7FDFFF7E6FD043F3E601E4EFFF7B2
:103840004FFDFFF71AFD00BD00F022F902200640EF
:1038500040CF04D1043F3E603626FFF7B2FD043F5F
:103860003E60134EFFF7DDFD043F3E60114EFFF753
:10387000D8FD043F3E600D4EFFF7A3FDFFF714FE99
:10388000FFF763FCFFF7F9FC00BD0000000000102B
:103890002000001004000010FFFFFFFFFFFF0000EA
:1038A00014000010240000100807001070470000EA
:1038B0003E60043F02367E4640010000EC380000C6
:1038C00000000F64696374696F6E6172797374616B
:1038D0007274424800684149043F3E60884201D208
:1038E0003F4E70473F4E36687047C046283900004B
:1038F00000000E64696374696F6E6172796E657839
:10390000740003B531683848814207D08879FF28B0
:1039100004D00E00043F3E60002603BD043F3E601D
:103920000026F64303BDC0465C39000000000A7360
:103930006B6970737472696E6700317801310122AE
:103940000A4089187618704706B4017801310122BF
:103950000A408918401806BC7047C046F03900007C
:1039600000000466696E64003FB500220023350044
:1039700040CF340040CFFFF7ACFF1C48B1888842ED
:1039800017D0043F3E600636FFF73EF8043F3E6026
:103990002600043F3E602E00FEF769FF002E40CF58
:1039A00007D0B01DFFF7D0FF02000B000B4882428A
:1039B00004D2FFF7A6FF300040CFDED01600043F50
:1039C0003E601E003FBD00B531003868FFF7CCFFF8
:1039D0003A68002A01D100F05BFE00BD0000001033
:1039E0000003000004000010FFFFFFFFFFFF0000C6
:1039F0004C3A0000000006636A756D702C003200BE
:103A000040CF310040CF8B1B043BE54919400029D2
:103A10000DD0E44881420AD0FEF7B6FF0D4A756D1D
:103A20007020746F6F206661720A00F0C5FE5B1033
:103A3000FF210B40134330001E0000B5DA4A136823
:103A40001060FFF7BEFC136000BDC046843A000062
:103A50000000056A756D702C310040CF300040CFFA
:103A60000B1A043BD1491940002902D0D04A914297
:103A7000D2D15B10CF4A1340CF4A1343043F3E607C
:103A80001E00DAE79C3A00000000046865726500D9
:103A9000043F3E60C44E36687047C046C43B0000D9
:103AA00000000D666C6173687661722D68657265E1
:103AB000043F3E60C14E3668704700B5043F3E602B
:103AC000BF4EFFF77EFC043F3E60BE4EFFF779FC21
:103AD00000BDDDE700B500F037F839683E600E46FE
:103AE000043F3E60B84EFFF78AFF00BD00B500F00E
:103AF0002BF839683E600E46043F3E60B34EFFF738
:103B00007EFF00BD00B5FFF7D8FF00F01DF8396853
:103B10003E600E46043F3E60AD4EFFF770FF00BDB5
:103B200000B500F011F839683E600E46FFF794FFCB
:103B300000BD00B5FFF7C1FFFFF7AAFF043F3E60DD
:103B40000226FFF7B1FC00BD00B5FFF7A1FF043F5F
:103B50003E600226FFF7A8FC00BD00B5FFF798FF06
:103B6000FFF77AFF00BD00B5FFF792FF043F3E600C
:103B7000974EFFF744FF00BD00B5FFF789FF043FF4
:103B80003E60914EFFF73BFF00BD00B5FCF738FDEE
:103B9000FCF75EFCFCF761FCFCF764FC81682829FB
:103BA00001D1FCF774FDFCF769FD043F3E60894ECE
:103BB00009020E43FFF705FCFCF70FFCFCF73CFC89
:103BC00000BDC046343C000030060269660000B506
:103BD000FFF7AFFF043F3E607D4E043F3E6002268C
:103BE00000BD00B5FCF795FDFDF7B3FD816A002926
:103BF00010D002B4FCF720FCFFF74AFF043F3E6000
:103C00000226FFF751FC043F3E6040BC043F3E608B
:103C1000022600BDFFF7B9FFFFF73AFF043F3E6001
:103C20000226FFF741FC043F3E60694E043F3E60C0
:103C3000022600BD683C0000300004656C7365001E
:103C400000B5022E26D140CFFFF77EFFFDF712FA16
:103C5000FFF71EFF39683E600E46FFF7D0FE043FB7
:103C60003E60052600BDC046B43C00003000047430
:103C700068656E00052E01D140CF6EE7022E09D196
:103C800040CF00B5FFF704FF39683E600E46FFF7EE
:103C9000B6FE00BDFEF778FE175374727563747537
:103CA00072657320646F6E2774206D617463680A97
:103CB00000F082FDE43C0000300006726570656132
:103CC0007400042EE6D140CF00B5FDF7B6F9FFF73A
:103CD00027FFFFF7DDFE39683E600E46FFF78FFED7
:103CE00000BDC046103D00003006057768696C6570
:103CF000012ECFD140CF00B5FFF769FF023600BDDE
:103D0000012EC7D140CF00B5FFF76BFF023600BDD3
:103D1000703D0000300605756E74696C012EB9D1D6
:103D200040CFEFE67047012EB4D140CF00B5FDF78C
:103D300010FD816A00290DD002B4FCF77DFBFFF76E
:103D400003FF39683E600E46043F3E6040BCFFF70B
:103D500056FE00BDFFF719FFFFF7F6FE39683E601B
:103D60000E46043F3E601A4EFFF749FE00BDC046B6
:103D7000843D0000300005616761696E012E89D1C4
:103D800040CFCDE6D83D0000300005626567696E22
:103D900000B5FFF79EFE043F3E60012600BD000017
:103DA00001FFFFFF00FFFFFF0000001001F8FFFF11
:103DB00000F8FFFFFF07000000E0000024000010F3
:103DC000002E000040CF000000D1000000D700000E
:103DD00000D0000000280000F03D00002002016B30
:103DE000043F3E60029E7047043F3E608E4E0AE0F4
:103DF0001C3E00002002016A043F3E60009E7047A6
:103E0000043F3E60894E00B5FCF7DDFAFCF7C6FBC7
:103E100003601B021E43FFF7D4FA00BD483E0000BA
:103E200020020169043F3E602600704700B5043F50
:103E30003E607F4EFCF7C7FAFCF7B0FB03601E4301
:103E4000FFF7BFFA00BDC046883E00003000056C99
:103E50006561766500B5774801683B00043F1A68E4
:103E6000043B1A6008338B42F9D103B4FFF76CFEB0
:103E700003BC330040CF04390B60016004390A6889
:103E800001320A6000BDC0469C3E0000200006755D
:103E90006E6C6F6F700030BC7047C046D43E00003F
:103EA0003000052B6C6F6F70032E00D0F2E640CF10
:103EB00000B5043F3E60604EFFF76FF8FFF716FE57
:103EC0001AE0802000060019A419401B801940CF79
:103ED0007047C046183F00003000046C6F6F7000E0
:103EE000032E00D0D6E640CF00B5043F3E60534ECF
:103EF000FFF753F8FFF7EEFD00F052F94D4831009F
:103F000040CF0160043F3E604D4EFFF746F800BDD4
:103F10000134AC427047C046603F0000300202648A
:103F20006F0000B5043F3E60464EFFF736F841484B
:103F30000168043F3E600E00043F3E6000260760BB
:103F4000FFF7C7FD043F3E60032600BD00B500F04B
:103F50002EF8ECE730B4340040CF350040CF704746
:103F6000584000003002033F646F00B5043F3E60DC
:103F7000344EFFF712F8043F3E60334EFFF721FA4C
:103F80002C480168043F3E600E00FFF7DDFD01365E
:103F9000043F3E60012627480760FFF79AFD043F73
:103FA0003E60032600BD00B500F001F8E3E700B570
:103FB000FCF7AFFBFCF72EFBFCF74AFAFCF74DFAD7
:103FC000FCF750FA043F3E60204EFFF7FAF9016813
:103FD000282907D0043F3E601D4EC9000E43FFF75D
:103FE000F0F907E0043F3E604668043F3E60042667
:103FF000FEF718FE8168282907D0043F3E60154E61
:10400000C9000E43FFF7DDF907E0043F3E60C668D4
:10401000043F3E600526FEF705FEFCF7DEF9FCF7DF
:10402000DCF9FCF729FA00BD0298000000980000B6
:10403000200000000C000010C23E0000103F0000F5
:10404000963E0000543F0000AC42000030B4000037
:104050000400000005000000784000003000046308
:104060006173650000B5FCF754FB043F3E60002619
:10407000043F3E60082600BD904000003000033F32
:104080006F666C480AE0013EB64140CF7047C046BB
:10409000404100003002026F66006748082E00D0E1
:1040A000F8E540CF00B5043F3E600600FEF775FF1F
:1040B000FFF74AFD39683E600E460136043F3E6018
:1040C0000926043F3E605D4EFFF77BF900BD082ED8
:1040D00000D0DFE540CF00B5FCF79CFAFCF7B8F95B
:1040E000FCF7BBF9FCF7BEF9043F3E60544EFCF709
:1040F000CEFA0E430268282A15D14268FF2A07D853
:1041000040CF043F3E604F4E164309020E430CE081
:10411000043F3E601600FCF741FA1A00043F3E607F
:104120001E00FEF77FFDD2001643FFF74AF9FCF7A9
:1041300054F9FCF7A1F9BBE7300040CFB04270471B
:1041400078410000300005656E646F66092E00D06E
:10415000A0E540CF00B540B440CFFFF7F5FC39688B
:104160003E600E46FFF708FD043F3E6040BC043F42
:104170003E60082600BDC046C8410000300007650B
:104180006E6463617365082E00D083E540CF00B58F
:10419000043F3E60294EFFF714F900F001F800BD1E
:1041A00000B5300040CF00280DD003B401213140CC
:1041B000002903D0013EFFF7D6FC01E0FFF7CDFC5C
:1041C00003BC0138EFE700BDDC41000000000574CE
:1041D0006F6B656E043F3E60202605E04C42000098
:1041E000000005706172736510B5FEF714FB3100B5
:1041F00040CF300040CF144A12688418202E07D1D7
:1042000091420FD0835CB34202D101328418F7E7A8
:10421000914207D0835C0132B342F9D18618361B34
:10422000013E01E08618361B043F3C6006480260F0
:1042300010BD0000864000003841000040CF000063
:104240008042000000280000C00F00108C420000D7
:104250000000056469676974D44B1B68303E0BD35A
:104260000A2E0BD3073E0A2E06D3242E06D3203E59
:104270000A2E01D3242E01D3002670479E42FBD282
:10428000043F3E600026F6437047C0469843000056
:104290000000066E756D626572003FB5310040CF5B
:1042A000701E0126012204B4C04B1B6800240025A7
:1042B00000293CD00130013902782D2A04D101B007
:1042C0000022D24304B4F3E7232A01D10A23EFE703
:1042D000242A01D11023EBE7252A01D10223E7E7A5
:1042E0002E2A01D10226E3E72C2A36D0043F3E6075
:1042F0001600FFF7B3FF002E40CF2BD0043F3E60E7
:104300002600043F3E602E00043F3E601E00043F36
:104310003E6000260FB4FCF78CFB0FBC350040CF8D
:10432000340040CF0022A419554140CFC0E704BC5F
:10433000002A04D50022E443ED4301345541330003
:104340002600012B02D0043F3E602E00043F3E6059
:104350001E003FBD01B000263FBD250000240226FF
:104360000029E4D0425C01392E2AF9D0043F3E6096
:104370001600FFF773FF002E40CFEBD0043F3C60E8
:10438000043F3E601E000FB4FCF707FC0FBC340076
:1043900040CF40CFE4E7C046BC4300000000062EFB
:1043A0006469676974000A2E01D230367047242E82
:1043B00001D23736704723267047C046F4430000C9
:1043C000000004686F6C6400330040CF78480178C7
:1043D0003F290DD2013101704018012907D0013861
:1043E000027801300270013801390129F7D10370D8
:1043F0007047C04614440000000005686F6C643CC0
:10440000330040CF6A4801783F2902D20131017060
:10441000435470472C4400000000047369676E0029
:10442000002E01D440CF70472D26CDE74044000038
:10443000000002233E005E48067801303860704775
:104440005844000000000366235310B5202400F0F8
:1044500008F8013CFBD110BD7C440000000002665E
:10446000230000B5043F3E60504E3668FCF7B3FAB7
:10447000FFF799FFFFF7C4FF00BDC0469844000056
:1044800000000223530000B500F00AF8002EFBD113
:1044900038680028F8D100BDC444000000000123A2
:1044A00000B5043F3E60414E3668043F3E60002642
:1044B000FCF793FBFCF768F940CFFFF774FFFFF7B9
:1044C00083FF00BDD84400000000023C23003848B0
:1044D000002101707047C046EC44000000000266F5
:1044E0002E00043F3E60202605E0C0463C4500000B
:1044F000000003662E6E00B510B4340040CFFCF708
:1045000089FDFCF727FA043F3E600026FFF7DFFF36
:10451000FFF7B9FF40CF2C26FFF772FF002C03D026
:10452000FFF79FFF013CFBD110BC40CFFFF778FFA6
:10453000043F3E60043F3E601EE0C046544500001C
:1045400000000375642E00B5FFF7C1FFFFF79BFF66
:1045500012E0C04688450000000002642E0000B54D
:10456000FCF758FDFCF7F6F9FFF7B1FFFFF78BFFFB
:10457000FCF763FDFFF754FFFFF75DFFFEF764FAFA
:10458000FEF7B0F900BDC0469C4500000000027572
:104590002E00043F3E600026D5E7C046B44500002B
:1045A0000000012E043F3E60F617D8E7D80F001038
:1045B0005C000010FC4500000000086576616C7529
:1045C0006174650000B5FEF726F901CF01B440B46F
:1045D00040CF8A48016802B400210160FEF70EF95D
:1045E00000F014F8854802BC0160043F3E6040BC06
:1045F00001BC043F3860FEF701F900BD90470000A0
:10460000000009696E7465727072657430B57C481B
:1046100087420BD9FEF7B8F910537461636B2075AC
:104620006E646572666C6F770A00C5E075488742F4
:104630000AD2FEF7A9F90F537461636B206F766598
:1046400072666C6F770AB7E06F4C2568002D01D158
:104650003D002560FFF7BEFD002E02D1043740CF9C
:1046600030BD3868043F3E60043F3860FFF77CF996
:10467000310040CF320040CF002A15D138683100D8
:10468000FDF725F8FFF709FE320040CF002ABED122
:10469000FEF7DEF9FEF778F90C206E6F7420666F76
:1046A000756E642E0A0087E0584B1B68002B29D1D9
:1046B00000252560564B0B4009D0043740CF5548A4
:1046C0000760FEF78BFF5148012101609FE730230F
:1046D0000B40302B0ED1FEF7B7F9FEF755F912203B
:1046E000697320636F6D70696C652D6F6E6C792EC8
:1046F0000A0061E0043740CF043F3E601600FEF739
:10470000F2FC84E7043740CF4348084001D1FCF76E
:10471000DEFF8020084008D1EB1B9B0840200840AA
:1047200009D00F200840834205D3043F3E601600A5
:10473000FEF7D9FC6BE7394808400CD0FBF7F3FDD6
:104740001000FEF73EFC421C3548904738002060C0
:10475000FBF7F8FD5BE7FBF7E6FDFBF76DFE0025D9
:1047600025603048084001D1FBF7D3FF043F3E608D
:10477000160010220A4002D0FEF7B5FC47E72022BF
:104780000A4002D0FEF709FC41E7FEF7D3FA3EE704
:10479000AC470000810009686F6F6B2D71756974FB
:1047A000043F3E60204E7047E84700003C48000050
:1047B00000000471756974001C488546104FFDF7B0
:1047C000FBFB1B480A2101601048002101600E48D4
:1047D0000160FBF776FE0948016016480160164942
:1047E0004160114800688746FEF724F8FFF70EFF86
:1047F000FEF7CAF805206F6B2E0AF5E7C00F001010
:10480000640300106401001008000010B40F0010D1
:10481000000800001000001000040000000200006A
:104820002800001000100000B00F001064040010F9
:10483000D80F0010B80F00109C000010584800005E
:1048400000000565696E743F043F3E60EFF310861B
:10485000013EB6417047C04668480000200004652C
:10486000696E740062B670477848000020000464E6
:10487000696E740072B670479048000020000469A9
:1048800070737200043F3E60EFF305867047C046C8
:104890009C4800000000036E6F707047E048000005
:1048A000000009756E68616E646C656400B5FEF7A2
:1048B0006BF814556E68616E646C656420496E74A3
:1048C0006572727570742000043F3E60EFF30586D8
:1048D000FEF7D2F8FEF758F802210A0000BDC046E4
:1048E000F4480000000005726573657488488949C2
:1048F0000160C0461849000081000B6972712D7378
:1049000079737469636B043F3E60834E7047AC48B3
:1049100000008148006887463C4900008100096921
:1049200072712D6661756C74043F3E607B4E7047FA
:10493000AC480000794800688746C04664490000DA
:1049400081000E6972712D636F6C6C656374696FA1
:104950006E00043F3E60724E7047AC4800007048E5
:1049600000688746844900008100076972712D61E3
:104970006463043F3E606B4E7047AC48000069487A
:1049800000688746A44900008100076972712D699B
:104990003263043F3E60644E7047AC48000062489A
:1049A00000688746C84900008100086972712D754A
:1049B00061727400043F3E605C4E7047AC4800007A
:1049C0005A4800688746C0460C500000FFFF182D6B
:1049D0002D2D20466C6173682044696374696F6E85
:1049E000617279202D2D2D00FDF768FD5048854618
:1049F000504F2A26504851490160514851490160A1
:104A0000043F3E604F4E504DB188504B994224D0E8
:104A10004F4B0B400AD0B01DFEF796FFFEF7D1FAC0
:104A20000388408800040343ED1A16E080230B40FE
:104A300013D00F23194089006D1AB01DFEF784FFB3
:104A4000FEF7BFFA043F3E600600043F3E602E00C2
:104A5000043F3E600E00FCF709FFFEF752FF3000F6
:104A600040CFD1D03B48066040CF3B4805603B4833
:104A70003B49364A884204D0023803889342F9D031
:104A8000023038490860FDF797FAFDF77DFF544D75
:104A90006563726973702D5374656C6C61726973B0
:104AA00020524120302E39206578706572696D651D
:104AB0006E74616C2077697468204D3020636F726A
:104AC0006520666F72204C504331313134464E328E
:104AD00038206279204D61747468696173204B6F6E
:104AE00063680A00204800210160043F3E601F4EB9
:104AF000043F3E600426FEF737FF40CF002E02D071
:104B0000FEF7F1FA6DE640CF56E6696E6974000073
:104B10000CED00E00400FA05AC0F0010A80F001027
:104B2000A40F0010A00F00109C0F0010980F001091
:104B30006404001064030010000000100807001057
:104B40000400001000030000E00F0010FFFF000051
:104B5000000100001C000010240000100080000074
:104B60000050000018000010080000100A4B000060
:00000001FF
